{
	"FreeToken.sol": {
		"FreeToken": {
			"abi": [
				{
					"inputs": [],
					"stateMutability": "nonpayable",
					"type": "constructor"
				},
				{
					"inputs": [
						{
							"internalType": "int256",
							"name": "_totalSupply",
							"type": "int256"
						}
					],
					"name": "setTotalSupply",
					"outputs": [],
					"stateMutability": "nonpayable",
					"type": "function"
				},
				{
					"inputs": [
						{
							"internalType": "address",
							"name": "_to",
							"type": "address"
						},
						{
							"internalType": "uint256",
							"name": "_amount",
							"type": "uint256"
						}
					],
					"name": "transfer",
					"outputs": [],
					"stateMutability": "nonpayable",
					"type": "function"
				}
			],
			"devdoc": {
				"kind": "dev",
				"methods": {},
				"version": 1
			},
			"evm": {
				"assembly": "    /* \"FreeToken.sol\":72:601  contract FreeToken{... */\n  mstore(0x40, 0x80)\n    /* \"FreeToken.sol\":210:256  constructor(){... */\n  callvalue\n  dup1\n  iszero\n  tag_1\n  jumpi\n  0x00\n  dup1\n  revert\ntag_1:\n  pop\n    /* \"FreeToken.sol\":239:249  msg.sender */\n  caller\n    /* \"FreeToken.sol\":233:238  owner */\n  0x02\n  0x00\n    /* \"FreeToken.sol\":233:249  owner=msg.sender */\n  0x0100\n  exp\n  dup2\n  sload\n  dup2\n  0xffffffffffffffffffffffffffffffffffffffff\n  mul\n  not\n  and\n  swap1\n  dup4\n  0xffffffffffffffffffffffffffffffffffffffff\n  and\n  mul\n  or\n  swap1\n  sstore\n  pop\n    /* \"FreeToken.sol\":72:601  contract FreeToken{... */\n  dataSize(sub_0)\n  dup1\n  dataOffset(sub_0)\n  0x00\n  codecopy\n  0x00\n  return\nstop\n\nsub_0: assembly {\n        /* \"FreeToken.sol\":72:601  contract FreeToken{... */\n      mstore(0x40, 0x80)\n      callvalue\n      dup1\n      iszero\n      tag_1\n      jumpi\n      0x00\n      dup1\n      revert\n    tag_1:\n      pop\n      jumpi(tag_2, lt(calldatasize, 0x04))\n      shr(0xe0, calldataload(0x00))\n      dup1\n      0x308fda0b\n      eq\n      tag_3\n      jumpi\n      dup1\n      0xa9059cbb\n      eq\n      tag_4\n      jumpi\n    tag_2:\n      0x00\n      dup1\n      revert\n        /* \"FreeToken.sol\":262:390  function setTotalSupply(int _totalSupply) public {... */\n    tag_3:\n      tag_5\n      0x04\n      dup1\n      calldatasize\n      sub\n      dup2\n      add\n      swap1\n      tag_6\n      swap2\n      swap1\n      tag_7\n      jump\t// in\n    tag_6:\n      tag_8\n      jump\t// in\n    tag_5:\n      stop\n        /* \"FreeToken.sol\":397:599  function transfer(address _to, uint256 _amount) public {... */\n    tag_4:\n      tag_9\n      0x04\n      dup1\n      calldatasize\n      sub\n      dup2\n      add\n      swap1\n      tag_10\n      swap2\n      swap1\n      tag_11\n      jump\t// in\n    tag_10:\n      tag_12\n      jump\t// in\n    tag_9:\n      stop\n        /* \"FreeToken.sol\":262:390  function setTotalSupply(int _totalSupply) public {... */\n    tag_8:\n        /* \"FreeToken.sol\":338:348  msg.sender */\n      caller\n        /* \"FreeToken.sol\":329:348  owner == msg.sender */\n      0xffffffffffffffffffffffffffffffffffffffff\n      and\n        /* \"FreeToken.sol\":329:334  owner */\n      0x02\n      0x00\n      swap1\n      sload\n      swap1\n      0x0100\n      exp\n      swap1\n      div\n      0xffffffffffffffffffffffffffffffffffffffff\n      and\n        /* \"FreeToken.sol\":329:348  owner == msg.sender */\n      0xffffffffffffffffffffffffffffffffffffffff\n      and\n      eq\n        /* \"FreeToken.sol\":321:349  require(owner == msg.sender) */\n      tag_14\n      jumpi\n      0x00\n      dup1\n      revert\n    tag_14:\n        /* \"FreeToken.sol\":371:383  _totalSupply */\n      dup1\n        /* \"FreeToken.sol\":359:370  totalSupply */\n      0x01\n        /* \"FreeToken.sol\":359:383  totalSupply=_totalSupply */\n      dup2\n      swap1\n      sstore\n      pop\n        /* \"FreeToken.sol\":262:390  function setTotalSupply(int _totalSupply) public {... */\n      pop\n      jump\t// out\n        /* \"FreeToken.sol\":397:599  function transfer(address _to, uint256 _amount) public {... */\n    tag_12:\n        /* \"FreeToken.sol\":493:500  _amount */\n      dup1\n        /* \"FreeToken.sol\":470:477  balance */\n      0x00\n        /* \"FreeToken.sol\":470:489  balance[msg.sender] */\n      dup1\n        /* \"FreeToken.sol\":478:488  msg.sender */\n      caller\n        /* \"FreeToken.sol\":470:489  balance[msg.sender] */\n      0xffffffffffffffffffffffffffffffffffffffff\n      and\n      0xffffffffffffffffffffffffffffffffffffffff\n      and\n      dup2\n      mstore\n      0x20\n      add\n      swap1\n      dup2\n      mstore\n      0x20\n      add\n      0x00\n      keccak256\n      sload\n        /* \"FreeToken.sol\":470:500  balance[msg.sender] >= _amount */\n      lt\n      iszero\n        /* \"FreeToken.sol\":462:522  require(balance[msg.sender] >= _amount,\"Insufficient funds\") */\n      tag_16\n      jumpi\n      mload(0x40)\n      0x08c379a000000000000000000000000000000000000000000000000000000000\n      dup2\n      mstore\n      0x04\n      add\n      tag_17\n      swap1\n      tag_18\n      jump\t// in\n    tag_17:\n      mload(0x40)\n      dup1\n      swap2\n      sub\n      swap1\n      revert\n    tag_16:\n        /* \"FreeToken.sol\":553:560  _amount */\n      dup1\n        /* \"FreeToken.sol\":532:539  balance */\n      0x00\n        /* \"FreeToken.sol\":532:551  balance[msg.sender] */\n      dup1\n        /* \"FreeToken.sol\":540:550  msg.sender */\n      caller\n        /* \"FreeToken.sol\":532:551  balance[msg.sender] */\n      0xffffffffffffffffffffffffffffffffffffffff\n      and\n      0xffffffffffffffffffffffffffffffffffffffff\n      and\n      dup2\n      mstore\n      0x20\n      add\n      swap1\n      dup2\n      mstore\n      0x20\n      add\n      0x00\n      keccak256\n      0x00\n        /* \"FreeToken.sol\":532:560  balance[msg.sender]-=_amount */\n      dup3\n      dup3\n      sload\n      tag_19\n      swap2\n      swap1\n      tag_20\n      jump\t// in\n    tag_19:\n      swap3\n      pop\n      pop\n      dup2\n      swap1\n      sstore\n      pop\n        /* \"FreeToken.sol\":584:591  _amount */\n      dup1\n        /* \"FreeToken.sol\":570:577  balance */\n      0x00\n        /* \"FreeToken.sol\":570:582  balance[_to] */\n      dup1\n        /* \"FreeToken.sol\":578:581  _to */\n      dup5\n        /* \"FreeToken.sol\":570:582  balance[_to] */\n      0xffffffffffffffffffffffffffffffffffffffff\n      and\n      0xffffffffffffffffffffffffffffffffffffffff\n      and\n      dup2\n      mstore\n      0x20\n      add\n      swap1\n      dup2\n      mstore\n      0x20\n      add\n      0x00\n      keccak256\n      0x00\n        /* \"FreeToken.sol\":570:591  balance[_to]+=_amount */\n      dup3\n      dup3\n      sload\n      tag_21\n      swap2\n      swap1\n      tag_22\n      jump\t// in\n    tag_21:\n      swap3\n      pop\n      pop\n      dup2\n      swap1\n      sstore\n      pop\n        /* \"FreeToken.sol\":397:599  function transfer(address _to, uint256 _amount) public {... */\n      pop\n      pop\n      jump\t// out\n        /* \"#utility.yul\":88:205   */\n    tag_24:\n        /* \"#utility.yul\":197:198   */\n      0x00\n        /* \"#utility.yul\":194:195   */\n      dup1\n        /* \"#utility.yul\":187:199   */\n      revert\n        /* \"#utility.yul\":334:410   */\n    tag_26:\n        /* \"#utility.yul\":370:377   */\n      0x00\n        /* \"#utility.yul\":399:404   */\n      dup2\n        /* \"#utility.yul\":388:404   */\n      swap1\n      pop\n        /* \"#utility.yul\":334:410   */\n      swap2\n      swap1\n      pop\n      jump\t// out\n        /* \"#utility.yul\":416:536   */\n    tag_27:\n        /* \"#utility.yul\":488:511   */\n      tag_46\n        /* \"#utility.yul\":505:510   */\n      dup2\n        /* \"#utility.yul\":488:511   */\n      tag_26\n      jump\t// in\n    tag_46:\n        /* \"#utility.yul\":481:486   */\n      dup2\n        /* \"#utility.yul\":478:512   */\n      eq\n        /* \"#utility.yul\":468:530   */\n      tag_47\n      jumpi\n        /* \"#utility.yul\":526:527   */\n      0x00\n        /* \"#utility.yul\":523:524   */\n      dup1\n        /* \"#utility.yul\":516:528   */\n      revert\n        /* \"#utility.yul\":468:530   */\n    tag_47:\n        /* \"#utility.yul\":416:536   */\n      pop\n      jump\t// out\n        /* \"#utility.yul\":542:679   */\n    tag_28:\n        /* \"#utility.yul\":587:592   */\n      0x00\n        /* \"#utility.yul\":625:631   */\n      dup2\n        /* \"#utility.yul\":612:632   */\n      calldataload\n        /* \"#utility.yul\":603:632   */\n      swap1\n      pop\n        /* \"#utility.yul\":641:673   */\n      tag_49\n        /* \"#utility.yul\":667:672   */\n      dup2\n        /* \"#utility.yul\":641:673   */\n      tag_27\n      jump\t// in\n    tag_49:\n        /* \"#utility.yul\":542:679   */\n      swap3\n      swap2\n      pop\n      pop\n      jump\t// out\n        /* \"#utility.yul\":685:1012   */\n    tag_7:\n        /* \"#utility.yul\":743:749   */\n      0x00\n        /* \"#utility.yul\":792:794   */\n      0x20\n        /* \"#utility.yul\":780:789   */\n      dup3\n        /* \"#utility.yul\":771:778   */\n      dup5\n        /* \"#utility.yul\":767:790   */\n      sub\n        /* \"#utility.yul\":763:795   */\n      slt\n        /* \"#utility.yul\":760:879   */\n      iszero\n      tag_51\n      jumpi\n        /* \"#utility.yul\":798:877   */\n      tag_52\n      tag_24\n      jump\t// in\n    tag_52:\n        /* \"#utility.yul\":760:879   */\n    tag_51:\n        /* \"#utility.yul\":918:919   */\n      0x00\n        /* \"#utility.yul\":943:995   */\n      tag_53\n        /* \"#utility.yul\":987:994   */\n      dup5\n        /* \"#utility.yul\":978:984   */\n      dup3\n        /* \"#utility.yul\":967:976   */\n      dup6\n        /* \"#utility.yul\":963:985   */\n      add\n        /* \"#utility.yul\":943:995   */\n      tag_28\n      jump\t// in\n    tag_53:\n        /* \"#utility.yul\":933:995   */\n      swap2\n      pop\n        /* \"#utility.yul\":889:1005   */\n      pop\n        /* \"#utility.yul\":685:1012   */\n      swap3\n      swap2\n      pop\n      pop\n      jump\t// out\n        /* \"#utility.yul\":1018:1144   */\n    tag_29:\n        /* \"#utility.yul\":1055:1062   */\n      0x00\n        /* \"#utility.yul\":1095:1137   */\n      0xffffffffffffffffffffffffffffffffffffffff\n        /* \"#utility.yul\":1088:1093   */\n      dup3\n        /* \"#utility.yul\":1084:1138   */\n      and\n        /* \"#utility.yul\":1073:1138   */\n      swap1\n      pop\n        /* \"#utility.yul\":1018:1144   */\n      swap2\n      swap1\n      pop\n      jump\t// out\n        /* \"#utility.yul\":1150:1246   */\n    tag_30:\n        /* \"#utility.yul\":1187:1194   */\n      0x00\n        /* \"#utility.yul\":1216:1240   */\n      tag_56\n        /* \"#utility.yul\":1234:1239   */\n      dup3\n        /* \"#utility.yul\":1216:1240   */\n      tag_29\n      jump\t// in\n    tag_56:\n        /* \"#utility.yul\":1205:1240   */\n      swap1\n      pop\n        /* \"#utility.yul\":1150:1246   */\n      swap2\n      swap1\n      pop\n      jump\t// out\n        /* \"#utility.yul\":1252:1374   */\n    tag_31:\n        /* \"#utility.yul\":1325:1349   */\n      tag_58\n        /* \"#utility.yul\":1343:1348   */\n      dup2\n        /* \"#utility.yul\":1325:1349   */\n      tag_30\n      jump\t// in\n    tag_58:\n        /* \"#utility.yul\":1318:1323   */\n      dup2\n        /* \"#utility.yul\":1315:1350   */\n      eq\n        /* \"#utility.yul\":1305:1368   */\n      tag_59\n      jumpi\n        /* \"#utility.yul\":1364:1365   */\n      0x00\n        /* \"#utility.yul\":1361:1362   */\n      dup1\n        /* \"#utility.yul\":1354:1366   */\n      revert\n        /* \"#utility.yul\":1305:1368   */\n    tag_59:\n        /* \"#utility.yul\":1252:1374   */\n      pop\n      jump\t// out\n        /* \"#utility.yul\":1380:1519   */\n    tag_32:\n        /* \"#utility.yul\":1426:1431   */\n      0x00\n        /* \"#utility.yul\":1464:1470   */\n      dup2\n        /* \"#utility.yul\":1451:1471   */\n      calldataload\n        /* \"#utility.yul\":1442:1471   */\n      swap1\n      pop\n        /* \"#utility.yul\":1480:1513   */\n      tag_61\n        /* \"#utility.yul\":1507:1512   */\n      dup2\n        /* \"#utility.yul\":1480:1513   */\n      tag_31\n      jump\t// in\n    tag_61:\n        /* \"#utility.yul\":1380:1519   */\n      swap3\n      swap2\n      pop\n      pop\n      jump\t// out\n        /* \"#utility.yul\":1525:1602   */\n    tag_33:\n        /* \"#utility.yul\":1562:1569   */\n      0x00\n        /* \"#utility.yul\":1591:1596   */\n      dup2\n        /* \"#utility.yul\":1580:1596   */\n      swap1\n      pop\n        /* \"#utility.yul\":1525:1602   */\n      swap2\n      swap1\n      pop\n      jump\t// out\n        /* \"#utility.yul\":1608:1730   */\n    tag_34:\n        /* \"#utility.yul\":1681:1705   */\n      tag_64\n        /* \"#utility.yul\":1699:1704   */\n      dup2\n        /* \"#utility.yul\":1681:1705   */\n      tag_33\n      jump\t// in\n    tag_64:\n        /* \"#utility.yul\":1674:1679   */\n      dup2\n        /* \"#utility.yul\":1671:1706   */\n      eq\n        /* \"#utility.yul\":1661:1724   */\n      tag_65\n      jumpi\n        /* \"#utility.yul\":1720:1721   */\n      0x00\n        /* \"#utility.yul\":1717:1718   */\n      dup1\n        /* \"#utility.yul\":1710:1722   */\n      revert\n        /* \"#utility.yul\":1661:1724   */\n    tag_65:\n        /* \"#utility.yul\":1608:1730   */\n      pop\n      jump\t// out\n        /* \"#utility.yul\":1736:1875   */\n    tag_35:\n        /* \"#utility.yul\":1782:1787   */\n      0x00\n        /* \"#utility.yul\":1820:1826   */\n      dup2\n        /* \"#utility.yul\":1807:1827   */\n      calldataload\n        /* \"#utility.yul\":1798:1827   */\n      swap1\n      pop\n        /* \"#utility.yul\":1836:1869   */\n      tag_67\n        /* \"#utility.yul\":1863:1868   */\n      dup2\n        /* \"#utility.yul\":1836:1869   */\n      tag_34\n      jump\t// in\n    tag_67:\n        /* \"#utility.yul\":1736:1875   */\n      swap3\n      swap2\n      pop\n      pop\n      jump\t// out\n        /* \"#utility.yul\":1881:2355   */\n    tag_11:\n        /* \"#utility.yul\":1949:1955   */\n      0x00\n        /* \"#utility.yul\":1957:1963   */\n      dup1\n        /* \"#utility.yul\":2006:2008   */\n      0x40\n        /* \"#utility.yul\":1994:2003   */\n      dup4\n        /* \"#utility.yul\":1985:1992   */\n      dup6\n        /* \"#utility.yul\":1981:2004   */\n      sub\n        /* \"#utility.yul\":1977:2009   */\n      slt\n        /* \"#utility.yul\":1974:2093   */\n      iszero\n      tag_69\n      jumpi\n        /* \"#utility.yul\":2012:2091   */\n      tag_70\n      tag_24\n      jump\t// in\n    tag_70:\n        /* \"#utility.yul\":1974:2093   */\n    tag_69:\n        /* \"#utility.yul\":2132:2133   */\n      0x00\n        /* \"#utility.yul\":2157:2210   */\n      tag_71\n        /* \"#utility.yul\":2202:2209   */\n      dup6\n        /* \"#utility.yul\":2193:2199   */\n      dup3\n        /* \"#utility.yul\":2182:2191   */\n      dup7\n        /* \"#utility.yul\":2178:2200   */\n      add\n        /* \"#utility.yul\":2157:2210   */\n      tag_32\n      jump\t// in\n    tag_71:\n        /* \"#utility.yul\":2147:2210   */\n      swap3\n      pop\n        /* \"#utility.yul\":2103:2220   */\n      pop\n        /* \"#utility.yul\":2259:2261   */\n      0x20\n        /* \"#utility.yul\":2285:2338   */\n      tag_72\n        /* \"#utility.yul\":2330:2337   */\n      dup6\n        /* \"#utility.yul\":2321:2327   */\n      dup3\n        /* \"#utility.yul\":2310:2319   */\n      dup7\n        /* \"#utility.yul\":2306:2328   */\n      add\n        /* \"#utility.yul\":2285:2338   */\n      tag_35\n      jump\t// in\n    tag_72:\n        /* \"#utility.yul\":2275:2338   */\n      swap2\n      pop\n        /* \"#utility.yul\":2230:2348   */\n      pop\n        /* \"#utility.yul\":1881:2355   */\n      swap3\n      pop\n      swap3\n      swap1\n      pop\n      jump\t// out\n        /* \"#utility.yul\":2361:2530   */\n    tag_36:\n        /* \"#utility.yul\":2445:2456   */\n      0x00\n        /* \"#utility.yul\":2479:2485   */\n      dup3\n        /* \"#utility.yul\":2474:2477   */\n      dup3\n        /* \"#utility.yul\":2467:2486   */\n      mstore\n        /* \"#utility.yul\":2519:2523   */\n      0x20\n        /* \"#utility.yul\":2514:2517   */\n      dup3\n        /* \"#utility.yul\":2510:2524   */\n      add\n        /* \"#utility.yul\":2495:2524   */\n      swap1\n      pop\n        /* \"#utility.yul\":2361:2530   */\n      swap3\n      swap2\n      pop\n      pop\n      jump\t// out\n        /* \"#utility.yul\":2536:2704   */\n    tag_37:\n        /* \"#utility.yul\":2676:2696   */\n      0x496e73756666696369656e742066756e64730000000000000000000000000000\n        /* \"#utility.yul\":2672:2673   */\n      0x00\n        /* \"#utility.yul\":2664:2670   */\n      dup3\n        /* \"#utility.yul\":2660:2674   */\n      add\n        /* \"#utility.yul\":2653:2697   */\n      mstore\n        /* \"#utility.yul\":2536:2704   */\n      pop\n      jump\t// out\n        /* \"#utility.yul\":2710:3076   */\n    tag_38:\n        /* \"#utility.yul\":2852:2855   */\n      0x00\n        /* \"#utility.yul\":2873:2940   */\n      tag_76\n        /* \"#utility.yul\":2937:2939   */\n      0x12\n        /* \"#utility.yul\":2932:2935   */\n      dup4\n        /* \"#utility.yul\":2873:2940   */\n      tag_36\n      jump\t// in\n    tag_76:\n        /* \"#utility.yul\":2866:2940   */\n      swap2\n      pop\n        /* \"#utility.yul\":2949:3042   */\n      tag_77\n        /* \"#utility.yul\":3038:3041   */\n      dup3\n        /* \"#utility.yul\":2949:3042   */\n      tag_37\n      jump\t// in\n    tag_77:\n        /* \"#utility.yul\":3067:3069   */\n      0x20\n        /* \"#utility.yul\":3062:3065   */\n      dup3\n        /* \"#utility.yul\":3058:3070   */\n      add\n        /* \"#utility.yul\":3051:3070   */\n      swap1\n      pop\n        /* \"#utility.yul\":2710:3076   */\n      swap2\n      swap1\n      pop\n      jump\t// out\n        /* \"#utility.yul\":3082:3501   */\n    tag_18:\n        /* \"#utility.yul\":3248:3252   */\n      0x00\n        /* \"#utility.yul\":3286:3288   */\n      0x20\n        /* \"#utility.yul\":3275:3284   */\n      dup3\n        /* \"#utility.yul\":3271:3289   */\n      add\n        /* \"#utility.yul\":3263:3289   */\n      swap1\n      pop\n        /* \"#utility.yul\":3335:3344   */\n      dup2\n        /* \"#utility.yul\":3329:3333   */\n      dup2\n        /* \"#utility.yul\":3325:3345   */\n      sub\n        /* \"#utility.yul\":3321:3322   */\n      0x00\n        /* \"#utility.yul\":3310:3319   */\n      dup4\n        /* \"#utility.yul\":3306:3323   */\n      add\n        /* \"#utility.yul\":3299:3346   */\n      mstore\n        /* \"#utility.yul\":3363:3494   */\n      tag_79\n        /* \"#utility.yul\":3489:3493   */\n      dup2\n        /* \"#utility.yul\":3363:3494   */\n      tag_38\n      jump\t// in\n    tag_79:\n        /* \"#utility.yul\":3355:3494   */\n      swap1\n      pop\n        /* \"#utility.yul\":3082:3501   */\n      swap2\n      swap1\n      pop\n      jump\t// out\n        /* \"#utility.yul\":3507:3687   */\n    tag_39:\n        /* \"#utility.yul\":3555:3632   */\n      0x4e487b7100000000000000000000000000000000000000000000000000000000\n        /* \"#utility.yul\":3552:3553   */\n      0x00\n        /* \"#utility.yul\":3545:3633   */\n      mstore\n        /* \"#utility.yul\":3652:3656   */\n      0x11\n        /* \"#utility.yul\":3649:3650   */\n      0x04\n        /* \"#utility.yul\":3642:3657   */\n      mstore\n        /* \"#utility.yul\":3676:3680   */\n      0x24\n        /* \"#utility.yul\":3673:3674   */\n      0x00\n        /* \"#utility.yul\":3666:3681   */\n      revert\n        /* \"#utility.yul\":3693:3884   */\n    tag_20:\n        /* \"#utility.yul\":3733:3737   */\n      0x00\n        /* \"#utility.yul\":3753:3773   */\n      tag_82\n        /* \"#utility.yul\":3771:3772   */\n      dup3\n        /* \"#utility.yul\":3753:3773   */\n      tag_33\n      jump\t// in\n    tag_82:\n        /* \"#utility.yul\":3748:3773   */\n      swap2\n      pop\n        /* \"#utility.yul\":3787:3807   */\n      tag_83\n        /* \"#utility.yul\":3805:3806   */\n      dup4\n        /* \"#utility.yul\":3787:3807   */\n      tag_33\n      jump\t// in\n    tag_83:\n        /* \"#utility.yul\":3782:3807   */\n      swap3\n      pop\n        /* \"#utility.yul\":3826:3827   */\n      dup3\n        /* \"#utility.yul\":3823:3824   */\n      dup3\n        /* \"#utility.yul\":3820:3828   */\n      lt\n        /* \"#utility.yul\":3817:3851   */\n      iszero\n      tag_84\n      jumpi\n        /* \"#utility.yul\":3831:3849   */\n      tag_85\n      tag_39\n      jump\t// in\n    tag_85:\n        /* \"#utility.yul\":3817:3851   */\n    tag_84:\n        /* \"#utility.yul\":3876:3877   */\n      dup3\n        /* \"#utility.yul\":3873:3874   */\n      dup3\n        /* \"#utility.yul\":3869:3878   */\n      sub\n        /* \"#utility.yul\":3861:3878   */\n      swap1\n      pop\n        /* \"#utility.yul\":3693:3884   */\n      swap3\n      swap2\n      pop\n      pop\n      jump\t// out\n        /* \"#utility.yul\":3890:4195   */\n    tag_22:\n        /* \"#utility.yul\":3930:3933   */\n      0x00\n        /* \"#utility.yul\":3949:3969   */\n      tag_87\n        /* \"#utility.yul\":3967:3968   */\n      dup3\n        /* \"#utility.yul\":3949:3969   */\n      tag_33\n      jump\t// in\n    tag_87:\n        /* \"#utility.yul\":3944:3969   */\n      swap2\n      pop\n        /* \"#utility.yul\":3983:4003   */\n      tag_88\n        /* \"#utility.yul\":4001:4002   */\n      dup4\n        /* \"#utility.yul\":3983:4003   */\n      tag_33\n      jump\t// in\n    tag_88:\n        /* \"#utility.yul\":3978:4003   */\n      swap3\n      pop\n        /* \"#utility.yul\":4137:4138   */\n      dup3\n        /* \"#utility.yul\":4069:4135   */\n      0xffffffffffffffffffffffffffffffffffffffffffffffffffffffffffffffff\n        /* \"#utility.yul\":4065:4139   */\n      sub\n        /* \"#utility.yul\":4062:4063   */\n      dup3\n        /* \"#utility.yul\":4059:4140   */\n      gt\n        /* \"#utility.yul\":4056:4163   */\n      iszero\n      tag_89\n      jumpi\n        /* \"#utility.yul\":4143:4161   */\n      tag_90\n      tag_39\n      jump\t// in\n    tag_90:\n        /* \"#utility.yul\":4056:4163   */\n    tag_89:\n        /* \"#utility.yul\":4187:4188   */\n      dup3\n        /* \"#utility.yul\":4184:4185   */\n      dup3\n        /* \"#utility.yul\":4180:4189   */\n      add\n        /* \"#utility.yul\":4173:4189   */\n      swap1\n      pop\n        /* \"#utility.yul\":3890:4195   */\n      swap3\n      swap2\n      pop\n      pop\n      jump\t// out\n\n    auxdata: 0xa2646970667358221220bcb0269320c63969c5373fbc79e1e40913b1dbbbefc229792f2fb4e7ddcfe15664736f6c63430008080033\n}\n",
				"bytecode": {
					"linkReferences": {},
					"object": "608060405234801561001057600080fd5b5033600260006101000a81548173ffffffffffffffffffffffffffffffffffffffff021916908373ffffffffffffffffffffffffffffffffffffffff1602179055506104ae806100616000396000f3fe608060405234801561001057600080fd5b50600436106100365760003560e01c8063308fda0b1461003b578063a9059cbb14610057575b600080fd5b61005560048036038101906100509190610241565b610073565b005b610071600480360381019061006c9190610302565b6100d7565b005b3373ffffffffffffffffffffffffffffffffffffffff16600260009054906101000a900473ffffffffffffffffffffffffffffffffffffffff1673ffffffffffffffffffffffffffffffffffffffff16146100cd57600080fd5b8060018190555050565b806000803373ffffffffffffffffffffffffffffffffffffffff1673ffffffffffffffffffffffffffffffffffffffff168152602001908152602001600020541015610158576040517f08c379a000000000000000000000000000000000000000000000000000000000815260040161014f9061039f565b60405180910390fd5b806000803373ffffffffffffffffffffffffffffffffffffffff1673ffffffffffffffffffffffffffffffffffffffff16815260200190815260200160002060008282546101a691906103ee565b92505081905550806000808473ffffffffffffffffffffffffffffffffffffffff1673ffffffffffffffffffffffffffffffffffffffff16815260200190815260200160002060008282546101fb9190610422565b925050819055505050565b600080fd5b6000819050919050565b61021e8161020b565b811461022957600080fd5b50565b60008135905061023b81610215565b92915050565b60006020828403121561025757610256610206565b5b60006102658482850161022c565b91505092915050565b600073ffffffffffffffffffffffffffffffffffffffff82169050919050565b60006102998261026e565b9050919050565b6102a98161028e565b81146102b457600080fd5b50565b6000813590506102c6816102a0565b92915050565b6000819050919050565b6102df816102cc565b81146102ea57600080fd5b50565b6000813590506102fc816102d6565b92915050565b6000806040838503121561031957610318610206565b5b6000610327858286016102b7565b9250506020610338858286016102ed565b9150509250929050565b600082825260208201905092915050565b7f496e73756666696369656e742066756e64730000000000000000000000000000600082015250565b6000610389601283610342565b915061039482610353565b602082019050919050565b600060208201905081810360008301526103b88161037c565b9050919050565b7f4e487b7100000000000000000000000000000000000000000000000000000000600052601160045260246000fd5b60006103f9826102cc565b9150610404836102cc565b925082821015610417576104166103bf565b5b828203905092915050565b600061042d826102cc565b9150610438836102cc565b9250827fffffffffffffffffffffffffffffffffffffffffffffffffffffffffffffffff0382111561046d5761046c6103bf565b5b82820190509291505056fea2646970667358221220bcb0269320c63969c5373fbc79e1e40913b1dbbbefc229792f2fb4e7ddcfe15664736f6c63430008080033",
					"opcodes": "PUSH1 0x80 PUSH1 0x40 MSTORE CALLVALUE DUP1 ISZERO PUSH2 0x10 JUMPI PUSH1 0x0 DUP1 REVERT JUMPDEST POP CALLER PUSH1 0x2 PUSH1 0x0 PUSH2 0x100 EXP DUP2 SLOAD DUP2 PUSH20 0xFFFFFFFFFFFFFFFFFFFFFFFFFFFFFFFFFFFFFFFF MUL NOT AND SWAP1 DUP4 PUSH20 0xFFFFFFFFFFFFFFFFFFFFFFFFFFFFFFFFFFFFFFFF AND MUL OR SWAP1 SSTORE POP PUSH2 0x4AE DUP1 PUSH2 0x61 PUSH1 0x0 CODECOPY PUSH1 0x0 RETURN INVALID PUSH1 0x80 PUSH1 0x40 MSTORE CALLVALUE DUP1 ISZERO PUSH2 0x10 JUMPI PUSH1 0x0 DUP1 REVERT JUMPDEST POP PUSH1 0x4 CALLDATASIZE LT PUSH2 0x36 JUMPI PUSH1 0x0 CALLDATALOAD PUSH1 0xE0 SHR DUP1 PUSH4 0x308FDA0B EQ PUSH2 0x3B JUMPI DUP1 PUSH4 0xA9059CBB EQ PUSH2 0x57 JUMPI JUMPDEST PUSH1 0x0 DUP1 REVERT JUMPDEST PUSH2 0x55 PUSH1 0x4 DUP1 CALLDATASIZE SUB DUP2 ADD SWAP1 PUSH2 0x50 SWAP2 SWAP1 PUSH2 0x241 JUMP JUMPDEST PUSH2 0x73 JUMP JUMPDEST STOP JUMPDEST PUSH2 0x71 PUSH1 0x4 DUP1 CALLDATASIZE SUB DUP2 ADD SWAP1 PUSH2 0x6C SWAP2 SWAP1 PUSH2 0x302 JUMP JUMPDEST PUSH2 0xD7 JUMP JUMPDEST STOP JUMPDEST CALLER PUSH20 0xFFFFFFFFFFFFFFFFFFFFFFFFFFFFFFFFFFFFFFFF AND PUSH1 0x2 PUSH1 0x0 SWAP1 SLOAD SWAP1 PUSH2 0x100 EXP SWAP1 DIV PUSH20 0xFFFFFFFFFFFFFFFFFFFFFFFFFFFFFFFFFFFFFFFF AND PUSH20 0xFFFFFFFFFFFFFFFFFFFFFFFFFFFFFFFFFFFFFFFF AND EQ PUSH2 0xCD JUMPI PUSH1 0x0 DUP1 REVERT JUMPDEST DUP1 PUSH1 0x1 DUP2 SWAP1 SSTORE POP POP JUMP JUMPDEST DUP1 PUSH1 0x0 DUP1 CALLER PUSH20 0xFFFFFFFFFFFFFFFFFFFFFFFFFFFFFFFFFFFFFFFF AND PUSH20 0xFFFFFFFFFFFFFFFFFFFFFFFFFFFFFFFFFFFFFFFF AND DUP2 MSTORE PUSH1 0x20 ADD SWAP1 DUP2 MSTORE PUSH1 0x20 ADD PUSH1 0x0 KECCAK256 SLOAD LT ISZERO PUSH2 0x158 JUMPI PUSH1 0x40 MLOAD PUSH32 0x8C379A000000000000000000000000000000000000000000000000000000000 DUP2 MSTORE PUSH1 0x4 ADD PUSH2 0x14F SWAP1 PUSH2 0x39F JUMP JUMPDEST PUSH1 0x40 MLOAD DUP1 SWAP2 SUB SWAP1 REVERT JUMPDEST DUP1 PUSH1 0x0 DUP1 CALLER PUSH20 0xFFFFFFFFFFFFFFFFFFFFFFFFFFFFFFFFFFFFFFFF AND PUSH20 0xFFFFFFFFFFFFFFFFFFFFFFFFFFFFFFFFFFFFFFFF AND DUP2 MSTORE PUSH1 0x20 ADD SWAP1 DUP2 MSTORE PUSH1 0x20 ADD PUSH1 0x0 KECCAK256 PUSH1 0x0 DUP3 DUP3 SLOAD PUSH2 0x1A6 SWAP2 SWAP1 PUSH2 0x3EE JUMP JUMPDEST SWAP3 POP POP DUP2 SWAP1 SSTORE POP DUP1 PUSH1 0x0 DUP1 DUP5 PUSH20 0xFFFFFFFFFFFFFFFFFFFFFFFFFFFFFFFFFFFFFFFF AND PUSH20 0xFFFFFFFFFFFFFFFFFFFFFFFFFFFFFFFFFFFFFFFF AND DUP2 MSTORE PUSH1 0x20 ADD SWAP1 DUP2 MSTORE PUSH1 0x20 ADD PUSH1 0x0 KECCAK256 PUSH1 0x0 DUP3 DUP3 SLOAD PUSH2 0x1FB SWAP2 SWAP1 PUSH2 0x422 JUMP JUMPDEST SWAP3 POP POP DUP2 SWAP1 SSTORE POP POP POP JUMP JUMPDEST PUSH1 0x0 DUP1 REVERT JUMPDEST PUSH1 0x0 DUP2 SWAP1 POP SWAP2 SWAP1 POP JUMP JUMPDEST PUSH2 0x21E DUP2 PUSH2 0x20B JUMP JUMPDEST DUP2 EQ PUSH2 0x229 JUMPI PUSH1 0x0 DUP1 REVERT JUMPDEST POP JUMP JUMPDEST PUSH1 0x0 DUP2 CALLDATALOAD SWAP1 POP PUSH2 0x23B DUP2 PUSH2 0x215 JUMP JUMPDEST SWAP3 SWAP2 POP POP JUMP JUMPDEST PUSH1 0x0 PUSH1 0x20 DUP3 DUP5 SUB SLT ISZERO PUSH2 0x257 JUMPI PUSH2 0x256 PUSH2 0x206 JUMP JUMPDEST JUMPDEST PUSH1 0x0 PUSH2 0x265 DUP5 DUP3 DUP6 ADD PUSH2 0x22C JUMP JUMPDEST SWAP2 POP POP SWAP3 SWAP2 POP POP JUMP JUMPDEST PUSH1 0x0 PUSH20 0xFFFFFFFFFFFFFFFFFFFFFFFFFFFFFFFFFFFFFFFF DUP3 AND SWAP1 POP SWAP2 SWAP1 POP JUMP JUMPDEST PUSH1 0x0 PUSH2 0x299 DUP3 PUSH2 0x26E JUMP JUMPDEST SWAP1 POP SWAP2 SWAP1 POP JUMP JUMPDEST PUSH2 0x2A9 DUP2 PUSH2 0x28E JUMP JUMPDEST DUP2 EQ PUSH2 0x2B4 JUMPI PUSH1 0x0 DUP1 REVERT JUMPDEST POP JUMP JUMPDEST PUSH1 0x0 DUP2 CALLDATALOAD SWAP1 POP PUSH2 0x2C6 DUP2 PUSH2 0x2A0 JUMP JUMPDEST SWAP3 SWAP2 POP POP JUMP JUMPDEST PUSH1 0x0 DUP2 SWAP1 POP SWAP2 SWAP1 POP JUMP JUMPDEST PUSH2 0x2DF DUP2 PUSH2 0x2CC JUMP JUMPDEST DUP2 EQ PUSH2 0x2EA JUMPI PUSH1 0x0 DUP1 REVERT JUMPDEST POP JUMP JUMPDEST PUSH1 0x0 DUP2 CALLDATALOAD SWAP1 POP PUSH2 0x2FC DUP2 PUSH2 0x2D6 JUMP JUMPDEST SWAP3 SWAP2 POP POP JUMP JUMPDEST PUSH1 0x0 DUP1 PUSH1 0x40 DUP4 DUP6 SUB SLT ISZERO PUSH2 0x319 JUMPI PUSH2 0x318 PUSH2 0x206 JUMP JUMPDEST JUMPDEST PUSH1 0x0 PUSH2 0x327 DUP6 DUP3 DUP7 ADD PUSH2 0x2B7 JUMP JUMPDEST SWAP3 POP POP PUSH1 0x20 PUSH2 0x338 DUP6 DUP3 DUP7 ADD PUSH2 0x2ED JUMP JUMPDEST SWAP2 POP POP SWAP3 POP SWAP3 SWAP1 POP JUMP JUMPDEST PUSH1 0x0 DUP3 DUP3 MSTORE PUSH1 0x20 DUP3 ADD SWAP1 POP SWAP3 SWAP2 POP POP JUMP JUMPDEST PUSH32 0x496E73756666696369656E742066756E64730000000000000000000000000000 PUSH1 0x0 DUP3 ADD MSTORE POP JUMP JUMPDEST PUSH1 0x0 PUSH2 0x389 PUSH1 0x12 DUP4 PUSH2 0x342 JUMP JUMPDEST SWAP2 POP PUSH2 0x394 DUP3 PUSH2 0x353 JUMP JUMPDEST PUSH1 0x20 DUP3 ADD SWAP1 POP SWAP2 SWAP1 POP JUMP JUMPDEST PUSH1 0x0 PUSH1 0x20 DUP3 ADD SWAP1 POP DUP2 DUP2 SUB PUSH1 0x0 DUP4 ADD MSTORE PUSH2 0x3B8 DUP2 PUSH2 0x37C JUMP JUMPDEST SWAP1 POP SWAP2 SWAP1 POP JUMP JUMPDEST PUSH32 0x4E487B7100000000000000000000000000000000000000000000000000000000 PUSH1 0x0 MSTORE PUSH1 0x11 PUSH1 0x4 MSTORE PUSH1 0x24 PUSH1 0x0 REVERT JUMPDEST PUSH1 0x0 PUSH2 0x3F9 DUP3 PUSH2 0x2CC JUMP JUMPDEST SWAP2 POP PUSH2 0x404 DUP4 PUSH2 0x2CC JUMP JUMPDEST SWAP3 POP DUP3 DUP3 LT ISZERO PUSH2 0x417 JUMPI PUSH2 0x416 PUSH2 0x3BF JUMP JUMPDEST JUMPDEST DUP3 DUP3 SUB SWAP1 POP SWAP3 SWAP2 POP POP JUMP JUMPDEST PUSH1 0x0 PUSH2 0x42D DUP3 PUSH2 0x2CC JUMP JUMPDEST SWAP2 POP PUSH2 0x438 DUP4 PUSH2 0x2CC JUMP JUMPDEST SWAP3 POP DUP3 PUSH32 0xFFFFFFFFFFFFFFFFFFFFFFFFFFFFFFFFFFFFFFFFFFFFFFFFFFFFFFFFFFFFFFFF SUB DUP3 GT ISZERO PUSH2 0x46D JUMPI PUSH2 0x46C PUSH2 0x3BF JUMP JUMPDEST JUMPDEST DUP3 DUP3 ADD SWAP1 POP SWAP3 SWAP2 POP POP JUMP INVALID LOG2 PUSH5 0x6970667358 0x22 SLT KECCAK256 0xBC 0xB0 0x26 SWAP4 KECCAK256 0xC6 CODECOPY PUSH10 0xC5373FBC79E1E40913B1 0xDB 0xBB 0xEF 0xC2 0x29 PUSH26 0x2F2FB4E7DDCFE15664736F6C6343000808003300000000000000 "
				},
				"gasEstimates": {
					"creation": {
						"codeDepositCost": "239600",
						"executionCost": "24547",
						"totalCost": "264147"
					},
					"external": {
						"setTotalSupply(int256)": "24668",
						"transfer(address,uint256)": "infinite"
					}
				},
				"methodIdentifiers": {
					"setTotalSupply(int256)": "308fda0b",
					"transfer(address,uint256)": "a9059cbb"
				}
			},
			"storageLayout": {
				"storage": [
					{
						"astId": 5,
						"contract": "FreeToken.sol:FreeToken",
						"label": "balance",
						"offset": 0,
						"slot": "0",
						"type": "t_mapping(t_address,t_uint256)"
					},
					{
						"astId": 7,
						"contract": "FreeToken.sol:FreeToken",
						"label": "totalSupply",
						"offset": 0,
						"slot": "1",
						"type": "t_int256"
					},
					{
						"astId": 9,
						"contract": "FreeToken.sol:FreeToken",
						"label": "owner",
						"offset": 0,
						"slot": "2",
						"type": "t_address"
					}
				],
				"types": {
					"t_address": {
						"encoding": "inplace",
						"label": "address",
						"numberOfBytes": "20"
					},
					"t_int256": {
						"encoding": "inplace",
						"label": "int256",
						"numberOfBytes": "32"
					},
					"t_mapping(t_address,t_uint256)": {
						"encoding": "mapping",
						"key": "t_address",
						"label": "mapping(address => uint256)",
						"numberOfBytes": "32",
						"value": "t_uint256"
					},
					"t_uint256": {
						"encoding": "inplace",
						"label": "uint256",
						"numberOfBytes": "32"
					}
				}
			},
			"userdoc": {
				"kind": "user",
				"methods": {},
				"version": 1
			}
		}
	}
}