{
	"start.sol": {
		"Counter": {
			"abi": [
				{
					"constant": false,
					"inputs": [],
					"name": "incrementWithOut",
					"outputs": [],
					"payable": false,
					"stateMutability": "nonpayable",
					"type": "function"
				},
				{
					"constant": true,
					"inputs": [],
					"name": "getCount",
					"outputs": [
						{
							"name": "",
							"type": "uint256"
						}
					],
					"payable": false,
					"stateMutability": "view",
					"type": "function"
				},
				{
					"constant": false,
					"inputs": [],
					"name": "decrementCount",
					"outputs": [],
					"payable": false,
					"stateMutability": "nonpayable",
					"type": "function"
				},
				{
					"constant": false,
					"inputs": [],
					"name": "incrementCount",
					"outputs": [],
					"payable": false,
					"stateMutability": "nonpayable",
					"type": "function"
				},
				{
					"anonymous": false,
					"inputs": [
						{
							"indexed": false,
							"name": "value",
							"type": "uint256"
						}
					],
					"name": "increment",
					"type": "event"
				},
				{
					"anonymous": false,
					"inputs": [
						{
							"indexed": false,
							"name": "value",
							"type": "uint256"
						}
					],
					"name": "decrement",
					"type": "event"
				}
			],
			"devdoc": {
				"methods": {}
			},
			"evm": {
				"assembly": "    /* \"start.sol\":26:466  contract Counter {... */\n  mstore(0x40, 0x80)\n    /* \"start.sol\":60:61  0 */\n  0x0\n    /* \"start.sol\":49:61  uint count=0 */\n  dup1\n  sstore\n    /* \"start.sol\":26:466  contract Counter {... */\n  callvalue\n    /* \"--CODEGEN--\":8:17   */\n  dup1\n    /* \"--CODEGEN--\":5:7   */\n  iszero\n  tag_1\n  jumpi\n    /* \"--CODEGEN--\":30:31   */\n  0x0\n    /* \"--CODEGEN--\":27:28   */\n  dup1\n    /* \"--CODEGEN--\":20:32   */\n  revert\n    /* \"--CODEGEN--\":5:7   */\ntag_1:\n    /* \"start.sol\":26:466  contract Counter {... */\n  pop\n  dataSize(sub_0)\n  dup1\n  dataOffset(sub_0)\n  0x0\n  codecopy\n  0x0\n  return\nstop\n\nsub_0: assembly {\n        /* \"start.sol\":26:466  contract Counter {... */\n      mstore(0x40, 0x80)\n      jumpi(tag_1, lt(calldatasize, 0x4))\n      calldataload(0x0)\n      0x100000000000000000000000000000000000000000000000000000000\n      swap1\n      div\n      dup1\n      0x8f8dfb0e\n      eq\n      tag_2\n      jumpi\n      dup1\n      0xa87d942c\n      eq\n      tag_3\n      jumpi\n      dup1\n      0xb7f90f12\n      eq\n      tag_4\n      jumpi\n      dup1\n      0xe5071b8e\n      eq\n      tag_5\n      jumpi\n    tag_1:\n      0x0\n      dup1\n      revert\n        /* \"start.sol\":324:384  function incrementWithOut() public {... */\n    tag_2:\n      callvalue\n        /* \"--CODEGEN--\":8:17   */\n      dup1\n        /* \"--CODEGEN--\":5:7   */\n      iszero\n      tag_6\n      jumpi\n        /* \"--CODEGEN--\":30:31   */\n      0x0\n        /* \"--CODEGEN--\":27:28   */\n      dup1\n        /* \"--CODEGEN--\":20:32   */\n      revert\n        /* \"--CODEGEN--\":5:7   */\n    tag_6:\n        /* \"start.sol\":324:384  function incrementWithOut() public {... */\n      pop\n      tag_7\n      tag_8\n      jump\t// in\n    tag_7:\n      stop\n        /* \"start.sol\":390:464  function getCount() view public returns(uint){... */\n    tag_3:\n      callvalue\n        /* \"--CODEGEN--\":8:17   */\n      dup1\n        /* \"--CODEGEN--\":5:7   */\n      iszero\n      tag_9\n      jumpi\n        /* \"--CODEGEN--\":30:31   */\n      0x0\n        /* \"--CODEGEN--\":27:28   */\n      dup1\n        /* \"--CODEGEN--\":20:32   */\n      revert\n        /* \"--CODEGEN--\":5:7   */\n    tag_9:\n        /* \"start.sol\":390:464  function getCount() view public returns(uint){... */\n      pop\n      tag_10\n      tag_11\n      jump\t// in\n    tag_10:\n      mload(0x40)\n      dup1\n      dup3\n      dup2\n      mstore\n      0x20\n      add\n      swap2\n      pop\n      pop\n      mload(0x40)\n      dup1\n      swap2\n      sub\n      swap1\n      return\n        /* \"start.sol\":229:318  function decrementCount() public {... */\n    tag_4:\n      callvalue\n        /* \"--CODEGEN--\":8:17   */\n      dup1\n        /* \"--CODEGEN--\":5:7   */\n      iszero\n      tag_12\n      jumpi\n        /* \"--CODEGEN--\":30:31   */\n      0x0\n        /* \"--CODEGEN--\":27:28   */\n      dup1\n        /* \"--CODEGEN--\":20:32   */\n      revert\n        /* \"--CODEGEN--\":5:7   */\n    tag_12:\n        /* \"start.sol\":229:318  function decrementCount() public {... */\n      pop\n      tag_13\n      tag_14\n      jump\t// in\n    tag_13:\n      stop\n        /* \"start.sol\":135:223  function incrementCount() public{... */\n    tag_5:\n      callvalue\n        /* \"--CODEGEN--\":8:17   */\n      dup1\n        /* \"--CODEGEN--\":5:7   */\n      iszero\n      tag_15\n      jumpi\n        /* \"--CODEGEN--\":30:31   */\n      0x0\n        /* \"--CODEGEN--\":27:28   */\n      dup1\n        /* \"--CODEGEN--\":20:32   */\n      revert\n        /* \"--CODEGEN--\":5:7   */\n    tag_15:\n        /* \"start.sol\":135:223  function incrementCount() public{... */\n      pop\n      tag_16\n      tag_17\n      jump\t// in\n    tag_16:\n      stop\n        /* \"start.sol\":324:384  function incrementWithOut() public {... */\n    tag_8:\n        /* \"start.sol\":376:377  1 */\n      0x1\n        /* \"start.sol\":369:374  count */\n      0x0\n      dup1\n        /* \"start.sol\":369:377  count+=1 */\n      dup3\n      dup3\n      sload\n      add\n      swap3\n      pop\n      pop\n      dup2\n      swap1\n      sstore\n      pop\n        /* \"start.sol\":324:384  function incrementWithOut() public {... */\n      jump\t// out\n        /* \"start.sol\":390:464  function getCount() view public returns(uint){... */\n    tag_11:\n        /* \"start.sol\":430:434  uint */\n      0x0\n        /* \"start.sol\":452:457  count */\n      dup1\n      sload\n        /* \"start.sol\":445:457  return count */\n      swap1\n      pop\n        /* \"start.sol\":390:464  function getCount() view public returns(uint){... */\n      swap1\n      jump\t// out\n        /* \"start.sol\":229:318  function decrementCount() public {... */\n    tag_14:\n        /* \"start.sol\":279:280  1 */\n      0x1\n        /* \"start.sol\":272:277  count */\n      0x0\n      dup1\n        /* \"start.sol\":272:280  count-=1 */\n      dup3\n      dup3\n      sload\n      sub\n      swap3\n      pop\n      pop\n      dup2\n      swap1\n      sstore\n      pop\n        /* \"start.sol\":295:311  decrement(count) */\n      0x3a9ebefd0e9022a1fc7dca5027a8f0f5e8a71d2c1418950e434a825c353d0677\n        /* \"start.sol\":305:310  count */\n      sload(0x0)\n        /* \"start.sol\":295:311  decrement(count) */\n      mload(0x40)\n      dup1\n      dup3\n      dup2\n      mstore\n      0x20\n      add\n      swap2\n      pop\n      pop\n      mload(0x40)\n      dup1\n      swap2\n      sub\n      swap1\n      log1\n        /* \"start.sol\":229:318  function decrementCount() public {... */\n      jump\t// out\n        /* \"start.sol\":135:223  function incrementCount() public{... */\n    tag_17:\n        /* \"start.sol\":184:185  1 */\n      0x1\n        /* \"start.sol\":177:182  count */\n      0x0\n      dup1\n        /* \"start.sol\":177:185  count+=1 */\n      dup3\n      dup3\n      sload\n      add\n      swap3\n      pop\n      pop\n      dup2\n      swap1\n      sstore\n      pop\n        /* \"start.sol\":200:216  increment(count) */\n      0x7cf5dab01c7361384076429cdaa96970954ab0e6f0891e1226eb38be7a6b7918\n        /* \"start.sol\":210:215  count */\n      sload(0x0)\n        /* \"start.sol\":200:216  increment(count) */\n      mload(0x40)\n      dup1\n      dup3\n      dup2\n      mstore\n      0x20\n      add\n      swap2\n      pop\n      pop\n      mload(0x40)\n      dup1\n      swap2\n      sub\n      swap1\n      log1\n        /* \"start.sol\":135:223  function incrementCount() public{... */\n      jump\t// out\n\n    auxdata: 0xa165627a7a723058205163675f37689fc654184379f5e161f4c6df750554647008adcb24a9bfc7c6060029\n}\n",
				"bytecode": {
					"linkReferences": {},
					"object": "60806040526000805534801561001457600080fd5b506101ae806100246000396000f3fe60806040526004361061005c576000357c0100000000000000000000000000000000000000000000000000000000900480638f8dfb0e14610061578063a87d942c14610078578063b7f90f12146100a3578063e5071b8e146100ba575b600080fd5b34801561006d57600080fd5b506100766100d1565b005b34801561008457600080fd5b5061008d6100e3565b6040518082815260200191505060405180910390f35b3480156100af57600080fd5b506100b86100ec565b005b3480156100c657600080fd5b506100cf610137565b005b60016000808282540192505081905550565b60008054905090565b600160008082825403925050819055507f3a9ebefd0e9022a1fc7dca5027a8f0f5e8a71d2c1418950e434a825c353d06776000546040518082815260200191505060405180910390a1565b600160008082825401925050819055507f7cf5dab01c7361384076429cdaa96970954ab0e6f0891e1226eb38be7a6b79186000546040518082815260200191505060405180910390a156fea165627a7a723058205163675f37689fc654184379f5e161f4c6df750554647008adcb24a9bfc7c6060029",
					"opcodes": "PUSH1 0x80 PUSH1 0x40 MSTORE PUSH1 0x0 DUP1 SSTORE CALLVALUE DUP1 ISZERO PUSH2 0x14 JUMPI PUSH1 0x0 DUP1 REVERT JUMPDEST POP PUSH2 0x1AE DUP1 PUSH2 0x24 PUSH1 0x0 CODECOPY PUSH1 0x0 RETURN INVALID PUSH1 0x80 PUSH1 0x40 MSTORE PUSH1 0x4 CALLDATASIZE LT PUSH2 0x5C JUMPI PUSH1 0x0 CALLDATALOAD PUSH29 0x100000000000000000000000000000000000000000000000000000000 SWAP1 DIV DUP1 PUSH4 0x8F8DFB0E EQ PUSH2 0x61 JUMPI DUP1 PUSH4 0xA87D942C EQ PUSH2 0x78 JUMPI DUP1 PUSH4 0xB7F90F12 EQ PUSH2 0xA3 JUMPI DUP1 PUSH4 0xE5071B8E EQ PUSH2 0xBA JUMPI JUMPDEST PUSH1 0x0 DUP1 REVERT JUMPDEST CALLVALUE DUP1 ISZERO PUSH2 0x6D JUMPI PUSH1 0x0 DUP1 REVERT JUMPDEST POP PUSH2 0x76 PUSH2 0xD1 JUMP JUMPDEST STOP JUMPDEST CALLVALUE DUP1 ISZERO PUSH2 0x84 JUMPI PUSH1 0x0 DUP1 REVERT JUMPDEST POP PUSH2 0x8D PUSH2 0xE3 JUMP JUMPDEST PUSH1 0x40 MLOAD DUP1 DUP3 DUP2 MSTORE PUSH1 0x20 ADD SWAP2 POP POP PUSH1 0x40 MLOAD DUP1 SWAP2 SUB SWAP1 RETURN JUMPDEST CALLVALUE DUP1 ISZERO PUSH2 0xAF JUMPI PUSH1 0x0 DUP1 REVERT JUMPDEST POP PUSH2 0xB8 PUSH2 0xEC JUMP JUMPDEST STOP JUMPDEST CALLVALUE DUP1 ISZERO PUSH2 0xC6 JUMPI PUSH1 0x0 DUP1 REVERT JUMPDEST POP PUSH2 0xCF PUSH2 0x137 JUMP JUMPDEST STOP JUMPDEST PUSH1 0x1 PUSH1 0x0 DUP1 DUP3 DUP3 SLOAD ADD SWAP3 POP POP DUP2 SWAP1 SSTORE POP JUMP JUMPDEST PUSH1 0x0 DUP1 SLOAD SWAP1 POP SWAP1 JUMP JUMPDEST PUSH1 0x1 PUSH1 0x0 DUP1 DUP3 DUP3 SLOAD SUB SWAP3 POP POP DUP2 SWAP1 SSTORE POP PUSH32 0x3A9EBEFD0E9022A1FC7DCA5027A8F0F5E8A71D2C1418950E434A825C353D0677 PUSH1 0x0 SLOAD PUSH1 0x40 MLOAD DUP1 DUP3 DUP2 MSTORE PUSH1 0x20 ADD SWAP2 POP POP PUSH1 0x40 MLOAD DUP1 SWAP2 SUB SWAP1 LOG1 JUMP JUMPDEST PUSH1 0x1 PUSH1 0x0 DUP1 DUP3 DUP3 SLOAD ADD SWAP3 POP POP DUP2 SWAP1 SSTORE POP PUSH32 0x7CF5DAB01C7361384076429CDAA96970954AB0E6F0891E1226EB38BE7A6B7918 PUSH1 0x0 SLOAD PUSH1 0x40 MLOAD DUP1 DUP3 DUP2 MSTORE PUSH1 0x20 ADD SWAP2 POP POP PUSH1 0x40 MLOAD DUP1 SWAP2 SUB SWAP1 LOG1 JUMP INVALID LOG1 PUSH6 0x627A7A723058 KECCAK256 MLOAD PUSH4 0x675F3768 SWAP16 0xc6 SLOAD XOR NUMBER PUSH26 0xF5E161F4C6DF750554647008ADCB24A9BFC7C606002900000000 "
				},
				"gasEstimates": {
					"creation": {
						"codeDepositCost": "86000",
						"executionCost": "5141",
						"totalCost": "91141"
					},
					"external": {
						"decrementCount()": "21671",
						"getCount()": "418",
						"incrementCount()": "21693",
						"incrementWithOut()": "20360"
					}
				},
				"methodIdentifiers": {
					"decrementCount()": "b7f90f12",
					"getCount()": "a87d942c",
					"incrementCount()": "e5071b8e",
					"incrementWithOut()": "8f8dfb0e"
				}
			},
			"userdoc": {
				"methods": {}
			}
		}
	}
}