{
	"ActualBank.sol": {
		"ActualBank": {
			"abi": [
				{
					"inputs": [],
					"stateMutability": "nonpayable",
					"type": "constructor"
				},
				{
					"inputs": [
						{
							"internalType": "address",
							"name": "benificiaryAccount",
							"type": "address"
						}
					],
					"name": "deposit",
					"outputs": [
						{
							"internalType": "uint256",
							"name": "",
							"type": "uint256"
						}
					],
					"stateMutability": "payable",
					"type": "function"
				},
				{
					"inputs": [],
					"name": "getAccountBalance",
					"outputs": [
						{
							"internalType": "uint256",
							"name": "",
							"type": "uint256"
						}
					],
					"stateMutability": "view",
					"type": "function"
				},
				{
					"inputs": [],
					"name": "getTotalBankBalance",
					"outputs": [
						{
							"internalType": "uint256",
							"name": "",
							"type": "uint256"
						}
					],
					"stateMutability": "view",
					"type": "function"
				},
				{
					"inputs": [
						{
							"internalType": "uint256",
							"name": "_secretKey",
							"type": "uint256"
						}
					],
					"name": "openAccount",
					"outputs": [
						{
							"internalType": "uint256",
							"name": "",
							"type": "uint256"
						}
					],
					"stateMutability": "payable",
					"type": "function"
				},
				{
					"inputs": [
						{
							"internalType": "address",
							"name": "_to",
							"type": "address"
						}
					],
					"name": "transfer",
					"outputs": [
						{
							"internalType": "bool",
							"name": "",
							"type": "bool"
						}
					],
					"stateMutability": "payable",
					"type": "function"
				},
				{
					"inputs": [
						{
							"internalType": "uint256",
							"name": "_secretKey",
							"type": "uint256"
						}
					],
					"name": "withDraw",
					"outputs": [
						{
							"internalType": "uint256",
							"name": "",
							"type": "uint256"
						}
					],
					"stateMutability": "payable",
					"type": "function"
				}
			],
			"devdoc": {
				"kind": "dev",
				"methods": {},
				"version": 1
			},
			"evm": {
				"assembly": "    /* \"ActualBank.sol\":57:1988  contract ActualBank{... */\n  mstore(0x40, 0x80)\n    /* \"ActualBank.sol\":105:112  1 ether */\n  0x0de0b6b3a7640000\n    /* \"ActualBank.sol\":82:112  uint minAccountBalance=1 ether */\n  0x00\n  sstore\n    /* \"ActualBank.sol\":231:286  constructor(){... */\n  callvalue\n  dup1\n  iszero\n  tag_1\n  jumpi\n  0x00\n  dup1\n  revert\ntag_1:\n  pop\n    /* \"ActualBank.sol\":268:278  msg.sender */\n  caller\n    /* \"ActualBank.sol\":254:259  owner */\n  0x01\n  0x00\n    /* \"ActualBank.sol\":254:279  owner=payable(msg.sender) */\n  0x0100\n  exp\n  dup2\n  sload\n  dup2\n  0xffffffffffffffffffffffffffffffffffffffff\n  mul\n  not\n  and\n  swap1\n  dup4\n  0xffffffffffffffffffffffffffffffffffffffff\n  and\n  mul\n  or\n  swap1\n  sstore\n  pop\n    /* \"ActualBank.sol\":57:1988  contract ActualBank{... */\n  dataSize(sub_0)\n  dup1\n  dataOffset(sub_0)\n  0x00\n  codecopy\n  0x00\n  return\nstop\n\nsub_0: assembly {\n        /* \"ActualBank.sol\":57:1988  contract ActualBank{... */\n      mstore(0x40, 0x80)\n      jumpi(tag_1, lt(calldatasize, 0x04))\n      shr(0xe0, calldataload(0x00))\n      dup1\n      0x1000420d\n      eq\n      tag_2\n      jumpi\n      dup1\n      0x14174f33\n      eq\n      tag_3\n      jumpi\n      dup1\n      0x1a695230\n      eq\n      tag_4\n      jumpi\n      dup1\n      0x38a2ca40\n      eq\n      tag_5\n      jumpi\n      dup1\n      0x6896fabf\n      eq\n      tag_6\n      jumpi\n      dup1\n      0xf340fa01\n      eq\n      tag_7\n      jumpi\n    tag_1:\n      0x00\n      dup1\n      revert\n        /* \"ActualBank.sol\":292:581  function openAccount(uint256 _secretKey) payable public returns(uint256) {... */\n    tag_2:\n      tag_8\n      0x04\n      dup1\n      calldatasize\n      sub\n      dup2\n      add\n      swap1\n      tag_9\n      swap2\n      swap1\n      tag_10\n      jump\t// in\n    tag_9:\n      tag_11\n      jump\t// in\n    tag_8:\n      mload(0x40)\n      tag_12\n      swap2\n      swap1\n      tag_13\n      jump\t// in\n    tag_12:\n      mload(0x40)\n      dup1\n      swap2\n      sub\n      swap1\n      return\n        /* \"ActualBank.sol\":820:1232  function withDraw(uint256 _secretKey) payable public returns(uint256) {... */\n    tag_3:\n      tag_14\n      0x04\n      dup1\n      calldatasize\n      sub\n      dup2\n      add\n      swap1\n      tag_15\n      swap2\n      swap1\n      tag_10\n      jump\t// in\n    tag_15:\n      tag_16\n      jump\t// in\n    tag_14:\n      mload(0x40)\n      tag_17\n      swap2\n      swap1\n      tag_13\n      jump\t// in\n    tag_17:\n      mload(0x40)\n      dup1\n      swap2\n      sub\n      swap1\n      return\n        /* \"ActualBank.sol\":1237:1693  function transfer( address _to) public payable returns(bool){... */\n    tag_4:\n      tag_18\n      0x04\n      dup1\n      calldatasize\n      sub\n      dup2\n      add\n      swap1\n      tag_19\n      swap2\n      swap1\n      tag_20\n      jump\t// in\n    tag_19:\n      tag_21\n      jump\t// in\n    tag_18:\n      mload(0x40)\n      tag_22\n      swap2\n      swap1\n      tag_23\n      jump\t// in\n    tag_22:\n      mload(0x40)\n      dup1\n      swap2\n      sub\n      swap1\n      return\n        /* \"ActualBank.sol\":1803:1986  function getTotalBankBalance() public view returns(uint256){... */\n    tag_5:\n      callvalue\n      dup1\n      iszero\n      tag_24\n      jumpi\n      0x00\n      dup1\n      revert\n    tag_24:\n      pop\n      tag_25\n      tag_26\n      jump\t// in\n    tag_25:\n      mload(0x40)\n      tag_27\n      swap2\n      swap1\n      tag_13\n      jump\t// in\n    tag_27:\n      mload(0x40)\n      dup1\n      swap2\n      sub\n      swap1\n      return\n        /* \"ActualBank.sol\":1698:1798  function getAccountBalance() public view returns(uint256){... */\n    tag_6:\n      callvalue\n      dup1\n      iszero\n      tag_28\n      jumpi\n      0x00\n      dup1\n      revert\n    tag_28:\n      pop\n      tag_29\n      tag_30\n      jump\t// in\n    tag_29:\n      mload(0x40)\n      tag_31\n      swap2\n      swap1\n      tag_13\n      jump\t// in\n    tag_31:\n      mload(0x40)\n      dup1\n      swap2\n      sub\n      swap1\n      return\n        /* \"ActualBank.sol\":588:814  function deposit(address benificiaryAccount) payable public returns(uint256){... */\n    tag_7:\n      tag_32\n      0x04\n      dup1\n      calldatasize\n      sub\n      dup2\n      add\n      swap1\n      tag_33\n      swap2\n      swap1\n      tag_20\n      jump\t// in\n    tag_33:\n      tag_34\n      jump\t// in\n    tag_32:\n      mload(0x40)\n      tag_35\n      swap2\n      swap1\n      tag_13\n      jump\t// in\n    tag_35:\n      mload(0x40)\n      dup1\n      swap2\n      sub\n      swap1\n      return\n        /* \"ActualBank.sol\":292:581  function openAccount(uint256 _secretKey) payable public returns(uint256) {... */\n    tag_11:\n        /* \"ActualBank.sol\":356:363  uint256 */\n      0x00\n        /* \"ActualBank.sol\":396:413  minAccountBalance */\n      dup1\n      sload\n        /* \"ActualBank.sol\":383:392  msg.value */\n      callvalue\n        /* \"ActualBank.sol\":383:413  msg.value >= minAccountBalance */\n      lt\n      iszero\n        /* \"ActualBank.sol\":375:456  require(msg.value >= minAccountBalance,\"There must a minimum balance of 1 ether\") */\n      tag_37\n      jumpi\n      mload(0x40)\n      0x08c379a000000000000000000000000000000000000000000000000000000000\n      dup2\n      mstore\n      0x04\n      add\n      tag_38\n      swap1\n      tag_39\n      jump\t// in\n    tag_38:\n      mload(0x40)\n      dup1\n      swap2\n      sub\n      swap1\n      revert\n    tag_37:\n        /* \"ActualBank.sol\":487:496  msg.value */\n      callvalue\n        /* \"ActualBank.sol\":466:473  balance */\n      0x02\n        /* \"ActualBank.sol\":466:485  balance[msg.sender] */\n      0x00\n        /* \"ActualBank.sol\":474:484  msg.sender */\n      caller\n        /* \"ActualBank.sol\":466:485  balance[msg.sender] */\n      0xffffffffffffffffffffffffffffffffffffffff\n      and\n      0xffffffffffffffffffffffffffffffffffffffff\n      and\n      dup2\n      mstore\n      0x20\n      add\n      swap1\n      dup2\n      mstore\n      0x20\n      add\n      0x00\n      keccak256\n      0x00\n        /* \"ActualBank.sol\":466:496  balance[msg.sender]+=msg.value */\n      dup3\n      dup3\n      sload\n      tag_40\n      swap2\n      swap1\n      tag_41\n      jump\t// in\n    tag_40:\n      swap3\n      pop\n      pop\n      dup2\n      swap1\n      sstore\n      pop\n        /* \"ActualBank.sol\":528:538  _secretKey */\n      dup2\n        /* \"ActualBank.sol\":506:515  secretKey */\n      0x03\n        /* \"ActualBank.sol\":506:527  secretKey[msg.sender] */\n      0x00\n        /* \"ActualBank.sol\":516:526  msg.sender */\n      caller\n        /* \"ActualBank.sol\":506:527  secretKey[msg.sender] */\n      0xffffffffffffffffffffffffffffffffffffffff\n      and\n      0xffffffffffffffffffffffffffffffffffffffff\n      and\n      dup2\n      mstore\n      0x20\n      add\n      swap1\n      dup2\n      mstore\n      0x20\n      add\n      0x00\n      keccak256\n        /* \"ActualBank.sol\":506:538  secretKey[msg.sender]=_secretKey */\n      dup2\n      swap1\n      sstore\n      pop\n        /* \"ActualBank.sol\":555:562  balance */\n      0x02\n        /* \"ActualBank.sol\":555:574  balance[msg.sender] */\n      0x00\n        /* \"ActualBank.sol\":563:573  msg.sender */\n      caller\n        /* \"ActualBank.sol\":555:574  balance[msg.sender] */\n      0xffffffffffffffffffffffffffffffffffffffff\n      and\n      0xffffffffffffffffffffffffffffffffffffffff\n      and\n      dup2\n      mstore\n      0x20\n      add\n      swap1\n      dup2\n      mstore\n      0x20\n      add\n      0x00\n      keccak256\n      sload\n        /* \"ActualBank.sol\":548:574  return balance[msg.sender] */\n      swap1\n      pop\n        /* \"ActualBank.sol\":292:581  function openAccount(uint256 _secretKey) payable public returns(uint256) {... */\n      swap2\n      swap1\n      pop\n      jump\t// out\n        /* \"ActualBank.sol\":820:1232  function withDraw(uint256 _secretKey) payable public returns(uint256) {... */\n    tag_16:\n        /* \"ActualBank.sol\":881:888  uint256 */\n      0x00\n        /* \"ActualBank.sol\":921:928  balance */\n      0x02\n        /* \"ActualBank.sol\":921:940  balance[msg.sender] */\n      0x00\n        /* \"ActualBank.sol\":929:939  msg.sender */\n      caller\n        /* \"ActualBank.sol\":921:940  balance[msg.sender] */\n      0xffffffffffffffffffffffffffffffffffffffff\n      and\n      0xffffffffffffffffffffffffffffffffffffffff\n      and\n      dup2\n      mstore\n      0x20\n      add\n      swap1\n      dup2\n      mstore\n      0x20\n      add\n      0x00\n      keccak256\n      sload\n        /* \"ActualBank.sol\":908:917  msg.value */\n      callvalue\n        /* \"ActualBank.sol\":908:940  msg.value <= balance[msg.sender] */\n      gt\n      iszero\n        /* \"ActualBank.sol\":900:973  require(msg.value <= balance[msg.sender],\"With drawal value not correct\") */\n      tag_43\n      jumpi\n      mload(0x40)\n      0x08c379a000000000000000000000000000000000000000000000000000000000\n      dup2\n      mstore\n      0x04\n      add\n      tag_44\n      swap1\n      tag_45\n      jump\t// in\n    tag_44:\n      mload(0x40)\n      dup1\n      swap2\n      sub\n      swap1\n      revert\n    tag_43:\n        /* \"ActualBank.sol\":1016:1026  _secretKey */\n      dup2\n        /* \"ActualBank.sol\":991:1000  secretKey */\n      0x03\n        /* \"ActualBank.sol\":991:1012  secretKey[msg.sender] */\n      0x00\n        /* \"ActualBank.sol\":1001:1011  msg.sender */\n      caller\n        /* \"ActualBank.sol\":991:1012  secretKey[msg.sender] */\n      0xffffffffffffffffffffffffffffffffffffffff\n      and\n      0xffffffffffffffffffffffffffffffffffffffff\n      and\n      dup2\n      mstore\n      0x20\n      add\n      swap1\n      dup2\n      mstore\n      0x20\n      add\n      0x00\n      keccak256\n      sload\n        /* \"ActualBank.sol\":991:1026  secretKey[msg.sender] == _secretKey */\n      eq\n        /* \"ActualBank.sol\":983:1056  require(secretKey[msg.sender] == _secretKey, \"Secret key didn't matched\") */\n      tag_46\n      jumpi\n      mload(0x40)\n      0x08c379a000000000000000000000000000000000000000000000000000000000\n      dup2\n      mstore\n      0x04\n      add\n      tag_47\n      swap1\n      tag_48\n      jump\t// in\n    tag_47:\n      mload(0x40)\n      dup1\n      swap2\n      sub\n      swap1\n      revert\n    tag_46:\n        /* \"ActualBank.sol\":1087:1096  msg.value */\n      callvalue\n        /* \"ActualBank.sol\":1066:1073  balance */\n      0x02\n        /* \"ActualBank.sol\":1066:1085  balance[msg.sender] */\n      0x00\n        /* \"ActualBank.sol\":1074:1084  msg.sender */\n      caller\n        /* \"ActualBank.sol\":1066:1085  balance[msg.sender] */\n      0xffffffffffffffffffffffffffffffffffffffff\n      and\n      0xffffffffffffffffffffffffffffffffffffffff\n      and\n      dup2\n      mstore\n      0x20\n      add\n      swap1\n      dup2\n      mstore\n      0x20\n      add\n      0x00\n      keccak256\n      0x00\n        /* \"ActualBank.sol\":1066:1096  balance[msg.sender]-=msg.value */\n      dup3\n      dup3\n      sload\n      tag_49\n      swap2\n      swap1\n      tag_50\n      jump\t// in\n    tag_49:\n      swap3\n      pop\n      pop\n      dup2\n      swap1\n      sstore\n      pop\n        /* \"ActualBank.sol\":1106:1130  address payable receiver */\n      0x00\n        /* \"ActualBank.sol\":1140:1150  msg.sender */\n      caller\n        /* \"ActualBank.sol\":1106:1151  address payable receiver= payable(msg.sender) */\n      swap1\n      pop\n        /* \"ActualBank.sol\":1161:1169  receiver */\n      dup1\n        /* \"ActualBank.sol\":1161:1178  receiver.transfer */\n      0xffffffffffffffffffffffffffffffffffffffff\n      and\n        /* \"ActualBank.sol\":1161:1189  receiver.transfer(msg.value) */\n      0x08fc\n        /* \"ActualBank.sol\":1179:1188  msg.value */\n      callvalue\n        /* \"ActualBank.sol\":1161:1189  receiver.transfer(msg.value) */\n      swap1\n      dup2\n      iszero\n      mul\n      swap1\n      mload(0x40)\n      0x00\n      mload(0x40)\n      dup1\n      dup4\n      sub\n      dup2\n      dup6\n      dup9\n      dup9\n      call\n      swap4\n      pop\n      pop\n      pop\n      pop\n      iszero\n      dup1\n      iszero\n      tag_52\n      jumpi\n      returndatasize\n      0x00\n      dup1\n      returndatacopy\n      revert(0x00, returndatasize)\n    tag_52:\n      pop\n        /* \"ActualBank.sol\":1206:1213  balance */\n      0x02\n        /* \"ActualBank.sol\":1206:1225  balance[msg.sender] */\n      0x00\n        /* \"ActualBank.sol\":1214:1224  msg.sender */\n      caller\n        /* \"ActualBank.sol\":1206:1225  balance[msg.sender] */\n      0xffffffffffffffffffffffffffffffffffffffff\n      and\n      0xffffffffffffffffffffffffffffffffffffffff\n      and\n      dup2\n      mstore\n      0x20\n      add\n      swap1\n      dup2\n      mstore\n      0x20\n      add\n      0x00\n      keccak256\n      sload\n        /* \"ActualBank.sol\":1199:1225  return balance[msg.sender] */\n      swap2\n      pop\n      pop\n        /* \"ActualBank.sol\":820:1232  function withDraw(uint256 _secretKey) payable public returns(uint256) {... */\n      swap2\n      swap1\n      pop\n      jump\t// out\n        /* \"ActualBank.sol\":1237:1693  function transfer( address _to) public payable returns(bool){... */\n    tag_21:\n        /* \"ActualBank.sol\":1292:1296  bool */\n      0x00\n        /* \"ActualBank.sol\":1335:1336  0 */\n      dup1\n        /* \"ActualBank.sol\":1315:1322  balance */\n      0x02\n        /* \"ActualBank.sol\":1315:1334  balance[msg.sender] */\n      0x00\n        /* \"ActualBank.sol\":1323:1333  msg.sender */\n      caller\n        /* \"ActualBank.sol\":1315:1334  balance[msg.sender] */\n      0xffffffffffffffffffffffffffffffffffffffff\n      and\n      0xffffffffffffffffffffffffffffffffffffffff\n      and\n      dup2\n      mstore\n      0x20\n      add\n      swap1\n      dup2\n      mstore\n      0x20\n      add\n      0x00\n      keccak256\n      sload\n        /* \"ActualBank.sol\":1315:1336  balance[msg.sender]>0 */\n      gt\n        /* \"ActualBank.sol\":1307:1419  require(balance[msg.sender]>0, \"Your account balance might be low or you are transferring to non existing user\") */\n      tag_54\n      jumpi\n      mload(0x40)\n      0x08c379a000000000000000000000000000000000000000000000000000000000\n      dup2\n      mstore\n      0x04\n      add\n      tag_55\n      swap1\n      tag_56\n      jump\t// in\n    tag_55:\n      mload(0x40)\n      dup1\n      swap2\n      sub\n      swap1\n      revert\n    tag_54:\n        /* \"ActualBank.sol\":1450:1451  0 */\n      0x00\n        /* \"ActualBank.sol\":1437:1444  balance */\n      0x02\n        /* \"ActualBank.sol\":1437:1449  balance[_to] */\n      0x00\n        /* \"ActualBank.sol\":1445:1448  _to */\n      dup5\n        /* \"ActualBank.sol\":1437:1449  balance[_to] */\n      0xffffffffffffffffffffffffffffffffffffffff\n      and\n      0xffffffffffffffffffffffffffffffffffffffff\n      and\n      dup2\n      mstore\n      0x20\n      add\n      swap1\n      dup2\n      mstore\n      0x20\n      add\n      0x00\n      keccak256\n      sload\n        /* \"ActualBank.sol\":1437:1451  balance[_to]>0 */\n      gt\n        /* \"ActualBank.sol\":1429:1478  require(balance[_to]>0,\"receiver doesn't exists\") */\n      tag_57\n      jumpi\n      mload(0x40)\n      0x08c379a000000000000000000000000000000000000000000000000000000000\n      dup2\n      mstore\n      0x04\n      add\n      tag_58\n      swap1\n      tag_59\n      jump\t// in\n    tag_58:\n      mload(0x40)\n      dup1\n      swap2\n      sub\n      swap1\n      revert\n    tag_57:\n        /* \"ActualBank.sol\":1507:1514  balance */\n      0x02\n        /* \"ActualBank.sol\":1507:1526  balance[msg.sender] */\n      0x00\n        /* \"ActualBank.sol\":1515:1525  msg.sender */\n      caller\n        /* \"ActualBank.sol\":1507:1526  balance[msg.sender] */\n      0xffffffffffffffffffffffffffffffffffffffff\n      and\n      0xffffffffffffffffffffffffffffffffffffffff\n      and\n      dup2\n      mstore\n      0x20\n      add\n      swap1\n      dup2\n      mstore\n      0x20\n      add\n      0x00\n      keccak256\n      sload\n        /* \"ActualBank.sol\":1496:1505  msg.value */\n      callvalue\n        /* \"ActualBank.sol\":1496:1526  msg.value<=balance[msg.sender] */\n      gt\n      iszero\n        /* \"ActualBank.sol\":1488:1583  require(msg.value<=balance[msg.sender],\"You are transferring amount greater than your balance\") */\n      tag_60\n      jumpi\n      mload(0x40)\n      0x08c379a000000000000000000000000000000000000000000000000000000000\n      dup2\n      mstore\n      0x04\n      add\n      tag_61\n      swap1\n      tag_62\n      jump\t// in\n    tag_61:\n      mload(0x40)\n      dup1\n      swap2\n      sub\n      swap1\n      revert\n    tag_60:\n        /* \"ActualBank.sol\":1614:1623  msg.value */\n      callvalue\n        /* \"ActualBank.sol\":1593:1600  balance */\n      0x02\n        /* \"ActualBank.sol\":1593:1612  balance[msg.sender] */\n      0x00\n        /* \"ActualBank.sol\":1601:1611  msg.sender */\n      caller\n        /* \"ActualBank.sol\":1593:1612  balance[msg.sender] */\n      0xffffffffffffffffffffffffffffffffffffffff\n      and\n      0xffffffffffffffffffffffffffffffffffffffff\n      and\n      dup2\n      mstore\n      0x20\n      add\n      swap1\n      dup2\n      mstore\n      0x20\n      add\n      0x00\n      keccak256\n      0x00\n        /* \"ActualBank.sol\":1593:1623  balance[msg.sender]-=msg.value */\n      dup3\n      dup3\n      sload\n      tag_63\n      swap2\n      swap1\n      tag_50\n      jump\t// in\n    tag_63:\n      swap3\n      pop\n      pop\n      dup2\n      swap1\n      sstore\n      pop\n        /* \"ActualBank.sol\":1641:1644  _to */\n      dup2\n        /* \"ActualBank.sol\":1633:1654  payable(_to).transfer */\n      0xffffffffffffffffffffffffffffffffffffffff\n      and\n        /* \"ActualBank.sol\":1633:1665  payable(_to).transfer(msg.value) */\n      0x08fc\n        /* \"ActualBank.sol\":1655:1664  msg.value */\n      callvalue\n        /* \"ActualBank.sol\":1633:1665  payable(_to).transfer(msg.value) */\n      swap1\n      dup2\n      iszero\n      mul\n      swap1\n      mload(0x40)\n      0x00\n      mload(0x40)\n      dup1\n      dup4\n      sub\n      dup2\n      dup6\n      dup9\n      dup9\n      call\n      swap4\n      pop\n      pop\n      pop\n      pop\n      iszero\n      dup1\n      iszero\n      tag_65\n      jumpi\n      returndatasize\n      0x00\n      dup1\n      returndatacopy\n      revert(0x00, returndatasize)\n    tag_65:\n      pop\n        /* \"ActualBank.sol\":1682:1686  true */\n      0x01\n        /* \"ActualBank.sol\":1675:1686  return true */\n      swap1\n      pop\n        /* \"ActualBank.sol\":1237:1693  function transfer( address _to) public payable returns(bool){... */\n      swap2\n      swap1\n      pop\n      jump\t// out\n        /* \"ActualBank.sol\":1803:1986  function getTotalBankBalance() public view returns(uint256){... */\n    tag_26:\n        /* \"ActualBank.sol\":1854:1861  uint256 */\n      0x00\n        /* \"ActualBank.sol\":1894:1899  owner */\n      0x01\n      0x00\n      swap1\n      sload\n      swap1\n      0x0100\n      exp\n      swap1\n      div\n      0xffffffffffffffffffffffffffffffffffffffff\n      and\n        /* \"ActualBank.sol\":1880:1899  msg.sender == owner */\n      0xffffffffffffffffffffffffffffffffffffffff\n      and\n        /* \"ActualBank.sol\":1880:1890  msg.sender */\n      caller\n        /* \"ActualBank.sol\":1880:1899  msg.sender == owner */\n      0xffffffffffffffffffffffffffffffffffffffff\n      and\n      eq\n        /* \"ActualBank.sol\":1872:1941  require(msg.sender == owner,\"Owner of bank didn't call the function\") */\n      tag_67\n      jumpi\n      mload(0x40)\n      0x08c379a000000000000000000000000000000000000000000000000000000000\n      dup2\n      mstore\n      0x04\n      add\n      tag_68\n      swap1\n      tag_69\n      jump\t// in\n    tag_68:\n      mload(0x40)\n      dup1\n      swap2\n      sub\n      swap1\n      revert\n    tag_67:\n        /* \"ActualBank.sol\":1958:1979  address(this).balance */\n      selfbalance\n        /* \"ActualBank.sol\":1951:1979  return address(this).balance */\n      swap1\n      pop\n        /* \"ActualBank.sol\":1803:1986  function getTotalBankBalance() public view returns(uint256){... */\n      swap1\n      jump\t// out\n        /* \"ActualBank.sol\":1698:1798  function getAccountBalance() public view returns(uint256){... */\n    tag_30:\n        /* \"ActualBank.sol\":1747:1754  uint256 */\n      0x00\n        /* \"ActualBank.sol\":1772:1779  balance */\n      0x02\n        /* \"ActualBank.sol\":1772:1791  balance[msg.sender] */\n      0x00\n        /* \"ActualBank.sol\":1780:1790  msg.sender */\n      caller\n        /* \"ActualBank.sol\":1772:1791  balance[msg.sender] */\n      0xffffffffffffffffffffffffffffffffffffffff\n      and\n      0xffffffffffffffffffffffffffffffffffffffff\n      and\n      dup2\n      mstore\n      0x20\n      add\n      swap1\n      dup2\n      mstore\n      0x20\n      add\n      0x00\n      keccak256\n      sload\n        /* \"ActualBank.sol\":1765:1791  return balance[msg.sender] */\n      swap1\n      pop\n        /* \"ActualBank.sol\":1698:1798  function getAccountBalance() public view returns(uint256){... */\n      swap1\n      jump\t// out\n        /* \"ActualBank.sol\":588:814  function deposit(address benificiaryAccount) payable public returns(uint256){... */\n    tag_34:\n        /* \"ActualBank.sol\":656:663  uint256 */\n      0x00\n        /* \"ActualBank.sol\":713:714  0 */\n      dup1\n        /* \"ActualBank.sol\":682:689  balance */\n      0x02\n        /* \"ActualBank.sol\":682:709  balance[benificiaryAccount] */\n      0x00\n        /* \"ActualBank.sol\":690:708  benificiaryAccount */\n      dup5\n        /* \"ActualBank.sol\":682:709  balance[benificiaryAccount] */\n      0xffffffffffffffffffffffffffffffffffffffff\n      and\n      0xffffffffffffffffffffffffffffffffffffffff\n      and\n      dup2\n      mstore\n      0x20\n      add\n      swap1\n      dup2\n      mstore\n      0x20\n      add\n      0x00\n      keccak256\n      sload\n        /* \"ActualBank.sol\":682:714  balance[benificiaryAccount] != 0 */\n      eq\n      iszero\n        /* \"ActualBank.sol\":674:715  require(balance[benificiaryAccount] != 0) */\n      tag_72\n      jumpi\n      0x00\n      dup1\n      revert\n    tag_72:\n        /* \"ActualBank.sol\":754:763  msg.value */\n      callvalue\n        /* \"ActualBank.sol\":725:732  balance */\n      0x02\n        /* \"ActualBank.sol\":725:752  balance[benificiaryAccount] */\n      0x00\n        /* \"ActualBank.sol\":733:751  benificiaryAccount */\n      dup5\n        /* \"ActualBank.sol\":725:752  balance[benificiaryAccount] */\n      0xffffffffffffffffffffffffffffffffffffffff\n      and\n      0xffffffffffffffffffffffffffffffffffffffff\n      and\n      dup2\n      mstore\n      0x20\n      add\n      swap1\n      dup2\n      mstore\n      0x20\n      add\n      0x00\n      keccak256\n      0x00\n        /* \"ActualBank.sol\":725:763  balance[benificiaryAccount]+=msg.value */\n      dup3\n      dup3\n      sload\n      tag_73\n      swap2\n      swap1\n      tag_41\n      jump\t// in\n    tag_73:\n      swap3\n      pop\n      pop\n      dup2\n      swap1\n      sstore\n      pop\n        /* \"ActualBank.sol\":780:787  balance */\n      0x02\n        /* \"ActualBank.sol\":780:807  balance[benificiaryAccount] */\n      0x00\n        /* \"ActualBank.sol\":788:806  benificiaryAccount */\n      dup4\n        /* \"ActualBank.sol\":780:807  balance[benificiaryAccount] */\n      0xffffffffffffffffffffffffffffffffffffffff\n      and\n      0xffffffffffffffffffffffffffffffffffffffff\n      and\n      dup2\n      mstore\n      0x20\n      add\n      swap1\n      dup2\n      mstore\n      0x20\n      add\n      0x00\n      keccak256\n      sload\n        /* \"ActualBank.sol\":773:807  return balance[benificiaryAccount] */\n      swap1\n      pop\n        /* \"ActualBank.sol\":588:814  function deposit(address benificiaryAccount) payable public returns(uint256){... */\n      swap2\n      swap1\n      pop\n      jump\t// out\n        /* \"#utility.yul\":88:205   */\n    tag_75:\n        /* \"#utility.yul\":197:198   */\n      0x00\n        /* \"#utility.yul\":194:195   */\n      dup1\n        /* \"#utility.yul\":187:199   */\n      revert\n        /* \"#utility.yul\":334:411   */\n    tag_77:\n        /* \"#utility.yul\":371:378   */\n      0x00\n        /* \"#utility.yul\":400:405   */\n      dup2\n        /* \"#utility.yul\":389:405   */\n      swap1\n      pop\n        /* \"#utility.yul\":334:411   */\n      swap2\n      swap1\n      pop\n      jump\t// out\n        /* \"#utility.yul\":417:539   */\n    tag_78:\n        /* \"#utility.yul\":490:514   */\n      tag_109\n        /* \"#utility.yul\":508:513   */\n      dup2\n        /* \"#utility.yul\":490:514   */\n      tag_77\n      jump\t// in\n    tag_109:\n        /* \"#utility.yul\":483:488   */\n      dup2\n        /* \"#utility.yul\":480:515   */\n      eq\n        /* \"#utility.yul\":470:533   */\n      tag_110\n      jumpi\n        /* \"#utility.yul\":529:530   */\n      0x00\n        /* \"#utility.yul\":526:527   */\n      dup1\n        /* \"#utility.yul\":519:531   */\n      revert\n        /* \"#utility.yul\":470:533   */\n    tag_110:\n        /* \"#utility.yul\":417:539   */\n      pop\n      jump\t// out\n        /* \"#utility.yul\":545:684   */\n    tag_79:\n        /* \"#utility.yul\":591:596   */\n      0x00\n        /* \"#utility.yul\":629:635   */\n      dup2\n        /* \"#utility.yul\":616:636   */\n      calldataload\n        /* \"#utility.yul\":607:636   */\n      swap1\n      pop\n        /* \"#utility.yul\":645:678   */\n      tag_112\n        /* \"#utility.yul\":672:677   */\n      dup2\n        /* \"#utility.yul\":645:678   */\n      tag_78\n      jump\t// in\n    tag_112:\n        /* \"#utility.yul\":545:684   */\n      swap3\n      swap2\n      pop\n      pop\n      jump\t// out\n        /* \"#utility.yul\":690:1019   */\n    tag_10:\n        /* \"#utility.yul\":749:755   */\n      0x00\n        /* \"#utility.yul\":798:800   */\n      0x20\n        /* \"#utility.yul\":786:795   */\n      dup3\n        /* \"#utility.yul\":777:784   */\n      dup5\n        /* \"#utility.yul\":773:796   */\n      sub\n        /* \"#utility.yul\":769:801   */\n      slt\n        /* \"#utility.yul\":766:885   */\n      iszero\n      tag_114\n      jumpi\n        /* \"#utility.yul\":804:883   */\n      tag_115\n      tag_75\n      jump\t// in\n    tag_115:\n        /* \"#utility.yul\":766:885   */\n    tag_114:\n        /* \"#utility.yul\":924:925   */\n      0x00\n        /* \"#utility.yul\":949:1002   */\n      tag_116\n        /* \"#utility.yul\":994:1001   */\n      dup5\n        /* \"#utility.yul\":985:991   */\n      dup3\n        /* \"#utility.yul\":974:983   */\n      dup6\n        /* \"#utility.yul\":970:992   */\n      add\n        /* \"#utility.yul\":949:1002   */\n      tag_79\n      jump\t// in\n    tag_116:\n        /* \"#utility.yul\":939:1002   */\n      swap2\n      pop\n        /* \"#utility.yul\":895:1012   */\n      pop\n        /* \"#utility.yul\":690:1019   */\n      swap3\n      swap2\n      pop\n      pop\n      jump\t// out\n        /* \"#utility.yul\":1025:1143   */\n    tag_80:\n        /* \"#utility.yul\":1112:1136   */\n      tag_118\n        /* \"#utility.yul\":1130:1135   */\n      dup2\n        /* \"#utility.yul\":1112:1136   */\n      tag_77\n      jump\t// in\n    tag_118:\n        /* \"#utility.yul\":1107:1110   */\n      dup3\n        /* \"#utility.yul\":1100:1137   */\n      mstore\n        /* \"#utility.yul\":1025:1143   */\n      pop\n      pop\n      jump\t// out\n        /* \"#utility.yul\":1149:1371   */\n    tag_13:\n        /* \"#utility.yul\":1242:1246   */\n      0x00\n        /* \"#utility.yul\":1280:1282   */\n      0x20\n        /* \"#utility.yul\":1269:1278   */\n      dup3\n        /* \"#utility.yul\":1265:1283   */\n      add\n        /* \"#utility.yul\":1257:1283   */\n      swap1\n      pop\n        /* \"#utility.yul\":1293:1364   */\n      tag_120\n        /* \"#utility.yul\":1361:1362   */\n      0x00\n        /* \"#utility.yul\":1350:1359   */\n      dup4\n        /* \"#utility.yul\":1346:1363   */\n      add\n        /* \"#utility.yul\":1337:1343   */\n      dup5\n        /* \"#utility.yul\":1293:1364   */\n      tag_80\n      jump\t// in\n    tag_120:\n        /* \"#utility.yul\":1149:1371   */\n      swap3\n      swap2\n      pop\n      pop\n      jump\t// out\n        /* \"#utility.yul\":1377:1503   */\n    tag_81:\n        /* \"#utility.yul\":1414:1421   */\n      0x00\n        /* \"#utility.yul\":1454:1496   */\n      0xffffffffffffffffffffffffffffffffffffffff\n        /* \"#utility.yul\":1447:1452   */\n      dup3\n        /* \"#utility.yul\":1443:1497   */\n      and\n        /* \"#utility.yul\":1432:1497   */\n      swap1\n      pop\n        /* \"#utility.yul\":1377:1503   */\n      swap2\n      swap1\n      pop\n      jump\t// out\n        /* \"#utility.yul\":1509:1605   */\n    tag_82:\n        /* \"#utility.yul\":1546:1553   */\n      0x00\n        /* \"#utility.yul\":1575:1599   */\n      tag_123\n        /* \"#utility.yul\":1593:1598   */\n      dup3\n        /* \"#utility.yul\":1575:1599   */\n      tag_81\n      jump\t// in\n    tag_123:\n        /* \"#utility.yul\":1564:1599   */\n      swap1\n      pop\n        /* \"#utility.yul\":1509:1605   */\n      swap2\n      swap1\n      pop\n      jump\t// out\n        /* \"#utility.yul\":1611:1733   */\n    tag_83:\n        /* \"#utility.yul\":1684:1708   */\n      tag_125\n        /* \"#utility.yul\":1702:1707   */\n      dup2\n        /* \"#utility.yul\":1684:1708   */\n      tag_82\n      jump\t// in\n    tag_125:\n        /* \"#utility.yul\":1677:1682   */\n      dup2\n        /* \"#utility.yul\":1674:1709   */\n      eq\n        /* \"#utility.yul\":1664:1727   */\n      tag_126\n      jumpi\n        /* \"#utility.yul\":1723:1724   */\n      0x00\n        /* \"#utility.yul\":1720:1721   */\n      dup1\n        /* \"#utility.yul\":1713:1725   */\n      revert\n        /* \"#utility.yul\":1664:1727   */\n    tag_126:\n        /* \"#utility.yul\":1611:1733   */\n      pop\n      jump\t// out\n        /* \"#utility.yul\":1739:1878   */\n    tag_84:\n        /* \"#utility.yul\":1785:1790   */\n      0x00\n        /* \"#utility.yul\":1823:1829   */\n      dup2\n        /* \"#utility.yul\":1810:1830   */\n      calldataload\n        /* \"#utility.yul\":1801:1830   */\n      swap1\n      pop\n        /* \"#utility.yul\":1839:1872   */\n      tag_128\n        /* \"#utility.yul\":1866:1871   */\n      dup2\n        /* \"#utility.yul\":1839:1872   */\n      tag_83\n      jump\t// in\n    tag_128:\n        /* \"#utility.yul\":1739:1878   */\n      swap3\n      swap2\n      pop\n      pop\n      jump\t// out\n        /* \"#utility.yul\":1884:2213   */\n    tag_20:\n        /* \"#utility.yul\":1943:1949   */\n      0x00\n        /* \"#utility.yul\":1992:1994   */\n      0x20\n        /* \"#utility.yul\":1980:1989   */\n      dup3\n        /* \"#utility.yul\":1971:1978   */\n      dup5\n        /* \"#utility.yul\":1967:1990   */\n      sub\n        /* \"#utility.yul\":1963:1995   */\n      slt\n        /* \"#utility.yul\":1960:2079   */\n      iszero\n      tag_130\n      jumpi\n        /* \"#utility.yul\":1998:2077   */\n      tag_131\n      tag_75\n      jump\t// in\n    tag_131:\n        /* \"#utility.yul\":1960:2079   */\n    tag_130:\n        /* \"#utility.yul\":2118:2119   */\n      0x00\n        /* \"#utility.yul\":2143:2196   */\n      tag_132\n        /* \"#utility.yul\":2188:2195   */\n      dup5\n        /* \"#utility.yul\":2179:2185   */\n      dup3\n        /* \"#utility.yul\":2168:2177   */\n      dup6\n        /* \"#utility.yul\":2164:2186   */\n      add\n        /* \"#utility.yul\":2143:2196   */\n      tag_84\n      jump\t// in\n    tag_132:\n        /* \"#utility.yul\":2133:2196   */\n      swap2\n      pop\n        /* \"#utility.yul\":2089:2206   */\n      pop\n        /* \"#utility.yul\":1884:2213   */\n      swap3\n      swap2\n      pop\n      pop\n      jump\t// out\n        /* \"#utility.yul\":2219:2309   */\n    tag_85:\n        /* \"#utility.yul\":2253:2260   */\n      0x00\n        /* \"#utility.yul\":2296:2301   */\n      dup2\n        /* \"#utility.yul\":2289:2302   */\n      iszero\n        /* \"#utility.yul\":2282:2303   */\n      iszero\n        /* \"#utility.yul\":2271:2303   */\n      swap1\n      pop\n        /* \"#utility.yul\":2219:2309   */\n      swap2\n      swap1\n      pop\n      jump\t// out\n        /* \"#utility.yul\":2315:2424   */\n    tag_86:\n        /* \"#utility.yul\":2396:2417   */\n      tag_135\n        /* \"#utility.yul\":2411:2416   */\n      dup2\n        /* \"#utility.yul\":2396:2417   */\n      tag_85\n      jump\t// in\n    tag_135:\n        /* \"#utility.yul\":2391:2394   */\n      dup3\n        /* \"#utility.yul\":2384:2418   */\n      mstore\n        /* \"#utility.yul\":2315:2424   */\n      pop\n      pop\n      jump\t// out\n        /* \"#utility.yul\":2430:2640   */\n    tag_23:\n        /* \"#utility.yul\":2517:2521   */\n      0x00\n        /* \"#utility.yul\":2555:2557   */\n      0x20\n        /* \"#utility.yul\":2544:2553   */\n      dup3\n        /* \"#utility.yul\":2540:2558   */\n      add\n        /* \"#utility.yul\":2532:2558   */\n      swap1\n      pop\n        /* \"#utility.yul\":2568:2633   */\n      tag_137\n        /* \"#utility.yul\":2630:2631   */\n      0x00\n        /* \"#utility.yul\":2619:2628   */\n      dup4\n        /* \"#utility.yul\":2615:2632   */\n      add\n        /* \"#utility.yul\":2606:2612   */\n      dup5\n        /* \"#utility.yul\":2568:2633   */\n      tag_86\n      jump\t// in\n    tag_137:\n        /* \"#utility.yul\":2430:2640   */\n      swap3\n      swap2\n      pop\n      pop\n      jump\t// out\n        /* \"#utility.yul\":2646:2815   */\n    tag_87:\n        /* \"#utility.yul\":2730:2741   */\n      0x00\n        /* \"#utility.yul\":2764:2770   */\n      dup3\n        /* \"#utility.yul\":2759:2762   */\n      dup3\n        /* \"#utility.yul\":2752:2771   */\n      mstore\n        /* \"#utility.yul\":2804:2808   */\n      0x20\n        /* \"#utility.yul\":2799:2802   */\n      dup3\n        /* \"#utility.yul\":2795:2809   */\n      add\n        /* \"#utility.yul\":2780:2809   */\n      swap1\n      pop\n        /* \"#utility.yul\":2646:2815   */\n      swap3\n      swap2\n      pop\n      pop\n      jump\t// out\n        /* \"#utility.yul\":2821:3047   */\n    tag_88:\n        /* \"#utility.yul\":2961:2995   */\n      0x5468657265206d7573742061206d696e696d756d2062616c616e6365206f6620\n        /* \"#utility.yul\":2957:2958   */\n      0x00\n        /* \"#utility.yul\":2949:2955   */\n      dup3\n        /* \"#utility.yul\":2945:2959   */\n      add\n        /* \"#utility.yul\":2938:2996   */\n      mstore\n        /* \"#utility.yul\":3030:3039   */\n      0x3120657468657200000000000000000000000000000000000000000000000000\n        /* \"#utility.yul\":3025:3027   */\n      0x20\n        /* \"#utility.yul\":3017:3023   */\n      dup3\n        /* \"#utility.yul\":3013:3028   */\n      add\n        /* \"#utility.yul\":3006:3040   */\n      mstore\n        /* \"#utility.yul\":2821:3047   */\n      pop\n      jump\t// out\n        /* \"#utility.yul\":3053:3419   */\n    tag_89:\n        /* \"#utility.yul\":3195:3198   */\n      0x00\n        /* \"#utility.yul\":3216:3283   */\n      tag_141\n        /* \"#utility.yul\":3280:3282   */\n      0x27\n        /* \"#utility.yul\":3275:3278   */\n      dup4\n        /* \"#utility.yul\":3216:3283   */\n      tag_87\n      jump\t// in\n    tag_141:\n        /* \"#utility.yul\":3209:3283   */\n      swap2\n      pop\n        /* \"#utility.yul\":3292:3385   */\n      tag_142\n        /* \"#utility.yul\":3381:3384   */\n      dup3\n        /* \"#utility.yul\":3292:3385   */\n      tag_88\n      jump\t// in\n    tag_142:\n        /* \"#utility.yul\":3410:3412   */\n      0x40\n        /* \"#utility.yul\":3405:3408   */\n      dup3\n        /* \"#utility.yul\":3401:3413   */\n      add\n        /* \"#utility.yul\":3394:3413   */\n      swap1\n      pop\n        /* \"#utility.yul\":3053:3419   */\n      swap2\n      swap1\n      pop\n      jump\t// out\n        /* \"#utility.yul\":3425:3844   */\n    tag_39:\n        /* \"#utility.yul\":3591:3595   */\n      0x00\n        /* \"#utility.yul\":3629:3631   */\n      0x20\n        /* \"#utility.yul\":3618:3627   */\n      dup3\n        /* \"#utility.yul\":3614:3632   */\n      add\n        /* \"#utility.yul\":3606:3632   */\n      swap1\n      pop\n        /* \"#utility.yul\":3678:3687   */\n      dup2\n        /* \"#utility.yul\":3672:3676   */\n      dup2\n        /* \"#utility.yul\":3668:3688   */\n      sub\n        /* \"#utility.yul\":3664:3665   */\n      0x00\n        /* \"#utility.yul\":3653:3662   */\n      dup4\n        /* \"#utility.yul\":3649:3666   */\n      add\n        /* \"#utility.yul\":3642:3689   */\n      mstore\n        /* \"#utility.yul\":3706:3837   */\n      tag_144\n        /* \"#utility.yul\":3832:3836   */\n      dup2\n        /* \"#utility.yul\":3706:3837   */\n      tag_89\n      jump\t// in\n    tag_144:\n        /* \"#utility.yul\":3698:3837   */\n      swap1\n      pop\n        /* \"#utility.yul\":3425:3844   */\n      swap2\n      swap1\n      pop\n      jump\t// out\n        /* \"#utility.yul\":3850:4030   */\n    tag_90:\n        /* \"#utility.yul\":3898:3975   */\n      0x4e487b7100000000000000000000000000000000000000000000000000000000\n        /* \"#utility.yul\":3895:3896   */\n      0x00\n        /* \"#utility.yul\":3888:3976   */\n      mstore\n        /* \"#utility.yul\":3995:3999   */\n      0x11\n        /* \"#utility.yul\":3992:3993   */\n      0x04\n        /* \"#utility.yul\":3985:4000   */\n      mstore\n        /* \"#utility.yul\":4019:4023   */\n      0x24\n        /* \"#utility.yul\":4016:4017   */\n      0x00\n        /* \"#utility.yul\":4009:4024   */\n      revert\n        /* \"#utility.yul\":4036:4341   */\n    tag_41:\n        /* \"#utility.yul\":4076:4079   */\n      0x00\n        /* \"#utility.yul\":4095:4115   */\n      tag_147\n        /* \"#utility.yul\":4113:4114   */\n      dup3\n        /* \"#utility.yul\":4095:4115   */\n      tag_77\n      jump\t// in\n    tag_147:\n        /* \"#utility.yul\":4090:4115   */\n      swap2\n      pop\n        /* \"#utility.yul\":4129:4149   */\n      tag_148\n        /* \"#utility.yul\":4147:4148   */\n      dup4\n        /* \"#utility.yul\":4129:4149   */\n      tag_77\n      jump\t// in\n    tag_148:\n        /* \"#utility.yul\":4124:4149   */\n      swap3\n      pop\n        /* \"#utility.yul\":4283:4284   */\n      dup3\n        /* \"#utility.yul\":4215:4281   */\n      0xffffffffffffffffffffffffffffffffffffffffffffffffffffffffffffffff\n        /* \"#utility.yul\":4211:4285   */\n      sub\n        /* \"#utility.yul\":4208:4209   */\n      dup3\n        /* \"#utility.yul\":4205:4286   */\n      gt\n        /* \"#utility.yul\":4202:4309   */\n      iszero\n      tag_149\n      jumpi\n        /* \"#utility.yul\":4289:4307   */\n      tag_150\n      tag_90\n      jump\t// in\n    tag_150:\n        /* \"#utility.yul\":4202:4309   */\n    tag_149:\n        /* \"#utility.yul\":4333:4334   */\n      dup3\n        /* \"#utility.yul\":4330:4331   */\n      dup3\n        /* \"#utility.yul\":4326:4335   */\n      add\n        /* \"#utility.yul\":4319:4335   */\n      swap1\n      pop\n        /* \"#utility.yul\":4036:4341   */\n      swap3\n      swap2\n      pop\n      pop\n      jump\t// out\n        /* \"#utility.yul\":4347:4526   */\n    tag_91:\n        /* \"#utility.yul\":4487:4518   */\n      0x576974682064726177616c2076616c7565206e6f7420636f7272656374000000\n        /* \"#utility.yul\":4483:4484   */\n      0x00\n        /* \"#utility.yul\":4475:4481   */\n      dup3\n        /* \"#utility.yul\":4471:4485   */\n      add\n        /* \"#utility.yul\":4464:4519   */\n      mstore\n        /* \"#utility.yul\":4347:4526   */\n      pop\n      jump\t// out\n        /* \"#utility.yul\":4532:4898   */\n    tag_92:\n        /* \"#utility.yul\":4674:4677   */\n      0x00\n        /* \"#utility.yul\":4695:4762   */\n      tag_153\n        /* \"#utility.yul\":4759:4761   */\n      0x1d\n        /* \"#utility.yul\":4754:4757   */\n      dup4\n        /* \"#utility.yul\":4695:4762   */\n      tag_87\n      jump\t// in\n    tag_153:\n        /* \"#utility.yul\":4688:4762   */\n      swap2\n      pop\n        /* \"#utility.yul\":4771:4864   */\n      tag_154\n        /* \"#utility.yul\":4860:4863   */\n      dup3\n        /* \"#utility.yul\":4771:4864   */\n      tag_91\n      jump\t// in\n    tag_154:\n        /* \"#utility.yul\":4889:4891   */\n      0x20\n        /* \"#utility.yul\":4884:4887   */\n      dup3\n        /* \"#utility.yul\":4880:4892   */\n      add\n        /* \"#utility.yul\":4873:4892   */\n      swap1\n      pop\n        /* \"#utility.yul\":4532:4898   */\n      swap2\n      swap1\n      pop\n      jump\t// out\n        /* \"#utility.yul\":4904:5323   */\n    tag_45:\n        /* \"#utility.yul\":5070:5074   */\n      0x00\n        /* \"#utility.yul\":5108:5110   */\n      0x20\n        /* \"#utility.yul\":5097:5106   */\n      dup3\n        /* \"#utility.yul\":5093:5111   */\n      add\n        /* \"#utility.yul\":5085:5111   */\n      swap1\n      pop\n        /* \"#utility.yul\":5157:5166   */\n      dup2\n        /* \"#utility.yul\":5151:5155   */\n      dup2\n        /* \"#utility.yul\":5147:5167   */\n      sub\n        /* \"#utility.yul\":5143:5144   */\n      0x00\n        /* \"#utility.yul\":5132:5141   */\n      dup4\n        /* \"#utility.yul\":5128:5145   */\n      add\n        /* \"#utility.yul\":5121:5168   */\n      mstore\n        /* \"#utility.yul\":5185:5316   */\n      tag_156\n        /* \"#utility.yul\":5311:5315   */\n      dup2\n        /* \"#utility.yul\":5185:5316   */\n      tag_92\n      jump\t// in\n    tag_156:\n        /* \"#utility.yul\":5177:5316   */\n      swap1\n      pop\n        /* \"#utility.yul\":4904:5323   */\n      swap2\n      swap1\n      pop\n      jump\t// out\n        /* \"#utility.yul\":5329:5504   */\n    tag_93:\n        /* \"#utility.yul\":5469:5496   */\n      0x536563726574206b6579206469646e2774206d61746368656400000000000000\n        /* \"#utility.yul\":5465:5466   */\n      0x00\n        /* \"#utility.yul\":5457:5463   */\n      dup3\n        /* \"#utility.yul\":5453:5467   */\n      add\n        /* \"#utility.yul\":5446:5497   */\n      mstore\n        /* \"#utility.yul\":5329:5504   */\n      pop\n      jump\t// out\n        /* \"#utility.yul\":5510:5876   */\n    tag_94:\n        /* \"#utility.yul\":5652:5655   */\n      0x00\n        /* \"#utility.yul\":5673:5740   */\n      tag_159\n        /* \"#utility.yul\":5737:5739   */\n      0x19\n        /* \"#utility.yul\":5732:5735   */\n      dup4\n        /* \"#utility.yul\":5673:5740   */\n      tag_87\n      jump\t// in\n    tag_159:\n        /* \"#utility.yul\":5666:5740   */\n      swap2\n      pop\n        /* \"#utility.yul\":5749:5842   */\n      tag_160\n        /* \"#utility.yul\":5838:5841   */\n      dup3\n        /* \"#utility.yul\":5749:5842   */\n      tag_93\n      jump\t// in\n    tag_160:\n        /* \"#utility.yul\":5867:5869   */\n      0x20\n        /* \"#utility.yul\":5862:5865   */\n      dup3\n        /* \"#utility.yul\":5858:5870   */\n      add\n        /* \"#utility.yul\":5851:5870   */\n      swap1\n      pop\n        /* \"#utility.yul\":5510:5876   */\n      swap2\n      swap1\n      pop\n      jump\t// out\n        /* \"#utility.yul\":5882:6301   */\n    tag_48:\n        /* \"#utility.yul\":6048:6052   */\n      0x00\n        /* \"#utility.yul\":6086:6088   */\n      0x20\n        /* \"#utility.yul\":6075:6084   */\n      dup3\n        /* \"#utility.yul\":6071:6089   */\n      add\n        /* \"#utility.yul\":6063:6089   */\n      swap1\n      pop\n        /* \"#utility.yul\":6135:6144   */\n      dup2\n        /* \"#utility.yul\":6129:6133   */\n      dup2\n        /* \"#utility.yul\":6125:6145   */\n      sub\n        /* \"#utility.yul\":6121:6122   */\n      0x00\n        /* \"#utility.yul\":6110:6119   */\n      dup4\n        /* \"#utility.yul\":6106:6123   */\n      add\n        /* \"#utility.yul\":6099:6146   */\n      mstore\n        /* \"#utility.yul\":6163:6294   */\n      tag_162\n        /* \"#utility.yul\":6289:6293   */\n      dup2\n        /* \"#utility.yul\":6163:6294   */\n      tag_94\n      jump\t// in\n    tag_162:\n        /* \"#utility.yul\":6155:6294   */\n      swap1\n      pop\n        /* \"#utility.yul\":5882:6301   */\n      swap2\n      swap1\n      pop\n      jump\t// out\n        /* \"#utility.yul\":6307:6498   */\n    tag_50:\n        /* \"#utility.yul\":6347:6351   */\n      0x00\n        /* \"#utility.yul\":6367:6387   */\n      tag_164\n        /* \"#utility.yul\":6385:6386   */\n      dup3\n        /* \"#utility.yul\":6367:6387   */\n      tag_77\n      jump\t// in\n    tag_164:\n        /* \"#utility.yul\":6362:6387   */\n      swap2\n      pop\n        /* \"#utility.yul\":6401:6421   */\n      tag_165\n        /* \"#utility.yul\":6419:6420   */\n      dup4\n        /* \"#utility.yul\":6401:6421   */\n      tag_77\n      jump\t// in\n    tag_165:\n        /* \"#utility.yul\":6396:6421   */\n      swap3\n      pop\n        /* \"#utility.yul\":6440:6441   */\n      dup3\n        /* \"#utility.yul\":6437:6438   */\n      dup3\n        /* \"#utility.yul\":6434:6442   */\n      lt\n        /* \"#utility.yul\":6431:6465   */\n      iszero\n      tag_166\n      jumpi\n        /* \"#utility.yul\":6445:6463   */\n      tag_167\n      tag_90\n      jump\t// in\n    tag_167:\n        /* \"#utility.yul\":6431:6465   */\n    tag_166:\n        /* \"#utility.yul\":6490:6491   */\n      dup3\n        /* \"#utility.yul\":6487:6488   */\n      dup3\n        /* \"#utility.yul\":6483:6492   */\n      sub\n        /* \"#utility.yul\":6475:6492   */\n      swap1\n      pop\n        /* \"#utility.yul\":6307:6498   */\n      swap3\n      swap2\n      pop\n      pop\n      jump\t// out\n        /* \"#utility.yul\":6504:6806   */\n    tag_95:\n        /* \"#utility.yul\":6644:6678   */\n      0x596f7572206163636f756e742062616c616e6365206d69676874206265206c6f\n        /* \"#utility.yul\":6640:6641   */\n      0x00\n        /* \"#utility.yul\":6632:6638   */\n      dup3\n        /* \"#utility.yul\":6628:6642   */\n      add\n        /* \"#utility.yul\":6621:6679   */\n      mstore\n        /* \"#utility.yul\":6713:6747   */\n      0x77206f7220796f7520617265207472616e7366657272696e6720746f206e6f6e\n        /* \"#utility.yul\":6708:6710   */\n      0x20\n        /* \"#utility.yul\":6700:6706   */\n      dup3\n        /* \"#utility.yul\":6696:6711   */\n      add\n        /* \"#utility.yul\":6689:6748   */\n      mstore\n        /* \"#utility.yul\":6782:6798   */\n      0x206578697374696e672075736572000000000000000000000000000000000000\n        /* \"#utility.yul\":6777:6779   */\n      0x40\n        /* \"#utility.yul\":6769:6775   */\n      dup3\n        /* \"#utility.yul\":6765:6780   */\n      add\n        /* \"#utility.yul\":6758:6799   */\n      mstore\n        /* \"#utility.yul\":6504:6806   */\n      pop\n      jump\t// out\n        /* \"#utility.yul\":6812:7178   */\n    tag_96:\n        /* \"#utility.yul\":6954:6957   */\n      0x00\n        /* \"#utility.yul\":6975:7042   */\n      tag_170\n        /* \"#utility.yul\":7039:7041   */\n      0x4e\n        /* \"#utility.yul\":7034:7037   */\n      dup4\n        /* \"#utility.yul\":6975:7042   */\n      tag_87\n      jump\t// in\n    tag_170:\n        /* \"#utility.yul\":6968:7042   */\n      swap2\n      pop\n        /* \"#utility.yul\":7051:7144   */\n      tag_171\n        /* \"#utility.yul\":7140:7143   */\n      dup3\n        /* \"#utility.yul\":7051:7144   */\n      tag_95\n      jump\t// in\n    tag_171:\n        /* \"#utility.yul\":7169:7171   */\n      0x60\n        /* \"#utility.yul\":7164:7167   */\n      dup3\n        /* \"#utility.yul\":7160:7172   */\n      add\n        /* \"#utility.yul\":7153:7172   */\n      swap1\n      pop\n        /* \"#utility.yul\":6812:7178   */\n      swap2\n      swap1\n      pop\n      jump\t// out\n        /* \"#utility.yul\":7184:7603   */\n    tag_56:\n        /* \"#utility.yul\":7350:7354   */\n      0x00\n        /* \"#utility.yul\":7388:7390   */\n      0x20\n        /* \"#utility.yul\":7377:7386   */\n      dup3\n        /* \"#utility.yul\":7373:7391   */\n      add\n        /* \"#utility.yul\":7365:7391   */\n      swap1\n      pop\n        /* \"#utility.yul\":7437:7446   */\n      dup2\n        /* \"#utility.yul\":7431:7435   */\n      dup2\n        /* \"#utility.yul\":7427:7447   */\n      sub\n        /* \"#utility.yul\":7423:7424   */\n      0x00\n        /* \"#utility.yul\":7412:7421   */\n      dup4\n        /* \"#utility.yul\":7408:7425   */\n      add\n        /* \"#utility.yul\":7401:7448   */\n      mstore\n        /* \"#utility.yul\":7465:7596   */\n      tag_173\n        /* \"#utility.yul\":7591:7595   */\n      dup2\n        /* \"#utility.yul\":7465:7596   */\n      tag_96\n      jump\t// in\n    tag_173:\n        /* \"#utility.yul\":7457:7596   */\n      swap1\n      pop\n        /* \"#utility.yul\":7184:7603   */\n      swap2\n      swap1\n      pop\n      jump\t// out\n        /* \"#utility.yul\":7609:7782   */\n    tag_97:\n        /* \"#utility.yul\":7749:7774   */\n      0x726563656976657220646f65736e277420657869737473000000000000000000\n        /* \"#utility.yul\":7745:7746   */\n      0x00\n        /* \"#utility.yul\":7737:7743   */\n      dup3\n        /* \"#utility.yul\":7733:7747   */\n      add\n        /* \"#utility.yul\":7726:7775   */\n      mstore\n        /* \"#utility.yul\":7609:7782   */\n      pop\n      jump\t// out\n        /* \"#utility.yul\":7788:8154   */\n    tag_98:\n        /* \"#utility.yul\":7930:7933   */\n      0x00\n        /* \"#utility.yul\":7951:8018   */\n      tag_176\n        /* \"#utility.yul\":8015:8017   */\n      0x17\n        /* \"#utility.yul\":8010:8013   */\n      dup4\n        /* \"#utility.yul\":7951:8018   */\n      tag_87\n      jump\t// in\n    tag_176:\n        /* \"#utility.yul\":7944:8018   */\n      swap2\n      pop\n        /* \"#utility.yul\":8027:8120   */\n      tag_177\n        /* \"#utility.yul\":8116:8119   */\n      dup3\n        /* \"#utility.yul\":8027:8120   */\n      tag_97\n      jump\t// in\n    tag_177:\n        /* \"#utility.yul\":8145:8147   */\n      0x20\n        /* \"#utility.yul\":8140:8143   */\n      dup3\n        /* \"#utility.yul\":8136:8148   */\n      add\n        /* \"#utility.yul\":8129:8148   */\n      swap1\n      pop\n        /* \"#utility.yul\":7788:8154   */\n      swap2\n      swap1\n      pop\n      jump\t// out\n        /* \"#utility.yul\":8160:8579   */\n    tag_59:\n        /* \"#utility.yul\":8326:8330   */\n      0x00\n        /* \"#utility.yul\":8364:8366   */\n      0x20\n        /* \"#utility.yul\":8353:8362   */\n      dup3\n        /* \"#utility.yul\":8349:8367   */\n      add\n        /* \"#utility.yul\":8341:8367   */\n      swap1\n      pop\n        /* \"#utility.yul\":8413:8422   */\n      dup2\n        /* \"#utility.yul\":8407:8411   */\n      dup2\n        /* \"#utility.yul\":8403:8423   */\n      sub\n        /* \"#utility.yul\":8399:8400   */\n      0x00\n        /* \"#utility.yul\":8388:8397   */\n      dup4\n        /* \"#utility.yul\":8384:8401   */\n      add\n        /* \"#utility.yul\":8377:8424   */\n      mstore\n        /* \"#utility.yul\":8441:8572   */\n      tag_179\n        /* \"#utility.yul\":8567:8571   */\n      dup2\n        /* \"#utility.yul\":8441:8572   */\n      tag_98\n      jump\t// in\n    tag_179:\n        /* \"#utility.yul\":8433:8572   */\n      swap1\n      pop\n        /* \"#utility.yul\":8160:8579   */\n      swap2\n      swap1\n      pop\n      jump\t// out\n        /* \"#utility.yul\":8585:8825   */\n    tag_99:\n        /* \"#utility.yul\":8725:8759   */\n      0x596f7520617265207472616e7366657272696e6720616d6f756e742067726561\n        /* \"#utility.yul\":8721:8722   */\n      0x00\n        /* \"#utility.yul\":8713:8719   */\n      dup3\n        /* \"#utility.yul\":8709:8723   */\n      add\n        /* \"#utility.yul\":8702:8760   */\n      mstore\n        /* \"#utility.yul\":8794:8817   */\n      0x746572207468616e20796f75722062616c616e63650000000000000000000000\n        /* \"#utility.yul\":8789:8791   */\n      0x20\n        /* \"#utility.yul\":8781:8787   */\n      dup3\n        /* \"#utility.yul\":8777:8792   */\n      add\n        /* \"#utility.yul\":8770:8818   */\n      mstore\n        /* \"#utility.yul\":8585:8825   */\n      pop\n      jump\t// out\n        /* \"#utility.yul\":8831:9197   */\n    tag_100:\n        /* \"#utility.yul\":8973:8976   */\n      0x00\n        /* \"#utility.yul\":8994:9061   */\n      tag_182\n        /* \"#utility.yul\":9058:9060   */\n      0x35\n        /* \"#utility.yul\":9053:9056   */\n      dup4\n        /* \"#utility.yul\":8994:9061   */\n      tag_87\n      jump\t// in\n    tag_182:\n        /* \"#utility.yul\":8987:9061   */\n      swap2\n      pop\n        /* \"#utility.yul\":9070:9163   */\n      tag_183\n        /* \"#utility.yul\":9159:9162   */\n      dup3\n        /* \"#utility.yul\":9070:9163   */\n      tag_99\n      jump\t// in\n    tag_183:\n        /* \"#utility.yul\":9188:9190   */\n      0x40\n        /* \"#utility.yul\":9183:9186   */\n      dup3\n        /* \"#utility.yul\":9179:9191   */\n      add\n        /* \"#utility.yul\":9172:9191   */\n      swap1\n      pop\n        /* \"#utility.yul\":8831:9197   */\n      swap2\n      swap1\n      pop\n      jump\t// out\n        /* \"#utility.yul\":9203:9622   */\n    tag_62:\n        /* \"#utility.yul\":9369:9373   */\n      0x00\n        /* \"#utility.yul\":9407:9409   */\n      0x20\n        /* \"#utility.yul\":9396:9405   */\n      dup3\n        /* \"#utility.yul\":9392:9410   */\n      add\n        /* \"#utility.yul\":9384:9410   */\n      swap1\n      pop\n        /* \"#utility.yul\":9456:9465   */\n      dup2\n        /* \"#utility.yul\":9450:9454   */\n      dup2\n        /* \"#utility.yul\":9446:9466   */\n      sub\n        /* \"#utility.yul\":9442:9443   */\n      0x00\n        /* \"#utility.yul\":9431:9440   */\n      dup4\n        /* \"#utility.yul\":9427:9444   */\n      add\n        /* \"#utility.yul\":9420:9467   */\n      mstore\n        /* \"#utility.yul\":9484:9615   */\n      tag_185\n        /* \"#utility.yul\":9610:9614   */\n      dup2\n        /* \"#utility.yul\":9484:9615   */\n      tag_100\n      jump\t// in\n    tag_185:\n        /* \"#utility.yul\":9476:9615   */\n      swap1\n      pop\n        /* \"#utility.yul\":9203:9622   */\n      swap2\n      swap1\n      pop\n      jump\t// out\n        /* \"#utility.yul\":9628:9853   */\n    tag_101:\n        /* \"#utility.yul\":9768:9802   */\n      0x4f776e6572206f662062616e6b206469646e27742063616c6c20746865206675\n        /* \"#utility.yul\":9764:9765   */\n      0x00\n        /* \"#utility.yul\":9756:9762   */\n      dup3\n        /* \"#utility.yul\":9752:9766   */\n      add\n        /* \"#utility.yul\":9745:9803   */\n      mstore\n        /* \"#utility.yul\":9837:9845   */\n      0x6e6374696f6e0000000000000000000000000000000000000000000000000000\n        /* \"#utility.yul\":9832:9834   */\n      0x20\n        /* \"#utility.yul\":9824:9830   */\n      dup3\n        /* \"#utility.yul\":9820:9835   */\n      add\n        /* \"#utility.yul\":9813:9846   */\n      mstore\n        /* \"#utility.yul\":9628:9853   */\n      pop\n      jump\t// out\n        /* \"#utility.yul\":9859:10225   */\n    tag_102:\n        /* \"#utility.yul\":10001:10004   */\n      0x00\n        /* \"#utility.yul\":10022:10089   */\n      tag_188\n        /* \"#utility.yul\":10086:10088   */\n      0x26\n        /* \"#utility.yul\":10081:10084   */\n      dup4\n        /* \"#utility.yul\":10022:10089   */\n      tag_87\n      jump\t// in\n    tag_188:\n        /* \"#utility.yul\":10015:10089   */\n      swap2\n      pop\n        /* \"#utility.yul\":10098:10191   */\n      tag_189\n        /* \"#utility.yul\":10187:10190   */\n      dup3\n        /* \"#utility.yul\":10098:10191   */\n      tag_101\n      jump\t// in\n    tag_189:\n        /* \"#utility.yul\":10216:10218   */\n      0x40\n        /* \"#utility.yul\":10211:10214   */\n      dup3\n        /* \"#utility.yul\":10207:10219   */\n      add\n        /* \"#utility.yul\":10200:10219   */\n      swap1\n      pop\n        /* \"#utility.yul\":9859:10225   */\n      swap2\n      swap1\n      pop\n      jump\t// out\n        /* \"#utility.yul\":10231:10650   */\n    tag_69:\n        /* \"#utility.yul\":10397:10401   */\n      0x00\n        /* \"#utility.yul\":10435:10437   */\n      0x20\n        /* \"#utility.yul\":10424:10433   */\n      dup3\n        /* \"#utility.yul\":10420:10438   */\n      add\n        /* \"#utility.yul\":10412:10438   */\n      swap1\n      pop\n        /* \"#utility.yul\":10484:10493   */\n      dup2\n        /* \"#utility.yul\":10478:10482   */\n      dup2\n        /* \"#utility.yul\":10474:10494   */\n      sub\n        /* \"#utility.yul\":10470:10471   */\n      0x00\n        /* \"#utility.yul\":10459:10468   */\n      dup4\n        /* \"#utility.yul\":10455:10472   */\n      add\n        /* \"#utility.yul\":10448:10495   */\n      mstore\n        /* \"#utility.yul\":10512:10643   */\n      tag_191\n        /* \"#utility.yul\":10638:10642   */\n      dup2\n        /* \"#utility.yul\":10512:10643   */\n      tag_102\n      jump\t// in\n    tag_191:\n        /* \"#utility.yul\":10504:10643   */\n      swap1\n      pop\n        /* \"#utility.yul\":10231:10650   */\n      swap2\n      swap1\n      pop\n      jump\t// out\n\n    auxdata: 0xa2646970667358221220c3c80262844c908a3067089e31121a7a9a9ce24826af425ef5a46d5c3ed4d26a64736f6c63430008090033\n}\n",
				"bytecode": {
					"linkReferences": {},
					"object": "6080604052670de0b6b3a764000060005534801561001c57600080fd5b5033600160006101000a81548173ffffffffffffffffffffffffffffffffffffffff021916908373ffffffffffffffffffffffffffffffffffffffff160217905550610e828061006d6000396000f3fe6080604052600436106100555760003560e01c80631000420d1461005a57806314174f331461008a5780631a695230146100ba57806338a2ca40146100ea5780636896fabf14610115578063f340fa0114610140575b600080fd5b610074600480360381019061006f91906108b8565b610170565b60405161008191906108f4565b60405180910390f35b6100a4600480360381019061009f91906108b8565b610297565b6040516100b191906108f4565b60405180910390f35b6100d460048036038101906100cf919061096d565b610486565b6040516100e191906109b5565b60405180910390f35b3480156100f657600080fd5b506100ff6106b3565b60405161010c91906108f4565b60405180910390f35b34801561012157600080fd5b5061012a61074b565b60405161013791906108f4565b60405180910390f35b61015a6004803603810190610155919061096d565b610792565b60405161016791906108f4565b60405180910390f35b600080543410156101b6576040517f08c379a00000000000000000000000000000000000000000000000000000000081526004016101ad90610a53565b60405180910390fd5b34600260003373ffffffffffffffffffffffffffffffffffffffff1673ffffffffffffffffffffffffffffffffffffffff16815260200190815260200160002060008282546102059190610aa2565b9250508190555081600360003373ffffffffffffffffffffffffffffffffffffffff1673ffffffffffffffffffffffffffffffffffffffff16815260200190815260200160002081905550600260003373ffffffffffffffffffffffffffffffffffffffff1673ffffffffffffffffffffffffffffffffffffffff168152602001908152602001600020549050919050565b6000600260003373ffffffffffffffffffffffffffffffffffffffff1673ffffffffffffffffffffffffffffffffffffffff1681526020019081526020016000205434111561031b576040517f08c379a000000000000000000000000000000000000000000000000000000000815260040161031290610b44565b60405180910390fd5b81600360003373ffffffffffffffffffffffffffffffffffffffff1673ffffffffffffffffffffffffffffffffffffffff168152602001908152602001600020541461039c576040517f08c379a000000000000000000000000000000000000000000000000000000000815260040161039390610bb0565b60405180910390fd5b34600260003373ffffffffffffffffffffffffffffffffffffffff1673ffffffffffffffffffffffffffffffffffffffff16815260200190815260200160002060008282546103eb9190610bd0565b9250508190555060003390508073ffffffffffffffffffffffffffffffffffffffff166108fc349081150290604051600060405180830381858888f1935050505015801561043d573d6000803e3d6000fd5b50600260003373ffffffffffffffffffffffffffffffffffffffff1673ffffffffffffffffffffffffffffffffffffffff16815260200190815260200160002054915050919050565b600080600260003373ffffffffffffffffffffffffffffffffffffffff1673ffffffffffffffffffffffffffffffffffffffff1681526020019081526020016000205411610509576040517f08c379a000000000000000000000000000000000000000000000000000000000815260040161050090610c9c565b60405180910390fd5b6000600260008473ffffffffffffffffffffffffffffffffffffffff1673ffffffffffffffffffffffffffffffffffffffff168152602001908152602001600020541161058b576040517f08c379a000000000000000000000000000000000000000000000000000000000815260040161058290610d08565b60405180910390fd5b600260003373ffffffffffffffffffffffffffffffffffffffff1673ffffffffffffffffffffffffffffffffffffffff1681526020019081526020016000205434111561060d576040517f08c379a000000000000000000000000000000000000000000000000000000000815260040161060490610d9a565b60405180910390fd5b34600260003373ffffffffffffffffffffffffffffffffffffffff1673ffffffffffffffffffffffffffffffffffffffff168152602001908152602001600020600082825461065c9190610bd0565b925050819055508173ffffffffffffffffffffffffffffffffffffffff166108fc349081150290604051600060405180830381858888f193505050501580156106a9573d6000803e3d6000fd5b5060019050919050565b6000600160009054906101000a900473ffffffffffffffffffffffffffffffffffffffff1673ffffffffffffffffffffffffffffffffffffffff163373ffffffffffffffffffffffffffffffffffffffff1614610745576040517f08c379a000000000000000000000000000000000000000000000000000000000815260040161073c90610e2c565b60405180910390fd5b47905090565b6000600260003373ffffffffffffffffffffffffffffffffffffffff1673ffffffffffffffffffffffffffffffffffffffff16815260200190815260200160002054905090565b600080600260008473ffffffffffffffffffffffffffffffffffffffff1673ffffffffffffffffffffffffffffffffffffffff1681526020019081526020016000205414156107e057600080fd5b34600260008473ffffffffffffffffffffffffffffffffffffffff1673ffffffffffffffffffffffffffffffffffffffff168152602001908152602001600020600082825461082f9190610aa2565b92505081905550600260008373ffffffffffffffffffffffffffffffffffffffff1673ffffffffffffffffffffffffffffffffffffffff168152602001908152602001600020549050919050565b600080fd5b6000819050919050565b61089581610882565b81146108a057600080fd5b50565b6000813590506108b28161088c565b92915050565b6000602082840312156108ce576108cd61087d565b5b60006108dc848285016108a3565b91505092915050565b6108ee81610882565b82525050565b600060208201905061090960008301846108e5565b92915050565b600073ffffffffffffffffffffffffffffffffffffffff82169050919050565b600061093a8261090f565b9050919050565b61094a8161092f565b811461095557600080fd5b50565b60008135905061096781610941565b92915050565b6000602082840312156109835761098261087d565b5b600061099184828501610958565b91505092915050565b60008115159050919050565b6109af8161099a565b82525050565b60006020820190506109ca60008301846109a6565b92915050565b600082825260208201905092915050565b7f5468657265206d7573742061206d696e696d756d2062616c616e6365206f662060008201527f3120657468657200000000000000000000000000000000000000000000000000602082015250565b6000610a3d6027836109d0565b9150610a48826109e1565b604082019050919050565b60006020820190508181036000830152610a6c81610a30565b9050919050565b7f4e487b7100000000000000000000000000000000000000000000000000000000600052601160045260246000fd5b6000610aad82610882565b9150610ab883610882565b9250827fffffffffffffffffffffffffffffffffffffffffffffffffffffffffffffffff03821115610aed57610aec610a73565b5b828201905092915050565b7f576974682064726177616c2076616c7565206e6f7420636f7272656374000000600082015250565b6000610b2e601d836109d0565b9150610b3982610af8565b602082019050919050565b60006020820190508181036000830152610b5d81610b21565b9050919050565b7f536563726574206b6579206469646e2774206d61746368656400000000000000600082015250565b6000610b9a6019836109d0565b9150610ba582610b64565b602082019050919050565b60006020820190508181036000830152610bc981610b8d565b9050919050565b6000610bdb82610882565b9150610be683610882565b925082821015610bf957610bf8610a73565b5b828203905092915050565b7f596f7572206163636f756e742062616c616e6365206d69676874206265206c6f60008201527f77206f7220796f7520617265207472616e7366657272696e6720746f206e6f6e60208201527f206578697374696e672075736572000000000000000000000000000000000000604082015250565b6000610c86604e836109d0565b9150610c9182610c04565b606082019050919050565b60006020820190508181036000830152610cb581610c79565b9050919050565b7f726563656976657220646f65736e277420657869737473000000000000000000600082015250565b6000610cf26017836109d0565b9150610cfd82610cbc565b602082019050919050565b60006020820190508181036000830152610d2181610ce5565b9050919050565b7f596f7520617265207472616e7366657272696e6720616d6f756e74206772656160008201527f746572207468616e20796f75722062616c616e63650000000000000000000000602082015250565b6000610d846035836109d0565b9150610d8f82610d28565b604082019050919050565b60006020820190508181036000830152610db381610d77565b9050919050565b7f4f776e6572206f662062616e6b206469646e27742063616c6c2074686520667560008201527f6e6374696f6e0000000000000000000000000000000000000000000000000000602082015250565b6000610e166026836109d0565b9150610e2182610dba565b604082019050919050565b60006020820190508181036000830152610e4581610e09565b905091905056fea2646970667358221220c3c80262844c908a3067089e31121a7a9a9ce24826af425ef5a46d5c3ed4d26a64736f6c63430008090033",
					"opcodes": "PUSH1 0x80 PUSH1 0x40 MSTORE PUSH8 0xDE0B6B3A7640000 PUSH1 0x0 SSTORE CALLVALUE DUP1 ISZERO PUSH2 0x1C JUMPI PUSH1 0x0 DUP1 REVERT JUMPDEST POP CALLER PUSH1 0x1 PUSH1 0x0 PUSH2 0x100 EXP DUP2 SLOAD DUP2 PUSH20 0xFFFFFFFFFFFFFFFFFFFFFFFFFFFFFFFFFFFFFFFF MUL NOT AND SWAP1 DUP4 PUSH20 0xFFFFFFFFFFFFFFFFFFFFFFFFFFFFFFFFFFFFFFFF AND MUL OR SWAP1 SSTORE POP PUSH2 0xE82 DUP1 PUSH2 0x6D PUSH1 0x0 CODECOPY PUSH1 0x0 RETURN INVALID PUSH1 0x80 PUSH1 0x40 MSTORE PUSH1 0x4 CALLDATASIZE LT PUSH2 0x55 JUMPI PUSH1 0x0 CALLDATALOAD PUSH1 0xE0 SHR DUP1 PUSH4 0x1000420D EQ PUSH2 0x5A JUMPI DUP1 PUSH4 0x14174F33 EQ PUSH2 0x8A JUMPI DUP1 PUSH4 0x1A695230 EQ PUSH2 0xBA JUMPI DUP1 PUSH4 0x38A2CA40 EQ PUSH2 0xEA JUMPI DUP1 PUSH4 0x6896FABF EQ PUSH2 0x115 JUMPI DUP1 PUSH4 0xF340FA01 EQ PUSH2 0x140 JUMPI JUMPDEST PUSH1 0x0 DUP1 REVERT JUMPDEST PUSH2 0x74 PUSH1 0x4 DUP1 CALLDATASIZE SUB DUP2 ADD SWAP1 PUSH2 0x6F SWAP2 SWAP1 PUSH2 0x8B8 JUMP JUMPDEST PUSH2 0x170 JUMP JUMPDEST PUSH1 0x40 MLOAD PUSH2 0x81 SWAP2 SWAP1 PUSH2 0x8F4 JUMP JUMPDEST PUSH1 0x40 MLOAD DUP1 SWAP2 SUB SWAP1 RETURN JUMPDEST PUSH2 0xA4 PUSH1 0x4 DUP1 CALLDATASIZE SUB DUP2 ADD SWAP1 PUSH2 0x9F SWAP2 SWAP1 PUSH2 0x8B8 JUMP JUMPDEST PUSH2 0x297 JUMP JUMPDEST PUSH1 0x40 MLOAD PUSH2 0xB1 SWAP2 SWAP1 PUSH2 0x8F4 JUMP JUMPDEST PUSH1 0x40 MLOAD DUP1 SWAP2 SUB SWAP1 RETURN JUMPDEST PUSH2 0xD4 PUSH1 0x4 DUP1 CALLDATASIZE SUB DUP2 ADD SWAP1 PUSH2 0xCF SWAP2 SWAP1 PUSH2 0x96D JUMP JUMPDEST PUSH2 0x486 JUMP JUMPDEST PUSH1 0x40 MLOAD PUSH2 0xE1 SWAP2 SWAP1 PUSH2 0x9B5 JUMP JUMPDEST PUSH1 0x40 MLOAD DUP1 SWAP2 SUB SWAP1 RETURN JUMPDEST CALLVALUE DUP1 ISZERO PUSH2 0xF6 JUMPI PUSH1 0x0 DUP1 REVERT JUMPDEST POP PUSH2 0xFF PUSH2 0x6B3 JUMP JUMPDEST PUSH1 0x40 MLOAD PUSH2 0x10C SWAP2 SWAP1 PUSH2 0x8F4 JUMP JUMPDEST PUSH1 0x40 MLOAD DUP1 SWAP2 SUB SWAP1 RETURN JUMPDEST CALLVALUE DUP1 ISZERO PUSH2 0x121 JUMPI PUSH1 0x0 DUP1 REVERT JUMPDEST POP PUSH2 0x12A PUSH2 0x74B JUMP JUMPDEST PUSH1 0x40 MLOAD PUSH2 0x137 SWAP2 SWAP1 PUSH2 0x8F4 JUMP JUMPDEST PUSH1 0x40 MLOAD DUP1 SWAP2 SUB SWAP1 RETURN JUMPDEST PUSH2 0x15A PUSH1 0x4 DUP1 CALLDATASIZE SUB DUP2 ADD SWAP1 PUSH2 0x155 SWAP2 SWAP1 PUSH2 0x96D JUMP JUMPDEST PUSH2 0x792 JUMP JUMPDEST PUSH1 0x40 MLOAD PUSH2 0x167 SWAP2 SWAP1 PUSH2 0x8F4 JUMP JUMPDEST PUSH1 0x40 MLOAD DUP1 SWAP2 SUB SWAP1 RETURN JUMPDEST PUSH1 0x0 DUP1 SLOAD CALLVALUE LT ISZERO PUSH2 0x1B6 JUMPI PUSH1 0x40 MLOAD PUSH32 0x8C379A000000000000000000000000000000000000000000000000000000000 DUP2 MSTORE PUSH1 0x4 ADD PUSH2 0x1AD SWAP1 PUSH2 0xA53 JUMP JUMPDEST PUSH1 0x40 MLOAD DUP1 SWAP2 SUB SWAP1 REVERT JUMPDEST CALLVALUE PUSH1 0x2 PUSH1 0x0 CALLER PUSH20 0xFFFFFFFFFFFFFFFFFFFFFFFFFFFFFFFFFFFFFFFF AND PUSH20 0xFFFFFFFFFFFFFFFFFFFFFFFFFFFFFFFFFFFFFFFF AND DUP2 MSTORE PUSH1 0x20 ADD SWAP1 DUP2 MSTORE PUSH1 0x20 ADD PUSH1 0x0 KECCAK256 PUSH1 0x0 DUP3 DUP3 SLOAD PUSH2 0x205 SWAP2 SWAP1 PUSH2 0xAA2 JUMP JUMPDEST SWAP3 POP POP DUP2 SWAP1 SSTORE POP DUP2 PUSH1 0x3 PUSH1 0x0 CALLER PUSH20 0xFFFFFFFFFFFFFFFFFFFFFFFFFFFFFFFFFFFFFFFF AND PUSH20 0xFFFFFFFFFFFFFFFFFFFFFFFFFFFFFFFFFFFFFFFF AND DUP2 MSTORE PUSH1 0x20 ADD SWAP1 DUP2 MSTORE PUSH1 0x20 ADD PUSH1 0x0 KECCAK256 DUP2 SWAP1 SSTORE POP PUSH1 0x2 PUSH1 0x0 CALLER PUSH20 0xFFFFFFFFFFFFFFFFFFFFFFFFFFFFFFFFFFFFFFFF AND PUSH20 0xFFFFFFFFFFFFFFFFFFFFFFFFFFFFFFFFFFFFFFFF AND DUP2 MSTORE PUSH1 0x20 ADD SWAP1 DUP2 MSTORE PUSH1 0x20 ADD PUSH1 0x0 KECCAK256 SLOAD SWAP1 POP SWAP2 SWAP1 POP JUMP JUMPDEST PUSH1 0x0 PUSH1 0x2 PUSH1 0x0 CALLER PUSH20 0xFFFFFFFFFFFFFFFFFFFFFFFFFFFFFFFFFFFFFFFF AND PUSH20 0xFFFFFFFFFFFFFFFFFFFFFFFFFFFFFFFFFFFFFFFF AND DUP2 MSTORE PUSH1 0x20 ADD SWAP1 DUP2 MSTORE PUSH1 0x20 ADD PUSH1 0x0 KECCAK256 SLOAD CALLVALUE GT ISZERO PUSH2 0x31B JUMPI PUSH1 0x40 MLOAD PUSH32 0x8C379A000000000000000000000000000000000000000000000000000000000 DUP2 MSTORE PUSH1 0x4 ADD PUSH2 0x312 SWAP1 PUSH2 0xB44 JUMP JUMPDEST PUSH1 0x40 MLOAD DUP1 SWAP2 SUB SWAP1 REVERT JUMPDEST DUP2 PUSH1 0x3 PUSH1 0x0 CALLER PUSH20 0xFFFFFFFFFFFFFFFFFFFFFFFFFFFFFFFFFFFFFFFF AND PUSH20 0xFFFFFFFFFFFFFFFFFFFFFFFFFFFFFFFFFFFFFFFF AND DUP2 MSTORE PUSH1 0x20 ADD SWAP1 DUP2 MSTORE PUSH1 0x20 ADD PUSH1 0x0 KECCAK256 SLOAD EQ PUSH2 0x39C JUMPI PUSH1 0x40 MLOAD PUSH32 0x8C379A000000000000000000000000000000000000000000000000000000000 DUP2 MSTORE PUSH1 0x4 ADD PUSH2 0x393 SWAP1 PUSH2 0xBB0 JUMP JUMPDEST PUSH1 0x40 MLOAD DUP1 SWAP2 SUB SWAP1 REVERT JUMPDEST CALLVALUE PUSH1 0x2 PUSH1 0x0 CALLER PUSH20 0xFFFFFFFFFFFFFFFFFFFFFFFFFFFFFFFFFFFFFFFF AND PUSH20 0xFFFFFFFFFFFFFFFFFFFFFFFFFFFFFFFFFFFFFFFF AND DUP2 MSTORE PUSH1 0x20 ADD SWAP1 DUP2 MSTORE PUSH1 0x20 ADD PUSH1 0x0 KECCAK256 PUSH1 0x0 DUP3 DUP3 SLOAD PUSH2 0x3EB SWAP2 SWAP1 PUSH2 0xBD0 JUMP JUMPDEST SWAP3 POP POP DUP2 SWAP1 SSTORE POP PUSH1 0x0 CALLER SWAP1 POP DUP1 PUSH20 0xFFFFFFFFFFFFFFFFFFFFFFFFFFFFFFFFFFFFFFFF AND PUSH2 0x8FC CALLVALUE SWAP1 DUP2 ISZERO MUL SWAP1 PUSH1 0x40 MLOAD PUSH1 0x0 PUSH1 0x40 MLOAD DUP1 DUP4 SUB DUP2 DUP6 DUP9 DUP9 CALL SWAP4 POP POP POP POP ISZERO DUP1 ISZERO PUSH2 0x43D JUMPI RETURNDATASIZE PUSH1 0x0 DUP1 RETURNDATACOPY RETURNDATASIZE PUSH1 0x0 REVERT JUMPDEST POP PUSH1 0x2 PUSH1 0x0 CALLER PUSH20 0xFFFFFFFFFFFFFFFFFFFFFFFFFFFFFFFFFFFFFFFF AND PUSH20 0xFFFFFFFFFFFFFFFFFFFFFFFFFFFFFFFFFFFFFFFF AND DUP2 MSTORE PUSH1 0x20 ADD SWAP1 DUP2 MSTORE PUSH1 0x20 ADD PUSH1 0x0 KECCAK256 SLOAD SWAP2 POP POP SWAP2 SWAP1 POP JUMP JUMPDEST PUSH1 0x0 DUP1 PUSH1 0x2 PUSH1 0x0 CALLER PUSH20 0xFFFFFFFFFFFFFFFFFFFFFFFFFFFFFFFFFFFFFFFF AND PUSH20 0xFFFFFFFFFFFFFFFFFFFFFFFFFFFFFFFFFFFFFFFF AND DUP2 MSTORE PUSH1 0x20 ADD SWAP1 DUP2 MSTORE PUSH1 0x20 ADD PUSH1 0x0 KECCAK256 SLOAD GT PUSH2 0x509 JUMPI PUSH1 0x40 MLOAD PUSH32 0x8C379A000000000000000000000000000000000000000000000000000000000 DUP2 MSTORE PUSH1 0x4 ADD PUSH2 0x500 SWAP1 PUSH2 0xC9C JUMP JUMPDEST PUSH1 0x40 MLOAD DUP1 SWAP2 SUB SWAP1 REVERT JUMPDEST PUSH1 0x0 PUSH1 0x2 PUSH1 0x0 DUP5 PUSH20 0xFFFFFFFFFFFFFFFFFFFFFFFFFFFFFFFFFFFFFFFF AND PUSH20 0xFFFFFFFFFFFFFFFFFFFFFFFFFFFFFFFFFFFFFFFF AND DUP2 MSTORE PUSH1 0x20 ADD SWAP1 DUP2 MSTORE PUSH1 0x20 ADD PUSH1 0x0 KECCAK256 SLOAD GT PUSH2 0x58B JUMPI PUSH1 0x40 MLOAD PUSH32 0x8C379A000000000000000000000000000000000000000000000000000000000 DUP2 MSTORE PUSH1 0x4 ADD PUSH2 0x582 SWAP1 PUSH2 0xD08 JUMP JUMPDEST PUSH1 0x40 MLOAD DUP1 SWAP2 SUB SWAP1 REVERT JUMPDEST PUSH1 0x2 PUSH1 0x0 CALLER PUSH20 0xFFFFFFFFFFFFFFFFFFFFFFFFFFFFFFFFFFFFFFFF AND PUSH20 0xFFFFFFFFFFFFFFFFFFFFFFFFFFFFFFFFFFFFFFFF AND DUP2 MSTORE PUSH1 0x20 ADD SWAP1 DUP2 MSTORE PUSH1 0x20 ADD PUSH1 0x0 KECCAK256 SLOAD CALLVALUE GT ISZERO PUSH2 0x60D JUMPI PUSH1 0x40 MLOAD PUSH32 0x8C379A000000000000000000000000000000000000000000000000000000000 DUP2 MSTORE PUSH1 0x4 ADD PUSH2 0x604 SWAP1 PUSH2 0xD9A JUMP JUMPDEST PUSH1 0x40 MLOAD DUP1 SWAP2 SUB SWAP1 REVERT JUMPDEST CALLVALUE PUSH1 0x2 PUSH1 0x0 CALLER PUSH20 0xFFFFFFFFFFFFFFFFFFFFFFFFFFFFFFFFFFFFFFFF AND PUSH20 0xFFFFFFFFFFFFFFFFFFFFFFFFFFFFFFFFFFFFFFFF AND DUP2 MSTORE PUSH1 0x20 ADD SWAP1 DUP2 MSTORE PUSH1 0x20 ADD PUSH1 0x0 KECCAK256 PUSH1 0x0 DUP3 DUP3 SLOAD PUSH2 0x65C SWAP2 SWAP1 PUSH2 0xBD0 JUMP JUMPDEST SWAP3 POP POP DUP2 SWAP1 SSTORE POP DUP2 PUSH20 0xFFFFFFFFFFFFFFFFFFFFFFFFFFFFFFFFFFFFFFFF AND PUSH2 0x8FC CALLVALUE SWAP1 DUP2 ISZERO MUL SWAP1 PUSH1 0x40 MLOAD PUSH1 0x0 PUSH1 0x40 MLOAD DUP1 DUP4 SUB DUP2 DUP6 DUP9 DUP9 CALL SWAP4 POP POP POP POP ISZERO DUP1 ISZERO PUSH2 0x6A9 JUMPI RETURNDATASIZE PUSH1 0x0 DUP1 RETURNDATACOPY RETURNDATASIZE PUSH1 0x0 REVERT JUMPDEST POP PUSH1 0x1 SWAP1 POP SWAP2 SWAP1 POP JUMP JUMPDEST PUSH1 0x0 PUSH1 0x1 PUSH1 0x0 SWAP1 SLOAD SWAP1 PUSH2 0x100 EXP SWAP1 DIV PUSH20 0xFFFFFFFFFFFFFFFFFFFFFFFFFFFFFFFFFFFFFFFF AND PUSH20 0xFFFFFFFFFFFFFFFFFFFFFFFFFFFFFFFFFFFFFFFF AND CALLER PUSH20 0xFFFFFFFFFFFFFFFFFFFFFFFFFFFFFFFFFFFFFFFF AND EQ PUSH2 0x745 JUMPI PUSH1 0x40 MLOAD PUSH32 0x8C379A000000000000000000000000000000000000000000000000000000000 DUP2 MSTORE PUSH1 0x4 ADD PUSH2 0x73C SWAP1 PUSH2 0xE2C JUMP JUMPDEST PUSH1 0x40 MLOAD DUP1 SWAP2 SUB SWAP1 REVERT JUMPDEST SELFBALANCE SWAP1 POP SWAP1 JUMP JUMPDEST PUSH1 0x0 PUSH1 0x2 PUSH1 0x0 CALLER PUSH20 0xFFFFFFFFFFFFFFFFFFFFFFFFFFFFFFFFFFFFFFFF AND PUSH20 0xFFFFFFFFFFFFFFFFFFFFFFFFFFFFFFFFFFFFFFFF AND DUP2 MSTORE PUSH1 0x20 ADD SWAP1 DUP2 MSTORE PUSH1 0x20 ADD PUSH1 0x0 KECCAK256 SLOAD SWAP1 POP SWAP1 JUMP JUMPDEST PUSH1 0x0 DUP1 PUSH1 0x2 PUSH1 0x0 DUP5 PUSH20 0xFFFFFFFFFFFFFFFFFFFFFFFFFFFFFFFFFFFFFFFF AND PUSH20 0xFFFFFFFFFFFFFFFFFFFFFFFFFFFFFFFFFFFFFFFF AND DUP2 MSTORE PUSH1 0x20 ADD SWAP1 DUP2 MSTORE PUSH1 0x20 ADD PUSH1 0x0 KECCAK256 SLOAD EQ ISZERO PUSH2 0x7E0 JUMPI PUSH1 0x0 DUP1 REVERT JUMPDEST CALLVALUE PUSH1 0x2 PUSH1 0x0 DUP5 PUSH20 0xFFFFFFFFFFFFFFFFFFFFFFFFFFFFFFFFFFFFFFFF AND PUSH20 0xFFFFFFFFFFFFFFFFFFFFFFFFFFFFFFFFFFFFFFFF AND DUP2 MSTORE PUSH1 0x20 ADD SWAP1 DUP2 MSTORE PUSH1 0x20 ADD PUSH1 0x0 KECCAK256 PUSH1 0x0 DUP3 DUP3 SLOAD PUSH2 0x82F SWAP2 SWAP1 PUSH2 0xAA2 JUMP JUMPDEST SWAP3 POP POP DUP2 SWAP1 SSTORE POP PUSH1 0x2 PUSH1 0x0 DUP4 PUSH20 0xFFFFFFFFFFFFFFFFFFFFFFFFFFFFFFFFFFFFFFFF AND PUSH20 0xFFFFFFFFFFFFFFFFFFFFFFFFFFFFFFFFFFFFFFFF AND DUP2 MSTORE PUSH1 0x20 ADD SWAP1 DUP2 MSTORE PUSH1 0x20 ADD PUSH1 0x0 KECCAK256 SLOAD SWAP1 POP SWAP2 SWAP1 POP JUMP JUMPDEST PUSH1 0x0 DUP1 REVERT JUMPDEST PUSH1 0x0 DUP2 SWAP1 POP SWAP2 SWAP1 POP JUMP JUMPDEST PUSH2 0x895 DUP2 PUSH2 0x882 JUMP JUMPDEST DUP2 EQ PUSH2 0x8A0 JUMPI PUSH1 0x0 DUP1 REVERT JUMPDEST POP JUMP JUMPDEST PUSH1 0x0 DUP2 CALLDATALOAD SWAP1 POP PUSH2 0x8B2 DUP2 PUSH2 0x88C JUMP JUMPDEST SWAP3 SWAP2 POP POP JUMP JUMPDEST PUSH1 0x0 PUSH1 0x20 DUP3 DUP5 SUB SLT ISZERO PUSH2 0x8CE JUMPI PUSH2 0x8CD PUSH2 0x87D JUMP JUMPDEST JUMPDEST PUSH1 0x0 PUSH2 0x8DC DUP5 DUP3 DUP6 ADD PUSH2 0x8A3 JUMP JUMPDEST SWAP2 POP POP SWAP3 SWAP2 POP POP JUMP JUMPDEST PUSH2 0x8EE DUP2 PUSH2 0x882 JUMP JUMPDEST DUP3 MSTORE POP POP JUMP JUMPDEST PUSH1 0x0 PUSH1 0x20 DUP3 ADD SWAP1 POP PUSH2 0x909 PUSH1 0x0 DUP4 ADD DUP5 PUSH2 0x8E5 JUMP JUMPDEST SWAP3 SWAP2 POP POP JUMP JUMPDEST PUSH1 0x0 PUSH20 0xFFFFFFFFFFFFFFFFFFFFFFFFFFFFFFFFFFFFFFFF DUP3 AND SWAP1 POP SWAP2 SWAP1 POP JUMP JUMPDEST PUSH1 0x0 PUSH2 0x93A DUP3 PUSH2 0x90F JUMP JUMPDEST SWAP1 POP SWAP2 SWAP1 POP JUMP JUMPDEST PUSH2 0x94A DUP2 PUSH2 0x92F JUMP JUMPDEST DUP2 EQ PUSH2 0x955 JUMPI PUSH1 0x0 DUP1 REVERT JUMPDEST POP JUMP JUMPDEST PUSH1 0x0 DUP2 CALLDATALOAD SWAP1 POP PUSH2 0x967 DUP2 PUSH2 0x941 JUMP JUMPDEST SWAP3 SWAP2 POP POP JUMP JUMPDEST PUSH1 0x0 PUSH1 0x20 DUP3 DUP5 SUB SLT ISZERO PUSH2 0x983 JUMPI PUSH2 0x982 PUSH2 0x87D JUMP JUMPDEST JUMPDEST PUSH1 0x0 PUSH2 0x991 DUP5 DUP3 DUP6 ADD PUSH2 0x958 JUMP JUMPDEST SWAP2 POP POP SWAP3 SWAP2 POP POP JUMP JUMPDEST PUSH1 0x0 DUP2 ISZERO ISZERO SWAP1 POP SWAP2 SWAP1 POP JUMP JUMPDEST PUSH2 0x9AF DUP2 PUSH2 0x99A JUMP JUMPDEST DUP3 MSTORE POP POP JUMP JUMPDEST PUSH1 0x0 PUSH1 0x20 DUP3 ADD SWAP1 POP PUSH2 0x9CA PUSH1 0x0 DUP4 ADD DUP5 PUSH2 0x9A6 JUMP JUMPDEST SWAP3 SWAP2 POP POP JUMP JUMPDEST PUSH1 0x0 DUP3 DUP3 MSTORE PUSH1 0x20 DUP3 ADD SWAP1 POP SWAP3 SWAP2 POP POP JUMP JUMPDEST PUSH32 0x5468657265206D7573742061206D696E696D756D2062616C616E6365206F6620 PUSH1 0x0 DUP3 ADD MSTORE PUSH32 0x3120657468657200000000000000000000000000000000000000000000000000 PUSH1 0x20 DUP3 ADD MSTORE POP JUMP JUMPDEST PUSH1 0x0 PUSH2 0xA3D PUSH1 0x27 DUP4 PUSH2 0x9D0 JUMP JUMPDEST SWAP2 POP PUSH2 0xA48 DUP3 PUSH2 0x9E1 JUMP JUMPDEST PUSH1 0x40 DUP3 ADD SWAP1 POP SWAP2 SWAP1 POP JUMP JUMPDEST PUSH1 0x0 PUSH1 0x20 DUP3 ADD SWAP1 POP DUP2 DUP2 SUB PUSH1 0x0 DUP4 ADD MSTORE PUSH2 0xA6C DUP2 PUSH2 0xA30 JUMP JUMPDEST SWAP1 POP SWAP2 SWAP1 POP JUMP JUMPDEST PUSH32 0x4E487B7100000000000000000000000000000000000000000000000000000000 PUSH1 0x0 MSTORE PUSH1 0x11 PUSH1 0x4 MSTORE PUSH1 0x24 PUSH1 0x0 REVERT JUMPDEST PUSH1 0x0 PUSH2 0xAAD DUP3 PUSH2 0x882 JUMP JUMPDEST SWAP2 POP PUSH2 0xAB8 DUP4 PUSH2 0x882 JUMP JUMPDEST SWAP3 POP DUP3 PUSH32 0xFFFFFFFFFFFFFFFFFFFFFFFFFFFFFFFFFFFFFFFFFFFFFFFFFFFFFFFFFFFFFFFF SUB DUP3 GT ISZERO PUSH2 0xAED JUMPI PUSH2 0xAEC PUSH2 0xA73 JUMP JUMPDEST JUMPDEST DUP3 DUP3 ADD SWAP1 POP SWAP3 SWAP2 POP POP JUMP JUMPDEST PUSH32 0x576974682064726177616C2076616C7565206E6F7420636F7272656374000000 PUSH1 0x0 DUP3 ADD MSTORE POP JUMP JUMPDEST PUSH1 0x0 PUSH2 0xB2E PUSH1 0x1D DUP4 PUSH2 0x9D0 JUMP JUMPDEST SWAP2 POP PUSH2 0xB39 DUP3 PUSH2 0xAF8 JUMP JUMPDEST PUSH1 0x20 DUP3 ADD SWAP1 POP SWAP2 SWAP1 POP JUMP JUMPDEST PUSH1 0x0 PUSH1 0x20 DUP3 ADD SWAP1 POP DUP2 DUP2 SUB PUSH1 0x0 DUP4 ADD MSTORE PUSH2 0xB5D DUP2 PUSH2 0xB21 JUMP JUMPDEST SWAP1 POP SWAP2 SWAP1 POP JUMP JUMPDEST PUSH32 0x536563726574206B6579206469646E2774206D61746368656400000000000000 PUSH1 0x0 DUP3 ADD MSTORE POP JUMP JUMPDEST PUSH1 0x0 PUSH2 0xB9A PUSH1 0x19 DUP4 PUSH2 0x9D0 JUMP JUMPDEST SWAP2 POP PUSH2 0xBA5 DUP3 PUSH2 0xB64 JUMP JUMPDEST PUSH1 0x20 DUP3 ADD SWAP1 POP SWAP2 SWAP1 POP JUMP JUMPDEST PUSH1 0x0 PUSH1 0x20 DUP3 ADD SWAP1 POP DUP2 DUP2 SUB PUSH1 0x0 DUP4 ADD MSTORE PUSH2 0xBC9 DUP2 PUSH2 0xB8D JUMP JUMPDEST SWAP1 POP SWAP2 SWAP1 POP JUMP JUMPDEST PUSH1 0x0 PUSH2 0xBDB DUP3 PUSH2 0x882 JUMP JUMPDEST SWAP2 POP PUSH2 0xBE6 DUP4 PUSH2 0x882 JUMP JUMPDEST SWAP3 POP DUP3 DUP3 LT ISZERO PUSH2 0xBF9 JUMPI PUSH2 0xBF8 PUSH2 0xA73 JUMP JUMPDEST JUMPDEST DUP3 DUP3 SUB SWAP1 POP SWAP3 SWAP2 POP POP JUMP JUMPDEST PUSH32 0x596F7572206163636F756E742062616C616E6365206D69676874206265206C6F PUSH1 0x0 DUP3 ADD MSTORE PUSH32 0x77206F7220796F7520617265207472616E7366657272696E6720746F206E6F6E PUSH1 0x20 DUP3 ADD MSTORE PUSH32 0x206578697374696E672075736572000000000000000000000000000000000000 PUSH1 0x40 DUP3 ADD MSTORE POP JUMP JUMPDEST PUSH1 0x0 PUSH2 0xC86 PUSH1 0x4E DUP4 PUSH2 0x9D0 JUMP JUMPDEST SWAP2 POP PUSH2 0xC91 DUP3 PUSH2 0xC04 JUMP JUMPDEST PUSH1 0x60 DUP3 ADD SWAP1 POP SWAP2 SWAP1 POP JUMP JUMPDEST PUSH1 0x0 PUSH1 0x20 DUP3 ADD SWAP1 POP DUP2 DUP2 SUB PUSH1 0x0 DUP4 ADD MSTORE PUSH2 0xCB5 DUP2 PUSH2 0xC79 JUMP JUMPDEST SWAP1 POP SWAP2 SWAP1 POP JUMP JUMPDEST PUSH32 0x726563656976657220646F65736E277420657869737473000000000000000000 PUSH1 0x0 DUP3 ADD MSTORE POP JUMP JUMPDEST PUSH1 0x0 PUSH2 0xCF2 PUSH1 0x17 DUP4 PUSH2 0x9D0 JUMP JUMPDEST SWAP2 POP PUSH2 0xCFD DUP3 PUSH2 0xCBC JUMP JUMPDEST PUSH1 0x20 DUP3 ADD SWAP1 POP SWAP2 SWAP1 POP JUMP JUMPDEST PUSH1 0x0 PUSH1 0x20 DUP3 ADD SWAP1 POP DUP2 DUP2 SUB PUSH1 0x0 DUP4 ADD MSTORE PUSH2 0xD21 DUP2 PUSH2 0xCE5 JUMP JUMPDEST SWAP1 POP SWAP2 SWAP1 POP JUMP JUMPDEST PUSH32 0x596F7520617265207472616E7366657272696E6720616D6F756E742067726561 PUSH1 0x0 DUP3 ADD MSTORE PUSH32 0x746572207468616E20796F75722062616C616E63650000000000000000000000 PUSH1 0x20 DUP3 ADD MSTORE POP JUMP JUMPDEST PUSH1 0x0 PUSH2 0xD84 PUSH1 0x35 DUP4 PUSH2 0x9D0 JUMP JUMPDEST SWAP2 POP PUSH2 0xD8F DUP3 PUSH2 0xD28 JUMP JUMPDEST PUSH1 0x40 DUP3 ADD SWAP1 POP SWAP2 SWAP1 POP JUMP JUMPDEST PUSH1 0x0 PUSH1 0x20 DUP3 ADD SWAP1 POP DUP2 DUP2 SUB PUSH1 0x0 DUP4 ADD MSTORE PUSH2 0xDB3 DUP2 PUSH2 0xD77 JUMP JUMPDEST SWAP1 POP SWAP2 SWAP1 POP JUMP JUMPDEST PUSH32 0x4F776E6572206F662062616E6B206469646E27742063616C6C20746865206675 PUSH1 0x0 DUP3 ADD MSTORE PUSH32 0x6E6374696F6E0000000000000000000000000000000000000000000000000000 PUSH1 0x20 DUP3 ADD MSTORE POP JUMP JUMPDEST PUSH1 0x0 PUSH2 0xE16 PUSH1 0x26 DUP4 PUSH2 0x9D0 JUMP JUMPDEST SWAP2 POP PUSH2 0xE21 DUP3 PUSH2 0xDBA JUMP JUMPDEST PUSH1 0x40 DUP3 ADD SWAP1 POP SWAP2 SWAP1 POP JUMP JUMPDEST PUSH1 0x0 PUSH1 0x20 DUP3 ADD SWAP1 POP DUP2 DUP2 SUB PUSH1 0x0 DUP4 ADD MSTORE PUSH2 0xE45 DUP2 PUSH2 0xE09 JUMP JUMPDEST SWAP1 POP SWAP2 SWAP1 POP JUMP INVALID LOG2 PUSH5 0x6970667358 0x22 SLT KECCAK256 0xC3 0xC8 MUL PUSH3 0x844C90 DUP11 ADDRESS PUSH8 0x89E31121A7A9A9C 0xE2 BASEFEE 0x26 0xAF TIMESTAMP 0x5E CREATE2 LOG4 PUSH14 0x5C3ED4D26A64736F6C6343000809 STOP CALLER "
				},
				"gasEstimates": {
					"creation": {
						"codeDepositCost": "742800",
						"executionCost": "47151",
						"totalCost": "789951"
					},
					"external": {
						"deposit(address)": "infinite",
						"getAccountBalance()": "2592",
						"getTotalBankBalance()": "2668",
						"openAccount(uint256)": "infinite",
						"transfer(address)": "infinite",
						"withDraw(uint256)": "infinite"
					}
				},
				"methodIdentifiers": {
					"deposit(address)": "f340fa01",
					"getAccountBalance()": "6896fabf",
					"getTotalBankBalance()": "38a2ca40",
					"openAccount(uint256)": "1000420d",
					"transfer(address)": "1a695230",
					"withDraw(uint256)": "14174f33"
				}
			},
			"storageLayout": {
				"storage": [
					{
						"astId": 4,
						"contract": "ActualBank.sol:ActualBank",
						"label": "minAccountBalance",
						"offset": 0,
						"slot": "0",
						"type": "t_uint256"
					},
					{
						"astId": 6,
						"contract": "ActualBank.sol:ActualBank",
						"label": "owner",
						"offset": 0,
						"slot": "1",
						"type": "t_address_payable"
					},
					{
						"astId": 10,
						"contract": "ActualBank.sol:ActualBank",
						"label": "balance",
						"offset": 0,
						"slot": "2",
						"type": "t_mapping(t_address,t_uint256)"
					},
					{
						"astId": 14,
						"contract": "ActualBank.sol:ActualBank",
						"label": "secretKey",
						"offset": 0,
						"slot": "3",
						"type": "t_mapping(t_address,t_uint256)"
					}
				],
				"types": {
					"t_address": {
						"encoding": "inplace",
						"label": "address",
						"numberOfBytes": "20"
					},
					"t_address_payable": {
						"encoding": "inplace",
						"label": "address payable",
						"numberOfBytes": "20"
					},
					"t_mapping(t_address,t_uint256)": {
						"encoding": "mapping",
						"key": "t_address",
						"label": "mapping(address => uint256)",
						"numberOfBytes": "32",
						"value": "t_uint256"
					},
					"t_uint256": {
						"encoding": "inplace",
						"label": "uint256",
						"numberOfBytes": "32"
					}
				}
			},
			"userdoc": {
				"kind": "user",
				"methods": {},
				"version": 1
			}
		}
	}
}