{
	"ActualBank.sol": {
		"ActualBank": {
			"abi": [
				{
					"inputs": [],
					"stateMutability": "nonpayable",
					"type": "constructor"
				},
				{
					"inputs": [
						{
							"internalType": "address",
							"name": "benificiaryAccount",
							"type": "address"
						},
						{
							"internalType": "uint256",
							"name": "_amount",
							"type": "uint256"
						}
					],
					"name": "deposit",
					"outputs": [
						{
							"internalType": "uint256",
							"name": "",
							"type": "uint256"
						}
					],
					"stateMutability": "payable",
					"type": "function"
				},
				{
					"inputs": [],
					"name": "getTotalBankBalance",
					"outputs": [
						{
							"internalType": "uint256",
							"name": "",
							"type": "uint256"
						}
					],
					"stateMutability": "view",
					"type": "function"
				},
				{
					"inputs": [
						{
							"internalType": "uint256",
							"name": "_secretKey",
							"type": "uint256"
						}
					],
					"name": "openAccount",
					"outputs": [
						{
							"internalType": "uint256",
							"name": "",
							"type": "uint256"
						}
					],
					"stateMutability": "payable",
					"type": "function"
				},
				{
					"inputs": [
						{
							"internalType": "uint256",
							"name": "_amount",
							"type": "uint256"
						},
						{
							"internalType": "uint256",
							"name": "_secretKey",
							"type": "uint256"
						}
					],
					"name": "withDraw",
					"outputs": [
						{
							"internalType": "uint256",
							"name": "",
							"type": "uint256"
						}
					],
					"stateMutability": "payable",
					"type": "function"
				}
			],
			"devdoc": {
				"kind": "dev",
				"methods": {},
				"version": 1
			},
			"evm": {
				"assembly": "    /* \"ActualBank.sol\":57:1531  contract ActualBank{... */\n  mstore(0x40, 0x80)\n    /* \"ActualBank.sol\":105:112  1 ether */\n  0x0de0b6b3a7640000\n    /* \"ActualBank.sol\":82:112  uint minAccountBalance=1 ether */\n  0x00\n  sstore\n    /* \"ActualBank.sol\":231:286  constructor(){... */\n  callvalue\n  dup1\n  iszero\n  tag_1\n  jumpi\n  0x00\n  dup1\n  revert\ntag_1:\n  pop\n    /* \"ActualBank.sol\":268:278  msg.sender */\n  caller\n    /* \"ActualBank.sol\":254:259  owner */\n  0x01\n  0x00\n    /* \"ActualBank.sol\":254:279  owner=payable(msg.sender) */\n  0x0100\n  exp\n  dup2\n  sload\n  dup2\n  0xffffffffffffffffffffffffffffffffffffffff\n  mul\n  not\n  and\n  swap1\n  dup4\n  0xffffffffffffffffffffffffffffffffffffffff\n  and\n  mul\n  or\n  swap1\n  sstore\n  pop\n    /* \"ActualBank.sol\":57:1531  contract ActualBank{... */\n  dataSize(sub_0)\n  dup1\n  dataOffset(sub_0)\n  0x00\n  codecopy\n  0x00\n  return\nstop\n\nsub_0: assembly {\n        /* \"ActualBank.sol\":57:1531  contract ActualBank{... */\n      mstore(0x40, 0x80)\n      jumpi(tag_1, lt(calldatasize, 0x04))\n      shr(0xe0, calldataload(0x00))\n      dup1\n      0x1000420d\n      eq\n      tag_2\n      jumpi\n      dup1\n      0x38a2ca40\n      eq\n      tag_3\n      jumpi\n      dup1\n      0x47e7ef24\n      eq\n      tag_4\n      jumpi\n      dup1\n      0xd8b6e79a\n      eq\n      tag_5\n      jumpi\n    tag_1:\n      0x00\n      dup1\n      revert\n        /* \"ActualBank.sol\":292:587  function openAccount(uint256 _secretKey) payable public returns(uint256) {... */\n    tag_2:\n      tag_6\n      0x04\n      dup1\n      calldatasize\n      sub\n      dup2\n      add\n      swap1\n      tag_7\n      swap2\n      swap1\n      tag_8\n      jump\t// in\n    tag_7:\n      tag_9\n      jump\t// in\n    tag_6:\n      mload(0x40)\n      tag_10\n      swap2\n      swap1\n      tag_11\n      jump\t// in\n    tag_10:\n      mload(0x40)\n      dup1\n      swap2\n      sub\n      swap1\n      return\n        /* \"ActualBank.sol\":1346:1529  function getTotalBankBalance() public view returns(uint256){... */\n    tag_3:\n      callvalue\n      dup1\n      iszero\n      tag_12\n      jumpi\n      0x00\n      dup1\n      revert\n    tag_12:\n      pop\n      tag_13\n      tag_14\n      jump\t// in\n    tag_13:\n      mload(0x40)\n      tag_15\n      swap2\n      swap1\n      tag_11\n      jump\t// in\n    tag_15:\n      mload(0x40)\n      dup1\n      swap2\n      sub\n      swap1\n      return\n        /* \"ActualBank.sol\":594:873  function deposit(address benificiaryAccount,uint256 _amount) payable public returns(uint256){... */\n    tag_4:\n      tag_16\n      0x04\n      dup1\n      calldatasize\n      sub\n      dup2\n      add\n      swap1\n      tag_17\n      swap2\n      swap1\n      tag_18\n      jump\t// in\n    tag_17:\n      tag_19\n      jump\t// in\n    tag_16:\n      mload(0x40)\n      tag_20\n      swap2\n      swap1\n      tag_11\n      jump\t// in\n    tag_20:\n      mload(0x40)\n      dup1\n      swap2\n      sub\n      swap1\n      return\n        /* \"ActualBank.sol\":879:1341  function withDraw(uint256 _amount, uint256 _secretKey) payable public returns(uint256) {... */\n    tag_5:\n      tag_21\n      0x04\n      dup1\n      calldatasize\n      sub\n      dup2\n      add\n      swap1\n      tag_22\n      swap2\n      swap1\n      tag_23\n      jump\t// in\n    tag_22:\n      tag_24\n      jump\t// in\n    tag_21:\n      mload(0x40)\n      tag_25\n      swap2\n      swap1\n      tag_11\n      jump\t// in\n    tag_25:\n      mload(0x40)\n      dup1\n      swap2\n      sub\n      swap1\n      return\n        /* \"ActualBank.sol\":292:587  function openAccount(uint256 _secretKey) payable public returns(uint256) {... */\n    tag_9:\n        /* \"ActualBank.sol\":356:363  uint256 */\n      0x00\n        /* \"ActualBank.sol\":396:413  minAccountBalance */\n      dup1\n      sload\n        /* \"ActualBank.sol\":383:392  msg.value */\n      callvalue\n        /* \"ActualBank.sol\":383:413  msg.value >= minAccountBalance */\n      lt\n      iszero\n        /* \"ActualBank.sol\":375:462  require(msg.value >= minAccountBalance,\"There must a minimum balance of 0.00001 ether\") */\n      tag_27\n      jumpi\n      mload(0x40)\n      0x08c379a000000000000000000000000000000000000000000000000000000000\n      dup2\n      mstore\n      0x04\n      add\n      tag_28\n      swap1\n      tag_29\n      jump\t// in\n    tag_28:\n      mload(0x40)\n      dup1\n      swap2\n      sub\n      swap1\n      revert\n    tag_27:\n        /* \"ActualBank.sol\":493:502  msg.value */\n      callvalue\n        /* \"ActualBank.sol\":472:479  balance */\n      0x02\n        /* \"ActualBank.sol\":472:491  balance[msg.sender] */\n      0x00\n        /* \"ActualBank.sol\":480:490  msg.sender */\n      caller\n        /* \"ActualBank.sol\":472:491  balance[msg.sender] */\n      0xffffffffffffffffffffffffffffffffffffffff\n      and\n      0xffffffffffffffffffffffffffffffffffffffff\n      and\n      dup2\n      mstore\n      0x20\n      add\n      swap1\n      dup2\n      mstore\n      0x20\n      add\n      0x00\n      keccak256\n      0x00\n        /* \"ActualBank.sol\":472:502  balance[msg.sender]+=msg.value */\n      dup3\n      dup3\n      sload\n      tag_30\n      swap2\n      swap1\n      tag_31\n      jump\t// in\n    tag_30:\n      swap3\n      pop\n      pop\n      dup2\n      swap1\n      sstore\n      pop\n        /* \"ActualBank.sol\":534:544  _secretKey */\n      dup2\n        /* \"ActualBank.sol\":512:521  secretKey */\n      0x03\n        /* \"ActualBank.sol\":512:533  secretKey[msg.sender] */\n      0x00\n        /* \"ActualBank.sol\":522:532  msg.sender */\n      caller\n        /* \"ActualBank.sol\":512:533  secretKey[msg.sender] */\n      0xffffffffffffffffffffffffffffffffffffffff\n      and\n      0xffffffffffffffffffffffffffffffffffffffff\n      and\n      dup2\n      mstore\n      0x20\n      add\n      swap1\n      dup2\n      mstore\n      0x20\n      add\n      0x00\n      keccak256\n        /* \"ActualBank.sol\":512:544  secretKey[msg.sender]=_secretKey */\n      dup2\n      swap1\n      sstore\n      pop\n        /* \"ActualBank.sol\":561:568  balance */\n      0x02\n        /* \"ActualBank.sol\":561:580  balance[msg.sender] */\n      0x00\n        /* \"ActualBank.sol\":569:579  msg.sender */\n      caller\n        /* \"ActualBank.sol\":561:580  balance[msg.sender] */\n      0xffffffffffffffffffffffffffffffffffffffff\n      and\n      0xffffffffffffffffffffffffffffffffffffffff\n      and\n      dup2\n      mstore\n      0x20\n      add\n      swap1\n      dup2\n      mstore\n      0x20\n      add\n      0x00\n      keccak256\n      sload\n        /* \"ActualBank.sol\":554:580  return balance[msg.sender] */\n      swap1\n      pop\n        /* \"ActualBank.sol\":292:587  function openAccount(uint256 _secretKey) payable public returns(uint256) {... */\n      swap2\n      swap1\n      pop\n      jump\t// out\n        /* \"ActualBank.sol\":1346:1529  function getTotalBankBalance() public view returns(uint256){... */\n    tag_14:\n        /* \"ActualBank.sol\":1397:1404  uint256 */\n      0x00\n        /* \"ActualBank.sol\":1437:1442  owner */\n      0x01\n      0x00\n      swap1\n      sload\n      swap1\n      0x0100\n      exp\n      swap1\n      div\n      0xffffffffffffffffffffffffffffffffffffffff\n      and\n        /* \"ActualBank.sol\":1423:1442  msg.sender == owner */\n      0xffffffffffffffffffffffffffffffffffffffff\n      and\n        /* \"ActualBank.sol\":1423:1433  msg.sender */\n      caller\n        /* \"ActualBank.sol\":1423:1442  msg.sender == owner */\n      0xffffffffffffffffffffffffffffffffffffffff\n      and\n      eq\n        /* \"ActualBank.sol\":1415:1484  require(msg.sender == owner,\"Owner of bank didn't call the function\") */\n      tag_33\n      jumpi\n      mload(0x40)\n      0x08c379a000000000000000000000000000000000000000000000000000000000\n      dup2\n      mstore\n      0x04\n      add\n      tag_34\n      swap1\n      tag_35\n      jump\t// in\n    tag_34:\n      mload(0x40)\n      dup1\n      swap2\n      sub\n      swap1\n      revert\n    tag_33:\n        /* \"ActualBank.sol\":1501:1522  address(this).balance */\n      selfbalance\n        /* \"ActualBank.sol\":1494:1522  return address(this).balance */\n      swap1\n      pop\n        /* \"ActualBank.sol\":1346:1529  function getTotalBankBalance() public view returns(uint256){... */\n      swap1\n      jump\t// out\n        /* \"ActualBank.sol\":594:873  function deposit(address benificiaryAccount,uint256 _amount) payable public returns(uint256){... */\n    tag_19:\n        /* \"ActualBank.sol\":678:685  uint256 */\n      0x00\n        /* \"ActualBank.sol\":717:724  _amount */\n      dup2\n        /* \"ActualBank.sol\":704:713  msg.value */\n      callvalue\n        /* \"ActualBank.sol\":704:724  msg.value == _amount */\n      eq\n        /* \"ActualBank.sol\":696:725  require(msg.value == _amount) */\n      tag_37\n      jumpi\n      0x00\n      dup1\n      revert\n    tag_37:\n        /* \"ActualBank.sol\":774:775  0 */\n      0x00\n        /* \"ActualBank.sol\":743:750  balance */\n      0x02\n        /* \"ActualBank.sol\":743:770  balance[benificiaryAccount] */\n      0x00\n        /* \"ActualBank.sol\":751:769  benificiaryAccount */\n      dup6\n        /* \"ActualBank.sol\":743:770  balance[benificiaryAccount] */\n      0xffffffffffffffffffffffffffffffffffffffff\n      and\n      0xffffffffffffffffffffffffffffffffffffffff\n      and\n      dup2\n      mstore\n      0x20\n      add\n      swap1\n      dup2\n      mstore\n      0x20\n      add\n      0x00\n      keccak256\n      sload\n        /* \"ActualBank.sol\":743:775  balance[benificiaryAccount] != 0 */\n      eq\n      iszero\n        /* \"ActualBank.sol\":735:776  require(balance[benificiaryAccount] != 0) */\n      tag_38\n      jumpi\n      0x00\n      dup1\n      revert\n    tag_38:\n        /* \"ActualBank.sol\":815:822  _amount */\n      dup2\n        /* \"ActualBank.sol\":786:793  balance */\n      0x02\n        /* \"ActualBank.sol\":786:813  balance[benificiaryAccount] */\n      0x00\n        /* \"ActualBank.sol\":794:812  benificiaryAccount */\n      dup6\n        /* \"ActualBank.sol\":786:813  balance[benificiaryAccount] */\n      0xffffffffffffffffffffffffffffffffffffffff\n      and\n      0xffffffffffffffffffffffffffffffffffffffff\n      and\n      dup2\n      mstore\n      0x20\n      add\n      swap1\n      dup2\n      mstore\n      0x20\n      add\n      0x00\n      keccak256\n      0x00\n        /* \"ActualBank.sol\":786:822  balance[benificiaryAccount]+=_amount */\n      dup3\n      dup3\n      sload\n      tag_39\n      swap2\n      swap1\n      tag_31\n      jump\t// in\n    tag_39:\n      swap3\n      pop\n      pop\n      dup2\n      swap1\n      sstore\n      pop\n        /* \"ActualBank.sol\":839:846  balance */\n      0x02\n        /* \"ActualBank.sol\":839:866  balance[benificiaryAccount] */\n      0x00\n        /* \"ActualBank.sol\":847:865  benificiaryAccount */\n      dup5\n        /* \"ActualBank.sol\":839:866  balance[benificiaryAccount] */\n      0xffffffffffffffffffffffffffffffffffffffff\n      and\n      0xffffffffffffffffffffffffffffffffffffffff\n      and\n      dup2\n      mstore\n      0x20\n      add\n      swap1\n      dup2\n      mstore\n      0x20\n      add\n      0x00\n      keccak256\n      sload\n        /* \"ActualBank.sol\":832:866  return balance[benificiaryAccount] */\n      swap1\n      pop\n        /* \"ActualBank.sol\":594:873  function deposit(address benificiaryAccount,uint256 _amount) payable public returns(uint256){... */\n      swap3\n      swap2\n      pop\n      pop\n      jump\t// out\n        /* \"ActualBank.sol\":879:1341  function withDraw(uint256 _amount, uint256 _secretKey) payable public returns(uint256) {... */\n    tag_24:\n        /* \"ActualBank.sol\":957:964  uint256 */\n      0x00\n        /* \"ActualBank.sol\":997:1018  address(this).balance */\n      selfbalance\n        /* \"ActualBank.sol\":984:993  msg.value */\n      callvalue\n        /* \"ActualBank.sol\":984:1018  msg.value <= address(this).balance */\n      gt\n      iszero\n        /* \"ActualBank.sol\":976:1051  require(msg.value <= address(this).balance,\"With drawal value not correct\") */\n      tag_41\n      jumpi\n      mload(0x40)\n      0x08c379a000000000000000000000000000000000000000000000000000000000\n      dup2\n      mstore\n      0x04\n      add\n      tag_42\n      swap1\n      tag_43\n      jump\t// in\n    tag_42:\n      mload(0x40)\n      dup1\n      swap2\n      sub\n      swap1\n      revert\n    tag_41:\n        /* \"ActualBank.sol\":1082:1089  _amount */\n      dup3\n        /* \"ActualBank.sol\":1069:1078  msg.value */\n      callvalue\n        /* \"ActualBank.sol\":1069:1089  msg.value == _amount */\n      eq\n        /* \"ActualBank.sol\":1061:1116  require(msg.value == _amount, \" Arguments not correct\") */\n      tag_44\n      jumpi\n      mload(0x40)\n      0x08c379a000000000000000000000000000000000000000000000000000000000\n      dup2\n      mstore\n      0x04\n      add\n      tag_45\n      swap1\n      tag_46\n      jump\t// in\n    tag_45:\n      mload(0x40)\n      dup1\n      swap2\n      sub\n      swap1\n      revert\n    tag_44:\n        /* \"ActualBank.sol\":1159:1169  _secretKey */\n      dup2\n        /* \"ActualBank.sol\":1134:1143  secretKey */\n      0x03\n        /* \"ActualBank.sol\":1134:1155  secretKey[msg.sender] */\n      0x00\n        /* \"ActualBank.sol\":1144:1154  msg.sender */\n      caller\n        /* \"ActualBank.sol\":1134:1155  secretKey[msg.sender] */\n      0xffffffffffffffffffffffffffffffffffffffff\n      and\n      0xffffffffffffffffffffffffffffffffffffffff\n      and\n      dup2\n      mstore\n      0x20\n      add\n      swap1\n      dup2\n      mstore\n      0x20\n      add\n      0x00\n      keccak256\n      sload\n        /* \"ActualBank.sol\":1134:1169  secretKey[msg.sender] == _secretKey */\n      eq\n        /* \"ActualBank.sol\":1126:1199  require(secretKey[msg.sender] == _secretKey, \"Secret key didn't matched\") */\n      tag_47\n      jumpi\n      mload(0x40)\n      0x08c379a000000000000000000000000000000000000000000000000000000000\n      dup2\n      mstore\n      0x04\n      add\n      tag_48\n      swap1\n      tag_49\n      jump\t// in\n    tag_48:\n      mload(0x40)\n      dup1\n      swap2\n      sub\n      swap1\n      revert\n    tag_47:\n        /* \"ActualBank.sol\":1230:1237  _amount */\n      dup3\n        /* \"ActualBank.sol\":1209:1216  balance */\n      0x02\n        /* \"ActualBank.sol\":1209:1228  balance[msg.sender] */\n      0x00\n        /* \"ActualBank.sol\":1217:1227  msg.sender */\n      caller\n        /* \"ActualBank.sol\":1209:1228  balance[msg.sender] */\n      0xffffffffffffffffffffffffffffffffffffffff\n      and\n      0xffffffffffffffffffffffffffffffffffffffff\n      and\n      dup2\n      mstore\n      0x20\n      add\n      swap1\n      dup2\n      mstore\n      0x20\n      add\n      0x00\n      keccak256\n      0x00\n        /* \"ActualBank.sol\":1209:1237  balance[msg.sender]-=_amount */\n      dup3\n      dup3\n      sload\n      tag_50\n      swap2\n      swap1\n      tag_51\n      jump\t// in\n    tag_50:\n      swap3\n      pop\n      pop\n      dup2\n      swap1\n      sstore\n      pop\n        /* \"ActualBank.sol\":1255:1265  msg.sender */\n      caller\n        /* \"ActualBank.sol\":1247:1275  payable(msg.sender).transfer */\n      0xffffffffffffffffffffffffffffffffffffffff\n      and\n        /* \"ActualBank.sol\":1247:1298  payable(msg.sender).transfer(address(this).balance) */\n      0x08fc\n        /* \"ActualBank.sol\":1276:1297  address(this).balance */\n      selfbalance\n        /* \"ActualBank.sol\":1247:1298  payable(msg.sender).transfer(address(this).balance) */\n      swap1\n      dup2\n      iszero\n      mul\n      swap1\n      mload(0x40)\n      0x00\n      mload(0x40)\n      dup1\n      dup4\n      sub\n      dup2\n      dup6\n      dup9\n      dup9\n      call\n      swap4\n      pop\n      pop\n      pop\n      pop\n      iszero\n      dup1\n      iszero\n      tag_53\n      jumpi\n      returndatasize\n      0x00\n      dup1\n      returndatacopy\n      revert(0x00, returndatasize)\n    tag_53:\n      pop\n        /* \"ActualBank.sol\":1315:1322  balance */\n      0x02\n        /* \"ActualBank.sol\":1315:1334  balance[msg.sender] */\n      0x00\n        /* \"ActualBank.sol\":1323:1333  msg.sender */\n      caller\n        /* \"ActualBank.sol\":1315:1334  balance[msg.sender] */\n      0xffffffffffffffffffffffffffffffffffffffff\n      and\n      0xffffffffffffffffffffffffffffffffffffffff\n      and\n      dup2\n      mstore\n      0x20\n      add\n      swap1\n      dup2\n      mstore\n      0x20\n      add\n      0x00\n      keccak256\n      sload\n        /* \"ActualBank.sol\":1308:1334  return balance[msg.sender] */\n      swap1\n      pop\n        /* \"ActualBank.sol\":879:1341  function withDraw(uint256 _amount, uint256 _secretKey) payable public returns(uint256) {... */\n      swap3\n      swap2\n      pop\n      pop\n      jump\t// out\n        /* \"#utility.yul\":88:205   */\n    tag_55:\n        /* \"#utility.yul\":197:198   */\n      0x00\n        /* \"#utility.yul\":194:195   */\n      dup1\n        /* \"#utility.yul\":187:199   */\n      revert\n        /* \"#utility.yul\":334:411   */\n    tag_57:\n        /* \"#utility.yul\":371:378   */\n      0x00\n        /* \"#utility.yul\":400:405   */\n      dup2\n        /* \"#utility.yul\":389:405   */\n      swap1\n      pop\n        /* \"#utility.yul\":334:411   */\n      swap2\n      swap1\n      pop\n      jump\t// out\n        /* \"#utility.yul\":417:539   */\n    tag_58:\n        /* \"#utility.yul\":490:514   */\n      tag_83\n        /* \"#utility.yul\":508:513   */\n      dup2\n        /* \"#utility.yul\":490:514   */\n      tag_57\n      jump\t// in\n    tag_83:\n        /* \"#utility.yul\":483:488   */\n      dup2\n        /* \"#utility.yul\":480:515   */\n      eq\n        /* \"#utility.yul\":470:533   */\n      tag_84\n      jumpi\n        /* \"#utility.yul\":529:530   */\n      0x00\n        /* \"#utility.yul\":526:527   */\n      dup1\n        /* \"#utility.yul\":519:531   */\n      revert\n        /* \"#utility.yul\":470:533   */\n    tag_84:\n        /* \"#utility.yul\":417:539   */\n      pop\n      jump\t// out\n        /* \"#utility.yul\":545:684   */\n    tag_59:\n        /* \"#utility.yul\":591:596   */\n      0x00\n        /* \"#utility.yul\":629:635   */\n      dup2\n        /* \"#utility.yul\":616:636   */\n      calldataload\n        /* \"#utility.yul\":607:636   */\n      swap1\n      pop\n        /* \"#utility.yul\":645:678   */\n      tag_86\n        /* \"#utility.yul\":672:677   */\n      dup2\n        /* \"#utility.yul\":645:678   */\n      tag_58\n      jump\t// in\n    tag_86:\n        /* \"#utility.yul\":545:684   */\n      swap3\n      swap2\n      pop\n      pop\n      jump\t// out\n        /* \"#utility.yul\":690:1019   */\n    tag_8:\n        /* \"#utility.yul\":749:755   */\n      0x00\n        /* \"#utility.yul\":798:800   */\n      0x20\n        /* \"#utility.yul\":786:795   */\n      dup3\n        /* \"#utility.yul\":777:784   */\n      dup5\n        /* \"#utility.yul\":773:796   */\n      sub\n        /* \"#utility.yul\":769:801   */\n      slt\n        /* \"#utility.yul\":766:885   */\n      iszero\n      tag_88\n      jumpi\n        /* \"#utility.yul\":804:883   */\n      tag_89\n      tag_55\n      jump\t// in\n    tag_89:\n        /* \"#utility.yul\":766:885   */\n    tag_88:\n        /* \"#utility.yul\":924:925   */\n      0x00\n        /* \"#utility.yul\":949:1002   */\n      tag_90\n        /* \"#utility.yul\":994:1001   */\n      dup5\n        /* \"#utility.yul\":985:991   */\n      dup3\n        /* \"#utility.yul\":974:983   */\n      dup6\n        /* \"#utility.yul\":970:992   */\n      add\n        /* \"#utility.yul\":949:1002   */\n      tag_59\n      jump\t// in\n    tag_90:\n        /* \"#utility.yul\":939:1002   */\n      swap2\n      pop\n        /* \"#utility.yul\":895:1012   */\n      pop\n        /* \"#utility.yul\":690:1019   */\n      swap3\n      swap2\n      pop\n      pop\n      jump\t// out\n        /* \"#utility.yul\":1025:1143   */\n    tag_60:\n        /* \"#utility.yul\":1112:1136   */\n      tag_92\n        /* \"#utility.yul\":1130:1135   */\n      dup2\n        /* \"#utility.yul\":1112:1136   */\n      tag_57\n      jump\t// in\n    tag_92:\n        /* \"#utility.yul\":1107:1110   */\n      dup3\n        /* \"#utility.yul\":1100:1137   */\n      mstore\n        /* \"#utility.yul\":1025:1143   */\n      pop\n      pop\n      jump\t// out\n        /* \"#utility.yul\":1149:1371   */\n    tag_11:\n        /* \"#utility.yul\":1242:1246   */\n      0x00\n        /* \"#utility.yul\":1280:1282   */\n      0x20\n        /* \"#utility.yul\":1269:1278   */\n      dup3\n        /* \"#utility.yul\":1265:1283   */\n      add\n        /* \"#utility.yul\":1257:1283   */\n      swap1\n      pop\n        /* \"#utility.yul\":1293:1364   */\n      tag_94\n        /* \"#utility.yul\":1361:1362   */\n      0x00\n        /* \"#utility.yul\":1350:1359   */\n      dup4\n        /* \"#utility.yul\":1346:1363   */\n      add\n        /* \"#utility.yul\":1337:1343   */\n      dup5\n        /* \"#utility.yul\":1293:1364   */\n      tag_60\n      jump\t// in\n    tag_94:\n        /* \"#utility.yul\":1149:1371   */\n      swap3\n      swap2\n      pop\n      pop\n      jump\t// out\n        /* \"#utility.yul\":1377:1503   */\n    tag_61:\n        /* \"#utility.yul\":1414:1421   */\n      0x00\n        /* \"#utility.yul\":1454:1496   */\n      0xffffffffffffffffffffffffffffffffffffffff\n        /* \"#utility.yul\":1447:1452   */\n      dup3\n        /* \"#utility.yul\":1443:1497   */\n      and\n        /* \"#utility.yul\":1432:1497   */\n      swap1\n      pop\n        /* \"#utility.yul\":1377:1503   */\n      swap2\n      swap1\n      pop\n      jump\t// out\n        /* \"#utility.yul\":1509:1605   */\n    tag_62:\n        /* \"#utility.yul\":1546:1553   */\n      0x00\n        /* \"#utility.yul\":1575:1599   */\n      tag_97\n        /* \"#utility.yul\":1593:1598   */\n      dup3\n        /* \"#utility.yul\":1575:1599   */\n      tag_61\n      jump\t// in\n    tag_97:\n        /* \"#utility.yul\":1564:1599   */\n      swap1\n      pop\n        /* \"#utility.yul\":1509:1605   */\n      swap2\n      swap1\n      pop\n      jump\t// out\n        /* \"#utility.yul\":1611:1733   */\n    tag_63:\n        /* \"#utility.yul\":1684:1708   */\n      tag_99\n        /* \"#utility.yul\":1702:1707   */\n      dup2\n        /* \"#utility.yul\":1684:1708   */\n      tag_62\n      jump\t// in\n    tag_99:\n        /* \"#utility.yul\":1677:1682   */\n      dup2\n        /* \"#utility.yul\":1674:1709   */\n      eq\n        /* \"#utility.yul\":1664:1727   */\n      tag_100\n      jumpi\n        /* \"#utility.yul\":1723:1724   */\n      0x00\n        /* \"#utility.yul\":1720:1721   */\n      dup1\n        /* \"#utility.yul\":1713:1725   */\n      revert\n        /* \"#utility.yul\":1664:1727   */\n    tag_100:\n        /* \"#utility.yul\":1611:1733   */\n      pop\n      jump\t// out\n        /* \"#utility.yul\":1739:1878   */\n    tag_64:\n        /* \"#utility.yul\":1785:1790   */\n      0x00\n        /* \"#utility.yul\":1823:1829   */\n      dup2\n        /* \"#utility.yul\":1810:1830   */\n      calldataload\n        /* \"#utility.yul\":1801:1830   */\n      swap1\n      pop\n        /* \"#utility.yul\":1839:1872   */\n      tag_102\n        /* \"#utility.yul\":1866:1871   */\n      dup2\n        /* \"#utility.yul\":1839:1872   */\n      tag_63\n      jump\t// in\n    tag_102:\n        /* \"#utility.yul\":1739:1878   */\n      swap3\n      swap2\n      pop\n      pop\n      jump\t// out\n        /* \"#utility.yul\":1884:2358   */\n    tag_18:\n        /* \"#utility.yul\":1952:1958   */\n      0x00\n        /* \"#utility.yul\":1960:1966   */\n      dup1\n        /* \"#utility.yul\":2009:2011   */\n      0x40\n        /* \"#utility.yul\":1997:2006   */\n      dup4\n        /* \"#utility.yul\":1988:1995   */\n      dup6\n        /* \"#utility.yul\":1984:2007   */\n      sub\n        /* \"#utility.yul\":1980:2012   */\n      slt\n        /* \"#utility.yul\":1977:2096   */\n      iszero\n      tag_104\n      jumpi\n        /* \"#utility.yul\":2015:2094   */\n      tag_105\n      tag_55\n      jump\t// in\n    tag_105:\n        /* \"#utility.yul\":1977:2096   */\n    tag_104:\n        /* \"#utility.yul\":2135:2136   */\n      0x00\n        /* \"#utility.yul\":2160:2213   */\n      tag_106\n        /* \"#utility.yul\":2205:2212   */\n      dup6\n        /* \"#utility.yul\":2196:2202   */\n      dup3\n        /* \"#utility.yul\":2185:2194   */\n      dup7\n        /* \"#utility.yul\":2181:2203   */\n      add\n        /* \"#utility.yul\":2160:2213   */\n      tag_64\n      jump\t// in\n    tag_106:\n        /* \"#utility.yul\":2150:2213   */\n      swap3\n      pop\n        /* \"#utility.yul\":2106:2223   */\n      pop\n        /* \"#utility.yul\":2262:2264   */\n      0x20\n        /* \"#utility.yul\":2288:2341   */\n      tag_107\n        /* \"#utility.yul\":2333:2340   */\n      dup6\n        /* \"#utility.yul\":2324:2330   */\n      dup3\n        /* \"#utility.yul\":2313:2322   */\n      dup7\n        /* \"#utility.yul\":2309:2331   */\n      add\n        /* \"#utility.yul\":2288:2341   */\n      tag_59\n      jump\t// in\n    tag_107:\n        /* \"#utility.yul\":2278:2341   */\n      swap2\n      pop\n        /* \"#utility.yul\":2233:2351   */\n      pop\n        /* \"#utility.yul\":1884:2358   */\n      swap3\n      pop\n      swap3\n      swap1\n      pop\n      jump\t// out\n        /* \"#utility.yul\":2364:2838   */\n    tag_23:\n        /* \"#utility.yul\":2432:2438   */\n      0x00\n        /* \"#utility.yul\":2440:2446   */\n      dup1\n        /* \"#utility.yul\":2489:2491   */\n      0x40\n        /* \"#utility.yul\":2477:2486   */\n      dup4\n        /* \"#utility.yul\":2468:2475   */\n      dup6\n        /* \"#utility.yul\":2464:2487   */\n      sub\n        /* \"#utility.yul\":2460:2492   */\n      slt\n        /* \"#utility.yul\":2457:2576   */\n      iszero\n      tag_109\n      jumpi\n        /* \"#utility.yul\":2495:2574   */\n      tag_110\n      tag_55\n      jump\t// in\n    tag_110:\n        /* \"#utility.yul\":2457:2576   */\n    tag_109:\n        /* \"#utility.yul\":2615:2616   */\n      0x00\n        /* \"#utility.yul\":2640:2693   */\n      tag_111\n        /* \"#utility.yul\":2685:2692   */\n      dup6\n        /* \"#utility.yul\":2676:2682   */\n      dup3\n        /* \"#utility.yul\":2665:2674   */\n      dup7\n        /* \"#utility.yul\":2661:2683   */\n      add\n        /* \"#utility.yul\":2640:2693   */\n      tag_59\n      jump\t// in\n    tag_111:\n        /* \"#utility.yul\":2630:2693   */\n      swap3\n      pop\n        /* \"#utility.yul\":2586:2703   */\n      pop\n        /* \"#utility.yul\":2742:2744   */\n      0x20\n        /* \"#utility.yul\":2768:2821   */\n      tag_112\n        /* \"#utility.yul\":2813:2820   */\n      dup6\n        /* \"#utility.yul\":2804:2810   */\n      dup3\n        /* \"#utility.yul\":2793:2802   */\n      dup7\n        /* \"#utility.yul\":2789:2811   */\n      add\n        /* \"#utility.yul\":2768:2821   */\n      tag_59\n      jump\t// in\n    tag_112:\n        /* \"#utility.yul\":2758:2821   */\n      swap2\n      pop\n        /* \"#utility.yul\":2713:2831   */\n      pop\n        /* \"#utility.yul\":2364:2838   */\n      swap3\n      pop\n      swap3\n      swap1\n      pop\n      jump\t// out\n        /* \"#utility.yul\":2844:3013   */\n    tag_65:\n        /* \"#utility.yul\":2928:2939   */\n      0x00\n        /* \"#utility.yul\":2962:2968   */\n      dup3\n        /* \"#utility.yul\":2957:2960   */\n      dup3\n        /* \"#utility.yul\":2950:2969   */\n      mstore\n        /* \"#utility.yul\":3002:3006   */\n      0x20\n        /* \"#utility.yul\":2997:3000   */\n      dup3\n        /* \"#utility.yul\":2993:3007   */\n      add\n        /* \"#utility.yul\":2978:3007   */\n      swap1\n      pop\n        /* \"#utility.yul\":2844:3013   */\n      swap3\n      swap2\n      pop\n      pop\n      jump\t// out\n        /* \"#utility.yul\":3019:3251   */\n    tag_66:\n        /* \"#utility.yul\":3159:3193   */\n      0x5468657265206d7573742061206d696e696d756d2062616c616e6365206f6620\n        /* \"#utility.yul\":3155:3156   */\n      0x00\n        /* \"#utility.yul\":3147:3153   */\n      dup3\n        /* \"#utility.yul\":3143:3157   */\n      add\n        /* \"#utility.yul\":3136:3194   */\n      mstore\n        /* \"#utility.yul\":3228:3243   */\n      0x302e303030303120657468657200000000000000000000000000000000000000\n        /* \"#utility.yul\":3223:3225   */\n      0x20\n        /* \"#utility.yul\":3215:3221   */\n      dup3\n        /* \"#utility.yul\":3211:3226   */\n      add\n        /* \"#utility.yul\":3204:3244   */\n      mstore\n        /* \"#utility.yul\":3019:3251   */\n      pop\n      jump\t// out\n        /* \"#utility.yul\":3257:3623   */\n    tag_67:\n        /* \"#utility.yul\":3399:3402   */\n      0x00\n        /* \"#utility.yul\":3420:3487   */\n      tag_116\n        /* \"#utility.yul\":3484:3486   */\n      0x2d\n        /* \"#utility.yul\":3479:3482   */\n      dup4\n        /* \"#utility.yul\":3420:3487   */\n      tag_65\n      jump\t// in\n    tag_116:\n        /* \"#utility.yul\":3413:3487   */\n      swap2\n      pop\n        /* \"#utility.yul\":3496:3589   */\n      tag_117\n        /* \"#utility.yul\":3585:3588   */\n      dup3\n        /* \"#utility.yul\":3496:3589   */\n      tag_66\n      jump\t// in\n    tag_117:\n        /* \"#utility.yul\":3614:3616   */\n      0x40\n        /* \"#utility.yul\":3609:3612   */\n      dup3\n        /* \"#utility.yul\":3605:3617   */\n      add\n        /* \"#utility.yul\":3598:3617   */\n      swap1\n      pop\n        /* \"#utility.yul\":3257:3623   */\n      swap2\n      swap1\n      pop\n      jump\t// out\n        /* \"#utility.yul\":3629:4048   */\n    tag_29:\n        /* \"#utility.yul\":3795:3799   */\n      0x00\n        /* \"#utility.yul\":3833:3835   */\n      0x20\n        /* \"#utility.yul\":3822:3831   */\n      dup3\n        /* \"#utility.yul\":3818:3836   */\n      add\n        /* \"#utility.yul\":3810:3836   */\n      swap1\n      pop\n        /* \"#utility.yul\":3882:3891   */\n      dup2\n        /* \"#utility.yul\":3876:3880   */\n      dup2\n        /* \"#utility.yul\":3872:3892   */\n      sub\n        /* \"#utility.yul\":3868:3869   */\n      0x00\n        /* \"#utility.yul\":3857:3866   */\n      dup4\n        /* \"#utility.yul\":3853:3870   */\n      add\n        /* \"#utility.yul\":3846:3893   */\n      mstore\n        /* \"#utility.yul\":3910:4041   */\n      tag_119\n        /* \"#utility.yul\":4036:4040   */\n      dup2\n        /* \"#utility.yul\":3910:4041   */\n      tag_67\n      jump\t// in\n    tag_119:\n        /* \"#utility.yul\":3902:4041   */\n      swap1\n      pop\n        /* \"#utility.yul\":3629:4048   */\n      swap2\n      swap1\n      pop\n      jump\t// out\n        /* \"#utility.yul\":4054:4234   */\n    tag_68:\n        /* \"#utility.yul\":4102:4179   */\n      0x4e487b7100000000000000000000000000000000000000000000000000000000\n        /* \"#utility.yul\":4099:4100   */\n      0x00\n        /* \"#utility.yul\":4092:4180   */\n      mstore\n        /* \"#utility.yul\":4199:4203   */\n      0x11\n        /* \"#utility.yul\":4196:4197   */\n      0x04\n        /* \"#utility.yul\":4189:4204   */\n      mstore\n        /* \"#utility.yul\":4223:4227   */\n      0x24\n        /* \"#utility.yul\":4220:4221   */\n      0x00\n        /* \"#utility.yul\":4213:4228   */\n      revert\n        /* \"#utility.yul\":4240:4545   */\n    tag_31:\n        /* \"#utility.yul\":4280:4283   */\n      0x00\n        /* \"#utility.yul\":4299:4319   */\n      tag_122\n        /* \"#utility.yul\":4317:4318   */\n      dup3\n        /* \"#utility.yul\":4299:4319   */\n      tag_57\n      jump\t// in\n    tag_122:\n        /* \"#utility.yul\":4294:4319   */\n      swap2\n      pop\n        /* \"#utility.yul\":4333:4353   */\n      tag_123\n        /* \"#utility.yul\":4351:4352   */\n      dup4\n        /* \"#utility.yul\":4333:4353   */\n      tag_57\n      jump\t// in\n    tag_123:\n        /* \"#utility.yul\":4328:4353   */\n      swap3\n      pop\n        /* \"#utility.yul\":4487:4488   */\n      dup3\n        /* \"#utility.yul\":4419:4485   */\n      0xffffffffffffffffffffffffffffffffffffffffffffffffffffffffffffffff\n        /* \"#utility.yul\":4415:4489   */\n      sub\n        /* \"#utility.yul\":4412:4413   */\n      dup3\n        /* \"#utility.yul\":4409:4490   */\n      gt\n        /* \"#utility.yul\":4406:4513   */\n      iszero\n      tag_124\n      jumpi\n        /* \"#utility.yul\":4493:4511   */\n      tag_125\n      tag_68\n      jump\t// in\n    tag_125:\n        /* \"#utility.yul\":4406:4513   */\n    tag_124:\n        /* \"#utility.yul\":4537:4538   */\n      dup3\n        /* \"#utility.yul\":4534:4535   */\n      dup3\n        /* \"#utility.yul\":4530:4539   */\n      add\n        /* \"#utility.yul\":4523:4539   */\n      swap1\n      pop\n        /* \"#utility.yul\":4240:4545   */\n      swap3\n      swap2\n      pop\n      pop\n      jump\t// out\n        /* \"#utility.yul\":4551:4776   */\n    tag_69:\n        /* \"#utility.yul\":4691:4725   */\n      0x4f776e6572206f662062616e6b206469646e27742063616c6c20746865206675\n        /* \"#utility.yul\":4687:4688   */\n      0x00\n        /* \"#utility.yul\":4679:4685   */\n      dup3\n        /* \"#utility.yul\":4675:4689   */\n      add\n        /* \"#utility.yul\":4668:4726   */\n      mstore\n        /* \"#utility.yul\":4760:4768   */\n      0x6e6374696f6e0000000000000000000000000000000000000000000000000000\n        /* \"#utility.yul\":4755:4757   */\n      0x20\n        /* \"#utility.yul\":4747:4753   */\n      dup3\n        /* \"#utility.yul\":4743:4758   */\n      add\n        /* \"#utility.yul\":4736:4769   */\n      mstore\n        /* \"#utility.yul\":4551:4776   */\n      pop\n      jump\t// out\n        /* \"#utility.yul\":4782:5148   */\n    tag_70:\n        /* \"#utility.yul\":4924:4927   */\n      0x00\n        /* \"#utility.yul\":4945:5012   */\n      tag_128\n        /* \"#utility.yul\":5009:5011   */\n      0x26\n        /* \"#utility.yul\":5004:5007   */\n      dup4\n        /* \"#utility.yul\":4945:5012   */\n      tag_65\n      jump\t// in\n    tag_128:\n        /* \"#utility.yul\":4938:5012   */\n      swap2\n      pop\n        /* \"#utility.yul\":5021:5114   */\n      tag_129\n        /* \"#utility.yul\":5110:5113   */\n      dup3\n        /* \"#utility.yul\":5021:5114   */\n      tag_69\n      jump\t// in\n    tag_129:\n        /* \"#utility.yul\":5139:5141   */\n      0x40\n        /* \"#utility.yul\":5134:5137   */\n      dup3\n        /* \"#utility.yul\":5130:5142   */\n      add\n        /* \"#utility.yul\":5123:5142   */\n      swap1\n      pop\n        /* \"#utility.yul\":4782:5148   */\n      swap2\n      swap1\n      pop\n      jump\t// out\n        /* \"#utility.yul\":5154:5573   */\n    tag_35:\n        /* \"#utility.yul\":5320:5324   */\n      0x00\n        /* \"#utility.yul\":5358:5360   */\n      0x20\n        /* \"#utility.yul\":5347:5356   */\n      dup3\n        /* \"#utility.yul\":5343:5361   */\n      add\n        /* \"#utility.yul\":5335:5361   */\n      swap1\n      pop\n        /* \"#utility.yul\":5407:5416   */\n      dup2\n        /* \"#utility.yul\":5401:5405   */\n      dup2\n        /* \"#utility.yul\":5397:5417   */\n      sub\n        /* \"#utility.yul\":5393:5394   */\n      0x00\n        /* \"#utility.yul\":5382:5391   */\n      dup4\n        /* \"#utility.yul\":5378:5395   */\n      add\n        /* \"#utility.yul\":5371:5418   */\n      mstore\n        /* \"#utility.yul\":5435:5566   */\n      tag_131\n        /* \"#utility.yul\":5561:5565   */\n      dup2\n        /* \"#utility.yul\":5435:5566   */\n      tag_70\n      jump\t// in\n    tag_131:\n        /* \"#utility.yul\":5427:5566   */\n      swap1\n      pop\n        /* \"#utility.yul\":5154:5573   */\n      swap2\n      swap1\n      pop\n      jump\t// out\n        /* \"#utility.yul\":5579:5758   */\n    tag_71:\n        /* \"#utility.yul\":5719:5750   */\n      0x576974682064726177616c2076616c7565206e6f7420636f7272656374000000\n        /* \"#utility.yul\":5715:5716   */\n      0x00\n        /* \"#utility.yul\":5707:5713   */\n      dup3\n        /* \"#utility.yul\":5703:5717   */\n      add\n        /* \"#utility.yul\":5696:5751   */\n      mstore\n        /* \"#utility.yul\":5579:5758   */\n      pop\n      jump\t// out\n        /* \"#utility.yul\":5764:6130   */\n    tag_72:\n        /* \"#utility.yul\":5906:5909   */\n      0x00\n        /* \"#utility.yul\":5927:5994   */\n      tag_134\n        /* \"#utility.yul\":5991:5993   */\n      0x1d\n        /* \"#utility.yul\":5986:5989   */\n      dup4\n        /* \"#utility.yul\":5927:5994   */\n      tag_65\n      jump\t// in\n    tag_134:\n        /* \"#utility.yul\":5920:5994   */\n      swap2\n      pop\n        /* \"#utility.yul\":6003:6096   */\n      tag_135\n        /* \"#utility.yul\":6092:6095   */\n      dup3\n        /* \"#utility.yul\":6003:6096   */\n      tag_71\n      jump\t// in\n    tag_135:\n        /* \"#utility.yul\":6121:6123   */\n      0x20\n        /* \"#utility.yul\":6116:6119   */\n      dup3\n        /* \"#utility.yul\":6112:6124   */\n      add\n        /* \"#utility.yul\":6105:6124   */\n      swap1\n      pop\n        /* \"#utility.yul\":5764:6130   */\n      swap2\n      swap1\n      pop\n      jump\t// out\n        /* \"#utility.yul\":6136:6555   */\n    tag_43:\n        /* \"#utility.yul\":6302:6306   */\n      0x00\n        /* \"#utility.yul\":6340:6342   */\n      0x20\n        /* \"#utility.yul\":6329:6338   */\n      dup3\n        /* \"#utility.yul\":6325:6343   */\n      add\n        /* \"#utility.yul\":6317:6343   */\n      swap1\n      pop\n        /* \"#utility.yul\":6389:6398   */\n      dup2\n        /* \"#utility.yul\":6383:6387   */\n      dup2\n        /* \"#utility.yul\":6379:6399   */\n      sub\n        /* \"#utility.yul\":6375:6376   */\n      0x00\n        /* \"#utility.yul\":6364:6373   */\n      dup4\n        /* \"#utility.yul\":6360:6377   */\n      add\n        /* \"#utility.yul\":6353:6400   */\n      mstore\n        /* \"#utility.yul\":6417:6548   */\n      tag_137\n        /* \"#utility.yul\":6543:6547   */\n      dup2\n        /* \"#utility.yul\":6417:6548   */\n      tag_72\n      jump\t// in\n    tag_137:\n        /* \"#utility.yul\":6409:6548   */\n      swap1\n      pop\n        /* \"#utility.yul\":6136:6555   */\n      swap2\n      swap1\n      pop\n      jump\t// out\n        /* \"#utility.yul\":6561:6733   */\n    tag_73:\n        /* \"#utility.yul\":6701:6725   */\n      0x20417267756d656e7473206e6f7420636f727265637400000000000000000000\n        /* \"#utility.yul\":6697:6698   */\n      0x00\n        /* \"#utility.yul\":6689:6695   */\n      dup3\n        /* \"#utility.yul\":6685:6699   */\n      add\n        /* \"#utility.yul\":6678:6726   */\n      mstore\n        /* \"#utility.yul\":6561:6733   */\n      pop\n      jump\t// out\n        /* \"#utility.yul\":6739:7105   */\n    tag_74:\n        /* \"#utility.yul\":6881:6884   */\n      0x00\n        /* \"#utility.yul\":6902:6969   */\n      tag_140\n        /* \"#utility.yul\":6966:6968   */\n      0x16\n        /* \"#utility.yul\":6961:6964   */\n      dup4\n        /* \"#utility.yul\":6902:6969   */\n      tag_65\n      jump\t// in\n    tag_140:\n        /* \"#utility.yul\":6895:6969   */\n      swap2\n      pop\n        /* \"#utility.yul\":6978:7071   */\n      tag_141\n        /* \"#utility.yul\":7067:7070   */\n      dup3\n        /* \"#utility.yul\":6978:7071   */\n      tag_73\n      jump\t// in\n    tag_141:\n        /* \"#utility.yul\":7096:7098   */\n      0x20\n        /* \"#utility.yul\":7091:7094   */\n      dup3\n        /* \"#utility.yul\":7087:7099   */\n      add\n        /* \"#utility.yul\":7080:7099   */\n      swap1\n      pop\n        /* \"#utility.yul\":6739:7105   */\n      swap2\n      swap1\n      pop\n      jump\t// out\n        /* \"#utility.yul\":7111:7530   */\n    tag_46:\n        /* \"#utility.yul\":7277:7281   */\n      0x00\n        /* \"#utility.yul\":7315:7317   */\n      0x20\n        /* \"#utility.yul\":7304:7313   */\n      dup3\n        /* \"#utility.yul\":7300:7318   */\n      add\n        /* \"#utility.yul\":7292:7318   */\n      swap1\n      pop\n        /* \"#utility.yul\":7364:7373   */\n      dup2\n        /* \"#utility.yul\":7358:7362   */\n      dup2\n        /* \"#utility.yul\":7354:7374   */\n      sub\n        /* \"#utility.yul\":7350:7351   */\n      0x00\n        /* \"#utility.yul\":7339:7348   */\n      dup4\n        /* \"#utility.yul\":7335:7352   */\n      add\n        /* \"#utility.yul\":7328:7375   */\n      mstore\n        /* \"#utility.yul\":7392:7523   */\n      tag_143\n        /* \"#utility.yul\":7518:7522   */\n      dup2\n        /* \"#utility.yul\":7392:7523   */\n      tag_74\n      jump\t// in\n    tag_143:\n        /* \"#utility.yul\":7384:7523   */\n      swap1\n      pop\n        /* \"#utility.yul\":7111:7530   */\n      swap2\n      swap1\n      pop\n      jump\t// out\n        /* \"#utility.yul\":7536:7711   */\n    tag_75:\n        /* \"#utility.yul\":7676:7703   */\n      0x536563726574206b6579206469646e2774206d61746368656400000000000000\n        /* \"#utility.yul\":7672:7673   */\n      0x00\n        /* \"#utility.yul\":7664:7670   */\n      dup3\n        /* \"#utility.yul\":7660:7674   */\n      add\n        /* \"#utility.yul\":7653:7704   */\n      mstore\n        /* \"#utility.yul\":7536:7711   */\n      pop\n      jump\t// out\n        /* \"#utility.yul\":7717:8083   */\n    tag_76:\n        /* \"#utility.yul\":7859:7862   */\n      0x00\n        /* \"#utility.yul\":7880:7947   */\n      tag_146\n        /* \"#utility.yul\":7944:7946   */\n      0x19\n        /* \"#utility.yul\":7939:7942   */\n      dup4\n        /* \"#utility.yul\":7880:7947   */\n      tag_65\n      jump\t// in\n    tag_146:\n        /* \"#utility.yul\":7873:7947   */\n      swap2\n      pop\n        /* \"#utility.yul\":7956:8049   */\n      tag_147\n        /* \"#utility.yul\":8045:8048   */\n      dup3\n        /* \"#utility.yul\":7956:8049   */\n      tag_75\n      jump\t// in\n    tag_147:\n        /* \"#utility.yul\":8074:8076   */\n      0x20\n        /* \"#utility.yul\":8069:8072   */\n      dup3\n        /* \"#utility.yul\":8065:8077   */\n      add\n        /* \"#utility.yul\":8058:8077   */\n      swap1\n      pop\n        /* \"#utility.yul\":7717:8083   */\n      swap2\n      swap1\n      pop\n      jump\t// out\n        /* \"#utility.yul\":8089:8508   */\n    tag_49:\n        /* \"#utility.yul\":8255:8259   */\n      0x00\n        /* \"#utility.yul\":8293:8295   */\n      0x20\n        /* \"#utility.yul\":8282:8291   */\n      dup3\n        /* \"#utility.yul\":8278:8296   */\n      add\n        /* \"#utility.yul\":8270:8296   */\n      swap1\n      pop\n        /* \"#utility.yul\":8342:8351   */\n      dup2\n        /* \"#utility.yul\":8336:8340   */\n      dup2\n        /* \"#utility.yul\":8332:8352   */\n      sub\n        /* \"#utility.yul\":8328:8329   */\n      0x00\n        /* \"#utility.yul\":8317:8326   */\n      dup4\n        /* \"#utility.yul\":8313:8330   */\n      add\n        /* \"#utility.yul\":8306:8353   */\n      mstore\n        /* \"#utility.yul\":8370:8501   */\n      tag_149\n        /* \"#utility.yul\":8496:8500   */\n      dup2\n        /* \"#utility.yul\":8370:8501   */\n      tag_76\n      jump\t// in\n    tag_149:\n        /* \"#utility.yul\":8362:8501   */\n      swap1\n      pop\n        /* \"#utility.yul\":8089:8508   */\n      swap2\n      swap1\n      pop\n      jump\t// out\n        /* \"#utility.yul\":8514:8705   */\n    tag_51:\n        /* \"#utility.yul\":8554:8558   */\n      0x00\n        /* \"#utility.yul\":8574:8594   */\n      tag_151\n        /* \"#utility.yul\":8592:8593   */\n      dup3\n        /* \"#utility.yul\":8574:8594   */\n      tag_57\n      jump\t// in\n    tag_151:\n        /* \"#utility.yul\":8569:8594   */\n      swap2\n      pop\n        /* \"#utility.yul\":8608:8628   */\n      tag_152\n        /* \"#utility.yul\":8626:8627   */\n      dup4\n        /* \"#utility.yul\":8608:8628   */\n      tag_57\n      jump\t// in\n    tag_152:\n        /* \"#utility.yul\":8603:8628   */\n      swap3\n      pop\n        /* \"#utility.yul\":8647:8648   */\n      dup3\n        /* \"#utility.yul\":8644:8645   */\n      dup3\n        /* \"#utility.yul\":8641:8649   */\n      lt\n        /* \"#utility.yul\":8638:8672   */\n      iszero\n      tag_153\n      jumpi\n        /* \"#utility.yul\":8652:8670   */\n      tag_154\n      tag_68\n      jump\t// in\n    tag_154:\n        /* \"#utility.yul\":8638:8672   */\n    tag_153:\n        /* \"#utility.yul\":8697:8698   */\n      dup3\n        /* \"#utility.yul\":8694:8695   */\n      dup3\n        /* \"#utility.yul\":8690:8699   */\n      sub\n        /* \"#utility.yul\":8682:8699   */\n      swap1\n      pop\n        /* \"#utility.yul\":8514:8705   */\n      swap3\n      swap2\n      pop\n      pop\n      jump\t// out\n\n    auxdata: 0xa2646970667358221220ddda0ce6f8adb8cc9b4b85db5b5d9126f0a30f151dec80cc06501320b2e316fb64736f6c63430008090033\n}\n",
				"bytecode": {
					"linkReferences": {},
					"object": "6080604052670de0b6b3a764000060005534801561001c57600080fd5b5033600160006101000a81548173ffffffffffffffffffffffffffffffffffffffff021916908373ffffffffffffffffffffffffffffffffffffffff160217905550610a7c8061006d6000396000f3fe60806040526004361061003f5760003560e01c80631000420d1461004457806338a2ca401461007457806347e7ef241461009f578063d8b6e79a146100cf575b600080fd5b61005e600480360381019061005991906105df565b6100ff565b60405161006b919061061b565b60405180910390f35b34801561008057600080fd5b50610089610226565b604051610096919061061b565b60405180910390f35b6100b960048036038101906100b49190610694565b6102be565b6040516100c6919061061b565b60405180910390f35b6100e960048036038101906100e491906106d4565b6103b7565b6040516100f6919061061b565b60405180910390f35b60008054341015610145576040517f08c379a000000000000000000000000000000000000000000000000000000000815260040161013c90610797565b60405180910390fd5b34600260003373ffffffffffffffffffffffffffffffffffffffff1673ffffffffffffffffffffffffffffffffffffffff168152602001908152602001600020600082825461019491906107e6565b9250508190555081600360003373ffffffffffffffffffffffffffffffffffffffff1673ffffffffffffffffffffffffffffffffffffffff16815260200190815260200160002081905550600260003373ffffffffffffffffffffffffffffffffffffffff1673ffffffffffffffffffffffffffffffffffffffff168152602001908152602001600020549050919050565b6000600160009054906101000a900473ffffffffffffffffffffffffffffffffffffffff1673ffffffffffffffffffffffffffffffffffffffff163373ffffffffffffffffffffffffffffffffffffffff16146102b8576040517f08c379a00000000000000000000000000000000000000000000000000000000081526004016102af906108ae565b60405180910390fd5b47905090565b60008134146102cc57600080fd5b6000600260008573ffffffffffffffffffffffffffffffffffffffff1673ffffffffffffffffffffffffffffffffffffffff16815260200190815260200160002054141561031957600080fd5b81600260008573ffffffffffffffffffffffffffffffffffffffff1673ffffffffffffffffffffffffffffffffffffffff168152602001908152602001600020600082825461036891906107e6565b92505081905550600260008473ffffffffffffffffffffffffffffffffffffffff1673ffffffffffffffffffffffffffffffffffffffff16815260200190815260200160002054905092915050565b6000473411156103fc576040517f08c379a00000000000000000000000000000000000000000000000000000000081526004016103f39061091a565b60405180910390fd5b82341461043e576040517f08c379a000000000000000000000000000000000000000000000000000000000815260040161043590610986565b60405180910390fd5b81600360003373ffffffffffffffffffffffffffffffffffffffff1673ffffffffffffffffffffffffffffffffffffffff16815260200190815260200160002054146104bf576040517f08c379a00000000000000000000000000000000000000000000000000000000081526004016104b6906109f2565b60405180910390fd5b82600260003373ffffffffffffffffffffffffffffffffffffffff1673ffffffffffffffffffffffffffffffffffffffff168152602001908152602001600020600082825461050e9190610a12565b925050819055503373ffffffffffffffffffffffffffffffffffffffff166108fc479081150290604051600060405180830381858888f1935050505015801561055b573d6000803e3d6000fd5b50600260003373ffffffffffffffffffffffffffffffffffffffff1673ffffffffffffffffffffffffffffffffffffffff16815260200190815260200160002054905092915050565b600080fd5b6000819050919050565b6105bc816105a9565b81146105c757600080fd5b50565b6000813590506105d9816105b3565b92915050565b6000602082840312156105f5576105f46105a4565b5b6000610603848285016105ca565b91505092915050565b610615816105a9565b82525050565b6000602082019050610630600083018461060c565b92915050565b600073ffffffffffffffffffffffffffffffffffffffff82169050919050565b600061066182610636565b9050919050565b61067181610656565b811461067c57600080fd5b50565b60008135905061068e81610668565b92915050565b600080604083850312156106ab576106aa6105a4565b5b60006106b98582860161067f565b92505060206106ca858286016105ca565b9150509250929050565b600080604083850312156106eb576106ea6105a4565b5b60006106f9858286016105ca565b925050602061070a858286016105ca565b9150509250929050565b600082825260208201905092915050565b7f5468657265206d7573742061206d696e696d756d2062616c616e6365206f662060008201527f302e303030303120657468657200000000000000000000000000000000000000602082015250565b6000610781602d83610714565b915061078c82610725565b604082019050919050565b600060208201905081810360008301526107b081610774565b9050919050565b7f4e487b7100000000000000000000000000000000000000000000000000000000600052601160045260246000fd5b60006107f1826105a9565b91506107fc836105a9565b9250827fffffffffffffffffffffffffffffffffffffffffffffffffffffffffffffffff03821115610831576108306107b7565b5b828201905092915050565b7f4f776e6572206f662062616e6b206469646e27742063616c6c2074686520667560008201527f6e6374696f6e0000000000000000000000000000000000000000000000000000602082015250565b6000610898602683610714565b91506108a38261083c565b604082019050919050565b600060208201905081810360008301526108c78161088b565b9050919050565b7f576974682064726177616c2076616c7565206e6f7420636f7272656374000000600082015250565b6000610904601d83610714565b915061090f826108ce565b602082019050919050565b60006020820190508181036000830152610933816108f7565b9050919050565b7f20417267756d656e7473206e6f7420636f727265637400000000000000000000600082015250565b6000610970601683610714565b915061097b8261093a565b602082019050919050565b6000602082019050818103600083015261099f81610963565b9050919050565b7f536563726574206b6579206469646e2774206d61746368656400000000000000600082015250565b60006109dc601983610714565b91506109e7826109a6565b602082019050919050565b60006020820190508181036000830152610a0b816109cf565b9050919050565b6000610a1d826105a9565b9150610a28836105a9565b925082821015610a3b57610a3a6107b7565b5b82820390509291505056fea2646970667358221220ddda0ce6f8adb8cc9b4b85db5b5d9126f0a30f151dec80cc06501320b2e316fb64736f6c63430008090033",
					"opcodes": "PUSH1 0x80 PUSH1 0x40 MSTORE PUSH8 0xDE0B6B3A7640000 PUSH1 0x0 SSTORE CALLVALUE DUP1 ISZERO PUSH2 0x1C JUMPI PUSH1 0x0 DUP1 REVERT JUMPDEST POP CALLER PUSH1 0x1 PUSH1 0x0 PUSH2 0x100 EXP DUP2 SLOAD DUP2 PUSH20 0xFFFFFFFFFFFFFFFFFFFFFFFFFFFFFFFFFFFFFFFF MUL NOT AND SWAP1 DUP4 PUSH20 0xFFFFFFFFFFFFFFFFFFFFFFFFFFFFFFFFFFFFFFFF AND MUL OR SWAP1 SSTORE POP PUSH2 0xA7C DUP1 PUSH2 0x6D PUSH1 0x0 CODECOPY PUSH1 0x0 RETURN INVALID PUSH1 0x80 PUSH1 0x40 MSTORE PUSH1 0x4 CALLDATASIZE LT PUSH2 0x3F JUMPI PUSH1 0x0 CALLDATALOAD PUSH1 0xE0 SHR DUP1 PUSH4 0x1000420D EQ PUSH2 0x44 JUMPI DUP1 PUSH4 0x38A2CA40 EQ PUSH2 0x74 JUMPI DUP1 PUSH4 0x47E7EF24 EQ PUSH2 0x9F JUMPI DUP1 PUSH4 0xD8B6E79A EQ PUSH2 0xCF JUMPI JUMPDEST PUSH1 0x0 DUP1 REVERT JUMPDEST PUSH2 0x5E PUSH1 0x4 DUP1 CALLDATASIZE SUB DUP2 ADD SWAP1 PUSH2 0x59 SWAP2 SWAP1 PUSH2 0x5DF JUMP JUMPDEST PUSH2 0xFF JUMP JUMPDEST PUSH1 0x40 MLOAD PUSH2 0x6B SWAP2 SWAP1 PUSH2 0x61B JUMP JUMPDEST PUSH1 0x40 MLOAD DUP1 SWAP2 SUB SWAP1 RETURN JUMPDEST CALLVALUE DUP1 ISZERO PUSH2 0x80 JUMPI PUSH1 0x0 DUP1 REVERT JUMPDEST POP PUSH2 0x89 PUSH2 0x226 JUMP JUMPDEST PUSH1 0x40 MLOAD PUSH2 0x96 SWAP2 SWAP1 PUSH2 0x61B JUMP JUMPDEST PUSH1 0x40 MLOAD DUP1 SWAP2 SUB SWAP1 RETURN JUMPDEST PUSH2 0xB9 PUSH1 0x4 DUP1 CALLDATASIZE SUB DUP2 ADD SWAP1 PUSH2 0xB4 SWAP2 SWAP1 PUSH2 0x694 JUMP JUMPDEST PUSH2 0x2BE JUMP JUMPDEST PUSH1 0x40 MLOAD PUSH2 0xC6 SWAP2 SWAP1 PUSH2 0x61B JUMP JUMPDEST PUSH1 0x40 MLOAD DUP1 SWAP2 SUB SWAP1 RETURN JUMPDEST PUSH2 0xE9 PUSH1 0x4 DUP1 CALLDATASIZE SUB DUP2 ADD SWAP1 PUSH2 0xE4 SWAP2 SWAP1 PUSH2 0x6D4 JUMP JUMPDEST PUSH2 0x3B7 JUMP JUMPDEST PUSH1 0x40 MLOAD PUSH2 0xF6 SWAP2 SWAP1 PUSH2 0x61B JUMP JUMPDEST PUSH1 0x40 MLOAD DUP1 SWAP2 SUB SWAP1 RETURN JUMPDEST PUSH1 0x0 DUP1 SLOAD CALLVALUE LT ISZERO PUSH2 0x145 JUMPI PUSH1 0x40 MLOAD PUSH32 0x8C379A000000000000000000000000000000000000000000000000000000000 DUP2 MSTORE PUSH1 0x4 ADD PUSH2 0x13C SWAP1 PUSH2 0x797 JUMP JUMPDEST PUSH1 0x40 MLOAD DUP1 SWAP2 SUB SWAP1 REVERT JUMPDEST CALLVALUE PUSH1 0x2 PUSH1 0x0 CALLER PUSH20 0xFFFFFFFFFFFFFFFFFFFFFFFFFFFFFFFFFFFFFFFF AND PUSH20 0xFFFFFFFFFFFFFFFFFFFFFFFFFFFFFFFFFFFFFFFF AND DUP2 MSTORE PUSH1 0x20 ADD SWAP1 DUP2 MSTORE PUSH1 0x20 ADD PUSH1 0x0 KECCAK256 PUSH1 0x0 DUP3 DUP3 SLOAD PUSH2 0x194 SWAP2 SWAP1 PUSH2 0x7E6 JUMP JUMPDEST SWAP3 POP POP DUP2 SWAP1 SSTORE POP DUP2 PUSH1 0x3 PUSH1 0x0 CALLER PUSH20 0xFFFFFFFFFFFFFFFFFFFFFFFFFFFFFFFFFFFFFFFF AND PUSH20 0xFFFFFFFFFFFFFFFFFFFFFFFFFFFFFFFFFFFFFFFF AND DUP2 MSTORE PUSH1 0x20 ADD SWAP1 DUP2 MSTORE PUSH1 0x20 ADD PUSH1 0x0 KECCAK256 DUP2 SWAP1 SSTORE POP PUSH1 0x2 PUSH1 0x0 CALLER PUSH20 0xFFFFFFFFFFFFFFFFFFFFFFFFFFFFFFFFFFFFFFFF AND PUSH20 0xFFFFFFFFFFFFFFFFFFFFFFFFFFFFFFFFFFFFFFFF AND DUP2 MSTORE PUSH1 0x20 ADD SWAP1 DUP2 MSTORE PUSH1 0x20 ADD PUSH1 0x0 KECCAK256 SLOAD SWAP1 POP SWAP2 SWAP1 POP JUMP JUMPDEST PUSH1 0x0 PUSH1 0x1 PUSH1 0x0 SWAP1 SLOAD SWAP1 PUSH2 0x100 EXP SWAP1 DIV PUSH20 0xFFFFFFFFFFFFFFFFFFFFFFFFFFFFFFFFFFFFFFFF AND PUSH20 0xFFFFFFFFFFFFFFFFFFFFFFFFFFFFFFFFFFFFFFFF AND CALLER PUSH20 0xFFFFFFFFFFFFFFFFFFFFFFFFFFFFFFFFFFFFFFFF AND EQ PUSH2 0x2B8 JUMPI PUSH1 0x40 MLOAD PUSH32 0x8C379A000000000000000000000000000000000000000000000000000000000 DUP2 MSTORE PUSH1 0x4 ADD PUSH2 0x2AF SWAP1 PUSH2 0x8AE JUMP JUMPDEST PUSH1 0x40 MLOAD DUP1 SWAP2 SUB SWAP1 REVERT JUMPDEST SELFBALANCE SWAP1 POP SWAP1 JUMP JUMPDEST PUSH1 0x0 DUP2 CALLVALUE EQ PUSH2 0x2CC JUMPI PUSH1 0x0 DUP1 REVERT JUMPDEST PUSH1 0x0 PUSH1 0x2 PUSH1 0x0 DUP6 PUSH20 0xFFFFFFFFFFFFFFFFFFFFFFFFFFFFFFFFFFFFFFFF AND PUSH20 0xFFFFFFFFFFFFFFFFFFFFFFFFFFFFFFFFFFFFFFFF AND DUP2 MSTORE PUSH1 0x20 ADD SWAP1 DUP2 MSTORE PUSH1 0x20 ADD PUSH1 0x0 KECCAK256 SLOAD EQ ISZERO PUSH2 0x319 JUMPI PUSH1 0x0 DUP1 REVERT JUMPDEST DUP2 PUSH1 0x2 PUSH1 0x0 DUP6 PUSH20 0xFFFFFFFFFFFFFFFFFFFFFFFFFFFFFFFFFFFFFFFF AND PUSH20 0xFFFFFFFFFFFFFFFFFFFFFFFFFFFFFFFFFFFFFFFF AND DUP2 MSTORE PUSH1 0x20 ADD SWAP1 DUP2 MSTORE PUSH1 0x20 ADD PUSH1 0x0 KECCAK256 PUSH1 0x0 DUP3 DUP3 SLOAD PUSH2 0x368 SWAP2 SWAP1 PUSH2 0x7E6 JUMP JUMPDEST SWAP3 POP POP DUP2 SWAP1 SSTORE POP PUSH1 0x2 PUSH1 0x0 DUP5 PUSH20 0xFFFFFFFFFFFFFFFFFFFFFFFFFFFFFFFFFFFFFFFF AND PUSH20 0xFFFFFFFFFFFFFFFFFFFFFFFFFFFFFFFFFFFFFFFF AND DUP2 MSTORE PUSH1 0x20 ADD SWAP1 DUP2 MSTORE PUSH1 0x20 ADD PUSH1 0x0 KECCAK256 SLOAD SWAP1 POP SWAP3 SWAP2 POP POP JUMP JUMPDEST PUSH1 0x0 SELFBALANCE CALLVALUE GT ISZERO PUSH2 0x3FC JUMPI PUSH1 0x40 MLOAD PUSH32 0x8C379A000000000000000000000000000000000000000000000000000000000 DUP2 MSTORE PUSH1 0x4 ADD PUSH2 0x3F3 SWAP1 PUSH2 0x91A JUMP JUMPDEST PUSH1 0x40 MLOAD DUP1 SWAP2 SUB SWAP1 REVERT JUMPDEST DUP3 CALLVALUE EQ PUSH2 0x43E JUMPI PUSH1 0x40 MLOAD PUSH32 0x8C379A000000000000000000000000000000000000000000000000000000000 DUP2 MSTORE PUSH1 0x4 ADD PUSH2 0x435 SWAP1 PUSH2 0x986 JUMP JUMPDEST PUSH1 0x40 MLOAD DUP1 SWAP2 SUB SWAP1 REVERT JUMPDEST DUP2 PUSH1 0x3 PUSH1 0x0 CALLER PUSH20 0xFFFFFFFFFFFFFFFFFFFFFFFFFFFFFFFFFFFFFFFF AND PUSH20 0xFFFFFFFFFFFFFFFFFFFFFFFFFFFFFFFFFFFFFFFF AND DUP2 MSTORE PUSH1 0x20 ADD SWAP1 DUP2 MSTORE PUSH1 0x20 ADD PUSH1 0x0 KECCAK256 SLOAD EQ PUSH2 0x4BF JUMPI PUSH1 0x40 MLOAD PUSH32 0x8C379A000000000000000000000000000000000000000000000000000000000 DUP2 MSTORE PUSH1 0x4 ADD PUSH2 0x4B6 SWAP1 PUSH2 0x9F2 JUMP JUMPDEST PUSH1 0x40 MLOAD DUP1 SWAP2 SUB SWAP1 REVERT JUMPDEST DUP3 PUSH1 0x2 PUSH1 0x0 CALLER PUSH20 0xFFFFFFFFFFFFFFFFFFFFFFFFFFFFFFFFFFFFFFFF AND PUSH20 0xFFFFFFFFFFFFFFFFFFFFFFFFFFFFFFFFFFFFFFFF AND DUP2 MSTORE PUSH1 0x20 ADD SWAP1 DUP2 MSTORE PUSH1 0x20 ADD PUSH1 0x0 KECCAK256 PUSH1 0x0 DUP3 DUP3 SLOAD PUSH2 0x50E SWAP2 SWAP1 PUSH2 0xA12 JUMP JUMPDEST SWAP3 POP POP DUP2 SWAP1 SSTORE POP CALLER PUSH20 0xFFFFFFFFFFFFFFFFFFFFFFFFFFFFFFFFFFFFFFFF AND PUSH2 0x8FC SELFBALANCE SWAP1 DUP2 ISZERO MUL SWAP1 PUSH1 0x40 MLOAD PUSH1 0x0 PUSH1 0x40 MLOAD DUP1 DUP4 SUB DUP2 DUP6 DUP9 DUP9 CALL SWAP4 POP POP POP POP ISZERO DUP1 ISZERO PUSH2 0x55B JUMPI RETURNDATASIZE PUSH1 0x0 DUP1 RETURNDATACOPY RETURNDATASIZE PUSH1 0x0 REVERT JUMPDEST POP PUSH1 0x2 PUSH1 0x0 CALLER PUSH20 0xFFFFFFFFFFFFFFFFFFFFFFFFFFFFFFFFFFFFFFFF AND PUSH20 0xFFFFFFFFFFFFFFFFFFFFFFFFFFFFFFFFFFFFFFFF AND DUP2 MSTORE PUSH1 0x20 ADD SWAP1 DUP2 MSTORE PUSH1 0x20 ADD PUSH1 0x0 KECCAK256 SLOAD SWAP1 POP SWAP3 SWAP2 POP POP JUMP JUMPDEST PUSH1 0x0 DUP1 REVERT JUMPDEST PUSH1 0x0 DUP2 SWAP1 POP SWAP2 SWAP1 POP JUMP JUMPDEST PUSH2 0x5BC DUP2 PUSH2 0x5A9 JUMP JUMPDEST DUP2 EQ PUSH2 0x5C7 JUMPI PUSH1 0x0 DUP1 REVERT JUMPDEST POP JUMP JUMPDEST PUSH1 0x0 DUP2 CALLDATALOAD SWAP1 POP PUSH2 0x5D9 DUP2 PUSH2 0x5B3 JUMP JUMPDEST SWAP3 SWAP2 POP POP JUMP JUMPDEST PUSH1 0x0 PUSH1 0x20 DUP3 DUP5 SUB SLT ISZERO PUSH2 0x5F5 JUMPI PUSH2 0x5F4 PUSH2 0x5A4 JUMP JUMPDEST JUMPDEST PUSH1 0x0 PUSH2 0x603 DUP5 DUP3 DUP6 ADD PUSH2 0x5CA JUMP JUMPDEST SWAP2 POP POP SWAP3 SWAP2 POP POP JUMP JUMPDEST PUSH2 0x615 DUP2 PUSH2 0x5A9 JUMP JUMPDEST DUP3 MSTORE POP POP JUMP JUMPDEST PUSH1 0x0 PUSH1 0x20 DUP3 ADD SWAP1 POP PUSH2 0x630 PUSH1 0x0 DUP4 ADD DUP5 PUSH2 0x60C JUMP JUMPDEST SWAP3 SWAP2 POP POP JUMP JUMPDEST PUSH1 0x0 PUSH20 0xFFFFFFFFFFFFFFFFFFFFFFFFFFFFFFFFFFFFFFFF DUP3 AND SWAP1 POP SWAP2 SWAP1 POP JUMP JUMPDEST PUSH1 0x0 PUSH2 0x661 DUP3 PUSH2 0x636 JUMP JUMPDEST SWAP1 POP SWAP2 SWAP1 POP JUMP JUMPDEST PUSH2 0x671 DUP2 PUSH2 0x656 JUMP JUMPDEST DUP2 EQ PUSH2 0x67C JUMPI PUSH1 0x0 DUP1 REVERT JUMPDEST POP JUMP JUMPDEST PUSH1 0x0 DUP2 CALLDATALOAD SWAP1 POP PUSH2 0x68E DUP2 PUSH2 0x668 JUMP JUMPDEST SWAP3 SWAP2 POP POP JUMP JUMPDEST PUSH1 0x0 DUP1 PUSH1 0x40 DUP4 DUP6 SUB SLT ISZERO PUSH2 0x6AB JUMPI PUSH2 0x6AA PUSH2 0x5A4 JUMP JUMPDEST JUMPDEST PUSH1 0x0 PUSH2 0x6B9 DUP6 DUP3 DUP7 ADD PUSH2 0x67F JUMP JUMPDEST SWAP3 POP POP PUSH1 0x20 PUSH2 0x6CA DUP6 DUP3 DUP7 ADD PUSH2 0x5CA JUMP JUMPDEST SWAP2 POP POP SWAP3 POP SWAP3 SWAP1 POP JUMP JUMPDEST PUSH1 0x0 DUP1 PUSH1 0x40 DUP4 DUP6 SUB SLT ISZERO PUSH2 0x6EB JUMPI PUSH2 0x6EA PUSH2 0x5A4 JUMP JUMPDEST JUMPDEST PUSH1 0x0 PUSH2 0x6F9 DUP6 DUP3 DUP7 ADD PUSH2 0x5CA JUMP JUMPDEST SWAP3 POP POP PUSH1 0x20 PUSH2 0x70A DUP6 DUP3 DUP7 ADD PUSH2 0x5CA JUMP JUMPDEST SWAP2 POP POP SWAP3 POP SWAP3 SWAP1 POP JUMP JUMPDEST PUSH1 0x0 DUP3 DUP3 MSTORE PUSH1 0x20 DUP3 ADD SWAP1 POP SWAP3 SWAP2 POP POP JUMP JUMPDEST PUSH32 0x5468657265206D7573742061206D696E696D756D2062616C616E6365206F6620 PUSH1 0x0 DUP3 ADD MSTORE PUSH32 0x302E303030303120657468657200000000000000000000000000000000000000 PUSH1 0x20 DUP3 ADD MSTORE POP JUMP JUMPDEST PUSH1 0x0 PUSH2 0x781 PUSH1 0x2D DUP4 PUSH2 0x714 JUMP JUMPDEST SWAP2 POP PUSH2 0x78C DUP3 PUSH2 0x725 JUMP JUMPDEST PUSH1 0x40 DUP3 ADD SWAP1 POP SWAP2 SWAP1 POP JUMP JUMPDEST PUSH1 0x0 PUSH1 0x20 DUP3 ADD SWAP1 POP DUP2 DUP2 SUB PUSH1 0x0 DUP4 ADD MSTORE PUSH2 0x7B0 DUP2 PUSH2 0x774 JUMP JUMPDEST SWAP1 POP SWAP2 SWAP1 POP JUMP JUMPDEST PUSH32 0x4E487B7100000000000000000000000000000000000000000000000000000000 PUSH1 0x0 MSTORE PUSH1 0x11 PUSH1 0x4 MSTORE PUSH1 0x24 PUSH1 0x0 REVERT JUMPDEST PUSH1 0x0 PUSH2 0x7F1 DUP3 PUSH2 0x5A9 JUMP JUMPDEST SWAP2 POP PUSH2 0x7FC DUP4 PUSH2 0x5A9 JUMP JUMPDEST SWAP3 POP DUP3 PUSH32 0xFFFFFFFFFFFFFFFFFFFFFFFFFFFFFFFFFFFFFFFFFFFFFFFFFFFFFFFFFFFFFFFF SUB DUP3 GT ISZERO PUSH2 0x831 JUMPI PUSH2 0x830 PUSH2 0x7B7 JUMP JUMPDEST JUMPDEST DUP3 DUP3 ADD SWAP1 POP SWAP3 SWAP2 POP POP JUMP JUMPDEST PUSH32 0x4F776E6572206F662062616E6B206469646E27742063616C6C20746865206675 PUSH1 0x0 DUP3 ADD MSTORE PUSH32 0x6E6374696F6E0000000000000000000000000000000000000000000000000000 PUSH1 0x20 DUP3 ADD MSTORE POP JUMP JUMPDEST PUSH1 0x0 PUSH2 0x898 PUSH1 0x26 DUP4 PUSH2 0x714 JUMP JUMPDEST SWAP2 POP PUSH2 0x8A3 DUP3 PUSH2 0x83C JUMP JUMPDEST PUSH1 0x40 DUP3 ADD SWAP1 POP SWAP2 SWAP1 POP JUMP JUMPDEST PUSH1 0x0 PUSH1 0x20 DUP3 ADD SWAP1 POP DUP2 DUP2 SUB PUSH1 0x0 DUP4 ADD MSTORE PUSH2 0x8C7 DUP2 PUSH2 0x88B JUMP JUMPDEST SWAP1 POP SWAP2 SWAP1 POP JUMP JUMPDEST PUSH32 0x576974682064726177616C2076616C7565206E6F7420636F7272656374000000 PUSH1 0x0 DUP3 ADD MSTORE POP JUMP JUMPDEST PUSH1 0x0 PUSH2 0x904 PUSH1 0x1D DUP4 PUSH2 0x714 JUMP JUMPDEST SWAP2 POP PUSH2 0x90F DUP3 PUSH2 0x8CE JUMP JUMPDEST PUSH1 0x20 DUP3 ADD SWAP1 POP SWAP2 SWAP1 POP JUMP JUMPDEST PUSH1 0x0 PUSH1 0x20 DUP3 ADD SWAP1 POP DUP2 DUP2 SUB PUSH1 0x0 DUP4 ADD MSTORE PUSH2 0x933 DUP2 PUSH2 0x8F7 JUMP JUMPDEST SWAP1 POP SWAP2 SWAP1 POP JUMP JUMPDEST PUSH32 0x20417267756D656E7473206E6F7420636F727265637400000000000000000000 PUSH1 0x0 DUP3 ADD MSTORE POP JUMP JUMPDEST PUSH1 0x0 PUSH2 0x970 PUSH1 0x16 DUP4 PUSH2 0x714 JUMP JUMPDEST SWAP2 POP PUSH2 0x97B DUP3 PUSH2 0x93A JUMP JUMPDEST PUSH1 0x20 DUP3 ADD SWAP1 POP SWAP2 SWAP1 POP JUMP JUMPDEST PUSH1 0x0 PUSH1 0x20 DUP3 ADD SWAP1 POP DUP2 DUP2 SUB PUSH1 0x0 DUP4 ADD MSTORE PUSH2 0x99F DUP2 PUSH2 0x963 JUMP JUMPDEST SWAP1 POP SWAP2 SWAP1 POP JUMP JUMPDEST PUSH32 0x536563726574206B6579206469646E2774206D61746368656400000000000000 PUSH1 0x0 DUP3 ADD MSTORE POP JUMP JUMPDEST PUSH1 0x0 PUSH2 0x9DC PUSH1 0x19 DUP4 PUSH2 0x714 JUMP JUMPDEST SWAP2 POP PUSH2 0x9E7 DUP3 PUSH2 0x9A6 JUMP JUMPDEST PUSH1 0x20 DUP3 ADD SWAP1 POP SWAP2 SWAP1 POP JUMP JUMPDEST PUSH1 0x0 PUSH1 0x20 DUP3 ADD SWAP1 POP DUP2 DUP2 SUB PUSH1 0x0 DUP4 ADD MSTORE PUSH2 0xA0B DUP2 PUSH2 0x9CF JUMP JUMPDEST SWAP1 POP SWAP2 SWAP1 POP JUMP JUMPDEST PUSH1 0x0 PUSH2 0xA1D DUP3 PUSH2 0x5A9 JUMP JUMPDEST SWAP2 POP PUSH2 0xA28 DUP4 PUSH2 0x5A9 JUMP JUMPDEST SWAP3 POP DUP3 DUP3 LT ISZERO PUSH2 0xA3B JUMPI PUSH2 0xA3A PUSH2 0x7B7 JUMP JUMPDEST JUMPDEST DUP3 DUP3 SUB SWAP1 POP SWAP3 SWAP2 POP POP JUMP INVALID LOG2 PUSH5 0x6970667358 0x22 SLT KECCAK256 0xDD 0xDA 0xC 0xE6 0xF8 0xAD 0xB8 0xCC SWAP12 0x4B DUP6 0xDB JUMPDEST 0x5D SWAP2 0x26 CREATE LOG3 0xF ISZERO SAR 0xEC DUP1 0xCC MOD POP SGT KECCAK256 0xB2 0xE3 AND 0xFB PUSH5 0x736F6C6343 STOP ADDMOD MULMOD STOP CALLER "
				},
				"gasEstimates": {
					"creation": {
						"codeDepositCost": "536800",
						"executionCost": "46940",
						"totalCost": "583740"
					},
					"external": {
						"deposit(address,uint256)": "infinite",
						"getTotalBankBalance()": "2624",
						"openAccount(uint256)": "infinite",
						"withDraw(uint256,uint256)": "infinite"
					}
				},
				"methodIdentifiers": {
					"deposit(address,uint256)": "47e7ef24",
					"getTotalBankBalance()": "38a2ca40",
					"openAccount(uint256)": "1000420d",
					"withDraw(uint256,uint256)": "d8b6e79a"
				}
			},
			"storageLayout": {
				"storage": [
					{
						"astId": 4,
						"contract": "ActualBank.sol:ActualBank",
						"label": "minAccountBalance",
						"offset": 0,
						"slot": "0",
						"type": "t_uint256"
					},
					{
						"astId": 6,
						"contract": "ActualBank.sol:ActualBank",
						"label": "owner",
						"offset": 0,
						"slot": "1",
						"type": "t_address_payable"
					},
					{
						"astId": 10,
						"contract": "ActualBank.sol:ActualBank",
						"label": "balance",
						"offset": 0,
						"slot": "2",
						"type": "t_mapping(t_address,t_uint256)"
					},
					{
						"astId": 14,
						"contract": "ActualBank.sol:ActualBank",
						"label": "secretKey",
						"offset": 0,
						"slot": "3",
						"type": "t_mapping(t_address,t_uint256)"
					}
				],
				"types": {
					"t_address": {
						"encoding": "inplace",
						"label": "address",
						"numberOfBytes": "20"
					},
					"t_address_payable": {
						"encoding": "inplace",
						"label": "address payable",
						"numberOfBytes": "20"
					},
					"t_mapping(t_address,t_uint256)": {
						"encoding": "mapping",
						"key": "t_address",
						"label": "mapping(address => uint256)",
						"numberOfBytes": "32",
						"value": "t_uint256"
					},
					"t_uint256": {
						"encoding": "inplace",
						"label": "uint256",
						"numberOfBytes": "32"
					}
				}
			},
			"userdoc": {
				"kind": "user",
				"methods": {},
				"version": 1
			}
		}
	}
}