{
	"start.sol": {
		"Counter": {
			"abi": [
				{
					"constant": false,
					"inputs": [],
					"name": "decrementCount",
					"outputs": [],
					"payable": false,
					"stateMutability": "nonpayable",
					"type": "function"
				},
				{
					"constant": false,
					"inputs": [],
					"name": "incrementCount",
					"outputs": [],
					"payable": false,
					"stateMutability": "nonpayable",
					"type": "function"
				},
				{
					"anonymous": false,
					"inputs": [
						{
							"indexed": false,
							"name": "value",
							"type": "uint256"
						}
					],
					"name": "increment",
					"type": "event"
				},
				{
					"anonymous": false,
					"inputs": [
						{
							"indexed": false,
							"name": "value",
							"type": "uint256"
						}
					],
					"name": "decrement",
					"type": "event"
				}
			],
			"devdoc": {
				"methods": {}
			},
			"evm": {
				"assembly": "    /* \"start.sol\":26:320  contract Counter {... */\n  mstore(0x40, 0x80)\n    /* \"start.sol\":60:61  0 */\n  0x0\n    /* \"start.sol\":49:61  uint count=0 */\n  dup1\n  sstore\n    /* \"start.sol\":26:320  contract Counter {... */\n  callvalue\n    /* \"--CODEGEN--\":8:17   */\n  dup1\n    /* \"--CODEGEN--\":5:7   */\n  iszero\n  tag_1\n  jumpi\n    /* \"--CODEGEN--\":30:31   */\n  0x0\n    /* \"--CODEGEN--\":27:28   */\n  dup1\n    /* \"--CODEGEN--\":20:32   */\n  revert\n    /* \"--CODEGEN--\":5:7   */\ntag_1:\n    /* \"start.sol\":26:320  contract Counter {... */\n  pop\n  dataSize(sub_0)\n  dup1\n  dataOffset(sub_0)\n  0x0\n  codecopy\n  0x0\n  return\nstop\n\nsub_0: assembly {\n        /* \"start.sol\":26:320  contract Counter {... */\n      mstore(0x40, 0x80)\n      jumpi(tag_1, lt(calldatasize, 0x4))\n      calldataload(0x0)\n      0x100000000000000000000000000000000000000000000000000000000\n      swap1\n      div\n      dup1\n      0xb7f90f12\n      eq\n      tag_2\n      jumpi\n      dup1\n      0xe5071b8e\n      eq\n      tag_3\n      jumpi\n    tag_1:\n      0x0\n      dup1\n      revert\n        /* \"start.sol\":229:318  function decrementCount() public {... */\n    tag_2:\n      callvalue\n        /* \"--CODEGEN--\":8:17   */\n      dup1\n        /* \"--CODEGEN--\":5:7   */\n      iszero\n      tag_4\n      jumpi\n        /* \"--CODEGEN--\":30:31   */\n      0x0\n        /* \"--CODEGEN--\":27:28   */\n      dup1\n        /* \"--CODEGEN--\":20:32   */\n      revert\n        /* \"--CODEGEN--\":5:7   */\n    tag_4:\n        /* \"start.sol\":229:318  function decrementCount() public {... */\n      pop\n      tag_5\n      tag_6\n      jump\t// in\n    tag_5:\n      stop\n        /* \"start.sol\":135:223  function incrementCount() public{... */\n    tag_3:\n      callvalue\n        /* \"--CODEGEN--\":8:17   */\n      dup1\n        /* \"--CODEGEN--\":5:7   */\n      iszero\n      tag_7\n      jumpi\n        /* \"--CODEGEN--\":30:31   */\n      0x0\n        /* \"--CODEGEN--\":27:28   */\n      dup1\n        /* \"--CODEGEN--\":20:32   */\n      revert\n        /* \"--CODEGEN--\":5:7   */\n    tag_7:\n        /* \"start.sol\":135:223  function incrementCount() public{... */\n      pop\n      tag_8\n      tag_9\n      jump\t// in\n    tag_8:\n      stop\n        /* \"start.sol\":229:318  function decrementCount() public {... */\n    tag_6:\n        /* \"start.sol\":279:280  1 */\n      0x1\n        /* \"start.sol\":272:277  count */\n      0x0\n      dup1\n        /* \"start.sol\":272:280  count-=1 */\n      dup3\n      dup3\n      sload\n      sub\n      swap3\n      pop\n      pop\n      dup2\n      swap1\n      sstore\n      pop\n        /* \"start.sol\":295:311  decrement(count) */\n      0x3a9ebefd0e9022a1fc7dca5027a8f0f5e8a71d2c1418950e434a825c353d0677\n        /* \"start.sol\":305:310  count */\n      sload(0x0)\n        /* \"start.sol\":295:311  decrement(count) */\n      mload(0x40)\n      dup1\n      dup3\n      dup2\n      mstore\n      0x20\n      add\n      swap2\n      pop\n      pop\n      mload(0x40)\n      dup1\n      swap2\n      sub\n      swap1\n      log1\n        /* \"start.sol\":229:318  function decrementCount() public {... */\n      jump\t// out\n        /* \"start.sol\":135:223  function incrementCount() public{... */\n    tag_9:\n        /* \"start.sol\":184:185  1 */\n      0x1\n        /* \"start.sol\":177:182  count */\n      0x0\n      dup1\n        /* \"start.sol\":177:185  count+=1 */\n      dup3\n      dup3\n      sload\n      add\n      swap3\n      pop\n      pop\n      dup2\n      swap1\n      sstore\n      pop\n        /* \"start.sol\":200:216  increment(count) */\n      0x7cf5dab01c7361384076429cdaa96970954ab0e6f0891e1226eb38be7a6b7918\n        /* \"start.sol\":210:215  count */\n      sload(0x0)\n        /* \"start.sol\":200:216  increment(count) */\n      mload(0x40)\n      dup1\n      dup3\n      dup2\n      mstore\n      0x20\n      add\n      swap2\n      pop\n      pop\n      mload(0x40)\n      dup1\n      swap2\n      sub\n      swap1\n      log1\n        /* \"start.sol\":135:223  function incrementCount() public{... */\n      jump\t// out\n\n    auxdata: 0xa165627a7a72305820d02ebf5cc6b28d777648938ed591b1651c2680bb19c6490db28bb2b13a52d6db0029\n}\n",
				"bytecode": {
					"linkReferences": {},
					"object": "60806040526000805534801561001457600080fd5b5061013b806100246000396000f3fe608060405260043610610046576000357c010000000000000000000000000000000000000000000000000000000090048063b7f90f121461004b578063e5071b8e14610062575b600080fd5b34801561005757600080fd5b50610060610079565b005b34801561006e57600080fd5b506100776100c4565b005b600160008082825403925050819055507f3a9ebefd0e9022a1fc7dca5027a8f0f5e8a71d2c1418950e434a825c353d06776000546040518082815260200191505060405180910390a1565b600160008082825401925050819055507f7cf5dab01c7361384076429cdaa96970954ab0e6f0891e1226eb38be7a6b79186000546040518082815260200191505060405180910390a156fea165627a7a72305820d02ebf5cc6b28d777648938ed591b1651c2680bb19c6490db28bb2b13a52d6db0029",
					"opcodes": "PUSH1 0x80 PUSH1 0x40 MSTORE PUSH1 0x0 DUP1 SSTORE CALLVALUE DUP1 ISZERO PUSH2 0x14 JUMPI PUSH1 0x0 DUP1 REVERT JUMPDEST POP PUSH2 0x13B DUP1 PUSH2 0x24 PUSH1 0x0 CODECOPY PUSH1 0x0 RETURN INVALID PUSH1 0x80 PUSH1 0x40 MSTORE PUSH1 0x4 CALLDATASIZE LT PUSH2 0x46 JUMPI PUSH1 0x0 CALLDATALOAD PUSH29 0x100000000000000000000000000000000000000000000000000000000 SWAP1 DIV DUP1 PUSH4 0xB7F90F12 EQ PUSH2 0x4B JUMPI DUP1 PUSH4 0xE5071B8E EQ PUSH2 0x62 JUMPI JUMPDEST PUSH1 0x0 DUP1 REVERT JUMPDEST CALLVALUE DUP1 ISZERO PUSH2 0x57 JUMPI PUSH1 0x0 DUP1 REVERT JUMPDEST POP PUSH2 0x60 PUSH2 0x79 JUMP JUMPDEST STOP JUMPDEST CALLVALUE DUP1 ISZERO PUSH2 0x6E JUMPI PUSH1 0x0 DUP1 REVERT JUMPDEST POP PUSH2 0x77 PUSH2 0xC4 JUMP JUMPDEST STOP JUMPDEST PUSH1 0x1 PUSH1 0x0 DUP1 DUP3 DUP3 SLOAD SUB SWAP3 POP POP DUP2 SWAP1 SSTORE POP PUSH32 0x3A9EBEFD0E9022A1FC7DCA5027A8F0F5E8A71D2C1418950E434A825C353D0677 PUSH1 0x0 SLOAD PUSH1 0x40 MLOAD DUP1 DUP3 DUP2 MSTORE PUSH1 0x20 ADD SWAP2 POP POP PUSH1 0x40 MLOAD DUP1 SWAP2 SUB SWAP1 LOG1 JUMP JUMPDEST PUSH1 0x1 PUSH1 0x0 DUP1 DUP3 DUP3 SLOAD ADD SWAP3 POP POP DUP2 SWAP1 SSTORE POP PUSH32 0x7CF5DAB01C7361384076429CDAA96970954AB0E6F0891E1226EB38BE7A6B7918 PUSH1 0x0 SLOAD PUSH1 0x40 MLOAD DUP1 DUP3 DUP2 MSTORE PUSH1 0x20 ADD SWAP2 POP POP PUSH1 0x40 MLOAD DUP1 SWAP2 SUB SWAP1 LOG1 JUMP INVALID LOG1 PUSH6 0x627A7A723058 KECCAK256 0xd0 0x2e 0xbf 0x5c 0xc6 0xb2 DUP14 PUSH24 0x7648938ED591B1651C2680BB19C6490DB28BB2B13A52D6DB STOP 0x29 "
				},
				"gasEstimates": {
					"creation": {
						"codeDepositCost": "63000",
						"executionCost": "5117",
						"totalCost": "68117"
					},
					"external": {
						"decrementCount()": "21627",
						"incrementCount()": "21649"
					}
				},
				"methodIdentifiers": {
					"decrementCount()": "b7f90f12",
					"incrementCount()": "e5071b8e"
				}
			},
			"userdoc": {
				"methods": {}
			}
		}
	}
}