{
	"SaleAggrement.sol": {
		"SaleAggrement": {
			"abi": [
				{
					"inputs": [],
					"stateMutability": "payable",
					"type": "constructor"
				},
				{
					"anonymous": false,
					"inputs": [],
					"name": "Aborted",
					"type": "event"
				},
				{
					"anonymous": false,
					"inputs": [],
					"name": "ItemReceived",
					"type": "event"
				},
				{
					"anonymous": false,
					"inputs": [],
					"name": "confirmedPurchase",
					"type": "event"
				},
				{
					"inputs": [],
					"name": "abort",
					"outputs": [],
					"stateMutability": "nonpayable",
					"type": "function"
				},
				{
					"inputs": [],
					"name": "buyer",
					"outputs": [
						{
							"internalType": "address payable",
							"name": "",
							"type": "address"
						}
					],
					"stateMutability": "view",
					"type": "function"
				},
				{
					"inputs": [],
					"name": "confirmPurchase",
					"outputs": [],
					"stateMutability": "nonpayable",
					"type": "function"
				},
				{
					"inputs": [],
					"name": "seller",
					"outputs": [
						{
							"internalType": "address payable",
							"name": "",
							"type": "address"
						}
					],
					"stateMutability": "view",
					"type": "function"
				},
				{
					"inputs": [],
					"name": "state",
					"outputs": [
						{
							"internalType": "enum SaleAggrement.State",
							"name": "",
							"type": "uint8"
						}
					],
					"stateMutability": "view",
					"type": "function"
				}
			],
			"devdoc": {
				"kind": "dev",
				"methods": {},
				"version": 1
			},
			"evm": {
				"assembly": "    /* \"SaleAggrement.sol\":58:1076  contract SaleAggrement{... */\n  mstore(0x40, 0x80)\n    /* \"SaleAggrement.sol\":287:297  msg.sender */\n  caller\n    /* \"SaleAggrement.sol\":272:278  seller */\n  0x02\n  0x00\n    /* \"SaleAggrement.sol\":272:298  seller=payable(msg.sender) */\n  0x0100\n  exp\n  dup2\n  sload\n  dup2\n  0xffffffffffffffffffffffffffffffffffffffff\n  mul\n  not\n  and\n  swap1\n  dup4\n  0xffffffffffffffffffffffffffffffffffffffff\n  and\n  mul\n  or\n  swap1\n  sstore\n  pop\n    /* \"SaleAggrement.sol\":314:323  msg.value */\n  callvalue\n    /* \"SaleAggrement.sol\":308:313  value */\n  0x00\n    /* \"SaleAggrement.sol\":308:323  value=msg.value */\n  dup2\n  swap1\n  sstore\n  pop\n    /* \"SaleAggrement.sol\":339:352  State.created */\n  0x00\n    /* \"SaleAggrement.sol\":333:338  state */\n  0x02\n  0x14\n    /* \"SaleAggrement.sol\":333:352  state=State.created */\n  0x0100\n  exp\n  dup2\n  sload\n  dup2\n  0xff\n  mul\n  not\n  and\n  swap1\n  dup4\n  0x02\n  dup2\n  gt\n  iszero\n  tag_3\n  jumpi\n  tag_4\n  tag_5\n  jump\t// in\ntag_4:\ntag_3:\n  mul\n  or\n  swap1\n  sstore\n  pop\n    /* \"SaleAggrement.sol\":58:1076  contract SaleAggrement{... */\n  jump(tag_6)\n    /* \"#utility.yul\":7:187   */\ntag_5:\n    /* \"#utility.yul\":55:132   */\n  0x4e487b7100000000000000000000000000000000000000000000000000000000\n    /* \"#utility.yul\":52:53   */\n  0x00\n    /* \"#utility.yul\":45:133   */\n  mstore\n    /* \"#utility.yul\":152:156   */\n  0x21\n    /* \"#utility.yul\":149:150   */\n  0x04\n    /* \"#utility.yul\":142:157   */\n  mstore\n    /* \"#utility.yul\":176:180   */\n  0x24\n    /* \"#utility.yul\":173:174   */\n  0x00\n    /* \"#utility.yul\":166:181   */\n  revert\n    /* \"SaleAggrement.sol\":58:1076  contract SaleAggrement{... */\ntag_6:\n  dataSize(sub_0)\n  dup1\n  dataOffset(sub_0)\n  0x00\n  codecopy\n  0x00\n  return\nstop\n\nsub_0: assembly {\n        /* \"SaleAggrement.sol\":58:1076  contract SaleAggrement{... */\n      mstore(0x40, 0x80)\n      callvalue\n      dup1\n      iszero\n      tag_1\n      jumpi\n      0x00\n      dup1\n      revert\n    tag_1:\n      pop\n      jumpi(tag_2, lt(calldatasize, 0x04))\n      shr(0xe0, calldataload(0x00))\n      dup1\n      0x08551a53\n      eq\n      tag_3\n      jumpi\n      dup1\n      0x35a063b4\n      eq\n      tag_4\n      jumpi\n      dup1\n      0x7150d8ae\n      eq\n      tag_5\n      jumpi\n      dup1\n      0xc19d93fb\n      eq\n      tag_6\n      jumpi\n      dup1\n      0xd6960697\n      eq\n      tag_7\n      jumpi\n    tag_2:\n      0x00\n      dup1\n      revert\n        /* \"SaleAggrement.sol\":136:165  address payable public seller */\n    tag_3:\n      tag_8\n      tag_9\n      jump\t// in\n    tag_8:\n      mload(0x40)\n      tag_10\n      swap2\n      swap1\n      tag_11\n      jump\t// in\n    tag_10:\n      mload(0x40)\n      dup1\n      swap2\n      sub\n      swap1\n      return\n        /* \"SaleAggrement.sol\":784:954  function abort() onlySeller checkState(State.created) public {... */\n    tag_4:\n      tag_12\n      tag_13\n      jump\t// in\n    tag_12:\n      stop\n        /* \"SaleAggrement.sol\":102:130  address payable public buyer */\n    tag_5:\n      tag_14\n      tag_15\n      jump\t// in\n    tag_14:\n      mload(0x40)\n      tag_16\n      swap2\n      swap1\n      tag_11\n      jump\t// in\n    tag_16:\n      mload(0x40)\n      dup1\n      swap2\n      sub\n      swap1\n      return\n        /* \"SaleAggrement.sol\":215:233  State public state */\n    tag_6:\n      tag_17\n      tag_18\n      jump\t// in\n    tag_17:\n      mload(0x40)\n      tag_19\n      swap2\n      swap1\n      tag_20\n      jump\t// in\n    tag_19:\n      mload(0x40)\n      dup1\n      swap2\n      sub\n      swap1\n      return\n        /* \"SaleAggrement.sol\":961:1072  function confirmPurchase() onlyBuyer checkState(State.created) public {... */\n    tag_7:\n      tag_21\n      tag_22\n      jump\t// in\n    tag_21:\n      stop\n        /* \"SaleAggrement.sol\":136:165  address payable public seller */\n    tag_9:\n      0x02\n      0x00\n      swap1\n      sload\n      swap1\n      0x0100\n      exp\n      swap1\n      div\n      0xffffffffffffffffffffffffffffffffffffffff\n      and\n      dup2\n      jump\t// out\n        /* \"SaleAggrement.sol\":784:954  function abort() onlySeller checkState(State.created) public {... */\n    tag_13:\n        /* \"SaleAggrement.sol\":533:539  seller */\n      0x02\n      0x00\n      swap1\n      sload\n      swap1\n      0x0100\n      exp\n      swap1\n      div\n      0xffffffffffffffffffffffffffffffffffffffff\n      and\n        /* \"SaleAggrement.sol\":519:539  msg.sender == seller */\n      0xffffffffffffffffffffffffffffffffffffffff\n      and\n        /* \"SaleAggrement.sol\":519:529  msg.sender */\n      caller\n        /* \"SaleAggrement.sol\":519:539  msg.sender == seller */\n      0xffffffffffffffffffffffffffffffffffffffff\n      and\n      eq\n        /* \"SaleAggrement.sol\":511:575  require(msg.sender == seller, \"Only buyer can call this method\") */\n      tag_24\n      jumpi\n      mload(0x40)\n      0x08c379a000000000000000000000000000000000000000000000000000000000\n      dup2\n      mstore\n      0x04\n      add\n      tag_25\n      swap1\n      tag_26\n      jump\t// in\n    tag_25:\n      mload(0x40)\n      dup1\n      swap2\n      sub\n      swap1\n      revert\n    tag_24:\n        /* \"SaleAggrement.sol\":823:836  State.created */\n      0x00\n        /* \"SaleAggrement.sol\":659:664  state */\n      0x02\n      0x14\n      swap1\n      sload\n      swap1\n      0x0100\n      exp\n      swap1\n      div\n      0xff\n      and\n        /* \"SaleAggrement.sol\":649:664  _state == state */\n      0x02\n      dup2\n      gt\n      iszero\n      tag_28\n      jumpi\n      tag_29\n      tag_30\n      jump\t// in\n    tag_29:\n    tag_28:\n        /* \"SaleAggrement.sol\":649:655  _state */\n      dup2\n        /* \"SaleAggrement.sol\":649:664  _state == state */\n      0x02\n      dup2\n      gt\n      iszero\n      tag_31\n      jumpi\n      tag_32\n      tag_30\n      jump\t// in\n    tag_32:\n    tag_31:\n      eq\n        /* \"SaleAggrement.sol\":641:682  require(_state == state, \"Invalid state\") */\n      tag_33\n      jumpi\n      mload(0x40)\n      0x08c379a000000000000000000000000000000000000000000000000000000000\n      dup2\n      mstore\n      0x04\n      add\n      tag_34\n      swap1\n      tag_35\n      jump\t// in\n    tag_34:\n      mload(0x40)\n      dup1\n      swap2\n      sub\n      swap1\n      revert\n    tag_33:\n        /* \"SaleAggrement.sol\":860:869  Aborted() */\n      0x72c874aeff0b183a56e2b79c71b46e1aed4dee5e09862134b8821ba2fddbf8bf\n      mload(0x40)\n      mload(0x40)\n      dup1\n      swap2\n      sub\n      swap1\n      log1\n        /* \"SaleAggrement.sol\":885:899  State.Inactive */\n      0x02\n        /* \"SaleAggrement.sol\":879:884  state */\n      dup1\n      0x14\n        /* \"SaleAggrement.sol\":879:899  state=State.Inactive */\n      0x0100\n      exp\n      dup2\n      sload\n      dup2\n      0xff\n      mul\n      not\n      and\n      swap1\n      dup4\n      0x02\n      dup2\n      gt\n      iszero\n      tag_37\n      jumpi\n      tag_38\n      tag_30\n      jump\t// in\n    tag_38:\n    tag_37:\n      mul\n      or\n      swap1\n      sstore\n      pop\n        /* \"SaleAggrement.sol\":909:915  seller */\n      0x02\n      0x00\n      swap1\n      sload\n      swap1\n      0x0100\n      exp\n      swap1\n      div\n      0xffffffffffffffffffffffffffffffffffffffff\n      and\n        /* \"SaleAggrement.sol\":909:924  seller.transfer */\n      0xffffffffffffffffffffffffffffffffffffffff\n      and\n        /* \"SaleAggrement.sol\":909:947  seller.transfer(address(this).balance) */\n      0x08fc\n        /* \"SaleAggrement.sol\":925:946  address(this).balance */\n      selfbalance\n        /* \"SaleAggrement.sol\":909:947  seller.transfer(address(this).balance) */\n      swap1\n      dup2\n      iszero\n      mul\n      swap1\n      mload(0x40)\n      0x00\n      mload(0x40)\n      dup1\n      dup4\n      sub\n      dup2\n      dup6\n      dup9\n      dup9\n      call\n      swap4\n      pop\n      pop\n      pop\n      pop\n      iszero\n      dup1\n      iszero\n      tag_40\n      jumpi\n      returndatasize\n      0x00\n      dup1\n      returndatacopy\n      revert(0x00, returndatasize)\n    tag_40:\n      pop\n        /* \"SaleAggrement.sol\":585:586  _ */\n      pop\n        /* \"SaleAggrement.sol\":784:954  function abort() onlySeller checkState(State.created) public {... */\n      jump\t// out\n        /* \"SaleAggrement.sol\":102:130  address payable public buyer */\n    tag_15:\n      0x01\n      0x00\n      swap1\n      sload\n      swap1\n      0x0100\n      exp\n      swap1\n      div\n      0xffffffffffffffffffffffffffffffffffffffff\n      and\n      dup2\n      jump\t// out\n        /* \"SaleAggrement.sol\":215:233  State public state */\n    tag_18:\n      0x02\n      0x14\n      swap1\n      sload\n      swap1\n      0x0100\n      exp\n      swap1\n      div\n      0xff\n      and\n      dup2\n      jump\t// out\n        /* \"SaleAggrement.sol\":961:1072  function confirmPurchase() onlyBuyer checkState(State.created) public {... */\n    tag_22:\n        /* \"SaleAggrement.sol\":416:421  buyer */\n      0x01\n      0x00\n      swap1\n      sload\n      swap1\n      0x0100\n      exp\n      swap1\n      div\n      0xffffffffffffffffffffffffffffffffffffffff\n      and\n        /* \"SaleAggrement.sol\":402:421  msg.sender == buyer */\n      0xffffffffffffffffffffffffffffffffffffffff\n      and\n        /* \"SaleAggrement.sol\":402:412  msg.sender */\n      caller\n        /* \"SaleAggrement.sol\":402:421  msg.sender == buyer */\n      0xffffffffffffffffffffffffffffffffffffffff\n      and\n      eq\n        /* \"SaleAggrement.sol\":394:457  require(msg.sender == buyer, \"Only buyer can call this method\") */\n      tag_42\n      jumpi\n      mload(0x40)\n      0x08c379a000000000000000000000000000000000000000000000000000000000\n      dup2\n      mstore\n      0x04\n      add\n      tag_43\n      swap1\n      tag_26\n      jump\t// in\n    tag_43:\n      mload(0x40)\n      dup1\n      swap2\n      sub\n      swap1\n      revert\n    tag_42:\n        /* \"SaleAggrement.sol\":1009:1022  State.created */\n      0x00\n        /* \"SaleAggrement.sol\":659:664  state */\n      0x02\n      0x14\n      swap1\n      sload\n      swap1\n      0x0100\n      exp\n      swap1\n      div\n      0xff\n      and\n        /* \"SaleAggrement.sol\":649:664  _state == state */\n      0x02\n      dup2\n      gt\n      iszero\n      tag_45\n      jumpi\n      tag_46\n      tag_30\n      jump\t// in\n    tag_46:\n    tag_45:\n        /* \"SaleAggrement.sol\":649:655  _state */\n      dup2\n        /* \"SaleAggrement.sol\":649:664  _state == state */\n      0x02\n      dup2\n      gt\n      iszero\n      tag_47\n      jumpi\n      tag_48\n      tag_30\n      jump\t// in\n    tag_48:\n    tag_47:\n      eq\n        /* \"SaleAggrement.sol\":641:682  require(_state == state, \"Invalid state\") */\n      tag_49\n      jumpi\n      mload(0x40)\n      0x08c379a000000000000000000000000000000000000000000000000000000000\n      dup2\n      mstore\n      0x04\n      add\n      tag_50\n      swap1\n      tag_35\n      jump\t// in\n    tag_50:\n      mload(0x40)\n      dup1\n      swap2\n      sub\n      swap1\n      revert\n    tag_49:\n        /* \"SaleAggrement.sol\":1046:1065  confirmedPurchase() */\n      0xb196fb0cc9eee2ffedd9ebc54b6928e8870c6221906d065411c0843e2934bd21\n      mload(0x40)\n      mload(0x40)\n      dup1\n      swap2\n      sub\n      swap1\n      log1\n        /* \"SaleAggrement.sol\":467:468  _ */\n      pop\n        /* \"SaleAggrement.sol\":961:1072  function confirmPurchase() onlyBuyer checkState(State.created) public {... */\n      jump\t// out\n        /* \"#utility.yul\":7:133   */\n    tag_52:\n        /* \"#utility.yul\":44:51   */\n      0x00\n        /* \"#utility.yul\":84:126   */\n      0xffffffffffffffffffffffffffffffffffffffff\n        /* \"#utility.yul\":77:82   */\n      dup3\n        /* \"#utility.yul\":73:127   */\n      and\n        /* \"#utility.yul\":62:127   */\n      swap1\n      pop\n        /* \"#utility.yul\":7:133   */\n      swap2\n      swap1\n      pop\n      jump\t// out\n        /* \"#utility.yul\":139:243   */\n    tag_53:\n        /* \"#utility.yul\":184:191   */\n      0x00\n        /* \"#utility.yul\":213:237   */\n      tag_67\n        /* \"#utility.yul\":231:236   */\n      dup3\n        /* \"#utility.yul\":213:237   */\n      tag_52\n      jump\t// in\n    tag_67:\n        /* \"#utility.yul\":202:237   */\n      swap1\n      pop\n        /* \"#utility.yul\":139:243   */\n      swap2\n      swap1\n      pop\n      jump\t// out\n        /* \"#utility.yul\":249:391   */\n    tag_54:\n        /* \"#utility.yul\":352:384   */\n      tag_69\n        /* \"#utility.yul\":378:383   */\n      dup2\n        /* \"#utility.yul\":352:384   */\n      tag_53\n      jump\t// in\n    tag_69:\n        /* \"#utility.yul\":347:350   */\n      dup3\n        /* \"#utility.yul\":340:385   */\n      mstore\n        /* \"#utility.yul\":249:391   */\n      pop\n      pop\n      jump\t// out\n        /* \"#utility.yul\":397:651   */\n    tag_11:\n        /* \"#utility.yul\":506:510   */\n      0x00\n        /* \"#utility.yul\":544:546   */\n      0x20\n        /* \"#utility.yul\":533:542   */\n      dup3\n        /* \"#utility.yul\":529:547   */\n      add\n        /* \"#utility.yul\":521:547   */\n      swap1\n      pop\n        /* \"#utility.yul\":557:644   */\n      tag_71\n        /* \"#utility.yul\":641:642   */\n      0x00\n        /* \"#utility.yul\":630:639   */\n      dup4\n        /* \"#utility.yul\":626:643   */\n      add\n        /* \"#utility.yul\":617:623   */\n      dup5\n        /* \"#utility.yul\":557:644   */\n      tag_54\n      jump\t// in\n    tag_71:\n        /* \"#utility.yul\":397:651   */\n      swap3\n      swap2\n      pop\n      pop\n      jump\t// out\n        /* \"#utility.yul\":657:837   */\n    tag_30:\n        /* \"#utility.yul\":705:782   */\n      0x4e487b7100000000000000000000000000000000000000000000000000000000\n        /* \"#utility.yul\":702:703   */\n      0x00\n        /* \"#utility.yul\":695:783   */\n      mstore\n        /* \"#utility.yul\":802:806   */\n      0x21\n        /* \"#utility.yul\":799:800   */\n      0x04\n        /* \"#utility.yul\":792:807   */\n      mstore\n        /* \"#utility.yul\":826:830   */\n      0x24\n        /* \"#utility.yul\":823:824   */\n      0x00\n        /* \"#utility.yul\":816:831   */\n      revert\n        /* \"#utility.yul\":843:956   */\n    tag_55:\n        /* \"#utility.yul\":924:925   */\n      0x03\n        /* \"#utility.yul\":917:922   */\n      dup2\n        /* \"#utility.yul\":914:926   */\n      lt\n        /* \"#utility.yul\":904:950   */\n      tag_74\n      jumpi\n        /* \"#utility.yul\":930:948   */\n      tag_75\n      tag_30\n      jump\t// in\n    tag_75:\n        /* \"#utility.yul\":904:950   */\n    tag_74:\n        /* \"#utility.yul\":843:956   */\n      pop\n      jump\t// out\n        /* \"#utility.yul\":962:1089   */\n    tag_56:\n        /* \"#utility.yul\":1007:1014   */\n      0x00\n        /* \"#utility.yul\":1036:1041   */\n      dup2\n        /* \"#utility.yul\":1025:1041   */\n      swap1\n      pop\n        /* \"#utility.yul\":1042:1083   */\n      tag_77\n        /* \"#utility.yul\":1077:1082   */\n      dup3\n        /* \"#utility.yul\":1042:1083   */\n      tag_55\n      jump\t// in\n    tag_77:\n        /* \"#utility.yul\":962:1089   */\n      swap2\n      swap1\n      pop\n      jump\t// out\n        /* \"#utility.yul\":1095:1222   */\n    tag_57:\n        /* \"#utility.yul\":1151:1160   */\n      0x00\n        /* \"#utility.yul\":1184:1216   */\n      tag_79\n        /* \"#utility.yul\":1210:1215   */\n      dup3\n        /* \"#utility.yul\":1184:1216   */\n      tag_56\n      jump\t// in\n    tag_79:\n        /* \"#utility.yul\":1171:1216   */\n      swap1\n      pop\n        /* \"#utility.yul\":1095:1222   */\n      swap2\n      swap1\n      pop\n      jump\t// out\n        /* \"#utility.yul\":1228:1371   */\n    tag_58:\n        /* \"#utility.yul\":1321:1364   */\n      tag_81\n        /* \"#utility.yul\":1358:1363   */\n      dup2\n        /* \"#utility.yul\":1321:1364   */\n      tag_57\n      jump\t// in\n    tag_81:\n        /* \"#utility.yul\":1316:1319   */\n      dup3\n        /* \"#utility.yul\":1309:1365   */\n      mstore\n        /* \"#utility.yul\":1228:1371   */\n      pop\n      pop\n      jump\t// out\n        /* \"#utility.yul\":1377:1611   */\n    tag_20:\n        /* \"#utility.yul\":1476:1480   */\n      0x00\n        /* \"#utility.yul\":1514:1516   */\n      0x20\n        /* \"#utility.yul\":1503:1512   */\n      dup3\n        /* \"#utility.yul\":1499:1517   */\n      add\n        /* \"#utility.yul\":1491:1517   */\n      swap1\n      pop\n        /* \"#utility.yul\":1527:1604   */\n      tag_83\n        /* \"#utility.yul\":1601:1602   */\n      0x00\n        /* \"#utility.yul\":1590:1599   */\n      dup4\n        /* \"#utility.yul\":1586:1603   */\n      add\n        /* \"#utility.yul\":1577:1583   */\n      dup5\n        /* \"#utility.yul\":1527:1604   */\n      tag_58\n      jump\t// in\n    tag_83:\n        /* \"#utility.yul\":1377:1611   */\n      swap3\n      swap2\n      pop\n      pop\n      jump\t// out\n        /* \"#utility.yul\":1617:1786   */\n    tag_59:\n        /* \"#utility.yul\":1701:1712   */\n      0x00\n        /* \"#utility.yul\":1735:1741   */\n      dup3\n        /* \"#utility.yul\":1730:1733   */\n      dup3\n        /* \"#utility.yul\":1723:1742   */\n      mstore\n        /* \"#utility.yul\":1775:1779   */\n      0x20\n        /* \"#utility.yul\":1770:1773   */\n      dup3\n        /* \"#utility.yul\":1766:1780   */\n      add\n        /* \"#utility.yul\":1751:1780   */\n      swap1\n      pop\n        /* \"#utility.yul\":1617:1786   */\n      swap3\n      swap2\n      pop\n      pop\n      jump\t// out\n        /* \"#utility.yul\":1792:1973   */\n    tag_60:\n        /* \"#utility.yul\":1932:1965   */\n      0x4f6e6c792062757965722063616e2063616c6c2074686973206d6574686f6400\n        /* \"#utility.yul\":1928:1929   */\n      0x00\n        /* \"#utility.yul\":1920:1926   */\n      dup3\n        /* \"#utility.yul\":1916:1930   */\n      add\n        /* \"#utility.yul\":1909:1966   */\n      mstore\n        /* \"#utility.yul\":1792:1973   */\n      pop\n      jump\t// out\n        /* \"#utility.yul\":1979:2345   */\n    tag_61:\n        /* \"#utility.yul\":2121:2124   */\n      0x00\n        /* \"#utility.yul\":2142:2209   */\n      tag_87\n        /* \"#utility.yul\":2206:2208   */\n      0x1f\n        /* \"#utility.yul\":2201:2204   */\n      dup4\n        /* \"#utility.yul\":2142:2209   */\n      tag_59\n      jump\t// in\n    tag_87:\n        /* \"#utility.yul\":2135:2209   */\n      swap2\n      pop\n        /* \"#utility.yul\":2218:2311   */\n      tag_88\n        /* \"#utility.yul\":2307:2310   */\n      dup3\n        /* \"#utility.yul\":2218:2311   */\n      tag_60\n      jump\t// in\n    tag_88:\n        /* \"#utility.yul\":2336:2338   */\n      0x20\n        /* \"#utility.yul\":2331:2334   */\n      dup3\n        /* \"#utility.yul\":2327:2339   */\n      add\n        /* \"#utility.yul\":2320:2339   */\n      swap1\n      pop\n        /* \"#utility.yul\":1979:2345   */\n      swap2\n      swap1\n      pop\n      jump\t// out\n        /* \"#utility.yul\":2351:2770   */\n    tag_26:\n        /* \"#utility.yul\":2517:2521   */\n      0x00\n        /* \"#utility.yul\":2555:2557   */\n      0x20\n        /* \"#utility.yul\":2544:2553   */\n      dup3\n        /* \"#utility.yul\":2540:2558   */\n      add\n        /* \"#utility.yul\":2532:2558   */\n      swap1\n      pop\n        /* \"#utility.yul\":2604:2613   */\n      dup2\n        /* \"#utility.yul\":2598:2602   */\n      dup2\n        /* \"#utility.yul\":2594:2614   */\n      sub\n        /* \"#utility.yul\":2590:2591   */\n      0x00\n        /* \"#utility.yul\":2579:2588   */\n      dup4\n        /* \"#utility.yul\":2575:2592   */\n      add\n        /* \"#utility.yul\":2568:2615   */\n      mstore\n        /* \"#utility.yul\":2632:2763   */\n      tag_90\n        /* \"#utility.yul\":2758:2762   */\n      dup2\n        /* \"#utility.yul\":2632:2763   */\n      tag_61\n      jump\t// in\n    tag_90:\n        /* \"#utility.yul\":2624:2763   */\n      swap1\n      pop\n        /* \"#utility.yul\":2351:2770   */\n      swap2\n      swap1\n      pop\n      jump\t// out\n        /* \"#utility.yul\":2776:2939   */\n    tag_62:\n        /* \"#utility.yul\":2916:2931   */\n      0x496e76616c696420737461746500000000000000000000000000000000000000\n        /* \"#utility.yul\":2912:2913   */\n      0x00\n        /* \"#utility.yul\":2904:2910   */\n      dup3\n        /* \"#utility.yul\":2900:2914   */\n      add\n        /* \"#utility.yul\":2893:2932   */\n      mstore\n        /* \"#utility.yul\":2776:2939   */\n      pop\n      jump\t// out\n        /* \"#utility.yul\":2945:3311   */\n    tag_63:\n        /* \"#utility.yul\":3087:3090   */\n      0x00\n        /* \"#utility.yul\":3108:3175   */\n      tag_93\n        /* \"#utility.yul\":3172:3174   */\n      0x0d\n        /* \"#utility.yul\":3167:3170   */\n      dup4\n        /* \"#utility.yul\":3108:3175   */\n      tag_59\n      jump\t// in\n    tag_93:\n        /* \"#utility.yul\":3101:3175   */\n      swap2\n      pop\n        /* \"#utility.yul\":3184:3277   */\n      tag_94\n        /* \"#utility.yul\":3273:3276   */\n      dup3\n        /* \"#utility.yul\":3184:3277   */\n      tag_62\n      jump\t// in\n    tag_94:\n        /* \"#utility.yul\":3302:3304   */\n      0x20\n        /* \"#utility.yul\":3297:3300   */\n      dup3\n        /* \"#utility.yul\":3293:3305   */\n      add\n        /* \"#utility.yul\":3286:3305   */\n      swap1\n      pop\n        /* \"#utility.yul\":2945:3311   */\n      swap2\n      swap1\n      pop\n      jump\t// out\n        /* \"#utility.yul\":3317:3736   */\n    tag_35:\n        /* \"#utility.yul\":3483:3487   */\n      0x00\n        /* \"#utility.yul\":3521:3523   */\n      0x20\n        /* \"#utility.yul\":3510:3519   */\n      dup3\n        /* \"#utility.yul\":3506:3524   */\n      add\n        /* \"#utility.yul\":3498:3524   */\n      swap1\n      pop\n        /* \"#utility.yul\":3570:3579   */\n      dup2\n        /* \"#utility.yul\":3564:3568   */\n      dup2\n        /* \"#utility.yul\":3560:3580   */\n      sub\n        /* \"#utility.yul\":3556:3557   */\n      0x00\n        /* \"#utility.yul\":3545:3554   */\n      dup4\n        /* \"#utility.yul\":3541:3558   */\n      add\n        /* \"#utility.yul\":3534:3581   */\n      mstore\n        /* \"#utility.yul\":3598:3729   */\n      tag_96\n        /* \"#utility.yul\":3724:3728   */\n      dup2\n        /* \"#utility.yul\":3598:3729   */\n      tag_63\n      jump\t// in\n    tag_96:\n        /* \"#utility.yul\":3590:3729   */\n      swap1\n      pop\n        /* \"#utility.yul\":3317:3736   */\n      swap2\n      swap1\n      pop\n      jump\t// out\n\n    auxdata: 0xa26469706673582212203ee3dc516cc31b379f5ed7b9d7181f6ecc4aee64345dd008fbe4d32f6fe736fd64736f6c63430008090033\n}\n",
				"bytecode": {
					"linkReferences": {},
					"object": "608060405233600260006101000a81548173ffffffffffffffffffffffffffffffffffffffff021916908373ffffffffffffffffffffffffffffffffffffffff160217905550346000819055506000600260146101000a81548160ff021916908360028111156100725761007161007c565b5b02179055506100ab565b7f4e487b7100000000000000000000000000000000000000000000000000000000600052602160045260246000fd5b610635806100ba6000396000f3fe608060405234801561001057600080fd5b50600436106100575760003560e01c806308551a531461005c57806335a063b41461007a5780637150d8ae14610084578063c19d93fb146100a2578063d6960697146100c0575b600080fd5b6100646100ca565b6040516100719190610469565b60405180910390f35b6100826100f0565b005b61008c6102b9565b6040516100999190610469565b60405180910390f35b6100aa6102df565b6040516100b791906104fb565b60405180910390f35b6100c86102f2565b005b600260009054906101000a900473ffffffffffffffffffffffffffffffffffffffff1681565b600260009054906101000a900473ffffffffffffffffffffffffffffffffffffffff1673ffffffffffffffffffffffffffffffffffffffff163373ffffffffffffffffffffffffffffffffffffffff1614610180576040517f08c379a000000000000000000000000000000000000000000000000000000000815260040161017790610573565b60405180910390fd5b6000600260149054906101000a900460ff1660028111156101a4576101a3610484565b5b8160028111156101b7576101b6610484565b5b146101f7576040517f08c379a00000000000000000000000000000000000000000000000000000000081526004016101ee906105df565b60405180910390fd5b7f72c874aeff0b183a56e2b79c71b46e1aed4dee5e09862134b8821ba2fddbf8bf60405160405180910390a160028060146101000a81548160ff0219169083600281111561024857610247610484565b5b0217905550600260009054906101000a900473ffffffffffffffffffffffffffffffffffffffff1673ffffffffffffffffffffffffffffffffffffffff166108fc479081150290604051600060405180830381858888f193505050501580156102b5573d6000803e3d6000fd5b5050565b600160009054906101000a900473ffffffffffffffffffffffffffffffffffffffff1681565b600260149054906101000a900460ff1681565b600160009054906101000a900473ffffffffffffffffffffffffffffffffffffffff1673ffffffffffffffffffffffffffffffffffffffff163373ffffffffffffffffffffffffffffffffffffffff1614610382576040517f08c379a000000000000000000000000000000000000000000000000000000000815260040161037990610573565b60405180910390fd5b6000600260149054906101000a900460ff1660028111156103a6576103a5610484565b5b8160028111156103b9576103b8610484565b5b146103f9576040517f08c379a00000000000000000000000000000000000000000000000000000000081526004016103f0906105df565b60405180910390fd5b7fb196fb0cc9eee2ffedd9ebc54b6928e8870c6221906d065411c0843e2934bd2160405160405180910390a150565b600073ffffffffffffffffffffffffffffffffffffffff82169050919050565b600061045382610428565b9050919050565b61046381610448565b82525050565b600060208201905061047e600083018461045a565b92915050565b7f4e487b7100000000000000000000000000000000000000000000000000000000600052602160045260246000fd5b600381106104c4576104c3610484565b5b50565b60008190506104d5826104b3565b919050565b60006104e5826104c7565b9050919050565b6104f5816104da565b82525050565b600060208201905061051060008301846104ec565b92915050565b600082825260208201905092915050565b7f4f6e6c792062757965722063616e2063616c6c2074686973206d6574686f6400600082015250565b600061055d601f83610516565b915061056882610527565b602082019050919050565b6000602082019050818103600083015261058c81610550565b9050919050565b7f496e76616c696420737461746500000000000000000000000000000000000000600082015250565b60006105c9600d83610516565b91506105d482610593565b602082019050919050565b600060208201905081810360008301526105f8816105bc565b905091905056fea26469706673582212203ee3dc516cc31b379f5ed7b9d7181f6ecc4aee64345dd008fbe4d32f6fe736fd64736f6c63430008090033",
					"opcodes": "PUSH1 0x80 PUSH1 0x40 MSTORE CALLER PUSH1 0x2 PUSH1 0x0 PUSH2 0x100 EXP DUP2 SLOAD DUP2 PUSH20 0xFFFFFFFFFFFFFFFFFFFFFFFFFFFFFFFFFFFFFFFF MUL NOT AND SWAP1 DUP4 PUSH20 0xFFFFFFFFFFFFFFFFFFFFFFFFFFFFFFFFFFFFFFFF AND MUL OR SWAP1 SSTORE POP CALLVALUE PUSH1 0x0 DUP2 SWAP1 SSTORE POP PUSH1 0x0 PUSH1 0x2 PUSH1 0x14 PUSH2 0x100 EXP DUP2 SLOAD DUP2 PUSH1 0xFF MUL NOT AND SWAP1 DUP4 PUSH1 0x2 DUP2 GT ISZERO PUSH2 0x72 JUMPI PUSH2 0x71 PUSH2 0x7C JUMP JUMPDEST JUMPDEST MUL OR SWAP1 SSTORE POP PUSH2 0xAB JUMP JUMPDEST PUSH32 0x4E487B7100000000000000000000000000000000000000000000000000000000 PUSH1 0x0 MSTORE PUSH1 0x21 PUSH1 0x4 MSTORE PUSH1 0x24 PUSH1 0x0 REVERT JUMPDEST PUSH2 0x635 DUP1 PUSH2 0xBA PUSH1 0x0 CODECOPY PUSH1 0x0 RETURN INVALID PUSH1 0x80 PUSH1 0x40 MSTORE CALLVALUE DUP1 ISZERO PUSH2 0x10 JUMPI PUSH1 0x0 DUP1 REVERT JUMPDEST POP PUSH1 0x4 CALLDATASIZE LT PUSH2 0x57 JUMPI PUSH1 0x0 CALLDATALOAD PUSH1 0xE0 SHR DUP1 PUSH4 0x8551A53 EQ PUSH2 0x5C JUMPI DUP1 PUSH4 0x35A063B4 EQ PUSH2 0x7A JUMPI DUP1 PUSH4 0x7150D8AE EQ PUSH2 0x84 JUMPI DUP1 PUSH4 0xC19D93FB EQ PUSH2 0xA2 JUMPI DUP1 PUSH4 0xD6960697 EQ PUSH2 0xC0 JUMPI JUMPDEST PUSH1 0x0 DUP1 REVERT JUMPDEST PUSH2 0x64 PUSH2 0xCA JUMP JUMPDEST PUSH1 0x40 MLOAD PUSH2 0x71 SWAP2 SWAP1 PUSH2 0x469 JUMP JUMPDEST PUSH1 0x40 MLOAD DUP1 SWAP2 SUB SWAP1 RETURN JUMPDEST PUSH2 0x82 PUSH2 0xF0 JUMP JUMPDEST STOP JUMPDEST PUSH2 0x8C PUSH2 0x2B9 JUMP JUMPDEST PUSH1 0x40 MLOAD PUSH2 0x99 SWAP2 SWAP1 PUSH2 0x469 JUMP JUMPDEST PUSH1 0x40 MLOAD DUP1 SWAP2 SUB SWAP1 RETURN JUMPDEST PUSH2 0xAA PUSH2 0x2DF JUMP JUMPDEST PUSH1 0x40 MLOAD PUSH2 0xB7 SWAP2 SWAP1 PUSH2 0x4FB JUMP JUMPDEST PUSH1 0x40 MLOAD DUP1 SWAP2 SUB SWAP1 RETURN JUMPDEST PUSH2 0xC8 PUSH2 0x2F2 JUMP JUMPDEST STOP JUMPDEST PUSH1 0x2 PUSH1 0x0 SWAP1 SLOAD SWAP1 PUSH2 0x100 EXP SWAP1 DIV PUSH20 0xFFFFFFFFFFFFFFFFFFFFFFFFFFFFFFFFFFFFFFFF AND DUP2 JUMP JUMPDEST PUSH1 0x2 PUSH1 0x0 SWAP1 SLOAD SWAP1 PUSH2 0x100 EXP SWAP1 DIV PUSH20 0xFFFFFFFFFFFFFFFFFFFFFFFFFFFFFFFFFFFFFFFF AND PUSH20 0xFFFFFFFFFFFFFFFFFFFFFFFFFFFFFFFFFFFFFFFF AND CALLER PUSH20 0xFFFFFFFFFFFFFFFFFFFFFFFFFFFFFFFFFFFFFFFF AND EQ PUSH2 0x180 JUMPI PUSH1 0x40 MLOAD PUSH32 0x8C379A000000000000000000000000000000000000000000000000000000000 DUP2 MSTORE PUSH1 0x4 ADD PUSH2 0x177 SWAP1 PUSH2 0x573 JUMP JUMPDEST PUSH1 0x40 MLOAD DUP1 SWAP2 SUB SWAP1 REVERT JUMPDEST PUSH1 0x0 PUSH1 0x2 PUSH1 0x14 SWAP1 SLOAD SWAP1 PUSH2 0x100 EXP SWAP1 DIV PUSH1 0xFF AND PUSH1 0x2 DUP2 GT ISZERO PUSH2 0x1A4 JUMPI PUSH2 0x1A3 PUSH2 0x484 JUMP JUMPDEST JUMPDEST DUP2 PUSH1 0x2 DUP2 GT ISZERO PUSH2 0x1B7 JUMPI PUSH2 0x1B6 PUSH2 0x484 JUMP JUMPDEST JUMPDEST EQ PUSH2 0x1F7 JUMPI PUSH1 0x40 MLOAD PUSH32 0x8C379A000000000000000000000000000000000000000000000000000000000 DUP2 MSTORE PUSH1 0x4 ADD PUSH2 0x1EE SWAP1 PUSH2 0x5DF JUMP JUMPDEST PUSH1 0x40 MLOAD DUP1 SWAP2 SUB SWAP1 REVERT JUMPDEST PUSH32 0x72C874AEFF0B183A56E2B79C71B46E1AED4DEE5E09862134B8821BA2FDDBF8BF PUSH1 0x40 MLOAD PUSH1 0x40 MLOAD DUP1 SWAP2 SUB SWAP1 LOG1 PUSH1 0x2 DUP1 PUSH1 0x14 PUSH2 0x100 EXP DUP2 SLOAD DUP2 PUSH1 0xFF MUL NOT AND SWAP1 DUP4 PUSH1 0x2 DUP2 GT ISZERO PUSH2 0x248 JUMPI PUSH2 0x247 PUSH2 0x484 JUMP JUMPDEST JUMPDEST MUL OR SWAP1 SSTORE POP PUSH1 0x2 PUSH1 0x0 SWAP1 SLOAD SWAP1 PUSH2 0x100 EXP SWAP1 DIV PUSH20 0xFFFFFFFFFFFFFFFFFFFFFFFFFFFFFFFFFFFFFFFF AND PUSH20 0xFFFFFFFFFFFFFFFFFFFFFFFFFFFFFFFFFFFFFFFF AND PUSH2 0x8FC SELFBALANCE SWAP1 DUP2 ISZERO MUL SWAP1 PUSH1 0x40 MLOAD PUSH1 0x0 PUSH1 0x40 MLOAD DUP1 DUP4 SUB DUP2 DUP6 DUP9 DUP9 CALL SWAP4 POP POP POP POP ISZERO DUP1 ISZERO PUSH2 0x2B5 JUMPI RETURNDATASIZE PUSH1 0x0 DUP1 RETURNDATACOPY RETURNDATASIZE PUSH1 0x0 REVERT JUMPDEST POP POP JUMP JUMPDEST PUSH1 0x1 PUSH1 0x0 SWAP1 SLOAD SWAP1 PUSH2 0x100 EXP SWAP1 DIV PUSH20 0xFFFFFFFFFFFFFFFFFFFFFFFFFFFFFFFFFFFFFFFF AND DUP2 JUMP JUMPDEST PUSH1 0x2 PUSH1 0x14 SWAP1 SLOAD SWAP1 PUSH2 0x100 EXP SWAP1 DIV PUSH1 0xFF AND DUP2 JUMP JUMPDEST PUSH1 0x1 PUSH1 0x0 SWAP1 SLOAD SWAP1 PUSH2 0x100 EXP SWAP1 DIV PUSH20 0xFFFFFFFFFFFFFFFFFFFFFFFFFFFFFFFFFFFFFFFF AND PUSH20 0xFFFFFFFFFFFFFFFFFFFFFFFFFFFFFFFFFFFFFFFF AND CALLER PUSH20 0xFFFFFFFFFFFFFFFFFFFFFFFFFFFFFFFFFFFFFFFF AND EQ PUSH2 0x382 JUMPI PUSH1 0x40 MLOAD PUSH32 0x8C379A000000000000000000000000000000000000000000000000000000000 DUP2 MSTORE PUSH1 0x4 ADD PUSH2 0x379 SWAP1 PUSH2 0x573 JUMP JUMPDEST PUSH1 0x40 MLOAD DUP1 SWAP2 SUB SWAP1 REVERT JUMPDEST PUSH1 0x0 PUSH1 0x2 PUSH1 0x14 SWAP1 SLOAD SWAP1 PUSH2 0x100 EXP SWAP1 DIV PUSH1 0xFF AND PUSH1 0x2 DUP2 GT ISZERO PUSH2 0x3A6 JUMPI PUSH2 0x3A5 PUSH2 0x484 JUMP JUMPDEST JUMPDEST DUP2 PUSH1 0x2 DUP2 GT ISZERO PUSH2 0x3B9 JUMPI PUSH2 0x3B8 PUSH2 0x484 JUMP JUMPDEST JUMPDEST EQ PUSH2 0x3F9 JUMPI PUSH1 0x40 MLOAD PUSH32 0x8C379A000000000000000000000000000000000000000000000000000000000 DUP2 MSTORE PUSH1 0x4 ADD PUSH2 0x3F0 SWAP1 PUSH2 0x5DF JUMP JUMPDEST PUSH1 0x40 MLOAD DUP1 SWAP2 SUB SWAP1 REVERT JUMPDEST PUSH32 0xB196FB0CC9EEE2FFEDD9EBC54B6928E8870C6221906D065411C0843E2934BD21 PUSH1 0x40 MLOAD PUSH1 0x40 MLOAD DUP1 SWAP2 SUB SWAP1 LOG1 POP JUMP JUMPDEST PUSH1 0x0 PUSH20 0xFFFFFFFFFFFFFFFFFFFFFFFFFFFFFFFFFFFFFFFF DUP3 AND SWAP1 POP SWAP2 SWAP1 POP JUMP JUMPDEST PUSH1 0x0 PUSH2 0x453 DUP3 PUSH2 0x428 JUMP JUMPDEST SWAP1 POP SWAP2 SWAP1 POP JUMP JUMPDEST PUSH2 0x463 DUP2 PUSH2 0x448 JUMP JUMPDEST DUP3 MSTORE POP POP JUMP JUMPDEST PUSH1 0x0 PUSH1 0x20 DUP3 ADD SWAP1 POP PUSH2 0x47E PUSH1 0x0 DUP4 ADD DUP5 PUSH2 0x45A JUMP JUMPDEST SWAP3 SWAP2 POP POP JUMP JUMPDEST PUSH32 0x4E487B7100000000000000000000000000000000000000000000000000000000 PUSH1 0x0 MSTORE PUSH1 0x21 PUSH1 0x4 MSTORE PUSH1 0x24 PUSH1 0x0 REVERT JUMPDEST PUSH1 0x3 DUP2 LT PUSH2 0x4C4 JUMPI PUSH2 0x4C3 PUSH2 0x484 JUMP JUMPDEST JUMPDEST POP JUMP JUMPDEST PUSH1 0x0 DUP2 SWAP1 POP PUSH2 0x4D5 DUP3 PUSH2 0x4B3 JUMP JUMPDEST SWAP2 SWAP1 POP JUMP JUMPDEST PUSH1 0x0 PUSH2 0x4E5 DUP3 PUSH2 0x4C7 JUMP JUMPDEST SWAP1 POP SWAP2 SWAP1 POP JUMP JUMPDEST PUSH2 0x4F5 DUP2 PUSH2 0x4DA JUMP JUMPDEST DUP3 MSTORE POP POP JUMP JUMPDEST PUSH1 0x0 PUSH1 0x20 DUP3 ADD SWAP1 POP PUSH2 0x510 PUSH1 0x0 DUP4 ADD DUP5 PUSH2 0x4EC JUMP JUMPDEST SWAP3 SWAP2 POP POP JUMP JUMPDEST PUSH1 0x0 DUP3 DUP3 MSTORE PUSH1 0x20 DUP3 ADD SWAP1 POP SWAP3 SWAP2 POP POP JUMP JUMPDEST PUSH32 0x4F6E6C792062757965722063616E2063616C6C2074686973206D6574686F6400 PUSH1 0x0 DUP3 ADD MSTORE POP JUMP JUMPDEST PUSH1 0x0 PUSH2 0x55D PUSH1 0x1F DUP4 PUSH2 0x516 JUMP JUMPDEST SWAP2 POP PUSH2 0x568 DUP3 PUSH2 0x527 JUMP JUMPDEST PUSH1 0x20 DUP3 ADD SWAP1 POP SWAP2 SWAP1 POP JUMP JUMPDEST PUSH1 0x0 PUSH1 0x20 DUP3 ADD SWAP1 POP DUP2 DUP2 SUB PUSH1 0x0 DUP4 ADD MSTORE PUSH2 0x58C DUP2 PUSH2 0x550 JUMP JUMPDEST SWAP1 POP SWAP2 SWAP1 POP JUMP JUMPDEST PUSH32 0x496E76616C696420737461746500000000000000000000000000000000000000 PUSH1 0x0 DUP3 ADD MSTORE POP JUMP JUMPDEST PUSH1 0x0 PUSH2 0x5C9 PUSH1 0xD DUP4 PUSH2 0x516 JUMP JUMPDEST SWAP2 POP PUSH2 0x5D4 DUP3 PUSH2 0x593 JUMP JUMPDEST PUSH1 0x20 DUP3 ADD SWAP1 POP SWAP2 SWAP1 POP JUMP JUMPDEST PUSH1 0x0 PUSH1 0x20 DUP3 ADD SWAP1 POP DUP2 DUP2 SUB PUSH1 0x0 DUP4 ADD MSTORE PUSH2 0x5F8 DUP2 PUSH2 0x5BC JUMP JUMPDEST SWAP1 POP SWAP2 SWAP1 POP JUMP INVALID LOG2 PUSH5 0x6970667358 0x22 SLT KECCAK256 RETURNDATACOPY 0xE3 0xDC MLOAD PUSH13 0xC31B379F5ED7B9D7181F6ECC4A 0xEE PUSH5 0x345DD008FB 0xE4 0xD3 0x2F PUSH16 0xE736FD64736F6C634300080900330000 "
				},
				"gasEstimates": {
					"creation": {
						"codeDepositCost": "317800",
						"executionCost": "71059",
						"totalCost": "388859"
					},
					"external": {
						"abort()": "infinite",
						"buyer()": "2536",
						"confirmPurchase()": "5423",
						"seller()": "2492",
						"state()": "2654"
					}
				},
				"methodIdentifiers": {
					"abort()": "35a063b4",
					"buyer()": "7150d8ae",
					"confirmPurchase()": "d6960697",
					"seller()": "08551a53",
					"state()": "c19d93fb"
				}
			},
			"storageLayout": {
				"storage": [
					{
						"astId": 3,
						"contract": "SaleAggrement.sol:SaleAggrement",
						"label": "value",
						"offset": 0,
						"slot": "0",
						"type": "t_uint256"
					},
					{
						"astId": 5,
						"contract": "SaleAggrement.sol:SaleAggrement",
						"label": "buyer",
						"offset": 0,
						"slot": "1",
						"type": "t_address_payable"
					},
					{
						"astId": 7,
						"contract": "SaleAggrement.sol:SaleAggrement",
						"label": "seller",
						"offset": 0,
						"slot": "2",
						"type": "t_address_payable"
					},
					{
						"astId": 14,
						"contract": "SaleAggrement.sol:SaleAggrement",
						"label": "state",
						"offset": 20,
						"slot": "2",
						"type": "t_enum(State)11"
					}
				],
				"types": {
					"t_address_payable": {
						"encoding": "inplace",
						"label": "address payable",
						"numberOfBytes": "20"
					},
					"t_enum(State)11": {
						"encoding": "inplace",
						"label": "enum SaleAggrement.State",
						"numberOfBytes": "1"
					},
					"t_uint256": {
						"encoding": "inplace",
						"label": "uint256",
						"numberOfBytes": "32"
					}
				}
			},
			"userdoc": {
				"kind": "user",
				"methods": {},
				"version": 1
			}
		}
	}
}