{
	"SimpleAuction.sol": {
		"simpleAuction": {
			"abi": [
				{
					"anonymous": false,
					"inputs": [
						{
							"indexed": false,
							"internalType": "address",
							"name": "topBider",
							"type": "address"
						},
						{
							"indexed": false,
							"internalType": "uint256",
							"name": "topBid",
							"type": "uint256"
						}
					],
					"name": "auctionClosed",
					"type": "event"
				},
				{
					"anonymous": false,
					"inputs": [
						{
							"indexed": false,
							"internalType": "address",
							"name": "auctionOwner",
							"type": "address"
						},
						{
							"indexed": false,
							"internalType": "uint256",
							"name": "startPrice",
							"type": "uint256"
						}
					],
					"name": "auctionStarted",
					"type": "event"
				},
				{
					"anonymous": false,
					"inputs": [
						{
							"indexed": false,
							"internalType": "address",
							"name": "bidder",
							"type": "address"
						},
						{
							"indexed": false,
							"internalType": "uint256",
							"name": "bidAmount",
							"type": "uint256"
						}
					],
					"name": "bidPlaced",
					"type": "event"
				},
				{
					"inputs": [],
					"name": "cancelAuction",
					"outputs": [],
					"stateMutability": "nonpayable",
					"type": "function"
				},
				{
					"inputs": [],
					"name": "placeBid",
					"outputs": [],
					"stateMutability": "payable",
					"type": "function"
				},
				{
					"inputs": [
						{
							"internalType": "uint256",
							"name": "_auctionStartPrice",
							"type": "uint256"
						},
						{
							"internalType": "uint256",
							"name": "_auctionTime",
							"type": "uint256"
						}
					],
					"name": "startAuction",
					"outputs": [],
					"stateMutability": "nonpayable",
					"type": "function"
				},
				{
					"inputs": [],
					"name": "topBidder",
					"outputs": [
						{
							"internalType": "address",
							"name": "",
							"type": "address"
						}
					],
					"stateMutability": "view",
					"type": "function"
				},
				{
					"inputs": [],
					"name": "withDrawBid",
					"outputs": [
						{
							"internalType": "bool",
							"name": "",
							"type": "bool"
						}
					],
					"stateMutability": "nonpayable",
					"type": "function"
				}
			],
			"devdoc": {
				"kind": "dev",
				"methods": {},
				"version": 1
			},
			"evm": {
				"assembly": "    /* \"SimpleAuction.sol\":71:1790  contract simpleAuction{... */\n  mstore(0x40, 0x80)\n    /* \"SimpleAuction.sol\":118:123  false */\n  0x00\n    /* \"SimpleAuction.sol\":99:123  bool AuctionClosed=false */\n  dup1\n  exp(0x0100, 0x00)\n  dup2\n  sload\n  dup2\n  0xff\n  mul\n  not\n  and\n  swap1\n  dup4\n  iszero\n  iszero\n  mul\n  or\n  swap1\n  sstore\n  pop\n    /* \"SimpleAuction.sol\":184:185  0 */\n  0x00\n    /* \"SimpleAuction.sol\":163:185  uint256 topBidAmount=0 */\n  0x01\n  sstore\n    /* \"SimpleAuction.sol\":71:1790  contract simpleAuction{... */\n  callvalue\n  dup1\n  iszero\n  tag_1\n  jumpi\n  0x00\n  dup1\n  revert\ntag_1:\n  pop\n  dataSize(sub_0)\n  dup1\n  dataOffset(sub_0)\n  0x00\n  codecopy\n  0x00\n  return\nstop\n\nsub_0: assembly {\n        /* \"SimpleAuction.sol\":71:1790  contract simpleAuction{... */\n      mstore(0x40, 0x80)\n      jumpi(tag_1, lt(calldatasize, 0x04))\n      shr(0xe0, calldataload(0x00))\n      dup1\n      0x01333f06\n      eq\n      tag_2\n      jumpi\n      dup1\n      0x4fee13fc\n      eq\n      tag_3\n      jumpi\n      dup1\n      0x8fa8b790\n      eq\n      tag_4\n      jumpi\n      dup1\n      0xecfc7ecc\n      eq\n      tag_5\n      jumpi\n      dup1\n      0xfde8c63e\n      eq\n      tag_6\n      jumpi\n    tag_1:\n      0x00\n      dup1\n      revert\n        /* \"SimpleAuction.sol\":247:271  address public topBidder */\n    tag_2:\n      callvalue\n      dup1\n      iszero\n      tag_7\n      jumpi\n      0x00\n      dup1\n      revert\n    tag_7:\n      pop\n      tag_8\n      tag_9\n      jump\t// in\n    tag_8:\n      mload(0x40)\n      tag_10\n      swap2\n      swap1\n      tag_11\n      jump\t// in\n    tag_10:\n      mload(0x40)\n      dup1\n      swap2\n      sub\n      swap1\n      return\n        /* \"SimpleAuction.sol\":533:848  function startAuction(uint256 _auctionStartPrice, uint256 _auctionTime) public {... */\n    tag_3:\n      callvalue\n      dup1\n      iszero\n      tag_12\n      jumpi\n      0x00\n      dup1\n      revert\n    tag_12:\n      pop\n      tag_13\n      0x04\n      dup1\n      calldatasize\n      sub\n      dup2\n      add\n      swap1\n      tag_14\n      swap2\n      swap1\n      tag_15\n      jump\t// in\n    tag_14:\n      tag_16\n      jump\t// in\n    tag_13:\n      stop\n        /* \"SimpleAuction.sol\":1239:1485  function cancelAuction() public {... */\n    tag_4:\n      callvalue\n      dup1\n      iszero\n      tag_17\n      jumpi\n      0x00\n      dup1\n      revert\n    tag_17:\n      pop\n      tag_18\n      tag_19\n      jump\t// in\n    tag_18:\n      stop\n        /* \"SimpleAuction.sol\":855:1233  function placeBid() public payable{... */\n    tag_5:\n      tag_20\n      tag_21\n      jump\t// in\n    tag_20:\n      stop\n        /* \"SimpleAuction.sol\":1490:1787  function withDrawBid() public returns(bool){... */\n    tag_6:\n      callvalue\n      dup1\n      iszero\n      tag_22\n      jumpi\n      0x00\n      dup1\n      revert\n    tag_22:\n      pop\n      tag_23\n      tag_24\n      jump\t// in\n    tag_23:\n      mload(0x40)\n      tag_25\n      swap2\n      swap1\n      tag_26\n      jump\t// in\n    tag_25:\n      mload(0x40)\n      dup1\n      swap2\n      sub\n      swap1\n      return\n        /* \"SimpleAuction.sol\":247:271  address public topBidder */\n    tag_9:\n      0x04\n      0x00\n      swap1\n      sload\n      swap1\n      0x0100\n      exp\n      swap1\n      div\n      0xffffffffffffffffffffffffffffffffffffffff\n      and\n      dup2\n      jump\t// out\n        /* \"SimpleAuction.sol\":533:848  function startAuction(uint256 _auctionStartPrice, uint256 _auctionTime) public {... */\n    tag_16:\n        /* \"SimpleAuction.sol\":644:654  msg.sender */\n      caller\n        /* \"SimpleAuction.sol\":622:634  auctionOwner */\n      0x00\n      0x01\n        /* \"SimpleAuction.sol\":622:655  auctionOwner= payable(msg.sender) */\n      0x0100\n      exp\n      dup2\n      sload\n      dup2\n      0xffffffffffffffffffffffffffffffffffffffff\n      mul\n      not\n      and\n      swap1\n      dup4\n      0xffffffffffffffffffffffffffffffffffffffff\n      and\n      mul\n      or\n      swap1\n      sstore\n      pop\n        /* \"SimpleAuction.sol\":679:684  false */\n      0x00\n        /* \"SimpleAuction.sol\":665:678  AuctionClosed */\n      dup1\n      0x00\n        /* \"SimpleAuction.sol\":665:684  AuctionClosed=false */\n      0x0100\n      exp\n      dup2\n      sload\n      dup2\n      0xff\n      mul\n      not\n      and\n      swap1\n      dup4\n      iszero\n      iszero\n      mul\n      or\n      swap1\n      sstore\n      pop\n        /* \"SimpleAuction.sol\":712:730  _auctionStartPrice */\n      dup2\n        /* \"SimpleAuction.sol\":694:711  auctionStartPrice */\n      0x02\n        /* \"SimpleAuction.sol\":694:730  auctionStartPrice=_auctionStartPrice */\n      dup2\n      swap1\n      sstore\n      pop\n        /* \"SimpleAuction.sol\":768:780  _auctionTime */\n      dup1\n        /* \"SimpleAuction.sol\":752:767  block.timestamp */\n      timestamp\n        /* \"SimpleAuction.sol\":752:780  block.timestamp+_auctionTime */\n      tag_28\n      swap2\n      swap1\n      tag_29\n      jump\t// in\n    tag_28:\n        /* \"SimpleAuction.sol\":740:751  auctionTime */\n      0x03\n        /* \"SimpleAuction.sol\":740:780  auctionTime=block.timestamp+_auctionTime */\n      dup2\n      swap1\n      sstore\n      pop\n        /* \"SimpleAuction.sol\":795:841  auctionStarted(auctionOwner,auctionStartPrice) */\n      0x1e6871a9ec2c22e508757c73d7e2d7d15e2819276867174afb13fcdc9f018df2\n        /* \"SimpleAuction.sol\":810:822  auctionOwner */\n      0x00\n      0x01\n      swap1\n      sload\n      swap1\n      0x0100\n      exp\n      swap1\n      div\n      0xffffffffffffffffffffffffffffffffffffffff\n      and\n        /* \"SimpleAuction.sol\":823:840  auctionStartPrice */\n      sload(0x02)\n        /* \"SimpleAuction.sol\":795:841  auctionStarted(auctionOwner,auctionStartPrice) */\n      mload(0x40)\n      tag_30\n      swap3\n      swap2\n      swap1\n      tag_31\n      jump\t// in\n    tag_30:\n      mload(0x40)\n      dup1\n      swap2\n      sub\n      swap1\n      log1\n        /* \"SimpleAuction.sol\":533:848  function startAuction(uint256 _auctionStartPrice, uint256 _auctionTime) public {... */\n      pop\n      pop\n      jump\t// out\n        /* \"SimpleAuction.sol\":1239:1485  function cancelAuction() public {... */\n    tag_19:\n        /* \"SimpleAuction.sol\":1303:1315  auctionOwner */\n      0x00\n      0x01\n      swap1\n      sload\n      swap1\n      0x0100\n      exp\n      swap1\n      div\n      0xffffffffffffffffffffffffffffffffffffffff\n      and\n        /* \"SimpleAuction.sol\":1289:1315  msg.sender == auctionOwner */\n      0xffffffffffffffffffffffffffffffffffffffff\n      and\n        /* \"SimpleAuction.sol\":1289:1299  msg.sender */\n      caller\n        /* \"SimpleAuction.sol\":1289:1315  msg.sender == auctionOwner */\n      0xffffffffffffffffffffffffffffffffffffffff\n      and\n      eq\n        /* \"SimpleAuction.sol\":1281:1316  require(msg.sender == auctionOwner) */\n      tag_33\n      jumpi\n      0x00\n      dup1\n      revert\n    tag_33:\n        /* \"SimpleAuction.sol\":1353:1364  auctionTime */\n      sload(0x03)\n        /* \"SimpleAuction.sol\":1334:1349  block.timestamp */\n      timestamp\n        /* \"SimpleAuction.sol\":1334:1364  block.timestamp >= auctionTime */\n      lt\n      iszero\n        /* \"SimpleAuction.sol\":1326:1365  require(block.timestamp >= auctionTime) */\n      tag_34\n      jumpi\n      0x00\n      dup1\n      revert\n    tag_34:\n        /* \"SimpleAuction.sol\":1389:1393  true */\n      0x01\n        /* \"SimpleAuction.sol\":1375:1388  AuctionClosed */\n      0x00\n      dup1\n        /* \"SimpleAuction.sol\":1375:1393  AuctionClosed=true */\n      0x0100\n      exp\n      dup2\n      sload\n      dup2\n      0xff\n      mul\n      not\n      and\n      swap1\n      dup4\n      iszero\n      iszero\n      mul\n      or\n      swap1\n      sstore\n      pop\n        /* \"SimpleAuction.sol\":1408:1439  auctionClosed(topBidder,topBid) */\n      0x0693fe466dadf29e4700c29f41d1504c602b944fa5e6b5f1cb0a3a2ca0702120\n        /* \"SimpleAuction.sol\":1422:1431  topBidder */\n      0x04\n      0x00\n      swap1\n      sload\n      swap1\n      0x0100\n      exp\n      swap1\n      div\n      0xffffffffffffffffffffffffffffffffffffffff\n      and\n        /* \"SimpleAuction.sol\":1432:1438  topBid */\n      sload(0x05)\n        /* \"SimpleAuction.sol\":1408:1439  auctionClosed(topBidder,topBid) */\n      mload(0x40)\n      tag_35\n      swap3\n      swap2\n      swap1\n      tag_36\n      jump\t// in\n    tag_35:\n      mload(0x40)\n      dup1\n      swap2\n      sub\n      swap1\n      log1\n        /* \"SimpleAuction.sol\":1449:1461  auctionOwner */\n      0x00\n      0x01\n      swap1\n      sload\n      swap1\n      0x0100\n      exp\n      swap1\n      div\n      0xffffffffffffffffffffffffffffffffffffffff\n      and\n        /* \"SimpleAuction.sol\":1449:1470  auctionOwner.transfer */\n      0xffffffffffffffffffffffffffffffffffffffff\n      and\n        /* \"SimpleAuction.sol\":1449:1478  auctionOwner.transfer(topBid) */\n      0x08fc\n        /* \"SimpleAuction.sol\":1471:1477  topBid */\n      sload(0x05)\n        /* \"SimpleAuction.sol\":1449:1478  auctionOwner.transfer(topBid) */\n      swap1\n      dup2\n      iszero\n      mul\n      swap1\n      mload(0x40)\n      0x00\n      mload(0x40)\n      dup1\n      dup4\n      sub\n      dup2\n      dup6\n      dup9\n      dup9\n      call\n      swap4\n      pop\n      pop\n      pop\n      pop\n      iszero\n      dup1\n      iszero\n      tag_38\n      jumpi\n      returndatasize\n      0x00\n      dup1\n      returndatacopy\n      revert(0x00, returndatasize)\n    tag_38:\n      pop\n        /* \"SimpleAuction.sol\":1239:1485  function cancelAuction() public {... */\n      jump\t// out\n        /* \"SimpleAuction.sol\":855:1233  function placeBid() public payable{... */\n    tag_21:\n        /* \"SimpleAuction.sol\":919:931  topBidAmount */\n      sload(0x01)\n        /* \"SimpleAuction.sol\":907:916  msg.value */\n      callvalue\n        /* \"SimpleAuction.sol\":907:931  msg.value > topBidAmount */\n      gt\n        /* \"SimpleAuction.sol\":899:974  require(msg.value > topBidAmount,\"You have placed low bid than top bidder\") */\n      tag_40\n      jumpi\n      mload(0x40)\n      0x08c379a000000000000000000000000000000000000000000000000000000000\n      dup2\n      mstore\n      0x04\n      add\n      tag_41\n      swap1\n      tag_42\n      jump\t// in\n    tag_41:\n      mload(0x40)\n      dup1\n      swap2\n      sub\n      swap1\n      revert\n    tag_40:\n        /* \"SimpleAuction.sol\":1006:1021  block.timestamp */\n      timestamp\n        /* \"SimpleAuction.sol\":992:1003  auctionTime */\n      sload(0x03)\n        /* \"SimpleAuction.sol\":992:1021  auctionTime > block.timestamp */\n      gt\n        /* \"SimpleAuction.sol\":984:1043  require(auctionTime > block.timestamp,\"Auction time ended\") */\n      tag_43\n      jumpi\n      mload(0x40)\n      0x08c379a000000000000000000000000000000000000000000000000000000000\n      dup2\n      mstore\n      0x04\n      add\n      tag_44\n      swap1\n      tag_45\n      jump\t// in\n    tag_44:\n      mload(0x40)\n      dup1\n      swap2\n      sub\n      swap1\n      revert\n    tag_43:\n        /* \"SimpleAuction.sol\":1065:1066  0 */\n      0x00\n        /* \"SimpleAuction.sol\":1056:1062  topBid */\n      sload(0x05)\n        /* \"SimpleAuction.sol\":1056:1066  topBid !=0 */\n      eq\n        /* \"SimpleAuction.sol\":1053:1125  if(topBid !=0 ){... */\n      tag_46\n      jumpi\n        /* \"SimpleAuction.sol\":1108:1114  topBid */\n      sload(0x05)\n        /* \"SimpleAuction.sol\":1082:1096  pendingReturns */\n      0x06\n        /* \"SimpleAuction.sol\":1082:1107  pendingReturns[topBidder] */\n      0x00\n        /* \"SimpleAuction.sol\":1097:1106  topBidder */\n      0x04\n      0x00\n      swap1\n      sload\n      swap1\n      0x0100\n      exp\n      swap1\n      div\n      0xffffffffffffffffffffffffffffffffffffffff\n      and\n        /* \"SimpleAuction.sol\":1082:1107  pendingReturns[topBidder] */\n      0xffffffffffffffffffffffffffffffffffffffff\n      and\n      0xffffffffffffffffffffffffffffffffffffffff\n      and\n      dup2\n      mstore\n      0x20\n      add\n      swap1\n      dup2\n      mstore\n      0x20\n      add\n      0x00\n      keccak256\n        /* \"SimpleAuction.sol\":1082:1114  pendingReturns[topBidder]=topBid */\n      dup2\n      swap1\n      sstore\n      pop\n        /* \"SimpleAuction.sol\":1053:1125  if(topBid !=0 ){... */\n    tag_46:\n        /* \"SimpleAuction.sol\":1144:1154  msg.sender */\n      caller\n        /* \"SimpleAuction.sol\":1134:1143  topBidder */\n      0x04\n      0x00\n        /* \"SimpleAuction.sol\":1134:1154  topBidder=msg.sender */\n      0x0100\n      exp\n      dup2\n      sload\n      dup2\n      0xffffffffffffffffffffffffffffffffffffffff\n      mul\n      not\n      and\n      swap1\n      dup4\n      0xffffffffffffffffffffffffffffffffffffffff\n      and\n      mul\n      or\n      swap1\n      sstore\n      pop\n        /* \"SimpleAuction.sol\":1171:1180  msg.value */\n      callvalue\n        /* \"SimpleAuction.sol\":1164:1170  topBid */\n      0x05\n        /* \"SimpleAuction.sol\":1164:1180  topBid=msg.value */\n      dup2\n      swap1\n      sstore\n      pop\n        /* \"SimpleAuction.sol\":1195:1226  bidPlaced(msg.sender,msg.value) */\n      0xf7d2dbe81680a1f0c2b9aaeb63d4184de5c64951ba06bf1b5900341760775a22\n        /* \"SimpleAuction.sol\":1205:1215  msg.sender */\n      caller\n        /* \"SimpleAuction.sol\":1216:1225  msg.value */\n      callvalue\n        /* \"SimpleAuction.sol\":1195:1226  bidPlaced(msg.sender,msg.value) */\n      mload(0x40)\n      tag_47\n      swap3\n      swap2\n      swap1\n      tag_36\n      jump\t// in\n    tag_47:\n      mload(0x40)\n      dup1\n      swap2\n      sub\n      swap1\n      log1\n        /* \"SimpleAuction.sol\":855:1233  function placeBid() public payable{... */\n      jump\t// out\n        /* \"SimpleAuction.sol\":1490:1787  function withDrawBid() public returns(bool){... */\n    tag_24:\n        /* \"SimpleAuction.sol\":1528:1532  bool */\n      0x00\n        /* \"SimpleAuction.sol\":1543:1565  uint256 withDrawAmount */\n      dup1\n        /* \"SimpleAuction.sol\":1567:1581  pendingReturns */\n      0x06\n        /* \"SimpleAuction.sol\":1567:1593  pendingReturns[msg.sender] */\n      0x00\n        /* \"SimpleAuction.sol\":1582:1592  msg.sender */\n      caller\n        /* \"SimpleAuction.sol\":1567:1593  pendingReturns[msg.sender] */\n      0xffffffffffffffffffffffffffffffffffffffff\n      and\n      0xffffffffffffffffffffffffffffffffffffffff\n      and\n      dup2\n      mstore\n      0x20\n      add\n      swap1\n      dup2\n      mstore\n      0x20\n      add\n      0x00\n      keccak256\n      sload\n        /* \"SimpleAuction.sol\":1543:1593  uint256 withDrawAmount= pendingReturns[msg.sender] */\n      swap1\n      pop\n        /* \"SimpleAuction.sol\":1621:1622  0 */\n      0x00\n        /* \"SimpleAuction.sol\":1606:1620  withDrawAmount */\n      dup2\n        /* \"SimpleAuction.sol\":1606:1622  withDrawAmount>0 */\n      gt\n        /* \"SimpleAuction.sol\":1603:1759  if(withDrawAmount>0){... */\n      iszero\n      tag_49\n      jumpi\n        /* \"SimpleAuction.sol\":1645:1655  msg.sender */\n      caller\n        /* \"SimpleAuction.sol\":1637:1665  payable(msg.sender).transfer */\n      0xffffffffffffffffffffffffffffffffffffffff\n      and\n        /* \"SimpleAuction.sol\":1637:1681  payable(msg.sender).transfer(withDrawAmount) */\n      0x08fc\n        /* \"SimpleAuction.sol\":1666:1680  withDrawAmount */\n      dup3\n        /* \"SimpleAuction.sol\":1637:1681  payable(msg.sender).transfer(withDrawAmount) */\n      swap1\n      dup2\n      iszero\n      mul\n      swap1\n      mload(0x40)\n      0x00\n      mload(0x40)\n      dup1\n      dup4\n      sub\n      dup2\n      dup6\n      dup9\n      dup9\n      call\n      swap4\n      pop\n      pop\n      pop\n      pop\n      iszero\n      dup1\n      iszero\n      tag_51\n      jumpi\n      returndatasize\n      0x00\n      dup1\n      returndatacopy\n      revert(0x00, returndatasize)\n    tag_51:\n      pop\n        /* \"SimpleAuction.sol\":1722:1723  0 */\n      0x00\n        /* \"SimpleAuction.sol\":1695:1709  pendingReturns */\n      0x06\n        /* \"SimpleAuction.sol\":1695:1721  pendingReturns[msg.sender] */\n      0x00\n        /* \"SimpleAuction.sol\":1710:1720  msg.sender */\n      caller\n        /* \"SimpleAuction.sol\":1695:1721  pendingReturns[msg.sender] */\n      0xffffffffffffffffffffffffffffffffffffffff\n      and\n      0xffffffffffffffffffffffffffffffffffffffff\n      and\n      dup2\n      mstore\n      0x20\n      add\n      swap1\n      dup2\n      mstore\n      0x20\n      add\n      0x00\n      keccak256\n        /* \"SimpleAuction.sol\":1695:1723  pendingReturns[msg.sender]=0 */\n      dup2\n      swap1\n      sstore\n      pop\n        /* \"SimpleAuction.sol\":1744:1748  true */\n      0x01\n        /* \"SimpleAuction.sol\":1737:1748  return true */\n      swap2\n      pop\n      pop\n      jump(tag_48)\n        /* \"SimpleAuction.sol\":1603:1759  if(withDrawAmount>0){... */\n    tag_49:\n        /* \"SimpleAuction.sol\":1775:1780  false */\n      0x00\n        /* \"SimpleAuction.sol\":1768:1780  return false */\n      swap2\n      pop\n      pop\n        /* \"SimpleAuction.sol\":1490:1787  function withDrawBid() public returns(bool){... */\n    tag_48:\n      swap1\n      jump\t// out\n        /* \"#utility.yul\":7:133   */\n    tag_52:\n        /* \"#utility.yul\":44:51   */\n      0x00\n        /* \"#utility.yul\":84:126   */\n      0xffffffffffffffffffffffffffffffffffffffff\n        /* \"#utility.yul\":77:82   */\n      dup3\n        /* \"#utility.yul\":73:127   */\n      and\n        /* \"#utility.yul\":62:127   */\n      swap1\n      pop\n        /* \"#utility.yul\":7:133   */\n      swap2\n      swap1\n      pop\n      jump\t// out\n        /* \"#utility.yul\":139:235   */\n    tag_53:\n        /* \"#utility.yul\":176:183   */\n      0x00\n        /* \"#utility.yul\":205:229   */\n      tag_78\n        /* \"#utility.yul\":223:228   */\n      dup3\n        /* \"#utility.yul\":205:229   */\n      tag_52\n      jump\t// in\n    tag_78:\n        /* \"#utility.yul\":194:229   */\n      swap1\n      pop\n        /* \"#utility.yul\":139:235   */\n      swap2\n      swap1\n      pop\n      jump\t// out\n        /* \"#utility.yul\":241:359   */\n    tag_54:\n        /* \"#utility.yul\":328:352   */\n      tag_80\n        /* \"#utility.yul\":346:351   */\n      dup2\n        /* \"#utility.yul\":328:352   */\n      tag_53\n      jump\t// in\n    tag_80:\n        /* \"#utility.yul\":323:326   */\n      dup3\n        /* \"#utility.yul\":316:353   */\n      mstore\n        /* \"#utility.yul\":241:359   */\n      pop\n      pop\n      jump\t// out\n        /* \"#utility.yul\":365:587   */\n    tag_11:\n        /* \"#utility.yul\":458:462   */\n      0x00\n        /* \"#utility.yul\":496:498   */\n      0x20\n        /* \"#utility.yul\":485:494   */\n      dup3\n        /* \"#utility.yul\":481:499   */\n      add\n        /* \"#utility.yul\":473:499   */\n      swap1\n      pop\n        /* \"#utility.yul\":509:580   */\n      tag_82\n        /* \"#utility.yul\":577:578   */\n      0x00\n        /* \"#utility.yul\":566:575   */\n      dup4\n        /* \"#utility.yul\":562:579   */\n      add\n        /* \"#utility.yul\":553:559   */\n      dup5\n        /* \"#utility.yul\":509:580   */\n      tag_54\n      jump\t// in\n    tag_82:\n        /* \"#utility.yul\":365:587   */\n      swap3\n      swap2\n      pop\n      pop\n      jump\t// out\n        /* \"#utility.yul\":674:791   */\n    tag_56:\n        /* \"#utility.yul\":783:784   */\n      0x00\n        /* \"#utility.yul\":780:781   */\n      dup1\n        /* \"#utility.yul\":773:785   */\n      revert\n        /* \"#utility.yul\":920:997   */\n    tag_58:\n        /* \"#utility.yul\":957:964   */\n      0x00\n        /* \"#utility.yul\":986:991   */\n      dup2\n        /* \"#utility.yul\":975:991   */\n      swap1\n      pop\n        /* \"#utility.yul\":920:997   */\n      swap2\n      swap1\n      pop\n      jump\t// out\n        /* \"#utility.yul\":1003:1125   */\n    tag_59:\n        /* \"#utility.yul\":1076:1100   */\n      tag_88\n        /* \"#utility.yul\":1094:1099   */\n      dup2\n        /* \"#utility.yul\":1076:1100   */\n      tag_58\n      jump\t// in\n    tag_88:\n        /* \"#utility.yul\":1069:1074   */\n      dup2\n        /* \"#utility.yul\":1066:1101   */\n      eq\n        /* \"#utility.yul\":1056:1119   */\n      tag_89\n      jumpi\n        /* \"#utility.yul\":1115:1116   */\n      0x00\n        /* \"#utility.yul\":1112:1113   */\n      dup1\n        /* \"#utility.yul\":1105:1117   */\n      revert\n        /* \"#utility.yul\":1056:1119   */\n    tag_89:\n        /* \"#utility.yul\":1003:1125   */\n      pop\n      jump\t// out\n        /* \"#utility.yul\":1131:1270   */\n    tag_60:\n        /* \"#utility.yul\":1177:1182   */\n      0x00\n        /* \"#utility.yul\":1215:1221   */\n      dup2\n        /* \"#utility.yul\":1202:1222   */\n      calldataload\n        /* \"#utility.yul\":1193:1222   */\n      swap1\n      pop\n        /* \"#utility.yul\":1231:1264   */\n      tag_91\n        /* \"#utility.yul\":1258:1263   */\n      dup2\n        /* \"#utility.yul\":1231:1264   */\n      tag_59\n      jump\t// in\n    tag_91:\n        /* \"#utility.yul\":1131:1270   */\n      swap3\n      swap2\n      pop\n      pop\n      jump\t// out\n        /* \"#utility.yul\":1276:1750   */\n    tag_15:\n        /* \"#utility.yul\":1344:1350   */\n      0x00\n        /* \"#utility.yul\":1352:1358   */\n      dup1\n        /* \"#utility.yul\":1401:1403   */\n      0x40\n        /* \"#utility.yul\":1389:1398   */\n      dup4\n        /* \"#utility.yul\":1380:1387   */\n      dup6\n        /* \"#utility.yul\":1376:1399   */\n      sub\n        /* \"#utility.yul\":1372:1404   */\n      slt\n        /* \"#utility.yul\":1369:1488   */\n      iszero\n      tag_93\n      jumpi\n        /* \"#utility.yul\":1407:1486   */\n      tag_94\n      tag_56\n      jump\t// in\n    tag_94:\n        /* \"#utility.yul\":1369:1488   */\n    tag_93:\n        /* \"#utility.yul\":1527:1528   */\n      0x00\n        /* \"#utility.yul\":1552:1605   */\n      tag_95\n        /* \"#utility.yul\":1597:1604   */\n      dup6\n        /* \"#utility.yul\":1588:1594   */\n      dup3\n        /* \"#utility.yul\":1577:1586   */\n      dup7\n        /* \"#utility.yul\":1573:1595   */\n      add\n        /* \"#utility.yul\":1552:1605   */\n      tag_60\n      jump\t// in\n    tag_95:\n        /* \"#utility.yul\":1542:1605   */\n      swap3\n      pop\n        /* \"#utility.yul\":1498:1615   */\n      pop\n        /* \"#utility.yul\":1654:1656   */\n      0x20\n        /* \"#utility.yul\":1680:1733   */\n      tag_96\n        /* \"#utility.yul\":1725:1732   */\n      dup6\n        /* \"#utility.yul\":1716:1722   */\n      dup3\n        /* \"#utility.yul\":1705:1714   */\n      dup7\n        /* \"#utility.yul\":1701:1723   */\n      add\n        /* \"#utility.yul\":1680:1733   */\n      tag_60\n      jump\t// in\n    tag_96:\n        /* \"#utility.yul\":1670:1733   */\n      swap2\n      pop\n        /* \"#utility.yul\":1625:1743   */\n      pop\n        /* \"#utility.yul\":1276:1750   */\n      swap3\n      pop\n      swap3\n      swap1\n      pop\n      jump\t// out\n        /* \"#utility.yul\":1756:1846   */\n    tag_61:\n        /* \"#utility.yul\":1790:1797   */\n      0x00\n        /* \"#utility.yul\":1833:1838   */\n      dup2\n        /* \"#utility.yul\":1826:1839   */\n      iszero\n        /* \"#utility.yul\":1819:1840   */\n      iszero\n        /* \"#utility.yul\":1808:1840   */\n      swap1\n      pop\n        /* \"#utility.yul\":1756:1846   */\n      swap2\n      swap1\n      pop\n      jump\t// out\n        /* \"#utility.yul\":1852:1961   */\n    tag_62:\n        /* \"#utility.yul\":1933:1954   */\n      tag_99\n        /* \"#utility.yul\":1948:1953   */\n      dup2\n        /* \"#utility.yul\":1933:1954   */\n      tag_61\n      jump\t// in\n    tag_99:\n        /* \"#utility.yul\":1928:1931   */\n      dup3\n        /* \"#utility.yul\":1921:1955   */\n      mstore\n        /* \"#utility.yul\":1852:1961   */\n      pop\n      pop\n      jump\t// out\n        /* \"#utility.yul\":1967:2177   */\n    tag_26:\n        /* \"#utility.yul\":2054:2058   */\n      0x00\n        /* \"#utility.yul\":2092:2094   */\n      0x20\n        /* \"#utility.yul\":2081:2090   */\n      dup3\n        /* \"#utility.yul\":2077:2095   */\n      add\n        /* \"#utility.yul\":2069:2095   */\n      swap1\n      pop\n        /* \"#utility.yul\":2105:2170   */\n      tag_101\n        /* \"#utility.yul\":2167:2168   */\n      0x00\n        /* \"#utility.yul\":2156:2165   */\n      dup4\n        /* \"#utility.yul\":2152:2169   */\n      add\n        /* \"#utility.yul\":2143:2149   */\n      dup5\n        /* \"#utility.yul\":2105:2170   */\n      tag_62\n      jump\t// in\n    tag_101:\n        /* \"#utility.yul\":1967:2177   */\n      swap3\n      swap2\n      pop\n      pop\n      jump\t// out\n        /* \"#utility.yul\":2183:2363   */\n    tag_63:\n        /* \"#utility.yul\":2231:2308   */\n      0x4e487b7100000000000000000000000000000000000000000000000000000000\n        /* \"#utility.yul\":2228:2229   */\n      0x00\n        /* \"#utility.yul\":2221:2309   */\n      mstore\n        /* \"#utility.yul\":2328:2332   */\n      0x11\n        /* \"#utility.yul\":2325:2326   */\n      0x04\n        /* \"#utility.yul\":2318:2333   */\n      mstore\n        /* \"#utility.yul\":2352:2356   */\n      0x24\n        /* \"#utility.yul\":2349:2350   */\n      0x00\n        /* \"#utility.yul\":2342:2357   */\n      revert\n        /* \"#utility.yul\":2369:2674   */\n    tag_29:\n        /* \"#utility.yul\":2409:2412   */\n      0x00\n        /* \"#utility.yul\":2428:2448   */\n      tag_104\n        /* \"#utility.yul\":2446:2447   */\n      dup3\n        /* \"#utility.yul\":2428:2448   */\n      tag_58\n      jump\t// in\n    tag_104:\n        /* \"#utility.yul\":2423:2448   */\n      swap2\n      pop\n        /* \"#utility.yul\":2462:2482   */\n      tag_105\n        /* \"#utility.yul\":2480:2481   */\n      dup4\n        /* \"#utility.yul\":2462:2482   */\n      tag_58\n      jump\t// in\n    tag_105:\n        /* \"#utility.yul\":2457:2482   */\n      swap3\n      pop\n        /* \"#utility.yul\":2616:2617   */\n      dup3\n        /* \"#utility.yul\":2548:2614   */\n      0xffffffffffffffffffffffffffffffffffffffffffffffffffffffffffffffff\n        /* \"#utility.yul\":2544:2618   */\n      sub\n        /* \"#utility.yul\":2541:2542   */\n      dup3\n        /* \"#utility.yul\":2538:2619   */\n      gt\n        /* \"#utility.yul\":2535:2642   */\n      iszero\n      tag_106\n      jumpi\n        /* \"#utility.yul\":2622:2640   */\n      tag_107\n      tag_63\n      jump\t// in\n    tag_107:\n        /* \"#utility.yul\":2535:2642   */\n    tag_106:\n        /* \"#utility.yul\":2666:2667   */\n      dup3\n        /* \"#utility.yul\":2663:2664   */\n      dup3\n        /* \"#utility.yul\":2659:2668   */\n      add\n        /* \"#utility.yul\":2652:2668   */\n      swap1\n      pop\n        /* \"#utility.yul\":2369:2674   */\n      swap3\n      swap2\n      pop\n      pop\n      jump\t// out\n        /* \"#utility.yul\":2680:2740   */\n    tag_64:\n        /* \"#utility.yul\":2708:2711   */\n      0x00\n        /* \"#utility.yul\":2729:2734   */\n      dup2\n        /* \"#utility.yul\":2722:2734   */\n      swap1\n      pop\n        /* \"#utility.yul\":2680:2740   */\n      swap2\n      swap1\n      pop\n      jump\t// out\n        /* \"#utility.yul\":2746:2888   */\n    tag_65:\n        /* \"#utility.yul\":2796:2805   */\n      0x00\n        /* \"#utility.yul\":2829:2882   */\n      tag_110\n        /* \"#utility.yul\":2847:2881   */\n      tag_111\n        /* \"#utility.yul\":2856:2880   */\n      tag_112\n        /* \"#utility.yul\":2874:2879   */\n      dup5\n        /* \"#utility.yul\":2856:2880   */\n      tag_52\n      jump\t// in\n    tag_112:\n        /* \"#utility.yul\":2847:2881   */\n      tag_64\n      jump\t// in\n    tag_111:\n        /* \"#utility.yul\":2829:2882   */\n      tag_52\n      jump\t// in\n    tag_110:\n        /* \"#utility.yul\":2816:2882   */\n      swap1\n      pop\n        /* \"#utility.yul\":2746:2888   */\n      swap2\n      swap1\n      pop\n      jump\t// out\n        /* \"#utility.yul\":2894:3020   */\n    tag_66:\n        /* \"#utility.yul\":2944:2953   */\n      0x00\n        /* \"#utility.yul\":2977:3014   */\n      tag_114\n        /* \"#utility.yul\":3008:3013   */\n      dup3\n        /* \"#utility.yul\":2977:3014   */\n      tag_65\n      jump\t// in\n    tag_114:\n        /* \"#utility.yul\":2964:3014   */\n      swap1\n      pop\n        /* \"#utility.yul\":2894:3020   */\n      swap2\n      swap1\n      pop\n      jump\t// out\n        /* \"#utility.yul\":3026:3160   */\n    tag_67:\n        /* \"#utility.yul\":3084:3093   */\n      0x00\n        /* \"#utility.yul\":3117:3154   */\n      tag_116\n        /* \"#utility.yul\":3148:3153   */\n      dup3\n        /* \"#utility.yul\":3117:3154   */\n      tag_66\n      jump\t// in\n    tag_116:\n        /* \"#utility.yul\":3104:3154   */\n      swap1\n      pop\n        /* \"#utility.yul\":3026:3160   */\n      swap2\n      swap1\n      pop\n      jump\t// out\n        /* \"#utility.yul\":3166:3313   */\n    tag_68:\n        /* \"#utility.yul\":3261:3306   */\n      tag_118\n        /* \"#utility.yul\":3300:3305   */\n      dup2\n        /* \"#utility.yul\":3261:3306   */\n      tag_67\n      jump\t// in\n    tag_118:\n        /* \"#utility.yul\":3256:3259   */\n      dup3\n        /* \"#utility.yul\":3249:3307   */\n      mstore\n        /* \"#utility.yul\":3166:3313   */\n      pop\n      pop\n      jump\t// out\n        /* \"#utility.yul\":3319:3437   */\n    tag_69:\n        /* \"#utility.yul\":3406:3430   */\n      tag_120\n        /* \"#utility.yul\":3424:3429   */\n      dup2\n        /* \"#utility.yul\":3406:3430   */\n      tag_58\n      jump\t// in\n    tag_120:\n        /* \"#utility.yul\":3401:3404   */\n      dup3\n        /* \"#utility.yul\":3394:3431   */\n      mstore\n        /* \"#utility.yul\":3319:3437   */\n      pop\n      pop\n      jump\t// out\n        /* \"#utility.yul\":3443:3791   */\n    tag_31:\n        /* \"#utility.yul\":3572:3576   */\n      0x00\n        /* \"#utility.yul\":3610:3612   */\n      0x40\n        /* \"#utility.yul\":3599:3608   */\n      dup3\n        /* \"#utility.yul\":3595:3613   */\n      add\n        /* \"#utility.yul\":3587:3613   */\n      swap1\n      pop\n        /* \"#utility.yul\":3623:3702   */\n      tag_122\n        /* \"#utility.yul\":3699:3700   */\n      0x00\n        /* \"#utility.yul\":3688:3697   */\n      dup4\n        /* \"#utility.yul\":3684:3701   */\n      add\n        /* \"#utility.yul\":3675:3681   */\n      dup6\n        /* \"#utility.yul\":3623:3702   */\n      tag_68\n      jump\t// in\n    tag_122:\n        /* \"#utility.yul\":3712:3784   */\n      tag_123\n        /* \"#utility.yul\":3780:3782   */\n      0x20\n        /* \"#utility.yul\":3769:3778   */\n      dup4\n        /* \"#utility.yul\":3765:3783   */\n      add\n        /* \"#utility.yul\":3756:3762   */\n      dup5\n        /* \"#utility.yul\":3712:3784   */\n      tag_69\n      jump\t// in\n    tag_123:\n        /* \"#utility.yul\":3443:3791   */\n      swap4\n      swap3\n      pop\n      pop\n      pop\n      jump\t// out\n        /* \"#utility.yul\":3797:4129   */\n    tag_36:\n        /* \"#utility.yul\":3918:3922   */\n      0x00\n        /* \"#utility.yul\":3956:3958   */\n      0x40\n        /* \"#utility.yul\":3945:3954   */\n      dup3\n        /* \"#utility.yul\":3941:3959   */\n      add\n        /* \"#utility.yul\":3933:3959   */\n      swap1\n      pop\n        /* \"#utility.yul\":3969:4040   */\n      tag_125\n        /* \"#utility.yul\":4037:4038   */\n      0x00\n        /* \"#utility.yul\":4026:4035   */\n      dup4\n        /* \"#utility.yul\":4022:4039   */\n      add\n        /* \"#utility.yul\":4013:4019   */\n      dup6\n        /* \"#utility.yul\":3969:4040   */\n      tag_54\n      jump\t// in\n    tag_125:\n        /* \"#utility.yul\":4050:4122   */\n      tag_126\n        /* \"#utility.yul\":4118:4120   */\n      0x20\n        /* \"#utility.yul\":4107:4116   */\n      dup4\n        /* \"#utility.yul\":4103:4121   */\n      add\n        /* \"#utility.yul\":4094:4100   */\n      dup5\n        /* \"#utility.yul\":4050:4122   */\n      tag_69\n      jump\t// in\n    tag_126:\n        /* \"#utility.yul\":3797:4129   */\n      swap4\n      swap3\n      pop\n      pop\n      pop\n      jump\t// out\n        /* \"#utility.yul\":4135:4304   */\n    tag_70:\n        /* \"#utility.yul\":4219:4230   */\n      0x00\n        /* \"#utility.yul\":4253:4259   */\n      dup3\n        /* \"#utility.yul\":4248:4251   */\n      dup3\n        /* \"#utility.yul\":4241:4260   */\n      mstore\n        /* \"#utility.yul\":4293:4297   */\n      0x20\n        /* \"#utility.yul\":4288:4291   */\n      dup3\n        /* \"#utility.yul\":4284:4298   */\n      add\n        /* \"#utility.yul\":4269:4298   */\n      swap1\n      pop\n        /* \"#utility.yul\":4135:4304   */\n      swap3\n      swap2\n      pop\n      pop\n      jump\t// out\n        /* \"#utility.yul\":4310:4536   */\n    tag_71:\n        /* \"#utility.yul\":4450:4484   */\n      0x596f75206861766520706c61636564206c6f7720626964207468616e20746f70\n        /* \"#utility.yul\":4446:4447   */\n      0x00\n        /* \"#utility.yul\":4438:4444   */\n      dup3\n        /* \"#utility.yul\":4434:4448   */\n      add\n        /* \"#utility.yul\":4427:4485   */\n      mstore\n        /* \"#utility.yul\":4519:4528   */\n      0x2062696464657200000000000000000000000000000000000000000000000000\n        /* \"#utility.yul\":4514:4516   */\n      0x20\n        /* \"#utility.yul\":4506:4512   */\n      dup3\n        /* \"#utility.yul\":4502:4517   */\n      add\n        /* \"#utility.yul\":4495:4529   */\n      mstore\n        /* \"#utility.yul\":4310:4536   */\n      pop\n      jump\t// out\n        /* \"#utility.yul\":4542:4908   */\n    tag_72:\n        /* \"#utility.yul\":4684:4687   */\n      0x00\n        /* \"#utility.yul\":4705:4772   */\n      tag_130\n        /* \"#utility.yul\":4769:4771   */\n      0x27\n        /* \"#utility.yul\":4764:4767   */\n      dup4\n        /* \"#utility.yul\":4705:4772   */\n      tag_70\n      jump\t// in\n    tag_130:\n        /* \"#utility.yul\":4698:4772   */\n      swap2\n      pop\n        /* \"#utility.yul\":4781:4874   */\n      tag_131\n        /* \"#utility.yul\":4870:4873   */\n      dup3\n        /* \"#utility.yul\":4781:4874   */\n      tag_71\n      jump\t// in\n    tag_131:\n        /* \"#utility.yul\":4899:4901   */\n      0x40\n        /* \"#utility.yul\":4894:4897   */\n      dup3\n        /* \"#utility.yul\":4890:4902   */\n      add\n        /* \"#utility.yul\":4883:4902   */\n      swap1\n      pop\n        /* \"#utility.yul\":4542:4908   */\n      swap2\n      swap1\n      pop\n      jump\t// out\n        /* \"#utility.yul\":4914:5333   */\n    tag_42:\n        /* \"#utility.yul\":5080:5084   */\n      0x00\n        /* \"#utility.yul\":5118:5120   */\n      0x20\n        /* \"#utility.yul\":5107:5116   */\n      dup3\n        /* \"#utility.yul\":5103:5121   */\n      add\n        /* \"#utility.yul\":5095:5121   */\n      swap1\n      pop\n        /* \"#utility.yul\":5167:5176   */\n      dup2\n        /* \"#utility.yul\":5161:5165   */\n      dup2\n        /* \"#utility.yul\":5157:5177   */\n      sub\n        /* \"#utility.yul\":5153:5154   */\n      0x00\n        /* \"#utility.yul\":5142:5151   */\n      dup4\n        /* \"#utility.yul\":5138:5155   */\n      add\n        /* \"#utility.yul\":5131:5178   */\n      mstore\n        /* \"#utility.yul\":5195:5326   */\n      tag_133\n        /* \"#utility.yul\":5321:5325   */\n      dup2\n        /* \"#utility.yul\":5195:5326   */\n      tag_72\n      jump\t// in\n    tag_133:\n        /* \"#utility.yul\":5187:5326   */\n      swap1\n      pop\n        /* \"#utility.yul\":4914:5333   */\n      swap2\n      swap1\n      pop\n      jump\t// out\n        /* \"#utility.yul\":5339:5507   */\n    tag_73:\n        /* \"#utility.yul\":5479:5499   */\n      0x41756374696f6e2074696d6520656e6465640000000000000000000000000000\n        /* \"#utility.yul\":5475:5476   */\n      0x00\n        /* \"#utility.yul\":5467:5473   */\n      dup3\n        /* \"#utility.yul\":5463:5477   */\n      add\n        /* \"#utility.yul\":5456:5500   */\n      mstore\n        /* \"#utility.yul\":5339:5507   */\n      pop\n      jump\t// out\n        /* \"#utility.yul\":5513:5879   */\n    tag_74:\n        /* \"#utility.yul\":5655:5658   */\n      0x00\n        /* \"#utility.yul\":5676:5743   */\n      tag_136\n        /* \"#utility.yul\":5740:5742   */\n      0x12\n        /* \"#utility.yul\":5735:5738   */\n      dup4\n        /* \"#utility.yul\":5676:5743   */\n      tag_70\n      jump\t// in\n    tag_136:\n        /* \"#utility.yul\":5669:5743   */\n      swap2\n      pop\n        /* \"#utility.yul\":5752:5845   */\n      tag_137\n        /* \"#utility.yul\":5841:5844   */\n      dup3\n        /* \"#utility.yul\":5752:5845   */\n      tag_73\n      jump\t// in\n    tag_137:\n        /* \"#utility.yul\":5870:5872   */\n      0x20\n        /* \"#utility.yul\":5865:5868   */\n      dup3\n        /* \"#utility.yul\":5861:5873   */\n      add\n        /* \"#utility.yul\":5854:5873   */\n      swap1\n      pop\n        /* \"#utility.yul\":5513:5879   */\n      swap2\n      swap1\n      pop\n      jump\t// out\n        /* \"#utility.yul\":5885:6304   */\n    tag_45:\n        /* \"#utility.yul\":6051:6055   */\n      0x00\n        /* \"#utility.yul\":6089:6091   */\n      0x20\n        /* \"#utility.yul\":6078:6087   */\n      dup3\n        /* \"#utility.yul\":6074:6092   */\n      add\n        /* \"#utility.yul\":6066:6092   */\n      swap1\n      pop\n        /* \"#utility.yul\":6138:6147   */\n      dup2\n        /* \"#utility.yul\":6132:6136   */\n      dup2\n        /* \"#utility.yul\":6128:6148   */\n      sub\n        /* \"#utility.yul\":6124:6125   */\n      0x00\n        /* \"#utility.yul\":6113:6122   */\n      dup4\n        /* \"#utility.yul\":6109:6126   */\n      add\n        /* \"#utility.yul\":6102:6149   */\n      mstore\n        /* \"#utility.yul\":6166:6297   */\n      tag_139\n        /* \"#utility.yul\":6292:6296   */\n      dup2\n        /* \"#utility.yul\":6166:6297   */\n      tag_74\n      jump\t// in\n    tag_139:\n        /* \"#utility.yul\":6158:6297   */\n      swap1\n      pop\n        /* \"#utility.yul\":5885:6304   */\n      swap2\n      swap1\n      pop\n      jump\t// out\n\n    auxdata: 0xa26469706673582212209850a46b77c16716b61000bbc5410a24394a9ef3763a106d9672ab57b1843be864736f6c63430008090033\n}\n",
				"bytecode": {
					"linkReferences": {},
					"object": "608060405260008060006101000a81548160ff021916908315150217905550600060015534801561002f57600080fd5b506109398061003f6000396000f3fe60806040526004361061004a5760003560e01c806301333f061461004f5780634fee13fc1461007a5780638fa8b790146100a3578063ecfc7ecc146100ba578063fde8c63e146100c4575b600080fd5b34801561005b57600080fd5b506100646100ef565b60405161007191906105e3565b60405180910390f35b34801561008657600080fd5b506100a1600480360381019061009c9190610639565b610115565b005b3480156100af57600080fd5b506100b86101ea565b005b6100c2610337565b005b3480156100d057600080fd5b506100d96104b5565b6040516100e69190610694565b60405180910390f35b600460009054906101000a900473ffffffffffffffffffffffffffffffffffffffff1681565b33600060016101000a81548173ffffffffffffffffffffffffffffffffffffffff021916908373ffffffffffffffffffffffffffffffffffffffff16021790555060008060006101000a81548160ff02191690831515021790555081600281905550804261018391906106de565b6003819055507f1e6871a9ec2c22e508757c73d7e2d7d15e2819276867174afb13fcdc9f018df2600060019054906101000a900473ffffffffffffffffffffffffffffffffffffffff166002546040516101de9291906107a2565b60405180910390a15050565b600060019054906101000a900473ffffffffffffffffffffffffffffffffffffffff1673ffffffffffffffffffffffffffffffffffffffff163373ffffffffffffffffffffffffffffffffffffffff161461024457600080fd5b60035442101561025357600080fd5b60016000806101000a81548160ff0219169083151502179055507f0693fe466dadf29e4700c29f41d1504c602b944fa5e6b5f1cb0a3a2ca0702120600460009054906101000a900473ffffffffffffffffffffffffffffffffffffffff166005546040516102c29291906107cb565b60405180910390a1600060019054906101000a900473ffffffffffffffffffffffffffffffffffffffff1673ffffffffffffffffffffffffffffffffffffffff166108fc6005549081150290604051600060405180830381858888f19350505050158015610334573d6000803e3d6000fd5b50565b600154341161037b576040517f08c379a000000000000000000000000000000000000000000000000000000000815260040161037290610877565b60405180910390fd5b42600354116103bf576040517f08c379a00000000000000000000000000000000000000000000000000000000081526004016103b6906108e3565b60405180910390fd5b6000600554146104325760055460066000600460009054906101000a900473ffffffffffffffffffffffffffffffffffffffff1673ffffffffffffffffffffffffffffffffffffffff1673ffffffffffffffffffffffffffffffffffffffff168152602001908152602001600020819055505b33600460006101000a81548173ffffffffffffffffffffffffffffffffffffffff021916908373ffffffffffffffffffffffffffffffffffffffff160217905550346005819055507ff7d2dbe81680a1f0c2b9aaeb63d4184de5c64951ba06bf1b5900341760775a2233346040516104ab9291906107cb565b60405180910390a1565b600080600660003373ffffffffffffffffffffffffffffffffffffffff1673ffffffffffffffffffffffffffffffffffffffff1681526020019081526020016000205490506000811115610599573373ffffffffffffffffffffffffffffffffffffffff166108fc829081150290604051600060405180830381858888f19350505050158015610549573d6000803e3d6000fd5b506000600660003373ffffffffffffffffffffffffffffffffffffffff1673ffffffffffffffffffffffffffffffffffffffff16815260200190815260200160002081905550600191505061059f565b60009150505b90565b600073ffffffffffffffffffffffffffffffffffffffff82169050919050565b60006105cd826105a2565b9050919050565b6105dd816105c2565b82525050565b60006020820190506105f860008301846105d4565b92915050565b600080fd5b6000819050919050565b61061681610603565b811461062157600080fd5b50565b6000813590506106338161060d565b92915050565b600080604083850312156106505761064f6105fe565b5b600061065e85828601610624565b925050602061066f85828601610624565b9150509250929050565b60008115159050919050565b61068e81610679565b82525050565b60006020820190506106a96000830184610685565b92915050565b7f4e487b7100000000000000000000000000000000000000000000000000000000600052601160045260246000fd5b60006106e982610603565b91506106f483610603565b9250827fffffffffffffffffffffffffffffffffffffffffffffffffffffffffffffffff03821115610729576107286106af565b5b828201905092915050565b6000819050919050565b600061075961075461074f846105a2565b610734565b6105a2565b9050919050565b600061076b8261073e565b9050919050565b600061077d82610760565b9050919050565b61078d81610772565b82525050565b61079c81610603565b82525050565b60006040820190506107b76000830185610784565b6107c46020830184610793565b9392505050565b60006040820190506107e060008301856105d4565b6107ed6020830184610793565b9392505050565b600082825260208201905092915050565b7f596f75206861766520706c61636564206c6f7720626964207468616e20746f7060008201527f2062696464657200000000000000000000000000000000000000000000000000602082015250565b60006108616027836107f4565b915061086c82610805565b604082019050919050565b6000602082019050818103600083015261089081610854565b9050919050565b7f41756374696f6e2074696d6520656e6465640000000000000000000000000000600082015250565b60006108cd6012836107f4565b91506108d882610897565b602082019050919050565b600060208201905081810360008301526108fc816108c0565b905091905056fea26469706673582212209850a46b77c16716b61000bbc5410a24394a9ef3763a106d9672ab57b1843be864736f6c63430008090033",
					"opcodes": "PUSH1 0x80 PUSH1 0x40 MSTORE PUSH1 0x0 DUP1 PUSH1 0x0 PUSH2 0x100 EXP DUP2 SLOAD DUP2 PUSH1 0xFF MUL NOT AND SWAP1 DUP4 ISZERO ISZERO MUL OR SWAP1 SSTORE POP PUSH1 0x0 PUSH1 0x1 SSTORE CALLVALUE DUP1 ISZERO PUSH2 0x2F JUMPI PUSH1 0x0 DUP1 REVERT JUMPDEST POP PUSH2 0x939 DUP1 PUSH2 0x3F PUSH1 0x0 CODECOPY PUSH1 0x0 RETURN INVALID PUSH1 0x80 PUSH1 0x40 MSTORE PUSH1 0x4 CALLDATASIZE LT PUSH2 0x4A JUMPI PUSH1 0x0 CALLDATALOAD PUSH1 0xE0 SHR DUP1 PUSH4 0x1333F06 EQ PUSH2 0x4F JUMPI DUP1 PUSH4 0x4FEE13FC EQ PUSH2 0x7A JUMPI DUP1 PUSH4 0x8FA8B790 EQ PUSH2 0xA3 JUMPI DUP1 PUSH4 0xECFC7ECC EQ PUSH2 0xBA JUMPI DUP1 PUSH4 0xFDE8C63E EQ PUSH2 0xC4 JUMPI JUMPDEST PUSH1 0x0 DUP1 REVERT JUMPDEST CALLVALUE DUP1 ISZERO PUSH2 0x5B JUMPI PUSH1 0x0 DUP1 REVERT JUMPDEST POP PUSH2 0x64 PUSH2 0xEF JUMP JUMPDEST PUSH1 0x40 MLOAD PUSH2 0x71 SWAP2 SWAP1 PUSH2 0x5E3 JUMP JUMPDEST PUSH1 0x40 MLOAD DUP1 SWAP2 SUB SWAP1 RETURN JUMPDEST CALLVALUE DUP1 ISZERO PUSH2 0x86 JUMPI PUSH1 0x0 DUP1 REVERT JUMPDEST POP PUSH2 0xA1 PUSH1 0x4 DUP1 CALLDATASIZE SUB DUP2 ADD SWAP1 PUSH2 0x9C SWAP2 SWAP1 PUSH2 0x639 JUMP JUMPDEST PUSH2 0x115 JUMP JUMPDEST STOP JUMPDEST CALLVALUE DUP1 ISZERO PUSH2 0xAF JUMPI PUSH1 0x0 DUP1 REVERT JUMPDEST POP PUSH2 0xB8 PUSH2 0x1EA JUMP JUMPDEST STOP JUMPDEST PUSH2 0xC2 PUSH2 0x337 JUMP JUMPDEST STOP JUMPDEST CALLVALUE DUP1 ISZERO PUSH2 0xD0 JUMPI PUSH1 0x0 DUP1 REVERT JUMPDEST POP PUSH2 0xD9 PUSH2 0x4B5 JUMP JUMPDEST PUSH1 0x40 MLOAD PUSH2 0xE6 SWAP2 SWAP1 PUSH2 0x694 JUMP JUMPDEST PUSH1 0x40 MLOAD DUP1 SWAP2 SUB SWAP1 RETURN JUMPDEST PUSH1 0x4 PUSH1 0x0 SWAP1 SLOAD SWAP1 PUSH2 0x100 EXP SWAP1 DIV PUSH20 0xFFFFFFFFFFFFFFFFFFFFFFFFFFFFFFFFFFFFFFFF AND DUP2 JUMP JUMPDEST CALLER PUSH1 0x0 PUSH1 0x1 PUSH2 0x100 EXP DUP2 SLOAD DUP2 PUSH20 0xFFFFFFFFFFFFFFFFFFFFFFFFFFFFFFFFFFFFFFFF MUL NOT AND SWAP1 DUP4 PUSH20 0xFFFFFFFFFFFFFFFFFFFFFFFFFFFFFFFFFFFFFFFF AND MUL OR SWAP1 SSTORE POP PUSH1 0x0 DUP1 PUSH1 0x0 PUSH2 0x100 EXP DUP2 SLOAD DUP2 PUSH1 0xFF MUL NOT AND SWAP1 DUP4 ISZERO ISZERO MUL OR SWAP1 SSTORE POP DUP2 PUSH1 0x2 DUP2 SWAP1 SSTORE POP DUP1 TIMESTAMP PUSH2 0x183 SWAP2 SWAP1 PUSH2 0x6DE JUMP JUMPDEST PUSH1 0x3 DUP2 SWAP1 SSTORE POP PUSH32 0x1E6871A9EC2C22E508757C73D7E2D7D15E2819276867174AFB13FCDC9F018DF2 PUSH1 0x0 PUSH1 0x1 SWAP1 SLOAD SWAP1 PUSH2 0x100 EXP SWAP1 DIV PUSH20 0xFFFFFFFFFFFFFFFFFFFFFFFFFFFFFFFFFFFFFFFF AND PUSH1 0x2 SLOAD PUSH1 0x40 MLOAD PUSH2 0x1DE SWAP3 SWAP2 SWAP1 PUSH2 0x7A2 JUMP JUMPDEST PUSH1 0x40 MLOAD DUP1 SWAP2 SUB SWAP1 LOG1 POP POP JUMP JUMPDEST PUSH1 0x0 PUSH1 0x1 SWAP1 SLOAD SWAP1 PUSH2 0x100 EXP SWAP1 DIV PUSH20 0xFFFFFFFFFFFFFFFFFFFFFFFFFFFFFFFFFFFFFFFF AND PUSH20 0xFFFFFFFFFFFFFFFFFFFFFFFFFFFFFFFFFFFFFFFF AND CALLER PUSH20 0xFFFFFFFFFFFFFFFFFFFFFFFFFFFFFFFFFFFFFFFF AND EQ PUSH2 0x244 JUMPI PUSH1 0x0 DUP1 REVERT JUMPDEST PUSH1 0x3 SLOAD TIMESTAMP LT ISZERO PUSH2 0x253 JUMPI PUSH1 0x0 DUP1 REVERT JUMPDEST PUSH1 0x1 PUSH1 0x0 DUP1 PUSH2 0x100 EXP DUP2 SLOAD DUP2 PUSH1 0xFF MUL NOT AND SWAP1 DUP4 ISZERO ISZERO MUL OR SWAP1 SSTORE POP PUSH32 0x693FE466DADF29E4700C29F41D1504C602B944FA5E6B5F1CB0A3A2CA0702120 PUSH1 0x4 PUSH1 0x0 SWAP1 SLOAD SWAP1 PUSH2 0x100 EXP SWAP1 DIV PUSH20 0xFFFFFFFFFFFFFFFFFFFFFFFFFFFFFFFFFFFFFFFF AND PUSH1 0x5 SLOAD PUSH1 0x40 MLOAD PUSH2 0x2C2 SWAP3 SWAP2 SWAP1 PUSH2 0x7CB JUMP JUMPDEST PUSH1 0x40 MLOAD DUP1 SWAP2 SUB SWAP1 LOG1 PUSH1 0x0 PUSH1 0x1 SWAP1 SLOAD SWAP1 PUSH2 0x100 EXP SWAP1 DIV PUSH20 0xFFFFFFFFFFFFFFFFFFFFFFFFFFFFFFFFFFFFFFFF AND PUSH20 0xFFFFFFFFFFFFFFFFFFFFFFFFFFFFFFFFFFFFFFFF AND PUSH2 0x8FC PUSH1 0x5 SLOAD SWAP1 DUP2 ISZERO MUL SWAP1 PUSH1 0x40 MLOAD PUSH1 0x0 PUSH1 0x40 MLOAD DUP1 DUP4 SUB DUP2 DUP6 DUP9 DUP9 CALL SWAP4 POP POP POP POP ISZERO DUP1 ISZERO PUSH2 0x334 JUMPI RETURNDATASIZE PUSH1 0x0 DUP1 RETURNDATACOPY RETURNDATASIZE PUSH1 0x0 REVERT JUMPDEST POP JUMP JUMPDEST PUSH1 0x1 SLOAD CALLVALUE GT PUSH2 0x37B JUMPI PUSH1 0x40 MLOAD PUSH32 0x8C379A000000000000000000000000000000000000000000000000000000000 DUP2 MSTORE PUSH1 0x4 ADD PUSH2 0x372 SWAP1 PUSH2 0x877 JUMP JUMPDEST PUSH1 0x40 MLOAD DUP1 SWAP2 SUB SWAP1 REVERT JUMPDEST TIMESTAMP PUSH1 0x3 SLOAD GT PUSH2 0x3BF JUMPI PUSH1 0x40 MLOAD PUSH32 0x8C379A000000000000000000000000000000000000000000000000000000000 DUP2 MSTORE PUSH1 0x4 ADD PUSH2 0x3B6 SWAP1 PUSH2 0x8E3 JUMP JUMPDEST PUSH1 0x40 MLOAD DUP1 SWAP2 SUB SWAP1 REVERT JUMPDEST PUSH1 0x0 PUSH1 0x5 SLOAD EQ PUSH2 0x432 JUMPI PUSH1 0x5 SLOAD PUSH1 0x6 PUSH1 0x0 PUSH1 0x4 PUSH1 0x0 SWAP1 SLOAD SWAP1 PUSH2 0x100 EXP SWAP1 DIV PUSH20 0xFFFFFFFFFFFFFFFFFFFFFFFFFFFFFFFFFFFFFFFF AND PUSH20 0xFFFFFFFFFFFFFFFFFFFFFFFFFFFFFFFFFFFFFFFF AND PUSH20 0xFFFFFFFFFFFFFFFFFFFFFFFFFFFFFFFFFFFFFFFF AND DUP2 MSTORE PUSH1 0x20 ADD SWAP1 DUP2 MSTORE PUSH1 0x20 ADD PUSH1 0x0 KECCAK256 DUP2 SWAP1 SSTORE POP JUMPDEST CALLER PUSH1 0x4 PUSH1 0x0 PUSH2 0x100 EXP DUP2 SLOAD DUP2 PUSH20 0xFFFFFFFFFFFFFFFFFFFFFFFFFFFFFFFFFFFFFFFF MUL NOT AND SWAP1 DUP4 PUSH20 0xFFFFFFFFFFFFFFFFFFFFFFFFFFFFFFFFFFFFFFFF AND MUL OR SWAP1 SSTORE POP CALLVALUE PUSH1 0x5 DUP2 SWAP1 SSTORE POP PUSH32 0xF7D2DBE81680A1F0C2B9AAEB63D4184DE5C64951BA06BF1B5900341760775A22 CALLER CALLVALUE PUSH1 0x40 MLOAD PUSH2 0x4AB SWAP3 SWAP2 SWAP1 PUSH2 0x7CB JUMP JUMPDEST PUSH1 0x40 MLOAD DUP1 SWAP2 SUB SWAP1 LOG1 JUMP JUMPDEST PUSH1 0x0 DUP1 PUSH1 0x6 PUSH1 0x0 CALLER PUSH20 0xFFFFFFFFFFFFFFFFFFFFFFFFFFFFFFFFFFFFFFFF AND PUSH20 0xFFFFFFFFFFFFFFFFFFFFFFFFFFFFFFFFFFFFFFFF AND DUP2 MSTORE PUSH1 0x20 ADD SWAP1 DUP2 MSTORE PUSH1 0x20 ADD PUSH1 0x0 KECCAK256 SLOAD SWAP1 POP PUSH1 0x0 DUP2 GT ISZERO PUSH2 0x599 JUMPI CALLER PUSH20 0xFFFFFFFFFFFFFFFFFFFFFFFFFFFFFFFFFFFFFFFF AND PUSH2 0x8FC DUP3 SWAP1 DUP2 ISZERO MUL SWAP1 PUSH1 0x40 MLOAD PUSH1 0x0 PUSH1 0x40 MLOAD DUP1 DUP4 SUB DUP2 DUP6 DUP9 DUP9 CALL SWAP4 POP POP POP POP ISZERO DUP1 ISZERO PUSH2 0x549 JUMPI RETURNDATASIZE PUSH1 0x0 DUP1 RETURNDATACOPY RETURNDATASIZE PUSH1 0x0 REVERT JUMPDEST POP PUSH1 0x0 PUSH1 0x6 PUSH1 0x0 CALLER PUSH20 0xFFFFFFFFFFFFFFFFFFFFFFFFFFFFFFFFFFFFFFFF AND PUSH20 0xFFFFFFFFFFFFFFFFFFFFFFFFFFFFFFFFFFFFFFFF AND DUP2 MSTORE PUSH1 0x20 ADD SWAP1 DUP2 MSTORE PUSH1 0x20 ADD PUSH1 0x0 KECCAK256 DUP2 SWAP1 SSTORE POP PUSH1 0x1 SWAP2 POP POP PUSH2 0x59F JUMP JUMPDEST PUSH1 0x0 SWAP2 POP POP JUMPDEST SWAP1 JUMP JUMPDEST PUSH1 0x0 PUSH20 0xFFFFFFFFFFFFFFFFFFFFFFFFFFFFFFFFFFFFFFFF DUP3 AND SWAP1 POP SWAP2 SWAP1 POP JUMP JUMPDEST PUSH1 0x0 PUSH2 0x5CD DUP3 PUSH2 0x5A2 JUMP JUMPDEST SWAP1 POP SWAP2 SWAP1 POP JUMP JUMPDEST PUSH2 0x5DD DUP2 PUSH2 0x5C2 JUMP JUMPDEST DUP3 MSTORE POP POP JUMP JUMPDEST PUSH1 0x0 PUSH1 0x20 DUP3 ADD SWAP1 POP PUSH2 0x5F8 PUSH1 0x0 DUP4 ADD DUP5 PUSH2 0x5D4 JUMP JUMPDEST SWAP3 SWAP2 POP POP JUMP JUMPDEST PUSH1 0x0 DUP1 REVERT JUMPDEST PUSH1 0x0 DUP2 SWAP1 POP SWAP2 SWAP1 POP JUMP JUMPDEST PUSH2 0x616 DUP2 PUSH2 0x603 JUMP JUMPDEST DUP2 EQ PUSH2 0x621 JUMPI PUSH1 0x0 DUP1 REVERT JUMPDEST POP JUMP JUMPDEST PUSH1 0x0 DUP2 CALLDATALOAD SWAP1 POP PUSH2 0x633 DUP2 PUSH2 0x60D JUMP JUMPDEST SWAP3 SWAP2 POP POP JUMP JUMPDEST PUSH1 0x0 DUP1 PUSH1 0x40 DUP4 DUP6 SUB SLT ISZERO PUSH2 0x650 JUMPI PUSH2 0x64F PUSH2 0x5FE JUMP JUMPDEST JUMPDEST PUSH1 0x0 PUSH2 0x65E DUP6 DUP3 DUP7 ADD PUSH2 0x624 JUMP JUMPDEST SWAP3 POP POP PUSH1 0x20 PUSH2 0x66F DUP6 DUP3 DUP7 ADD PUSH2 0x624 JUMP JUMPDEST SWAP2 POP POP SWAP3 POP SWAP3 SWAP1 POP JUMP JUMPDEST PUSH1 0x0 DUP2 ISZERO ISZERO SWAP1 POP SWAP2 SWAP1 POP JUMP JUMPDEST PUSH2 0x68E DUP2 PUSH2 0x679 JUMP JUMPDEST DUP3 MSTORE POP POP JUMP JUMPDEST PUSH1 0x0 PUSH1 0x20 DUP3 ADD SWAP1 POP PUSH2 0x6A9 PUSH1 0x0 DUP4 ADD DUP5 PUSH2 0x685 JUMP JUMPDEST SWAP3 SWAP2 POP POP JUMP JUMPDEST PUSH32 0x4E487B7100000000000000000000000000000000000000000000000000000000 PUSH1 0x0 MSTORE PUSH1 0x11 PUSH1 0x4 MSTORE PUSH1 0x24 PUSH1 0x0 REVERT JUMPDEST PUSH1 0x0 PUSH2 0x6E9 DUP3 PUSH2 0x603 JUMP JUMPDEST SWAP2 POP PUSH2 0x6F4 DUP4 PUSH2 0x603 JUMP JUMPDEST SWAP3 POP DUP3 PUSH32 0xFFFFFFFFFFFFFFFFFFFFFFFFFFFFFFFFFFFFFFFFFFFFFFFFFFFFFFFFFFFFFFFF SUB DUP3 GT ISZERO PUSH2 0x729 JUMPI PUSH2 0x728 PUSH2 0x6AF JUMP JUMPDEST JUMPDEST DUP3 DUP3 ADD SWAP1 POP SWAP3 SWAP2 POP POP JUMP JUMPDEST PUSH1 0x0 DUP2 SWAP1 POP SWAP2 SWAP1 POP JUMP JUMPDEST PUSH1 0x0 PUSH2 0x759 PUSH2 0x754 PUSH2 0x74F DUP5 PUSH2 0x5A2 JUMP JUMPDEST PUSH2 0x734 JUMP JUMPDEST PUSH2 0x5A2 JUMP JUMPDEST SWAP1 POP SWAP2 SWAP1 POP JUMP JUMPDEST PUSH1 0x0 PUSH2 0x76B DUP3 PUSH2 0x73E JUMP JUMPDEST SWAP1 POP SWAP2 SWAP1 POP JUMP JUMPDEST PUSH1 0x0 PUSH2 0x77D DUP3 PUSH2 0x760 JUMP JUMPDEST SWAP1 POP SWAP2 SWAP1 POP JUMP JUMPDEST PUSH2 0x78D DUP2 PUSH2 0x772 JUMP JUMPDEST DUP3 MSTORE POP POP JUMP JUMPDEST PUSH2 0x79C DUP2 PUSH2 0x603 JUMP JUMPDEST DUP3 MSTORE POP POP JUMP JUMPDEST PUSH1 0x0 PUSH1 0x40 DUP3 ADD SWAP1 POP PUSH2 0x7B7 PUSH1 0x0 DUP4 ADD DUP6 PUSH2 0x784 JUMP JUMPDEST PUSH2 0x7C4 PUSH1 0x20 DUP4 ADD DUP5 PUSH2 0x793 JUMP JUMPDEST SWAP4 SWAP3 POP POP POP JUMP JUMPDEST PUSH1 0x0 PUSH1 0x40 DUP3 ADD SWAP1 POP PUSH2 0x7E0 PUSH1 0x0 DUP4 ADD DUP6 PUSH2 0x5D4 JUMP JUMPDEST PUSH2 0x7ED PUSH1 0x20 DUP4 ADD DUP5 PUSH2 0x793 JUMP JUMPDEST SWAP4 SWAP3 POP POP POP JUMP JUMPDEST PUSH1 0x0 DUP3 DUP3 MSTORE PUSH1 0x20 DUP3 ADD SWAP1 POP SWAP3 SWAP2 POP POP JUMP JUMPDEST PUSH32 0x596F75206861766520706C61636564206C6F7720626964207468616E20746F70 PUSH1 0x0 DUP3 ADD MSTORE PUSH32 0x2062696464657200000000000000000000000000000000000000000000000000 PUSH1 0x20 DUP3 ADD MSTORE POP JUMP JUMPDEST PUSH1 0x0 PUSH2 0x861 PUSH1 0x27 DUP4 PUSH2 0x7F4 JUMP JUMPDEST SWAP2 POP PUSH2 0x86C DUP3 PUSH2 0x805 JUMP JUMPDEST PUSH1 0x40 DUP3 ADD SWAP1 POP SWAP2 SWAP1 POP JUMP JUMPDEST PUSH1 0x0 PUSH1 0x20 DUP3 ADD SWAP1 POP DUP2 DUP2 SUB PUSH1 0x0 DUP4 ADD MSTORE PUSH2 0x890 DUP2 PUSH2 0x854 JUMP JUMPDEST SWAP1 POP SWAP2 SWAP1 POP JUMP JUMPDEST PUSH32 0x41756374696F6E2074696D6520656E6465640000000000000000000000000000 PUSH1 0x0 DUP3 ADD MSTORE POP JUMP JUMPDEST PUSH1 0x0 PUSH2 0x8CD PUSH1 0x12 DUP4 PUSH2 0x7F4 JUMP JUMPDEST SWAP2 POP PUSH2 0x8D8 DUP3 PUSH2 0x897 JUMP JUMPDEST PUSH1 0x20 DUP3 ADD SWAP1 POP SWAP2 SWAP1 POP JUMP JUMPDEST PUSH1 0x0 PUSH1 0x20 DUP3 ADD SWAP1 POP DUP2 DUP2 SUB PUSH1 0x0 DUP4 ADD MSTORE PUSH2 0x8FC DUP2 PUSH2 0x8C0 JUMP JUMPDEST SWAP1 POP SWAP2 SWAP1 POP JUMP INVALID LOG2 PUSH5 0x6970667358 0x22 SLT KECCAK256 SWAP9 POP LOG4 PUSH12 0x77C16716B61000BBC5410A24 CODECOPY 0x4A SWAP15 RETURN PUSH23 0x3A106D9672AB57B1843BE864736F6C6343000809003300 "
				},
				"gasEstimates": {
					"creation": {
						"codeDepositCost": "472200",
						"executionCost": "29778",
						"totalCost": "501978"
					},
					"external": {
						"cancelAuction()": "infinite",
						"placeBid()": "80947",
						"startAuction(uint256,uint256)": "infinite",
						"topBidder()": "2492",
						"withDrawBid()": "infinite"
					}
				},
				"methodIdentifiers": {
					"cancelAuction()": "8fa8b790",
					"placeBid()": "ecfc7ecc",
					"startAuction(uint256,uint256)": "4fee13fc",
					"topBidder()": "01333f06",
					"withDrawBid()": "fde8c63e"
				}
			},
			"storageLayout": {
				"storage": [
					{
						"astId": 4,
						"contract": "SimpleAuction.sol:simpleAuction",
						"label": "AuctionClosed",
						"offset": 0,
						"slot": "0",
						"type": "t_bool"
					},
					{
						"astId": 6,
						"contract": "SimpleAuction.sol:simpleAuction",
						"label": "auctionOwner",
						"offset": 1,
						"slot": "0",
						"type": "t_address_payable"
					},
					{
						"astId": 9,
						"contract": "SimpleAuction.sol:simpleAuction",
						"label": "topBidAmount",
						"offset": 0,
						"slot": "1",
						"type": "t_uint256"
					},
					{
						"astId": 11,
						"contract": "SimpleAuction.sol:simpleAuction",
						"label": "auctionStartPrice",
						"offset": 0,
						"slot": "2",
						"type": "t_uint256"
					},
					{
						"astId": 13,
						"contract": "SimpleAuction.sol:simpleAuction",
						"label": "auctionTime",
						"offset": 0,
						"slot": "3",
						"type": "t_uint256"
					},
					{
						"astId": 15,
						"contract": "SimpleAuction.sol:simpleAuction",
						"label": "topBidder",
						"offset": 0,
						"slot": "4",
						"type": "t_address"
					},
					{
						"astId": 17,
						"contract": "SimpleAuction.sol:simpleAuction",
						"label": "topBid",
						"offset": 0,
						"slot": "5",
						"type": "t_uint256"
					},
					{
						"astId": 21,
						"contract": "SimpleAuction.sol:simpleAuction",
						"label": "pendingReturns",
						"offset": 0,
						"slot": "6",
						"type": "t_mapping(t_address,t_uint256)"
					}
				],
				"types": {
					"t_address": {
						"encoding": "inplace",
						"label": "address",
						"numberOfBytes": "20"
					},
					"t_address_payable": {
						"encoding": "inplace",
						"label": "address payable",
						"numberOfBytes": "20"
					},
					"t_bool": {
						"encoding": "inplace",
						"label": "bool",
						"numberOfBytes": "1"
					},
					"t_mapping(t_address,t_uint256)": {
						"encoding": "mapping",
						"key": "t_address",
						"label": "mapping(address => uint256)",
						"numberOfBytes": "32",
						"value": "t_uint256"
					},
					"t_uint256": {
						"encoding": "inplace",
						"label": "uint256",
						"numberOfBytes": "32"
					}
				}
			},
			"userdoc": {
				"kind": "user",
				"methods": {},
				"version": 1
			}
		}
	}
}