{
	"PetSanctuary.sol": {
		"PetSanctuary": {
			"abi": [
				{
					"inputs": [],
					"stateMutability": "nonpayable",
					"type": "constructor"
				},
				{
					"inputs": [
						{
							"internalType": "enum PetSanctuary.AnimalKind",
							"name": "_animalKind",
							"type": "uint8"
						},
						{
							"internalType": "uint256",
							"name": "_howManyPieces",
							"type": "uint256"
						}
					],
					"name": "add",
					"outputs": [],
					"stateMutability": "nonpayable",
					"type": "function"
				},
				{
					"inputs": [],
					"name": "owner",
					"outputs": [
						{
							"internalType": "address",
							"name": "",
							"type": "address"
						}
					],
					"stateMutability": "view",
					"type": "function"
				}
			],
			"devdoc": {
				"kind": "dev",
				"methods": {},
				"version": 1
			},
			"evm": {
				"assembly": "    /* \"PetSanctuary.sol\":70:495  contract PetSanctuary{... */\n  mstore(0x40, 0x80)\n    /* \"PetSanctuary.sol\":243:289  constructor(){... */\n  callvalue\n  dup1\n  iszero\n  tag_1\n  jumpi\n  0x00\n  dup1\n  revert\ntag_1:\n  pop\n    /* \"PetSanctuary.sol\":272:282  msg.sender */\n  caller\n    /* \"PetSanctuary.sol\":266:271  owner */\n  0x00\n  0x01\n    /* \"PetSanctuary.sol\":266:282  owner=msg.sender */\n  0x0100\n  exp\n  dup2\n  sload\n  dup2\n  0xffffffffffffffffffffffffffffffffffffffff\n  mul\n  not\n  and\n  swap1\n  dup4\n  0xffffffffffffffffffffffffffffffffffffffff\n  and\n  mul\n  or\n  swap1\n  sstore\n  pop\n    /* \"PetSanctuary.sol\":70:495  contract PetSanctuary{... */\n  dataSize(sub_0)\n  dup1\n  dataOffset(sub_0)\n  0x00\n  codecopy\n  0x00\n  return\nstop\n\nsub_0: assembly {\n        /* \"PetSanctuary.sol\":70:495  contract PetSanctuary{... */\n      mstore(0x40, 0x80)\n      callvalue\n      dup1\n      iszero\n      tag_1\n      jumpi\n      0x00\n      dup1\n      revert\n    tag_1:\n      pop\n      jumpi(tag_2, lt(calldatasize, 0x04))\n      shr(0xe0, calldataload(0x00))\n      dup1\n      0x1b54ac80\n      eq\n      tag_3\n      jumpi\n      dup1\n      0x8da5cb5b\n      eq\n      tag_4\n      jumpi\n    tag_2:\n      0x00\n      dup1\n      revert\n        /* \"PetSanctuary.sol\":407:493  function add(AnimalKind _animalKind, uint256 _howManyPieces) onlyOwner public {... */\n    tag_3:\n      tag_5\n      0x04\n      dup1\n      calldatasize\n      sub\n      dup2\n      add\n      swap1\n      tag_6\n      swap2\n      swap1\n      tag_7\n      jump\t// in\n    tag_6:\n      tag_8\n      jump\t// in\n    tag_5:\n      stop\n        /* \"PetSanctuary.sol\":173:193  address public owner */\n    tag_4:\n      tag_9\n      tag_10\n      jump\t// in\n    tag_9:\n      mload(0x40)\n      tag_11\n      swap2\n      swap1\n      tag_12\n      jump\t// in\n    tag_11:\n      mload(0x40)\n      dup1\n      swap2\n      sub\n      swap1\n      return\n        /* \"PetSanctuary.sol\":407:493  function add(AnimalKind _animalKind, uint256 _howManyPieces) onlyOwner public {... */\n    tag_8:\n        /* \"PetSanctuary.sol\":346:351  owner */\n      0x00\n      0x01\n      swap1\n      sload\n      swap1\n      0x0100\n      exp\n      swap1\n      div\n      0xffffffffffffffffffffffffffffffffffffffff\n      and\n        /* \"PetSanctuary.sol\":332:351  msg.sender == owner */\n      0xffffffffffffffffffffffffffffffffffffffff\n      and\n        /* \"PetSanctuary.sol\":332:342  msg.sender */\n      caller\n        /* \"PetSanctuary.sol\":332:351  msg.sender == owner */\n      0xffffffffffffffffffffffffffffffffffffffff\n      and\n      eq\n        /* \"PetSanctuary.sol\":324:384  require(msg.sender == owner, 'Only owner can give shelter ') */\n      tag_14\n      jumpi\n      mload(0x40)\n      0x08c379a000000000000000000000000000000000000000000000000000000000\n      dup2\n      mstore\n      0x04\n      add\n      tag_15\n      swap1\n      tag_16\n      jump\t// in\n    tag_15:\n      mload(0x40)\n      dup1\n      swap2\n      sub\n      swap1\n      revert\n    tag_14:\n        /* \"PetSanctuary.sol\":407:493  function add(AnimalKind _animalKind, uint256 _howManyPieces) onlyOwner public {... */\n      pop\n      pop\n      jump\t// out\n        /* \"PetSanctuary.sol\":173:193  address public owner */\n    tag_10:\n      0x00\n      0x01\n      swap1\n      sload\n      swap1\n      0x0100\n      exp\n      swap1\n      div\n      0xffffffffffffffffffffffffffffffffffffffff\n      and\n      dup2\n      jump\t// out\n        /* \"#utility.yul\":88:205   */\n    tag_19:\n        /* \"#utility.yul\":197:198   */\n      0x00\n        /* \"#utility.yul\":194:195   */\n      dup1\n        /* \"#utility.yul\":187:199   */\n      revert\n        /* \"#utility.yul\":334:445   */\n    tag_21:\n        /* \"#utility.yul\":419:420   */\n      0x05\n        /* \"#utility.yul\":412:417   */\n      dup2\n        /* \"#utility.yul\":409:421   */\n      lt\n        /* \"#utility.yul\":399:439   */\n      tag_37\n      jumpi\n        /* \"#utility.yul\":435:436   */\n      0x00\n        /* \"#utility.yul\":432:433   */\n      dup1\n        /* \"#utility.yul\":425:437   */\n      revert\n        /* \"#utility.yul\":399:439   */\n    tag_37:\n        /* \"#utility.yul\":334:445   */\n      pop\n      jump\t// out\n        /* \"#utility.yul\":451:614   */\n    tag_22:\n        /* \"#utility.yul\":509:514   */\n      0x00\n        /* \"#utility.yul\":547:553   */\n      dup2\n        /* \"#utility.yul\":534:554   */\n      calldataload\n        /* \"#utility.yul\":525:554   */\n      swap1\n      pop\n        /* \"#utility.yul\":563:608   */\n      tag_39\n        /* \"#utility.yul\":602:607   */\n      dup2\n        /* \"#utility.yul\":563:608   */\n      tag_21\n      jump\t// in\n    tag_39:\n        /* \"#utility.yul\":451:614   */\n      swap3\n      swap2\n      pop\n      pop\n      jump\t// out\n        /* \"#utility.yul\":620:697   */\n    tag_23:\n        /* \"#utility.yul\":657:664   */\n      0x00\n        /* \"#utility.yul\":686:691   */\n      dup2\n        /* \"#utility.yul\":675:691   */\n      swap1\n      pop\n        /* \"#utility.yul\":620:697   */\n      swap2\n      swap1\n      pop\n      jump\t// out\n        /* \"#utility.yul\":703:825   */\n    tag_24:\n        /* \"#utility.yul\":776:800   */\n      tag_42\n        /* \"#utility.yul\":794:799   */\n      dup2\n        /* \"#utility.yul\":776:800   */\n      tag_23\n      jump\t// in\n    tag_42:\n        /* \"#utility.yul\":769:774   */\n      dup2\n        /* \"#utility.yul\":766:801   */\n      eq\n        /* \"#utility.yul\":756:819   */\n      tag_43\n      jumpi\n        /* \"#utility.yul\":815:816   */\n      0x00\n        /* \"#utility.yul\":812:813   */\n      dup1\n        /* \"#utility.yul\":805:817   */\n      revert\n        /* \"#utility.yul\":756:819   */\n    tag_43:\n        /* \"#utility.yul\":703:825   */\n      pop\n      jump\t// out\n        /* \"#utility.yul\":831:970   */\n    tag_25:\n        /* \"#utility.yul\":877:882   */\n      0x00\n        /* \"#utility.yul\":915:921   */\n      dup2\n        /* \"#utility.yul\":902:922   */\n      calldataload\n        /* \"#utility.yul\":893:922   */\n      swap1\n      pop\n        /* \"#utility.yul\":931:964   */\n      tag_45\n        /* \"#utility.yul\":958:963   */\n      dup2\n        /* \"#utility.yul\":931:964   */\n      tag_24\n      jump\t// in\n    tag_45:\n        /* \"#utility.yul\":831:970   */\n      swap3\n      swap2\n      pop\n      pop\n      jump\t// out\n        /* \"#utility.yul\":976:1474   */\n    tag_7:\n        /* \"#utility.yul\":1056:1062   */\n      0x00\n        /* \"#utility.yul\":1064:1070   */\n      dup1\n        /* \"#utility.yul\":1113:1115   */\n      0x40\n        /* \"#utility.yul\":1101:1110   */\n      dup4\n        /* \"#utility.yul\":1092:1099   */\n      dup6\n        /* \"#utility.yul\":1088:1111   */\n      sub\n        /* \"#utility.yul\":1084:1116   */\n      slt\n        /* \"#utility.yul\":1081:1200   */\n      iszero\n      tag_47\n      jumpi\n        /* \"#utility.yul\":1119:1198   */\n      tag_48\n      tag_19\n      jump\t// in\n    tag_48:\n        /* \"#utility.yul\":1081:1200   */\n    tag_47:\n        /* \"#utility.yul\":1239:1240   */\n      0x00\n        /* \"#utility.yul\":1264:1329   */\n      tag_49\n        /* \"#utility.yul\":1321:1328   */\n      dup6\n        /* \"#utility.yul\":1312:1318   */\n      dup3\n        /* \"#utility.yul\":1301:1310   */\n      dup7\n        /* \"#utility.yul\":1297:1319   */\n      add\n        /* \"#utility.yul\":1264:1329   */\n      tag_22\n      jump\t// in\n    tag_49:\n        /* \"#utility.yul\":1254:1329   */\n      swap3\n      pop\n        /* \"#utility.yul\":1210:1339   */\n      pop\n        /* \"#utility.yul\":1378:1380   */\n      0x20\n        /* \"#utility.yul\":1404:1457   */\n      tag_50\n        /* \"#utility.yul\":1449:1456   */\n      dup6\n        /* \"#utility.yul\":1440:1446   */\n      dup3\n        /* \"#utility.yul\":1429:1438   */\n      dup7\n        /* \"#utility.yul\":1425:1447   */\n      add\n        /* \"#utility.yul\":1404:1457   */\n      tag_25\n      jump\t// in\n    tag_50:\n        /* \"#utility.yul\":1394:1457   */\n      swap2\n      pop\n        /* \"#utility.yul\":1349:1467   */\n      pop\n        /* \"#utility.yul\":976:1474   */\n      swap3\n      pop\n      swap3\n      swap1\n      pop\n      jump\t// out\n        /* \"#utility.yul\":1480:1606   */\n    tag_26:\n        /* \"#utility.yul\":1517:1524   */\n      0x00\n        /* \"#utility.yul\":1557:1599   */\n      0xffffffffffffffffffffffffffffffffffffffff\n        /* \"#utility.yul\":1550:1555   */\n      dup3\n        /* \"#utility.yul\":1546:1600   */\n      and\n        /* \"#utility.yul\":1535:1600   */\n      swap1\n      pop\n        /* \"#utility.yul\":1480:1606   */\n      swap2\n      swap1\n      pop\n      jump\t// out\n        /* \"#utility.yul\":1612:1708   */\n    tag_27:\n        /* \"#utility.yul\":1649:1656   */\n      0x00\n        /* \"#utility.yul\":1678:1702   */\n      tag_53\n        /* \"#utility.yul\":1696:1701   */\n      dup3\n        /* \"#utility.yul\":1678:1702   */\n      tag_26\n      jump\t// in\n    tag_53:\n        /* \"#utility.yul\":1667:1702   */\n      swap1\n      pop\n        /* \"#utility.yul\":1612:1708   */\n      swap2\n      swap1\n      pop\n      jump\t// out\n        /* \"#utility.yul\":1714:1832   */\n    tag_28:\n        /* \"#utility.yul\":1801:1825   */\n      tag_55\n        /* \"#utility.yul\":1819:1824   */\n      dup2\n        /* \"#utility.yul\":1801:1825   */\n      tag_27\n      jump\t// in\n    tag_55:\n        /* \"#utility.yul\":1796:1799   */\n      dup3\n        /* \"#utility.yul\":1789:1826   */\n      mstore\n        /* \"#utility.yul\":1714:1832   */\n      pop\n      pop\n      jump\t// out\n        /* \"#utility.yul\":1838:2060   */\n    tag_12:\n        /* \"#utility.yul\":1931:1935   */\n      0x00\n        /* \"#utility.yul\":1969:1971   */\n      0x20\n        /* \"#utility.yul\":1958:1967   */\n      dup3\n        /* \"#utility.yul\":1954:1972   */\n      add\n        /* \"#utility.yul\":1946:1972   */\n      swap1\n      pop\n        /* \"#utility.yul\":1982:2053   */\n      tag_57\n        /* \"#utility.yul\":2050:2051   */\n      0x00\n        /* \"#utility.yul\":2039:2048   */\n      dup4\n        /* \"#utility.yul\":2035:2052   */\n      add\n        /* \"#utility.yul\":2026:2032   */\n      dup5\n        /* \"#utility.yul\":1982:2053   */\n      tag_28\n      jump\t// in\n    tag_57:\n        /* \"#utility.yul\":1838:2060   */\n      swap3\n      swap2\n      pop\n      pop\n      jump\t// out\n        /* \"#utility.yul\":2066:2235   */\n    tag_29:\n        /* \"#utility.yul\":2150:2161   */\n      0x00\n        /* \"#utility.yul\":2184:2190   */\n      dup3\n        /* \"#utility.yul\":2179:2182   */\n      dup3\n        /* \"#utility.yul\":2172:2191   */\n      mstore\n        /* \"#utility.yul\":2224:2228   */\n      0x20\n        /* \"#utility.yul\":2219:2222   */\n      dup3\n        /* \"#utility.yul\":2215:2229   */\n      add\n        /* \"#utility.yul\":2200:2229   */\n      swap1\n      pop\n        /* \"#utility.yul\":2066:2235   */\n      swap3\n      swap2\n      pop\n      pop\n      jump\t// out\n        /* \"#utility.yul\":2241:2419   */\n    tag_30:\n        /* \"#utility.yul\":2381:2411   */\n      0x4f6e6c79206f776e65722063616e2067697665207368656c7465722000000000\n        /* \"#utility.yul\":2377:2378   */\n      0x00\n        /* \"#utility.yul\":2369:2375   */\n      dup3\n        /* \"#utility.yul\":2365:2379   */\n      add\n        /* \"#utility.yul\":2358:2412   */\n      mstore\n        /* \"#utility.yul\":2241:2419   */\n      pop\n      jump\t// out\n        /* \"#utility.yul\":2425:2791   */\n    tag_31:\n        /* \"#utility.yul\":2567:2570   */\n      0x00\n        /* \"#utility.yul\":2588:2655   */\n      tag_61\n        /* \"#utility.yul\":2652:2654   */\n      0x1c\n        /* \"#utility.yul\":2647:2650   */\n      dup4\n        /* \"#utility.yul\":2588:2655   */\n      tag_29\n      jump\t// in\n    tag_61:\n        /* \"#utility.yul\":2581:2655   */\n      swap2\n      pop\n        /* \"#utility.yul\":2664:2757   */\n      tag_62\n        /* \"#utility.yul\":2753:2756   */\n      dup3\n        /* \"#utility.yul\":2664:2757   */\n      tag_30\n      jump\t// in\n    tag_62:\n        /* \"#utility.yul\":2782:2784   */\n      0x20\n        /* \"#utility.yul\":2777:2780   */\n      dup3\n        /* \"#utility.yul\":2773:2785   */\n      add\n        /* \"#utility.yul\":2766:2785   */\n      swap1\n      pop\n        /* \"#utility.yul\":2425:2791   */\n      swap2\n      swap1\n      pop\n      jump\t// out\n        /* \"#utility.yul\":2797:3216   */\n    tag_16:\n        /* \"#utility.yul\":2963:2967   */\n      0x00\n        /* \"#utility.yul\":3001:3003   */\n      0x20\n        /* \"#utility.yul\":2990:2999   */\n      dup3\n        /* \"#utility.yul\":2986:3004   */\n      add\n        /* \"#utility.yul\":2978:3004   */\n      swap1\n      pop\n        /* \"#utility.yul\":3050:3059   */\n      dup2\n        /* \"#utility.yul\":3044:3048   */\n      dup2\n        /* \"#utility.yul\":3040:3060   */\n      sub\n        /* \"#utility.yul\":3036:3037   */\n      0x00\n        /* \"#utility.yul\":3025:3034   */\n      dup4\n        /* \"#utility.yul\":3021:3038   */\n      add\n        /* \"#utility.yul\":3014:3061   */\n      mstore\n        /* \"#utility.yul\":3078:3209   */\n      tag_64\n        /* \"#utility.yul\":3204:3208   */\n      dup2\n        /* \"#utility.yul\":3078:3209   */\n      tag_31\n      jump\t// in\n    tag_64:\n        /* \"#utility.yul\":3070:3209   */\n      swap1\n      pop\n        /* \"#utility.yul\":2797:3216   */\n      swap2\n      swap1\n      pop\n      jump\t// out\n\n    auxdata: 0xa264697066735822122058e8ca2e71d2b59827a9a3ea41a8bfb4cb42ff362856346b7888c95229e95cbc64736f6c63430008090033\n}\n",
				"bytecode": {
					"linkReferences": {},
					"object": "608060405234801561001057600080fd5b5033600060016101000a81548173ffffffffffffffffffffffffffffffffffffffff021916908373ffffffffffffffffffffffffffffffffffffffff1602179055506102de806100616000396000f3fe608060405234801561001057600080fd5b50600436106100365760003560e01c80631b54ac801461003b5780638da5cb5b14610057575b600080fd5b6100556004803603810190610050919061018f565b610075565b005b61005f610109565b60405161006c9190610210565b60405180910390f35b600060019054906101000a900473ffffffffffffffffffffffffffffffffffffffff1673ffffffffffffffffffffffffffffffffffffffff163373ffffffffffffffffffffffffffffffffffffffff1614610105576040517f08c379a00000000000000000000000000000000000000000000000000000000081526004016100fc90610288565b60405180910390fd5b5050565b600060019054906101000a900473ffffffffffffffffffffffffffffffffffffffff1681565b600080fd5b6005811061014157600080fd5b50565b60008135905061015381610134565b92915050565b6000819050919050565b61016c81610159565b811461017757600080fd5b50565b60008135905061018981610163565b92915050565b600080604083850312156101a6576101a561012f565b5b60006101b485828601610144565b92505060206101c58582860161017a565b9150509250929050565b600073ffffffffffffffffffffffffffffffffffffffff82169050919050565b60006101fa826101cf565b9050919050565b61020a816101ef565b82525050565b60006020820190506102256000830184610201565b92915050565b600082825260208201905092915050565b7f4f6e6c79206f776e65722063616e2067697665207368656c7465722000000000600082015250565b6000610272601c8361022b565b915061027d8261023c565b602082019050919050565b600060208201905081810360008301526102a181610265565b905091905056fea264697066735822122058e8ca2e71d2b59827a9a3ea41a8bfb4cb42ff362856346b7888c95229e95cbc64736f6c63430008090033",
					"opcodes": "PUSH1 0x80 PUSH1 0x40 MSTORE CALLVALUE DUP1 ISZERO PUSH2 0x10 JUMPI PUSH1 0x0 DUP1 REVERT JUMPDEST POP CALLER PUSH1 0x0 PUSH1 0x1 PUSH2 0x100 EXP DUP2 SLOAD DUP2 PUSH20 0xFFFFFFFFFFFFFFFFFFFFFFFFFFFFFFFFFFFFFFFF MUL NOT AND SWAP1 DUP4 PUSH20 0xFFFFFFFFFFFFFFFFFFFFFFFFFFFFFFFFFFFFFFFF AND MUL OR SWAP1 SSTORE POP PUSH2 0x2DE DUP1 PUSH2 0x61 PUSH1 0x0 CODECOPY PUSH1 0x0 RETURN INVALID PUSH1 0x80 PUSH1 0x40 MSTORE CALLVALUE DUP1 ISZERO PUSH2 0x10 JUMPI PUSH1 0x0 DUP1 REVERT JUMPDEST POP PUSH1 0x4 CALLDATASIZE LT PUSH2 0x36 JUMPI PUSH1 0x0 CALLDATALOAD PUSH1 0xE0 SHR DUP1 PUSH4 0x1B54AC80 EQ PUSH2 0x3B JUMPI DUP1 PUSH4 0x8DA5CB5B EQ PUSH2 0x57 JUMPI JUMPDEST PUSH1 0x0 DUP1 REVERT JUMPDEST PUSH2 0x55 PUSH1 0x4 DUP1 CALLDATASIZE SUB DUP2 ADD SWAP1 PUSH2 0x50 SWAP2 SWAP1 PUSH2 0x18F JUMP JUMPDEST PUSH2 0x75 JUMP JUMPDEST STOP JUMPDEST PUSH2 0x5F PUSH2 0x109 JUMP JUMPDEST PUSH1 0x40 MLOAD PUSH2 0x6C SWAP2 SWAP1 PUSH2 0x210 JUMP JUMPDEST PUSH1 0x40 MLOAD DUP1 SWAP2 SUB SWAP1 RETURN JUMPDEST PUSH1 0x0 PUSH1 0x1 SWAP1 SLOAD SWAP1 PUSH2 0x100 EXP SWAP1 DIV PUSH20 0xFFFFFFFFFFFFFFFFFFFFFFFFFFFFFFFFFFFFFFFF AND PUSH20 0xFFFFFFFFFFFFFFFFFFFFFFFFFFFFFFFFFFFFFFFF AND CALLER PUSH20 0xFFFFFFFFFFFFFFFFFFFFFFFFFFFFFFFFFFFFFFFF AND EQ PUSH2 0x105 JUMPI PUSH1 0x40 MLOAD PUSH32 0x8C379A000000000000000000000000000000000000000000000000000000000 DUP2 MSTORE PUSH1 0x4 ADD PUSH2 0xFC SWAP1 PUSH2 0x288 JUMP JUMPDEST PUSH1 0x40 MLOAD DUP1 SWAP2 SUB SWAP1 REVERT JUMPDEST POP POP JUMP JUMPDEST PUSH1 0x0 PUSH1 0x1 SWAP1 SLOAD SWAP1 PUSH2 0x100 EXP SWAP1 DIV PUSH20 0xFFFFFFFFFFFFFFFFFFFFFFFFFFFFFFFFFFFFFFFF AND DUP2 JUMP JUMPDEST PUSH1 0x0 DUP1 REVERT JUMPDEST PUSH1 0x5 DUP2 LT PUSH2 0x141 JUMPI PUSH1 0x0 DUP1 REVERT JUMPDEST POP JUMP JUMPDEST PUSH1 0x0 DUP2 CALLDATALOAD SWAP1 POP PUSH2 0x153 DUP2 PUSH2 0x134 JUMP JUMPDEST SWAP3 SWAP2 POP POP JUMP JUMPDEST PUSH1 0x0 DUP2 SWAP1 POP SWAP2 SWAP1 POP JUMP JUMPDEST PUSH2 0x16C DUP2 PUSH2 0x159 JUMP JUMPDEST DUP2 EQ PUSH2 0x177 JUMPI PUSH1 0x0 DUP1 REVERT JUMPDEST POP JUMP JUMPDEST PUSH1 0x0 DUP2 CALLDATALOAD SWAP1 POP PUSH2 0x189 DUP2 PUSH2 0x163 JUMP JUMPDEST SWAP3 SWAP2 POP POP JUMP JUMPDEST PUSH1 0x0 DUP1 PUSH1 0x40 DUP4 DUP6 SUB SLT ISZERO PUSH2 0x1A6 JUMPI PUSH2 0x1A5 PUSH2 0x12F JUMP JUMPDEST JUMPDEST PUSH1 0x0 PUSH2 0x1B4 DUP6 DUP3 DUP7 ADD PUSH2 0x144 JUMP JUMPDEST SWAP3 POP POP PUSH1 0x20 PUSH2 0x1C5 DUP6 DUP3 DUP7 ADD PUSH2 0x17A JUMP JUMPDEST SWAP2 POP POP SWAP3 POP SWAP3 SWAP1 POP JUMP JUMPDEST PUSH1 0x0 PUSH20 0xFFFFFFFFFFFFFFFFFFFFFFFFFFFFFFFFFFFFFFFF DUP3 AND SWAP1 POP SWAP2 SWAP1 POP JUMP JUMPDEST PUSH1 0x0 PUSH2 0x1FA DUP3 PUSH2 0x1CF JUMP JUMPDEST SWAP1 POP SWAP2 SWAP1 POP JUMP JUMPDEST PUSH2 0x20A DUP2 PUSH2 0x1EF JUMP JUMPDEST DUP3 MSTORE POP POP JUMP JUMPDEST PUSH1 0x0 PUSH1 0x20 DUP3 ADD SWAP1 POP PUSH2 0x225 PUSH1 0x0 DUP4 ADD DUP5 PUSH2 0x201 JUMP JUMPDEST SWAP3 SWAP2 POP POP JUMP JUMPDEST PUSH1 0x0 DUP3 DUP3 MSTORE PUSH1 0x20 DUP3 ADD SWAP1 POP SWAP3 SWAP2 POP POP JUMP JUMPDEST PUSH32 0x4F6E6C79206F776E65722063616E2067697665207368656C7465722000000000 PUSH1 0x0 DUP3 ADD MSTORE POP JUMP JUMPDEST PUSH1 0x0 PUSH2 0x272 PUSH1 0x1C DUP4 PUSH2 0x22B JUMP JUMPDEST SWAP2 POP PUSH2 0x27D DUP3 PUSH2 0x23C JUMP JUMPDEST PUSH1 0x20 DUP3 ADD SWAP1 POP SWAP2 SWAP1 POP JUMP JUMPDEST PUSH1 0x0 PUSH1 0x20 DUP3 ADD SWAP1 POP DUP2 DUP2 SUB PUSH1 0x0 DUP4 ADD MSTORE PUSH2 0x2A1 DUP2 PUSH2 0x265 JUMP JUMPDEST SWAP1 POP SWAP2 SWAP1 POP JUMP INVALID LOG2 PUSH5 0x6970667358 0x22 SLT KECCAK256 PC 0xE8 0xCA 0x2E PUSH18 0xD2B59827A9A3EA41A8BFB4CB42FF36285634 PUSH12 0x7888C95229E95CBC64736F6C PUSH4 0x43000809 STOP CALLER "
				},
				"gasEstimates": {
					"creation": {
						"codeDepositCost": "146800",
						"executionCost": "24506",
						"totalCost": "171306"
					},
					"external": {
						"add(uint8,uint256)": "3019",
						"owner()": "2564"
					}
				},
				"methodIdentifiers": {
					"add(uint8,uint256)": "1b54ac80",
					"owner()": "8da5cb5b"
				}
			},
			"storageLayout": {
				"storage": [
					{
						"astId": 10,
						"contract": "PetSanctuary.sol:PetSanctuary",
						"label": "animalKind",
						"offset": 0,
						"slot": "0",
						"type": "t_enum(AnimalKind)7"
					},
					{
						"astId": 12,
						"contract": "PetSanctuary.sol:PetSanctuary",
						"label": "owner",
						"offset": 1,
						"slot": "0",
						"type": "t_address"
					},
					{
						"astId": 17,
						"contract": "PetSanctuary.sol:PetSanctuary",
						"label": "animals",
						"offset": 0,
						"slot": "1",
						"type": "t_mapping(t_enum(AnimalKind)7,t_uint256)"
					}
				],
				"types": {
					"t_address": {
						"encoding": "inplace",
						"label": "address",
						"numberOfBytes": "20"
					},
					"t_enum(AnimalKind)7": {
						"encoding": "inplace",
						"label": "enum PetSanctuary.AnimalKind",
						"numberOfBytes": "1"
					},
					"t_mapping(t_enum(AnimalKind)7,t_uint256)": {
						"encoding": "mapping",
						"key": "t_enum(AnimalKind)7",
						"label": "mapping(enum PetSanctuary.AnimalKind => uint256)",
						"numberOfBytes": "32",
						"value": "t_uint256"
					},
					"t_uint256": {
						"encoding": "inplace",
						"label": "uint256",
						"numberOfBytes": "32"
					}
				}
			},
			"userdoc": {
				"kind": "user",
				"methods": {},
				"version": 1
			}
		}
	}
}