{
	"MyContract.sol": {
		"MyContract": {
			"abi": [
				{
					"inputs": [],
					"name": "checkState",
					"outputs": [
						{
							"internalType": "bool",
							"name": "",
							"type": "bool"
						}
					],
					"stateMutability": "view",
					"type": "function"
				},
				{
					"inputs": [],
					"name": "setState",
					"outputs": [],
					"stateMutability": "nonpayable",
					"type": "function"
				},
				{
					"inputs": [],
					"name": "state",
					"outputs": [
						{
							"internalType": "enum MyContract.State",
							"name": "",
							"type": "uint8"
						}
					],
					"stateMutability": "view",
					"type": "function"
				}
			],
			"devdoc": {
				"methods": {}
			},
			"evm": {
				"assembly": "    /* \"MyContract.sol\":71:323  contract MyContract{... */\n  mstore(0x40, 0x80)\n  callvalue\n  dup1\n  iszero\n  tag_1\n  jumpi\n  0x00\n  dup1\n  revert\ntag_1:\n  pop\n  dataSize(sub_0)\n  dup1\n  dataOffset(sub_0)\n  0x00\n  codecopy\n  0x00\n  return\nstop\n\nsub_0: assembly {\n        /* \"MyContract.sol\":71:323  contract MyContract{... */\n      mstore(0x40, 0x80)\n      callvalue\n      dup1\n      iszero\n      tag_1\n      jumpi\n      0x00\n      dup1\n      revert\n    tag_1:\n      pop\n      jumpi(tag_2, lt(calldatasize, 0x04))\n      shr(0xe0, calldataload(0x00))\n      dup1\n      0x1203402f\n      eq\n      tag_3\n      jumpi\n      dup1\n      0x96dfcbea\n      eq\n      tag_4\n      jumpi\n      dup1\n      0xc19d93fb\n      eq\n      tag_5\n      jumpi\n    tag_2:\n      0x00\n      dup1\n      revert\n        /* \"MyContract.sol\":162:223  function setState() public {... */\n    tag_3:\n      tag_6\n      tag_7\n      jump\t// in\n    tag_6:\n      stop\n        /* \"MyContract.sol\":228:321  function checkState() public view returns(bool) {... */\n    tag_4:\n      tag_8\n      tag_9\n      jump\t// in\n    tag_8:\n      mload(0x40)\n      dup1\n      dup3\n      iszero\n      iszero\n      iszero\n      iszero\n      dup2\n      mstore\n      0x20\n      add\n      swap2\n      pop\n      pop\n      mload(0x40)\n      dup1\n      swap2\n      sub\n      swap1\n      return\n        /* \"MyContract.sol\":138:156  State public state */\n    tag_5:\n      tag_10\n      tag_11\n      jump\t// in\n    tag_10:\n      mload(0x40)\n      dup1\n      dup3\n      0x02\n      dup2\n      gt\n      iszero\n      tag_12\n      jumpi\n      invalid\n    tag_12:\n      0xff\n      and\n      dup2\n      mstore\n      0x20\n      add\n      swap2\n      pop\n      pop\n      mload(0x40)\n      dup1\n      swap2\n      sub\n      swap1\n      return\n        /* \"MyContract.sol\":162:223  function setState() public {... */\n    tag_7:\n        /* \"MyContract.sol\":205:216  State.Ready */\n      0x01\n        /* \"MyContract.sol\":199:204  state */\n      0x00\n      dup1\n        /* \"MyContract.sol\":199:216  state=State.Ready */\n      0x0100\n      exp\n      dup2\n      sload\n      dup2\n      0xff\n      mul\n      not\n      and\n      swap1\n      dup4\n      0x02\n      dup2\n      gt\n      iszero\n      tag_14\n      jumpi\n      invalid\n    tag_14:\n      mul\n      or\n      swap1\n      sstore\n      pop\n        /* \"MyContract.sol\":162:223  function setState() public {... */\n      jump\t// out\n        /* \"MyContract.sol\":228:321  function checkState() public view returns(bool) {... */\n    tag_9:\n        /* \"MyContract.sol\":270:274  bool */\n      0x00\n        /* \"MyContract.sol\":302:314  State.Active */\n      0x02\n        /* \"MyContract.sol\":293:314  state == State.Active */\n      dup1\n      dup2\n      gt\n      iszero\n      tag_16\n      jumpi\n      invalid\n    tag_16:\n        /* \"MyContract.sol\":293:298  state */\n      0x00\n      dup1\n      swap1\n      sload\n      swap1\n      0x0100\n      exp\n      swap1\n      div\n      0xff\n      and\n        /* \"MyContract.sol\":293:314  state == State.Active */\n      0x02\n      dup2\n      gt\n      iszero\n      tag_17\n      jumpi\n      invalid\n    tag_17:\n      eq\n        /* \"MyContract.sol\":286:314  return state == State.Active */\n      swap1\n      pop\n        /* \"MyContract.sol\":228:321  function checkState() public view returns(bool) {... */\n      swap1\n      jump\t// out\n        /* \"MyContract.sol\":138:156  State public state */\n    tag_11:\n      0x00\n      dup1\n      swap1\n      sload\n      swap1\n      0x0100\n      exp\n      swap1\n      div\n      0xff\n      and\n      dup2\n      jump\t// out\n\n    auxdata: 0xa264697066735822122097ea94d0ed250c49c3496677280869179ef14ad92f8b7b230c936516cd6220fb64736f6c634300060a0033\n}\n",
				"bytecode": {
					"linkReferences": {},
					"object": "608060405234801561001057600080fd5b5061012a806100206000396000f3fe6080604052348015600f57600080fd5b5060043610603c5760003560e01c80631203402f14604157806396dfcbea146049578063c19d93fb146069575b600080fd5b60476092565b005b604f60b6565b604051808215151515815260200191505060405180910390f35b606f60e2565b60405180826002811115607e57fe5b60ff16815260200191505060405180910390f35b60016000806101000a81548160ff0219169083600281111560af57fe5b0217905550565b600060028081111560c357fe5b6000809054906101000a900460ff16600281111560dc57fe5b14905090565b6000809054906101000a900460ff168156fea264697066735822122097ea94d0ed250c49c3496677280869179ef14ad92f8b7b230c936516cd6220fb64736f6c634300060a0033",
					"opcodes": "PUSH1 0x80 PUSH1 0x40 MSTORE CALLVALUE DUP1 ISZERO PUSH2 0x10 JUMPI PUSH1 0x0 DUP1 REVERT JUMPDEST POP PUSH2 0x12A DUP1 PUSH2 0x20 PUSH1 0x0 CODECOPY PUSH1 0x0 RETURN INVALID PUSH1 0x80 PUSH1 0x40 MSTORE CALLVALUE DUP1 ISZERO PUSH1 0xF JUMPI PUSH1 0x0 DUP1 REVERT JUMPDEST POP PUSH1 0x4 CALLDATASIZE LT PUSH1 0x3C JUMPI PUSH1 0x0 CALLDATALOAD PUSH1 0xE0 SHR DUP1 PUSH4 0x1203402F EQ PUSH1 0x41 JUMPI DUP1 PUSH4 0x96DFCBEA EQ PUSH1 0x49 JUMPI DUP1 PUSH4 0xC19D93FB EQ PUSH1 0x69 JUMPI JUMPDEST PUSH1 0x0 DUP1 REVERT JUMPDEST PUSH1 0x47 PUSH1 0x92 JUMP JUMPDEST STOP JUMPDEST PUSH1 0x4F PUSH1 0xB6 JUMP JUMPDEST PUSH1 0x40 MLOAD DUP1 DUP3 ISZERO ISZERO ISZERO ISZERO DUP2 MSTORE PUSH1 0x20 ADD SWAP2 POP POP PUSH1 0x40 MLOAD DUP1 SWAP2 SUB SWAP1 RETURN JUMPDEST PUSH1 0x6F PUSH1 0xE2 JUMP JUMPDEST PUSH1 0x40 MLOAD DUP1 DUP3 PUSH1 0x2 DUP2 GT ISZERO PUSH1 0x7E JUMPI INVALID JUMPDEST PUSH1 0xFF AND DUP2 MSTORE PUSH1 0x20 ADD SWAP2 POP POP PUSH1 0x40 MLOAD DUP1 SWAP2 SUB SWAP1 RETURN JUMPDEST PUSH1 0x1 PUSH1 0x0 DUP1 PUSH2 0x100 EXP DUP2 SLOAD DUP2 PUSH1 0xFF MUL NOT AND SWAP1 DUP4 PUSH1 0x2 DUP2 GT ISZERO PUSH1 0xAF JUMPI INVALID JUMPDEST MUL OR SWAP1 SSTORE POP JUMP JUMPDEST PUSH1 0x0 PUSH1 0x2 DUP1 DUP2 GT ISZERO PUSH1 0xC3 JUMPI INVALID JUMPDEST PUSH1 0x0 DUP1 SWAP1 SLOAD SWAP1 PUSH2 0x100 EXP SWAP1 DIV PUSH1 0xFF AND PUSH1 0x2 DUP2 GT ISZERO PUSH1 0xDC JUMPI INVALID JUMPDEST EQ SWAP1 POP SWAP1 JUMP JUMPDEST PUSH1 0x0 DUP1 SWAP1 SLOAD SWAP1 PUSH2 0x100 EXP SWAP1 DIV PUSH1 0xFF AND DUP2 JUMP INVALID LOG2 PUSH5 0x6970667358 0x22 SLT KECCAK256 SWAP8 0xEA SWAP5 0xD0 0xED 0x25 0xC 0x49 0xC3 0x49 PUSH7 0x77280869179EF1 0x4A 0xD9 0x2F DUP12 PUSH28 0x230C936516CD6220FB64736F6C634300060A00330000000000000000 "
				},
				"gasEstimates": {
					"creation": {
						"codeDepositCost": "59600",
						"executionCost": "111",
						"totalCost": "59711"
					},
					"external": {
						"checkState()": "1119",
						"setState()": "21009",
						"state()": "1095"
					}
				},
				"methodIdentifiers": {
					"checkState()": "96dfcbea",
					"setState()": "1203402f",
					"state()": "c19d93fb"
				}
			},
			"storageLayout": {
				"storage": [
					{
						"astId": 7,
						"contract": "MyContract.sol:MyContract",
						"label": "state",
						"offset": 0,
						"slot": "0",
						"type": "t_enum(State)5"
					}
				],
				"types": {
					"t_enum(State)5": {
						"encoding": "inplace",
						"label": "enum MyContract.State",
						"numberOfBytes": "1"
					}
				}
			},
			"userdoc": {
				"methods": {}
			}
		}
	}
}