{
	"SimpleAuction.sol": {
		"simpleAuction": {
			"abi": [
				{
					"anonymous": false,
					"inputs": [
						{
							"indexed": false,
							"internalType": "address",
							"name": "auctionOwner",
							"type": "address"
						},
						{
							"indexed": false,
							"internalType": "uint256",
							"name": "startPrice",
							"type": "uint256"
						}
					],
					"name": "auctionStarted",
					"type": "event"
				},
				{
					"anonymous": false,
					"inputs": [
						{
							"indexed": false,
							"internalType": "address",
							"name": "bidder",
							"type": "address"
						},
						{
							"indexed": false,
							"internalType": "uint256",
							"name": "bidAmount",
							"type": "uint256"
						}
					],
					"name": "bidPlaced",
					"type": "event"
				},
				{
					"inputs": [],
					"name": "cancelAuction",
					"outputs": [],
					"stateMutability": "nonpayable",
					"type": "function"
				},
				{
					"inputs": [],
					"name": "placeBid",
					"outputs": [],
					"stateMutability": "payable",
					"type": "function"
				},
				{
					"inputs": [
						{
							"internalType": "uint256",
							"name": "_auctionStartPrice",
							"type": "uint256"
						},
						{
							"internalType": "uint256",
							"name": "_auctionTime",
							"type": "uint256"
						}
					],
					"name": "startAuction",
					"outputs": [],
					"stateMutability": "nonpayable",
					"type": "function"
				}
			],
			"devdoc": {
				"kind": "dev",
				"methods": {},
				"version": 1
			},
			"evm": {
				"assembly": "    /* \"SimpleAuction.sol\":71:1291  contract simpleAuction{... */\n  mstore(0x40, 0x80)\n    /* \"SimpleAuction.sol\":118:123  false */\n  0x00\n    /* \"SimpleAuction.sol\":99:123  bool AuctionClosed=false */\n  dup1\n  exp(0x0100, 0x00)\n  dup2\n  sload\n  dup2\n  0xff\n  mul\n  not\n  and\n  swap1\n  dup4\n  iszero\n  iszero\n  mul\n  or\n  swap1\n  sstore\n  pop\n    /* \"SimpleAuction.sol\":176:177  0 */\n  0x00\n    /* \"SimpleAuction.sol\":155:177  uint256 topBidAmount=0 */\n  0x01\n  sstore\n    /* \"SimpleAuction.sol\":71:1291  contract simpleAuction{... */\n  callvalue\n  dup1\n  iszero\n  tag_1\n  jumpi\n  0x00\n  dup1\n  revert\ntag_1:\n  pop\n  dataSize(sub_0)\n  dup1\n  dataOffset(sub_0)\n  0x00\n  codecopy\n  0x00\n  return\nstop\n\nsub_0: assembly {\n        /* \"SimpleAuction.sol\":71:1291  contract simpleAuction{... */\n      mstore(0x40, 0x80)\n      jumpi(tag_1, lt(calldatasize, 0x04))\n      shr(0xe0, calldataload(0x00))\n      dup1\n      0x4fee13fc\n      eq\n      tag_2\n      jumpi\n      dup1\n      0x8fa8b790\n      eq\n      tag_3\n      jumpi\n      dup1\n      0xecfc7ecc\n      eq\n      tag_4\n      jumpi\n    tag_1:\n      0x00\n      dup1\n      revert\n        /* \"SimpleAuction.sol\":459:764  function startAuction(uint256 _auctionStartPrice, uint256 _auctionTime) public {... */\n    tag_2:\n      callvalue\n      dup1\n      iszero\n      tag_5\n      jumpi\n      0x00\n      dup1\n      revert\n    tag_5:\n      pop\n      tag_6\n      0x04\n      dup1\n      calldatasize\n      sub\n      dup2\n      add\n      swap1\n      tag_7\n      swap2\n      swap1\n      tag_8\n      jump\t// in\n    tag_7:\n      tag_9\n      jump\t// in\n    tag_6:\n      stop\n        /* \"SimpleAuction.sol\":1155:1288  function cancelAuction() public {... */\n    tag_3:\n      callvalue\n      dup1\n      iszero\n      tag_10\n      jumpi\n      0x00\n      dup1\n      revert\n    tag_10:\n      pop\n      tag_11\n      tag_12\n      jump\t// in\n    tag_11:\n      stop\n        /* \"SimpleAuction.sol\":771:1149  function placeBid() public payable{... */\n    tag_4:\n      tag_13\n      tag_14\n      jump\t// in\n    tag_13:\n      stop\n        /* \"SimpleAuction.sol\":459:764  function startAuction(uint256 _auctionStartPrice, uint256 _auctionTime) public {... */\n    tag_9:\n        /* \"SimpleAuction.sol\":561:571  msg.sender */\n      caller\n        /* \"SimpleAuction.sol\":548:560  auctionOwner */\n      0x00\n      0x01\n        /* \"SimpleAuction.sol\":548:571  auctionOwner=msg.sender */\n      0x0100\n      exp\n      dup2\n      sload\n      dup2\n      0xffffffffffffffffffffffffffffffffffffffff\n      mul\n      not\n      and\n      swap1\n      dup4\n      0xffffffffffffffffffffffffffffffffffffffff\n      and\n      mul\n      or\n      swap1\n      sstore\n      pop\n        /* \"SimpleAuction.sol\":595:600  false */\n      0x00\n        /* \"SimpleAuction.sol\":581:594  AuctionClosed */\n      dup1\n      0x00\n        /* \"SimpleAuction.sol\":581:600  AuctionClosed=false */\n      0x0100\n      exp\n      dup2\n      sload\n      dup2\n      0xff\n      mul\n      not\n      and\n      swap1\n      dup4\n      iszero\n      iszero\n      mul\n      or\n      swap1\n      sstore\n      pop\n        /* \"SimpleAuction.sol\":628:646  _auctionStartPrice */\n      dup2\n        /* \"SimpleAuction.sol\":610:627  auctionStartPrice */\n      0x02\n        /* \"SimpleAuction.sol\":610:646  auctionStartPrice=_auctionStartPrice */\n      dup2\n      swap1\n      sstore\n      pop\n        /* \"SimpleAuction.sol\":684:696  _auctionTime */\n      dup1\n        /* \"SimpleAuction.sol\":668:683  block.timestamp */\n      timestamp\n        /* \"SimpleAuction.sol\":668:696  block.timestamp+_auctionTime */\n      tag_16\n      swap2\n      swap1\n      tag_17\n      jump\t// in\n    tag_16:\n        /* \"SimpleAuction.sol\":656:667  auctionTime */\n      0x03\n        /* \"SimpleAuction.sol\":656:696  auctionTime=block.timestamp+_auctionTime */\n      dup2\n      swap1\n      sstore\n      pop\n        /* \"SimpleAuction.sol\":711:757  auctionStarted(auctionOwner,auctionStartPrice) */\n      0x1e6871a9ec2c22e508757c73d7e2d7d15e2819276867174afb13fcdc9f018df2\n        /* \"SimpleAuction.sol\":726:738  auctionOwner */\n      0x00\n      0x01\n      swap1\n      sload\n      swap1\n      0x0100\n      exp\n      swap1\n      div\n      0xffffffffffffffffffffffffffffffffffffffff\n      and\n        /* \"SimpleAuction.sol\":739:756  auctionStartPrice */\n      sload(0x02)\n        /* \"SimpleAuction.sol\":711:757  auctionStarted(auctionOwner,auctionStartPrice) */\n      mload(0x40)\n      tag_18\n      swap3\n      swap2\n      swap1\n      tag_19\n      jump\t// in\n    tag_18:\n      mload(0x40)\n      dup1\n      swap2\n      sub\n      swap1\n      log1\n        /* \"SimpleAuction.sol\":459:764  function startAuction(uint256 _auctionStartPrice, uint256 _auctionTime) public {... */\n      pop\n      pop\n      jump\t// out\n        /* \"SimpleAuction.sol\":1155:1288  function cancelAuction() public {... */\n    tag_12:\n        /* \"SimpleAuction.sol\":1219:1231  auctionOwner */\n      0x00\n      0x01\n      swap1\n      sload\n      swap1\n      0x0100\n      exp\n      swap1\n      div\n      0xffffffffffffffffffffffffffffffffffffffff\n      and\n        /* \"SimpleAuction.sol\":1205:1231  msg.sender == auctionOwner */\n      0xffffffffffffffffffffffffffffffffffffffff\n      and\n        /* \"SimpleAuction.sol\":1205:1215  msg.sender */\n      caller\n        /* \"SimpleAuction.sol\":1205:1231  msg.sender == auctionOwner */\n      0xffffffffffffffffffffffffffffffffffffffff\n      and\n      eq\n        /* \"SimpleAuction.sol\":1197:1232  require(msg.sender == auctionOwner) */\n      tag_21\n      jumpi\n      0x00\n      dup1\n      revert\n    tag_21:\n        /* \"SimpleAuction.sol\":1269:1280  auctionTime */\n      sload(0x03)\n        /* \"SimpleAuction.sol\":1250:1265  block.timestamp */\n      timestamp\n        /* \"SimpleAuction.sol\":1250:1280  block.timestamp >= auctionTime */\n      lt\n      iszero\n        /* \"SimpleAuction.sol\":1242:1281  require(block.timestamp >= auctionTime) */\n      tag_22\n      jumpi\n      0x00\n      dup1\n      revert\n    tag_22:\n        /* \"SimpleAuction.sol\":1155:1288  function cancelAuction() public {... */\n      jump\t// out\n        /* \"SimpleAuction.sol\":771:1149  function placeBid() public payable{... */\n    tag_14:\n        /* \"SimpleAuction.sol\":835:847  topBidAmount */\n      sload(0x01)\n        /* \"SimpleAuction.sol\":823:832  msg.value */\n      callvalue\n        /* \"SimpleAuction.sol\":823:847  msg.value > topBidAmount */\n      gt\n        /* \"SimpleAuction.sol\":815:890  require(msg.value > topBidAmount,\"You have placed low bid than top bidder\") */\n      tag_24\n      jumpi\n      mload(0x40)\n      0x08c379a000000000000000000000000000000000000000000000000000000000\n      dup2\n      mstore\n      0x04\n      add\n      tag_25\n      swap1\n      tag_26\n      jump\t// in\n    tag_25:\n      mload(0x40)\n      dup1\n      swap2\n      sub\n      swap1\n      revert\n    tag_24:\n        /* \"SimpleAuction.sol\":922:937  block.timestamp */\n      timestamp\n        /* \"SimpleAuction.sol\":908:919  auctionTime */\n      sload(0x03)\n        /* \"SimpleAuction.sol\":908:937  auctionTime > block.timestamp */\n      gt\n        /* \"SimpleAuction.sol\":900:959  require(auctionTime > block.timestamp,\"Auction time ended\") */\n      tag_27\n      jumpi\n      mload(0x40)\n      0x08c379a000000000000000000000000000000000000000000000000000000000\n      dup2\n      mstore\n      0x04\n      add\n      tag_28\n      swap1\n      tag_29\n      jump\t// in\n    tag_28:\n      mload(0x40)\n      dup1\n      swap2\n      sub\n      swap1\n      revert\n    tag_27:\n        /* \"SimpleAuction.sol\":981:982  0 */\n      0x00\n        /* \"SimpleAuction.sol\":972:978  topBid */\n      sload(0x05)\n        /* \"SimpleAuction.sol\":972:982  topBid !=0 */\n      eq\n        /* \"SimpleAuction.sol\":969:1041  if(topBid !=0 ){... */\n      tag_30\n      jumpi\n        /* \"SimpleAuction.sol\":1024:1030  topBid */\n      sload(0x05)\n        /* \"SimpleAuction.sol\":998:1012  pendingReturns */\n      0x06\n        /* \"SimpleAuction.sol\":998:1023  pendingReturns[topBidder] */\n      0x00\n        /* \"SimpleAuction.sol\":1013:1022  topBidder */\n      0x04\n      0x00\n      swap1\n      sload\n      swap1\n      0x0100\n      exp\n      swap1\n      div\n      0xffffffffffffffffffffffffffffffffffffffff\n      and\n        /* \"SimpleAuction.sol\":998:1023  pendingReturns[topBidder] */\n      0xffffffffffffffffffffffffffffffffffffffff\n      and\n      0xffffffffffffffffffffffffffffffffffffffff\n      and\n      dup2\n      mstore\n      0x20\n      add\n      swap1\n      dup2\n      mstore\n      0x20\n      add\n      0x00\n      keccak256\n        /* \"SimpleAuction.sol\":998:1030  pendingReturns[topBidder]=topBid */\n      dup2\n      swap1\n      sstore\n      pop\n        /* \"SimpleAuction.sol\":969:1041  if(topBid !=0 ){... */\n    tag_30:\n        /* \"SimpleAuction.sol\":1060:1070  msg.sender */\n      caller\n        /* \"SimpleAuction.sol\":1050:1059  topBidder */\n      0x04\n      0x00\n        /* \"SimpleAuction.sol\":1050:1070  topBidder=msg.sender */\n      0x0100\n      exp\n      dup2\n      sload\n      dup2\n      0xffffffffffffffffffffffffffffffffffffffff\n      mul\n      not\n      and\n      swap1\n      dup4\n      0xffffffffffffffffffffffffffffffffffffffff\n      and\n      mul\n      or\n      swap1\n      sstore\n      pop\n        /* \"SimpleAuction.sol\":1087:1096  msg.value */\n      callvalue\n        /* \"SimpleAuction.sol\":1080:1086  topBid */\n      0x05\n        /* \"SimpleAuction.sol\":1080:1096  topBid=msg.value */\n      dup2\n      swap1\n      sstore\n      pop\n        /* \"SimpleAuction.sol\":1111:1142  bidPlaced(msg.sender,msg.value) */\n      0xf7d2dbe81680a1f0c2b9aaeb63d4184de5c64951ba06bf1b5900341760775a22\n        /* \"SimpleAuction.sol\":1121:1131  msg.sender */\n      caller\n        /* \"SimpleAuction.sol\":1132:1141  msg.value */\n      callvalue\n        /* \"SimpleAuction.sol\":1111:1142  bidPlaced(msg.sender,msg.value) */\n      mload(0x40)\n      tag_31\n      swap3\n      swap2\n      swap1\n      tag_19\n      jump\t// in\n    tag_31:\n      mload(0x40)\n      dup1\n      swap2\n      sub\n      swap1\n      log1\n        /* \"SimpleAuction.sol\":771:1149  function placeBid() public payable{... */\n      jump\t// out\n        /* \"#utility.yul\":88:205   */\n    tag_33:\n        /* \"#utility.yul\":197:198   */\n      0x00\n        /* \"#utility.yul\":194:195   */\n      dup1\n        /* \"#utility.yul\":187:199   */\n      revert\n        /* \"#utility.yul\":334:411   */\n    tag_35:\n        /* \"#utility.yul\":371:378   */\n      0x00\n        /* \"#utility.yul\":400:405   */\n      dup2\n        /* \"#utility.yul\":389:405   */\n      swap1\n      pop\n        /* \"#utility.yul\":334:411   */\n      swap2\n      swap1\n      pop\n      jump\t// out\n        /* \"#utility.yul\":417:539   */\n    tag_36:\n        /* \"#utility.yul\":490:514   */\n      tag_54\n        /* \"#utility.yul\":508:513   */\n      dup2\n        /* \"#utility.yul\":490:514   */\n      tag_35\n      jump\t// in\n    tag_54:\n        /* \"#utility.yul\":483:488   */\n      dup2\n        /* \"#utility.yul\":480:515   */\n      eq\n        /* \"#utility.yul\":470:533   */\n      tag_55\n      jumpi\n        /* \"#utility.yul\":529:530   */\n      0x00\n        /* \"#utility.yul\":526:527   */\n      dup1\n        /* \"#utility.yul\":519:531   */\n      revert\n        /* \"#utility.yul\":470:533   */\n    tag_55:\n        /* \"#utility.yul\":417:539   */\n      pop\n      jump\t// out\n        /* \"#utility.yul\":545:684   */\n    tag_37:\n        /* \"#utility.yul\":591:596   */\n      0x00\n        /* \"#utility.yul\":629:635   */\n      dup2\n        /* \"#utility.yul\":616:636   */\n      calldataload\n        /* \"#utility.yul\":607:636   */\n      swap1\n      pop\n        /* \"#utility.yul\":645:678   */\n      tag_57\n        /* \"#utility.yul\":672:677   */\n      dup2\n        /* \"#utility.yul\":645:678   */\n      tag_36\n      jump\t// in\n    tag_57:\n        /* \"#utility.yul\":545:684   */\n      swap3\n      swap2\n      pop\n      pop\n      jump\t// out\n        /* \"#utility.yul\":690:1164   */\n    tag_8:\n        /* \"#utility.yul\":758:764   */\n      0x00\n        /* \"#utility.yul\":766:772   */\n      dup1\n        /* \"#utility.yul\":815:817   */\n      0x40\n        /* \"#utility.yul\":803:812   */\n      dup4\n        /* \"#utility.yul\":794:801   */\n      dup6\n        /* \"#utility.yul\":790:813   */\n      sub\n        /* \"#utility.yul\":786:818   */\n      slt\n        /* \"#utility.yul\":783:902   */\n      iszero\n      tag_59\n      jumpi\n        /* \"#utility.yul\":821:900   */\n      tag_60\n      tag_33\n      jump\t// in\n    tag_60:\n        /* \"#utility.yul\":783:902   */\n    tag_59:\n        /* \"#utility.yul\":941:942   */\n      0x00\n        /* \"#utility.yul\":966:1019   */\n      tag_61\n        /* \"#utility.yul\":1011:1018   */\n      dup6\n        /* \"#utility.yul\":1002:1008   */\n      dup3\n        /* \"#utility.yul\":991:1000   */\n      dup7\n        /* \"#utility.yul\":987:1009   */\n      add\n        /* \"#utility.yul\":966:1019   */\n      tag_37\n      jump\t// in\n    tag_61:\n        /* \"#utility.yul\":956:1019   */\n      swap3\n      pop\n        /* \"#utility.yul\":912:1029   */\n      pop\n        /* \"#utility.yul\":1068:1070   */\n      0x20\n        /* \"#utility.yul\":1094:1147   */\n      tag_62\n        /* \"#utility.yul\":1139:1146   */\n      dup6\n        /* \"#utility.yul\":1130:1136   */\n      dup3\n        /* \"#utility.yul\":1119:1128   */\n      dup7\n        /* \"#utility.yul\":1115:1137   */\n      add\n        /* \"#utility.yul\":1094:1147   */\n      tag_37\n      jump\t// in\n    tag_62:\n        /* \"#utility.yul\":1084:1147   */\n      swap2\n      pop\n        /* \"#utility.yul\":1039:1157   */\n      pop\n        /* \"#utility.yul\":690:1164   */\n      swap3\n      pop\n      swap3\n      swap1\n      pop\n      jump\t// out\n        /* \"#utility.yul\":1170:1350   */\n    tag_38:\n        /* \"#utility.yul\":1218:1295   */\n      0x4e487b7100000000000000000000000000000000000000000000000000000000\n        /* \"#utility.yul\":1215:1216   */\n      0x00\n        /* \"#utility.yul\":1208:1296   */\n      mstore\n        /* \"#utility.yul\":1315:1319   */\n      0x11\n        /* \"#utility.yul\":1312:1313   */\n      0x04\n        /* \"#utility.yul\":1305:1320   */\n      mstore\n        /* \"#utility.yul\":1339:1343   */\n      0x24\n        /* \"#utility.yul\":1336:1337   */\n      0x00\n        /* \"#utility.yul\":1329:1344   */\n      revert\n        /* \"#utility.yul\":1356:1661   */\n    tag_17:\n        /* \"#utility.yul\":1396:1399   */\n      0x00\n        /* \"#utility.yul\":1415:1435   */\n      tag_65\n        /* \"#utility.yul\":1433:1434   */\n      dup3\n        /* \"#utility.yul\":1415:1435   */\n      tag_35\n      jump\t// in\n    tag_65:\n        /* \"#utility.yul\":1410:1435   */\n      swap2\n      pop\n        /* \"#utility.yul\":1449:1469   */\n      tag_66\n        /* \"#utility.yul\":1467:1468   */\n      dup4\n        /* \"#utility.yul\":1449:1469   */\n      tag_35\n      jump\t// in\n    tag_66:\n        /* \"#utility.yul\":1444:1469   */\n      swap3\n      pop\n        /* \"#utility.yul\":1603:1604   */\n      dup3\n        /* \"#utility.yul\":1535:1601   */\n      0xffffffffffffffffffffffffffffffffffffffffffffffffffffffffffffffff\n        /* \"#utility.yul\":1531:1605   */\n      sub\n        /* \"#utility.yul\":1528:1529   */\n      dup3\n        /* \"#utility.yul\":1525:1606   */\n      gt\n        /* \"#utility.yul\":1522:1629   */\n      iszero\n      tag_67\n      jumpi\n        /* \"#utility.yul\":1609:1627   */\n      tag_68\n      tag_38\n      jump\t// in\n    tag_68:\n        /* \"#utility.yul\":1522:1629   */\n    tag_67:\n        /* \"#utility.yul\":1653:1654   */\n      dup3\n        /* \"#utility.yul\":1650:1651   */\n      dup3\n        /* \"#utility.yul\":1646:1655   */\n      add\n        /* \"#utility.yul\":1639:1655   */\n      swap1\n      pop\n        /* \"#utility.yul\":1356:1661   */\n      swap3\n      swap2\n      pop\n      pop\n      jump\t// out\n        /* \"#utility.yul\":1667:1793   */\n    tag_39:\n        /* \"#utility.yul\":1704:1711   */\n      0x00\n        /* \"#utility.yul\":1744:1786   */\n      0xffffffffffffffffffffffffffffffffffffffff\n        /* \"#utility.yul\":1737:1742   */\n      dup3\n        /* \"#utility.yul\":1733:1787   */\n      and\n        /* \"#utility.yul\":1722:1787   */\n      swap1\n      pop\n        /* \"#utility.yul\":1667:1793   */\n      swap2\n      swap1\n      pop\n      jump\t// out\n        /* \"#utility.yul\":1799:1895   */\n    tag_40:\n        /* \"#utility.yul\":1836:1843   */\n      0x00\n        /* \"#utility.yul\":1865:1889   */\n      tag_71\n        /* \"#utility.yul\":1883:1888   */\n      dup3\n        /* \"#utility.yul\":1865:1889   */\n      tag_39\n      jump\t// in\n    tag_71:\n        /* \"#utility.yul\":1854:1889   */\n      swap1\n      pop\n        /* \"#utility.yul\":1799:1895   */\n      swap2\n      swap1\n      pop\n      jump\t// out\n        /* \"#utility.yul\":1901:2019   */\n    tag_41:\n        /* \"#utility.yul\":1988:2012   */\n      tag_73\n        /* \"#utility.yul\":2006:2011   */\n      dup2\n        /* \"#utility.yul\":1988:2012   */\n      tag_40\n      jump\t// in\n    tag_73:\n        /* \"#utility.yul\":1983:1986   */\n      dup3\n        /* \"#utility.yul\":1976:2013   */\n      mstore\n        /* \"#utility.yul\":1901:2019   */\n      pop\n      pop\n      jump\t// out\n        /* \"#utility.yul\":2025:2143   */\n    tag_42:\n        /* \"#utility.yul\":2112:2136   */\n      tag_75\n        /* \"#utility.yul\":2130:2135   */\n      dup2\n        /* \"#utility.yul\":2112:2136   */\n      tag_35\n      jump\t// in\n    tag_75:\n        /* \"#utility.yul\":2107:2110   */\n      dup3\n        /* \"#utility.yul\":2100:2137   */\n      mstore\n        /* \"#utility.yul\":2025:2143   */\n      pop\n      pop\n      jump\t// out\n        /* \"#utility.yul\":2149:2481   */\n    tag_19:\n        /* \"#utility.yul\":2270:2274   */\n      0x00\n        /* \"#utility.yul\":2308:2310   */\n      0x40\n        /* \"#utility.yul\":2297:2306   */\n      dup3\n        /* \"#utility.yul\":2293:2311   */\n      add\n        /* \"#utility.yul\":2285:2311   */\n      swap1\n      pop\n        /* \"#utility.yul\":2321:2392   */\n      tag_77\n        /* \"#utility.yul\":2389:2390   */\n      0x00\n        /* \"#utility.yul\":2378:2387   */\n      dup4\n        /* \"#utility.yul\":2374:2391   */\n      add\n        /* \"#utility.yul\":2365:2371   */\n      dup6\n        /* \"#utility.yul\":2321:2392   */\n      tag_41\n      jump\t// in\n    tag_77:\n        /* \"#utility.yul\":2402:2474   */\n      tag_78\n        /* \"#utility.yul\":2470:2472   */\n      0x20\n        /* \"#utility.yul\":2459:2468   */\n      dup4\n        /* \"#utility.yul\":2455:2473   */\n      add\n        /* \"#utility.yul\":2446:2452   */\n      dup5\n        /* \"#utility.yul\":2402:2474   */\n      tag_42\n      jump\t// in\n    tag_78:\n        /* \"#utility.yul\":2149:2481   */\n      swap4\n      swap3\n      pop\n      pop\n      pop\n      jump\t// out\n        /* \"#utility.yul\":2487:2656   */\n    tag_43:\n        /* \"#utility.yul\":2571:2582   */\n      0x00\n        /* \"#utility.yul\":2605:2611   */\n      dup3\n        /* \"#utility.yul\":2600:2603   */\n      dup3\n        /* \"#utility.yul\":2593:2612   */\n      mstore\n        /* \"#utility.yul\":2645:2649   */\n      0x20\n        /* \"#utility.yul\":2640:2643   */\n      dup3\n        /* \"#utility.yul\":2636:2650   */\n      add\n        /* \"#utility.yul\":2621:2650   */\n      swap1\n      pop\n        /* \"#utility.yul\":2487:2656   */\n      swap3\n      swap2\n      pop\n      pop\n      jump\t// out\n        /* \"#utility.yul\":2662:2888   */\n    tag_44:\n        /* \"#utility.yul\":2802:2836   */\n      0x596f75206861766520706c61636564206c6f7720626964207468616e20746f70\n        /* \"#utility.yul\":2798:2799   */\n      0x00\n        /* \"#utility.yul\":2790:2796   */\n      dup3\n        /* \"#utility.yul\":2786:2800   */\n      add\n        /* \"#utility.yul\":2779:2837   */\n      mstore\n        /* \"#utility.yul\":2871:2880   */\n      0x2062696464657200000000000000000000000000000000000000000000000000\n        /* \"#utility.yul\":2866:2868   */\n      0x20\n        /* \"#utility.yul\":2858:2864   */\n      dup3\n        /* \"#utility.yul\":2854:2869   */\n      add\n        /* \"#utility.yul\":2847:2881   */\n      mstore\n        /* \"#utility.yul\":2662:2888   */\n      pop\n      jump\t// out\n        /* \"#utility.yul\":2894:3260   */\n    tag_45:\n        /* \"#utility.yul\":3036:3039   */\n      0x00\n        /* \"#utility.yul\":3057:3124   */\n      tag_82\n        /* \"#utility.yul\":3121:3123   */\n      0x27\n        /* \"#utility.yul\":3116:3119   */\n      dup4\n        /* \"#utility.yul\":3057:3124   */\n      tag_43\n      jump\t// in\n    tag_82:\n        /* \"#utility.yul\":3050:3124   */\n      swap2\n      pop\n        /* \"#utility.yul\":3133:3226   */\n      tag_83\n        /* \"#utility.yul\":3222:3225   */\n      dup3\n        /* \"#utility.yul\":3133:3226   */\n      tag_44\n      jump\t// in\n    tag_83:\n        /* \"#utility.yul\":3251:3253   */\n      0x40\n        /* \"#utility.yul\":3246:3249   */\n      dup3\n        /* \"#utility.yul\":3242:3254   */\n      add\n        /* \"#utility.yul\":3235:3254   */\n      swap1\n      pop\n        /* \"#utility.yul\":2894:3260   */\n      swap2\n      swap1\n      pop\n      jump\t// out\n        /* \"#utility.yul\":3266:3685   */\n    tag_26:\n        /* \"#utility.yul\":3432:3436   */\n      0x00\n        /* \"#utility.yul\":3470:3472   */\n      0x20\n        /* \"#utility.yul\":3459:3468   */\n      dup3\n        /* \"#utility.yul\":3455:3473   */\n      add\n        /* \"#utility.yul\":3447:3473   */\n      swap1\n      pop\n        /* \"#utility.yul\":3519:3528   */\n      dup2\n        /* \"#utility.yul\":3513:3517   */\n      dup2\n        /* \"#utility.yul\":3509:3529   */\n      sub\n        /* \"#utility.yul\":3505:3506   */\n      0x00\n        /* \"#utility.yul\":3494:3503   */\n      dup4\n        /* \"#utility.yul\":3490:3507   */\n      add\n        /* \"#utility.yul\":3483:3530   */\n      mstore\n        /* \"#utility.yul\":3547:3678   */\n      tag_85\n        /* \"#utility.yul\":3673:3677   */\n      dup2\n        /* \"#utility.yul\":3547:3678   */\n      tag_45\n      jump\t// in\n    tag_85:\n        /* \"#utility.yul\":3539:3678   */\n      swap1\n      pop\n        /* \"#utility.yul\":3266:3685   */\n      swap2\n      swap1\n      pop\n      jump\t// out\n        /* \"#utility.yul\":3691:3859   */\n    tag_46:\n        /* \"#utility.yul\":3831:3851   */\n      0x41756374696f6e2074696d6520656e6465640000000000000000000000000000\n        /* \"#utility.yul\":3827:3828   */\n      0x00\n        /* \"#utility.yul\":3819:3825   */\n      dup3\n        /* \"#utility.yul\":3815:3829   */\n      add\n        /* \"#utility.yul\":3808:3852   */\n      mstore\n        /* \"#utility.yul\":3691:3859   */\n      pop\n      jump\t// out\n        /* \"#utility.yul\":3865:4231   */\n    tag_47:\n        /* \"#utility.yul\":4007:4010   */\n      0x00\n        /* \"#utility.yul\":4028:4095   */\n      tag_88\n        /* \"#utility.yul\":4092:4094   */\n      0x12\n        /* \"#utility.yul\":4087:4090   */\n      dup4\n        /* \"#utility.yul\":4028:4095   */\n      tag_43\n      jump\t// in\n    tag_88:\n        /* \"#utility.yul\":4021:4095   */\n      swap2\n      pop\n        /* \"#utility.yul\":4104:4197   */\n      tag_89\n        /* \"#utility.yul\":4193:4196   */\n      dup3\n        /* \"#utility.yul\":4104:4197   */\n      tag_46\n      jump\t// in\n    tag_89:\n        /* \"#utility.yul\":4222:4224   */\n      0x20\n        /* \"#utility.yul\":4217:4220   */\n      dup3\n        /* \"#utility.yul\":4213:4225   */\n      add\n        /* \"#utility.yul\":4206:4225   */\n      swap1\n      pop\n        /* \"#utility.yul\":3865:4231   */\n      swap2\n      swap1\n      pop\n      jump\t// out\n        /* \"#utility.yul\":4237:4656   */\n    tag_29:\n        /* \"#utility.yul\":4403:4407   */\n      0x00\n        /* \"#utility.yul\":4441:4443   */\n      0x20\n        /* \"#utility.yul\":4430:4439   */\n      dup3\n        /* \"#utility.yul\":4426:4444   */\n      add\n        /* \"#utility.yul\":4418:4444   */\n      swap1\n      pop\n        /* \"#utility.yul\":4490:4499   */\n      dup2\n        /* \"#utility.yul\":4484:4488   */\n      dup2\n        /* \"#utility.yul\":4480:4500   */\n      sub\n        /* \"#utility.yul\":4476:4477   */\n      0x00\n        /* \"#utility.yul\":4465:4474   */\n      dup4\n        /* \"#utility.yul\":4461:4478   */\n      add\n        /* \"#utility.yul\":4454:4501   */\n      mstore\n        /* \"#utility.yul\":4518:4649   */\n      tag_91\n        /* \"#utility.yul\":4644:4648   */\n      dup2\n        /* \"#utility.yul\":4518:4649   */\n      tag_47\n      jump\t// in\n    tag_91:\n        /* \"#utility.yul\":4510:4649   */\n      swap1\n      pop\n        /* \"#utility.yul\":4237:4656   */\n      swap2\n      swap1\n      pop\n      jump\t// out\n\n    auxdata: 0xa2646970667358221220bcaab76087d0d847f8bbda49b5f6be15d701d6f8e34a0371028d2eae2a1debb164736f6c63430008090033\n}\n",
				"bytecode": {
					"linkReferences": {},
					"object": "608060405260008060006101000a81548160ff021916908315150217905550600060015534801561002f57600080fd5b506105ff8061003f6000396000f3fe6080604052600436106100345760003560e01c80634fee13fc146100395780638fa8b79014610062578063ecfc7ecc14610079575b600080fd5b34801561004557600080fd5b50610060600480360381019061005b919061037c565b610083565b005b34801561006e57600080fd5b50610077610158565b005b6100816101c3565b005b33600060016101000a81548173ffffffffffffffffffffffffffffffffffffffff021916908373ffffffffffffffffffffffffffffffffffffffff16021790555060008060006101000a81548160ff0219169083151502179055508160028190555080426100f191906103eb565b6003819055507f1e6871a9ec2c22e508757c73d7e2d7d15e2819276867174afb13fcdc9f018df2600060019054906101000a900473ffffffffffffffffffffffffffffffffffffffff1660025460405161014c929190610491565b60405180910390a15050565b600060019054906101000a900473ffffffffffffffffffffffffffffffffffffffff1673ffffffffffffffffffffffffffffffffffffffff163373ffffffffffffffffffffffffffffffffffffffff16146101b257600080fd5b6003544210156101c157600080fd5b565b6001543411610207576040517f08c379a00000000000000000000000000000000000000000000000000000000081526004016101fe9061053d565b60405180910390fd5b426003541161024b576040517f08c379a0000000000000000000000000000000000000000000000000000000008152600401610242906105a9565b60405180910390fd5b6000600554146102be5760055460066000600460009054906101000a900473ffffffffffffffffffffffffffffffffffffffff1673ffffffffffffffffffffffffffffffffffffffff1673ffffffffffffffffffffffffffffffffffffffff168152602001908152602001600020819055505b33600460006101000a81548173ffffffffffffffffffffffffffffffffffffffff021916908373ffffffffffffffffffffffffffffffffffffffff160217905550346005819055507ff7d2dbe81680a1f0c2b9aaeb63d4184de5c64951ba06bf1b5900341760775a223334604051610337929190610491565b60405180910390a1565b600080fd5b6000819050919050565b61035981610346565b811461036457600080fd5b50565b60008135905061037681610350565b92915050565b6000806040838503121561039357610392610341565b5b60006103a185828601610367565b92505060206103b285828601610367565b9150509250929050565b7f4e487b7100000000000000000000000000000000000000000000000000000000600052601160045260246000fd5b60006103f682610346565b915061040183610346565b9250827fffffffffffffffffffffffffffffffffffffffffffffffffffffffffffffffff03821115610436576104356103bc565b5b828201905092915050565b600073ffffffffffffffffffffffffffffffffffffffff82169050919050565b600061046c82610441565b9050919050565b61047c81610461565b82525050565b61048b81610346565b82525050565b60006040820190506104a66000830185610473565b6104b36020830184610482565b9392505050565b600082825260208201905092915050565b7f596f75206861766520706c61636564206c6f7720626964207468616e20746f7060008201527f2062696464657200000000000000000000000000000000000000000000000000602082015250565b60006105276027836104ba565b9150610532826104cb565b604082019050919050565b600060208201905081810360008301526105568161051a565b9050919050565b7f41756374696f6e2074696d6520656e6465640000000000000000000000000000600082015250565b60006105936012836104ba565b915061059e8261055d565b602082019050919050565b600060208201905081810360008301526105c281610586565b905091905056fea2646970667358221220bcaab76087d0d847f8bbda49b5f6be15d701d6f8e34a0371028d2eae2a1debb164736f6c63430008090033",
					"opcodes": "PUSH1 0x80 PUSH1 0x40 MSTORE PUSH1 0x0 DUP1 PUSH1 0x0 PUSH2 0x100 EXP DUP2 SLOAD DUP2 PUSH1 0xFF MUL NOT AND SWAP1 DUP4 ISZERO ISZERO MUL OR SWAP1 SSTORE POP PUSH1 0x0 PUSH1 0x1 SSTORE CALLVALUE DUP1 ISZERO PUSH2 0x2F JUMPI PUSH1 0x0 DUP1 REVERT JUMPDEST POP PUSH2 0x5FF DUP1 PUSH2 0x3F PUSH1 0x0 CODECOPY PUSH1 0x0 RETURN INVALID PUSH1 0x80 PUSH1 0x40 MSTORE PUSH1 0x4 CALLDATASIZE LT PUSH2 0x34 JUMPI PUSH1 0x0 CALLDATALOAD PUSH1 0xE0 SHR DUP1 PUSH4 0x4FEE13FC EQ PUSH2 0x39 JUMPI DUP1 PUSH4 0x8FA8B790 EQ PUSH2 0x62 JUMPI DUP1 PUSH4 0xECFC7ECC EQ PUSH2 0x79 JUMPI JUMPDEST PUSH1 0x0 DUP1 REVERT JUMPDEST CALLVALUE DUP1 ISZERO PUSH2 0x45 JUMPI PUSH1 0x0 DUP1 REVERT JUMPDEST POP PUSH2 0x60 PUSH1 0x4 DUP1 CALLDATASIZE SUB DUP2 ADD SWAP1 PUSH2 0x5B SWAP2 SWAP1 PUSH2 0x37C JUMP JUMPDEST PUSH2 0x83 JUMP JUMPDEST STOP JUMPDEST CALLVALUE DUP1 ISZERO PUSH2 0x6E JUMPI PUSH1 0x0 DUP1 REVERT JUMPDEST POP PUSH2 0x77 PUSH2 0x158 JUMP JUMPDEST STOP JUMPDEST PUSH2 0x81 PUSH2 0x1C3 JUMP JUMPDEST STOP JUMPDEST CALLER PUSH1 0x0 PUSH1 0x1 PUSH2 0x100 EXP DUP2 SLOAD DUP2 PUSH20 0xFFFFFFFFFFFFFFFFFFFFFFFFFFFFFFFFFFFFFFFF MUL NOT AND SWAP1 DUP4 PUSH20 0xFFFFFFFFFFFFFFFFFFFFFFFFFFFFFFFFFFFFFFFF AND MUL OR SWAP1 SSTORE POP PUSH1 0x0 DUP1 PUSH1 0x0 PUSH2 0x100 EXP DUP2 SLOAD DUP2 PUSH1 0xFF MUL NOT AND SWAP1 DUP4 ISZERO ISZERO MUL OR SWAP1 SSTORE POP DUP2 PUSH1 0x2 DUP2 SWAP1 SSTORE POP DUP1 TIMESTAMP PUSH2 0xF1 SWAP2 SWAP1 PUSH2 0x3EB JUMP JUMPDEST PUSH1 0x3 DUP2 SWAP1 SSTORE POP PUSH32 0x1E6871A9EC2C22E508757C73D7E2D7D15E2819276867174AFB13FCDC9F018DF2 PUSH1 0x0 PUSH1 0x1 SWAP1 SLOAD SWAP1 PUSH2 0x100 EXP SWAP1 DIV PUSH20 0xFFFFFFFFFFFFFFFFFFFFFFFFFFFFFFFFFFFFFFFF AND PUSH1 0x2 SLOAD PUSH1 0x40 MLOAD PUSH2 0x14C SWAP3 SWAP2 SWAP1 PUSH2 0x491 JUMP JUMPDEST PUSH1 0x40 MLOAD DUP1 SWAP2 SUB SWAP1 LOG1 POP POP JUMP JUMPDEST PUSH1 0x0 PUSH1 0x1 SWAP1 SLOAD SWAP1 PUSH2 0x100 EXP SWAP1 DIV PUSH20 0xFFFFFFFFFFFFFFFFFFFFFFFFFFFFFFFFFFFFFFFF AND PUSH20 0xFFFFFFFFFFFFFFFFFFFFFFFFFFFFFFFFFFFFFFFF AND CALLER PUSH20 0xFFFFFFFFFFFFFFFFFFFFFFFFFFFFFFFFFFFFFFFF AND EQ PUSH2 0x1B2 JUMPI PUSH1 0x0 DUP1 REVERT JUMPDEST PUSH1 0x3 SLOAD TIMESTAMP LT ISZERO PUSH2 0x1C1 JUMPI PUSH1 0x0 DUP1 REVERT JUMPDEST JUMP JUMPDEST PUSH1 0x1 SLOAD CALLVALUE GT PUSH2 0x207 JUMPI PUSH1 0x40 MLOAD PUSH32 0x8C379A000000000000000000000000000000000000000000000000000000000 DUP2 MSTORE PUSH1 0x4 ADD PUSH2 0x1FE SWAP1 PUSH2 0x53D JUMP JUMPDEST PUSH1 0x40 MLOAD DUP1 SWAP2 SUB SWAP1 REVERT JUMPDEST TIMESTAMP PUSH1 0x3 SLOAD GT PUSH2 0x24B JUMPI PUSH1 0x40 MLOAD PUSH32 0x8C379A000000000000000000000000000000000000000000000000000000000 DUP2 MSTORE PUSH1 0x4 ADD PUSH2 0x242 SWAP1 PUSH2 0x5A9 JUMP JUMPDEST PUSH1 0x40 MLOAD DUP1 SWAP2 SUB SWAP1 REVERT JUMPDEST PUSH1 0x0 PUSH1 0x5 SLOAD EQ PUSH2 0x2BE JUMPI PUSH1 0x5 SLOAD PUSH1 0x6 PUSH1 0x0 PUSH1 0x4 PUSH1 0x0 SWAP1 SLOAD SWAP1 PUSH2 0x100 EXP SWAP1 DIV PUSH20 0xFFFFFFFFFFFFFFFFFFFFFFFFFFFFFFFFFFFFFFFF AND PUSH20 0xFFFFFFFFFFFFFFFFFFFFFFFFFFFFFFFFFFFFFFFF AND PUSH20 0xFFFFFFFFFFFFFFFFFFFFFFFFFFFFFFFFFFFFFFFF AND DUP2 MSTORE PUSH1 0x20 ADD SWAP1 DUP2 MSTORE PUSH1 0x20 ADD PUSH1 0x0 KECCAK256 DUP2 SWAP1 SSTORE POP JUMPDEST CALLER PUSH1 0x4 PUSH1 0x0 PUSH2 0x100 EXP DUP2 SLOAD DUP2 PUSH20 0xFFFFFFFFFFFFFFFFFFFFFFFFFFFFFFFFFFFFFFFF MUL NOT AND SWAP1 DUP4 PUSH20 0xFFFFFFFFFFFFFFFFFFFFFFFFFFFFFFFFFFFFFFFF AND MUL OR SWAP1 SSTORE POP CALLVALUE PUSH1 0x5 DUP2 SWAP1 SSTORE POP PUSH32 0xF7D2DBE81680A1F0C2B9AAEB63D4184DE5C64951BA06BF1B5900341760775A22 CALLER CALLVALUE PUSH1 0x40 MLOAD PUSH2 0x337 SWAP3 SWAP2 SWAP1 PUSH2 0x491 JUMP JUMPDEST PUSH1 0x40 MLOAD DUP1 SWAP2 SUB SWAP1 LOG1 JUMP JUMPDEST PUSH1 0x0 DUP1 REVERT JUMPDEST PUSH1 0x0 DUP2 SWAP1 POP SWAP2 SWAP1 POP JUMP JUMPDEST PUSH2 0x359 DUP2 PUSH2 0x346 JUMP JUMPDEST DUP2 EQ PUSH2 0x364 JUMPI PUSH1 0x0 DUP1 REVERT JUMPDEST POP JUMP JUMPDEST PUSH1 0x0 DUP2 CALLDATALOAD SWAP1 POP PUSH2 0x376 DUP2 PUSH2 0x350 JUMP JUMPDEST SWAP3 SWAP2 POP POP JUMP JUMPDEST PUSH1 0x0 DUP1 PUSH1 0x40 DUP4 DUP6 SUB SLT ISZERO PUSH2 0x393 JUMPI PUSH2 0x392 PUSH2 0x341 JUMP JUMPDEST JUMPDEST PUSH1 0x0 PUSH2 0x3A1 DUP6 DUP3 DUP7 ADD PUSH2 0x367 JUMP JUMPDEST SWAP3 POP POP PUSH1 0x20 PUSH2 0x3B2 DUP6 DUP3 DUP7 ADD PUSH2 0x367 JUMP JUMPDEST SWAP2 POP POP SWAP3 POP SWAP3 SWAP1 POP JUMP JUMPDEST PUSH32 0x4E487B7100000000000000000000000000000000000000000000000000000000 PUSH1 0x0 MSTORE PUSH1 0x11 PUSH1 0x4 MSTORE PUSH1 0x24 PUSH1 0x0 REVERT JUMPDEST PUSH1 0x0 PUSH2 0x3F6 DUP3 PUSH2 0x346 JUMP JUMPDEST SWAP2 POP PUSH2 0x401 DUP4 PUSH2 0x346 JUMP JUMPDEST SWAP3 POP DUP3 PUSH32 0xFFFFFFFFFFFFFFFFFFFFFFFFFFFFFFFFFFFFFFFFFFFFFFFFFFFFFFFFFFFFFFFF SUB DUP3 GT ISZERO PUSH2 0x436 JUMPI PUSH2 0x435 PUSH2 0x3BC JUMP JUMPDEST JUMPDEST DUP3 DUP3 ADD SWAP1 POP SWAP3 SWAP2 POP POP JUMP JUMPDEST PUSH1 0x0 PUSH20 0xFFFFFFFFFFFFFFFFFFFFFFFFFFFFFFFFFFFFFFFF DUP3 AND SWAP1 POP SWAP2 SWAP1 POP JUMP JUMPDEST PUSH1 0x0 PUSH2 0x46C DUP3 PUSH2 0x441 JUMP JUMPDEST SWAP1 POP SWAP2 SWAP1 POP JUMP JUMPDEST PUSH2 0x47C DUP2 PUSH2 0x461 JUMP JUMPDEST DUP3 MSTORE POP POP JUMP JUMPDEST PUSH2 0x48B DUP2 PUSH2 0x346 JUMP JUMPDEST DUP3 MSTORE POP POP JUMP JUMPDEST PUSH1 0x0 PUSH1 0x40 DUP3 ADD SWAP1 POP PUSH2 0x4A6 PUSH1 0x0 DUP4 ADD DUP6 PUSH2 0x473 JUMP JUMPDEST PUSH2 0x4B3 PUSH1 0x20 DUP4 ADD DUP5 PUSH2 0x482 JUMP JUMPDEST SWAP4 SWAP3 POP POP POP JUMP JUMPDEST PUSH1 0x0 DUP3 DUP3 MSTORE PUSH1 0x20 DUP3 ADD SWAP1 POP SWAP3 SWAP2 POP POP JUMP JUMPDEST PUSH32 0x596F75206861766520706C61636564206C6F7720626964207468616E20746F70 PUSH1 0x0 DUP3 ADD MSTORE PUSH32 0x2062696464657200000000000000000000000000000000000000000000000000 PUSH1 0x20 DUP3 ADD MSTORE POP JUMP JUMPDEST PUSH1 0x0 PUSH2 0x527 PUSH1 0x27 DUP4 PUSH2 0x4BA JUMP JUMPDEST SWAP2 POP PUSH2 0x532 DUP3 PUSH2 0x4CB JUMP JUMPDEST PUSH1 0x40 DUP3 ADD SWAP1 POP SWAP2 SWAP1 POP JUMP JUMPDEST PUSH1 0x0 PUSH1 0x20 DUP3 ADD SWAP1 POP DUP2 DUP2 SUB PUSH1 0x0 DUP4 ADD MSTORE PUSH2 0x556 DUP2 PUSH2 0x51A JUMP JUMPDEST SWAP1 POP SWAP2 SWAP1 POP JUMP JUMPDEST PUSH32 0x41756374696F6E2074696D6520656E6465640000000000000000000000000000 PUSH1 0x0 DUP3 ADD MSTORE POP JUMP JUMPDEST PUSH1 0x0 PUSH2 0x593 PUSH1 0x12 DUP4 PUSH2 0x4BA JUMP JUMPDEST SWAP2 POP PUSH2 0x59E DUP3 PUSH2 0x55D JUMP JUMPDEST PUSH1 0x20 DUP3 ADD SWAP1 POP SWAP2 SWAP1 POP JUMP JUMPDEST PUSH1 0x0 PUSH1 0x20 DUP3 ADD SWAP1 POP DUP2 DUP2 SUB PUSH1 0x0 DUP4 ADD MSTORE PUSH2 0x5C2 DUP2 PUSH2 0x586 JUMP JUMPDEST SWAP1 POP SWAP2 SWAP1 POP JUMP INVALID LOG2 PUSH5 0x6970667358 0x22 SLT KECCAK256 0xBC 0xAA 0xB7 PUSH1 0x87 0xD0 0xD8 SELFBALANCE 0xF8 0xBB 0xDA 0x49 0xB5 0xF6 0xBE ISZERO 0xD7 ADD 0xD6 0xF8 0xE3 0x4A SUB PUSH18 0x28D2EAE2A1DEBB164736F6C634300080900 CALLER "
				},
				"gasEstimates": {
					"creation": {
						"codeDepositCost": "307000",
						"executionCost": "29616",
						"totalCost": "336616"
					},
					"external": {
						"cancelAuction()": "4489",
						"placeBid()": "80925",
						"startAuction(uint256,uint256)": "infinite"
					}
				},
				"methodIdentifiers": {
					"cancelAuction()": "8fa8b790",
					"placeBid()": "ecfc7ecc",
					"startAuction(uint256,uint256)": "4fee13fc"
				}
			},
			"storageLayout": {
				"storage": [
					{
						"astId": 4,
						"contract": "SimpleAuction.sol:simpleAuction",
						"label": "AuctionClosed",
						"offset": 0,
						"slot": "0",
						"type": "t_bool"
					},
					{
						"astId": 6,
						"contract": "SimpleAuction.sol:simpleAuction",
						"label": "auctionOwner",
						"offset": 1,
						"slot": "0",
						"type": "t_address"
					},
					{
						"astId": 9,
						"contract": "SimpleAuction.sol:simpleAuction",
						"label": "topBidAmount",
						"offset": 0,
						"slot": "1",
						"type": "t_uint256"
					},
					{
						"astId": 11,
						"contract": "SimpleAuction.sol:simpleAuction",
						"label": "auctionStartPrice",
						"offset": 0,
						"slot": "2",
						"type": "t_uint256"
					},
					{
						"astId": 13,
						"contract": "SimpleAuction.sol:simpleAuction",
						"label": "auctionTime",
						"offset": 0,
						"slot": "3",
						"type": "t_uint256"
					},
					{
						"astId": 15,
						"contract": "SimpleAuction.sol:simpleAuction",
						"label": "topBidder",
						"offset": 0,
						"slot": "4",
						"type": "t_address"
					},
					{
						"astId": 17,
						"contract": "SimpleAuction.sol:simpleAuction",
						"label": "topBid",
						"offset": 0,
						"slot": "5",
						"type": "t_uint256"
					},
					{
						"astId": 21,
						"contract": "SimpleAuction.sol:simpleAuction",
						"label": "pendingReturns",
						"offset": 0,
						"slot": "6",
						"type": "t_mapping(t_address,t_uint256)"
					}
				],
				"types": {
					"t_address": {
						"encoding": "inplace",
						"label": "address",
						"numberOfBytes": "20"
					},
					"t_bool": {
						"encoding": "inplace",
						"label": "bool",
						"numberOfBytes": "1"
					},
					"t_mapping(t_address,t_uint256)": {
						"encoding": "mapping",
						"key": "t_address",
						"label": "mapping(address => uint256)",
						"numberOfBytes": "32",
						"value": "t_uint256"
					},
					"t_uint256": {
						"encoding": "inplace",
						"label": "uint256",
						"numberOfBytes": "32"
					}
				}
			},
			"userdoc": {
				"kind": "user",
				"methods": {},
				"version": 1
			}
		}
	}
}