{
	"FreeToken.sol": {
		"FreeToken": {
			"abi": [
				{
					"inputs": [],
					"stateMutability": "nonpayable",
					"type": "constructor"
				},
				{
					"inputs": [],
					"name": "decimals",
					"outputs": [
						{
							"internalType": "uint8",
							"name": "",
							"type": "uint8"
						}
					],
					"stateMutability": "view",
					"type": "function"
				},
				{
					"inputs": [],
					"name": "name",
					"outputs": [
						{
							"internalType": "string",
							"name": "",
							"type": "string"
						}
					],
					"stateMutability": "view",
					"type": "function"
				},
				{
					"inputs": [
						{
							"internalType": "uint256",
							"name": "_amount",
							"type": "uint256"
						}
					],
					"name": "purchase",
					"outputs": [],
					"stateMutability": "nonpayable",
					"type": "function"
				},
				{
					"inputs": [
						{
							"internalType": "uint256",
							"name": "_totalSupply",
							"type": "uint256"
						}
					],
					"name": "setTotalSupply",
					"outputs": [],
					"stateMutability": "nonpayable",
					"type": "function"
				},
				{
					"inputs": [],
					"name": "symbol",
					"outputs": [
						{
							"internalType": "string",
							"name": "",
							"type": "string"
						}
					],
					"stateMutability": "view",
					"type": "function"
				},
				{
					"inputs": [
						{
							"internalType": "address",
							"name": "_to",
							"type": "address"
						},
						{
							"internalType": "uint256",
							"name": "_amount",
							"type": "uint256"
						}
					],
					"name": "transfer",
					"outputs": [],
					"stateMutability": "nonpayable",
					"type": "function"
				}
			],
			"devdoc": {
				"kind": "dev",
				"methods": {},
				"version": 1
			},
			"evm": {
				"assembly": "    /* \"FreeToken.sol\":72:865  contract FreeToken{... */\n  mstore(0x40, 0x80)\n    /* \"FreeToken.sol\":288:402  constructor(){... */\n  callvalue\n  dup1\n  iszero\n  tag_1\n  jumpi\n  0x00\n  dup1\n  revert\ntag_1:\n  pop\n    /* \"FreeToken.sol\":317:327  msg.sender */\n  caller\n    /* \"FreeToken.sol\":311:316  owner */\n  0x02\n  0x00\n    /* \"FreeToken.sol\":311:327  owner=msg.sender */\n  0x0100\n  exp\n  dup2\n  sload\n  dup2\n  0xffffffffffffffffffffffffffffffffffffffff\n  mul\n  not\n  and\n  swap1\n  dup4\n  0xffffffffffffffffffffffffffffffffffffffff\n  and\n  mul\n  or\n  swap1\n  sstore\n  pop\n    /* \"FreeToken.sol\":337:353  name=\"FreeToken\" */\n  mload(0x40)\n  dup1\n  0x40\n  add\n  0x40\n  mstore\n  dup1\n  0x09\n  dup2\n  mstore\n  0x20\n  add\n  0x46726565546f6b656e0000000000000000000000000000000000000000000000\n  dup2\n  mstore\n  pop\n    /* \"FreeToken.sol\":337:341  name */\n  0x03\n    /* \"FreeToken.sol\":337:353  name=\"FreeToken\" */\n  swap1\n  dup1\n  mload\n  swap1\n  0x20\n  add\n  swap1\n  tag_4\n  swap3\n  swap2\n  swap1\n  tag_5\n  jump\t// in\ntag_4:\n  pop\n    /* \"FreeToken.sol\":363:374  symbol=\"FT\" */\n  mload(0x40)\n  dup1\n  0x40\n  add\n  0x40\n  mstore\n  dup1\n  0x02\n  dup2\n  mstore\n  0x20\n  add\n  0x4654000000000000000000000000000000000000000000000000000000000000\n  dup2\n  mstore\n  pop\n    /* \"FreeToken.sol\":363:369  symbol */\n  0x04\n    /* \"FreeToken.sol\":363:374  symbol=\"FT\" */\n  swap1\n  dup1\n  mload\n  swap1\n  0x20\n  add\n  swap1\n  tag_6\n  swap3\n  swap2\n  swap1\n  tag_5\n  jump\t// in\ntag_6:\n  pop\n    /* \"FreeToken.sol\":393:395  10 */\n  0x0a\n    /* \"FreeToken.sol\":384:392  decimals */\n  0x05\n  0x00\n    /* \"FreeToken.sol\":384:395  decimals=10 */\n  0x0100\n  exp\n  dup2\n  sload\n  dup2\n  0xff\n  mul\n  not\n  and\n  swap1\n  dup4\n  0xff\n  and\n  mul\n  or\n  swap1\n  sstore\n  pop\n    /* \"FreeToken.sol\":72:865  contract FreeToken{... */\n  jump(tag_7)\ntag_5:\n  dup3\n  dup1\n  sload\n  tag_8\n  swap1\n  tag_9\n  jump\t// in\ntag_8:\n  swap1\n  0x00\n  mstore\n  keccak256(0x00, 0x20)\n  swap1\n  0x1f\n  add\n  0x20\n  swap1\n  div\n  dup2\n  add\n  swap3\n  dup3\n  tag_11\n  jumpi\n  0x00\n  dup6\n  sstore\n  jump(tag_10)\ntag_11:\n  dup3\n  0x1f\n  lt\n  tag_12\n  jumpi\n  dup1\n  mload\n  not(0xff)\n  and\n  dup4\n  dup1\n  add\n  or\n  dup6\n  sstore\n  jump(tag_10)\ntag_12:\n  dup3\n  dup1\n  add\n  0x01\n  add\n  dup6\n  sstore\n  dup3\n  iszero\n  tag_10\n  jumpi\n  swap2\n  dup3\n  add\ntag_13:\n  dup3\n  dup2\n  gt\n  iszero\n  tag_14\n  jumpi\n  dup3\n  mload\n  dup3\n  sstore\n  swap2\n  0x20\n  add\n  swap2\n  swap1\n  0x01\n  add\n  swap1\n  jump(tag_13)\ntag_14:\ntag_10:\n  pop\n  swap1\n  pop\n  tag_15\n  swap2\n  swap1\n  tag_16\n  jump\t// in\ntag_15:\n  pop\n  swap1\n  jump\t// out\ntag_16:\ntag_17:\n  dup1\n  dup3\n  gt\n  iszero\n  tag_18\n  jumpi\n  0x00\n  dup2\n  0x00\n  swap1\n  sstore\n  pop\n  0x01\n  add\n  jump(tag_17)\ntag_18:\n  pop\n  swap1\n  jump\t// out\n    /* \"#utility.yul\":7:187   */\ntag_19:\n    /* \"#utility.yul\":55:132   */\n  0x4e487b7100000000000000000000000000000000000000000000000000000000\n    /* \"#utility.yul\":52:53   */\n  0x00\n    /* \"#utility.yul\":45:133   */\n  mstore\n    /* \"#utility.yul\":152:156   */\n  0x22\n    /* \"#utility.yul\":149:150   */\n  0x04\n    /* \"#utility.yul\":142:157   */\n  mstore\n    /* \"#utility.yul\":176:180   */\n  0x24\n    /* \"#utility.yul\":173:174   */\n  0x00\n    /* \"#utility.yul\":166:181   */\n  revert\n    /* \"#utility.yul\":193:513   */\ntag_9:\n    /* \"#utility.yul\":237:243   */\n  0x00\n    /* \"#utility.yul\":274:275   */\n  0x02\n    /* \"#utility.yul\":268:272   */\n  dup3\n    /* \"#utility.yul\":264:276   */\n  div\n    /* \"#utility.yul\":254:276   */\n  swap1\n  pop\n    /* \"#utility.yul\":321:322   */\n  0x01\n    /* \"#utility.yul\":315:319   */\n  dup3\n    /* \"#utility.yul\":311:323   */\n  and\n    /* \"#utility.yul\":342:360   */\n  dup1\n    /* \"#utility.yul\":332:413   */\n  tag_23\n  jumpi\n    /* \"#utility.yul\":398:402   */\n  0x7f\n    /* \"#utility.yul\":390:396   */\n  dup3\n    /* \"#utility.yul\":386:403   */\n  and\n    /* \"#utility.yul\":376:403   */\n  swap2\n  pop\n    /* \"#utility.yul\":332:413   */\ntag_23:\n    /* \"#utility.yul\":460:462   */\n  0x20\n    /* \"#utility.yul\":452:458   */\n  dup3\n    /* \"#utility.yul\":449:463   */\n  lt\n    /* \"#utility.yul\":429:447   */\n  dup2\n    /* \"#utility.yul\":426:464   */\n  eq\n    /* \"#utility.yul\":423:507   */\n  iszero\n  tag_24\n  jumpi\n    /* \"#utility.yul\":479:497   */\n  tag_25\n  tag_19\n  jump\t// in\ntag_25:\n    /* \"#utility.yul\":423:507   */\ntag_24:\n    /* \"#utility.yul\":244:513   */\n  pop\n    /* \"#utility.yul\":193:513   */\n  swap2\n  swap1\n  pop\n  jump\t// out\n    /* \"FreeToken.sol\":72:865  contract FreeToken{... */\ntag_7:\n  dataSize(sub_0)\n  dup1\n  dataOffset(sub_0)\n  0x00\n  codecopy\n  0x00\n  return\nstop\n\nsub_0: assembly {\n        /* \"FreeToken.sol\":72:865  contract FreeToken{... */\n      mstore(0x40, 0x80)\n      callvalue\n      dup1\n      iszero\n      tag_1\n      jumpi\n      0x00\n      dup1\n      revert\n    tag_1:\n      pop\n      jumpi(tag_2, lt(calldatasize, 0x04))\n      shr(0xe0, calldataload(0x00))\n      dup1\n      0x06fdde03\n      eq\n      tag_3\n      jumpi\n      dup1\n      0x313ce567\n      eq\n      tag_4\n      jumpi\n      dup1\n      0x95d89b41\n      eq\n      tag_5\n      jumpi\n      dup1\n      0xa9059cbb\n      eq\n      tag_6\n      jumpi\n      dup1\n      0xefef39a1\n      eq\n      tag_7\n      jumpi\n      dup1\n      0xf7ea7a3d\n      eq\n      tag_8\n      jumpi\n    tag_2:\n      0x00\n      dup1\n      revert\n        /* \"FreeToken.sol\":210:228  string public name */\n    tag_3:\n      tag_9\n      tag_10\n      jump\t// in\n    tag_9:\n      mload(0x40)\n      tag_11\n      swap2\n      swap1\n      tag_12\n      jump\t// in\n    tag_11:\n      mload(0x40)\n      dup1\n      swap2\n      sub\n      swap1\n      return\n        /* \"FreeToken.sol\":260:281  uint8 public decimals */\n    tag_4:\n      tag_13\n      tag_14\n      jump\t// in\n    tag_13:\n      mload(0x40)\n      tag_15\n      swap2\n      swap1\n      tag_16\n      jump\t// in\n    tag_15:\n      mload(0x40)\n      dup1\n      swap2\n      sub\n      swap1\n      return\n        /* \"FreeToken.sol\":234:254  string public symbol */\n    tag_5:\n      tag_17\n      tag_18\n      jump\t// in\n    tag_17:\n      mload(0x40)\n      tag_19\n      swap2\n      swap1\n      tag_12\n      jump\t// in\n    tag_19:\n      mload(0x40)\n      dup1\n      swap2\n      sub\n      swap1\n      return\n        /* \"FreeToken.sol\":662:863  function transfer(address _to, uint256 _amount) public {... */\n    tag_6:\n      tag_20\n      0x04\n      dup1\n      calldatasize\n      sub\n      dup2\n      add\n      swap1\n      tag_21\n      swap2\n      swap1\n      tag_22\n      jump\t// in\n    tag_21:\n      tag_23\n      jump\t// in\n    tag_20:\n      stop\n        /* \"FreeToken.sol\":544:656  function purchase(uint _amount) public {... */\n    tag_7:\n      tag_24\n      0x04\n      dup1\n      calldatasize\n      sub\n      dup2\n      add\n      swap1\n      tag_25\n      swap2\n      swap1\n      tag_26\n      jump\t// in\n    tag_25:\n      tag_27\n      jump\t// in\n    tag_24:\n      stop\n        /* \"FreeToken.sol\":408:537  function setTotalSupply(uint _totalSupply) public {... */\n    tag_8:\n      tag_28\n      0x04\n      dup1\n      calldatasize\n      sub\n      dup2\n      add\n      swap1\n      tag_29\n      swap2\n      swap1\n      tag_26\n      jump\t// in\n    tag_29:\n      tag_30\n      jump\t// in\n    tag_28:\n      stop\n        /* \"FreeToken.sol\":210:228  string public name */\n    tag_10:\n      0x03\n      dup1\n      sload\n      tag_31\n      swap1\n      tag_32\n      jump\t// in\n    tag_31:\n      dup1\n      0x1f\n      add\n      0x20\n      dup1\n      swap2\n      div\n      mul\n      0x20\n      add\n      mload(0x40)\n      swap1\n      dup2\n      add\n      0x40\n      mstore\n      dup1\n      swap3\n      swap2\n      swap1\n      dup2\n      dup2\n      mstore\n      0x20\n      add\n      dup3\n      dup1\n      sload\n      tag_33\n      swap1\n      tag_32\n      jump\t// in\n    tag_33:\n      dup1\n      iszero\n      tag_34\n      jumpi\n      dup1\n      0x1f\n      lt\n      tag_35\n      jumpi\n      0x0100\n      dup1\n      dup4\n      sload\n      div\n      mul\n      dup4\n      mstore\n      swap2\n      0x20\n      add\n      swap2\n      jump(tag_34)\n    tag_35:\n      dup3\n      add\n      swap2\n      swap1\n      0x00\n      mstore\n      keccak256(0x00, 0x20)\n      swap1\n    tag_36:\n      dup2\n      sload\n      dup2\n      mstore\n      swap1\n      0x01\n      add\n      swap1\n      0x20\n      add\n      dup1\n      dup4\n      gt\n      tag_36\n      jumpi\n      dup3\n      swap1\n      sub\n      0x1f\n      and\n      dup3\n      add\n      swap2\n    tag_34:\n      pop\n      pop\n      pop\n      pop\n      pop\n      dup2\n      jump\t// out\n        /* \"FreeToken.sol\":260:281  uint8 public decimals */\n    tag_14:\n      0x05\n      0x00\n      swap1\n      sload\n      swap1\n      0x0100\n      exp\n      swap1\n      div\n      0xff\n      and\n      dup2\n      jump\t// out\n        /* \"FreeToken.sol\":234:254  string public symbol */\n    tag_18:\n      0x04\n      dup1\n      sload\n      tag_37\n      swap1\n      tag_32\n      jump\t// in\n    tag_37:\n      dup1\n      0x1f\n      add\n      0x20\n      dup1\n      swap2\n      div\n      mul\n      0x20\n      add\n      mload(0x40)\n      swap1\n      dup2\n      add\n      0x40\n      mstore\n      dup1\n      swap3\n      swap2\n      swap1\n      dup2\n      dup2\n      mstore\n      0x20\n      add\n      dup3\n      dup1\n      sload\n      tag_38\n      swap1\n      tag_32\n      jump\t// in\n    tag_38:\n      dup1\n      iszero\n      tag_39\n      jumpi\n      dup1\n      0x1f\n      lt\n      tag_40\n      jumpi\n      0x0100\n      dup1\n      dup4\n      sload\n      div\n      mul\n      dup4\n      mstore\n      swap2\n      0x20\n      add\n      swap2\n      jump(tag_39)\n    tag_40:\n      dup3\n      add\n      swap2\n      swap1\n      0x00\n      mstore\n      keccak256(0x00, 0x20)\n      swap1\n    tag_41:\n      dup2\n      sload\n      dup2\n      mstore\n      swap1\n      0x01\n      add\n      swap1\n      0x20\n      add\n      dup1\n      dup4\n      gt\n      tag_41\n      jumpi\n      dup3\n      swap1\n      sub\n      0x1f\n      and\n      dup3\n      add\n      swap2\n    tag_39:\n      pop\n      pop\n      pop\n      pop\n      pop\n      dup2\n      jump\t// out\n        /* \"FreeToken.sol\":662:863  function transfer(address _to, uint256 _amount) public {... */\n    tag_23:\n        /* \"FreeToken.sol\":758:765  _amount */\n      dup1\n        /* \"FreeToken.sol\":735:742  balance */\n      0x00\n        /* \"FreeToken.sol\":735:754  balance[msg.sender] */\n      dup1\n        /* \"FreeToken.sol\":743:753  msg.sender */\n      caller\n        /* \"FreeToken.sol\":735:754  balance[msg.sender] */\n      0xffffffffffffffffffffffffffffffffffffffff\n      and\n      0xffffffffffffffffffffffffffffffffffffffff\n      and\n      dup2\n      mstore\n      0x20\n      add\n      swap1\n      dup2\n      mstore\n      0x20\n      add\n      0x00\n      keccak256\n      sload\n        /* \"FreeToken.sol\":735:765  balance[msg.sender] >= _amount */\n      lt\n      iszero\n        /* \"FreeToken.sol\":727:787  require(balance[msg.sender] >= _amount,\"Insufficient funds\") */\n      tag_43\n      jumpi\n      mload(0x40)\n      0x08c379a000000000000000000000000000000000000000000000000000000000\n      dup2\n      mstore\n      0x04\n      add\n      tag_44\n      swap1\n      tag_45\n      jump\t// in\n    tag_44:\n      mload(0x40)\n      dup1\n      swap2\n      sub\n      swap1\n      revert\n    tag_43:\n        /* \"FreeToken.sol\":818:825  _amount */\n      dup1\n        /* \"FreeToken.sol\":797:804  balance */\n      0x00\n        /* \"FreeToken.sol\":797:816  balance[msg.sender] */\n      dup1\n        /* \"FreeToken.sol\":805:815  msg.sender */\n      caller\n        /* \"FreeToken.sol\":797:816  balance[msg.sender] */\n      0xffffffffffffffffffffffffffffffffffffffff\n      and\n      0xffffffffffffffffffffffffffffffffffffffff\n      and\n      dup2\n      mstore\n      0x20\n      add\n      swap1\n      dup2\n      mstore\n      0x20\n      add\n      0x00\n      keccak256\n      0x00\n        /* \"FreeToken.sol\":797:825  balance[msg.sender]-=_amount */\n      dup3\n      dup3\n      sload\n      tag_46\n      swap2\n      swap1\n      tag_47\n      jump\t// in\n    tag_46:\n      swap3\n      pop\n      pop\n      dup2\n      swap1\n      sstore\n      pop\n        /* \"FreeToken.sol\":849:856  _amount */\n      dup1\n        /* \"FreeToken.sol\":835:842  balance */\n      0x00\n        /* \"FreeToken.sol\":835:847  balance[_to] */\n      dup1\n        /* \"FreeToken.sol\":843:846  _to */\n      dup5\n        /* \"FreeToken.sol\":835:847  balance[_to] */\n      0xffffffffffffffffffffffffffffffffffffffff\n      and\n      0xffffffffffffffffffffffffffffffffffffffff\n      and\n      dup2\n      mstore\n      0x20\n      add\n      swap1\n      dup2\n      mstore\n      0x20\n      add\n      0x00\n      keccak256\n      0x00\n        /* \"FreeToken.sol\":835:856  balance[_to]+=_amount */\n      dup3\n      dup3\n      sload\n      tag_48\n      swap2\n      swap1\n      tag_49\n      jump\t// in\n    tag_48:\n      swap3\n      pop\n      pop\n      dup2\n      swap1\n      sstore\n      pop\n        /* \"FreeToken.sol\":662:863  function transfer(address _to, uint256 _amount) public {... */\n      pop\n      pop\n      jump\t// out\n        /* \"FreeToken.sol\":544:656  function purchase(uint _amount) public {... */\n    tag_27:\n        /* \"FreeToken.sol\":613:620  _amount */\n      dup1\n        /* \"FreeToken.sol\":592:599  balance */\n      0x00\n        /* \"FreeToken.sol\":592:611  balance[msg.sender] */\n      dup1\n        /* \"FreeToken.sol\":600:610  msg.sender */\n      caller\n        /* \"FreeToken.sol\":592:611  balance[msg.sender] */\n      0xffffffffffffffffffffffffffffffffffffffff\n      and\n      0xffffffffffffffffffffffffffffffffffffffff\n      and\n      dup2\n      mstore\n      0x20\n      add\n      swap1\n      dup2\n      mstore\n      0x20\n      add\n      0x00\n      keccak256\n      0x00\n        /* \"FreeToken.sol\":592:620  balance[msg.sender]+=_amount */\n      dup3\n      dup3\n      sload\n      tag_51\n      swap2\n      swap1\n      tag_49\n      jump\t// in\n    tag_51:\n      swap3\n      pop\n      pop\n      dup2\n      swap1\n      sstore\n      pop\n        /* \"FreeToken.sol\":642:649  _amount */\n      dup1\n        /* \"FreeToken.sol\":629:640  totalSupply */\n      0x01\n      0x00\n        /* \"FreeToken.sol\":629:649  totalSupply-=_amount */\n      dup3\n      dup3\n      sload\n      tag_52\n      swap2\n      swap1\n      tag_47\n      jump\t// in\n    tag_52:\n      swap3\n      pop\n      pop\n      dup2\n      swap1\n      sstore\n      pop\n        /* \"FreeToken.sol\":544:656  function purchase(uint _amount) public {... */\n      pop\n      jump\t// out\n        /* \"FreeToken.sol\":408:537  function setTotalSupply(uint _totalSupply) public {... */\n    tag_30:\n        /* \"FreeToken.sol\":485:495  msg.sender */\n      caller\n        /* \"FreeToken.sol\":476:495  owner == msg.sender */\n      0xffffffffffffffffffffffffffffffffffffffff\n      and\n        /* \"FreeToken.sol\":476:481  owner */\n      0x02\n      0x00\n      swap1\n      sload\n      swap1\n      0x0100\n      exp\n      swap1\n      div\n      0xffffffffffffffffffffffffffffffffffffffff\n      and\n        /* \"FreeToken.sol\":476:495  owner == msg.sender */\n      0xffffffffffffffffffffffffffffffffffffffff\n      and\n      eq\n        /* \"FreeToken.sol\":468:496  require(owner == msg.sender) */\n      tag_54\n      jumpi\n      0x00\n      dup1\n      revert\n    tag_54:\n        /* \"FreeToken.sol\":518:530  _totalSupply */\n      dup1\n        /* \"FreeToken.sol\":506:517  totalSupply */\n      0x01\n        /* \"FreeToken.sol\":506:530  totalSupply=_totalSupply */\n      dup2\n      swap1\n      sstore\n      pop\n        /* \"FreeToken.sol\":408:537  function setTotalSupply(uint _totalSupply) public {... */\n      pop\n      jump\t// out\n        /* \"#utility.yul\":7:106   */\n    tag_55:\n        /* \"#utility.yul\":59:65   */\n      0x00\n        /* \"#utility.yul\":93:98   */\n      dup2\n        /* \"#utility.yul\":87:99   */\n      mload\n        /* \"#utility.yul\":77:99   */\n      swap1\n      pop\n        /* \"#utility.yul\":7:106   */\n      swap2\n      swap1\n      pop\n      jump\t// out\n        /* \"#utility.yul\":112:281   */\n    tag_56:\n        /* \"#utility.yul\":196:207   */\n      0x00\n        /* \"#utility.yul\":230:236   */\n      dup3\n        /* \"#utility.yul\":225:228   */\n      dup3\n        /* \"#utility.yul\":218:237   */\n      mstore\n        /* \"#utility.yul\":270:274   */\n      0x20\n        /* \"#utility.yul\":265:268   */\n      dup3\n        /* \"#utility.yul\":261:275   */\n      add\n        /* \"#utility.yul\":246:275   */\n      swap1\n      pop\n        /* \"#utility.yul\":112:281   */\n      swap3\n      swap2\n      pop\n      pop\n      jump\t// out\n        /* \"#utility.yul\":287:594   */\n    tag_57:\n        /* \"#utility.yul\":355:356   */\n      0x00\n        /* \"#utility.yul\":365:478   */\n    tag_80:\n        /* \"#utility.yul\":379:385   */\n      dup4\n        /* \"#utility.yul\":376:377   */\n      dup2\n        /* \"#utility.yul\":373:386   */\n      lt\n        /* \"#utility.yul\":365:478   */\n      iszero\n      tag_82\n      jumpi\n        /* \"#utility.yul\":464:465   */\n      dup1\n        /* \"#utility.yul\":459:462   */\n      dup3\n        /* \"#utility.yul\":455:466   */\n      add\n        /* \"#utility.yul\":449:467   */\n      mload\n        /* \"#utility.yul\":445:446   */\n      dup2\n        /* \"#utility.yul\":440:443   */\n      dup5\n        /* \"#utility.yul\":436:447   */\n      add\n        /* \"#utility.yul\":429:468   */\n      mstore\n        /* \"#utility.yul\":401:403   */\n      0x20\n        /* \"#utility.yul\":398:399   */\n      dup2\n        /* \"#utility.yul\":394:404   */\n      add\n        /* \"#utility.yul\":389:404   */\n      swap1\n      pop\n        /* \"#utility.yul\":365:478   */\n      jump(tag_80)\n    tag_82:\n        /* \"#utility.yul\":496:502   */\n      dup4\n        /* \"#utility.yul\":493:494   */\n      dup2\n        /* \"#utility.yul\":490:503   */\n      gt\n        /* \"#utility.yul\":487:588   */\n      iszero\n      tag_83\n      jumpi\n        /* \"#utility.yul\":576:577   */\n      0x00\n        /* \"#utility.yul\":567:573   */\n      dup5\n        /* \"#utility.yul\":562:565   */\n      dup5\n        /* \"#utility.yul\":558:574   */\n      add\n        /* \"#utility.yul\":551:578   */\n      mstore\n        /* \"#utility.yul\":487:588   */\n    tag_83:\n        /* \"#utility.yul\":336:594   */\n      pop\n        /* \"#utility.yul\":287:594   */\n      pop\n      pop\n      pop\n      jump\t// out\n        /* \"#utility.yul\":600:702   */\n    tag_58:\n        /* \"#utility.yul\":641:647   */\n      0x00\n        /* \"#utility.yul\":692:694   */\n      0x1f\n        /* \"#utility.yul\":688:695   */\n      not\n        /* \"#utility.yul\":683:685   */\n      0x1f\n        /* \"#utility.yul\":676:681   */\n      dup4\n        /* \"#utility.yul\":672:686   */\n      add\n        /* \"#utility.yul\":668:696   */\n      and\n        /* \"#utility.yul\":658:696   */\n      swap1\n      pop\n        /* \"#utility.yul\":600:702   */\n      swap2\n      swap1\n      pop\n      jump\t// out\n        /* \"#utility.yul\":708:1072   */\n    tag_59:\n        /* \"#utility.yul\":796:799   */\n      0x00\n        /* \"#utility.yul\":824:863   */\n      tag_86\n        /* \"#utility.yul\":857:862   */\n      dup3\n        /* \"#utility.yul\":824:863   */\n      tag_55\n      jump\t// in\n    tag_86:\n        /* \"#utility.yul\":879:950   */\n      tag_87\n        /* \"#utility.yul\":943:949   */\n      dup2\n        /* \"#utility.yul\":938:941   */\n      dup6\n        /* \"#utility.yul\":879:950   */\n      tag_56\n      jump\t// in\n    tag_87:\n        /* \"#utility.yul\":872:950   */\n      swap4\n      pop\n        /* \"#utility.yul\":959:1011   */\n      tag_88\n        /* \"#utility.yul\":1004:1010   */\n      dup2\n        /* \"#utility.yul\":999:1002   */\n      dup6\n        /* \"#utility.yul\":992:996   */\n      0x20\n        /* \"#utility.yul\":985:990   */\n      dup7\n        /* \"#utility.yul\":981:997   */\n      add\n        /* \"#utility.yul\":959:1011   */\n      tag_57\n      jump\t// in\n    tag_88:\n        /* \"#utility.yul\":1036:1065   */\n      tag_89\n        /* \"#utility.yul\":1058:1064   */\n      dup2\n        /* \"#utility.yul\":1036:1065   */\n      tag_58\n      jump\t// in\n    tag_89:\n        /* \"#utility.yul\":1031:1034   */\n      dup5\n        /* \"#utility.yul\":1027:1066   */\n      add\n        /* \"#utility.yul\":1020:1066   */\n      swap2\n      pop\n        /* \"#utility.yul\":800:1072   */\n      pop\n        /* \"#utility.yul\":708:1072   */\n      swap3\n      swap2\n      pop\n      pop\n      jump\t// out\n        /* \"#utility.yul\":1078:1391   */\n    tag_12:\n        /* \"#utility.yul\":1191:1195   */\n      0x00\n        /* \"#utility.yul\":1229:1231   */\n      0x20\n        /* \"#utility.yul\":1218:1227   */\n      dup3\n        /* \"#utility.yul\":1214:1232   */\n      add\n        /* \"#utility.yul\":1206:1232   */\n      swap1\n      pop\n        /* \"#utility.yul\":1278:1287   */\n      dup2\n        /* \"#utility.yul\":1272:1276   */\n      dup2\n        /* \"#utility.yul\":1268:1288   */\n      sub\n        /* \"#utility.yul\":1264:1265   */\n      0x00\n        /* \"#utility.yul\":1253:1262   */\n      dup4\n        /* \"#utility.yul\":1249:1266   */\n      add\n        /* \"#utility.yul\":1242:1289   */\n      mstore\n        /* \"#utility.yul\":1306:1384   */\n      tag_91\n        /* \"#utility.yul\":1379:1383   */\n      dup2\n        /* \"#utility.yul\":1370:1376   */\n      dup5\n        /* \"#utility.yul\":1306:1384   */\n      tag_59\n      jump\t// in\n    tag_91:\n        /* \"#utility.yul\":1298:1384   */\n      swap1\n      pop\n        /* \"#utility.yul\":1078:1391   */\n      swap3\n      swap2\n      pop\n      pop\n      jump\t// out\n        /* \"#utility.yul\":1397:1483   */\n    tag_60:\n        /* \"#utility.yul\":1432:1439   */\n      0x00\n        /* \"#utility.yul\":1472:1476   */\n      0xff\n        /* \"#utility.yul\":1465:1470   */\n      dup3\n        /* \"#utility.yul\":1461:1477   */\n      and\n        /* \"#utility.yul\":1450:1477   */\n      swap1\n      pop\n        /* \"#utility.yul\":1397:1483   */\n      swap2\n      swap1\n      pop\n      jump\t// out\n        /* \"#utility.yul\":1489:1601   */\n    tag_61:\n        /* \"#utility.yul\":1572:1594   */\n      tag_94\n        /* \"#utility.yul\":1588:1593   */\n      dup2\n        /* \"#utility.yul\":1572:1594   */\n      tag_60\n      jump\t// in\n    tag_94:\n        /* \"#utility.yul\":1567:1570   */\n      dup3\n        /* \"#utility.yul\":1560:1595   */\n      mstore\n        /* \"#utility.yul\":1489:1601   */\n      pop\n      pop\n      jump\t// out\n        /* \"#utility.yul\":1607:1821   */\n    tag_16:\n        /* \"#utility.yul\":1696:1700   */\n      0x00\n        /* \"#utility.yul\":1734:1736   */\n      0x20\n        /* \"#utility.yul\":1723:1732   */\n      dup3\n        /* \"#utility.yul\":1719:1737   */\n      add\n        /* \"#utility.yul\":1711:1737   */\n      swap1\n      pop\n        /* \"#utility.yul\":1747:1814   */\n      tag_96\n        /* \"#utility.yul\":1811:1812   */\n      0x00\n        /* \"#utility.yul\":1800:1809   */\n      dup4\n        /* \"#utility.yul\":1796:1813   */\n      add\n        /* \"#utility.yul\":1787:1793   */\n      dup5\n        /* \"#utility.yul\":1747:1814   */\n      tag_61\n      jump\t// in\n    tag_96:\n        /* \"#utility.yul\":1607:1821   */\n      swap3\n      swap2\n      pop\n      pop\n      jump\t// out\n        /* \"#utility.yul\":1908:2025   */\n    tag_63:\n        /* \"#utility.yul\":2017:2018   */\n      0x00\n        /* \"#utility.yul\":2014:2015   */\n      dup1\n        /* \"#utility.yul\":2007:2019   */\n      revert\n        /* \"#utility.yul\":2154:2280   */\n    tag_65:\n        /* \"#utility.yul\":2191:2198   */\n      0x00\n        /* \"#utility.yul\":2231:2273   */\n      0xffffffffffffffffffffffffffffffffffffffff\n        /* \"#utility.yul\":2224:2229   */\n      dup3\n        /* \"#utility.yul\":2220:2274   */\n      and\n        /* \"#utility.yul\":2209:2274   */\n      swap1\n      pop\n        /* \"#utility.yul\":2154:2280   */\n      swap2\n      swap1\n      pop\n      jump\t// out\n        /* \"#utility.yul\":2286:2382   */\n    tag_66:\n        /* \"#utility.yul\":2323:2330   */\n      0x00\n        /* \"#utility.yul\":2352:2376   */\n      tag_102\n        /* \"#utility.yul\":2370:2375   */\n      dup3\n        /* \"#utility.yul\":2352:2376   */\n      tag_65\n      jump\t// in\n    tag_102:\n        /* \"#utility.yul\":2341:2376   */\n      swap1\n      pop\n        /* \"#utility.yul\":2286:2382   */\n      swap2\n      swap1\n      pop\n      jump\t// out\n        /* \"#utility.yul\":2388:2510   */\n    tag_67:\n        /* \"#utility.yul\":2461:2485   */\n      tag_104\n        /* \"#utility.yul\":2479:2484   */\n      dup2\n        /* \"#utility.yul\":2461:2485   */\n      tag_66\n      jump\t// in\n    tag_104:\n        /* \"#utility.yul\":2454:2459   */\n      dup2\n        /* \"#utility.yul\":2451:2486   */\n      eq\n        /* \"#utility.yul\":2441:2504   */\n      tag_105\n      jumpi\n        /* \"#utility.yul\":2500:2501   */\n      0x00\n        /* \"#utility.yul\":2497:2498   */\n      dup1\n        /* \"#utility.yul\":2490:2502   */\n      revert\n        /* \"#utility.yul\":2441:2504   */\n    tag_105:\n        /* \"#utility.yul\":2388:2510   */\n      pop\n      jump\t// out\n        /* \"#utility.yul\":2516:2655   */\n    tag_68:\n        /* \"#utility.yul\":2562:2567   */\n      0x00\n        /* \"#utility.yul\":2600:2606   */\n      dup2\n        /* \"#utility.yul\":2587:2607   */\n      calldataload\n        /* \"#utility.yul\":2578:2607   */\n      swap1\n      pop\n        /* \"#utility.yul\":2616:2649   */\n      tag_107\n        /* \"#utility.yul\":2643:2648   */\n      dup2\n        /* \"#utility.yul\":2616:2649   */\n      tag_67\n      jump\t// in\n    tag_107:\n        /* \"#utility.yul\":2516:2655   */\n      swap3\n      swap2\n      pop\n      pop\n      jump\t// out\n        /* \"#utility.yul\":2661:2738   */\n    tag_69:\n        /* \"#utility.yul\":2698:2705   */\n      0x00\n        /* \"#utility.yul\":2727:2732   */\n      dup2\n        /* \"#utility.yul\":2716:2732   */\n      swap1\n      pop\n        /* \"#utility.yul\":2661:2738   */\n      swap2\n      swap1\n      pop\n      jump\t// out\n        /* \"#utility.yul\":2744:2866   */\n    tag_70:\n        /* \"#utility.yul\":2817:2841   */\n      tag_110\n        /* \"#utility.yul\":2835:2840   */\n      dup2\n        /* \"#utility.yul\":2817:2841   */\n      tag_69\n      jump\t// in\n    tag_110:\n        /* \"#utility.yul\":2810:2815   */\n      dup2\n        /* \"#utility.yul\":2807:2842   */\n      eq\n        /* \"#utility.yul\":2797:2860   */\n      tag_111\n      jumpi\n        /* \"#utility.yul\":2856:2857   */\n      0x00\n        /* \"#utility.yul\":2853:2854   */\n      dup1\n        /* \"#utility.yul\":2846:2858   */\n      revert\n        /* \"#utility.yul\":2797:2860   */\n    tag_111:\n        /* \"#utility.yul\":2744:2866   */\n      pop\n      jump\t// out\n        /* \"#utility.yul\":2872:3011   */\n    tag_71:\n        /* \"#utility.yul\":2918:2923   */\n      0x00\n        /* \"#utility.yul\":2956:2962   */\n      dup2\n        /* \"#utility.yul\":2943:2963   */\n      calldataload\n        /* \"#utility.yul\":2934:2963   */\n      swap1\n      pop\n        /* \"#utility.yul\":2972:3005   */\n      tag_113\n        /* \"#utility.yul\":2999:3004   */\n      dup2\n        /* \"#utility.yul\":2972:3005   */\n      tag_70\n      jump\t// in\n    tag_113:\n        /* \"#utility.yul\":2872:3011   */\n      swap3\n      swap2\n      pop\n      pop\n      jump\t// out\n        /* \"#utility.yul\":3017:3491   */\n    tag_22:\n        /* \"#utility.yul\":3085:3091   */\n      0x00\n        /* \"#utility.yul\":3093:3099   */\n      dup1\n        /* \"#utility.yul\":3142:3144   */\n      0x40\n        /* \"#utility.yul\":3130:3139   */\n      dup4\n        /* \"#utility.yul\":3121:3128   */\n      dup6\n        /* \"#utility.yul\":3117:3140   */\n      sub\n        /* \"#utility.yul\":3113:3145   */\n      slt\n        /* \"#utility.yul\":3110:3229   */\n      iszero\n      tag_115\n      jumpi\n        /* \"#utility.yul\":3148:3227   */\n      tag_116\n      tag_63\n      jump\t// in\n    tag_116:\n        /* \"#utility.yul\":3110:3229   */\n    tag_115:\n        /* \"#utility.yul\":3268:3269   */\n      0x00\n        /* \"#utility.yul\":3293:3346   */\n      tag_117\n        /* \"#utility.yul\":3338:3345   */\n      dup6\n        /* \"#utility.yul\":3329:3335   */\n      dup3\n        /* \"#utility.yul\":3318:3327   */\n      dup7\n        /* \"#utility.yul\":3314:3336   */\n      add\n        /* \"#utility.yul\":3293:3346   */\n      tag_68\n      jump\t// in\n    tag_117:\n        /* \"#utility.yul\":3283:3346   */\n      swap3\n      pop\n        /* \"#utility.yul\":3239:3356   */\n      pop\n        /* \"#utility.yul\":3395:3397   */\n      0x20\n        /* \"#utility.yul\":3421:3474   */\n      tag_118\n        /* \"#utility.yul\":3466:3473   */\n      dup6\n        /* \"#utility.yul\":3457:3463   */\n      dup3\n        /* \"#utility.yul\":3446:3455   */\n      dup7\n        /* \"#utility.yul\":3442:3464   */\n      add\n        /* \"#utility.yul\":3421:3474   */\n      tag_71\n      jump\t// in\n    tag_118:\n        /* \"#utility.yul\":3411:3474   */\n      swap2\n      pop\n        /* \"#utility.yul\":3366:3484   */\n      pop\n        /* \"#utility.yul\":3017:3491   */\n      swap3\n      pop\n      swap3\n      swap1\n      pop\n      jump\t// out\n        /* \"#utility.yul\":3497:3826   */\n    tag_26:\n        /* \"#utility.yul\":3556:3562   */\n      0x00\n        /* \"#utility.yul\":3605:3607   */\n      0x20\n        /* \"#utility.yul\":3593:3602   */\n      dup3\n        /* \"#utility.yul\":3584:3591   */\n      dup5\n        /* \"#utility.yul\":3580:3603   */\n      sub\n        /* \"#utility.yul\":3576:3608   */\n      slt\n        /* \"#utility.yul\":3573:3692   */\n      iszero\n      tag_120\n      jumpi\n        /* \"#utility.yul\":3611:3690   */\n      tag_121\n      tag_63\n      jump\t// in\n    tag_121:\n        /* \"#utility.yul\":3573:3692   */\n    tag_120:\n        /* \"#utility.yul\":3731:3732   */\n      0x00\n        /* \"#utility.yul\":3756:3809   */\n      tag_122\n        /* \"#utility.yul\":3801:3808   */\n      dup5\n        /* \"#utility.yul\":3792:3798   */\n      dup3\n        /* \"#utility.yul\":3781:3790   */\n      dup6\n        /* \"#utility.yul\":3777:3799   */\n      add\n        /* \"#utility.yul\":3756:3809   */\n      tag_71\n      jump\t// in\n    tag_122:\n        /* \"#utility.yul\":3746:3809   */\n      swap2\n      pop\n        /* \"#utility.yul\":3702:3819   */\n      pop\n        /* \"#utility.yul\":3497:3826   */\n      swap3\n      swap2\n      pop\n      pop\n      jump\t// out\n        /* \"#utility.yul\":3832:4012   */\n    tag_72:\n        /* \"#utility.yul\":3880:3957   */\n      0x4e487b7100000000000000000000000000000000000000000000000000000000\n        /* \"#utility.yul\":3877:3878   */\n      0x00\n        /* \"#utility.yul\":3870:3958   */\n      mstore\n        /* \"#utility.yul\":3977:3981   */\n      0x22\n        /* \"#utility.yul\":3974:3975   */\n      0x04\n        /* \"#utility.yul\":3967:3982   */\n      mstore\n        /* \"#utility.yul\":4001:4005   */\n      0x24\n        /* \"#utility.yul\":3998:3999   */\n      0x00\n        /* \"#utility.yul\":3991:4006   */\n      revert\n        /* \"#utility.yul\":4018:4338   */\n    tag_32:\n        /* \"#utility.yul\":4062:4068   */\n      0x00\n        /* \"#utility.yul\":4099:4100   */\n      0x02\n        /* \"#utility.yul\":4093:4097   */\n      dup3\n        /* \"#utility.yul\":4089:4101   */\n      div\n        /* \"#utility.yul\":4079:4101   */\n      swap1\n      pop\n        /* \"#utility.yul\":4146:4147   */\n      0x01\n        /* \"#utility.yul\":4140:4144   */\n      dup3\n        /* \"#utility.yul\":4136:4148   */\n      and\n        /* \"#utility.yul\":4167:4185   */\n      dup1\n        /* \"#utility.yul\":4157:4238   */\n      tag_125\n      jumpi\n        /* \"#utility.yul\":4223:4227   */\n      0x7f\n        /* \"#utility.yul\":4215:4221   */\n      dup3\n        /* \"#utility.yul\":4211:4228   */\n      and\n        /* \"#utility.yul\":4201:4228   */\n      swap2\n      pop\n        /* \"#utility.yul\":4157:4238   */\n    tag_125:\n        /* \"#utility.yul\":4285:4287   */\n      0x20\n        /* \"#utility.yul\":4277:4283   */\n      dup3\n        /* \"#utility.yul\":4274:4288   */\n      lt\n        /* \"#utility.yul\":4254:4272   */\n      dup2\n        /* \"#utility.yul\":4251:4289   */\n      eq\n        /* \"#utility.yul\":4248:4332   */\n      iszero\n      tag_126\n      jumpi\n        /* \"#utility.yul\":4304:4322   */\n      tag_127\n      tag_72\n      jump\t// in\n    tag_127:\n        /* \"#utility.yul\":4248:4332   */\n    tag_126:\n        /* \"#utility.yul\":4069:4338   */\n      pop\n        /* \"#utility.yul\":4018:4338   */\n      swap2\n      swap1\n      pop\n      jump\t// out\n        /* \"#utility.yul\":4344:4512   */\n    tag_73:\n        /* \"#utility.yul\":4484:4504   */\n      0x496e73756666696369656e742066756e64730000000000000000000000000000\n        /* \"#utility.yul\":4480:4481   */\n      0x00\n        /* \"#utility.yul\":4472:4478   */\n      dup3\n        /* \"#utility.yul\":4468:4482   */\n      add\n        /* \"#utility.yul\":4461:4505   */\n      mstore\n        /* \"#utility.yul\":4344:4512   */\n      pop\n      jump\t// out\n        /* \"#utility.yul\":4518:4884   */\n    tag_74:\n        /* \"#utility.yul\":4660:4663   */\n      0x00\n        /* \"#utility.yul\":4681:4748   */\n      tag_130\n        /* \"#utility.yul\":4745:4747   */\n      0x12\n        /* \"#utility.yul\":4740:4743   */\n      dup4\n        /* \"#utility.yul\":4681:4748   */\n      tag_56\n      jump\t// in\n    tag_130:\n        /* \"#utility.yul\":4674:4748   */\n      swap2\n      pop\n        /* \"#utility.yul\":4757:4850   */\n      tag_131\n        /* \"#utility.yul\":4846:4849   */\n      dup3\n        /* \"#utility.yul\":4757:4850   */\n      tag_73\n      jump\t// in\n    tag_131:\n        /* \"#utility.yul\":4875:4877   */\n      0x20\n        /* \"#utility.yul\":4870:4873   */\n      dup3\n        /* \"#utility.yul\":4866:4878   */\n      add\n        /* \"#utility.yul\":4859:4878   */\n      swap1\n      pop\n        /* \"#utility.yul\":4518:4884   */\n      swap2\n      swap1\n      pop\n      jump\t// out\n        /* \"#utility.yul\":4890:5309   */\n    tag_45:\n        /* \"#utility.yul\":5056:5060   */\n      0x00\n        /* \"#utility.yul\":5094:5096   */\n      0x20\n        /* \"#utility.yul\":5083:5092   */\n      dup3\n        /* \"#utility.yul\":5079:5097   */\n      add\n        /* \"#utility.yul\":5071:5097   */\n      swap1\n      pop\n        /* \"#utility.yul\":5143:5152   */\n      dup2\n        /* \"#utility.yul\":5137:5141   */\n      dup2\n        /* \"#utility.yul\":5133:5153   */\n      sub\n        /* \"#utility.yul\":5129:5130   */\n      0x00\n        /* \"#utility.yul\":5118:5127   */\n      dup4\n        /* \"#utility.yul\":5114:5131   */\n      add\n        /* \"#utility.yul\":5107:5154   */\n      mstore\n        /* \"#utility.yul\":5171:5302   */\n      tag_133\n        /* \"#utility.yul\":5297:5301   */\n      dup2\n        /* \"#utility.yul\":5171:5302   */\n      tag_74\n      jump\t// in\n    tag_133:\n        /* \"#utility.yul\":5163:5302   */\n      swap1\n      pop\n        /* \"#utility.yul\":4890:5309   */\n      swap2\n      swap1\n      pop\n      jump\t// out\n        /* \"#utility.yul\":5315:5495   */\n    tag_75:\n        /* \"#utility.yul\":5363:5440   */\n      0x4e487b7100000000000000000000000000000000000000000000000000000000\n        /* \"#utility.yul\":5360:5361   */\n      0x00\n        /* \"#utility.yul\":5353:5441   */\n      mstore\n        /* \"#utility.yul\":5460:5464   */\n      0x11\n        /* \"#utility.yul\":5457:5458   */\n      0x04\n        /* \"#utility.yul\":5450:5465   */\n      mstore\n        /* \"#utility.yul\":5484:5488   */\n      0x24\n        /* \"#utility.yul\":5481:5482   */\n      0x00\n        /* \"#utility.yul\":5474:5489   */\n      revert\n        /* \"#utility.yul\":5501:5692   */\n    tag_47:\n        /* \"#utility.yul\":5541:5545   */\n      0x00\n        /* \"#utility.yul\":5561:5581   */\n      tag_136\n        /* \"#utility.yul\":5579:5580   */\n      dup3\n        /* \"#utility.yul\":5561:5581   */\n      tag_69\n      jump\t// in\n    tag_136:\n        /* \"#utility.yul\":5556:5581   */\n      swap2\n      pop\n        /* \"#utility.yul\":5595:5615   */\n      tag_137\n        /* \"#utility.yul\":5613:5614   */\n      dup4\n        /* \"#utility.yul\":5595:5615   */\n      tag_69\n      jump\t// in\n    tag_137:\n        /* \"#utility.yul\":5590:5615   */\n      swap3\n      pop\n        /* \"#utility.yul\":5634:5635   */\n      dup3\n        /* \"#utility.yul\":5631:5632   */\n      dup3\n        /* \"#utility.yul\":5628:5636   */\n      lt\n        /* \"#utility.yul\":5625:5659   */\n      iszero\n      tag_138\n      jumpi\n        /* \"#utility.yul\":5639:5657   */\n      tag_139\n      tag_75\n      jump\t// in\n    tag_139:\n        /* \"#utility.yul\":5625:5659   */\n    tag_138:\n        /* \"#utility.yul\":5684:5685   */\n      dup3\n        /* \"#utility.yul\":5681:5682   */\n      dup3\n        /* \"#utility.yul\":5677:5686   */\n      sub\n        /* \"#utility.yul\":5669:5686   */\n      swap1\n      pop\n        /* \"#utility.yul\":5501:5692   */\n      swap3\n      swap2\n      pop\n      pop\n      jump\t// out\n        /* \"#utility.yul\":5698:6003   */\n    tag_49:\n        /* \"#utility.yul\":5738:5741   */\n      0x00\n        /* \"#utility.yul\":5757:5777   */\n      tag_141\n        /* \"#utility.yul\":5775:5776   */\n      dup3\n        /* \"#utility.yul\":5757:5777   */\n      tag_69\n      jump\t// in\n    tag_141:\n        /* \"#utility.yul\":5752:5777   */\n      swap2\n      pop\n        /* \"#utility.yul\":5791:5811   */\n      tag_142\n        /* \"#utility.yul\":5809:5810   */\n      dup4\n        /* \"#utility.yul\":5791:5811   */\n      tag_69\n      jump\t// in\n    tag_142:\n        /* \"#utility.yul\":5786:5811   */\n      swap3\n      pop\n        /* \"#utility.yul\":5945:5946   */\n      dup3\n        /* \"#utility.yul\":5877:5943   */\n      0xffffffffffffffffffffffffffffffffffffffffffffffffffffffffffffffff\n        /* \"#utility.yul\":5873:5947   */\n      sub\n        /* \"#utility.yul\":5870:5871   */\n      dup3\n        /* \"#utility.yul\":5867:5948   */\n      gt\n        /* \"#utility.yul\":5864:5971   */\n      iszero\n      tag_143\n      jumpi\n        /* \"#utility.yul\":5951:5969   */\n      tag_144\n      tag_75\n      jump\t// in\n    tag_144:\n        /* \"#utility.yul\":5864:5971   */\n    tag_143:\n        /* \"#utility.yul\":5995:5996   */\n      dup3\n        /* \"#utility.yul\":5992:5993   */\n      dup3\n        /* \"#utility.yul\":5988:5997   */\n      add\n        /* \"#utility.yul\":5981:5997   */\n      swap1\n      pop\n        /* \"#utility.yul\":5698:6003   */\n      swap3\n      swap2\n      pop\n      pop\n      jump\t// out\n\n    auxdata: 0xa26469706673582212207f3f216e01fbf1562d1531136ccaa1910224ac9e9b5b48ed7f258717bd9dc6b864736f6c63430008080033\n}\n",
				"bytecode": {
					"linkReferences": {},
					"object": "608060405234801561001057600080fd5b5033600260006101000a81548173ffffffffffffffffffffffffffffffffffffffff021916908373ffffffffffffffffffffffffffffffffffffffff1602179055506040518060400160405280600981526020017f46726565546f6b656e00000000000000000000000000000000000000000000008152506003908051906020019061009d92919061010b565b506040518060400160405280600281526020017f4654000000000000000000000000000000000000000000000000000000000000815250600490805190602001906100e992919061010b565b50600a600560006101000a81548160ff021916908360ff16021790555061020f565b828054610117906101dd565b90600052602060002090601f0160209004810192826101395760008555610180565b82601f1061015257805160ff1916838001178555610180565b82800160010185558215610180579182015b8281111561017f578251825591602001919060010190610164565b5b50905061018d9190610191565b5090565b5b808211156101aa576000816000905550600101610192565b5090565b7f4e487b7100000000000000000000000000000000000000000000000000000000600052602260045260246000fd5b600060028204905060018216806101f557607f821691505b60208210811415610209576102086101ae565b5b50919050565b6107fc8061021e6000396000f3fe608060405234801561001057600080fd5b50600436106100625760003560e01c806306fdde0314610067578063313ce5671461008557806395d89b41146100a3578063a9059cbb146100c1578063efef39a1146100dd578063f7ea7a3d146100f9575b600080fd5b61006f610115565b60405161007c91906104e1565b60405180910390f35b61008d6101a3565b60405161009a919061051f565b60405180910390f35b6100ab6101b6565b6040516100b891906104e1565b60405180910390f35b6100db60048036038101906100d691906105d3565b610244565b005b6100f760048036038101906100f29190610613565b610373565b005b610113600480360381019061010e9190610613565b6103e4565b005b600380546101229061066f565b80601f016020809104026020016040519081016040528092919081815260200182805461014e9061066f565b801561019b5780601f106101705761010080835404028352916020019161019b565b820191906000526020600020905b81548152906001019060200180831161017e57829003601f168201915b505050505081565b600560009054906101000a900460ff1681565b600480546101c39061066f565b80601f01602080910402602001604051908101604052809291908181526020018280546101ef9061066f565b801561023c5780601f106102115761010080835404028352916020019161023c565b820191906000526020600020905b81548152906001019060200180831161021f57829003601f168201915b505050505081565b806000803373ffffffffffffffffffffffffffffffffffffffff1673ffffffffffffffffffffffffffffffffffffffff1681526020019081526020016000205410156102c5576040517f08c379a00000000000000000000000000000000000000000000000000000000081526004016102bc906106ed565b60405180910390fd5b806000803373ffffffffffffffffffffffffffffffffffffffff1673ffffffffffffffffffffffffffffffffffffffff1681526020019081526020016000206000828254610313919061073c565b92505081905550806000808473ffffffffffffffffffffffffffffffffffffffff1673ffffffffffffffffffffffffffffffffffffffff16815260200190815260200160002060008282546103689190610770565b925050819055505050565b806000803373ffffffffffffffffffffffffffffffffffffffff1673ffffffffffffffffffffffffffffffffffffffff16815260200190815260200160002060008282546103c19190610770565b9250508190555080600160008282546103da919061073c565b9250508190555050565b3373ffffffffffffffffffffffffffffffffffffffff16600260009054906101000a900473ffffffffffffffffffffffffffffffffffffffff1673ffffffffffffffffffffffffffffffffffffffff161461043e57600080fd5b8060018190555050565b600081519050919050565b600082825260208201905092915050565b60005b83811015610482578082015181840152602081019050610467565b83811115610491576000848401525b50505050565b6000601f19601f8301169050919050565b60006104b382610448565b6104bd8185610453565b93506104cd818560208601610464565b6104d681610497565b840191505092915050565b600060208201905081810360008301526104fb81846104a8565b905092915050565b600060ff82169050919050565b61051981610503565b82525050565b60006020820190506105346000830184610510565b92915050565b600080fd5b600073ffffffffffffffffffffffffffffffffffffffff82169050919050565b600061056a8261053f565b9050919050565b61057a8161055f565b811461058557600080fd5b50565b60008135905061059781610571565b92915050565b6000819050919050565b6105b08161059d565b81146105bb57600080fd5b50565b6000813590506105cd816105a7565b92915050565b600080604083850312156105ea576105e961053a565b5b60006105f885828601610588565b9250506020610609858286016105be565b9150509250929050565b6000602082840312156106295761062861053a565b5b6000610637848285016105be565b91505092915050565b7f4e487b7100000000000000000000000000000000000000000000000000000000600052602260045260246000fd5b6000600282049050600182168061068757607f821691505b6020821081141561069b5761069a610640565b5b50919050565b7f496e73756666696369656e742066756e64730000000000000000000000000000600082015250565b60006106d7601283610453565b91506106e2826106a1565b602082019050919050565b60006020820190508181036000830152610706816106ca565b9050919050565b7f4e487b7100000000000000000000000000000000000000000000000000000000600052601160045260246000fd5b60006107478261059d565b91506107528361059d565b9250828210156107655761076461070d565b5b828203905092915050565b600061077b8261059d565b91506107868361059d565b9250827fffffffffffffffffffffffffffffffffffffffffffffffffffffffffffffffff038211156107bb576107ba61070d565b5b82820190509291505056fea26469706673582212207f3f216e01fbf1562d1531136ccaa1910224ac9e9b5b48ed7f258717bd9dc6b864736f6c63430008080033",
					"opcodes": "PUSH1 0x80 PUSH1 0x40 MSTORE CALLVALUE DUP1 ISZERO PUSH2 0x10 JUMPI PUSH1 0x0 DUP1 REVERT JUMPDEST POP CALLER PUSH1 0x2 PUSH1 0x0 PUSH2 0x100 EXP DUP2 SLOAD DUP2 PUSH20 0xFFFFFFFFFFFFFFFFFFFFFFFFFFFFFFFFFFFFFFFF MUL NOT AND SWAP1 DUP4 PUSH20 0xFFFFFFFFFFFFFFFFFFFFFFFFFFFFFFFFFFFFFFFF AND MUL OR SWAP1 SSTORE POP PUSH1 0x40 MLOAD DUP1 PUSH1 0x40 ADD PUSH1 0x40 MSTORE DUP1 PUSH1 0x9 DUP2 MSTORE PUSH1 0x20 ADD PUSH32 0x46726565546F6B656E0000000000000000000000000000000000000000000000 DUP2 MSTORE POP PUSH1 0x3 SWAP1 DUP1 MLOAD SWAP1 PUSH1 0x20 ADD SWAP1 PUSH2 0x9D SWAP3 SWAP2 SWAP1 PUSH2 0x10B JUMP JUMPDEST POP PUSH1 0x40 MLOAD DUP1 PUSH1 0x40 ADD PUSH1 0x40 MSTORE DUP1 PUSH1 0x2 DUP2 MSTORE PUSH1 0x20 ADD PUSH32 0x4654000000000000000000000000000000000000000000000000000000000000 DUP2 MSTORE POP PUSH1 0x4 SWAP1 DUP1 MLOAD SWAP1 PUSH1 0x20 ADD SWAP1 PUSH2 0xE9 SWAP3 SWAP2 SWAP1 PUSH2 0x10B JUMP JUMPDEST POP PUSH1 0xA PUSH1 0x5 PUSH1 0x0 PUSH2 0x100 EXP DUP2 SLOAD DUP2 PUSH1 0xFF MUL NOT AND SWAP1 DUP4 PUSH1 0xFF AND MUL OR SWAP1 SSTORE POP PUSH2 0x20F JUMP JUMPDEST DUP3 DUP1 SLOAD PUSH2 0x117 SWAP1 PUSH2 0x1DD JUMP JUMPDEST SWAP1 PUSH1 0x0 MSTORE PUSH1 0x20 PUSH1 0x0 KECCAK256 SWAP1 PUSH1 0x1F ADD PUSH1 0x20 SWAP1 DIV DUP2 ADD SWAP3 DUP3 PUSH2 0x139 JUMPI PUSH1 0x0 DUP6 SSTORE PUSH2 0x180 JUMP JUMPDEST DUP3 PUSH1 0x1F LT PUSH2 0x152 JUMPI DUP1 MLOAD PUSH1 0xFF NOT AND DUP4 DUP1 ADD OR DUP6 SSTORE PUSH2 0x180 JUMP JUMPDEST DUP3 DUP1 ADD PUSH1 0x1 ADD DUP6 SSTORE DUP3 ISZERO PUSH2 0x180 JUMPI SWAP2 DUP3 ADD JUMPDEST DUP3 DUP2 GT ISZERO PUSH2 0x17F JUMPI DUP3 MLOAD DUP3 SSTORE SWAP2 PUSH1 0x20 ADD SWAP2 SWAP1 PUSH1 0x1 ADD SWAP1 PUSH2 0x164 JUMP JUMPDEST JUMPDEST POP SWAP1 POP PUSH2 0x18D SWAP2 SWAP1 PUSH2 0x191 JUMP JUMPDEST POP SWAP1 JUMP JUMPDEST JUMPDEST DUP1 DUP3 GT ISZERO PUSH2 0x1AA JUMPI PUSH1 0x0 DUP2 PUSH1 0x0 SWAP1 SSTORE POP PUSH1 0x1 ADD PUSH2 0x192 JUMP JUMPDEST POP SWAP1 JUMP JUMPDEST PUSH32 0x4E487B7100000000000000000000000000000000000000000000000000000000 PUSH1 0x0 MSTORE PUSH1 0x22 PUSH1 0x4 MSTORE PUSH1 0x24 PUSH1 0x0 REVERT JUMPDEST PUSH1 0x0 PUSH1 0x2 DUP3 DIV SWAP1 POP PUSH1 0x1 DUP3 AND DUP1 PUSH2 0x1F5 JUMPI PUSH1 0x7F DUP3 AND SWAP2 POP JUMPDEST PUSH1 0x20 DUP3 LT DUP2 EQ ISZERO PUSH2 0x209 JUMPI PUSH2 0x208 PUSH2 0x1AE JUMP JUMPDEST JUMPDEST POP SWAP2 SWAP1 POP JUMP JUMPDEST PUSH2 0x7FC DUP1 PUSH2 0x21E PUSH1 0x0 CODECOPY PUSH1 0x0 RETURN INVALID PUSH1 0x80 PUSH1 0x40 MSTORE CALLVALUE DUP1 ISZERO PUSH2 0x10 JUMPI PUSH1 0x0 DUP1 REVERT JUMPDEST POP PUSH1 0x4 CALLDATASIZE LT PUSH2 0x62 JUMPI PUSH1 0x0 CALLDATALOAD PUSH1 0xE0 SHR DUP1 PUSH4 0x6FDDE03 EQ PUSH2 0x67 JUMPI DUP1 PUSH4 0x313CE567 EQ PUSH2 0x85 JUMPI DUP1 PUSH4 0x95D89B41 EQ PUSH2 0xA3 JUMPI DUP1 PUSH4 0xA9059CBB EQ PUSH2 0xC1 JUMPI DUP1 PUSH4 0xEFEF39A1 EQ PUSH2 0xDD JUMPI DUP1 PUSH4 0xF7EA7A3D EQ PUSH2 0xF9 JUMPI JUMPDEST PUSH1 0x0 DUP1 REVERT JUMPDEST PUSH2 0x6F PUSH2 0x115 JUMP JUMPDEST PUSH1 0x40 MLOAD PUSH2 0x7C SWAP2 SWAP1 PUSH2 0x4E1 JUMP JUMPDEST PUSH1 0x40 MLOAD DUP1 SWAP2 SUB SWAP1 RETURN JUMPDEST PUSH2 0x8D PUSH2 0x1A3 JUMP JUMPDEST PUSH1 0x40 MLOAD PUSH2 0x9A SWAP2 SWAP1 PUSH2 0x51F JUMP JUMPDEST PUSH1 0x40 MLOAD DUP1 SWAP2 SUB SWAP1 RETURN JUMPDEST PUSH2 0xAB PUSH2 0x1B6 JUMP JUMPDEST PUSH1 0x40 MLOAD PUSH2 0xB8 SWAP2 SWAP1 PUSH2 0x4E1 JUMP JUMPDEST PUSH1 0x40 MLOAD DUP1 SWAP2 SUB SWAP1 RETURN JUMPDEST PUSH2 0xDB PUSH1 0x4 DUP1 CALLDATASIZE SUB DUP2 ADD SWAP1 PUSH2 0xD6 SWAP2 SWAP1 PUSH2 0x5D3 JUMP JUMPDEST PUSH2 0x244 JUMP JUMPDEST STOP JUMPDEST PUSH2 0xF7 PUSH1 0x4 DUP1 CALLDATASIZE SUB DUP2 ADD SWAP1 PUSH2 0xF2 SWAP2 SWAP1 PUSH2 0x613 JUMP JUMPDEST PUSH2 0x373 JUMP JUMPDEST STOP JUMPDEST PUSH2 0x113 PUSH1 0x4 DUP1 CALLDATASIZE SUB DUP2 ADD SWAP1 PUSH2 0x10E SWAP2 SWAP1 PUSH2 0x613 JUMP JUMPDEST PUSH2 0x3E4 JUMP JUMPDEST STOP JUMPDEST PUSH1 0x3 DUP1 SLOAD PUSH2 0x122 SWAP1 PUSH2 0x66F JUMP JUMPDEST DUP1 PUSH1 0x1F ADD PUSH1 0x20 DUP1 SWAP2 DIV MUL PUSH1 0x20 ADD PUSH1 0x40 MLOAD SWAP1 DUP2 ADD PUSH1 0x40 MSTORE DUP1 SWAP3 SWAP2 SWAP1 DUP2 DUP2 MSTORE PUSH1 0x20 ADD DUP3 DUP1 SLOAD PUSH2 0x14E SWAP1 PUSH2 0x66F JUMP JUMPDEST DUP1 ISZERO PUSH2 0x19B JUMPI DUP1 PUSH1 0x1F LT PUSH2 0x170 JUMPI PUSH2 0x100 DUP1 DUP4 SLOAD DIV MUL DUP4 MSTORE SWAP2 PUSH1 0x20 ADD SWAP2 PUSH2 0x19B JUMP JUMPDEST DUP3 ADD SWAP2 SWAP1 PUSH1 0x0 MSTORE PUSH1 0x20 PUSH1 0x0 KECCAK256 SWAP1 JUMPDEST DUP2 SLOAD DUP2 MSTORE SWAP1 PUSH1 0x1 ADD SWAP1 PUSH1 0x20 ADD DUP1 DUP4 GT PUSH2 0x17E JUMPI DUP3 SWAP1 SUB PUSH1 0x1F AND DUP3 ADD SWAP2 JUMPDEST POP POP POP POP POP DUP2 JUMP JUMPDEST PUSH1 0x5 PUSH1 0x0 SWAP1 SLOAD SWAP1 PUSH2 0x100 EXP SWAP1 DIV PUSH1 0xFF AND DUP2 JUMP JUMPDEST PUSH1 0x4 DUP1 SLOAD PUSH2 0x1C3 SWAP1 PUSH2 0x66F JUMP JUMPDEST DUP1 PUSH1 0x1F ADD PUSH1 0x20 DUP1 SWAP2 DIV MUL PUSH1 0x20 ADD PUSH1 0x40 MLOAD SWAP1 DUP2 ADD PUSH1 0x40 MSTORE DUP1 SWAP3 SWAP2 SWAP1 DUP2 DUP2 MSTORE PUSH1 0x20 ADD DUP3 DUP1 SLOAD PUSH2 0x1EF SWAP1 PUSH2 0x66F JUMP JUMPDEST DUP1 ISZERO PUSH2 0x23C JUMPI DUP1 PUSH1 0x1F LT PUSH2 0x211 JUMPI PUSH2 0x100 DUP1 DUP4 SLOAD DIV MUL DUP4 MSTORE SWAP2 PUSH1 0x20 ADD SWAP2 PUSH2 0x23C JUMP JUMPDEST DUP3 ADD SWAP2 SWAP1 PUSH1 0x0 MSTORE PUSH1 0x20 PUSH1 0x0 KECCAK256 SWAP1 JUMPDEST DUP2 SLOAD DUP2 MSTORE SWAP1 PUSH1 0x1 ADD SWAP1 PUSH1 0x20 ADD DUP1 DUP4 GT PUSH2 0x21F JUMPI DUP3 SWAP1 SUB PUSH1 0x1F AND DUP3 ADD SWAP2 JUMPDEST POP POP POP POP POP DUP2 JUMP JUMPDEST DUP1 PUSH1 0x0 DUP1 CALLER PUSH20 0xFFFFFFFFFFFFFFFFFFFFFFFFFFFFFFFFFFFFFFFF AND PUSH20 0xFFFFFFFFFFFFFFFFFFFFFFFFFFFFFFFFFFFFFFFF AND DUP2 MSTORE PUSH1 0x20 ADD SWAP1 DUP2 MSTORE PUSH1 0x20 ADD PUSH1 0x0 KECCAK256 SLOAD LT ISZERO PUSH2 0x2C5 JUMPI PUSH1 0x40 MLOAD PUSH32 0x8C379A000000000000000000000000000000000000000000000000000000000 DUP2 MSTORE PUSH1 0x4 ADD PUSH2 0x2BC SWAP1 PUSH2 0x6ED JUMP JUMPDEST PUSH1 0x40 MLOAD DUP1 SWAP2 SUB SWAP1 REVERT JUMPDEST DUP1 PUSH1 0x0 DUP1 CALLER PUSH20 0xFFFFFFFFFFFFFFFFFFFFFFFFFFFFFFFFFFFFFFFF AND PUSH20 0xFFFFFFFFFFFFFFFFFFFFFFFFFFFFFFFFFFFFFFFF AND DUP2 MSTORE PUSH1 0x20 ADD SWAP1 DUP2 MSTORE PUSH1 0x20 ADD PUSH1 0x0 KECCAK256 PUSH1 0x0 DUP3 DUP3 SLOAD PUSH2 0x313 SWAP2 SWAP1 PUSH2 0x73C JUMP JUMPDEST SWAP3 POP POP DUP2 SWAP1 SSTORE POP DUP1 PUSH1 0x0 DUP1 DUP5 PUSH20 0xFFFFFFFFFFFFFFFFFFFFFFFFFFFFFFFFFFFFFFFF AND PUSH20 0xFFFFFFFFFFFFFFFFFFFFFFFFFFFFFFFFFFFFFFFF AND DUP2 MSTORE PUSH1 0x20 ADD SWAP1 DUP2 MSTORE PUSH1 0x20 ADD PUSH1 0x0 KECCAK256 PUSH1 0x0 DUP3 DUP3 SLOAD PUSH2 0x368 SWAP2 SWAP1 PUSH2 0x770 JUMP JUMPDEST SWAP3 POP POP DUP2 SWAP1 SSTORE POP POP POP JUMP JUMPDEST DUP1 PUSH1 0x0 DUP1 CALLER PUSH20 0xFFFFFFFFFFFFFFFFFFFFFFFFFFFFFFFFFFFFFFFF AND PUSH20 0xFFFFFFFFFFFFFFFFFFFFFFFFFFFFFFFFFFFFFFFF AND DUP2 MSTORE PUSH1 0x20 ADD SWAP1 DUP2 MSTORE PUSH1 0x20 ADD PUSH1 0x0 KECCAK256 PUSH1 0x0 DUP3 DUP3 SLOAD PUSH2 0x3C1 SWAP2 SWAP1 PUSH2 0x770 JUMP JUMPDEST SWAP3 POP POP DUP2 SWAP1 SSTORE POP DUP1 PUSH1 0x1 PUSH1 0x0 DUP3 DUP3 SLOAD PUSH2 0x3DA SWAP2 SWAP1 PUSH2 0x73C JUMP JUMPDEST SWAP3 POP POP DUP2 SWAP1 SSTORE POP POP JUMP JUMPDEST CALLER PUSH20 0xFFFFFFFFFFFFFFFFFFFFFFFFFFFFFFFFFFFFFFFF AND PUSH1 0x2 PUSH1 0x0 SWAP1 SLOAD SWAP1 PUSH2 0x100 EXP SWAP1 DIV PUSH20 0xFFFFFFFFFFFFFFFFFFFFFFFFFFFFFFFFFFFFFFFF AND PUSH20 0xFFFFFFFFFFFFFFFFFFFFFFFFFFFFFFFFFFFFFFFF AND EQ PUSH2 0x43E JUMPI PUSH1 0x0 DUP1 REVERT JUMPDEST DUP1 PUSH1 0x1 DUP2 SWAP1 SSTORE POP POP JUMP JUMPDEST PUSH1 0x0 DUP2 MLOAD SWAP1 POP SWAP2 SWAP1 POP JUMP JUMPDEST PUSH1 0x0 DUP3 DUP3 MSTORE PUSH1 0x20 DUP3 ADD SWAP1 POP SWAP3 SWAP2 POP POP JUMP JUMPDEST PUSH1 0x0 JUMPDEST DUP4 DUP2 LT ISZERO PUSH2 0x482 JUMPI DUP1 DUP3 ADD MLOAD DUP2 DUP5 ADD MSTORE PUSH1 0x20 DUP2 ADD SWAP1 POP PUSH2 0x467 JUMP JUMPDEST DUP4 DUP2 GT ISZERO PUSH2 0x491 JUMPI PUSH1 0x0 DUP5 DUP5 ADD MSTORE JUMPDEST POP POP POP POP JUMP JUMPDEST PUSH1 0x0 PUSH1 0x1F NOT PUSH1 0x1F DUP4 ADD AND SWAP1 POP SWAP2 SWAP1 POP JUMP JUMPDEST PUSH1 0x0 PUSH2 0x4B3 DUP3 PUSH2 0x448 JUMP JUMPDEST PUSH2 0x4BD DUP2 DUP6 PUSH2 0x453 JUMP JUMPDEST SWAP4 POP PUSH2 0x4CD DUP2 DUP6 PUSH1 0x20 DUP7 ADD PUSH2 0x464 JUMP JUMPDEST PUSH2 0x4D6 DUP2 PUSH2 0x497 JUMP JUMPDEST DUP5 ADD SWAP2 POP POP SWAP3 SWAP2 POP POP JUMP JUMPDEST PUSH1 0x0 PUSH1 0x20 DUP3 ADD SWAP1 POP DUP2 DUP2 SUB PUSH1 0x0 DUP4 ADD MSTORE PUSH2 0x4FB DUP2 DUP5 PUSH2 0x4A8 JUMP JUMPDEST SWAP1 POP SWAP3 SWAP2 POP POP JUMP JUMPDEST PUSH1 0x0 PUSH1 0xFF DUP3 AND SWAP1 POP SWAP2 SWAP1 POP JUMP JUMPDEST PUSH2 0x519 DUP2 PUSH2 0x503 JUMP JUMPDEST DUP3 MSTORE POP POP JUMP JUMPDEST PUSH1 0x0 PUSH1 0x20 DUP3 ADD SWAP1 POP PUSH2 0x534 PUSH1 0x0 DUP4 ADD DUP5 PUSH2 0x510 JUMP JUMPDEST SWAP3 SWAP2 POP POP JUMP JUMPDEST PUSH1 0x0 DUP1 REVERT JUMPDEST PUSH1 0x0 PUSH20 0xFFFFFFFFFFFFFFFFFFFFFFFFFFFFFFFFFFFFFFFF DUP3 AND SWAP1 POP SWAP2 SWAP1 POP JUMP JUMPDEST PUSH1 0x0 PUSH2 0x56A DUP3 PUSH2 0x53F JUMP JUMPDEST SWAP1 POP SWAP2 SWAP1 POP JUMP JUMPDEST PUSH2 0x57A DUP2 PUSH2 0x55F JUMP JUMPDEST DUP2 EQ PUSH2 0x585 JUMPI PUSH1 0x0 DUP1 REVERT JUMPDEST POP JUMP JUMPDEST PUSH1 0x0 DUP2 CALLDATALOAD SWAP1 POP PUSH2 0x597 DUP2 PUSH2 0x571 JUMP JUMPDEST SWAP3 SWAP2 POP POP JUMP JUMPDEST PUSH1 0x0 DUP2 SWAP1 POP SWAP2 SWAP1 POP JUMP JUMPDEST PUSH2 0x5B0 DUP2 PUSH2 0x59D JUMP JUMPDEST DUP2 EQ PUSH2 0x5BB JUMPI PUSH1 0x0 DUP1 REVERT JUMPDEST POP JUMP JUMPDEST PUSH1 0x0 DUP2 CALLDATALOAD SWAP1 POP PUSH2 0x5CD DUP2 PUSH2 0x5A7 JUMP JUMPDEST SWAP3 SWAP2 POP POP JUMP JUMPDEST PUSH1 0x0 DUP1 PUSH1 0x40 DUP4 DUP6 SUB SLT ISZERO PUSH2 0x5EA JUMPI PUSH2 0x5E9 PUSH2 0x53A JUMP JUMPDEST JUMPDEST PUSH1 0x0 PUSH2 0x5F8 DUP6 DUP3 DUP7 ADD PUSH2 0x588 JUMP JUMPDEST SWAP3 POP POP PUSH1 0x20 PUSH2 0x609 DUP6 DUP3 DUP7 ADD PUSH2 0x5BE JUMP JUMPDEST SWAP2 POP POP SWAP3 POP SWAP3 SWAP1 POP JUMP JUMPDEST PUSH1 0x0 PUSH1 0x20 DUP3 DUP5 SUB SLT ISZERO PUSH2 0x629 JUMPI PUSH2 0x628 PUSH2 0x53A JUMP JUMPDEST JUMPDEST PUSH1 0x0 PUSH2 0x637 DUP5 DUP3 DUP6 ADD PUSH2 0x5BE JUMP JUMPDEST SWAP2 POP POP SWAP3 SWAP2 POP POP JUMP JUMPDEST PUSH32 0x4E487B7100000000000000000000000000000000000000000000000000000000 PUSH1 0x0 MSTORE PUSH1 0x22 PUSH1 0x4 MSTORE PUSH1 0x24 PUSH1 0x0 REVERT JUMPDEST PUSH1 0x0 PUSH1 0x2 DUP3 DIV SWAP1 POP PUSH1 0x1 DUP3 AND DUP1 PUSH2 0x687 JUMPI PUSH1 0x7F DUP3 AND SWAP2 POP JUMPDEST PUSH1 0x20 DUP3 LT DUP2 EQ ISZERO PUSH2 0x69B JUMPI PUSH2 0x69A PUSH2 0x640 JUMP JUMPDEST JUMPDEST POP SWAP2 SWAP1 POP JUMP JUMPDEST PUSH32 0x496E73756666696369656E742066756E64730000000000000000000000000000 PUSH1 0x0 DUP3 ADD MSTORE POP JUMP JUMPDEST PUSH1 0x0 PUSH2 0x6D7 PUSH1 0x12 DUP4 PUSH2 0x453 JUMP JUMPDEST SWAP2 POP PUSH2 0x6E2 DUP3 PUSH2 0x6A1 JUMP JUMPDEST PUSH1 0x20 DUP3 ADD SWAP1 POP SWAP2 SWAP1 POP JUMP JUMPDEST PUSH1 0x0 PUSH1 0x20 DUP3 ADD SWAP1 POP DUP2 DUP2 SUB PUSH1 0x0 DUP4 ADD MSTORE PUSH2 0x706 DUP2 PUSH2 0x6CA JUMP JUMPDEST SWAP1 POP SWAP2 SWAP1 POP JUMP JUMPDEST PUSH32 0x4E487B7100000000000000000000000000000000000000000000000000000000 PUSH1 0x0 MSTORE PUSH1 0x11 PUSH1 0x4 MSTORE PUSH1 0x24 PUSH1 0x0 REVERT JUMPDEST PUSH1 0x0 PUSH2 0x747 DUP3 PUSH2 0x59D JUMP JUMPDEST SWAP2 POP PUSH2 0x752 DUP4 PUSH2 0x59D JUMP JUMPDEST SWAP3 POP DUP3 DUP3 LT ISZERO PUSH2 0x765 JUMPI PUSH2 0x764 PUSH2 0x70D JUMP JUMPDEST JUMPDEST DUP3 DUP3 SUB SWAP1 POP SWAP3 SWAP2 POP POP JUMP JUMPDEST PUSH1 0x0 PUSH2 0x77B DUP3 PUSH2 0x59D JUMP JUMPDEST SWAP2 POP PUSH2 0x786 DUP4 PUSH2 0x59D JUMP JUMPDEST SWAP3 POP DUP3 PUSH32 0xFFFFFFFFFFFFFFFFFFFFFFFFFFFFFFFFFFFFFFFFFFFFFFFFFFFFFFFFFFFFFFFF SUB DUP3 GT ISZERO PUSH2 0x7BB JUMPI PUSH2 0x7BA PUSH2 0x70D JUMP JUMPDEST JUMPDEST DUP3 DUP3 ADD SWAP1 POP SWAP3 SWAP2 POP POP JUMP INVALID LOG2 PUSH5 0x6970667358 0x22 SLT KECCAK256 PUSH32 0x3F216E01FBF1562D1531136CCAA1910224AC9E9B5B48ED7F258717BD9DC6B864 PUSH20 0x6F6C634300080800330000000000000000000000 "
				},
				"gasEstimates": {
					"creation": {
						"codeDepositCost": "408800",
						"executionCost": "infinite",
						"totalCost": "infinite"
					},
					"external": {
						"decimals()": "2471",
						"name()": "infinite",
						"purchase(uint256)": "infinite",
						"setTotalSupply(uint256)": "24778",
						"symbol()": "infinite",
						"transfer(address,uint256)": "infinite"
					}
				},
				"methodIdentifiers": {
					"decimals()": "313ce567",
					"name()": "06fdde03",
					"purchase(uint256)": "efef39a1",
					"setTotalSupply(uint256)": "f7ea7a3d",
					"symbol()": "95d89b41",
					"transfer(address,uint256)": "a9059cbb"
				}
			},
			"storageLayout": {
				"storage": [
					{
						"astId": 5,
						"contract": "FreeToken.sol:FreeToken",
						"label": "balance",
						"offset": 0,
						"slot": "0",
						"type": "t_mapping(t_address,t_uint256)"
					},
					{
						"astId": 7,
						"contract": "FreeToken.sol:FreeToken",
						"label": "totalSupply",
						"offset": 0,
						"slot": "1",
						"type": "t_uint256"
					},
					{
						"astId": 9,
						"contract": "FreeToken.sol:FreeToken",
						"label": "owner",
						"offset": 0,
						"slot": "2",
						"type": "t_address"
					},
					{
						"astId": 11,
						"contract": "FreeToken.sol:FreeToken",
						"label": "name",
						"offset": 0,
						"slot": "3",
						"type": "t_string_storage"
					},
					{
						"astId": 13,
						"contract": "FreeToken.sol:FreeToken",
						"label": "symbol",
						"offset": 0,
						"slot": "4",
						"type": "t_string_storage"
					},
					{
						"astId": 15,
						"contract": "FreeToken.sol:FreeToken",
						"label": "decimals",
						"offset": 0,
						"slot": "5",
						"type": "t_uint8"
					}
				],
				"types": {
					"t_address": {
						"encoding": "inplace",
						"label": "address",
						"numberOfBytes": "20"
					},
					"t_mapping(t_address,t_uint256)": {
						"encoding": "mapping",
						"key": "t_address",
						"label": "mapping(address => uint256)",
						"numberOfBytes": "32",
						"value": "t_uint256"
					},
					"t_string_storage": {
						"encoding": "bytes",
						"label": "string",
						"numberOfBytes": "32"
					},
					"t_uint256": {
						"encoding": "inplace",
						"label": "uint256",
						"numberOfBytes": "32"
					},
					"t_uint8": {
						"encoding": "inplace",
						"label": "uint8",
						"numberOfBytes": "1"
					}
				}
			},
			"userdoc": {
				"kind": "user",
				"methods": {},
				"version": 1
			}
		}
	}
}