{
	"Bank.sol": {
		"Bank": {
			"abi": [
				{
					"inputs": [],
					"stateMutability": "payable",
					"type": "constructor"
				},
				{
					"inputs": [
						{
							"internalType": "address",
							"name": "_to",
							"type": "address"
						}
					],
					"name": "depositMoney",
					"outputs": [],
					"stateMutability": "payable",
					"type": "function"
				},
				{
					"inputs": [],
					"name": "openAccount",
					"outputs": [
						{
							"internalType": "uint256",
							"name": "",
							"type": "uint256"
						}
					],
					"stateMutability": "payable",
					"type": "function"
				}
			],
			"devdoc": {
				"kind": "dev",
				"methods": {},
				"version": 1
			},
			"evm": {
				"assembly": "    /* \"Bank.sol\":71:671  contract Bank{... */\n  mstore(0x40, 0x80)\n    /* \"Bank.sol\":220:228  15 ether */\n  0xd02ab486cedc0000\n    /* \"Bank.sol\":207:216  msg.value */\n  callvalue\n    /* \"Bank.sol\":207:228  msg.value == 15 ether */\n  eq\n    /* \"Bank.sol\":199:278  require(msg.value == 15 ether, 'Initial 15 ether required for contract to run') */\n  tag_3\n  jumpi\n  mload(0x40)\n  0x08c379a000000000000000000000000000000000000000000000000000000000\n  dup2\n  mstore\n  0x04\n  add\n  tag_4\n  swap1\n  tag_5\n  jump\t// in\ntag_4:\n  mload(0x40)\n  dup1\n  swap2\n  sub\n  swap1\n  revert\ntag_3:\n    /* \"Bank.sol\":294:304  msg.sender */\n  caller\n    /* \"Bank.sol\":288:293  owner */\n  0x02\n  0x00\n    /* \"Bank.sol\":288:304  owner=msg.sender */\n  0x0100\n  exp\n  dup2\n  sload\n  dup2\n  0xffffffffffffffffffffffffffffffffffffffff\n  mul\n  not\n  and\n  swap1\n  dup4\n  0xffffffffffffffffffffffffffffffffffffffff\n  and\n  mul\n  or\n  swap1\n  sstore\n  pop\n    /* \"Bank.sol\":71:671  contract Bank{... */\n  jump(tag_6)\n    /* \"#utility.yul\":7:176   */\ntag_7:\n    /* \"#utility.yul\":91:102   */\n  0x00\n    /* \"#utility.yul\":125:131   */\n  dup3\n    /* \"#utility.yul\":120:123   */\n  dup3\n    /* \"#utility.yul\":113:132   */\n  mstore\n    /* \"#utility.yul\":165:169   */\n  0x20\n    /* \"#utility.yul\":160:163   */\n  dup3\n    /* \"#utility.yul\":156:170   */\n  add\n    /* \"#utility.yul\":141:170   */\n  swap1\n  pop\n    /* \"#utility.yul\":7:176   */\n  swap3\n  swap2\n  pop\n  pop\n  jump\t// out\n    /* \"#utility.yul\":182:414   */\ntag_8:\n    /* \"#utility.yul\":322:356   */\n  0x496e697469616c20313520657468657220726571756972656420666f7220636f\n    /* \"#utility.yul\":318:319   */\n  0x00\n    /* \"#utility.yul\":310:316   */\n  dup3\n    /* \"#utility.yul\":306:320   */\n  add\n    /* \"#utility.yul\":299:357   */\n  mstore\n    /* \"#utility.yul\":391:406   */\n  0x6e747261637420746f2072756e00000000000000000000000000000000000000\n    /* \"#utility.yul\":386:388   */\n  0x20\n    /* \"#utility.yul\":378:384   */\n  dup3\n    /* \"#utility.yul\":374:389   */\n  add\n    /* \"#utility.yul\":367:407   */\n  mstore\n    /* \"#utility.yul\":182:414   */\n  pop\n  jump\t// out\n    /* \"#utility.yul\":420:786   */\ntag_9:\n    /* \"#utility.yul\":562:565   */\n  0x00\n    /* \"#utility.yul\":583:650   */\n  tag_14\n    /* \"#utility.yul\":647:649   */\n  0x2d\n    /* \"#utility.yul\":642:645   */\n  dup4\n    /* \"#utility.yul\":583:650   */\n  tag_7\n  jump\t// in\ntag_14:\n    /* \"#utility.yul\":576:650   */\n  swap2\n  pop\n    /* \"#utility.yul\":659:752   */\n  tag_15\n    /* \"#utility.yul\":748:751   */\n  dup3\n    /* \"#utility.yul\":659:752   */\n  tag_8\n  jump\t// in\ntag_15:\n    /* \"#utility.yul\":777:779   */\n  0x40\n    /* \"#utility.yul\":772:775   */\n  dup3\n    /* \"#utility.yul\":768:780   */\n  add\n    /* \"#utility.yul\":761:780   */\n  swap1\n  pop\n    /* \"#utility.yul\":420:786   */\n  swap2\n  swap1\n  pop\n  jump\t// out\n    /* \"#utility.yul\":792:1211   */\ntag_5:\n    /* \"#utility.yul\":958:962   */\n  0x00\n    /* \"#utility.yul\":996:998   */\n  0x20\n    /* \"#utility.yul\":985:994   */\n  dup3\n    /* \"#utility.yul\":981:999   */\n  add\n    /* \"#utility.yul\":973:999   */\n  swap1\n  pop\n    /* \"#utility.yul\":1045:1054   */\n  dup2\n    /* \"#utility.yul\":1039:1043   */\n  dup2\n    /* \"#utility.yul\":1035:1055   */\n  sub\n    /* \"#utility.yul\":1031:1032   */\n  0x00\n    /* \"#utility.yul\":1020:1029   */\n  dup4\n    /* \"#utility.yul\":1016:1033   */\n  add\n    /* \"#utility.yul\":1009:1056   */\n  mstore\n    /* \"#utility.yul\":1073:1204   */\n  tag_17\n    /* \"#utility.yul\":1199:1203   */\n  dup2\n    /* \"#utility.yul\":1073:1204   */\n  tag_9\n  jump\t// in\ntag_17:\n    /* \"#utility.yul\":1065:1204   */\n  swap1\n  pop\n    /* \"#utility.yul\":792:1211   */\n  swap2\n  swap1\n  pop\n  jump\t// out\n    /* \"Bank.sol\":71:671  contract Bank{... */\ntag_6:\n  dataSize(sub_0)\n  dup1\n  dataOffset(sub_0)\n  0x00\n  codecopy\n  0x00\n  return\nstop\n\nsub_0: assembly {\n        /* \"Bank.sol\":71:671  contract Bank{... */\n      mstore(0x40, 0x80)\n      jumpi(tag_1, lt(calldatasize, 0x04))\n      shr(0xe0, calldataload(0x00))\n      dup1\n      0x292eb75d\n      eq\n      tag_2\n      jumpi\n      dup1\n      0x4a68533f\n      eq\n      tag_3\n      jumpi\n    tag_1:\n      0x00\n      dup1\n      revert\n        /* \"Bank.sol\":316:575  function openAccount() public payable returns(uint) {... */\n    tag_2:\n      tag_4\n      tag_5\n      jump\t// in\n    tag_4:\n      mload(0x40)\n      tag_6\n      swap2\n      swap1\n      tag_7\n      jump\t// in\n    tag_6:\n      mload(0x40)\n      dup1\n      swap2\n      sub\n      swap1\n      return\n        /* \"Bank.sol\":580:669  function depositMoney(address _to) public payable{... */\n    tag_3:\n      tag_8\n      0x04\n      dup1\n      calldatasize\n      sub\n      dup2\n      add\n      swap1\n      tag_9\n      swap2\n      swap1\n      tag_10\n      jump\t// in\n    tag_9:\n      tag_11\n      jump\t// in\n    tag_8:\n      stop\n        /* \"Bank.sol\":316:575  function openAccount() public payable returns(uint) {... */\n    tag_5:\n        /* \"Bank.sol\":362:366  uint */\n      0x00\n        /* \"Bank.sol\":392:393  3 */\n      0x03\n        /* \"Bank.sol\":381:390  userCount */\n      sload(0x01)\n        /* \"Bank.sol\":381:393  userCount<=3 */\n      gt\n        /* \"Bank.sol\":378:512  if(userCount<=3){... */\n      tag_13\n      jumpi\n        /* \"Bank.sol\":429:436  5 ether */\n      0x4563918244f40000\n        /* \"Bank.sol\":408:415  balance */\n      0x00\n        /* \"Bank.sol\":408:427  balance[msg.sender] */\n      dup1\n        /* \"Bank.sol\":416:426  msg.sender */\n      caller\n        /* \"Bank.sol\":408:427  balance[msg.sender] */\n      0xffffffffffffffffffffffffffffffffffffffff\n      and\n      0xffffffffffffffffffffffffffffffffffffffff\n      and\n      dup2\n      mstore\n      0x20\n      add\n      swap1\n      dup2\n      mstore\n      0x20\n      add\n      0x00\n      keccak256\n        /* \"Bank.sol\":408:436  balance[msg.sender]= 5 ether */\n      dup2\n      swap1\n      sstore\n      pop\n        /* \"Bank.sol\":378:512  if(userCount<=3){... */\n      jump(tag_14)\n    tag_13:\n        /* \"Bank.sol\":494:501  0 ether */\n      0x00\n        /* \"Bank.sol\":474:481  balance */\n      dup1\n        /* \"Bank.sol\":474:493  balance[msg.sender] */\n      0x00\n        /* \"Bank.sol\":482:492  msg.sender */\n      caller\n        /* \"Bank.sol\":474:493  balance[msg.sender] */\n      0xffffffffffffffffffffffffffffffffffffffff\n      and\n      0xffffffffffffffffffffffffffffffffffffffff\n      and\n      dup2\n      mstore\n      0x20\n      add\n      swap1\n      dup2\n      mstore\n      0x20\n      add\n      0x00\n      keccak256\n        /* \"Bank.sol\":474:501  balance[msg.sender]=0 ether */\n      dup2\n      swap1\n      sstore\n      pop\n        /* \"Bank.sol\":378:512  if(userCount<=3){... */\n    tag_14:\n        /* \"Bank.sol\":521:530  userCount */\n      0x01\n      0x00\n        /* \"Bank.sol\":521:532  userCount++ */\n      dup2\n      sload\n      dup1\n      swap3\n      swap2\n      swap1\n      tag_15\n      swap1\n      tag_16\n      jump\t// in\n    tag_15:\n      swap2\n      swap1\n      pop\n      sstore\n      pop\n        /* \"Bank.sol\":549:556  balance */\n      0x00\n        /* \"Bank.sol\":549:568  balance[msg.sender] */\n      dup1\n        /* \"Bank.sol\":557:567  msg.sender */\n      caller\n        /* \"Bank.sol\":549:568  balance[msg.sender] */\n      0xffffffffffffffffffffffffffffffffffffffff\n      and\n      0xffffffffffffffffffffffffffffffffffffffff\n      and\n      dup2\n      mstore\n      0x20\n      add\n      swap1\n      dup2\n      mstore\n      0x20\n      add\n      0x00\n      keccak256\n      sload\n        /* \"Bank.sol\":542:568  return balance[msg.sender] */\n      swap1\n      pop\n        /* \"Bank.sol\":316:575  function openAccount() public payable returns(uint) {... */\n      swap1\n      jump\t// out\n        /* \"Bank.sol\":580:669  function depositMoney(address _to) public payable{... */\n    tag_11:\n        /* \"Bank.sol\":653:662  msg.value */\n      callvalue\n        /* \"Bank.sol\":639:646  balance */\n      0x00\n        /* \"Bank.sol\":639:651  balance[_to] */\n      dup1\n        /* \"Bank.sol\":647:650  _to */\n      dup4\n        /* \"Bank.sol\":639:651  balance[_to] */\n      0xffffffffffffffffffffffffffffffffffffffff\n      and\n      0xffffffffffffffffffffffffffffffffffffffff\n      and\n      dup2\n      mstore\n      0x20\n      add\n      swap1\n      dup2\n      mstore\n      0x20\n      add\n      0x00\n      keccak256\n      0x00\n        /* \"Bank.sol\":639:662  balance[_to]+=msg.value */\n      dup3\n      dup3\n      sload\n      tag_18\n      swap2\n      swap1\n      tag_19\n      jump\t// in\n    tag_18:\n      swap3\n      pop\n      pop\n      dup2\n      swap1\n      sstore\n      pop\n        /* \"Bank.sol\":580:669  function depositMoney(address _to) public payable{... */\n      pop\n      jump\t// out\n        /* \"#utility.yul\":7:84   */\n    tag_20:\n        /* \"#utility.yul\":44:51   */\n      0x00\n        /* \"#utility.yul\":73:78   */\n      dup2\n        /* \"#utility.yul\":62:78   */\n      swap1\n      pop\n        /* \"#utility.yul\":7:84   */\n      swap2\n      swap1\n      pop\n      jump\t// out\n        /* \"#utility.yul\":90:208   */\n    tag_21:\n        /* \"#utility.yul\":177:201   */\n      tag_33\n        /* \"#utility.yul\":195:200   */\n      dup2\n        /* \"#utility.yul\":177:201   */\n      tag_20\n      jump\t// in\n    tag_33:\n        /* \"#utility.yul\":172:175   */\n      dup3\n        /* \"#utility.yul\":165:202   */\n      mstore\n        /* \"#utility.yul\":90:208   */\n      pop\n      pop\n      jump\t// out\n        /* \"#utility.yul\":214:436   */\n    tag_7:\n        /* \"#utility.yul\":307:311   */\n      0x00\n        /* \"#utility.yul\":345:347   */\n      0x20\n        /* \"#utility.yul\":334:343   */\n      dup3\n        /* \"#utility.yul\":330:348   */\n      add\n        /* \"#utility.yul\":322:348   */\n      swap1\n      pop\n        /* \"#utility.yul\":358:429   */\n      tag_35\n        /* \"#utility.yul\":426:427   */\n      0x00\n        /* \"#utility.yul\":415:424   */\n      dup4\n        /* \"#utility.yul\":411:428   */\n      add\n        /* \"#utility.yul\":402:408   */\n      dup5\n        /* \"#utility.yul\":358:429   */\n      tag_21\n      jump\t// in\n    tag_35:\n        /* \"#utility.yul\":214:436   */\n      swap3\n      swap2\n      pop\n      pop\n      jump\t// out\n        /* \"#utility.yul\":523:640   */\n    tag_23:\n        /* \"#utility.yul\":632:633   */\n      0x00\n        /* \"#utility.yul\":629:630   */\n      dup1\n        /* \"#utility.yul\":622:634   */\n      revert\n        /* \"#utility.yul\":769:895   */\n    tag_25:\n        /* \"#utility.yul\":806:813   */\n      0x00\n        /* \"#utility.yul\":846:888   */\n      0xffffffffffffffffffffffffffffffffffffffff\n        /* \"#utility.yul\":839:844   */\n      dup3\n        /* \"#utility.yul\":835:889   */\n      and\n        /* \"#utility.yul\":824:889   */\n      swap1\n      pop\n        /* \"#utility.yul\":769:895   */\n      swap2\n      swap1\n      pop\n      jump\t// out\n        /* \"#utility.yul\":901:997   */\n    tag_26:\n        /* \"#utility.yul\":938:945   */\n      0x00\n        /* \"#utility.yul\":967:991   */\n      tag_41\n        /* \"#utility.yul\":985:990   */\n      dup3\n        /* \"#utility.yul\":967:991   */\n      tag_25\n      jump\t// in\n    tag_41:\n        /* \"#utility.yul\":956:991   */\n      swap1\n      pop\n        /* \"#utility.yul\":901:997   */\n      swap2\n      swap1\n      pop\n      jump\t// out\n        /* \"#utility.yul\":1003:1125   */\n    tag_27:\n        /* \"#utility.yul\":1076:1100   */\n      tag_43\n        /* \"#utility.yul\":1094:1099   */\n      dup2\n        /* \"#utility.yul\":1076:1100   */\n      tag_26\n      jump\t// in\n    tag_43:\n        /* \"#utility.yul\":1069:1074   */\n      dup2\n        /* \"#utility.yul\":1066:1101   */\n      eq\n        /* \"#utility.yul\":1056:1119   */\n      tag_44\n      jumpi\n        /* \"#utility.yul\":1115:1116   */\n      0x00\n        /* \"#utility.yul\":1112:1113   */\n      dup1\n        /* \"#utility.yul\":1105:1117   */\n      revert\n        /* \"#utility.yul\":1056:1119   */\n    tag_44:\n        /* \"#utility.yul\":1003:1125   */\n      pop\n      jump\t// out\n        /* \"#utility.yul\":1131:1270   */\n    tag_28:\n        /* \"#utility.yul\":1177:1182   */\n      0x00\n        /* \"#utility.yul\":1215:1221   */\n      dup2\n        /* \"#utility.yul\":1202:1222   */\n      calldataload\n        /* \"#utility.yul\":1193:1222   */\n      swap1\n      pop\n        /* \"#utility.yul\":1231:1264   */\n      tag_46\n        /* \"#utility.yul\":1258:1263   */\n      dup2\n        /* \"#utility.yul\":1231:1264   */\n      tag_27\n      jump\t// in\n    tag_46:\n        /* \"#utility.yul\":1131:1270   */\n      swap3\n      swap2\n      pop\n      pop\n      jump\t// out\n        /* \"#utility.yul\":1276:1605   */\n    tag_10:\n        /* \"#utility.yul\":1335:1341   */\n      0x00\n        /* \"#utility.yul\":1384:1386   */\n      0x20\n        /* \"#utility.yul\":1372:1381   */\n      dup3\n        /* \"#utility.yul\":1363:1370   */\n      dup5\n        /* \"#utility.yul\":1359:1382   */\n      sub\n        /* \"#utility.yul\":1355:1387   */\n      slt\n        /* \"#utility.yul\":1352:1471   */\n      iszero\n      tag_48\n      jumpi\n        /* \"#utility.yul\":1390:1469   */\n      tag_49\n      tag_23\n      jump\t// in\n    tag_49:\n        /* \"#utility.yul\":1352:1471   */\n    tag_48:\n        /* \"#utility.yul\":1510:1511   */\n      0x00\n        /* \"#utility.yul\":1535:1588   */\n      tag_50\n        /* \"#utility.yul\":1580:1587   */\n      dup5\n        /* \"#utility.yul\":1571:1577   */\n      dup3\n        /* \"#utility.yul\":1560:1569   */\n      dup6\n        /* \"#utility.yul\":1556:1578   */\n      add\n        /* \"#utility.yul\":1535:1588   */\n      tag_28\n      jump\t// in\n    tag_50:\n        /* \"#utility.yul\":1525:1588   */\n      swap2\n      pop\n        /* \"#utility.yul\":1481:1598   */\n      pop\n        /* \"#utility.yul\":1276:1605   */\n      swap3\n      swap2\n      pop\n      pop\n      jump\t// out\n        /* \"#utility.yul\":1611:1791   */\n    tag_29:\n        /* \"#utility.yul\":1659:1736   */\n      0x4e487b7100000000000000000000000000000000000000000000000000000000\n        /* \"#utility.yul\":1656:1657   */\n      0x00\n        /* \"#utility.yul\":1649:1737   */\n      mstore\n        /* \"#utility.yul\":1756:1760   */\n      0x11\n        /* \"#utility.yul\":1753:1754   */\n      0x04\n        /* \"#utility.yul\":1746:1761   */\n      mstore\n        /* \"#utility.yul\":1780:1784   */\n      0x24\n        /* \"#utility.yul\":1777:1778   */\n      0x00\n        /* \"#utility.yul\":1770:1785   */\n      revert\n        /* \"#utility.yul\":1797:2030   */\n    tag_16:\n        /* \"#utility.yul\":1836:1839   */\n      0x00\n        /* \"#utility.yul\":1859:1883   */\n      tag_53\n        /* \"#utility.yul\":1877:1882   */\n      dup3\n        /* \"#utility.yul\":1859:1883   */\n      tag_20\n      jump\t// in\n    tag_53:\n        /* \"#utility.yul\":1850:1883   */\n      swap2\n      pop\n        /* \"#utility.yul\":1905:1971   */\n      0xffffffffffffffffffffffffffffffffffffffffffffffffffffffffffffffff\n        /* \"#utility.yul\":1898:1903   */\n      dup3\n        /* \"#utility.yul\":1895:1972   */\n      eq\n        /* \"#utility.yul\":1892:1995   */\n      iszero\n      tag_54\n      jumpi\n        /* \"#utility.yul\":1975:1993   */\n      tag_55\n      tag_29\n      jump\t// in\n    tag_55:\n        /* \"#utility.yul\":1892:1995   */\n    tag_54:\n        /* \"#utility.yul\":2022:2023   */\n      0x01\n        /* \"#utility.yul\":2015:2020   */\n      dup3\n        /* \"#utility.yul\":2011:2024   */\n      add\n        /* \"#utility.yul\":2004:2024   */\n      swap1\n      pop\n        /* \"#utility.yul\":1797:2030   */\n      swap2\n      swap1\n      pop\n      jump\t// out\n        /* \"#utility.yul\":2036:2341   */\n    tag_19:\n        /* \"#utility.yul\":2076:2079   */\n      0x00\n        /* \"#utility.yul\":2095:2115   */\n      tag_57\n        /* \"#utility.yul\":2113:2114   */\n      dup3\n        /* \"#utility.yul\":2095:2115   */\n      tag_20\n      jump\t// in\n    tag_57:\n        /* \"#utility.yul\":2090:2115   */\n      swap2\n      pop\n        /* \"#utility.yul\":2129:2149   */\n      tag_58\n        /* \"#utility.yul\":2147:2148   */\n      dup4\n        /* \"#utility.yul\":2129:2149   */\n      tag_20\n      jump\t// in\n    tag_58:\n        /* \"#utility.yul\":2124:2149   */\n      swap3\n      pop\n        /* \"#utility.yul\":2283:2284   */\n      dup3\n        /* \"#utility.yul\":2215:2281   */\n      0xffffffffffffffffffffffffffffffffffffffffffffffffffffffffffffffff\n        /* \"#utility.yul\":2211:2285   */\n      sub\n        /* \"#utility.yul\":2208:2209   */\n      dup3\n        /* \"#utility.yul\":2205:2286   */\n      gt\n        /* \"#utility.yul\":2202:2309   */\n      iszero\n      tag_59\n      jumpi\n        /* \"#utility.yul\":2289:2307   */\n      tag_60\n      tag_29\n      jump\t// in\n    tag_60:\n        /* \"#utility.yul\":2202:2309   */\n    tag_59:\n        /* \"#utility.yul\":2333:2334   */\n      dup3\n        /* \"#utility.yul\":2330:2331   */\n      dup3\n        /* \"#utility.yul\":2326:2335   */\n      add\n        /* \"#utility.yul\":2319:2335   */\n      swap1\n      pop\n        /* \"#utility.yul\":2036:2341   */\n      swap3\n      swap2\n      pop\n      pop\n      jump\t// out\n\n    auxdata: 0xa26469706673582212208bed2b3e55c85c1d32114303b63d4fca9a2a8c19de6c2ae4b69e422cd291cdd364736f6c63430008080033\n}\n",
				"bytecode": {
					"linkReferences": {},
					"object": "608060405267d02ab486cedc0000341461004e576040517f08c379a000000000000000000000000000000000000000000000000000000000815260040161004590610117565b60405180910390fd5b33600260006101000a81548173ffffffffffffffffffffffffffffffffffffffff021916908373ffffffffffffffffffffffffffffffffffffffff160217905550610137565b600082825260208201905092915050565b7f496e697469616c20313520657468657220726571756972656420666f7220636f60008201527f6e747261637420746f2072756e00000000000000000000000000000000000000602082015250565b6000610101602d83610094565b915061010c826100a5565b604082019050919050565b60006020820190508181036000830152610130816100f4565b9050919050565b610385806101466000396000f3fe6080604052600436106100295760003560e01c8063292eb75d1461002e5780634a68533f1461004c575b600080fd5b610036610068565b60405161004391906101d6565b60405180910390f35b61006660048036038101906100619190610254565b610165565b005b60006003600154116100c457674563918244f400006000803373ffffffffffffffffffffffffffffffffffffffff1673ffffffffffffffffffffffffffffffffffffffff16815260200190815260200160002081905550610109565b60008060003373ffffffffffffffffffffffffffffffffffffffff1673ffffffffffffffffffffffffffffffffffffffff168152602001908152602001600020819055505b6001600081548092919061011c906102b0565b91905055506000803373ffffffffffffffffffffffffffffffffffffffff1673ffffffffffffffffffffffffffffffffffffffff16815260200190815260200160002054905090565b346000808373ffffffffffffffffffffffffffffffffffffffff1673ffffffffffffffffffffffffffffffffffffffff16815260200190815260200160002060008282546101b391906102f9565b9250508190555050565b6000819050919050565b6101d0816101bd565b82525050565b60006020820190506101eb60008301846101c7565b92915050565b600080fd5b600073ffffffffffffffffffffffffffffffffffffffff82169050919050565b6000610221826101f6565b9050919050565b61023181610216565b811461023c57600080fd5b50565b60008135905061024e81610228565b92915050565b60006020828403121561026a576102696101f1565b5b60006102788482850161023f565b91505092915050565b7f4e487b7100000000000000000000000000000000000000000000000000000000600052601160045260246000fd5b60006102bb826101bd565b91507fffffffffffffffffffffffffffffffffffffffffffffffffffffffffffffffff8214156102ee576102ed610281565b5b600182019050919050565b6000610304826101bd565b915061030f836101bd565b9250827fffffffffffffffffffffffffffffffffffffffffffffffffffffffffffffffff0382111561034457610343610281565b5b82820190509291505056fea26469706673582212208bed2b3e55c85c1d32114303b63d4fca9a2a8c19de6c2ae4b69e422cd291cdd364736f6c63430008080033",
					"opcodes": "PUSH1 0x80 PUSH1 0x40 MSTORE PUSH8 0xD02AB486CEDC0000 CALLVALUE EQ PUSH2 0x4E JUMPI PUSH1 0x40 MLOAD PUSH32 0x8C379A000000000000000000000000000000000000000000000000000000000 DUP2 MSTORE PUSH1 0x4 ADD PUSH2 0x45 SWAP1 PUSH2 0x117 JUMP JUMPDEST PUSH1 0x40 MLOAD DUP1 SWAP2 SUB SWAP1 REVERT JUMPDEST CALLER PUSH1 0x2 PUSH1 0x0 PUSH2 0x100 EXP DUP2 SLOAD DUP2 PUSH20 0xFFFFFFFFFFFFFFFFFFFFFFFFFFFFFFFFFFFFFFFF MUL NOT AND SWAP1 DUP4 PUSH20 0xFFFFFFFFFFFFFFFFFFFFFFFFFFFFFFFFFFFFFFFF AND MUL OR SWAP1 SSTORE POP PUSH2 0x137 JUMP JUMPDEST PUSH1 0x0 DUP3 DUP3 MSTORE PUSH1 0x20 DUP3 ADD SWAP1 POP SWAP3 SWAP2 POP POP JUMP JUMPDEST PUSH32 0x496E697469616C20313520657468657220726571756972656420666F7220636F PUSH1 0x0 DUP3 ADD MSTORE PUSH32 0x6E747261637420746F2072756E00000000000000000000000000000000000000 PUSH1 0x20 DUP3 ADD MSTORE POP JUMP JUMPDEST PUSH1 0x0 PUSH2 0x101 PUSH1 0x2D DUP4 PUSH2 0x94 JUMP JUMPDEST SWAP2 POP PUSH2 0x10C DUP3 PUSH2 0xA5 JUMP JUMPDEST PUSH1 0x40 DUP3 ADD SWAP1 POP SWAP2 SWAP1 POP JUMP JUMPDEST PUSH1 0x0 PUSH1 0x20 DUP3 ADD SWAP1 POP DUP2 DUP2 SUB PUSH1 0x0 DUP4 ADD MSTORE PUSH2 0x130 DUP2 PUSH2 0xF4 JUMP JUMPDEST SWAP1 POP SWAP2 SWAP1 POP JUMP JUMPDEST PUSH2 0x385 DUP1 PUSH2 0x146 PUSH1 0x0 CODECOPY PUSH1 0x0 RETURN INVALID PUSH1 0x80 PUSH1 0x40 MSTORE PUSH1 0x4 CALLDATASIZE LT PUSH2 0x29 JUMPI PUSH1 0x0 CALLDATALOAD PUSH1 0xE0 SHR DUP1 PUSH4 0x292EB75D EQ PUSH2 0x2E JUMPI DUP1 PUSH4 0x4A68533F EQ PUSH2 0x4C JUMPI JUMPDEST PUSH1 0x0 DUP1 REVERT JUMPDEST PUSH2 0x36 PUSH2 0x68 JUMP JUMPDEST PUSH1 0x40 MLOAD PUSH2 0x43 SWAP2 SWAP1 PUSH2 0x1D6 JUMP JUMPDEST PUSH1 0x40 MLOAD DUP1 SWAP2 SUB SWAP1 RETURN JUMPDEST PUSH2 0x66 PUSH1 0x4 DUP1 CALLDATASIZE SUB DUP2 ADD SWAP1 PUSH2 0x61 SWAP2 SWAP1 PUSH2 0x254 JUMP JUMPDEST PUSH2 0x165 JUMP JUMPDEST STOP JUMPDEST PUSH1 0x0 PUSH1 0x3 PUSH1 0x1 SLOAD GT PUSH2 0xC4 JUMPI PUSH8 0x4563918244F40000 PUSH1 0x0 DUP1 CALLER PUSH20 0xFFFFFFFFFFFFFFFFFFFFFFFFFFFFFFFFFFFFFFFF AND PUSH20 0xFFFFFFFFFFFFFFFFFFFFFFFFFFFFFFFFFFFFFFFF AND DUP2 MSTORE PUSH1 0x20 ADD SWAP1 DUP2 MSTORE PUSH1 0x20 ADD PUSH1 0x0 KECCAK256 DUP2 SWAP1 SSTORE POP PUSH2 0x109 JUMP JUMPDEST PUSH1 0x0 DUP1 PUSH1 0x0 CALLER PUSH20 0xFFFFFFFFFFFFFFFFFFFFFFFFFFFFFFFFFFFFFFFF AND PUSH20 0xFFFFFFFFFFFFFFFFFFFFFFFFFFFFFFFFFFFFFFFF AND DUP2 MSTORE PUSH1 0x20 ADD SWAP1 DUP2 MSTORE PUSH1 0x20 ADD PUSH1 0x0 KECCAK256 DUP2 SWAP1 SSTORE POP JUMPDEST PUSH1 0x1 PUSH1 0x0 DUP2 SLOAD DUP1 SWAP3 SWAP2 SWAP1 PUSH2 0x11C SWAP1 PUSH2 0x2B0 JUMP JUMPDEST SWAP2 SWAP1 POP SSTORE POP PUSH1 0x0 DUP1 CALLER PUSH20 0xFFFFFFFFFFFFFFFFFFFFFFFFFFFFFFFFFFFFFFFF AND PUSH20 0xFFFFFFFFFFFFFFFFFFFFFFFFFFFFFFFFFFFFFFFF AND DUP2 MSTORE PUSH1 0x20 ADD SWAP1 DUP2 MSTORE PUSH1 0x20 ADD PUSH1 0x0 KECCAK256 SLOAD SWAP1 POP SWAP1 JUMP JUMPDEST CALLVALUE PUSH1 0x0 DUP1 DUP4 PUSH20 0xFFFFFFFFFFFFFFFFFFFFFFFFFFFFFFFFFFFFFFFF AND PUSH20 0xFFFFFFFFFFFFFFFFFFFFFFFFFFFFFFFFFFFFFFFF AND DUP2 MSTORE PUSH1 0x20 ADD SWAP1 DUP2 MSTORE PUSH1 0x20 ADD PUSH1 0x0 KECCAK256 PUSH1 0x0 DUP3 DUP3 SLOAD PUSH2 0x1B3 SWAP2 SWAP1 PUSH2 0x2F9 JUMP JUMPDEST SWAP3 POP POP DUP2 SWAP1 SSTORE POP POP JUMP JUMPDEST PUSH1 0x0 DUP2 SWAP1 POP SWAP2 SWAP1 POP JUMP JUMPDEST PUSH2 0x1D0 DUP2 PUSH2 0x1BD JUMP JUMPDEST DUP3 MSTORE POP POP JUMP JUMPDEST PUSH1 0x0 PUSH1 0x20 DUP3 ADD SWAP1 POP PUSH2 0x1EB PUSH1 0x0 DUP4 ADD DUP5 PUSH2 0x1C7 JUMP JUMPDEST SWAP3 SWAP2 POP POP JUMP JUMPDEST PUSH1 0x0 DUP1 REVERT JUMPDEST PUSH1 0x0 PUSH20 0xFFFFFFFFFFFFFFFFFFFFFFFFFFFFFFFFFFFFFFFF DUP3 AND SWAP1 POP SWAP2 SWAP1 POP JUMP JUMPDEST PUSH1 0x0 PUSH2 0x221 DUP3 PUSH2 0x1F6 JUMP JUMPDEST SWAP1 POP SWAP2 SWAP1 POP JUMP JUMPDEST PUSH2 0x231 DUP2 PUSH2 0x216 JUMP JUMPDEST DUP2 EQ PUSH2 0x23C JUMPI PUSH1 0x0 DUP1 REVERT JUMPDEST POP JUMP JUMPDEST PUSH1 0x0 DUP2 CALLDATALOAD SWAP1 POP PUSH2 0x24E DUP2 PUSH2 0x228 JUMP JUMPDEST SWAP3 SWAP2 POP POP JUMP JUMPDEST PUSH1 0x0 PUSH1 0x20 DUP3 DUP5 SUB SLT ISZERO PUSH2 0x26A JUMPI PUSH2 0x269 PUSH2 0x1F1 JUMP JUMPDEST JUMPDEST PUSH1 0x0 PUSH2 0x278 DUP5 DUP3 DUP6 ADD PUSH2 0x23F JUMP JUMPDEST SWAP2 POP POP SWAP3 SWAP2 POP POP JUMP JUMPDEST PUSH32 0x4E487B7100000000000000000000000000000000000000000000000000000000 PUSH1 0x0 MSTORE PUSH1 0x11 PUSH1 0x4 MSTORE PUSH1 0x24 PUSH1 0x0 REVERT JUMPDEST PUSH1 0x0 PUSH2 0x2BB DUP3 PUSH2 0x1BD JUMP JUMPDEST SWAP2 POP PUSH32 0xFFFFFFFFFFFFFFFFFFFFFFFFFFFFFFFFFFFFFFFFFFFFFFFFFFFFFFFFFFFFFFFF DUP3 EQ ISZERO PUSH2 0x2EE JUMPI PUSH2 0x2ED PUSH2 0x281 JUMP JUMPDEST JUMPDEST PUSH1 0x1 DUP3 ADD SWAP1 POP SWAP2 SWAP1 POP JUMP JUMPDEST PUSH1 0x0 PUSH2 0x304 DUP3 PUSH2 0x1BD JUMP JUMPDEST SWAP2 POP PUSH2 0x30F DUP4 PUSH2 0x1BD JUMP JUMPDEST SWAP3 POP DUP3 PUSH32 0xFFFFFFFFFFFFFFFFFFFFFFFFFFFFFFFFFFFFFFFFFFFFFFFFFFFFFFFFFFFFFFFF SUB DUP3 GT ISZERO PUSH2 0x344 JUMPI PUSH2 0x343 PUSH2 0x281 JUMP JUMPDEST JUMPDEST DUP3 DUP3 ADD SWAP1 POP SWAP3 SWAP2 POP POP JUMP INVALID LOG2 PUSH5 0x6970667358 0x22 SLT KECCAK256 DUP12 0xED 0x2B RETURNDATACOPY SSTORE 0xC8 0x5C SAR ORIGIN GT NUMBER SUB 0xB6 RETURNDATASIZE 0x4F 0xCA SWAP11 0x2A DUP13 NOT 0xDE PUSH13 0x2AE4B69E422CD291CDD364736F PUSH13 0x63430008080033000000000000 "
				},
				"gasEstimates": {
					"creation": {
						"codeDepositCost": "180200",
						"executionCost": "24502",
						"totalCost": "204702"
					},
					"external": {
						"depositMoney(address)": "infinite",
						"openAccount()": "infinite"
					}
				},
				"methodIdentifiers": {
					"depositMoney(address)": "4a68533f",
					"openAccount()": "292eb75d"
				}
			},
			"storageLayout": {
				"storage": [
					{
						"astId": 5,
						"contract": "Bank.sol:Bank",
						"label": "balance",
						"offset": 0,
						"slot": "0",
						"type": "t_mapping(t_address,t_uint256)"
					},
					{
						"astId": 7,
						"contract": "Bank.sol:Bank",
						"label": "userCount",
						"offset": 0,
						"slot": "1",
						"type": "t_uint256"
					},
					{
						"astId": 9,
						"contract": "Bank.sol:Bank",
						"label": "owner",
						"offset": 0,
						"slot": "2",
						"type": "t_address"
					}
				],
				"types": {
					"t_address": {
						"encoding": "inplace",
						"label": "address",
						"numberOfBytes": "20"
					},
					"t_mapping(t_address,t_uint256)": {
						"encoding": "mapping",
						"key": "t_address",
						"label": "mapping(address => uint256)",
						"numberOfBytes": "32",
						"value": "t_uint256"
					},
					"t_uint256": {
						"encoding": "inplace",
						"label": "uint256",
						"numberOfBytes": "32"
					}
				}
			},
			"userdoc": {
				"kind": "user",
				"methods": {},
				"version": 1
			}
		}
	}
}