{
	"TestBank.sol": {
		"Bank": {
			"abi": [
				{
					"inputs": [],
					"stateMutability": "nonpayable",
					"type": "constructor"
				},
				{
					"anonymous": false,
					"inputs": [
						{
							"indexed": false,
							"internalType": "address",
							"name": "_to",
							"type": "address"
						},
						{
							"indexed": false,
							"internalType": "uint256",
							"name": "balance",
							"type": "uint256"
						}
					],
					"name": "depositMade",
					"type": "event"
				},
				{
					"inputs": [
						{
							"internalType": "uint256",
							"name": "_amount",
							"type": "uint256"
						}
					],
					"name": "depositMoney",
					"outputs": [
						{
							"internalType": "uint256",
							"name": "",
							"type": "uint256"
						}
					],
					"stateMutability": "payable",
					"type": "function"
				},
				{
					"inputs": [],
					"name": "getAccountBalance",
					"outputs": [
						{
							"internalType": "uint256",
							"name": "",
							"type": "uint256"
						}
					],
					"stateMutability": "view",
					"type": "function"
				},
				{
					"inputs": [],
					"name": "openAccount",
					"outputs": [
						{
							"internalType": "uint256",
							"name": "",
							"type": "uint256"
						}
					],
					"stateMutability": "nonpayable",
					"type": "function"
				},
				{
					"inputs": [
						{
							"internalType": "uint256",
							"name": "withDrawAmount",
							"type": "uint256"
						}
					],
					"name": "withDrawMoney",
					"outputs": [
						{
							"internalType": "uint256",
							"name": "",
							"type": "uint256"
						}
					],
					"stateMutability": "payable",
					"type": "function"
				}
			],
			"devdoc": {
				"kind": "dev",
				"methods": {},
				"version": 1
			},
			"evm": {
				"assembly": "    /* \"TestBank.sol\":71:941  contract Bank{... */\n  mstore(0x40, 0x80)\n    /* \"TestBank.sol\":220:270  constructor() {... */\n  callvalue\n  dup1\n  iszero\n  tag_1\n  jumpi\n  0x00\n  dup1\n  revert\ntag_1:\n  pop\n    /* \"TestBank.sol\":253:263  msg.sender */\n  caller\n    /* \"TestBank.sol\":247:252  owner */\n  0x02\n  0x00\n    /* \"TestBank.sol\":247:263  owner=msg.sender */\n  0x0100\n  exp\n  dup2\n  sload\n  dup2\n  0xffffffffffffffffffffffffffffffffffffffff\n  mul\n  not\n  and\n  swap1\n  dup4\n  0xffffffffffffffffffffffffffffffffffffffff\n  and\n  mul\n  or\n  swap1\n  sstore\n  pop\n    /* \"TestBank.sol\":71:941  contract Bank{... */\n  dataSize(sub_0)\n  dup1\n  dataOffset(sub_0)\n  0x00\n  codecopy\n  0x00\n  return\nstop\n\nsub_0: assembly {\n        /* \"TestBank.sol\":71:941  contract Bank{... */\n      mstore(0x40, 0x80)\n      jumpi(tag_1, lt(calldatasize, 0x04))\n      shr(0xe0, calldataload(0x00))\n      dup1\n      0x292eb75d\n      eq\n      tag_2\n      jumpi\n      dup1\n      0x6896fabf\n      eq\n      tag_3\n      jumpi\n      dup1\n      0x827cc452\n      eq\n      tag_4\n      jumpi\n      dup1\n      0xae18c52b\n      eq\n      tag_5\n      jumpi\n    tag_1:\n      0x00\n      dup1\n      revert\n        /* \"TestBank.sol\":275:393  function openAccount() public returns(uint) {... */\n    tag_2:\n      callvalue\n      dup1\n      iszero\n      tag_6\n      jumpi\n      0x00\n      dup1\n      revert\n    tag_6:\n      pop\n      tag_7\n      tag_8\n      jump\t// in\n    tag_7:\n      mload(0x40)\n      tag_9\n      swap2\n      swap1\n      tag_10\n      jump\t// in\n    tag_9:\n      mload(0x40)\n      dup1\n      swap2\n      sub\n      swap1\n      return\n        /* \"TestBank.sol\":842:939  function getAccountBalance() public view returns(uint){... */\n    tag_3:\n      callvalue\n      dup1\n      iszero\n      tag_11\n      jumpi\n      0x00\n      dup1\n      revert\n    tag_11:\n      pop\n      tag_12\n      tag_13\n      jump\t// in\n    tag_12:\n      mload(0x40)\n      tag_14\n      swap2\n      swap1\n      tag_10\n      jump\t// in\n    tag_14:\n      mload(0x40)\n      dup1\n      swap2\n      sub\n      swap1\n      return\n        /* \"TestBank.sol\":612:837  function withDrawMoney(uint withDrawAmount) public payable returns(uint){... */\n    tag_4:\n      tag_15\n      0x04\n      dup1\n      calldatasize\n      sub\n      dup2\n      add\n      swap1\n      tag_16\n      swap2\n      swap1\n      tag_17\n      jump\t// in\n    tag_16:\n      tag_18\n      jump\t// in\n    tag_15:\n      mload(0x40)\n      tag_19\n      swap2\n      swap1\n      tag_10\n      jump\t// in\n    tag_19:\n      mload(0x40)\n      dup1\n      swap2\n      sub\n      swap1\n      return\n        /* \"TestBank.sol\":398:607  function depositMoney(uint256 _amount) public payable returns(uint){... */\n    tag_5:\n      tag_20\n      0x04\n      dup1\n      calldatasize\n      sub\n      dup2\n      add\n      swap1\n      tag_21\n      swap2\n      swap1\n      tag_17\n      jump\t// in\n    tag_21:\n      tag_22\n      jump\t// in\n    tag_20:\n      mload(0x40)\n      tag_23\n      swap2\n      swap1\n      tag_10\n      jump\t// in\n    tag_23:\n      mload(0x40)\n      dup1\n      swap2\n      sub\n      swap1\n      return\n        /* \"TestBank.sol\":275:393  function openAccount() public returns(uint) {... */\n    tag_8:\n        /* \"TestBank.sol\":313:317  uint */\n      0x00\n        /* \"TestBank.sol\":349:350  0 */\n      dup1\n        /* \"TestBank.sol\":329:336  balance */\n      0x00\n        /* \"TestBank.sol\":329:348  balance[msg.sender] */\n      dup1\n        /* \"TestBank.sol\":337:347  msg.sender */\n      caller\n        /* \"TestBank.sol\":329:348  balance[msg.sender] */\n      0xffffffffffffffffffffffffffffffffffffffff\n      and\n      0xffffffffffffffffffffffffffffffffffffffff\n      and\n      dup2\n      mstore\n      0x20\n      add\n      swap1\n      dup2\n      mstore\n      0x20\n      add\n      0x00\n      keccak256\n        /* \"TestBank.sol\":329:350  balance[msg.sender]=0 */\n      dup2\n      swap1\n      sstore\n      pop\n        /* \"TestBank.sol\":367:374  balance */\n      0x00\n        /* \"TestBank.sol\":367:386  balance[msg.sender] */\n      dup1\n        /* \"TestBank.sol\":375:385  msg.sender */\n      caller\n        /* \"TestBank.sol\":367:386  balance[msg.sender] */\n      0xffffffffffffffffffffffffffffffffffffffff\n      and\n      0xffffffffffffffffffffffffffffffffffffffff\n      and\n      dup2\n      mstore\n      0x20\n      add\n      swap1\n      dup2\n      mstore\n      0x20\n      add\n      0x00\n      keccak256\n      sload\n        /* \"TestBank.sol\":360:386  return balance[msg.sender] */\n      swap1\n      pop\n        /* \"TestBank.sol\":275:393  function openAccount() public returns(uint) {... */\n      swap1\n      jump\t// out\n        /* \"TestBank.sol\":842:939  function getAccountBalance() public view returns(uint){... */\n    tag_13:\n        /* \"TestBank.sol\":891:895  uint */\n      0x00\n        /* \"TestBank.sol\":913:920  balance */\n      dup1\n        /* \"TestBank.sol\":913:932  balance[msg.sender] */\n      0x00\n        /* \"TestBank.sol\":921:931  msg.sender */\n      caller\n        /* \"TestBank.sol\":913:932  balance[msg.sender] */\n      0xffffffffffffffffffffffffffffffffffffffff\n      and\n      0xffffffffffffffffffffffffffffffffffffffff\n      and\n      dup2\n      mstore\n      0x20\n      add\n      swap1\n      dup2\n      mstore\n      0x20\n      add\n      0x00\n      keccak256\n      sload\n        /* \"TestBank.sol\":906:932  return balance[msg.sender] */\n      swap1\n      pop\n        /* \"TestBank.sol\":842:939  function getAccountBalance() public view returns(uint){... */\n      swap1\n      jump\t// out\n        /* \"TestBank.sol\":612:837  function withDrawMoney(uint withDrawAmount) public payable returns(uint){... */\n    tag_18:\n        /* \"TestBank.sol\":679:683  uint */\n      0x00\n        /* \"TestBank.sol\":715:722  balance */\n      dup1\n        /* \"TestBank.sol\":715:734  balance[msg.sender] */\n      0x00\n        /* \"TestBank.sol\":723:733  msg.sender */\n      caller\n        /* \"TestBank.sol\":715:734  balance[msg.sender] */\n      0xffffffffffffffffffffffffffffffffffffffff\n      and\n      0xffffffffffffffffffffffffffffffffffffffff\n      and\n      dup2\n      mstore\n      0x20\n      add\n      swap1\n      dup2\n      mstore\n      0x20\n      add\n      0x00\n      keccak256\n      sload\n        /* \"TestBank.sol\":697:711  withDrawAmount */\n      dup3\n        /* \"TestBank.sol\":697:734  withDrawAmount <= balance[msg.sender] */\n      gt\n        /* \"TestBank.sol\":694:795  if(withDrawAmount <= balance[msg.sender]){... */\n      tag_27\n      jumpi\n        /* \"TestBank.sol\":770:784  withDrawAmount */\n      dup2\n        /* \"TestBank.sol\":749:756  balance */\n      0x00\n        /* \"TestBank.sol\":749:768  balance[msg.sender] */\n      dup1\n        /* \"TestBank.sol\":757:767  msg.sender */\n      caller\n        /* \"TestBank.sol\":749:768  balance[msg.sender] */\n      0xffffffffffffffffffffffffffffffffffffffff\n      and\n      0xffffffffffffffffffffffffffffffffffffffff\n      and\n      dup2\n      mstore\n      0x20\n      add\n      swap1\n      dup2\n      mstore\n      0x20\n      add\n      0x00\n      keccak256\n      0x00\n        /* \"TestBank.sol\":749:784  balance[msg.sender]-=withDrawAmount */\n      dup3\n      dup3\n      sload\n      tag_28\n      swap2\n      swap1\n      tag_29\n      jump\t// in\n    tag_28:\n      swap3\n      pop\n      pop\n      dup2\n      swap1\n      sstore\n      pop\n        /* \"TestBank.sol\":694:795  if(withDrawAmount <= balance[msg.sender]){... */\n    tag_27:\n        /* \"TestBank.sol\":811:818  balance */\n      0x00\n        /* \"TestBank.sol\":811:830  balance[msg.sender] */\n      dup1\n        /* \"TestBank.sol\":819:829  msg.sender */\n      caller\n        /* \"TestBank.sol\":811:830  balance[msg.sender] */\n      0xffffffffffffffffffffffffffffffffffffffff\n      and\n      0xffffffffffffffffffffffffffffffffffffffff\n      and\n      dup2\n      mstore\n      0x20\n      add\n      swap1\n      dup2\n      mstore\n      0x20\n      add\n      0x00\n      keccak256\n      sload\n        /* \"TestBank.sol\":804:830  return balance[msg.sender] */\n      swap1\n      pop\n        /* \"TestBank.sol\":612:837  function withDrawMoney(uint withDrawAmount) public payable returns(uint){... */\n      swap2\n      swap1\n      pop\n      jump\t// out\n        /* \"TestBank.sol\":398:607  function depositMoney(uint256 _amount) public payable returns(uint){... */\n    tag_22:\n        /* \"TestBank.sol\":460:464  uint */\n      0x00\n        /* \"TestBank.sol\":496:505  msg.value */\n      callvalue\n        /* \"TestBank.sol\":475:482  balance */\n      0x00\n        /* \"TestBank.sol\":475:494  balance[msg.sender] */\n      dup1\n        /* \"TestBank.sol\":483:493  msg.sender */\n      caller\n        /* \"TestBank.sol\":475:494  balance[msg.sender] */\n      0xffffffffffffffffffffffffffffffffffffffff\n      and\n      0xffffffffffffffffffffffffffffffffffffffff\n      and\n      dup2\n      mstore\n      0x20\n      add\n      swap1\n      dup2\n      mstore\n      0x20\n      add\n      0x00\n      keccak256\n      0x00\n        /* \"TestBank.sol\":475:505  balance[msg.sender]+=msg.value */\n      dup3\n      dup3\n      sload\n      tag_31\n      swap2\n      swap1\n      tag_32\n      jump\t// in\n    tag_31:\n      swap3\n      pop\n      pop\n      dup2\n      swap1\n      sstore\n      pop\n        /* \"TestBank.sol\":520:564  depositMade(msg.sender, balance[msg.sender]) */\n      0x14558f60a55f03caac2b3dabdda0b51b20b0e22ce09a2c28cd1dc18e873578e8\n        /* \"TestBank.sol\":532:542  msg.sender */\n      caller\n        /* \"TestBank.sol\":544:551  balance */\n      0x00\n        /* \"TestBank.sol\":544:563  balance[msg.sender] */\n      dup1\n        /* \"TestBank.sol\":552:562  msg.sender */\n      caller\n        /* \"TestBank.sol\":544:563  balance[msg.sender] */\n      0xffffffffffffffffffffffffffffffffffffffff\n      and\n      0xffffffffffffffffffffffffffffffffffffffff\n      and\n      dup2\n      mstore\n      0x20\n      add\n      swap1\n      dup2\n      mstore\n      0x20\n      add\n      0x00\n      keccak256\n      sload\n        /* \"TestBank.sol\":520:564  depositMade(msg.sender, balance[msg.sender]) */\n      mload(0x40)\n      tag_33\n      swap3\n      swap2\n      swap1\n      tag_34\n      jump\t// in\n    tag_33:\n      mload(0x40)\n      dup1\n      swap2\n      sub\n      swap1\n      log1\n        /* \"TestBank.sol\":581:588  balance */\n      0x00\n        /* \"TestBank.sol\":581:600  balance[msg.sender] */\n      dup1\n        /* \"TestBank.sol\":589:599  msg.sender */\n      caller\n        /* \"TestBank.sol\":581:600  balance[msg.sender] */\n      0xffffffffffffffffffffffffffffffffffffffff\n      and\n      0xffffffffffffffffffffffffffffffffffffffff\n      and\n      dup2\n      mstore\n      0x20\n      add\n      swap1\n      dup2\n      mstore\n      0x20\n      add\n      0x00\n      keccak256\n      sload\n        /* \"TestBank.sol\":574:600  return balance[msg.sender] */\n      swap1\n      pop\n        /* \"TestBank.sol\":398:607  function depositMoney(uint256 _amount) public payable returns(uint){... */\n      swap2\n      swap1\n      pop\n      jump\t// out\n        /* \"#utility.yul\":7:84   */\n    tag_35:\n        /* \"#utility.yul\":44:51   */\n      0x00\n        /* \"#utility.yul\":73:78   */\n      dup2\n        /* \"#utility.yul\":62:78   */\n      swap1\n      pop\n        /* \"#utility.yul\":7:84   */\n      swap2\n      swap1\n      pop\n      jump\t// out\n        /* \"#utility.yul\":90:208   */\n    tag_36:\n        /* \"#utility.yul\":177:201   */\n      tag_49\n        /* \"#utility.yul\":195:200   */\n      dup2\n        /* \"#utility.yul\":177:201   */\n      tag_35\n      jump\t// in\n    tag_49:\n        /* \"#utility.yul\":172:175   */\n      dup3\n        /* \"#utility.yul\":165:202   */\n      mstore\n        /* \"#utility.yul\":90:208   */\n      pop\n      pop\n      jump\t// out\n        /* \"#utility.yul\":214:436   */\n    tag_10:\n        /* \"#utility.yul\":307:311   */\n      0x00\n        /* \"#utility.yul\":345:347   */\n      0x20\n        /* \"#utility.yul\":334:343   */\n      dup3\n        /* \"#utility.yul\":330:348   */\n      add\n        /* \"#utility.yul\":322:348   */\n      swap1\n      pop\n        /* \"#utility.yul\":358:429   */\n      tag_51\n        /* \"#utility.yul\":426:427   */\n      0x00\n        /* \"#utility.yul\":415:424   */\n      dup4\n        /* \"#utility.yul\":411:428   */\n      add\n        /* \"#utility.yul\":402:408   */\n      dup5\n        /* \"#utility.yul\":358:429   */\n      tag_36\n      jump\t// in\n    tag_51:\n        /* \"#utility.yul\":214:436   */\n      swap3\n      swap2\n      pop\n      pop\n      jump\t// out\n        /* \"#utility.yul\":523:640   */\n    tag_38:\n        /* \"#utility.yul\":632:633   */\n      0x00\n        /* \"#utility.yul\":629:630   */\n      dup1\n        /* \"#utility.yul\":622:634   */\n      revert\n        /* \"#utility.yul\":769:891   */\n    tag_40:\n        /* \"#utility.yul\":842:866   */\n      tag_56\n        /* \"#utility.yul\":860:865   */\n      dup2\n        /* \"#utility.yul\":842:866   */\n      tag_35\n      jump\t// in\n    tag_56:\n        /* \"#utility.yul\":835:840   */\n      dup2\n        /* \"#utility.yul\":832:867   */\n      eq\n        /* \"#utility.yul\":822:885   */\n      tag_57\n      jumpi\n        /* \"#utility.yul\":881:882   */\n      0x00\n        /* \"#utility.yul\":878:879   */\n      dup1\n        /* \"#utility.yul\":871:883   */\n      revert\n        /* \"#utility.yul\":822:885   */\n    tag_57:\n        /* \"#utility.yul\":769:891   */\n      pop\n      jump\t// out\n        /* \"#utility.yul\":897:1036   */\n    tag_41:\n        /* \"#utility.yul\":943:948   */\n      0x00\n        /* \"#utility.yul\":981:987   */\n      dup2\n        /* \"#utility.yul\":968:988   */\n      calldataload\n        /* \"#utility.yul\":959:988   */\n      swap1\n      pop\n        /* \"#utility.yul\":997:1030   */\n      tag_59\n        /* \"#utility.yul\":1024:1029   */\n      dup2\n        /* \"#utility.yul\":997:1030   */\n      tag_40\n      jump\t// in\n    tag_59:\n        /* \"#utility.yul\":897:1036   */\n      swap3\n      swap2\n      pop\n      pop\n      jump\t// out\n        /* \"#utility.yul\":1042:1371   */\n    tag_17:\n        /* \"#utility.yul\":1101:1107   */\n      0x00\n        /* \"#utility.yul\":1150:1152   */\n      0x20\n        /* \"#utility.yul\":1138:1147   */\n      dup3\n        /* \"#utility.yul\":1129:1136   */\n      dup5\n        /* \"#utility.yul\":1125:1148   */\n      sub\n        /* \"#utility.yul\":1121:1153   */\n      slt\n        /* \"#utility.yul\":1118:1237   */\n      iszero\n      tag_61\n      jumpi\n        /* \"#utility.yul\":1156:1235   */\n      tag_62\n      tag_38\n      jump\t// in\n    tag_62:\n        /* \"#utility.yul\":1118:1237   */\n    tag_61:\n        /* \"#utility.yul\":1276:1277   */\n      0x00\n        /* \"#utility.yul\":1301:1354   */\n      tag_63\n        /* \"#utility.yul\":1346:1353   */\n      dup5\n        /* \"#utility.yul\":1337:1343   */\n      dup3\n        /* \"#utility.yul\":1326:1335   */\n      dup6\n        /* \"#utility.yul\":1322:1344   */\n      add\n        /* \"#utility.yul\":1301:1354   */\n      tag_41\n      jump\t// in\n    tag_63:\n        /* \"#utility.yul\":1291:1354   */\n      swap2\n      pop\n        /* \"#utility.yul\":1247:1364   */\n      pop\n        /* \"#utility.yul\":1042:1371   */\n      swap3\n      swap2\n      pop\n      pop\n      jump\t// out\n        /* \"#utility.yul\":1377:1557   */\n    tag_42:\n        /* \"#utility.yul\":1425:1502   */\n      0x4e487b7100000000000000000000000000000000000000000000000000000000\n        /* \"#utility.yul\":1422:1423   */\n      0x00\n        /* \"#utility.yul\":1415:1503   */\n      mstore\n        /* \"#utility.yul\":1522:1526   */\n      0x11\n        /* \"#utility.yul\":1519:1520   */\n      0x04\n        /* \"#utility.yul\":1512:1527   */\n      mstore\n        /* \"#utility.yul\":1546:1550   */\n      0x24\n        /* \"#utility.yul\":1543:1544   */\n      0x00\n        /* \"#utility.yul\":1536:1551   */\n      revert\n        /* \"#utility.yul\":1563:1754   */\n    tag_29:\n        /* \"#utility.yul\":1603:1607   */\n      0x00\n        /* \"#utility.yul\":1623:1643   */\n      tag_66\n        /* \"#utility.yul\":1641:1642   */\n      dup3\n        /* \"#utility.yul\":1623:1643   */\n      tag_35\n      jump\t// in\n    tag_66:\n        /* \"#utility.yul\":1618:1643   */\n      swap2\n      pop\n        /* \"#utility.yul\":1657:1677   */\n      tag_67\n        /* \"#utility.yul\":1675:1676   */\n      dup4\n        /* \"#utility.yul\":1657:1677   */\n      tag_35\n      jump\t// in\n    tag_67:\n        /* \"#utility.yul\":1652:1677   */\n      swap3\n      pop\n        /* \"#utility.yul\":1696:1697   */\n      dup3\n        /* \"#utility.yul\":1693:1694   */\n      dup3\n        /* \"#utility.yul\":1690:1698   */\n      lt\n        /* \"#utility.yul\":1687:1721   */\n      iszero\n      tag_68\n      jumpi\n        /* \"#utility.yul\":1701:1719   */\n      tag_69\n      tag_42\n      jump\t// in\n    tag_69:\n        /* \"#utility.yul\":1687:1721   */\n    tag_68:\n        /* \"#utility.yul\":1746:1747   */\n      dup3\n        /* \"#utility.yul\":1743:1744   */\n      dup3\n        /* \"#utility.yul\":1739:1748   */\n      sub\n        /* \"#utility.yul\":1731:1748   */\n      swap1\n      pop\n        /* \"#utility.yul\":1563:1754   */\n      swap3\n      swap2\n      pop\n      pop\n      jump\t// out\n        /* \"#utility.yul\":1760:2065   */\n    tag_32:\n        /* \"#utility.yul\":1800:1803   */\n      0x00\n        /* \"#utility.yul\":1819:1839   */\n      tag_71\n        /* \"#utility.yul\":1837:1838   */\n      dup3\n        /* \"#utility.yul\":1819:1839   */\n      tag_35\n      jump\t// in\n    tag_71:\n        /* \"#utility.yul\":1814:1839   */\n      swap2\n      pop\n        /* \"#utility.yul\":1853:1873   */\n      tag_72\n        /* \"#utility.yul\":1871:1872   */\n      dup4\n        /* \"#utility.yul\":1853:1873   */\n      tag_35\n      jump\t// in\n    tag_72:\n        /* \"#utility.yul\":1848:1873   */\n      swap3\n      pop\n        /* \"#utility.yul\":2007:2008   */\n      dup3\n        /* \"#utility.yul\":1939:2005   */\n      0xffffffffffffffffffffffffffffffffffffffffffffffffffffffffffffffff\n        /* \"#utility.yul\":1935:2009   */\n      sub\n        /* \"#utility.yul\":1932:1933   */\n      dup3\n        /* \"#utility.yul\":1929:2010   */\n      gt\n        /* \"#utility.yul\":1926:2033   */\n      iszero\n      tag_73\n      jumpi\n        /* \"#utility.yul\":2013:2031   */\n      tag_74\n      tag_42\n      jump\t// in\n    tag_74:\n        /* \"#utility.yul\":1926:2033   */\n    tag_73:\n        /* \"#utility.yul\":2057:2058   */\n      dup3\n        /* \"#utility.yul\":2054:2055   */\n      dup3\n        /* \"#utility.yul\":2050:2059   */\n      add\n        /* \"#utility.yul\":2043:2059   */\n      swap1\n      pop\n        /* \"#utility.yul\":1760:2065   */\n      swap3\n      swap2\n      pop\n      pop\n      jump\t// out\n        /* \"#utility.yul\":2071:2197   */\n    tag_43:\n        /* \"#utility.yul\":2108:2115   */\n      0x00\n        /* \"#utility.yul\":2148:2190   */\n      0xffffffffffffffffffffffffffffffffffffffff\n        /* \"#utility.yul\":2141:2146   */\n      dup3\n        /* \"#utility.yul\":2137:2191   */\n      and\n        /* \"#utility.yul\":2126:2191   */\n      swap1\n      pop\n        /* \"#utility.yul\":2071:2197   */\n      swap2\n      swap1\n      pop\n      jump\t// out\n        /* \"#utility.yul\":2203:2299   */\n    tag_44:\n        /* \"#utility.yul\":2240:2247   */\n      0x00\n        /* \"#utility.yul\":2269:2293   */\n      tag_77\n        /* \"#utility.yul\":2287:2292   */\n      dup3\n        /* \"#utility.yul\":2269:2293   */\n      tag_43\n      jump\t// in\n    tag_77:\n        /* \"#utility.yul\":2258:2293   */\n      swap1\n      pop\n        /* \"#utility.yul\":2203:2299   */\n      swap2\n      swap1\n      pop\n      jump\t// out\n        /* \"#utility.yul\":2305:2423   */\n    tag_45:\n        /* \"#utility.yul\":2392:2416   */\n      tag_79\n        /* \"#utility.yul\":2410:2415   */\n      dup2\n        /* \"#utility.yul\":2392:2416   */\n      tag_44\n      jump\t// in\n    tag_79:\n        /* \"#utility.yul\":2387:2390   */\n      dup3\n        /* \"#utility.yul\":2380:2417   */\n      mstore\n        /* \"#utility.yul\":2305:2423   */\n      pop\n      pop\n      jump\t// out\n        /* \"#utility.yul\":2429:2761   */\n    tag_34:\n        /* \"#utility.yul\":2550:2554   */\n      0x00\n        /* \"#utility.yul\":2588:2590   */\n      0x40\n        /* \"#utility.yul\":2577:2586   */\n      dup3\n        /* \"#utility.yul\":2573:2591   */\n      add\n        /* \"#utility.yul\":2565:2591   */\n      swap1\n      pop\n        /* \"#utility.yul\":2601:2672   */\n      tag_81\n        /* \"#utility.yul\":2669:2670   */\n      0x00\n        /* \"#utility.yul\":2658:2667   */\n      dup4\n        /* \"#utility.yul\":2654:2671   */\n      add\n        /* \"#utility.yul\":2645:2651   */\n      dup6\n        /* \"#utility.yul\":2601:2672   */\n      tag_45\n      jump\t// in\n    tag_81:\n        /* \"#utility.yul\":2682:2754   */\n      tag_82\n        /* \"#utility.yul\":2750:2752   */\n      0x20\n        /* \"#utility.yul\":2739:2748   */\n      dup4\n        /* \"#utility.yul\":2735:2753   */\n      add\n        /* \"#utility.yul\":2726:2732   */\n      dup5\n        /* \"#utility.yul\":2682:2754   */\n      tag_36\n      jump\t// in\n    tag_82:\n        /* \"#utility.yul\":2429:2761   */\n      swap4\n      swap3\n      pop\n      pop\n      pop\n      jump\t// out\n\n    auxdata: 0xa26469706673582212200b68437cb34c261f6ba8e655337f4768fc36cfc75c5213496c847370b885bfb964736f6c63430008090033\n}\n",
				"bytecode": {
					"linkReferences": {},
					"object": "608060405234801561001057600080fd5b5033600260006101000a81548173ffffffffffffffffffffffffffffffffffffffff021916908373ffffffffffffffffffffffffffffffffffffffff1602179055506105ab806100616000396000f3fe60806040526004361061003f5760003560e01c8063292eb75d146100445780636896fabf1461006f578063827cc4521461009a578063ae18c52b146100ca575b600080fd5b34801561005057600080fd5b506100596100fa565b60405161006691906103d9565b60405180910390f35b34801561007b57600080fd5b50610084610183565b60405161009191906103d9565b60405180910390f35b6100b460048036038101906100af9190610425565b6101c9565b6040516100c191906103d9565b60405180910390f35b6100e460048036038101906100df9190610425565b6102ac565b6040516100f191906103d9565b60405180910390f35b6000806000803373ffffffffffffffffffffffffffffffffffffffff1673ffffffffffffffffffffffffffffffffffffffff168152602001908152602001600020819055506000803373ffffffffffffffffffffffffffffffffffffffff1673ffffffffffffffffffffffffffffffffffffffff16815260200190815260200160002054905090565b60008060003373ffffffffffffffffffffffffffffffffffffffff1673ffffffffffffffffffffffffffffffffffffffff16815260200190815260200160002054905090565b60008060003373ffffffffffffffffffffffffffffffffffffffff1673ffffffffffffffffffffffffffffffffffffffff16815260200190815260200160002054821161026657816000803373ffffffffffffffffffffffffffffffffffffffff1673ffffffffffffffffffffffffffffffffffffffff168152602001908152602001600020600082825461025e9190610481565b925050819055505b6000803373ffffffffffffffffffffffffffffffffffffffff1673ffffffffffffffffffffffffffffffffffffffff168152602001908152602001600020549050919050565b6000346000803373ffffffffffffffffffffffffffffffffffffffff1673ffffffffffffffffffffffffffffffffffffffff16815260200190815260200160002060008282546102fc91906104b5565b925050819055507f14558f60a55f03caac2b3dabdda0b51b20b0e22ce09a2c28cd1dc18e873578e8336000803373ffffffffffffffffffffffffffffffffffffffff1673ffffffffffffffffffffffffffffffffffffffff1681526020019081526020016000205460405161037292919061054c565b60405180910390a16000803373ffffffffffffffffffffffffffffffffffffffff1673ffffffffffffffffffffffffffffffffffffffff168152602001908152602001600020549050919050565b6000819050919050565b6103d3816103c0565b82525050565b60006020820190506103ee60008301846103ca565b92915050565b600080fd5b610402816103c0565b811461040d57600080fd5b50565b60008135905061041f816103f9565b92915050565b60006020828403121561043b5761043a6103f4565b5b600061044984828501610410565b91505092915050565b7f4e487b7100000000000000000000000000000000000000000000000000000000600052601160045260246000fd5b600061048c826103c0565b9150610497836103c0565b9250828210156104aa576104a9610452565b5b828203905092915050565b60006104c0826103c0565b91506104cb836103c0565b9250827fffffffffffffffffffffffffffffffffffffffffffffffffffffffffffffffff03821115610500576104ff610452565b5b828201905092915050565b600073ffffffffffffffffffffffffffffffffffffffff82169050919050565b60006105368261050b565b9050919050565b6105468161052b565b82525050565b6000604082019050610561600083018561053d565b61056e60208301846103ca565b939250505056fea26469706673582212200b68437cb34c261f6ba8e655337f4768fc36cfc75c5213496c847370b885bfb964736f6c63430008090033",
					"opcodes": "PUSH1 0x80 PUSH1 0x40 MSTORE CALLVALUE DUP1 ISZERO PUSH2 0x10 JUMPI PUSH1 0x0 DUP1 REVERT JUMPDEST POP CALLER PUSH1 0x2 PUSH1 0x0 PUSH2 0x100 EXP DUP2 SLOAD DUP2 PUSH20 0xFFFFFFFFFFFFFFFFFFFFFFFFFFFFFFFFFFFFFFFF MUL NOT AND SWAP1 DUP4 PUSH20 0xFFFFFFFFFFFFFFFFFFFFFFFFFFFFFFFFFFFFFFFF AND MUL OR SWAP1 SSTORE POP PUSH2 0x5AB DUP1 PUSH2 0x61 PUSH1 0x0 CODECOPY PUSH1 0x0 RETURN INVALID PUSH1 0x80 PUSH1 0x40 MSTORE PUSH1 0x4 CALLDATASIZE LT PUSH2 0x3F JUMPI PUSH1 0x0 CALLDATALOAD PUSH1 0xE0 SHR DUP1 PUSH4 0x292EB75D EQ PUSH2 0x44 JUMPI DUP1 PUSH4 0x6896FABF EQ PUSH2 0x6F JUMPI DUP1 PUSH4 0x827CC452 EQ PUSH2 0x9A JUMPI DUP1 PUSH4 0xAE18C52B EQ PUSH2 0xCA JUMPI JUMPDEST PUSH1 0x0 DUP1 REVERT JUMPDEST CALLVALUE DUP1 ISZERO PUSH2 0x50 JUMPI PUSH1 0x0 DUP1 REVERT JUMPDEST POP PUSH2 0x59 PUSH2 0xFA JUMP JUMPDEST PUSH1 0x40 MLOAD PUSH2 0x66 SWAP2 SWAP1 PUSH2 0x3D9 JUMP JUMPDEST PUSH1 0x40 MLOAD DUP1 SWAP2 SUB SWAP1 RETURN JUMPDEST CALLVALUE DUP1 ISZERO PUSH2 0x7B JUMPI PUSH1 0x0 DUP1 REVERT JUMPDEST POP PUSH2 0x84 PUSH2 0x183 JUMP JUMPDEST PUSH1 0x40 MLOAD PUSH2 0x91 SWAP2 SWAP1 PUSH2 0x3D9 JUMP JUMPDEST PUSH1 0x40 MLOAD DUP1 SWAP2 SUB SWAP1 RETURN JUMPDEST PUSH2 0xB4 PUSH1 0x4 DUP1 CALLDATASIZE SUB DUP2 ADD SWAP1 PUSH2 0xAF SWAP2 SWAP1 PUSH2 0x425 JUMP JUMPDEST PUSH2 0x1C9 JUMP JUMPDEST PUSH1 0x40 MLOAD PUSH2 0xC1 SWAP2 SWAP1 PUSH2 0x3D9 JUMP JUMPDEST PUSH1 0x40 MLOAD DUP1 SWAP2 SUB SWAP1 RETURN JUMPDEST PUSH2 0xE4 PUSH1 0x4 DUP1 CALLDATASIZE SUB DUP2 ADD SWAP1 PUSH2 0xDF SWAP2 SWAP1 PUSH2 0x425 JUMP JUMPDEST PUSH2 0x2AC JUMP JUMPDEST PUSH1 0x40 MLOAD PUSH2 0xF1 SWAP2 SWAP1 PUSH2 0x3D9 JUMP JUMPDEST PUSH1 0x40 MLOAD DUP1 SWAP2 SUB SWAP1 RETURN JUMPDEST PUSH1 0x0 DUP1 PUSH1 0x0 DUP1 CALLER PUSH20 0xFFFFFFFFFFFFFFFFFFFFFFFFFFFFFFFFFFFFFFFF AND PUSH20 0xFFFFFFFFFFFFFFFFFFFFFFFFFFFFFFFFFFFFFFFF AND DUP2 MSTORE PUSH1 0x20 ADD SWAP1 DUP2 MSTORE PUSH1 0x20 ADD PUSH1 0x0 KECCAK256 DUP2 SWAP1 SSTORE POP PUSH1 0x0 DUP1 CALLER PUSH20 0xFFFFFFFFFFFFFFFFFFFFFFFFFFFFFFFFFFFFFFFF AND PUSH20 0xFFFFFFFFFFFFFFFFFFFFFFFFFFFFFFFFFFFFFFFF AND DUP2 MSTORE PUSH1 0x20 ADD SWAP1 DUP2 MSTORE PUSH1 0x20 ADD PUSH1 0x0 KECCAK256 SLOAD SWAP1 POP SWAP1 JUMP JUMPDEST PUSH1 0x0 DUP1 PUSH1 0x0 CALLER PUSH20 0xFFFFFFFFFFFFFFFFFFFFFFFFFFFFFFFFFFFFFFFF AND PUSH20 0xFFFFFFFFFFFFFFFFFFFFFFFFFFFFFFFFFFFFFFFF AND DUP2 MSTORE PUSH1 0x20 ADD SWAP1 DUP2 MSTORE PUSH1 0x20 ADD PUSH1 0x0 KECCAK256 SLOAD SWAP1 POP SWAP1 JUMP JUMPDEST PUSH1 0x0 DUP1 PUSH1 0x0 CALLER PUSH20 0xFFFFFFFFFFFFFFFFFFFFFFFFFFFFFFFFFFFFFFFF AND PUSH20 0xFFFFFFFFFFFFFFFFFFFFFFFFFFFFFFFFFFFFFFFF AND DUP2 MSTORE PUSH1 0x20 ADD SWAP1 DUP2 MSTORE PUSH1 0x20 ADD PUSH1 0x0 KECCAK256 SLOAD DUP3 GT PUSH2 0x266 JUMPI DUP2 PUSH1 0x0 DUP1 CALLER PUSH20 0xFFFFFFFFFFFFFFFFFFFFFFFFFFFFFFFFFFFFFFFF AND PUSH20 0xFFFFFFFFFFFFFFFFFFFFFFFFFFFFFFFFFFFFFFFF AND DUP2 MSTORE PUSH1 0x20 ADD SWAP1 DUP2 MSTORE PUSH1 0x20 ADD PUSH1 0x0 KECCAK256 PUSH1 0x0 DUP3 DUP3 SLOAD PUSH2 0x25E SWAP2 SWAP1 PUSH2 0x481 JUMP JUMPDEST SWAP3 POP POP DUP2 SWAP1 SSTORE POP JUMPDEST PUSH1 0x0 DUP1 CALLER PUSH20 0xFFFFFFFFFFFFFFFFFFFFFFFFFFFFFFFFFFFFFFFF AND PUSH20 0xFFFFFFFFFFFFFFFFFFFFFFFFFFFFFFFFFFFFFFFF AND DUP2 MSTORE PUSH1 0x20 ADD SWAP1 DUP2 MSTORE PUSH1 0x20 ADD PUSH1 0x0 KECCAK256 SLOAD SWAP1 POP SWAP2 SWAP1 POP JUMP JUMPDEST PUSH1 0x0 CALLVALUE PUSH1 0x0 DUP1 CALLER PUSH20 0xFFFFFFFFFFFFFFFFFFFFFFFFFFFFFFFFFFFFFFFF AND PUSH20 0xFFFFFFFFFFFFFFFFFFFFFFFFFFFFFFFFFFFFFFFF AND DUP2 MSTORE PUSH1 0x20 ADD SWAP1 DUP2 MSTORE PUSH1 0x20 ADD PUSH1 0x0 KECCAK256 PUSH1 0x0 DUP3 DUP3 SLOAD PUSH2 0x2FC SWAP2 SWAP1 PUSH2 0x4B5 JUMP JUMPDEST SWAP3 POP POP DUP2 SWAP1 SSTORE POP PUSH32 0x14558F60A55F03CAAC2B3DABDDA0B51B20B0E22CE09A2C28CD1DC18E873578E8 CALLER PUSH1 0x0 DUP1 CALLER PUSH20 0xFFFFFFFFFFFFFFFFFFFFFFFFFFFFFFFFFFFFFFFF AND PUSH20 0xFFFFFFFFFFFFFFFFFFFFFFFFFFFFFFFFFFFFFFFF AND DUP2 MSTORE PUSH1 0x20 ADD SWAP1 DUP2 MSTORE PUSH1 0x20 ADD PUSH1 0x0 KECCAK256 SLOAD PUSH1 0x40 MLOAD PUSH2 0x372 SWAP3 SWAP2 SWAP1 PUSH2 0x54C JUMP JUMPDEST PUSH1 0x40 MLOAD DUP1 SWAP2 SUB SWAP1 LOG1 PUSH1 0x0 DUP1 CALLER PUSH20 0xFFFFFFFFFFFFFFFFFFFFFFFFFFFFFFFFFFFFFFFF AND PUSH20 0xFFFFFFFFFFFFFFFFFFFFFFFFFFFFFFFFFFFFFFFF AND DUP2 MSTORE PUSH1 0x20 ADD SWAP1 DUP2 MSTORE PUSH1 0x20 ADD PUSH1 0x0 KECCAK256 SLOAD SWAP1 POP SWAP2 SWAP1 POP JUMP JUMPDEST PUSH1 0x0 DUP2 SWAP1 POP SWAP2 SWAP1 POP JUMP JUMPDEST PUSH2 0x3D3 DUP2 PUSH2 0x3C0 JUMP JUMPDEST DUP3 MSTORE POP POP JUMP JUMPDEST PUSH1 0x0 PUSH1 0x20 DUP3 ADD SWAP1 POP PUSH2 0x3EE PUSH1 0x0 DUP4 ADD DUP5 PUSH2 0x3CA JUMP JUMPDEST SWAP3 SWAP2 POP POP JUMP JUMPDEST PUSH1 0x0 DUP1 REVERT JUMPDEST PUSH2 0x402 DUP2 PUSH2 0x3C0 JUMP JUMPDEST DUP2 EQ PUSH2 0x40D JUMPI PUSH1 0x0 DUP1 REVERT JUMPDEST POP JUMP JUMPDEST PUSH1 0x0 DUP2 CALLDATALOAD SWAP1 POP PUSH2 0x41F DUP2 PUSH2 0x3F9 JUMP JUMPDEST SWAP3 SWAP2 POP POP JUMP JUMPDEST PUSH1 0x0 PUSH1 0x20 DUP3 DUP5 SUB SLT ISZERO PUSH2 0x43B JUMPI PUSH2 0x43A PUSH2 0x3F4 JUMP JUMPDEST JUMPDEST PUSH1 0x0 PUSH2 0x449 DUP5 DUP3 DUP6 ADD PUSH2 0x410 JUMP JUMPDEST SWAP2 POP POP SWAP3 SWAP2 POP POP JUMP JUMPDEST PUSH32 0x4E487B7100000000000000000000000000000000000000000000000000000000 PUSH1 0x0 MSTORE PUSH1 0x11 PUSH1 0x4 MSTORE PUSH1 0x24 PUSH1 0x0 REVERT JUMPDEST PUSH1 0x0 PUSH2 0x48C DUP3 PUSH2 0x3C0 JUMP JUMPDEST SWAP2 POP PUSH2 0x497 DUP4 PUSH2 0x3C0 JUMP JUMPDEST SWAP3 POP DUP3 DUP3 LT ISZERO PUSH2 0x4AA JUMPI PUSH2 0x4A9 PUSH2 0x452 JUMP JUMPDEST JUMPDEST DUP3 DUP3 SUB SWAP1 POP SWAP3 SWAP2 POP POP JUMP JUMPDEST PUSH1 0x0 PUSH2 0x4C0 DUP3 PUSH2 0x3C0 JUMP JUMPDEST SWAP2 POP PUSH2 0x4CB DUP4 PUSH2 0x3C0 JUMP JUMPDEST SWAP3 POP DUP3 PUSH32 0xFFFFFFFFFFFFFFFFFFFFFFFFFFFFFFFFFFFFFFFFFFFFFFFFFFFFFFFFFFFFFFFF SUB DUP3 GT ISZERO PUSH2 0x500 JUMPI PUSH2 0x4FF PUSH2 0x452 JUMP JUMPDEST JUMPDEST DUP3 DUP3 ADD SWAP1 POP SWAP3 SWAP2 POP POP JUMP JUMPDEST PUSH1 0x0 PUSH20 0xFFFFFFFFFFFFFFFFFFFFFFFFFFFFFFFFFFFFFFFF DUP3 AND SWAP1 POP SWAP2 SWAP1 POP JUMP JUMPDEST PUSH1 0x0 PUSH2 0x536 DUP3 PUSH2 0x50B JUMP JUMPDEST SWAP1 POP SWAP2 SWAP1 POP JUMP JUMPDEST PUSH2 0x546 DUP2 PUSH2 0x52B JUMP JUMPDEST DUP3 MSTORE POP POP JUMP JUMPDEST PUSH1 0x0 PUSH1 0x40 DUP3 ADD SWAP1 POP PUSH2 0x561 PUSH1 0x0 DUP4 ADD DUP6 PUSH2 0x53D JUMP JUMPDEST PUSH2 0x56E PUSH1 0x20 DUP4 ADD DUP5 PUSH2 0x3CA JUMP JUMPDEST SWAP4 SWAP3 POP POP POP JUMP INVALID LOG2 PUSH5 0x6970667358 0x22 SLT KECCAK256 SIGNEXTEND PUSH9 0x437CB34C261F6BA8E6 SSTORE CALLER PUSH32 0x4768FC36CFC75C5213496C847370B885BFB964736F6C63430008090033000000 "
				},
				"gasEstimates": {
					"creation": {
						"codeDepositCost": "290200",
						"executionCost": "24597",
						"totalCost": "314797"
					},
					"external": {
						"depositMoney(uint256)": "infinite",
						"getAccountBalance()": "2526",
						"openAccount()": "7607",
						"withDrawMoney(uint256)": "infinite"
					}
				},
				"methodIdentifiers": {
					"depositMoney(uint256)": "ae18c52b",
					"getAccountBalance()": "6896fabf",
					"openAccount()": "292eb75d",
					"withDrawMoney(uint256)": "827cc452"
				}
			},
			"storageLayout": {
				"storage": [
					{
						"astId": 5,
						"contract": "TestBank.sol:Bank",
						"label": "balance",
						"offset": 0,
						"slot": "0",
						"type": "t_mapping(t_address,t_uint256)"
					},
					{
						"astId": 7,
						"contract": "TestBank.sol:Bank",
						"label": "userCount",
						"offset": 0,
						"slot": "1",
						"type": "t_uint256"
					},
					{
						"astId": 9,
						"contract": "TestBank.sol:Bank",
						"label": "owner",
						"offset": 0,
						"slot": "2",
						"type": "t_address"
					}
				],
				"types": {
					"t_address": {
						"encoding": "inplace",
						"label": "address",
						"numberOfBytes": "20"
					},
					"t_mapping(t_address,t_uint256)": {
						"encoding": "mapping",
						"key": "t_address",
						"label": "mapping(address => uint256)",
						"numberOfBytes": "32",
						"value": "t_uint256"
					},
					"t_uint256": {
						"encoding": "inplace",
						"label": "uint256",
						"numberOfBytes": "32"
					}
				}
			},
			"userdoc": {
				"kind": "user",
				"methods": {},
				"version": 1
			}
		}
	}
}