{
	"SimpleAuction.sol": {
		"simpleAuction": {
			"abi": [
				{
					"anonymous": false,
					"inputs": [
						{
							"indexed": false,
							"internalType": "address",
							"name": "topBider",
							"type": "address"
						},
						{
							"indexed": false,
							"internalType": "uint256",
							"name": "topBid",
							"type": "uint256"
						}
					],
					"name": "auctionClosed",
					"type": "event"
				},
				{
					"anonymous": false,
					"inputs": [
						{
							"indexed": false,
							"internalType": "address",
							"name": "auctionOwner",
							"type": "address"
						},
						{
							"indexed": false,
							"internalType": "uint256",
							"name": "startPrice",
							"type": "uint256"
						}
					],
					"name": "auctionStarted",
					"type": "event"
				},
				{
					"anonymous": false,
					"inputs": [
						{
							"indexed": false,
							"internalType": "address",
							"name": "bidder",
							"type": "address"
						},
						{
							"indexed": false,
							"internalType": "uint256",
							"name": "bidAmount",
							"type": "uint256"
						}
					],
					"name": "bidPlaced",
					"type": "event"
				},
				{
					"inputs": [],
					"name": "cancelAuction",
					"outputs": [],
					"stateMutability": "nonpayable",
					"type": "function"
				},
				{
					"inputs": [],
					"name": "placeBid",
					"outputs": [],
					"stateMutability": "payable",
					"type": "function"
				},
				{
					"inputs": [
						{
							"internalType": "uint256",
							"name": "_auctionStartPrice",
							"type": "uint256"
						},
						{
							"internalType": "uint256",
							"name": "_auctionTime",
							"type": "uint256"
						}
					],
					"name": "startAuction",
					"outputs": [],
					"stateMutability": "nonpayable",
					"type": "function"
				},
				{
					"inputs": [],
					"name": "withDrawBid",
					"outputs": [
						{
							"internalType": "bool",
							"name": "",
							"type": "bool"
						}
					],
					"stateMutability": "nonpayable",
					"type": "function"
				}
			],
			"devdoc": {
				"kind": "dev",
				"methods": {},
				"version": 1
			},
			"evm": {
				"assembly": "    /* \"SimpleAuction.sol\":71:1783  contract simpleAuction{... */\n  mstore(0x40, 0x80)\n    /* \"SimpleAuction.sol\":118:123  false */\n  0x00\n    /* \"SimpleAuction.sol\":99:123  bool AuctionClosed=false */\n  dup1\n  exp(0x0100, 0x00)\n  dup2\n  sload\n  dup2\n  0xff\n  mul\n  not\n  and\n  swap1\n  dup4\n  iszero\n  iszero\n  mul\n  or\n  swap1\n  sstore\n  pop\n    /* \"SimpleAuction.sol\":184:185  0 */\n  0x00\n    /* \"SimpleAuction.sol\":163:185  uint256 topBidAmount=0 */\n  0x01\n  sstore\n    /* \"SimpleAuction.sol\":71:1783  contract simpleAuction{... */\n  callvalue\n  dup1\n  iszero\n  tag_1\n  jumpi\n  0x00\n  dup1\n  revert\ntag_1:\n  pop\n  dataSize(sub_0)\n  dup1\n  dataOffset(sub_0)\n  0x00\n  codecopy\n  0x00\n  return\nstop\n\nsub_0: assembly {\n        /* \"SimpleAuction.sol\":71:1783  contract simpleAuction{... */\n      mstore(0x40, 0x80)\n      jumpi(tag_1, lt(calldatasize, 0x04))\n      shr(0xe0, calldataload(0x00))\n      dup1\n      0x4fee13fc\n      eq\n      tag_2\n      jumpi\n      dup1\n      0x8fa8b790\n      eq\n      tag_3\n      jumpi\n      dup1\n      0xecfc7ecc\n      eq\n      tag_4\n      jumpi\n      dup1\n      0xfde8c63e\n      eq\n      tag_5\n      jumpi\n    tag_1:\n      0x00\n      dup1\n      revert\n        /* \"SimpleAuction.sol\":526:841  function startAuction(uint256 _auctionStartPrice, uint256 _auctionTime) public {... */\n    tag_2:\n      callvalue\n      dup1\n      iszero\n      tag_6\n      jumpi\n      0x00\n      dup1\n      revert\n    tag_6:\n      pop\n      tag_7\n      0x04\n      dup1\n      calldatasize\n      sub\n      dup2\n      add\n      swap1\n      tag_8\n      swap2\n      swap1\n      tag_9\n      jump\t// in\n    tag_8:\n      tag_10\n      jump\t// in\n    tag_7:\n      stop\n        /* \"SimpleAuction.sol\":1232:1478  function cancelAuction() public {... */\n    tag_3:\n      callvalue\n      dup1\n      iszero\n      tag_11\n      jumpi\n      0x00\n      dup1\n      revert\n    tag_11:\n      pop\n      tag_12\n      tag_13\n      jump\t// in\n    tag_12:\n      stop\n        /* \"SimpleAuction.sol\":848:1226  function placeBid() public payable{... */\n    tag_4:\n      tag_14\n      tag_15\n      jump\t// in\n    tag_14:\n      stop\n        /* \"SimpleAuction.sol\":1483:1780  function withDrawBid() public returns(bool){... */\n    tag_5:\n      callvalue\n      dup1\n      iszero\n      tag_16\n      jumpi\n      0x00\n      dup1\n      revert\n    tag_16:\n      pop\n      tag_17\n      tag_18\n      jump\t// in\n    tag_17:\n      mload(0x40)\n      tag_19\n      swap2\n      swap1\n      tag_20\n      jump\t// in\n    tag_19:\n      mload(0x40)\n      dup1\n      swap2\n      sub\n      swap1\n      return\n        /* \"SimpleAuction.sol\":526:841  function startAuction(uint256 _auctionStartPrice, uint256 _auctionTime) public {... */\n    tag_10:\n        /* \"SimpleAuction.sol\":637:647  msg.sender */\n      caller\n        /* \"SimpleAuction.sol\":615:627  auctionOwner */\n      0x00\n      0x01\n        /* \"SimpleAuction.sol\":615:648  auctionOwner= payable(msg.sender) */\n      0x0100\n      exp\n      dup2\n      sload\n      dup2\n      0xffffffffffffffffffffffffffffffffffffffff\n      mul\n      not\n      and\n      swap1\n      dup4\n      0xffffffffffffffffffffffffffffffffffffffff\n      and\n      mul\n      or\n      swap1\n      sstore\n      pop\n        /* \"SimpleAuction.sol\":672:677  false */\n      0x00\n        /* \"SimpleAuction.sol\":658:671  AuctionClosed */\n      dup1\n      0x00\n        /* \"SimpleAuction.sol\":658:677  AuctionClosed=false */\n      0x0100\n      exp\n      dup2\n      sload\n      dup2\n      0xff\n      mul\n      not\n      and\n      swap1\n      dup4\n      iszero\n      iszero\n      mul\n      or\n      swap1\n      sstore\n      pop\n        /* \"SimpleAuction.sol\":705:723  _auctionStartPrice */\n      dup2\n        /* \"SimpleAuction.sol\":687:704  auctionStartPrice */\n      0x02\n        /* \"SimpleAuction.sol\":687:723  auctionStartPrice=_auctionStartPrice */\n      dup2\n      swap1\n      sstore\n      pop\n        /* \"SimpleAuction.sol\":761:773  _auctionTime */\n      dup1\n        /* \"SimpleAuction.sol\":745:760  block.timestamp */\n      timestamp\n        /* \"SimpleAuction.sol\":745:773  block.timestamp+_auctionTime */\n      tag_22\n      swap2\n      swap1\n      tag_23\n      jump\t// in\n    tag_22:\n        /* \"SimpleAuction.sol\":733:744  auctionTime */\n      0x03\n        /* \"SimpleAuction.sol\":733:773  auctionTime=block.timestamp+_auctionTime */\n      dup2\n      swap1\n      sstore\n      pop\n        /* \"SimpleAuction.sol\":788:834  auctionStarted(auctionOwner,auctionStartPrice) */\n      0x1e6871a9ec2c22e508757c73d7e2d7d15e2819276867174afb13fcdc9f018df2\n        /* \"SimpleAuction.sol\":803:815  auctionOwner */\n      0x00\n      0x01\n      swap1\n      sload\n      swap1\n      0x0100\n      exp\n      swap1\n      div\n      0xffffffffffffffffffffffffffffffffffffffff\n      and\n        /* \"SimpleAuction.sol\":816:833  auctionStartPrice */\n      sload(0x02)\n        /* \"SimpleAuction.sol\":788:834  auctionStarted(auctionOwner,auctionStartPrice) */\n      mload(0x40)\n      tag_24\n      swap3\n      swap2\n      swap1\n      tag_25\n      jump\t// in\n    tag_24:\n      mload(0x40)\n      dup1\n      swap2\n      sub\n      swap1\n      log1\n        /* \"SimpleAuction.sol\":526:841  function startAuction(uint256 _auctionStartPrice, uint256 _auctionTime) public {... */\n      pop\n      pop\n      jump\t// out\n        /* \"SimpleAuction.sol\":1232:1478  function cancelAuction() public {... */\n    tag_13:\n        /* \"SimpleAuction.sol\":1296:1308  auctionOwner */\n      0x00\n      0x01\n      swap1\n      sload\n      swap1\n      0x0100\n      exp\n      swap1\n      div\n      0xffffffffffffffffffffffffffffffffffffffff\n      and\n        /* \"SimpleAuction.sol\":1282:1308  msg.sender == auctionOwner */\n      0xffffffffffffffffffffffffffffffffffffffff\n      and\n        /* \"SimpleAuction.sol\":1282:1292  msg.sender */\n      caller\n        /* \"SimpleAuction.sol\":1282:1308  msg.sender == auctionOwner */\n      0xffffffffffffffffffffffffffffffffffffffff\n      and\n      eq\n        /* \"SimpleAuction.sol\":1274:1309  require(msg.sender == auctionOwner) */\n      tag_27\n      jumpi\n      0x00\n      dup1\n      revert\n    tag_27:\n        /* \"SimpleAuction.sol\":1346:1357  auctionTime */\n      sload(0x03)\n        /* \"SimpleAuction.sol\":1327:1342  block.timestamp */\n      timestamp\n        /* \"SimpleAuction.sol\":1327:1357  block.timestamp >= auctionTime */\n      lt\n      iszero\n        /* \"SimpleAuction.sol\":1319:1358  require(block.timestamp >= auctionTime) */\n      tag_28\n      jumpi\n      0x00\n      dup1\n      revert\n    tag_28:\n        /* \"SimpleAuction.sol\":1382:1386  true */\n      0x01\n        /* \"SimpleAuction.sol\":1368:1381  AuctionClosed */\n      0x00\n      dup1\n        /* \"SimpleAuction.sol\":1368:1386  AuctionClosed=true */\n      0x0100\n      exp\n      dup2\n      sload\n      dup2\n      0xff\n      mul\n      not\n      and\n      swap1\n      dup4\n      iszero\n      iszero\n      mul\n      or\n      swap1\n      sstore\n      pop\n        /* \"SimpleAuction.sol\":1401:1432  auctionClosed(topBidder,topBid) */\n      0x0693fe466dadf29e4700c29f41d1504c602b944fa5e6b5f1cb0a3a2ca0702120\n        /* \"SimpleAuction.sol\":1415:1424  topBidder */\n      0x04\n      0x00\n      swap1\n      sload\n      swap1\n      0x0100\n      exp\n      swap1\n      div\n      0xffffffffffffffffffffffffffffffffffffffff\n      and\n        /* \"SimpleAuction.sol\":1425:1431  topBid */\n      sload(0x05)\n        /* \"SimpleAuction.sol\":1401:1432  auctionClosed(topBidder,topBid) */\n      mload(0x40)\n      tag_29\n      swap3\n      swap2\n      swap1\n      tag_30\n      jump\t// in\n    tag_29:\n      mload(0x40)\n      dup1\n      swap2\n      sub\n      swap1\n      log1\n        /* \"SimpleAuction.sol\":1442:1454  auctionOwner */\n      0x00\n      0x01\n      swap1\n      sload\n      swap1\n      0x0100\n      exp\n      swap1\n      div\n      0xffffffffffffffffffffffffffffffffffffffff\n      and\n        /* \"SimpleAuction.sol\":1442:1463  auctionOwner.transfer */\n      0xffffffffffffffffffffffffffffffffffffffff\n      and\n        /* \"SimpleAuction.sol\":1442:1471  auctionOwner.transfer(topBid) */\n      0x08fc\n        /* \"SimpleAuction.sol\":1464:1470  topBid */\n      sload(0x05)\n        /* \"SimpleAuction.sol\":1442:1471  auctionOwner.transfer(topBid) */\n      swap1\n      dup2\n      iszero\n      mul\n      swap1\n      mload(0x40)\n      0x00\n      mload(0x40)\n      dup1\n      dup4\n      sub\n      dup2\n      dup6\n      dup9\n      dup9\n      call\n      swap4\n      pop\n      pop\n      pop\n      pop\n      iszero\n      dup1\n      iszero\n      tag_32\n      jumpi\n      returndatasize\n      0x00\n      dup1\n      returndatacopy\n      revert(0x00, returndatasize)\n    tag_32:\n      pop\n        /* \"SimpleAuction.sol\":1232:1478  function cancelAuction() public {... */\n      jump\t// out\n        /* \"SimpleAuction.sol\":848:1226  function placeBid() public payable{... */\n    tag_15:\n        /* \"SimpleAuction.sol\":912:924  topBidAmount */\n      sload(0x01)\n        /* \"SimpleAuction.sol\":900:909  msg.value */\n      callvalue\n        /* \"SimpleAuction.sol\":900:924  msg.value > topBidAmount */\n      gt\n        /* \"SimpleAuction.sol\":892:967  require(msg.value > topBidAmount,\"You have placed low bid than top bidder\") */\n      tag_34\n      jumpi\n      mload(0x40)\n      0x08c379a000000000000000000000000000000000000000000000000000000000\n      dup2\n      mstore\n      0x04\n      add\n      tag_35\n      swap1\n      tag_36\n      jump\t// in\n    tag_35:\n      mload(0x40)\n      dup1\n      swap2\n      sub\n      swap1\n      revert\n    tag_34:\n        /* \"SimpleAuction.sol\":999:1014  block.timestamp */\n      timestamp\n        /* \"SimpleAuction.sol\":985:996  auctionTime */\n      sload(0x03)\n        /* \"SimpleAuction.sol\":985:1014  auctionTime > block.timestamp */\n      gt\n        /* \"SimpleAuction.sol\":977:1036  require(auctionTime > block.timestamp,\"Auction time ended\") */\n      tag_37\n      jumpi\n      mload(0x40)\n      0x08c379a000000000000000000000000000000000000000000000000000000000\n      dup2\n      mstore\n      0x04\n      add\n      tag_38\n      swap1\n      tag_39\n      jump\t// in\n    tag_38:\n      mload(0x40)\n      dup1\n      swap2\n      sub\n      swap1\n      revert\n    tag_37:\n        /* \"SimpleAuction.sol\":1058:1059  0 */\n      0x00\n        /* \"SimpleAuction.sol\":1049:1055  topBid */\n      sload(0x05)\n        /* \"SimpleAuction.sol\":1049:1059  topBid !=0 */\n      eq\n        /* \"SimpleAuction.sol\":1046:1118  if(topBid !=0 ){... */\n      tag_40\n      jumpi\n        /* \"SimpleAuction.sol\":1101:1107  topBid */\n      sload(0x05)\n        /* \"SimpleAuction.sol\":1075:1089  pendingReturns */\n      0x06\n        /* \"SimpleAuction.sol\":1075:1100  pendingReturns[topBidder] */\n      0x00\n        /* \"SimpleAuction.sol\":1090:1099  topBidder */\n      0x04\n      0x00\n      swap1\n      sload\n      swap1\n      0x0100\n      exp\n      swap1\n      div\n      0xffffffffffffffffffffffffffffffffffffffff\n      and\n        /* \"SimpleAuction.sol\":1075:1100  pendingReturns[topBidder] */\n      0xffffffffffffffffffffffffffffffffffffffff\n      and\n      0xffffffffffffffffffffffffffffffffffffffff\n      and\n      dup2\n      mstore\n      0x20\n      add\n      swap1\n      dup2\n      mstore\n      0x20\n      add\n      0x00\n      keccak256\n        /* \"SimpleAuction.sol\":1075:1107  pendingReturns[topBidder]=topBid */\n      dup2\n      swap1\n      sstore\n      pop\n        /* \"SimpleAuction.sol\":1046:1118  if(topBid !=0 ){... */\n    tag_40:\n        /* \"SimpleAuction.sol\":1137:1147  msg.sender */\n      caller\n        /* \"SimpleAuction.sol\":1127:1136  topBidder */\n      0x04\n      0x00\n        /* \"SimpleAuction.sol\":1127:1147  topBidder=msg.sender */\n      0x0100\n      exp\n      dup2\n      sload\n      dup2\n      0xffffffffffffffffffffffffffffffffffffffff\n      mul\n      not\n      and\n      swap1\n      dup4\n      0xffffffffffffffffffffffffffffffffffffffff\n      and\n      mul\n      or\n      swap1\n      sstore\n      pop\n        /* \"SimpleAuction.sol\":1164:1173  msg.value */\n      callvalue\n        /* \"SimpleAuction.sol\":1157:1163  topBid */\n      0x05\n        /* \"SimpleAuction.sol\":1157:1173  topBid=msg.value */\n      dup2\n      swap1\n      sstore\n      pop\n        /* \"SimpleAuction.sol\":1188:1219  bidPlaced(msg.sender,msg.value) */\n      0xf7d2dbe81680a1f0c2b9aaeb63d4184de5c64951ba06bf1b5900341760775a22\n        /* \"SimpleAuction.sol\":1198:1208  msg.sender */\n      caller\n        /* \"SimpleAuction.sol\":1209:1218  msg.value */\n      callvalue\n        /* \"SimpleAuction.sol\":1188:1219  bidPlaced(msg.sender,msg.value) */\n      mload(0x40)\n      tag_41\n      swap3\n      swap2\n      swap1\n      tag_30\n      jump\t// in\n    tag_41:\n      mload(0x40)\n      dup1\n      swap2\n      sub\n      swap1\n      log1\n        /* \"SimpleAuction.sol\":848:1226  function placeBid() public payable{... */\n      jump\t// out\n        /* \"SimpleAuction.sol\":1483:1780  function withDrawBid() public returns(bool){... */\n    tag_18:\n        /* \"SimpleAuction.sol\":1521:1525  bool */\n      0x00\n        /* \"SimpleAuction.sol\":1536:1558  uint256 withDrawAmount */\n      dup1\n        /* \"SimpleAuction.sol\":1560:1574  pendingReturns */\n      0x06\n        /* \"SimpleAuction.sol\":1560:1586  pendingReturns[msg.sender] */\n      0x00\n        /* \"SimpleAuction.sol\":1575:1585  msg.sender */\n      caller\n        /* \"SimpleAuction.sol\":1560:1586  pendingReturns[msg.sender] */\n      0xffffffffffffffffffffffffffffffffffffffff\n      and\n      0xffffffffffffffffffffffffffffffffffffffff\n      and\n      dup2\n      mstore\n      0x20\n      add\n      swap1\n      dup2\n      mstore\n      0x20\n      add\n      0x00\n      keccak256\n      sload\n        /* \"SimpleAuction.sol\":1536:1586  uint256 withDrawAmount= pendingReturns[msg.sender] */\n      swap1\n      pop\n        /* \"SimpleAuction.sol\":1614:1615  0 */\n      0x00\n        /* \"SimpleAuction.sol\":1599:1613  withDrawAmount */\n      dup2\n        /* \"SimpleAuction.sol\":1599:1615  withDrawAmount>0 */\n      gt\n        /* \"SimpleAuction.sol\":1596:1752  if(withDrawAmount>0){... */\n      iszero\n      tag_43\n      jumpi\n        /* \"SimpleAuction.sol\":1638:1648  msg.sender */\n      caller\n        /* \"SimpleAuction.sol\":1630:1658  payable(msg.sender).transfer */\n      0xffffffffffffffffffffffffffffffffffffffff\n      and\n        /* \"SimpleAuction.sol\":1630:1674  payable(msg.sender).transfer(withDrawAmount) */\n      0x08fc\n        /* \"SimpleAuction.sol\":1659:1673  withDrawAmount */\n      dup3\n        /* \"SimpleAuction.sol\":1630:1674  payable(msg.sender).transfer(withDrawAmount) */\n      swap1\n      dup2\n      iszero\n      mul\n      swap1\n      mload(0x40)\n      0x00\n      mload(0x40)\n      dup1\n      dup4\n      sub\n      dup2\n      dup6\n      dup9\n      dup9\n      call\n      swap4\n      pop\n      pop\n      pop\n      pop\n      iszero\n      dup1\n      iszero\n      tag_45\n      jumpi\n      returndatasize\n      0x00\n      dup1\n      returndatacopy\n      revert(0x00, returndatasize)\n    tag_45:\n      pop\n        /* \"SimpleAuction.sol\":1715:1716  0 */\n      0x00\n        /* \"SimpleAuction.sol\":1688:1702  pendingReturns */\n      0x06\n        /* \"SimpleAuction.sol\":1688:1714  pendingReturns[msg.sender] */\n      0x00\n        /* \"SimpleAuction.sol\":1703:1713  msg.sender */\n      caller\n        /* \"SimpleAuction.sol\":1688:1714  pendingReturns[msg.sender] */\n      0xffffffffffffffffffffffffffffffffffffffff\n      and\n      0xffffffffffffffffffffffffffffffffffffffff\n      and\n      dup2\n      mstore\n      0x20\n      add\n      swap1\n      dup2\n      mstore\n      0x20\n      add\n      0x00\n      keccak256\n        /* \"SimpleAuction.sol\":1688:1716  pendingReturns[msg.sender]=0 */\n      dup2\n      swap1\n      sstore\n      pop\n        /* \"SimpleAuction.sol\":1737:1741  true */\n      0x01\n        /* \"SimpleAuction.sol\":1730:1741  return true */\n      swap2\n      pop\n      pop\n      jump(tag_42)\n        /* \"SimpleAuction.sol\":1596:1752  if(withDrawAmount>0){... */\n    tag_43:\n        /* \"SimpleAuction.sol\":1768:1773  false */\n      0x00\n        /* \"SimpleAuction.sol\":1761:1773  return false */\n      swap2\n      pop\n      pop\n        /* \"SimpleAuction.sol\":1483:1780  function withDrawBid() public returns(bool){... */\n    tag_42:\n      swap1\n      jump\t// out\n        /* \"#utility.yul\":88:205   */\n    tag_47:\n        /* \"#utility.yul\":197:198   */\n      0x00\n        /* \"#utility.yul\":194:195   */\n      dup1\n        /* \"#utility.yul\":187:199   */\n      revert\n        /* \"#utility.yul\":334:411   */\n    tag_49:\n        /* \"#utility.yul\":371:378   */\n      0x00\n        /* \"#utility.yul\":400:405   */\n      dup2\n        /* \"#utility.yul\":389:405   */\n      swap1\n      pop\n        /* \"#utility.yul\":334:411   */\n      swap2\n      swap1\n      pop\n      jump\t// out\n        /* \"#utility.yul\":417:539   */\n    tag_50:\n        /* \"#utility.yul\":490:514   */\n      tag_75\n        /* \"#utility.yul\":508:513   */\n      dup2\n        /* \"#utility.yul\":490:514   */\n      tag_49\n      jump\t// in\n    tag_75:\n        /* \"#utility.yul\":483:488   */\n      dup2\n        /* \"#utility.yul\":480:515   */\n      eq\n        /* \"#utility.yul\":470:533   */\n      tag_76\n      jumpi\n        /* \"#utility.yul\":529:530   */\n      0x00\n        /* \"#utility.yul\":526:527   */\n      dup1\n        /* \"#utility.yul\":519:531   */\n      revert\n        /* \"#utility.yul\":470:533   */\n    tag_76:\n        /* \"#utility.yul\":417:539   */\n      pop\n      jump\t// out\n        /* \"#utility.yul\":545:684   */\n    tag_51:\n        /* \"#utility.yul\":591:596   */\n      0x00\n        /* \"#utility.yul\":629:635   */\n      dup2\n        /* \"#utility.yul\":616:636   */\n      calldataload\n        /* \"#utility.yul\":607:636   */\n      swap1\n      pop\n        /* \"#utility.yul\":645:678   */\n      tag_78\n        /* \"#utility.yul\":672:677   */\n      dup2\n        /* \"#utility.yul\":645:678   */\n      tag_50\n      jump\t// in\n    tag_78:\n        /* \"#utility.yul\":545:684   */\n      swap3\n      swap2\n      pop\n      pop\n      jump\t// out\n        /* \"#utility.yul\":690:1164   */\n    tag_9:\n        /* \"#utility.yul\":758:764   */\n      0x00\n        /* \"#utility.yul\":766:772   */\n      dup1\n        /* \"#utility.yul\":815:817   */\n      0x40\n        /* \"#utility.yul\":803:812   */\n      dup4\n        /* \"#utility.yul\":794:801   */\n      dup6\n        /* \"#utility.yul\":790:813   */\n      sub\n        /* \"#utility.yul\":786:818   */\n      slt\n        /* \"#utility.yul\":783:902   */\n      iszero\n      tag_80\n      jumpi\n        /* \"#utility.yul\":821:900   */\n      tag_81\n      tag_47\n      jump\t// in\n    tag_81:\n        /* \"#utility.yul\":783:902   */\n    tag_80:\n        /* \"#utility.yul\":941:942   */\n      0x00\n        /* \"#utility.yul\":966:1019   */\n      tag_82\n        /* \"#utility.yul\":1011:1018   */\n      dup6\n        /* \"#utility.yul\":1002:1008   */\n      dup3\n        /* \"#utility.yul\":991:1000   */\n      dup7\n        /* \"#utility.yul\":987:1009   */\n      add\n        /* \"#utility.yul\":966:1019   */\n      tag_51\n      jump\t// in\n    tag_82:\n        /* \"#utility.yul\":956:1019   */\n      swap3\n      pop\n        /* \"#utility.yul\":912:1029   */\n      pop\n        /* \"#utility.yul\":1068:1070   */\n      0x20\n        /* \"#utility.yul\":1094:1147   */\n      tag_83\n        /* \"#utility.yul\":1139:1146   */\n      dup6\n        /* \"#utility.yul\":1130:1136   */\n      dup3\n        /* \"#utility.yul\":1119:1128   */\n      dup7\n        /* \"#utility.yul\":1115:1137   */\n      add\n        /* \"#utility.yul\":1094:1147   */\n      tag_51\n      jump\t// in\n    tag_83:\n        /* \"#utility.yul\":1084:1147   */\n      swap2\n      pop\n        /* \"#utility.yul\":1039:1157   */\n      pop\n        /* \"#utility.yul\":690:1164   */\n      swap3\n      pop\n      swap3\n      swap1\n      pop\n      jump\t// out\n        /* \"#utility.yul\":1170:1260   */\n    tag_52:\n        /* \"#utility.yul\":1204:1211   */\n      0x00\n        /* \"#utility.yul\":1247:1252   */\n      dup2\n        /* \"#utility.yul\":1240:1253   */\n      iszero\n        /* \"#utility.yul\":1233:1254   */\n      iszero\n        /* \"#utility.yul\":1222:1254   */\n      swap1\n      pop\n        /* \"#utility.yul\":1170:1260   */\n      swap2\n      swap1\n      pop\n      jump\t// out\n        /* \"#utility.yul\":1266:1375   */\n    tag_53:\n        /* \"#utility.yul\":1347:1368   */\n      tag_86\n        /* \"#utility.yul\":1362:1367   */\n      dup2\n        /* \"#utility.yul\":1347:1368   */\n      tag_52\n      jump\t// in\n    tag_86:\n        /* \"#utility.yul\":1342:1345   */\n      dup3\n        /* \"#utility.yul\":1335:1369   */\n      mstore\n        /* \"#utility.yul\":1266:1375   */\n      pop\n      pop\n      jump\t// out\n        /* \"#utility.yul\":1381:1591   */\n    tag_20:\n        /* \"#utility.yul\":1468:1472   */\n      0x00\n        /* \"#utility.yul\":1506:1508   */\n      0x20\n        /* \"#utility.yul\":1495:1504   */\n      dup3\n        /* \"#utility.yul\":1491:1509   */\n      add\n        /* \"#utility.yul\":1483:1509   */\n      swap1\n      pop\n        /* \"#utility.yul\":1519:1584   */\n      tag_88\n        /* \"#utility.yul\":1581:1582   */\n      0x00\n        /* \"#utility.yul\":1570:1579   */\n      dup4\n        /* \"#utility.yul\":1566:1583   */\n      add\n        /* \"#utility.yul\":1557:1563   */\n      dup5\n        /* \"#utility.yul\":1519:1584   */\n      tag_53\n      jump\t// in\n    tag_88:\n        /* \"#utility.yul\":1381:1591   */\n      swap3\n      swap2\n      pop\n      pop\n      jump\t// out\n        /* \"#utility.yul\":1597:1777   */\n    tag_54:\n        /* \"#utility.yul\":1645:1722   */\n      0x4e487b7100000000000000000000000000000000000000000000000000000000\n        /* \"#utility.yul\":1642:1643   */\n      0x00\n        /* \"#utility.yul\":1635:1723   */\n      mstore\n        /* \"#utility.yul\":1742:1746   */\n      0x11\n        /* \"#utility.yul\":1739:1740   */\n      0x04\n        /* \"#utility.yul\":1732:1747   */\n      mstore\n        /* \"#utility.yul\":1766:1770   */\n      0x24\n        /* \"#utility.yul\":1763:1764   */\n      0x00\n        /* \"#utility.yul\":1756:1771   */\n      revert\n        /* \"#utility.yul\":1783:2088   */\n    tag_23:\n        /* \"#utility.yul\":1823:1826   */\n      0x00\n        /* \"#utility.yul\":1842:1862   */\n      tag_91\n        /* \"#utility.yul\":1860:1861   */\n      dup3\n        /* \"#utility.yul\":1842:1862   */\n      tag_49\n      jump\t// in\n    tag_91:\n        /* \"#utility.yul\":1837:1862   */\n      swap2\n      pop\n        /* \"#utility.yul\":1876:1896   */\n      tag_92\n        /* \"#utility.yul\":1894:1895   */\n      dup4\n        /* \"#utility.yul\":1876:1896   */\n      tag_49\n      jump\t// in\n    tag_92:\n        /* \"#utility.yul\":1871:1896   */\n      swap3\n      pop\n        /* \"#utility.yul\":2030:2031   */\n      dup3\n        /* \"#utility.yul\":1962:2028   */\n      0xffffffffffffffffffffffffffffffffffffffffffffffffffffffffffffffff\n        /* \"#utility.yul\":1958:2032   */\n      sub\n        /* \"#utility.yul\":1955:1956   */\n      dup3\n        /* \"#utility.yul\":1952:2033   */\n      gt\n        /* \"#utility.yul\":1949:2056   */\n      iszero\n      tag_93\n      jumpi\n        /* \"#utility.yul\":2036:2054   */\n      tag_94\n      tag_54\n      jump\t// in\n    tag_94:\n        /* \"#utility.yul\":1949:2056   */\n    tag_93:\n        /* \"#utility.yul\":2080:2081   */\n      dup3\n        /* \"#utility.yul\":2077:2078   */\n      dup3\n        /* \"#utility.yul\":2073:2082   */\n      add\n        /* \"#utility.yul\":2066:2082   */\n      swap1\n      pop\n        /* \"#utility.yul\":1783:2088   */\n      swap3\n      swap2\n      pop\n      pop\n      jump\t// out\n        /* \"#utility.yul\":2094:2220   */\n    tag_55:\n        /* \"#utility.yul\":2131:2138   */\n      0x00\n        /* \"#utility.yul\":2171:2213   */\n      0xffffffffffffffffffffffffffffffffffffffff\n        /* \"#utility.yul\":2164:2169   */\n      dup3\n        /* \"#utility.yul\":2160:2214   */\n      and\n        /* \"#utility.yul\":2149:2214   */\n      swap1\n      pop\n        /* \"#utility.yul\":2094:2220   */\n      swap2\n      swap1\n      pop\n      jump\t// out\n        /* \"#utility.yul\":2226:2286   */\n    tag_56:\n        /* \"#utility.yul\":2254:2257   */\n      0x00\n        /* \"#utility.yul\":2275:2280   */\n      dup2\n        /* \"#utility.yul\":2268:2280   */\n      swap1\n      pop\n        /* \"#utility.yul\":2226:2286   */\n      swap2\n      swap1\n      pop\n      jump\t// out\n        /* \"#utility.yul\":2292:2434   */\n    tag_57:\n        /* \"#utility.yul\":2342:2351   */\n      0x00\n        /* \"#utility.yul\":2375:2428   */\n      tag_98\n        /* \"#utility.yul\":2393:2427   */\n      tag_99\n        /* \"#utility.yul\":2402:2426   */\n      tag_100\n        /* \"#utility.yul\":2420:2425   */\n      dup5\n        /* \"#utility.yul\":2402:2426   */\n      tag_55\n      jump\t// in\n    tag_100:\n        /* \"#utility.yul\":2393:2427   */\n      tag_56\n      jump\t// in\n    tag_99:\n        /* \"#utility.yul\":2375:2428   */\n      tag_55\n      jump\t// in\n    tag_98:\n        /* \"#utility.yul\":2362:2428   */\n      swap1\n      pop\n        /* \"#utility.yul\":2292:2434   */\n      swap2\n      swap1\n      pop\n      jump\t// out\n        /* \"#utility.yul\":2440:2566   */\n    tag_58:\n        /* \"#utility.yul\":2490:2499   */\n      0x00\n        /* \"#utility.yul\":2523:2560   */\n      tag_102\n        /* \"#utility.yul\":2554:2559   */\n      dup3\n        /* \"#utility.yul\":2523:2560   */\n      tag_57\n      jump\t// in\n    tag_102:\n        /* \"#utility.yul\":2510:2560   */\n      swap1\n      pop\n        /* \"#utility.yul\":2440:2566   */\n      swap2\n      swap1\n      pop\n      jump\t// out\n        /* \"#utility.yul\":2572:2706   */\n    tag_59:\n        /* \"#utility.yul\":2630:2639   */\n      0x00\n        /* \"#utility.yul\":2663:2700   */\n      tag_104\n        /* \"#utility.yul\":2694:2699   */\n      dup3\n        /* \"#utility.yul\":2663:2700   */\n      tag_58\n      jump\t// in\n    tag_104:\n        /* \"#utility.yul\":2650:2700   */\n      swap1\n      pop\n        /* \"#utility.yul\":2572:2706   */\n      swap2\n      swap1\n      pop\n      jump\t// out\n        /* \"#utility.yul\":2712:2859   */\n    tag_60:\n        /* \"#utility.yul\":2807:2852   */\n      tag_106\n        /* \"#utility.yul\":2846:2851   */\n      dup2\n        /* \"#utility.yul\":2807:2852   */\n      tag_59\n      jump\t// in\n    tag_106:\n        /* \"#utility.yul\":2802:2805   */\n      dup3\n        /* \"#utility.yul\":2795:2853   */\n      mstore\n        /* \"#utility.yul\":2712:2859   */\n      pop\n      pop\n      jump\t// out\n        /* \"#utility.yul\":2865:2983   */\n    tag_61:\n        /* \"#utility.yul\":2952:2976   */\n      tag_108\n        /* \"#utility.yul\":2970:2975   */\n      dup2\n        /* \"#utility.yul\":2952:2976   */\n      tag_49\n      jump\t// in\n    tag_108:\n        /* \"#utility.yul\":2947:2950   */\n      dup3\n        /* \"#utility.yul\":2940:2977   */\n      mstore\n        /* \"#utility.yul\":2865:2983   */\n      pop\n      pop\n      jump\t// out\n        /* \"#utility.yul\":2989:3337   */\n    tag_25:\n        /* \"#utility.yul\":3118:3122   */\n      0x00\n        /* \"#utility.yul\":3156:3158   */\n      0x40\n        /* \"#utility.yul\":3145:3154   */\n      dup3\n        /* \"#utility.yul\":3141:3159   */\n      add\n        /* \"#utility.yul\":3133:3159   */\n      swap1\n      pop\n        /* \"#utility.yul\":3169:3248   */\n      tag_110\n        /* \"#utility.yul\":3245:3246   */\n      0x00\n        /* \"#utility.yul\":3234:3243   */\n      dup4\n        /* \"#utility.yul\":3230:3247   */\n      add\n        /* \"#utility.yul\":3221:3227   */\n      dup6\n        /* \"#utility.yul\":3169:3248   */\n      tag_60\n      jump\t// in\n    tag_110:\n        /* \"#utility.yul\":3258:3330   */\n      tag_111\n        /* \"#utility.yul\":3326:3328   */\n      0x20\n        /* \"#utility.yul\":3315:3324   */\n      dup4\n        /* \"#utility.yul\":3311:3329   */\n      add\n        /* \"#utility.yul\":3302:3308   */\n      dup5\n        /* \"#utility.yul\":3258:3330   */\n      tag_61\n      jump\t// in\n    tag_111:\n        /* \"#utility.yul\":2989:3337   */\n      swap4\n      swap3\n      pop\n      pop\n      pop\n      jump\t// out\n        /* \"#utility.yul\":3343:3439   */\n    tag_62:\n        /* \"#utility.yul\":3380:3387   */\n      0x00\n        /* \"#utility.yul\":3409:3433   */\n      tag_113\n        /* \"#utility.yul\":3427:3432   */\n      dup3\n        /* \"#utility.yul\":3409:3433   */\n      tag_55\n      jump\t// in\n    tag_113:\n        /* \"#utility.yul\":3398:3433   */\n      swap1\n      pop\n        /* \"#utility.yul\":3343:3439   */\n      swap2\n      swap1\n      pop\n      jump\t// out\n        /* \"#utility.yul\":3445:3563   */\n    tag_63:\n        /* \"#utility.yul\":3532:3556   */\n      tag_115\n        /* \"#utility.yul\":3550:3555   */\n      dup2\n        /* \"#utility.yul\":3532:3556   */\n      tag_62\n      jump\t// in\n    tag_115:\n        /* \"#utility.yul\":3527:3530   */\n      dup3\n        /* \"#utility.yul\":3520:3557   */\n      mstore\n        /* \"#utility.yul\":3445:3563   */\n      pop\n      pop\n      jump\t// out\n        /* \"#utility.yul\":3569:3901   */\n    tag_30:\n        /* \"#utility.yul\":3690:3694   */\n      0x00\n        /* \"#utility.yul\":3728:3730   */\n      0x40\n        /* \"#utility.yul\":3717:3726   */\n      dup3\n        /* \"#utility.yul\":3713:3731   */\n      add\n        /* \"#utility.yul\":3705:3731   */\n      swap1\n      pop\n        /* \"#utility.yul\":3741:3812   */\n      tag_117\n        /* \"#utility.yul\":3809:3810   */\n      0x00\n        /* \"#utility.yul\":3798:3807   */\n      dup4\n        /* \"#utility.yul\":3794:3811   */\n      add\n        /* \"#utility.yul\":3785:3791   */\n      dup6\n        /* \"#utility.yul\":3741:3812   */\n      tag_63\n      jump\t// in\n    tag_117:\n        /* \"#utility.yul\":3822:3894   */\n      tag_118\n        /* \"#utility.yul\":3890:3892   */\n      0x20\n        /* \"#utility.yul\":3879:3888   */\n      dup4\n        /* \"#utility.yul\":3875:3893   */\n      add\n        /* \"#utility.yul\":3866:3872   */\n      dup5\n        /* \"#utility.yul\":3822:3894   */\n      tag_61\n      jump\t// in\n    tag_118:\n        /* \"#utility.yul\":3569:3901   */\n      swap4\n      swap3\n      pop\n      pop\n      pop\n      jump\t// out\n        /* \"#utility.yul\":3907:4076   */\n    tag_64:\n        /* \"#utility.yul\":3991:4002   */\n      0x00\n        /* \"#utility.yul\":4025:4031   */\n      dup3\n        /* \"#utility.yul\":4020:4023   */\n      dup3\n        /* \"#utility.yul\":4013:4032   */\n      mstore\n        /* \"#utility.yul\":4065:4069   */\n      0x20\n        /* \"#utility.yul\":4060:4063   */\n      dup3\n        /* \"#utility.yul\":4056:4070   */\n      add\n        /* \"#utility.yul\":4041:4070   */\n      swap1\n      pop\n        /* \"#utility.yul\":3907:4076   */\n      swap3\n      swap2\n      pop\n      pop\n      jump\t// out\n        /* \"#utility.yul\":4082:4308   */\n    tag_65:\n        /* \"#utility.yul\":4222:4256   */\n      0x596f75206861766520706c61636564206c6f7720626964207468616e20746f70\n        /* \"#utility.yul\":4218:4219   */\n      0x00\n        /* \"#utility.yul\":4210:4216   */\n      dup3\n        /* \"#utility.yul\":4206:4220   */\n      add\n        /* \"#utility.yul\":4199:4257   */\n      mstore\n        /* \"#utility.yul\":4291:4300   */\n      0x2062696464657200000000000000000000000000000000000000000000000000\n        /* \"#utility.yul\":4286:4288   */\n      0x20\n        /* \"#utility.yul\":4278:4284   */\n      dup3\n        /* \"#utility.yul\":4274:4289   */\n      add\n        /* \"#utility.yul\":4267:4301   */\n      mstore\n        /* \"#utility.yul\":4082:4308   */\n      pop\n      jump\t// out\n        /* \"#utility.yul\":4314:4680   */\n    tag_66:\n        /* \"#utility.yul\":4456:4459   */\n      0x00\n        /* \"#utility.yul\":4477:4544   */\n      tag_122\n        /* \"#utility.yul\":4541:4543   */\n      0x27\n        /* \"#utility.yul\":4536:4539   */\n      dup4\n        /* \"#utility.yul\":4477:4544   */\n      tag_64\n      jump\t// in\n    tag_122:\n        /* \"#utility.yul\":4470:4544   */\n      swap2\n      pop\n        /* \"#utility.yul\":4553:4646   */\n      tag_123\n        /* \"#utility.yul\":4642:4645   */\n      dup3\n        /* \"#utility.yul\":4553:4646   */\n      tag_65\n      jump\t// in\n    tag_123:\n        /* \"#utility.yul\":4671:4673   */\n      0x40\n        /* \"#utility.yul\":4666:4669   */\n      dup3\n        /* \"#utility.yul\":4662:4674   */\n      add\n        /* \"#utility.yul\":4655:4674   */\n      swap1\n      pop\n        /* \"#utility.yul\":4314:4680   */\n      swap2\n      swap1\n      pop\n      jump\t// out\n        /* \"#utility.yul\":4686:5105   */\n    tag_36:\n        /* \"#utility.yul\":4852:4856   */\n      0x00\n        /* \"#utility.yul\":4890:4892   */\n      0x20\n        /* \"#utility.yul\":4879:4888   */\n      dup3\n        /* \"#utility.yul\":4875:4893   */\n      add\n        /* \"#utility.yul\":4867:4893   */\n      swap1\n      pop\n        /* \"#utility.yul\":4939:4948   */\n      dup2\n        /* \"#utility.yul\":4933:4937   */\n      dup2\n        /* \"#utility.yul\":4929:4949   */\n      sub\n        /* \"#utility.yul\":4925:4926   */\n      0x00\n        /* \"#utility.yul\":4914:4923   */\n      dup4\n        /* \"#utility.yul\":4910:4927   */\n      add\n        /* \"#utility.yul\":4903:4950   */\n      mstore\n        /* \"#utility.yul\":4967:5098   */\n      tag_125\n        /* \"#utility.yul\":5093:5097   */\n      dup2\n        /* \"#utility.yul\":4967:5098   */\n      tag_66\n      jump\t// in\n    tag_125:\n        /* \"#utility.yul\":4959:5098   */\n      swap1\n      pop\n        /* \"#utility.yul\":4686:5105   */\n      swap2\n      swap1\n      pop\n      jump\t// out\n        /* \"#utility.yul\":5111:5279   */\n    tag_67:\n        /* \"#utility.yul\":5251:5271   */\n      0x41756374696f6e2074696d6520656e6465640000000000000000000000000000\n        /* \"#utility.yul\":5247:5248   */\n      0x00\n        /* \"#utility.yul\":5239:5245   */\n      dup3\n        /* \"#utility.yul\":5235:5249   */\n      add\n        /* \"#utility.yul\":5228:5272   */\n      mstore\n        /* \"#utility.yul\":5111:5279   */\n      pop\n      jump\t// out\n        /* \"#utility.yul\":5285:5651   */\n    tag_68:\n        /* \"#utility.yul\":5427:5430   */\n      0x00\n        /* \"#utility.yul\":5448:5515   */\n      tag_128\n        /* \"#utility.yul\":5512:5514   */\n      0x12\n        /* \"#utility.yul\":5507:5510   */\n      dup4\n        /* \"#utility.yul\":5448:5515   */\n      tag_64\n      jump\t// in\n    tag_128:\n        /* \"#utility.yul\":5441:5515   */\n      swap2\n      pop\n        /* \"#utility.yul\":5524:5617   */\n      tag_129\n        /* \"#utility.yul\":5613:5616   */\n      dup3\n        /* \"#utility.yul\":5524:5617   */\n      tag_67\n      jump\t// in\n    tag_129:\n        /* \"#utility.yul\":5642:5644   */\n      0x20\n        /* \"#utility.yul\":5637:5640   */\n      dup3\n        /* \"#utility.yul\":5633:5645   */\n      add\n        /* \"#utility.yul\":5626:5645   */\n      swap1\n      pop\n        /* \"#utility.yul\":5285:5651   */\n      swap2\n      swap1\n      pop\n      jump\t// out\n        /* \"#utility.yul\":5657:6076   */\n    tag_39:\n        /* \"#utility.yul\":5823:5827   */\n      0x00\n        /* \"#utility.yul\":5861:5863   */\n      0x20\n        /* \"#utility.yul\":5850:5859   */\n      dup3\n        /* \"#utility.yul\":5846:5864   */\n      add\n        /* \"#utility.yul\":5838:5864   */\n      swap1\n      pop\n        /* \"#utility.yul\":5910:5919   */\n      dup2\n        /* \"#utility.yul\":5904:5908   */\n      dup2\n        /* \"#utility.yul\":5900:5920   */\n      sub\n        /* \"#utility.yul\":5896:5897   */\n      0x00\n        /* \"#utility.yul\":5885:5894   */\n      dup4\n        /* \"#utility.yul\":5881:5898   */\n      add\n        /* \"#utility.yul\":5874:5921   */\n      mstore\n        /* \"#utility.yul\":5938:6069   */\n      tag_131\n        /* \"#utility.yul\":6064:6068   */\n      dup2\n        /* \"#utility.yul\":5938:6069   */\n      tag_68\n      jump\t// in\n    tag_131:\n        /* \"#utility.yul\":5930:6069   */\n      swap1\n      pop\n        /* \"#utility.yul\":5657:6076   */\n      swap2\n      swap1\n      pop\n      jump\t// out\n\n    auxdata: 0xa264697066735822122027da7671e8c8327dd34d98692d29c25aec91f93569d67c452f62071cb0cd151864736f6c63430008090033\n}\n",
				"bytecode": {
					"linkReferences": {},
					"object": "608060405260008060006101000a81548160ff021916908315150217905550600060015534801561002f57600080fd5b506108c28061003f6000396000f3fe60806040526004361061003f5760003560e01c80634fee13fc146100445780638fa8b7901461006d578063ecfc7ecc14610084578063fde8c63e1461008e575b600080fd5b34801561005057600080fd5b5061006b60048036038101906100669190610581565b6100b9565b005b34801561007957600080fd5b5061008261018e565b005b61008c6102db565b005b34801561009a57600080fd5b506100a3610459565b6040516100b091906105dc565b60405180910390f35b33600060016101000a81548173ffffffffffffffffffffffffffffffffffffffff021916908373ffffffffffffffffffffffffffffffffffffffff16021790555060008060006101000a81548160ff0219169083151502179055508160028190555080426101279190610626565b6003819055507f1e6871a9ec2c22e508757c73d7e2d7d15e2819276867174afb13fcdc9f018df2600060019054906101000a900473ffffffffffffffffffffffffffffffffffffffff1660025460405161018292919061070a565b60405180910390a15050565b600060019054906101000a900473ffffffffffffffffffffffffffffffffffffffff1673ffffffffffffffffffffffffffffffffffffffff163373ffffffffffffffffffffffffffffffffffffffff16146101e857600080fd5b6003544210156101f757600080fd5b60016000806101000a81548160ff0219169083151502179055507f0693fe466dadf29e4700c29f41d1504c602b944fa5e6b5f1cb0a3a2ca0702120600460009054906101000a900473ffffffffffffffffffffffffffffffffffffffff16600554604051610266929190610754565b60405180910390a1600060019054906101000a900473ffffffffffffffffffffffffffffffffffffffff1673ffffffffffffffffffffffffffffffffffffffff166108fc6005549081150290604051600060405180830381858888f193505050501580156102d8573d6000803e3d6000fd5b50565b600154341161031f576040517f08c379a000000000000000000000000000000000000000000000000000000000815260040161031690610800565b60405180910390fd5b4260035411610363576040517f08c379a000000000000000000000000000000000000000000000000000000000815260040161035a9061086c565b60405180910390fd5b6000600554146103d65760055460066000600460009054906101000a900473ffffffffffffffffffffffffffffffffffffffff1673ffffffffffffffffffffffffffffffffffffffff1673ffffffffffffffffffffffffffffffffffffffff168152602001908152602001600020819055505b33600460006101000a81548173ffffffffffffffffffffffffffffffffffffffff021916908373ffffffffffffffffffffffffffffffffffffffff160217905550346005819055507ff7d2dbe81680a1f0c2b9aaeb63d4184de5c64951ba06bf1b5900341760775a22333460405161044f929190610754565b60405180910390a1565b600080600660003373ffffffffffffffffffffffffffffffffffffffff1673ffffffffffffffffffffffffffffffffffffffff168152602001908152602001600020549050600081111561053d573373ffffffffffffffffffffffffffffffffffffffff166108fc829081150290604051600060405180830381858888f193505050501580156104ed573d6000803e3d6000fd5b506000600660003373ffffffffffffffffffffffffffffffffffffffff1673ffffffffffffffffffffffffffffffffffffffff168152602001908152602001600020819055506001915050610543565b60009150505b90565b600080fd5b6000819050919050565b61055e8161054b565b811461056957600080fd5b50565b60008135905061057b81610555565b92915050565b6000806040838503121561059857610597610546565b5b60006105a68582860161056c565b92505060206105b78582860161056c565b9150509250929050565b60008115159050919050565b6105d6816105c1565b82525050565b60006020820190506105f160008301846105cd565b92915050565b7f4e487b7100000000000000000000000000000000000000000000000000000000600052601160045260246000fd5b60006106318261054b565b915061063c8361054b565b9250827fffffffffffffffffffffffffffffffffffffffffffffffffffffffffffffffff03821115610671576106706105f7565b5b828201905092915050565b600073ffffffffffffffffffffffffffffffffffffffff82169050919050565b6000819050919050565b60006106c16106bc6106b78461067c565b61069c565b61067c565b9050919050565b60006106d3826106a6565b9050919050565b60006106e5826106c8565b9050919050565b6106f5816106da565b82525050565b6107048161054b565b82525050565b600060408201905061071f60008301856106ec565b61072c60208301846106fb565b9392505050565b600061073e8261067c565b9050919050565b61074e81610733565b82525050565b60006040820190506107696000830185610745565b61077660208301846106fb565b9392505050565b600082825260208201905092915050565b7f596f75206861766520706c61636564206c6f7720626964207468616e20746f7060008201527f2062696464657200000000000000000000000000000000000000000000000000602082015250565b60006107ea60278361077d565b91506107f58261078e565b604082019050919050565b60006020820190508181036000830152610819816107dd565b9050919050565b7f41756374696f6e2074696d6520656e6465640000000000000000000000000000600082015250565b600061085660128361077d565b915061086182610820565b602082019050919050565b6000602082019050818103600083015261088581610849565b905091905056fea264697066735822122027da7671e8c8327dd34d98692d29c25aec91f93569d67c452f62071cb0cd151864736f6c63430008090033",
					"opcodes": "PUSH1 0x80 PUSH1 0x40 MSTORE PUSH1 0x0 DUP1 PUSH1 0x0 PUSH2 0x100 EXP DUP2 SLOAD DUP2 PUSH1 0xFF MUL NOT AND SWAP1 DUP4 ISZERO ISZERO MUL OR SWAP1 SSTORE POP PUSH1 0x0 PUSH1 0x1 SSTORE CALLVALUE DUP1 ISZERO PUSH2 0x2F JUMPI PUSH1 0x0 DUP1 REVERT JUMPDEST POP PUSH2 0x8C2 DUP1 PUSH2 0x3F PUSH1 0x0 CODECOPY PUSH1 0x0 RETURN INVALID PUSH1 0x80 PUSH1 0x40 MSTORE PUSH1 0x4 CALLDATASIZE LT PUSH2 0x3F JUMPI PUSH1 0x0 CALLDATALOAD PUSH1 0xE0 SHR DUP1 PUSH4 0x4FEE13FC EQ PUSH2 0x44 JUMPI DUP1 PUSH4 0x8FA8B790 EQ PUSH2 0x6D JUMPI DUP1 PUSH4 0xECFC7ECC EQ PUSH2 0x84 JUMPI DUP1 PUSH4 0xFDE8C63E EQ PUSH2 0x8E JUMPI JUMPDEST PUSH1 0x0 DUP1 REVERT JUMPDEST CALLVALUE DUP1 ISZERO PUSH2 0x50 JUMPI PUSH1 0x0 DUP1 REVERT JUMPDEST POP PUSH2 0x6B PUSH1 0x4 DUP1 CALLDATASIZE SUB DUP2 ADD SWAP1 PUSH2 0x66 SWAP2 SWAP1 PUSH2 0x581 JUMP JUMPDEST PUSH2 0xB9 JUMP JUMPDEST STOP JUMPDEST CALLVALUE DUP1 ISZERO PUSH2 0x79 JUMPI PUSH1 0x0 DUP1 REVERT JUMPDEST POP PUSH2 0x82 PUSH2 0x18E JUMP JUMPDEST STOP JUMPDEST PUSH2 0x8C PUSH2 0x2DB JUMP JUMPDEST STOP JUMPDEST CALLVALUE DUP1 ISZERO PUSH2 0x9A JUMPI PUSH1 0x0 DUP1 REVERT JUMPDEST POP PUSH2 0xA3 PUSH2 0x459 JUMP JUMPDEST PUSH1 0x40 MLOAD PUSH2 0xB0 SWAP2 SWAP1 PUSH2 0x5DC JUMP JUMPDEST PUSH1 0x40 MLOAD DUP1 SWAP2 SUB SWAP1 RETURN JUMPDEST CALLER PUSH1 0x0 PUSH1 0x1 PUSH2 0x100 EXP DUP2 SLOAD DUP2 PUSH20 0xFFFFFFFFFFFFFFFFFFFFFFFFFFFFFFFFFFFFFFFF MUL NOT AND SWAP1 DUP4 PUSH20 0xFFFFFFFFFFFFFFFFFFFFFFFFFFFFFFFFFFFFFFFF AND MUL OR SWAP1 SSTORE POP PUSH1 0x0 DUP1 PUSH1 0x0 PUSH2 0x100 EXP DUP2 SLOAD DUP2 PUSH1 0xFF MUL NOT AND SWAP1 DUP4 ISZERO ISZERO MUL OR SWAP1 SSTORE POP DUP2 PUSH1 0x2 DUP2 SWAP1 SSTORE POP DUP1 TIMESTAMP PUSH2 0x127 SWAP2 SWAP1 PUSH2 0x626 JUMP JUMPDEST PUSH1 0x3 DUP2 SWAP1 SSTORE POP PUSH32 0x1E6871A9EC2C22E508757C73D7E2D7D15E2819276867174AFB13FCDC9F018DF2 PUSH1 0x0 PUSH1 0x1 SWAP1 SLOAD SWAP1 PUSH2 0x100 EXP SWAP1 DIV PUSH20 0xFFFFFFFFFFFFFFFFFFFFFFFFFFFFFFFFFFFFFFFF AND PUSH1 0x2 SLOAD PUSH1 0x40 MLOAD PUSH2 0x182 SWAP3 SWAP2 SWAP1 PUSH2 0x70A JUMP JUMPDEST PUSH1 0x40 MLOAD DUP1 SWAP2 SUB SWAP1 LOG1 POP POP JUMP JUMPDEST PUSH1 0x0 PUSH1 0x1 SWAP1 SLOAD SWAP1 PUSH2 0x100 EXP SWAP1 DIV PUSH20 0xFFFFFFFFFFFFFFFFFFFFFFFFFFFFFFFFFFFFFFFF AND PUSH20 0xFFFFFFFFFFFFFFFFFFFFFFFFFFFFFFFFFFFFFFFF AND CALLER PUSH20 0xFFFFFFFFFFFFFFFFFFFFFFFFFFFFFFFFFFFFFFFF AND EQ PUSH2 0x1E8 JUMPI PUSH1 0x0 DUP1 REVERT JUMPDEST PUSH1 0x3 SLOAD TIMESTAMP LT ISZERO PUSH2 0x1F7 JUMPI PUSH1 0x0 DUP1 REVERT JUMPDEST PUSH1 0x1 PUSH1 0x0 DUP1 PUSH2 0x100 EXP DUP2 SLOAD DUP2 PUSH1 0xFF MUL NOT AND SWAP1 DUP4 ISZERO ISZERO MUL OR SWAP1 SSTORE POP PUSH32 0x693FE466DADF29E4700C29F41D1504C602B944FA5E6B5F1CB0A3A2CA0702120 PUSH1 0x4 PUSH1 0x0 SWAP1 SLOAD SWAP1 PUSH2 0x100 EXP SWAP1 DIV PUSH20 0xFFFFFFFFFFFFFFFFFFFFFFFFFFFFFFFFFFFFFFFF AND PUSH1 0x5 SLOAD PUSH1 0x40 MLOAD PUSH2 0x266 SWAP3 SWAP2 SWAP1 PUSH2 0x754 JUMP JUMPDEST PUSH1 0x40 MLOAD DUP1 SWAP2 SUB SWAP1 LOG1 PUSH1 0x0 PUSH1 0x1 SWAP1 SLOAD SWAP1 PUSH2 0x100 EXP SWAP1 DIV PUSH20 0xFFFFFFFFFFFFFFFFFFFFFFFFFFFFFFFFFFFFFFFF AND PUSH20 0xFFFFFFFFFFFFFFFFFFFFFFFFFFFFFFFFFFFFFFFF AND PUSH2 0x8FC PUSH1 0x5 SLOAD SWAP1 DUP2 ISZERO MUL SWAP1 PUSH1 0x40 MLOAD PUSH1 0x0 PUSH1 0x40 MLOAD DUP1 DUP4 SUB DUP2 DUP6 DUP9 DUP9 CALL SWAP4 POP POP POP POP ISZERO DUP1 ISZERO PUSH2 0x2D8 JUMPI RETURNDATASIZE PUSH1 0x0 DUP1 RETURNDATACOPY RETURNDATASIZE PUSH1 0x0 REVERT JUMPDEST POP JUMP JUMPDEST PUSH1 0x1 SLOAD CALLVALUE GT PUSH2 0x31F JUMPI PUSH1 0x40 MLOAD PUSH32 0x8C379A000000000000000000000000000000000000000000000000000000000 DUP2 MSTORE PUSH1 0x4 ADD PUSH2 0x316 SWAP1 PUSH2 0x800 JUMP JUMPDEST PUSH1 0x40 MLOAD DUP1 SWAP2 SUB SWAP1 REVERT JUMPDEST TIMESTAMP PUSH1 0x3 SLOAD GT PUSH2 0x363 JUMPI PUSH1 0x40 MLOAD PUSH32 0x8C379A000000000000000000000000000000000000000000000000000000000 DUP2 MSTORE PUSH1 0x4 ADD PUSH2 0x35A SWAP1 PUSH2 0x86C JUMP JUMPDEST PUSH1 0x40 MLOAD DUP1 SWAP2 SUB SWAP1 REVERT JUMPDEST PUSH1 0x0 PUSH1 0x5 SLOAD EQ PUSH2 0x3D6 JUMPI PUSH1 0x5 SLOAD PUSH1 0x6 PUSH1 0x0 PUSH1 0x4 PUSH1 0x0 SWAP1 SLOAD SWAP1 PUSH2 0x100 EXP SWAP1 DIV PUSH20 0xFFFFFFFFFFFFFFFFFFFFFFFFFFFFFFFFFFFFFFFF AND PUSH20 0xFFFFFFFFFFFFFFFFFFFFFFFFFFFFFFFFFFFFFFFF AND PUSH20 0xFFFFFFFFFFFFFFFFFFFFFFFFFFFFFFFFFFFFFFFF AND DUP2 MSTORE PUSH1 0x20 ADD SWAP1 DUP2 MSTORE PUSH1 0x20 ADD PUSH1 0x0 KECCAK256 DUP2 SWAP1 SSTORE POP JUMPDEST CALLER PUSH1 0x4 PUSH1 0x0 PUSH2 0x100 EXP DUP2 SLOAD DUP2 PUSH20 0xFFFFFFFFFFFFFFFFFFFFFFFFFFFFFFFFFFFFFFFF MUL NOT AND SWAP1 DUP4 PUSH20 0xFFFFFFFFFFFFFFFFFFFFFFFFFFFFFFFFFFFFFFFF AND MUL OR SWAP1 SSTORE POP CALLVALUE PUSH1 0x5 DUP2 SWAP1 SSTORE POP PUSH32 0xF7D2DBE81680A1F0C2B9AAEB63D4184DE5C64951BA06BF1B5900341760775A22 CALLER CALLVALUE PUSH1 0x40 MLOAD PUSH2 0x44F SWAP3 SWAP2 SWAP1 PUSH2 0x754 JUMP JUMPDEST PUSH1 0x40 MLOAD DUP1 SWAP2 SUB SWAP1 LOG1 JUMP JUMPDEST PUSH1 0x0 DUP1 PUSH1 0x6 PUSH1 0x0 CALLER PUSH20 0xFFFFFFFFFFFFFFFFFFFFFFFFFFFFFFFFFFFFFFFF AND PUSH20 0xFFFFFFFFFFFFFFFFFFFFFFFFFFFFFFFFFFFFFFFF AND DUP2 MSTORE PUSH1 0x20 ADD SWAP1 DUP2 MSTORE PUSH1 0x20 ADD PUSH1 0x0 KECCAK256 SLOAD SWAP1 POP PUSH1 0x0 DUP2 GT ISZERO PUSH2 0x53D JUMPI CALLER PUSH20 0xFFFFFFFFFFFFFFFFFFFFFFFFFFFFFFFFFFFFFFFF AND PUSH2 0x8FC DUP3 SWAP1 DUP2 ISZERO MUL SWAP1 PUSH1 0x40 MLOAD PUSH1 0x0 PUSH1 0x40 MLOAD DUP1 DUP4 SUB DUP2 DUP6 DUP9 DUP9 CALL SWAP4 POP POP POP POP ISZERO DUP1 ISZERO PUSH2 0x4ED JUMPI RETURNDATASIZE PUSH1 0x0 DUP1 RETURNDATACOPY RETURNDATASIZE PUSH1 0x0 REVERT JUMPDEST POP PUSH1 0x0 PUSH1 0x6 PUSH1 0x0 CALLER PUSH20 0xFFFFFFFFFFFFFFFFFFFFFFFFFFFFFFFFFFFFFFFF AND PUSH20 0xFFFFFFFFFFFFFFFFFFFFFFFFFFFFFFFFFFFFFFFF AND DUP2 MSTORE PUSH1 0x20 ADD SWAP1 DUP2 MSTORE PUSH1 0x20 ADD PUSH1 0x0 KECCAK256 DUP2 SWAP1 SSTORE POP PUSH1 0x1 SWAP2 POP POP PUSH2 0x543 JUMP JUMPDEST PUSH1 0x0 SWAP2 POP POP JUMPDEST SWAP1 JUMP JUMPDEST PUSH1 0x0 DUP1 REVERT JUMPDEST PUSH1 0x0 DUP2 SWAP1 POP SWAP2 SWAP1 POP JUMP JUMPDEST PUSH2 0x55E DUP2 PUSH2 0x54B JUMP JUMPDEST DUP2 EQ PUSH2 0x569 JUMPI PUSH1 0x0 DUP1 REVERT JUMPDEST POP JUMP JUMPDEST PUSH1 0x0 DUP2 CALLDATALOAD SWAP1 POP PUSH2 0x57B DUP2 PUSH2 0x555 JUMP JUMPDEST SWAP3 SWAP2 POP POP JUMP JUMPDEST PUSH1 0x0 DUP1 PUSH1 0x40 DUP4 DUP6 SUB SLT ISZERO PUSH2 0x598 JUMPI PUSH2 0x597 PUSH2 0x546 JUMP JUMPDEST JUMPDEST PUSH1 0x0 PUSH2 0x5A6 DUP6 DUP3 DUP7 ADD PUSH2 0x56C JUMP JUMPDEST SWAP3 POP POP PUSH1 0x20 PUSH2 0x5B7 DUP6 DUP3 DUP7 ADD PUSH2 0x56C JUMP JUMPDEST SWAP2 POP POP SWAP3 POP SWAP3 SWAP1 POP JUMP JUMPDEST PUSH1 0x0 DUP2 ISZERO ISZERO SWAP1 POP SWAP2 SWAP1 POP JUMP JUMPDEST PUSH2 0x5D6 DUP2 PUSH2 0x5C1 JUMP JUMPDEST DUP3 MSTORE POP POP JUMP JUMPDEST PUSH1 0x0 PUSH1 0x20 DUP3 ADD SWAP1 POP PUSH2 0x5F1 PUSH1 0x0 DUP4 ADD DUP5 PUSH2 0x5CD JUMP JUMPDEST SWAP3 SWAP2 POP POP JUMP JUMPDEST PUSH32 0x4E487B7100000000000000000000000000000000000000000000000000000000 PUSH1 0x0 MSTORE PUSH1 0x11 PUSH1 0x4 MSTORE PUSH1 0x24 PUSH1 0x0 REVERT JUMPDEST PUSH1 0x0 PUSH2 0x631 DUP3 PUSH2 0x54B JUMP JUMPDEST SWAP2 POP PUSH2 0x63C DUP4 PUSH2 0x54B JUMP JUMPDEST SWAP3 POP DUP3 PUSH32 0xFFFFFFFFFFFFFFFFFFFFFFFFFFFFFFFFFFFFFFFFFFFFFFFFFFFFFFFFFFFFFFFF SUB DUP3 GT ISZERO PUSH2 0x671 JUMPI PUSH2 0x670 PUSH2 0x5F7 JUMP JUMPDEST JUMPDEST DUP3 DUP3 ADD SWAP1 POP SWAP3 SWAP2 POP POP JUMP JUMPDEST PUSH1 0x0 PUSH20 0xFFFFFFFFFFFFFFFFFFFFFFFFFFFFFFFFFFFFFFFF DUP3 AND SWAP1 POP SWAP2 SWAP1 POP JUMP JUMPDEST PUSH1 0x0 DUP2 SWAP1 POP SWAP2 SWAP1 POP JUMP JUMPDEST PUSH1 0x0 PUSH2 0x6C1 PUSH2 0x6BC PUSH2 0x6B7 DUP5 PUSH2 0x67C JUMP JUMPDEST PUSH2 0x69C JUMP JUMPDEST PUSH2 0x67C JUMP JUMPDEST SWAP1 POP SWAP2 SWAP1 POP JUMP JUMPDEST PUSH1 0x0 PUSH2 0x6D3 DUP3 PUSH2 0x6A6 JUMP JUMPDEST SWAP1 POP SWAP2 SWAP1 POP JUMP JUMPDEST PUSH1 0x0 PUSH2 0x6E5 DUP3 PUSH2 0x6C8 JUMP JUMPDEST SWAP1 POP SWAP2 SWAP1 POP JUMP JUMPDEST PUSH2 0x6F5 DUP2 PUSH2 0x6DA JUMP JUMPDEST DUP3 MSTORE POP POP JUMP JUMPDEST PUSH2 0x704 DUP2 PUSH2 0x54B JUMP JUMPDEST DUP3 MSTORE POP POP JUMP JUMPDEST PUSH1 0x0 PUSH1 0x40 DUP3 ADD SWAP1 POP PUSH2 0x71F PUSH1 0x0 DUP4 ADD DUP6 PUSH2 0x6EC JUMP JUMPDEST PUSH2 0x72C PUSH1 0x20 DUP4 ADD DUP5 PUSH2 0x6FB JUMP JUMPDEST SWAP4 SWAP3 POP POP POP JUMP JUMPDEST PUSH1 0x0 PUSH2 0x73E DUP3 PUSH2 0x67C JUMP JUMPDEST SWAP1 POP SWAP2 SWAP1 POP JUMP JUMPDEST PUSH2 0x74E DUP2 PUSH2 0x733 JUMP JUMPDEST DUP3 MSTORE POP POP JUMP JUMPDEST PUSH1 0x0 PUSH1 0x40 DUP3 ADD SWAP1 POP PUSH2 0x769 PUSH1 0x0 DUP4 ADD DUP6 PUSH2 0x745 JUMP JUMPDEST PUSH2 0x776 PUSH1 0x20 DUP4 ADD DUP5 PUSH2 0x6FB JUMP JUMPDEST SWAP4 SWAP3 POP POP POP JUMP JUMPDEST PUSH1 0x0 DUP3 DUP3 MSTORE PUSH1 0x20 DUP3 ADD SWAP1 POP SWAP3 SWAP2 POP POP JUMP JUMPDEST PUSH32 0x596F75206861766520706C61636564206C6F7720626964207468616E20746F70 PUSH1 0x0 DUP3 ADD MSTORE PUSH32 0x2062696464657200000000000000000000000000000000000000000000000000 PUSH1 0x20 DUP3 ADD MSTORE POP JUMP JUMPDEST PUSH1 0x0 PUSH2 0x7EA PUSH1 0x27 DUP4 PUSH2 0x77D JUMP JUMPDEST SWAP2 POP PUSH2 0x7F5 DUP3 PUSH2 0x78E JUMP JUMPDEST PUSH1 0x40 DUP3 ADD SWAP1 POP SWAP2 SWAP1 POP JUMP JUMPDEST PUSH1 0x0 PUSH1 0x20 DUP3 ADD SWAP1 POP DUP2 DUP2 SUB PUSH1 0x0 DUP4 ADD MSTORE PUSH2 0x819 DUP2 PUSH2 0x7DD JUMP JUMPDEST SWAP1 POP SWAP2 SWAP1 POP JUMP JUMPDEST PUSH32 0x41756374696F6E2074696D6520656E6465640000000000000000000000000000 PUSH1 0x0 DUP3 ADD MSTORE POP JUMP JUMPDEST PUSH1 0x0 PUSH2 0x856 PUSH1 0x12 DUP4 PUSH2 0x77D JUMP JUMPDEST SWAP2 POP PUSH2 0x861 DUP3 PUSH2 0x820 JUMP JUMPDEST PUSH1 0x20 DUP3 ADD SWAP1 POP SWAP2 SWAP1 POP JUMP JUMPDEST PUSH1 0x0 PUSH1 0x20 DUP3 ADD SWAP1 POP DUP2 DUP2 SUB PUSH1 0x0 DUP4 ADD MSTORE PUSH2 0x885 DUP2 PUSH2 0x849 JUMP JUMPDEST SWAP1 POP SWAP2 SWAP1 POP JUMP INVALID LOG2 PUSH5 0x6970667358 0x22 SLT KECCAK256 0x27 0xDA PUSH23 0x71E8C8327DD34D98692D29C25AEC91F93569D67C452F62 SMOD SHR 0xB0 0xCD ISZERO XOR PUSH5 0x736F6C6343 STOP ADDMOD MULMOD STOP CALLER "
				},
				"gasEstimates": {
					"creation": {
						"codeDepositCost": "448400",
						"executionCost": "29759",
						"totalCost": "478159"
					},
					"external": {
						"cancelAuction()": "infinite",
						"placeBid()": "80925",
						"startAuction(uint256,uint256)": "infinite",
						"withDrawBid()": "infinite"
					}
				},
				"methodIdentifiers": {
					"cancelAuction()": "8fa8b790",
					"placeBid()": "ecfc7ecc",
					"startAuction(uint256,uint256)": "4fee13fc",
					"withDrawBid()": "fde8c63e"
				}
			},
			"storageLayout": {
				"storage": [
					{
						"astId": 4,
						"contract": "SimpleAuction.sol:simpleAuction",
						"label": "AuctionClosed",
						"offset": 0,
						"slot": "0",
						"type": "t_bool"
					},
					{
						"astId": 6,
						"contract": "SimpleAuction.sol:simpleAuction",
						"label": "auctionOwner",
						"offset": 1,
						"slot": "0",
						"type": "t_address_payable"
					},
					{
						"astId": 9,
						"contract": "SimpleAuction.sol:simpleAuction",
						"label": "topBidAmount",
						"offset": 0,
						"slot": "1",
						"type": "t_uint256"
					},
					{
						"astId": 11,
						"contract": "SimpleAuction.sol:simpleAuction",
						"label": "auctionStartPrice",
						"offset": 0,
						"slot": "2",
						"type": "t_uint256"
					},
					{
						"astId": 13,
						"contract": "SimpleAuction.sol:simpleAuction",
						"label": "auctionTime",
						"offset": 0,
						"slot": "3",
						"type": "t_uint256"
					},
					{
						"astId": 15,
						"contract": "SimpleAuction.sol:simpleAuction",
						"label": "topBidder",
						"offset": 0,
						"slot": "4",
						"type": "t_address"
					},
					{
						"astId": 17,
						"contract": "SimpleAuction.sol:simpleAuction",
						"label": "topBid",
						"offset": 0,
						"slot": "5",
						"type": "t_uint256"
					},
					{
						"astId": 21,
						"contract": "SimpleAuction.sol:simpleAuction",
						"label": "pendingReturns",
						"offset": 0,
						"slot": "6",
						"type": "t_mapping(t_address,t_uint256)"
					}
				],
				"types": {
					"t_address": {
						"encoding": "inplace",
						"label": "address",
						"numberOfBytes": "20"
					},
					"t_address_payable": {
						"encoding": "inplace",
						"label": "address payable",
						"numberOfBytes": "20"
					},
					"t_bool": {
						"encoding": "inplace",
						"label": "bool",
						"numberOfBytes": "1"
					},
					"t_mapping(t_address,t_uint256)": {
						"encoding": "mapping",
						"key": "t_address",
						"label": "mapping(address => uint256)",
						"numberOfBytes": "32",
						"value": "t_uint256"
					},
					"t_uint256": {
						"encoding": "inplace",
						"label": "uint256",
						"numberOfBytes": "32"
					}
				}
			},
			"userdoc": {
				"kind": "user",
				"methods": {},
				"version": 1
			}
		}
	}
}