{
	"PetSanctuary.sol": {
		"PetSanctuary": {
			"abi": [
				{
					"inputs": [],
					"stateMutability": "nonpayable",
					"type": "constructor"
				},
				{
					"inputs": [
						{
							"internalType": "enum PetSanctuary.AnimalKind",
							"name": "_animalKind",
							"type": "uint8"
						},
						{
							"internalType": "uint256",
							"name": "_howManyPieces",
							"type": "uint256"
						}
					],
					"name": "add",
					"outputs": [],
					"stateMutability": "nonpayable",
					"type": "function"
				},
				{
					"inputs": [],
					"name": "animalKind",
					"outputs": [
						{
							"internalType": "enum PetSanctuary.AnimalKind",
							"name": "",
							"type": "uint8"
						}
					],
					"stateMutability": "view",
					"type": "function"
				},
				{
					"inputs": [
						{
							"internalType": "enum PetSanctuary.AnimalKind",
							"name": "",
							"type": "uint8"
						}
					],
					"name": "animals",
					"outputs": [
						{
							"internalType": "uint256",
							"name": "",
							"type": "uint256"
						}
					],
					"stateMutability": "view",
					"type": "function"
				},
				{
					"inputs": [
						{
							"internalType": "uint256",
							"name": "personAge",
							"type": "uint256"
						},
						{
							"internalType": "string",
							"name": "_personGender",
							"type": "string"
						},
						{
							"internalType": "enum PetSanctuary.AnimalKind",
							"name": "_animalKind",
							"type": "uint8"
						}
					],
					"name": "buy",
					"outputs": [],
					"stateMutability": "nonpayable",
					"type": "function"
				},
				{
					"inputs": [],
					"name": "owner",
					"outputs": [
						{
							"internalType": "address",
							"name": "",
							"type": "address"
						}
					],
					"stateMutability": "view",
					"type": "function"
				}
			],
			"devdoc": {
				"kind": "dev",
				"methods": {},
				"version": 1
			},
			"evm": {
				"assembly": "    /* \"PetSanctuary.sol\":168:1174  contract PetSanctuary{... */\n  mstore(0x40, 0x80)\n    /* \"PetSanctuary.sol\":436:482  constructor(){... */\n  callvalue\n  dup1\n  iszero\n  tag_1\n  jumpi\n  0x00\n  dup1\n  revert\ntag_1:\n  pop\n    /* \"PetSanctuary.sol\":465:475  msg.sender */\n  caller\n    /* \"PetSanctuary.sol\":459:464  owner */\n  0x00\n  0x01\n    /* \"PetSanctuary.sol\":459:475  owner=msg.sender */\n  0x0100\n  exp\n  dup2\n  sload\n  dup2\n  0xffffffffffffffffffffffffffffffffffffffff\n  mul\n  not\n  and\n  swap1\n  dup4\n  0xffffffffffffffffffffffffffffffffffffffff\n  and\n  mul\n  or\n  swap1\n  sstore\n  pop\n    /* \"PetSanctuary.sol\":168:1174  contract PetSanctuary{... */\n  dataSize(sub_0)\n  dup1\n  dataOffset(sub_0)\n  0x00\n  codecopy\n  0x00\n  return\nstop\n\nsub_0: assembly {\n        /* \"PetSanctuary.sol\":168:1174  contract PetSanctuary{... */\n      mstore(0x40, 0x80)\n      callvalue\n      dup1\n      iszero\n      tag_1\n      jumpi\n      0x00\n      dup1\n      revert\n    tag_1:\n      pop\n      jumpi(tag_2, lt(calldatasize, 0x04))\n      shr(0xe0, calldataload(0x00))\n      dup1\n      0x07f93f17\n      eq\n      tag_3\n      jumpi\n      dup1\n      0x1b54ac80\n      eq\n      tag_4\n      jumpi\n      dup1\n      0x2b23461f\n      eq\n      tag_5\n      jumpi\n      dup1\n      0x8da5cb5b\n      eq\n      tag_6\n      jumpi\n      dup1\n      0xec73cab5\n      eq\n      tag_7\n      jumpi\n    tag_2:\n      0x00\n      dup1\n      revert\n        /* \"PetSanctuary.sol\":735:1172  function buy(uint256 personAge,string memory _personGender, AnimalKind _animalKind) public {... */\n    tag_3:\n      tag_8\n      0x04\n      dup1\n      calldatasize\n      sub\n      dup2\n      add\n      swap1\n      tag_9\n      swap2\n      swap1\n      tag_10\n      jump\t// in\n    tag_9:\n      tag_11\n      jump\t// in\n    tag_8:\n      stop\n        /* \"PetSanctuary.sol\":600:730  function add(AnimalKind _animalKind, uint256 _howManyPieces) onlyOwner public {... */\n    tag_4:\n      tag_12\n      0x04\n      dup1\n      calldatasize\n      sub\n      dup2\n      add\n      swap1\n      tag_13\n      swap2\n      swap1\n      tag_14\n      jump\t// in\n    tag_13:\n      tag_15\n      jump\t// in\n    tag_12:\n      stop\n        /* \"PetSanctuary.sol\":305:350  mapping(AnimalKind => uint256) public animals */\n    tag_5:\n      tag_16\n      0x04\n      dup1\n      calldatasize\n      sub\n      dup2\n      add\n      swap1\n      tag_17\n      swap2\n      swap1\n      tag_18\n      jump\t// in\n    tag_17:\n      tag_19\n      jump\t// in\n    tag_16:\n      mload(0x40)\n      tag_20\n      swap2\n      swap1\n      tag_21\n      jump\t// in\n    tag_20:\n      mload(0x40)\n      dup1\n      swap2\n      sub\n      swap1\n      return\n        /* \"PetSanctuary.sol\":279:299  address public owner */\n    tag_6:\n      tag_22\n      tag_23\n      jump\t// in\n    tag_22:\n      mload(0x40)\n      tag_24\n      swap2\n      swap1\n      tag_25\n      jump\t// in\n    tag_24:\n      mload(0x40)\n      dup1\n      swap2\n      sub\n      swap1\n      return\n        /* \"PetSanctuary.sol\":244:273  AnimalKind public  animalKind */\n    tag_7:\n      tag_26\n      tag_27\n      jump\t// in\n    tag_26:\n      mload(0x40)\n      tag_28\n      swap2\n      swap1\n      tag_29\n      jump\t// in\n    tag_28:\n      mload(0x40)\n      dup1\n      swap2\n      sub\n      swap1\n      return\n        /* \"PetSanctuary.sol\":735:1172  function buy(uint256 personAge,string memory _personGender, AnimalKind _animalKind) public {... */\n    tag_11:\n        /* \"PetSanctuary.sol\":869:873  true */\n      0x01\n        /* \"PetSanctuary.sol\":844:873  buyStatus[msg.sender] != true */\n      iszero\n      iszero\n        /* \"PetSanctuary.sol\":844:853  buyStatus */\n      0x02\n        /* \"PetSanctuary.sol\":844:865  buyStatus[msg.sender] */\n      0x00\n        /* \"PetSanctuary.sol\":854:864  msg.sender */\n      caller\n        /* \"PetSanctuary.sol\":844:865  buyStatus[msg.sender] */\n      0xffffffffffffffffffffffffffffffffffffffff\n      and\n      0xffffffffffffffffffffffffffffffffffffffff\n      and\n      dup2\n      mstore\n      0x20\n      add\n      swap1\n      dup2\n      mstore\n      0x20\n      add\n      0x00\n      keccak256\n      0x00\n      swap1\n      sload\n      swap1\n      0x0100\n      exp\n      swap1\n      div\n      0xff\n      and\n        /* \"PetSanctuary.sol\":844:873  buyStatus[msg.sender] != true */\n      iszero\n      iszero\n      eq\n      iszero\n        /* \"PetSanctuary.sol\":836:914  require(buyStatus[msg.sender] != true, 'You already have borrowed the animal') */\n      tag_31\n      jumpi\n      mload(0x40)\n      0x08c379a000000000000000000000000000000000000000000000000000000000\n      dup2\n      mstore\n      0x04\n      add\n      tag_32\n      swap1\n      tag_33\n      jump\t// in\n    tag_32:\n      mload(0x40)\n      dup1\n      swap2\n      sub\n      swap1\n      revert\n    tag_31:\n        /* \"PetSanctuary.sol\":972:985  bytes(\"Male\") */\n      mload(0x40)\n      dup1\n      0x40\n      add\n      0x40\n      mstore\n      dup1\n      0x04\n      dup2\n      mstore\n      0x20\n      add\n      0x4d616c6500000000000000000000000000000000000000000000000000000000\n      dup2\n      mstore\n      pop\n        /* \"PetSanctuary.sol\":962:986  keccak256(bytes(\"Male\")) */\n      dup1\n      mload\n      swap1\n      0x20\n      add\n      keccak256\n        /* \"PetSanctuary.sol\":943:956  _personGender */\n      dup3\n        /* \"PetSanctuary.sol\":927:958  keccak256(bytes(_personGender)) */\n      dup1\n      mload\n      swap1\n      0x20\n      add\n      keccak256\n        /* \"PetSanctuary.sol\":927:986  keccak256(bytes(_personGender)) == keccak256(bytes(\"Male\")) */\n      eq\n        /* \"PetSanctuary.sol\":924:1166  if(keccak256(bytes(_personGender)) == keccak256(bytes(\"Male\"))){... */\n      iszero\n      tag_34\n      jumpi\n        /* \"PetSanctuary.sol\":1024:1038  AnimalKind.Dog */\n      0x02\n        /* \"PetSanctuary.sol\":1009:1038  _animalKind == AnimalKind.Dog */\n      0x04\n      dup2\n      gt\n      iszero\n      tag_35\n      jumpi\n      tag_36\n      tag_37\n      jump\t// in\n    tag_36:\n    tag_35:\n        /* \"PetSanctuary.sol\":1009:1020  _animalKind */\n      dup2\n        /* \"PetSanctuary.sol\":1009:1038  _animalKind == AnimalKind.Dog */\n      0x04\n      dup2\n      gt\n      iszero\n      tag_38\n      jumpi\n      tag_39\n      tag_37\n      jump\t// in\n    tag_39:\n    tag_38:\n      eq\n        /* \"PetSanctuary.sol\":1001:1070  require(_animalKind == AnimalKind.Dog,'You can only buy dog or fish') */\n      tag_40\n      jumpi\n      mload(0x40)\n      0x08c379a000000000000000000000000000000000000000000000000000000000\n      dup2\n      mstore\n      0x04\n      add\n      tag_41\n      swap1\n      tag_42\n      jump\t// in\n    tag_41:\n      mload(0x40)\n      dup1\n      swap2\n      sub\n      swap1\n      revert\n    tag_40:\n        /* \"PetSanctuary.sol\":1107:1122  AnimalKind.Fish */\n      0x00\n        /* \"PetSanctuary.sol\":1092:1122  _animalKind == AnimalKind.Fish */\n      0x04\n      dup2\n      gt\n      iszero\n      tag_43\n      jumpi\n      tag_44\n      tag_37\n      jump\t// in\n    tag_44:\n    tag_43:\n        /* \"PetSanctuary.sol\":1092:1103  _animalKind */\n      dup2\n        /* \"PetSanctuary.sol\":1092:1122  _animalKind == AnimalKind.Fish */\n      0x04\n      dup2\n      gt\n      iszero\n      tag_45\n      jumpi\n      tag_46\n      tag_37\n      jump\t// in\n    tag_46:\n    tag_45:\n      eq\n        /* \"PetSanctuary.sol\":1084:1154  require(_animalKind == AnimalKind.Fish,'You can only buy dog or fish') */\n      tag_47\n      jumpi\n      mload(0x40)\n      0x08c379a000000000000000000000000000000000000000000000000000000000\n      dup2\n      mstore\n      0x04\n      add\n      tag_48\n      swap1\n      tag_42\n      jump\t// in\n    tag_48:\n      mload(0x40)\n      dup1\n      swap2\n      sub\n      swap1\n      revert\n    tag_47:\n        /* \"PetSanctuary.sol\":924:1166  if(keccak256(bytes(_personGender)) == keccak256(bytes(\"Male\"))){... */\n    tag_34:\n        /* \"PetSanctuary.sol\":735:1172  function buy(uint256 personAge,string memory _personGender, AnimalKind _animalKind) public {... */\n      pop\n      pop\n      pop\n      jump\t// out\n        /* \"PetSanctuary.sol\":600:730  function add(AnimalKind _animalKind, uint256 _howManyPieces) onlyOwner public {... */\n    tag_15:\n        /* \"PetSanctuary.sol\":539:544  owner */\n      0x00\n      0x01\n      swap1\n      sload\n      swap1\n      0x0100\n      exp\n      swap1\n      div\n      0xffffffffffffffffffffffffffffffffffffffff\n      and\n        /* \"PetSanctuary.sol\":525:544  msg.sender == owner */\n      0xffffffffffffffffffffffffffffffffffffffff\n      and\n        /* \"PetSanctuary.sol\":525:535  msg.sender */\n      caller\n        /* \"PetSanctuary.sol\":525:544  msg.sender == owner */\n      0xffffffffffffffffffffffffffffffffffffffff\n      and\n      eq\n        /* \"PetSanctuary.sol\":517:577  require(msg.sender == owner, 'Only owner can give shelter ') */\n      tag_50\n      jumpi\n      mload(0x40)\n      0x08c379a000000000000000000000000000000000000000000000000000000000\n      dup2\n      mstore\n      0x04\n      add\n      tag_51\n      swap1\n      tag_52\n      jump\t// in\n    tag_51:\n      mload(0x40)\n      dup1\n      swap2\n      sub\n      swap1\n      revert\n    tag_50:\n        /* \"PetSanctuary.sol\":709:723  _howManyPieces */\n      dup1\n        /* \"PetSanctuary.sol\":688:695  animals */\n      0x01\n        /* \"PetSanctuary.sol\":688:708  animals[_animalKind] */\n      0x00\n        /* \"PetSanctuary.sol\":696:707  _animalKind */\n      dup5\n        /* \"PetSanctuary.sol\":688:708  animals[_animalKind] */\n      0x04\n      dup2\n      gt\n      iszero\n      tag_54\n      jumpi\n      tag_55\n      tag_37\n      jump\t// in\n    tag_55:\n    tag_54:\n      0x04\n      dup2\n      gt\n      iszero\n      tag_56\n      jumpi\n      tag_57\n      tag_37\n      jump\t// in\n    tag_57:\n    tag_56:\n      dup2\n      mstore\n      0x20\n      add\n      swap1\n      dup2\n      mstore\n      0x20\n      add\n      0x00\n      keccak256\n        /* \"PetSanctuary.sol\":688:723  animals[_animalKind]=_howManyPieces */\n      dup2\n      swap1\n      sstore\n      pop\n        /* \"PetSanctuary.sol\":600:730  function add(AnimalKind _animalKind, uint256 _howManyPieces) onlyOwner public {... */\n      pop\n      pop\n      jump\t// out\n        /* \"PetSanctuary.sol\":305:350  mapping(AnimalKind => uint256) public animals */\n    tag_19:\n      mstore(0x20, 0x01)\n      dup1\n      0x00\n      mstore\n      keccak256(0x00, 0x40)\n      0x00\n      swap2\n      pop\n      swap1\n      pop\n      sload\n      dup2\n      jump\t// out\n        /* \"PetSanctuary.sol\":279:299  address public owner */\n    tag_23:\n      0x00\n      0x01\n      swap1\n      sload\n      swap1\n      0x0100\n      exp\n      swap1\n      div\n      0xffffffffffffffffffffffffffffffffffffffff\n      and\n      dup2\n      jump\t// out\n        /* \"PetSanctuary.sol\":244:273  AnimalKind public  animalKind */\n    tag_27:\n      0x00\n      dup1\n      sload\n      swap1\n      0x0100\n      exp\n      swap1\n      div\n      0xff\n      and\n      dup2\n      jump\t// out\n        /* \"#utility.yul\":7:82   */\n    tag_58:\n        /* \"#utility.yul\":40:46   */\n      0x00\n        /* \"#utility.yul\":73:75   */\n      0x40\n        /* \"#utility.yul\":67:76   */\n      mload\n        /* \"#utility.yul\":57:76   */\n      swap1\n      pop\n        /* \"#utility.yul\":7:82   */\n      swap1\n      jump\t// out\n        /* \"#utility.yul\":88:205   */\n    tag_59:\n        /* \"#utility.yul\":197:198   */\n      0x00\n        /* \"#utility.yul\":194:195   */\n      dup1\n        /* \"#utility.yul\":187:199   */\n      revert\n        /* \"#utility.yul\":211:328   */\n    tag_60:\n        /* \"#utility.yul\":320:321   */\n      0x00\n        /* \"#utility.yul\":317:318   */\n      dup1\n        /* \"#utility.yul\":310:322   */\n      revert\n        /* \"#utility.yul\":334:411   */\n    tag_61:\n        /* \"#utility.yul\":371:378   */\n      0x00\n        /* \"#utility.yul\":400:405   */\n      dup2\n        /* \"#utility.yul\":389:405   */\n      swap1\n      pop\n        /* \"#utility.yul\":334:411   */\n      swap2\n      swap1\n      pop\n      jump\t// out\n        /* \"#utility.yul\":417:539   */\n    tag_62:\n        /* \"#utility.yul\":490:514   */\n      tag_97\n        /* \"#utility.yul\":508:513   */\n      dup2\n        /* \"#utility.yul\":490:514   */\n      tag_61\n      jump\t// in\n    tag_97:\n        /* \"#utility.yul\":483:488   */\n      dup2\n        /* \"#utility.yul\":480:515   */\n      eq\n        /* \"#utility.yul\":470:533   */\n      tag_98\n      jumpi\n        /* \"#utility.yul\":529:530   */\n      0x00\n        /* \"#utility.yul\":526:527   */\n      dup1\n        /* \"#utility.yul\":519:531   */\n      revert\n        /* \"#utility.yul\":470:533   */\n    tag_98:\n        /* \"#utility.yul\":417:539   */\n      pop\n      jump\t// out\n        /* \"#utility.yul\":545:684   */\n    tag_63:\n        /* \"#utility.yul\":591:596   */\n      0x00\n        /* \"#utility.yul\":629:635   */\n      dup2\n        /* \"#utility.yul\":616:636   */\n      calldataload\n        /* \"#utility.yul\":607:636   */\n      swap1\n      pop\n        /* \"#utility.yul\":645:678   */\n      tag_100\n        /* \"#utility.yul\":672:677   */\n      dup2\n        /* \"#utility.yul\":645:678   */\n      tag_62\n      jump\t// in\n    tag_100:\n        /* \"#utility.yul\":545:684   */\n      swap3\n      swap2\n      pop\n      pop\n      jump\t// out\n        /* \"#utility.yul\":690:807   */\n    tag_64:\n        /* \"#utility.yul\":799:800   */\n      0x00\n        /* \"#utility.yul\":796:797   */\n      dup1\n        /* \"#utility.yul\":789:801   */\n      revert\n        /* \"#utility.yul\":813:930   */\n    tag_65:\n        /* \"#utility.yul\":922:923   */\n      0x00\n        /* \"#utility.yul\":919:920   */\n      dup1\n        /* \"#utility.yul\":912:924   */\n      revert\n        /* \"#utility.yul\":936:1038   */\n    tag_66:\n        /* \"#utility.yul\":977:983   */\n      0x00\n        /* \"#utility.yul\":1028:1030   */\n      0x1f\n        /* \"#utility.yul\":1024:1031   */\n      not\n        /* \"#utility.yul\":1019:1021   */\n      0x1f\n        /* \"#utility.yul\":1012:1017   */\n      dup4\n        /* \"#utility.yul\":1008:1022   */\n      add\n        /* \"#utility.yul\":1004:1032   */\n      and\n        /* \"#utility.yul\":994:1032   */\n      swap1\n      pop\n        /* \"#utility.yul\":936:1038   */\n      swap2\n      swap1\n      pop\n      jump\t// out\n        /* \"#utility.yul\":1044:1224   */\n    tag_67:\n        /* \"#utility.yul\":1092:1169   */\n      0x4e487b7100000000000000000000000000000000000000000000000000000000\n        /* \"#utility.yul\":1089:1090   */\n      0x00\n        /* \"#utility.yul\":1082:1170   */\n      mstore\n        /* \"#utility.yul\":1189:1193   */\n      0x41\n        /* \"#utility.yul\":1186:1187   */\n      0x04\n        /* \"#utility.yul\":1179:1194   */\n      mstore\n        /* \"#utility.yul\":1213:1217   */\n      0x24\n        /* \"#utility.yul\":1210:1211   */\n      0x00\n        /* \"#utility.yul\":1203:1218   */\n      revert\n        /* \"#utility.yul\":1230:1511   */\n    tag_68:\n        /* \"#utility.yul\":1313:1340   */\n      tag_106\n        /* \"#utility.yul\":1335:1339   */\n      dup3\n        /* \"#utility.yul\":1313:1340   */\n      tag_66\n      jump\t// in\n    tag_106:\n        /* \"#utility.yul\":1305:1311   */\n      dup2\n        /* \"#utility.yul\":1301:1341   */\n      add\n        /* \"#utility.yul\":1443:1449   */\n      dup2\n        /* \"#utility.yul\":1431:1441   */\n      dup2\n        /* \"#utility.yul\":1428:1450   */\n      lt\n        /* \"#utility.yul\":1407:1425   */\n      0xffffffffffffffff\n        /* \"#utility.yul\":1395:1405   */\n      dup3\n        /* \"#utility.yul\":1392:1426   */\n      gt\n        /* \"#utility.yul\":1389:1451   */\n      or\n        /* \"#utility.yul\":1386:1474   */\n      iszero\n      tag_107\n      jumpi\n        /* \"#utility.yul\":1454:1472   */\n      tag_108\n      tag_67\n      jump\t// in\n    tag_108:\n        /* \"#utility.yul\":1386:1474   */\n    tag_107:\n        /* \"#utility.yul\":1494:1504   */\n      dup1\n        /* \"#utility.yul\":1490:1492   */\n      0x40\n        /* \"#utility.yul\":1483:1505   */\n      mstore\n        /* \"#utility.yul\":1273:1511   */\n      pop\n        /* \"#utility.yul\":1230:1511   */\n      pop\n      pop\n      jump\t// out\n        /* \"#utility.yul\":1517:1646   */\n    tag_69:\n        /* \"#utility.yul\":1551:1557   */\n      0x00\n        /* \"#utility.yul\":1578:1598   */\n      tag_110\n      tag_58\n      jump\t// in\n    tag_110:\n        /* \"#utility.yul\":1568:1598   */\n      swap1\n      pop\n        /* \"#utility.yul\":1607:1640   */\n      tag_111\n        /* \"#utility.yul\":1635:1639   */\n      dup3\n        /* \"#utility.yul\":1627:1633   */\n      dup3\n        /* \"#utility.yul\":1607:1640   */\n      tag_68\n      jump\t// in\n    tag_111:\n        /* \"#utility.yul\":1517:1646   */\n      swap2\n      swap1\n      pop\n      jump\t// out\n        /* \"#utility.yul\":1652:1960   */\n    tag_70:\n        /* \"#utility.yul\":1714:1718   */\n      0x00\n        /* \"#utility.yul\":1804:1822   */\n      0xffffffffffffffff\n        /* \"#utility.yul\":1796:1802   */\n      dup3\n        /* \"#utility.yul\":1793:1823   */\n      gt\n        /* \"#utility.yul\":1790:1846   */\n      iszero\n      tag_113\n      jumpi\n        /* \"#utility.yul\":1826:1844   */\n      tag_114\n      tag_67\n      jump\t// in\n    tag_114:\n        /* \"#utility.yul\":1790:1846   */\n    tag_113:\n        /* \"#utility.yul\":1864:1893   */\n      tag_115\n        /* \"#utility.yul\":1886:1892   */\n      dup3\n        /* \"#utility.yul\":1864:1893   */\n      tag_66\n      jump\t// in\n    tag_115:\n        /* \"#utility.yul\":1856:1893   */\n      swap1\n      pop\n        /* \"#utility.yul\":1948:1952   */\n      0x20\n        /* \"#utility.yul\":1942:1946   */\n      dup2\n        /* \"#utility.yul\":1938:1953   */\n      add\n        /* \"#utility.yul\":1930:1953   */\n      swap1\n      pop\n        /* \"#utility.yul\":1652:1960   */\n      swap2\n      swap1\n      pop\n      jump\t// out\n        /* \"#utility.yul\":1966:2120   */\n    tag_71:\n        /* \"#utility.yul\":2050:2056   */\n      dup3\n        /* \"#utility.yul\":2045:2048   */\n      dup2\n        /* \"#utility.yul\":2040:2043   */\n      dup4\n        /* \"#utility.yul\":2027:2057   */\n      calldatacopy\n        /* \"#utility.yul\":2112:2113   */\n      0x00\n        /* \"#utility.yul\":2103:2109   */\n      dup4\n        /* \"#utility.yul\":2098:2101   */\n      dup4\n        /* \"#utility.yul\":2094:2110   */\n      add\n        /* \"#utility.yul\":2087:2114   */\n      mstore\n        /* \"#utility.yul\":1966:2120   */\n      pop\n      pop\n      pop\n      jump\t// out\n        /* \"#utility.yul\":2126:2538   */\n    tag_72:\n        /* \"#utility.yul\":2204:2209   */\n      0x00\n        /* \"#utility.yul\":2229:2295   */\n      tag_118\n        /* \"#utility.yul\":2245:2294   */\n      tag_119\n        /* \"#utility.yul\":2287:2293   */\n      dup5\n        /* \"#utility.yul\":2245:2294   */\n      tag_70\n      jump\t// in\n    tag_119:\n        /* \"#utility.yul\":2229:2295   */\n      tag_69\n      jump\t// in\n    tag_118:\n        /* \"#utility.yul\":2220:2295   */\n      swap1\n      pop\n        /* \"#utility.yul\":2318:2324   */\n      dup3\n        /* \"#utility.yul\":2311:2316   */\n      dup2\n        /* \"#utility.yul\":2304:2325   */\n      mstore\n        /* \"#utility.yul\":2356:2360   */\n      0x20\n        /* \"#utility.yul\":2349:2354   */\n      dup2\n        /* \"#utility.yul\":2345:2361   */\n      add\n        /* \"#utility.yul\":2394:2397   */\n      dup5\n        /* \"#utility.yul\":2385:2391   */\n      dup5\n        /* \"#utility.yul\":2380:2383   */\n      dup5\n        /* \"#utility.yul\":2376:2392   */\n      add\n        /* \"#utility.yul\":2373:2398   */\n      gt\n        /* \"#utility.yul\":2370:2482   */\n      iszero\n      tag_120\n      jumpi\n        /* \"#utility.yul\":2401:2480   */\n      tag_121\n      tag_65\n      jump\t// in\n    tag_121:\n        /* \"#utility.yul\":2370:2482   */\n    tag_120:\n        /* \"#utility.yul\":2491:2532   */\n      tag_122\n        /* \"#utility.yul\":2525:2531   */\n      dup5\n        /* \"#utility.yul\":2520:2523   */\n      dup3\n        /* \"#utility.yul\":2515:2518   */\n      dup6\n        /* \"#utility.yul\":2491:2532   */\n      tag_71\n      jump\t// in\n    tag_122:\n        /* \"#utility.yul\":2210:2538   */\n      pop\n        /* \"#utility.yul\":2126:2538   */\n      swap4\n      swap3\n      pop\n      pop\n      pop\n      jump\t// out\n        /* \"#utility.yul\":2558:2898   */\n    tag_73:\n        /* \"#utility.yul\":2614:2619   */\n      0x00\n        /* \"#utility.yul\":2663:2666   */\n      dup3\n        /* \"#utility.yul\":2656:2660   */\n      0x1f\n        /* \"#utility.yul\":2648:2654   */\n      dup4\n        /* \"#utility.yul\":2644:2661   */\n      add\n        /* \"#utility.yul\":2640:2667   */\n      slt\n        /* \"#utility.yul\":2630:2752   */\n      tag_124\n      jumpi\n        /* \"#utility.yul\":2671:2750   */\n      tag_125\n      tag_64\n      jump\t// in\n    tag_125:\n        /* \"#utility.yul\":2630:2752   */\n    tag_124:\n        /* \"#utility.yul\":2788:2794   */\n      dup2\n        /* \"#utility.yul\":2775:2795   */\n      calldataload\n        /* \"#utility.yul\":2813:2892   */\n      tag_126\n        /* \"#utility.yul\":2888:2891   */\n      dup5\n        /* \"#utility.yul\":2880:2886   */\n      dup3\n        /* \"#utility.yul\":2873:2877   */\n      0x20\n        /* \"#utility.yul\":2865:2871   */\n      dup7\n        /* \"#utility.yul\":2861:2878   */\n      add\n        /* \"#utility.yul\":2813:2892   */\n      tag_72\n      jump\t// in\n    tag_126:\n        /* \"#utility.yul\":2804:2892   */\n      swap2\n      pop\n        /* \"#utility.yul\":2620:2898   */\n      pop\n        /* \"#utility.yul\":2558:2898   */\n      swap3\n      swap2\n      pop\n      pop\n      jump\t// out\n        /* \"#utility.yul\":2904:3016   */\n    tag_74:\n        /* \"#utility.yul\":2990:2991   */\n      0x05\n        /* \"#utility.yul\":2983:2988   */\n      dup2\n        /* \"#utility.yul\":2980:2992   */\n      lt\n        /* \"#utility.yul\":2970:3010   */\n      tag_128\n      jumpi\n        /* \"#utility.yul\":3006:3007   */\n      0x00\n        /* \"#utility.yul\":3003:3004   */\n      dup1\n        /* \"#utility.yul\":2996:3008   */\n      revert\n        /* \"#utility.yul\":2970:3010   */\n    tag_128:\n        /* \"#utility.yul\":2904:3016   */\n      pop\n      jump\t// out\n        /* \"#utility.yul\":3022:3187   */\n    tag_75:\n        /* \"#utility.yul\":3081:3086   */\n      0x00\n        /* \"#utility.yul\":3119:3125   */\n      dup2\n        /* \"#utility.yul\":3106:3126   */\n      calldataload\n        /* \"#utility.yul\":3097:3126   */\n      swap1\n      pop\n        /* \"#utility.yul\":3135:3181   */\n      tag_130\n        /* \"#utility.yul\":3175:3180   */\n      dup2\n        /* \"#utility.yul\":3135:3181   */\n      tag_74\n      jump\t// in\n    tag_130:\n        /* \"#utility.yul\":3022:3187   */\n      swap3\n      swap2\n      pop\n      pop\n      jump\t// out\n        /* \"#utility.yul\":3193:4018   */\n    tag_10:\n        /* \"#utility.yul\":3293:3299   */\n      0x00\n        /* \"#utility.yul\":3301:3307   */\n      dup1\n        /* \"#utility.yul\":3309:3315   */\n      0x00\n        /* \"#utility.yul\":3358:3360   */\n      0x60\n        /* \"#utility.yul\":3346:3355   */\n      dup5\n        /* \"#utility.yul\":3337:3344   */\n      dup7\n        /* \"#utility.yul\":3333:3356   */\n      sub\n        /* \"#utility.yul\":3329:3361   */\n      slt\n        /* \"#utility.yul\":3326:3445   */\n      iszero\n      tag_132\n      jumpi\n        /* \"#utility.yul\":3364:3443   */\n      tag_133\n      tag_59\n      jump\t// in\n    tag_133:\n        /* \"#utility.yul\":3326:3445   */\n    tag_132:\n        /* \"#utility.yul\":3484:3485   */\n      0x00\n        /* \"#utility.yul\":3509:3562   */\n      tag_134\n        /* \"#utility.yul\":3554:3561   */\n      dup7\n        /* \"#utility.yul\":3545:3551   */\n      dup3\n        /* \"#utility.yul\":3534:3543   */\n      dup8\n        /* \"#utility.yul\":3530:3552   */\n      add\n        /* \"#utility.yul\":3509:3562   */\n      tag_63\n      jump\t// in\n    tag_134:\n        /* \"#utility.yul\":3499:3562   */\n      swap4\n      pop\n        /* \"#utility.yul\":3455:3572   */\n      pop\n        /* \"#utility.yul\":3639:3641   */\n      0x20\n        /* \"#utility.yul\":3628:3637   */\n      dup5\n        /* \"#utility.yul\":3624:3642   */\n      add\n        /* \"#utility.yul\":3611:3643   */\n      calldataload\n        /* \"#utility.yul\":3670:3688   */\n      0xffffffffffffffff\n        /* \"#utility.yul\":3662:3668   */\n      dup2\n        /* \"#utility.yul\":3659:3689   */\n      gt\n        /* \"#utility.yul\":3656:3773   */\n      iszero\n      tag_135\n      jumpi\n        /* \"#utility.yul\":3692:3771   */\n      tag_136\n      tag_60\n      jump\t// in\n    tag_136:\n        /* \"#utility.yul\":3656:3773   */\n    tag_135:\n        /* \"#utility.yul\":3797:3860   */\n      tag_137\n        /* \"#utility.yul\":3852:3859   */\n      dup7\n        /* \"#utility.yul\":3843:3849   */\n      dup3\n        /* \"#utility.yul\":3832:3841   */\n      dup8\n        /* \"#utility.yul\":3828:3850   */\n      add\n        /* \"#utility.yul\":3797:3860   */\n      tag_73\n      jump\t// in\n    tag_137:\n        /* \"#utility.yul\":3787:3860   */\n      swap3\n      pop\n        /* \"#utility.yul\":3582:3870   */\n      pop\n        /* \"#utility.yul\":3909:3911   */\n      0x40\n        /* \"#utility.yul\":3935:4001   */\n      tag_138\n        /* \"#utility.yul\":3993:4000   */\n      dup7\n        /* \"#utility.yul\":3984:3990   */\n      dup3\n        /* \"#utility.yul\":3973:3982   */\n      dup8\n        /* \"#utility.yul\":3969:3991   */\n      add\n        /* \"#utility.yul\":3935:4001   */\n      tag_75\n      jump\t// in\n    tag_138:\n        /* \"#utility.yul\":3925:4001   */\n      swap2\n      pop\n        /* \"#utility.yul\":3880:4011   */\n      pop\n        /* \"#utility.yul\":3193:4018   */\n      swap3\n      pop\n      swap3\n      pop\n      swap3\n      jump\t// out\n        /* \"#utility.yul\":4024:4524   */\n    tag_14:\n        /* \"#utility.yul\":4105:4111   */\n      0x00\n        /* \"#utility.yul\":4113:4119   */\n      dup1\n        /* \"#utility.yul\":4162:4164   */\n      0x40\n        /* \"#utility.yul\":4150:4159   */\n      dup4\n        /* \"#utility.yul\":4141:4148   */\n      dup6\n        /* \"#utility.yul\":4137:4160   */\n      sub\n        /* \"#utility.yul\":4133:4165   */\n      slt\n        /* \"#utility.yul\":4130:4249   */\n      iszero\n      tag_140\n      jumpi\n        /* \"#utility.yul\":4168:4247   */\n      tag_141\n      tag_59\n      jump\t// in\n    tag_141:\n        /* \"#utility.yul\":4130:4249   */\n    tag_140:\n        /* \"#utility.yul\":4288:4289   */\n      0x00\n        /* \"#utility.yul\":4313:4379   */\n      tag_142\n        /* \"#utility.yul\":4371:4378   */\n      dup6\n        /* \"#utility.yul\":4362:4368   */\n      dup3\n        /* \"#utility.yul\":4351:4360   */\n      dup7\n        /* \"#utility.yul\":4347:4369   */\n      add\n        /* \"#utility.yul\":4313:4379   */\n      tag_75\n      jump\t// in\n    tag_142:\n        /* \"#utility.yul\":4303:4379   */\n      swap3\n      pop\n        /* \"#utility.yul\":4259:4389   */\n      pop\n        /* \"#utility.yul\":4428:4430   */\n      0x20\n        /* \"#utility.yul\":4454:4507   */\n      tag_143\n        /* \"#utility.yul\":4499:4506   */\n      dup6\n        /* \"#utility.yul\":4490:4496   */\n      dup3\n        /* \"#utility.yul\":4479:4488   */\n      dup7\n        /* \"#utility.yul\":4475:4497   */\n      add\n        /* \"#utility.yul\":4454:4507   */\n      tag_63\n      jump\t// in\n    tag_143:\n        /* \"#utility.yul\":4444:4507   */\n      swap2\n      pop\n        /* \"#utility.yul\":4399:4517   */\n      pop\n        /* \"#utility.yul\":4024:4524   */\n      swap3\n      pop\n      swap3\n      swap1\n      pop\n      jump\t// out\n        /* \"#utility.yul\":4530:4885   */\n    tag_18:\n        /* \"#utility.yul\":4602:4608   */\n      0x00\n        /* \"#utility.yul\":4651:4653   */\n      0x20\n        /* \"#utility.yul\":4639:4648   */\n      dup3\n        /* \"#utility.yul\":4630:4637   */\n      dup5\n        /* \"#utility.yul\":4626:4649   */\n      sub\n        /* \"#utility.yul\":4622:4654   */\n      slt\n        /* \"#utility.yul\":4619:4738   */\n      iszero\n      tag_145\n      jumpi\n        /* \"#utility.yul\":4657:4736   */\n      tag_146\n      tag_59\n      jump\t// in\n    tag_146:\n        /* \"#utility.yul\":4619:4738   */\n    tag_145:\n        /* \"#utility.yul\":4777:4778   */\n      0x00\n        /* \"#utility.yul\":4802:4868   */\n      tag_147\n        /* \"#utility.yul\":4860:4867   */\n      dup5\n        /* \"#utility.yul\":4851:4857   */\n      dup3\n        /* \"#utility.yul\":4840:4849   */\n      dup6\n        /* \"#utility.yul\":4836:4858   */\n      add\n        /* \"#utility.yul\":4802:4868   */\n      tag_75\n      jump\t// in\n    tag_147:\n        /* \"#utility.yul\":4792:4868   */\n      swap2\n      pop\n        /* \"#utility.yul\":4748:4878   */\n      pop\n        /* \"#utility.yul\":4530:4885   */\n      swap3\n      swap2\n      pop\n      pop\n      jump\t// out\n        /* \"#utility.yul\":4891:5009   */\n    tag_76:\n        /* \"#utility.yul\":4978:5002   */\n      tag_149\n        /* \"#utility.yul\":4996:5001   */\n      dup2\n        /* \"#utility.yul\":4978:5002   */\n      tag_61\n      jump\t// in\n    tag_149:\n        /* \"#utility.yul\":4973:4976   */\n      dup3\n        /* \"#utility.yul\":4966:5003   */\n      mstore\n        /* \"#utility.yul\":4891:5009   */\n      pop\n      pop\n      jump\t// out\n        /* \"#utility.yul\":5015:5237   */\n    tag_21:\n        /* \"#utility.yul\":5108:5112   */\n      0x00\n        /* \"#utility.yul\":5146:5148   */\n      0x20\n        /* \"#utility.yul\":5135:5144   */\n      dup3\n        /* \"#utility.yul\":5131:5149   */\n      add\n        /* \"#utility.yul\":5123:5149   */\n      swap1\n      pop\n        /* \"#utility.yul\":5159:5230   */\n      tag_151\n        /* \"#utility.yul\":5227:5228   */\n      0x00\n        /* \"#utility.yul\":5216:5225   */\n      dup4\n        /* \"#utility.yul\":5212:5229   */\n      add\n        /* \"#utility.yul\":5203:5209   */\n      dup5\n        /* \"#utility.yul\":5159:5230   */\n      tag_76\n      jump\t// in\n    tag_151:\n        /* \"#utility.yul\":5015:5237   */\n      swap3\n      swap2\n      pop\n      pop\n      jump\t// out\n        /* \"#utility.yul\":5243:5369   */\n    tag_77:\n        /* \"#utility.yul\":5280:5287   */\n      0x00\n        /* \"#utility.yul\":5320:5362   */\n      0xffffffffffffffffffffffffffffffffffffffff\n        /* \"#utility.yul\":5313:5318   */\n      dup3\n        /* \"#utility.yul\":5309:5363   */\n      and\n        /* \"#utility.yul\":5298:5363   */\n      swap1\n      pop\n        /* \"#utility.yul\":5243:5369   */\n      swap2\n      swap1\n      pop\n      jump\t// out\n        /* \"#utility.yul\":5375:5471   */\n    tag_78:\n        /* \"#utility.yul\":5412:5419   */\n      0x00\n        /* \"#utility.yul\":5441:5465   */\n      tag_154\n        /* \"#utility.yul\":5459:5464   */\n      dup3\n        /* \"#utility.yul\":5441:5465   */\n      tag_77\n      jump\t// in\n    tag_154:\n        /* \"#utility.yul\":5430:5465   */\n      swap1\n      pop\n        /* \"#utility.yul\":5375:5471   */\n      swap2\n      swap1\n      pop\n      jump\t// out\n        /* \"#utility.yul\":5477:5595   */\n    tag_79:\n        /* \"#utility.yul\":5564:5588   */\n      tag_156\n        /* \"#utility.yul\":5582:5587   */\n      dup2\n        /* \"#utility.yul\":5564:5588   */\n      tag_78\n      jump\t// in\n    tag_156:\n        /* \"#utility.yul\":5559:5562   */\n      dup3\n        /* \"#utility.yul\":5552:5589   */\n      mstore\n        /* \"#utility.yul\":5477:5595   */\n      pop\n      pop\n      jump\t// out\n        /* \"#utility.yul\":5601:5823   */\n    tag_25:\n        /* \"#utility.yul\":5694:5698   */\n      0x00\n        /* \"#utility.yul\":5732:5734   */\n      0x20\n        /* \"#utility.yul\":5721:5730   */\n      dup3\n        /* \"#utility.yul\":5717:5735   */\n      add\n        /* \"#utility.yul\":5709:5735   */\n      swap1\n      pop\n        /* \"#utility.yul\":5745:5816   */\n      tag_158\n        /* \"#utility.yul\":5813:5814   */\n      0x00\n        /* \"#utility.yul\":5802:5811   */\n      dup4\n        /* \"#utility.yul\":5798:5815   */\n      add\n        /* \"#utility.yul\":5789:5795   */\n      dup5\n        /* \"#utility.yul\":5745:5816   */\n      tag_79\n      jump\t// in\n    tag_158:\n        /* \"#utility.yul\":5601:5823   */\n      swap3\n      swap2\n      pop\n      pop\n      jump\t// out\n        /* \"#utility.yul\":5829:6009   */\n    tag_37:\n        /* \"#utility.yul\":5877:5954   */\n      0x4e487b7100000000000000000000000000000000000000000000000000000000\n        /* \"#utility.yul\":5874:5875   */\n      0x00\n        /* \"#utility.yul\":5867:5955   */\n      mstore\n        /* \"#utility.yul\":5974:5978   */\n      0x21\n        /* \"#utility.yul\":5971:5972   */\n      0x04\n        /* \"#utility.yul\":5964:5979   */\n      mstore\n        /* \"#utility.yul\":5998:6002   */\n      0x24\n        /* \"#utility.yul\":5995:5996   */\n      0x00\n        /* \"#utility.yul\":5988:6003   */\n      revert\n        /* \"#utility.yul\":6015:6133   */\n    tag_80:\n        /* \"#utility.yul\":6101:6102   */\n      0x05\n        /* \"#utility.yul\":6094:6099   */\n      dup2\n        /* \"#utility.yul\":6091:6103   */\n      lt\n        /* \"#utility.yul\":6081:6127   */\n      tag_161\n      jumpi\n        /* \"#utility.yul\":6107:6125   */\n      tag_162\n      tag_37\n      jump\t// in\n    tag_162:\n        /* \"#utility.yul\":6081:6127   */\n    tag_161:\n        /* \"#utility.yul\":6015:6133   */\n      pop\n      jump\t// out\n        /* \"#utility.yul\":6139:6276   */\n    tag_81:\n        /* \"#utility.yul\":6189:6196   */\n      0x00\n        /* \"#utility.yul\":6218:6223   */\n      dup2\n        /* \"#utility.yul\":6207:6223   */\n      swap1\n      pop\n        /* \"#utility.yul\":6224:6270   */\n      tag_164\n        /* \"#utility.yul\":6264:6269   */\n      dup3\n        /* \"#utility.yul\":6224:6270   */\n      tag_80\n      jump\t// in\n    tag_164:\n        /* \"#utility.yul\":6139:6276   */\n      swap2\n      swap1\n      pop\n      jump\t// out\n        /* \"#utility.yul\":6282:6419   */\n    tag_82:\n        /* \"#utility.yul\":6343:6352   */\n      0x00\n        /* \"#utility.yul\":6376:6413   */\n      tag_166\n        /* \"#utility.yul\":6407:6412   */\n      dup3\n        /* \"#utility.yul\":6376:6413   */\n      tag_81\n      jump\t// in\n    tag_166:\n        /* \"#utility.yul\":6363:6413   */\n      swap1\n      pop\n        /* \"#utility.yul\":6282:6419   */\n      swap2\n      swap1\n      pop\n      jump\t// out\n        /* \"#utility.yul\":6425:6578   */\n    tag_83:\n        /* \"#utility.yul\":6523:6571   */\n      tag_168\n        /* \"#utility.yul\":6565:6570   */\n      dup2\n        /* \"#utility.yul\":6523:6571   */\n      tag_82\n      jump\t// in\n    tag_168:\n        /* \"#utility.yul\":6518:6521   */\n      dup3\n        /* \"#utility.yul\":6511:6572   */\n      mstore\n        /* \"#utility.yul\":6425:6578   */\n      pop\n      pop\n      jump\t// out\n        /* \"#utility.yul\":6584:6828   */\n    tag_29:\n        /* \"#utility.yul\":6688:6692   */\n      0x00\n        /* \"#utility.yul\":6726:6728   */\n      0x20\n        /* \"#utility.yul\":6715:6724   */\n      dup3\n        /* \"#utility.yul\":6711:6729   */\n      add\n        /* \"#utility.yul\":6703:6729   */\n      swap1\n      pop\n        /* \"#utility.yul\":6739:6821   */\n      tag_170\n        /* \"#utility.yul\":6818:6819   */\n      0x00\n        /* \"#utility.yul\":6807:6816   */\n      dup4\n        /* \"#utility.yul\":6803:6820   */\n      add\n        /* \"#utility.yul\":6794:6800   */\n      dup5\n        /* \"#utility.yul\":6739:6821   */\n      tag_83\n      jump\t// in\n    tag_170:\n        /* \"#utility.yul\":6584:6828   */\n      swap3\n      swap2\n      pop\n      pop\n      jump\t// out\n        /* \"#utility.yul\":6834:7003   */\n    tag_84:\n        /* \"#utility.yul\":6918:6929   */\n      0x00\n        /* \"#utility.yul\":6952:6958   */\n      dup3\n        /* \"#utility.yul\":6947:6950   */\n      dup3\n        /* \"#utility.yul\":6940:6959   */\n      mstore\n        /* \"#utility.yul\":6992:6996   */\n      0x20\n        /* \"#utility.yul\":6987:6990   */\n      dup3\n        /* \"#utility.yul\":6983:6997   */\n      add\n        /* \"#utility.yul\":6968:6997   */\n      swap1\n      pop\n        /* \"#utility.yul\":6834:7003   */\n      swap3\n      swap2\n      pop\n      pop\n      jump\t// out\n        /* \"#utility.yul\":7009:7232   */\n    tag_85:\n        /* \"#utility.yul\":7149:7183   */\n      0x596f7520616c7265616479206861766520626f72726f7765642074686520616e\n        /* \"#utility.yul\":7145:7146   */\n      0x00\n        /* \"#utility.yul\":7137:7143   */\n      dup3\n        /* \"#utility.yul\":7133:7147   */\n      add\n        /* \"#utility.yul\":7126:7184   */\n      mstore\n        /* \"#utility.yul\":7218:7224   */\n      0x696d616c00000000000000000000000000000000000000000000000000000000\n        /* \"#utility.yul\":7213:7215   */\n      0x20\n        /* \"#utility.yul\":7205:7211   */\n      dup3\n        /* \"#utility.yul\":7201:7216   */\n      add\n        /* \"#utility.yul\":7194:7225   */\n      mstore\n        /* \"#utility.yul\":7009:7232   */\n      pop\n      jump\t// out\n        /* \"#utility.yul\":7238:7604   */\n    tag_86:\n        /* \"#utility.yul\":7380:7383   */\n      0x00\n        /* \"#utility.yul\":7401:7468   */\n      tag_174\n        /* \"#utility.yul\":7465:7467   */\n      0x24\n        /* \"#utility.yul\":7460:7463   */\n      dup4\n        /* \"#utility.yul\":7401:7468   */\n      tag_84\n      jump\t// in\n    tag_174:\n        /* \"#utility.yul\":7394:7468   */\n      swap2\n      pop\n        /* \"#utility.yul\":7477:7570   */\n      tag_175\n        /* \"#utility.yul\":7566:7569   */\n      dup3\n        /* \"#utility.yul\":7477:7570   */\n      tag_85\n      jump\t// in\n    tag_175:\n        /* \"#utility.yul\":7595:7597   */\n      0x40\n        /* \"#utility.yul\":7590:7593   */\n      dup3\n        /* \"#utility.yul\":7586:7598   */\n      add\n        /* \"#utility.yul\":7579:7598   */\n      swap1\n      pop\n        /* \"#utility.yul\":7238:7604   */\n      swap2\n      swap1\n      pop\n      jump\t// out\n        /* \"#utility.yul\":7610:8029   */\n    tag_33:\n        /* \"#utility.yul\":7776:7780   */\n      0x00\n        /* \"#utility.yul\":7814:7816   */\n      0x20\n        /* \"#utility.yul\":7803:7812   */\n      dup3\n        /* \"#utility.yul\":7799:7817   */\n      add\n        /* \"#utility.yul\":7791:7817   */\n      swap1\n      pop\n        /* \"#utility.yul\":7863:7872   */\n      dup2\n        /* \"#utility.yul\":7857:7861   */\n      dup2\n        /* \"#utility.yul\":7853:7873   */\n      sub\n        /* \"#utility.yul\":7849:7850   */\n      0x00\n        /* \"#utility.yul\":7838:7847   */\n      dup4\n        /* \"#utility.yul\":7834:7851   */\n      add\n        /* \"#utility.yul\":7827:7874   */\n      mstore\n        /* \"#utility.yul\":7891:8022   */\n      tag_177\n        /* \"#utility.yul\":8017:8021   */\n      dup2\n        /* \"#utility.yul\":7891:8022   */\n      tag_86\n      jump\t// in\n    tag_177:\n        /* \"#utility.yul\":7883:8022   */\n      swap1\n      pop\n        /* \"#utility.yul\":7610:8029   */\n      swap2\n      swap1\n      pop\n      jump\t// out\n        /* \"#utility.yul\":8035:8213   */\n    tag_87:\n        /* \"#utility.yul\":8175:8205   */\n      0x596f752063616e206f6e6c792062757920646f67206f72206669736800000000\n        /* \"#utility.yul\":8171:8172   */\n      0x00\n        /* \"#utility.yul\":8163:8169   */\n      dup3\n        /* \"#utility.yul\":8159:8173   */\n      add\n        /* \"#utility.yul\":8152:8206   */\n      mstore\n        /* \"#utility.yul\":8035:8213   */\n      pop\n      jump\t// out\n        /* \"#utility.yul\":8219:8585   */\n    tag_88:\n        /* \"#utility.yul\":8361:8364   */\n      0x00\n        /* \"#utility.yul\":8382:8449   */\n      tag_180\n        /* \"#utility.yul\":8446:8448   */\n      0x1c\n        /* \"#utility.yul\":8441:8444   */\n      dup4\n        /* \"#utility.yul\":8382:8449   */\n      tag_84\n      jump\t// in\n    tag_180:\n        /* \"#utility.yul\":8375:8449   */\n      swap2\n      pop\n        /* \"#utility.yul\":8458:8551   */\n      tag_181\n        /* \"#utility.yul\":8547:8550   */\n      dup3\n        /* \"#utility.yul\":8458:8551   */\n      tag_87\n      jump\t// in\n    tag_181:\n        /* \"#utility.yul\":8576:8578   */\n      0x20\n        /* \"#utility.yul\":8571:8574   */\n      dup3\n        /* \"#utility.yul\":8567:8579   */\n      add\n        /* \"#utility.yul\":8560:8579   */\n      swap1\n      pop\n        /* \"#utility.yul\":8219:8585   */\n      swap2\n      swap1\n      pop\n      jump\t// out\n        /* \"#utility.yul\":8591:9010   */\n    tag_42:\n        /* \"#utility.yul\":8757:8761   */\n      0x00\n        /* \"#utility.yul\":8795:8797   */\n      0x20\n        /* \"#utility.yul\":8784:8793   */\n      dup3\n        /* \"#utility.yul\":8780:8798   */\n      add\n        /* \"#utility.yul\":8772:8798   */\n      swap1\n      pop\n        /* \"#utility.yul\":8844:8853   */\n      dup2\n        /* \"#utility.yul\":8838:8842   */\n      dup2\n        /* \"#utility.yul\":8834:8854   */\n      sub\n        /* \"#utility.yul\":8830:8831   */\n      0x00\n        /* \"#utility.yul\":8819:8828   */\n      dup4\n        /* \"#utility.yul\":8815:8832   */\n      add\n        /* \"#utility.yul\":8808:8855   */\n      mstore\n        /* \"#utility.yul\":8872:9003   */\n      tag_183\n        /* \"#utility.yul\":8998:9002   */\n      dup2\n        /* \"#utility.yul\":8872:9003   */\n      tag_88\n      jump\t// in\n    tag_183:\n        /* \"#utility.yul\":8864:9003   */\n      swap1\n      pop\n        /* \"#utility.yul\":8591:9010   */\n      swap2\n      swap1\n      pop\n      jump\t// out\n        /* \"#utility.yul\":9016:9194   */\n    tag_89:\n        /* \"#utility.yul\":9156:9186   */\n      0x4f6e6c79206f776e65722063616e2067697665207368656c7465722000000000\n        /* \"#utility.yul\":9152:9153   */\n      0x00\n        /* \"#utility.yul\":9144:9150   */\n      dup3\n        /* \"#utility.yul\":9140:9154   */\n      add\n        /* \"#utility.yul\":9133:9187   */\n      mstore\n        /* \"#utility.yul\":9016:9194   */\n      pop\n      jump\t// out\n        /* \"#utility.yul\":9200:9566   */\n    tag_90:\n        /* \"#utility.yul\":9342:9345   */\n      0x00\n        /* \"#utility.yul\":9363:9430   */\n      tag_186\n        /* \"#utility.yul\":9427:9429   */\n      0x1c\n        /* \"#utility.yul\":9422:9425   */\n      dup4\n        /* \"#utility.yul\":9363:9430   */\n      tag_84\n      jump\t// in\n    tag_186:\n        /* \"#utility.yul\":9356:9430   */\n      swap2\n      pop\n        /* \"#utility.yul\":9439:9532   */\n      tag_187\n        /* \"#utility.yul\":9528:9531   */\n      dup3\n        /* \"#utility.yul\":9439:9532   */\n      tag_89\n      jump\t// in\n    tag_187:\n        /* \"#utility.yul\":9557:9559   */\n      0x20\n        /* \"#utility.yul\":9552:9555   */\n      dup3\n        /* \"#utility.yul\":9548:9560   */\n      add\n        /* \"#utility.yul\":9541:9560   */\n      swap1\n      pop\n        /* \"#utility.yul\":9200:9566   */\n      swap2\n      swap1\n      pop\n      jump\t// out\n        /* \"#utility.yul\":9572:9991   */\n    tag_52:\n        /* \"#utility.yul\":9738:9742   */\n      0x00\n        /* \"#utility.yul\":9776:9778   */\n      0x20\n        /* \"#utility.yul\":9765:9774   */\n      dup3\n        /* \"#utility.yul\":9761:9779   */\n      add\n        /* \"#utility.yul\":9753:9779   */\n      swap1\n      pop\n        /* \"#utility.yul\":9825:9834   */\n      dup2\n        /* \"#utility.yul\":9819:9823   */\n      dup2\n        /* \"#utility.yul\":9815:9835   */\n      sub\n        /* \"#utility.yul\":9811:9812   */\n      0x00\n        /* \"#utility.yul\":9800:9809   */\n      dup4\n        /* \"#utility.yul\":9796:9813   */\n      add\n        /* \"#utility.yul\":9789:9836   */\n      mstore\n        /* \"#utility.yul\":9853:9984   */\n      tag_189\n        /* \"#utility.yul\":9979:9983   */\n      dup2\n        /* \"#utility.yul\":9853:9984   */\n      tag_90\n      jump\t// in\n    tag_189:\n        /* \"#utility.yul\":9845:9984   */\n      swap1\n      pop\n        /* \"#utility.yul\":9572:9991   */\n      swap2\n      swap1\n      pop\n      jump\t// out\n\n    auxdata: 0xa264697066735822122057a73d2046a5f6ec31b296e676e1643c7f6fc1bdc07a74cf5c86523aa22f37e264736f6c63430008090033\n}\n",
				"bytecode": {
					"linkReferences": {},
					"object": "608060405234801561001057600080fd5b5033600060016101000a81548173ffffffffffffffffffffffffffffffffffffffff021916908373ffffffffffffffffffffffffffffffffffffffff16021790555061092c806100616000396000f3fe608060405234801561001057600080fd5b50600436106100575760003560e01c806307f93f171461005c5780631b54ac80146100785780632b23461f146100945780638da5cb5b146100c4578063ec73cab5146100e2575b600080fd5b61007660048036038101906100719190610587565b610100565b005b610092600480360381019061008d91906105f6565b6102b3565b005b6100ae60048036038101906100a99190610636565b610383565b6040516100bb9190610672565b60405180910390f35b6100cc61039b565b6040516100d991906106ce565b60405180910390f35b6100ea6103c1565b6040516100f79190610760565b60405180910390f35b60011515600260003373ffffffffffffffffffffffffffffffffffffffff1673ffffffffffffffffffffffffffffffffffffffff16815260200190815260200160002060009054906101000a900460ff1615151415610194576040517f08c379a000000000000000000000000000000000000000000000000000000000815260040161018b906107fe565b60405180910390fd5b6040518060400160405280600481526020017f4d616c650000000000000000000000000000000000000000000000000000000081525080519060200120828051906020012014156102ae57600260048111156101f3576101f26106e9565b5b816004811115610206576102056106e9565b5b14610246576040517f08c379a000000000000000000000000000000000000000000000000000000000815260040161023d9061086a565b60405180910390fd5b6000600481111561025a576102596106e9565b5b81600481111561026d5761026c6106e9565b5b146102ad576040517f08c379a00000000000000000000000000000000000000000000000000000000081526004016102a49061086a565b60405180910390fd5b5b505050565b600060019054906101000a900473ffffffffffffffffffffffffffffffffffffffff1673ffffffffffffffffffffffffffffffffffffffff163373ffffffffffffffffffffffffffffffffffffffff1614610343576040517f08c379a000000000000000000000000000000000000000000000000000000000815260040161033a906108d6565b60405180910390fd5b806001600084600481111561035b5761035a6106e9565b5b600481111561036d5761036c6106e9565b5b8152602001908152602001600020819055505050565b60016020528060005260406000206000915090505481565b600060019054906101000a900473ffffffffffffffffffffffffffffffffffffffff1681565b60008054906101000a900460ff1681565b6000604051905090565b600080fd5b600080fd5b6000819050919050565b6103f9816103e6565b811461040457600080fd5b50565b600081359050610416816103f0565b92915050565b600080fd5b600080fd5b6000601f19601f8301169050919050565b7f4e487b7100000000000000000000000000000000000000000000000000000000600052604160045260246000fd5b61046f82610426565b810181811067ffffffffffffffff8211171561048e5761048d610437565b5b80604052505050565b60006104a16103d2565b90506104ad8282610466565b919050565b600067ffffffffffffffff8211156104cd576104cc610437565b5b6104d682610426565b9050602081019050919050565b82818337600083830152505050565b6000610505610500846104b2565b610497565b90508281526020810184848401111561052157610520610421565b5b61052c8482856104e3565b509392505050565b600082601f8301126105495761054861041c565b5b81356105598482602086016104f2565b91505092915050565b6005811061056f57600080fd5b50565b60008135905061058181610562565b92915050565b6000806000606084860312156105a05761059f6103dc565b5b60006105ae86828701610407565b935050602084013567ffffffffffffffff8111156105cf576105ce6103e1565b5b6105db86828701610534565b92505060406105ec86828701610572565b9150509250925092565b6000806040838503121561060d5761060c6103dc565b5b600061061b85828601610572565b925050602061062c85828601610407565b9150509250929050565b60006020828403121561064c5761064b6103dc565b5b600061065a84828501610572565b91505092915050565b61066c816103e6565b82525050565b60006020820190506106876000830184610663565b92915050565b600073ffffffffffffffffffffffffffffffffffffffff82169050919050565b60006106b88261068d565b9050919050565b6106c8816106ad565b82525050565b60006020820190506106e360008301846106bf565b92915050565b7f4e487b7100000000000000000000000000000000000000000000000000000000600052602160045260246000fd5b60058110610729576107286106e9565b5b50565b600081905061073a82610718565b919050565b600061074a8261072c565b9050919050565b61075a8161073f565b82525050565b60006020820190506107756000830184610751565b92915050565b600082825260208201905092915050565b7f596f7520616c7265616479206861766520626f72726f7765642074686520616e60008201527f696d616c00000000000000000000000000000000000000000000000000000000602082015250565b60006107e860248361077b565b91506107f38261078c565b604082019050919050565b60006020820190508181036000830152610817816107db565b9050919050565b7f596f752063616e206f6e6c792062757920646f67206f72206669736800000000600082015250565b6000610854601c8361077b565b915061085f8261081e565b602082019050919050565b6000602082019050818103600083015261088381610847565b9050919050565b7f4f6e6c79206f776e65722063616e2067697665207368656c7465722000000000600082015250565b60006108c0601c8361077b565b91506108cb8261088a565b602082019050919050565b600060208201905081810360008301526108ef816108b3565b905091905056fea264697066735822122057a73d2046a5f6ec31b296e676e1643c7f6fc1bdc07a74cf5c86523aa22f37e264736f6c63430008090033",
					"opcodes": "PUSH1 0x80 PUSH1 0x40 MSTORE CALLVALUE DUP1 ISZERO PUSH2 0x10 JUMPI PUSH1 0x0 DUP1 REVERT JUMPDEST POP CALLER PUSH1 0x0 PUSH1 0x1 PUSH2 0x100 EXP DUP2 SLOAD DUP2 PUSH20 0xFFFFFFFFFFFFFFFFFFFFFFFFFFFFFFFFFFFFFFFF MUL NOT AND SWAP1 DUP4 PUSH20 0xFFFFFFFFFFFFFFFFFFFFFFFFFFFFFFFFFFFFFFFF AND MUL OR SWAP1 SSTORE POP PUSH2 0x92C DUP1 PUSH2 0x61 PUSH1 0x0 CODECOPY PUSH1 0x0 RETURN INVALID PUSH1 0x80 PUSH1 0x40 MSTORE CALLVALUE DUP1 ISZERO PUSH2 0x10 JUMPI PUSH1 0x0 DUP1 REVERT JUMPDEST POP PUSH1 0x4 CALLDATASIZE LT PUSH2 0x57 JUMPI PUSH1 0x0 CALLDATALOAD PUSH1 0xE0 SHR DUP1 PUSH4 0x7F93F17 EQ PUSH2 0x5C JUMPI DUP1 PUSH4 0x1B54AC80 EQ PUSH2 0x78 JUMPI DUP1 PUSH4 0x2B23461F EQ PUSH2 0x94 JUMPI DUP1 PUSH4 0x8DA5CB5B EQ PUSH2 0xC4 JUMPI DUP1 PUSH4 0xEC73CAB5 EQ PUSH2 0xE2 JUMPI JUMPDEST PUSH1 0x0 DUP1 REVERT JUMPDEST PUSH2 0x76 PUSH1 0x4 DUP1 CALLDATASIZE SUB DUP2 ADD SWAP1 PUSH2 0x71 SWAP2 SWAP1 PUSH2 0x587 JUMP JUMPDEST PUSH2 0x100 JUMP JUMPDEST STOP JUMPDEST PUSH2 0x92 PUSH1 0x4 DUP1 CALLDATASIZE SUB DUP2 ADD SWAP1 PUSH2 0x8D SWAP2 SWAP1 PUSH2 0x5F6 JUMP JUMPDEST PUSH2 0x2B3 JUMP JUMPDEST STOP JUMPDEST PUSH2 0xAE PUSH1 0x4 DUP1 CALLDATASIZE SUB DUP2 ADD SWAP1 PUSH2 0xA9 SWAP2 SWAP1 PUSH2 0x636 JUMP JUMPDEST PUSH2 0x383 JUMP JUMPDEST PUSH1 0x40 MLOAD PUSH2 0xBB SWAP2 SWAP1 PUSH2 0x672 JUMP JUMPDEST PUSH1 0x40 MLOAD DUP1 SWAP2 SUB SWAP1 RETURN JUMPDEST PUSH2 0xCC PUSH2 0x39B JUMP JUMPDEST PUSH1 0x40 MLOAD PUSH2 0xD9 SWAP2 SWAP1 PUSH2 0x6CE JUMP JUMPDEST PUSH1 0x40 MLOAD DUP1 SWAP2 SUB SWAP1 RETURN JUMPDEST PUSH2 0xEA PUSH2 0x3C1 JUMP JUMPDEST PUSH1 0x40 MLOAD PUSH2 0xF7 SWAP2 SWAP1 PUSH2 0x760 JUMP JUMPDEST PUSH1 0x40 MLOAD DUP1 SWAP2 SUB SWAP1 RETURN JUMPDEST PUSH1 0x1 ISZERO ISZERO PUSH1 0x2 PUSH1 0x0 CALLER PUSH20 0xFFFFFFFFFFFFFFFFFFFFFFFFFFFFFFFFFFFFFFFF AND PUSH20 0xFFFFFFFFFFFFFFFFFFFFFFFFFFFFFFFFFFFFFFFF AND DUP2 MSTORE PUSH1 0x20 ADD SWAP1 DUP2 MSTORE PUSH1 0x20 ADD PUSH1 0x0 KECCAK256 PUSH1 0x0 SWAP1 SLOAD SWAP1 PUSH2 0x100 EXP SWAP1 DIV PUSH1 0xFF AND ISZERO ISZERO EQ ISZERO PUSH2 0x194 JUMPI PUSH1 0x40 MLOAD PUSH32 0x8C379A000000000000000000000000000000000000000000000000000000000 DUP2 MSTORE PUSH1 0x4 ADD PUSH2 0x18B SWAP1 PUSH2 0x7FE JUMP JUMPDEST PUSH1 0x40 MLOAD DUP1 SWAP2 SUB SWAP1 REVERT JUMPDEST PUSH1 0x40 MLOAD DUP1 PUSH1 0x40 ADD PUSH1 0x40 MSTORE DUP1 PUSH1 0x4 DUP2 MSTORE PUSH1 0x20 ADD PUSH32 0x4D616C6500000000000000000000000000000000000000000000000000000000 DUP2 MSTORE POP DUP1 MLOAD SWAP1 PUSH1 0x20 ADD KECCAK256 DUP3 DUP1 MLOAD SWAP1 PUSH1 0x20 ADD KECCAK256 EQ ISZERO PUSH2 0x2AE JUMPI PUSH1 0x2 PUSH1 0x4 DUP2 GT ISZERO PUSH2 0x1F3 JUMPI PUSH2 0x1F2 PUSH2 0x6E9 JUMP JUMPDEST JUMPDEST DUP2 PUSH1 0x4 DUP2 GT ISZERO PUSH2 0x206 JUMPI PUSH2 0x205 PUSH2 0x6E9 JUMP JUMPDEST JUMPDEST EQ PUSH2 0x246 JUMPI PUSH1 0x40 MLOAD PUSH32 0x8C379A000000000000000000000000000000000000000000000000000000000 DUP2 MSTORE PUSH1 0x4 ADD PUSH2 0x23D SWAP1 PUSH2 0x86A JUMP JUMPDEST PUSH1 0x40 MLOAD DUP1 SWAP2 SUB SWAP1 REVERT JUMPDEST PUSH1 0x0 PUSH1 0x4 DUP2 GT ISZERO PUSH2 0x25A JUMPI PUSH2 0x259 PUSH2 0x6E9 JUMP JUMPDEST JUMPDEST DUP2 PUSH1 0x4 DUP2 GT ISZERO PUSH2 0x26D JUMPI PUSH2 0x26C PUSH2 0x6E9 JUMP JUMPDEST JUMPDEST EQ PUSH2 0x2AD JUMPI PUSH1 0x40 MLOAD PUSH32 0x8C379A000000000000000000000000000000000000000000000000000000000 DUP2 MSTORE PUSH1 0x4 ADD PUSH2 0x2A4 SWAP1 PUSH2 0x86A JUMP JUMPDEST PUSH1 0x40 MLOAD DUP1 SWAP2 SUB SWAP1 REVERT JUMPDEST JUMPDEST POP POP POP JUMP JUMPDEST PUSH1 0x0 PUSH1 0x1 SWAP1 SLOAD SWAP1 PUSH2 0x100 EXP SWAP1 DIV PUSH20 0xFFFFFFFFFFFFFFFFFFFFFFFFFFFFFFFFFFFFFFFF AND PUSH20 0xFFFFFFFFFFFFFFFFFFFFFFFFFFFFFFFFFFFFFFFF AND CALLER PUSH20 0xFFFFFFFFFFFFFFFFFFFFFFFFFFFFFFFFFFFFFFFF AND EQ PUSH2 0x343 JUMPI PUSH1 0x40 MLOAD PUSH32 0x8C379A000000000000000000000000000000000000000000000000000000000 DUP2 MSTORE PUSH1 0x4 ADD PUSH2 0x33A SWAP1 PUSH2 0x8D6 JUMP JUMPDEST PUSH1 0x40 MLOAD DUP1 SWAP2 SUB SWAP1 REVERT JUMPDEST DUP1 PUSH1 0x1 PUSH1 0x0 DUP5 PUSH1 0x4 DUP2 GT ISZERO PUSH2 0x35B JUMPI PUSH2 0x35A PUSH2 0x6E9 JUMP JUMPDEST JUMPDEST PUSH1 0x4 DUP2 GT ISZERO PUSH2 0x36D JUMPI PUSH2 0x36C PUSH2 0x6E9 JUMP JUMPDEST JUMPDEST DUP2 MSTORE PUSH1 0x20 ADD SWAP1 DUP2 MSTORE PUSH1 0x20 ADD PUSH1 0x0 KECCAK256 DUP2 SWAP1 SSTORE POP POP POP JUMP JUMPDEST PUSH1 0x1 PUSH1 0x20 MSTORE DUP1 PUSH1 0x0 MSTORE PUSH1 0x40 PUSH1 0x0 KECCAK256 PUSH1 0x0 SWAP2 POP SWAP1 POP SLOAD DUP2 JUMP JUMPDEST PUSH1 0x0 PUSH1 0x1 SWAP1 SLOAD SWAP1 PUSH2 0x100 EXP SWAP1 DIV PUSH20 0xFFFFFFFFFFFFFFFFFFFFFFFFFFFFFFFFFFFFFFFF AND DUP2 JUMP JUMPDEST PUSH1 0x0 DUP1 SLOAD SWAP1 PUSH2 0x100 EXP SWAP1 DIV PUSH1 0xFF AND DUP2 JUMP JUMPDEST PUSH1 0x0 PUSH1 0x40 MLOAD SWAP1 POP SWAP1 JUMP JUMPDEST PUSH1 0x0 DUP1 REVERT JUMPDEST PUSH1 0x0 DUP1 REVERT JUMPDEST PUSH1 0x0 DUP2 SWAP1 POP SWAP2 SWAP1 POP JUMP JUMPDEST PUSH2 0x3F9 DUP2 PUSH2 0x3E6 JUMP JUMPDEST DUP2 EQ PUSH2 0x404 JUMPI PUSH1 0x0 DUP1 REVERT JUMPDEST POP JUMP JUMPDEST PUSH1 0x0 DUP2 CALLDATALOAD SWAP1 POP PUSH2 0x416 DUP2 PUSH2 0x3F0 JUMP JUMPDEST SWAP3 SWAP2 POP POP JUMP JUMPDEST PUSH1 0x0 DUP1 REVERT JUMPDEST PUSH1 0x0 DUP1 REVERT JUMPDEST PUSH1 0x0 PUSH1 0x1F NOT PUSH1 0x1F DUP4 ADD AND SWAP1 POP SWAP2 SWAP1 POP JUMP JUMPDEST PUSH32 0x4E487B7100000000000000000000000000000000000000000000000000000000 PUSH1 0x0 MSTORE PUSH1 0x41 PUSH1 0x4 MSTORE PUSH1 0x24 PUSH1 0x0 REVERT JUMPDEST PUSH2 0x46F DUP3 PUSH2 0x426 JUMP JUMPDEST DUP2 ADD DUP2 DUP2 LT PUSH8 0xFFFFFFFFFFFFFFFF DUP3 GT OR ISZERO PUSH2 0x48E JUMPI PUSH2 0x48D PUSH2 0x437 JUMP JUMPDEST JUMPDEST DUP1 PUSH1 0x40 MSTORE POP POP POP JUMP JUMPDEST PUSH1 0x0 PUSH2 0x4A1 PUSH2 0x3D2 JUMP JUMPDEST SWAP1 POP PUSH2 0x4AD DUP3 DUP3 PUSH2 0x466 JUMP JUMPDEST SWAP2 SWAP1 POP JUMP JUMPDEST PUSH1 0x0 PUSH8 0xFFFFFFFFFFFFFFFF DUP3 GT ISZERO PUSH2 0x4CD JUMPI PUSH2 0x4CC PUSH2 0x437 JUMP JUMPDEST JUMPDEST PUSH2 0x4D6 DUP3 PUSH2 0x426 JUMP JUMPDEST SWAP1 POP PUSH1 0x20 DUP2 ADD SWAP1 POP SWAP2 SWAP1 POP JUMP JUMPDEST DUP3 DUP2 DUP4 CALLDATACOPY PUSH1 0x0 DUP4 DUP4 ADD MSTORE POP POP POP JUMP JUMPDEST PUSH1 0x0 PUSH2 0x505 PUSH2 0x500 DUP5 PUSH2 0x4B2 JUMP JUMPDEST PUSH2 0x497 JUMP JUMPDEST SWAP1 POP DUP3 DUP2 MSTORE PUSH1 0x20 DUP2 ADD DUP5 DUP5 DUP5 ADD GT ISZERO PUSH2 0x521 JUMPI PUSH2 0x520 PUSH2 0x421 JUMP JUMPDEST JUMPDEST PUSH2 0x52C DUP5 DUP3 DUP6 PUSH2 0x4E3 JUMP JUMPDEST POP SWAP4 SWAP3 POP POP POP JUMP JUMPDEST PUSH1 0x0 DUP3 PUSH1 0x1F DUP4 ADD SLT PUSH2 0x549 JUMPI PUSH2 0x548 PUSH2 0x41C JUMP JUMPDEST JUMPDEST DUP2 CALLDATALOAD PUSH2 0x559 DUP5 DUP3 PUSH1 0x20 DUP7 ADD PUSH2 0x4F2 JUMP JUMPDEST SWAP2 POP POP SWAP3 SWAP2 POP POP JUMP JUMPDEST PUSH1 0x5 DUP2 LT PUSH2 0x56F JUMPI PUSH1 0x0 DUP1 REVERT JUMPDEST POP JUMP JUMPDEST PUSH1 0x0 DUP2 CALLDATALOAD SWAP1 POP PUSH2 0x581 DUP2 PUSH2 0x562 JUMP JUMPDEST SWAP3 SWAP2 POP POP JUMP JUMPDEST PUSH1 0x0 DUP1 PUSH1 0x0 PUSH1 0x60 DUP5 DUP7 SUB SLT ISZERO PUSH2 0x5A0 JUMPI PUSH2 0x59F PUSH2 0x3DC JUMP JUMPDEST JUMPDEST PUSH1 0x0 PUSH2 0x5AE DUP7 DUP3 DUP8 ADD PUSH2 0x407 JUMP JUMPDEST SWAP4 POP POP PUSH1 0x20 DUP5 ADD CALLDATALOAD PUSH8 0xFFFFFFFFFFFFFFFF DUP2 GT ISZERO PUSH2 0x5CF JUMPI PUSH2 0x5CE PUSH2 0x3E1 JUMP JUMPDEST JUMPDEST PUSH2 0x5DB DUP7 DUP3 DUP8 ADD PUSH2 0x534 JUMP JUMPDEST SWAP3 POP POP PUSH1 0x40 PUSH2 0x5EC DUP7 DUP3 DUP8 ADD PUSH2 0x572 JUMP JUMPDEST SWAP2 POP POP SWAP3 POP SWAP3 POP SWAP3 JUMP JUMPDEST PUSH1 0x0 DUP1 PUSH1 0x40 DUP4 DUP6 SUB SLT ISZERO PUSH2 0x60D JUMPI PUSH2 0x60C PUSH2 0x3DC JUMP JUMPDEST JUMPDEST PUSH1 0x0 PUSH2 0x61B DUP6 DUP3 DUP7 ADD PUSH2 0x572 JUMP JUMPDEST SWAP3 POP POP PUSH1 0x20 PUSH2 0x62C DUP6 DUP3 DUP7 ADD PUSH2 0x407 JUMP JUMPDEST SWAP2 POP POP SWAP3 POP SWAP3 SWAP1 POP JUMP JUMPDEST PUSH1 0x0 PUSH1 0x20 DUP3 DUP5 SUB SLT ISZERO PUSH2 0x64C JUMPI PUSH2 0x64B PUSH2 0x3DC JUMP JUMPDEST JUMPDEST PUSH1 0x0 PUSH2 0x65A DUP5 DUP3 DUP6 ADD PUSH2 0x572 JUMP JUMPDEST SWAP2 POP POP SWAP3 SWAP2 POP POP JUMP JUMPDEST PUSH2 0x66C DUP2 PUSH2 0x3E6 JUMP JUMPDEST DUP3 MSTORE POP POP JUMP JUMPDEST PUSH1 0x0 PUSH1 0x20 DUP3 ADD SWAP1 POP PUSH2 0x687 PUSH1 0x0 DUP4 ADD DUP5 PUSH2 0x663 JUMP JUMPDEST SWAP3 SWAP2 POP POP JUMP JUMPDEST PUSH1 0x0 PUSH20 0xFFFFFFFFFFFFFFFFFFFFFFFFFFFFFFFFFFFFFFFF DUP3 AND SWAP1 POP SWAP2 SWAP1 POP JUMP JUMPDEST PUSH1 0x0 PUSH2 0x6B8 DUP3 PUSH2 0x68D JUMP JUMPDEST SWAP1 POP SWAP2 SWAP1 POP JUMP JUMPDEST PUSH2 0x6C8 DUP2 PUSH2 0x6AD JUMP JUMPDEST DUP3 MSTORE POP POP JUMP JUMPDEST PUSH1 0x0 PUSH1 0x20 DUP3 ADD SWAP1 POP PUSH2 0x6E3 PUSH1 0x0 DUP4 ADD DUP5 PUSH2 0x6BF JUMP JUMPDEST SWAP3 SWAP2 POP POP JUMP JUMPDEST PUSH32 0x4E487B7100000000000000000000000000000000000000000000000000000000 PUSH1 0x0 MSTORE PUSH1 0x21 PUSH1 0x4 MSTORE PUSH1 0x24 PUSH1 0x0 REVERT JUMPDEST PUSH1 0x5 DUP2 LT PUSH2 0x729 JUMPI PUSH2 0x728 PUSH2 0x6E9 JUMP JUMPDEST JUMPDEST POP JUMP JUMPDEST PUSH1 0x0 DUP2 SWAP1 POP PUSH2 0x73A DUP3 PUSH2 0x718 JUMP JUMPDEST SWAP2 SWAP1 POP JUMP JUMPDEST PUSH1 0x0 PUSH2 0x74A DUP3 PUSH2 0x72C JUMP JUMPDEST SWAP1 POP SWAP2 SWAP1 POP JUMP JUMPDEST PUSH2 0x75A DUP2 PUSH2 0x73F JUMP JUMPDEST DUP3 MSTORE POP POP JUMP JUMPDEST PUSH1 0x0 PUSH1 0x20 DUP3 ADD SWAP1 POP PUSH2 0x775 PUSH1 0x0 DUP4 ADD DUP5 PUSH2 0x751 JUMP JUMPDEST SWAP3 SWAP2 POP POP JUMP JUMPDEST PUSH1 0x0 DUP3 DUP3 MSTORE PUSH1 0x20 DUP3 ADD SWAP1 POP SWAP3 SWAP2 POP POP JUMP JUMPDEST PUSH32 0x596F7520616C7265616479206861766520626F72726F7765642074686520616E PUSH1 0x0 DUP3 ADD MSTORE PUSH32 0x696D616C00000000000000000000000000000000000000000000000000000000 PUSH1 0x20 DUP3 ADD MSTORE POP JUMP JUMPDEST PUSH1 0x0 PUSH2 0x7E8 PUSH1 0x24 DUP4 PUSH2 0x77B JUMP JUMPDEST SWAP2 POP PUSH2 0x7F3 DUP3 PUSH2 0x78C JUMP JUMPDEST PUSH1 0x40 DUP3 ADD SWAP1 POP SWAP2 SWAP1 POP JUMP JUMPDEST PUSH1 0x0 PUSH1 0x20 DUP3 ADD SWAP1 POP DUP2 DUP2 SUB PUSH1 0x0 DUP4 ADD MSTORE PUSH2 0x817 DUP2 PUSH2 0x7DB JUMP JUMPDEST SWAP1 POP SWAP2 SWAP1 POP JUMP JUMPDEST PUSH32 0x596F752063616E206F6E6C792062757920646F67206F72206669736800000000 PUSH1 0x0 DUP3 ADD MSTORE POP JUMP JUMPDEST PUSH1 0x0 PUSH2 0x854 PUSH1 0x1C DUP4 PUSH2 0x77B JUMP JUMPDEST SWAP2 POP PUSH2 0x85F DUP3 PUSH2 0x81E JUMP JUMPDEST PUSH1 0x20 DUP3 ADD SWAP1 POP SWAP2 SWAP1 POP JUMP JUMPDEST PUSH1 0x0 PUSH1 0x20 DUP3 ADD SWAP1 POP DUP2 DUP2 SUB PUSH1 0x0 DUP4 ADD MSTORE PUSH2 0x883 DUP2 PUSH2 0x847 JUMP JUMPDEST SWAP1 POP SWAP2 SWAP1 POP JUMP JUMPDEST PUSH32 0x4F6E6C79206F776E65722063616E2067697665207368656C7465722000000000 PUSH1 0x0 DUP3 ADD MSTORE POP JUMP JUMPDEST PUSH1 0x0 PUSH2 0x8C0 PUSH1 0x1C DUP4 PUSH2 0x77B JUMP JUMPDEST SWAP2 POP PUSH2 0x8CB DUP3 PUSH2 0x88A JUMP JUMPDEST PUSH1 0x20 DUP3 ADD SWAP1 POP SWAP2 SWAP1 POP JUMP JUMPDEST PUSH1 0x0 PUSH1 0x20 DUP3 ADD SWAP1 POP DUP2 DUP2 SUB PUSH1 0x0 DUP4 ADD MSTORE PUSH2 0x8EF DUP2 PUSH2 0x8B3 JUMP JUMPDEST SWAP1 POP SWAP2 SWAP1 POP JUMP INVALID LOG2 PUSH5 0x6970667358 0x22 SLT KECCAK256 JUMPI 0xA7 RETURNDATASIZE KECCAK256 CHAINID 0xA5 0xF6 0xEC BALANCE 0xB2 SWAP7 0xE6 PUSH23 0xE1643C7F6FC1BDC07A74CF5C86523AA22F37E264736F6C PUSH4 0x43000809 STOP CALLER "
				},
				"gasEstimates": {
					"creation": {
						"codeDepositCost": "469600",
						"executionCost": "24821",
						"totalCost": "494421"
					},
					"external": {
						"add(uint8,uint256)": "25000",
						"animalKind()": "2623",
						"animals(uint8)": "2744",
						"buy(uint256,string,uint8)": "infinite",
						"owner()": "2608"
					}
				},
				"methodIdentifiers": {
					"add(uint8,uint256)": "1b54ac80",
					"animalKind()": "ec73cab5",
					"animals(uint8)": "2b23461f",
					"buy(uint256,string,uint8)": "07f93f17",
					"owner()": "8da5cb5b"
				}
			},
			"storageLayout": {
				"storage": [
					{
						"astId": 19,
						"contract": "PetSanctuary.sol:PetSanctuary",
						"label": "animalKind",
						"offset": 0,
						"slot": "0",
						"type": "t_enum(AnimalKind)16"
					},
					{
						"astId": 21,
						"contract": "PetSanctuary.sol:PetSanctuary",
						"label": "owner",
						"offset": 1,
						"slot": "0",
						"type": "t_address"
					},
					{
						"astId": 26,
						"contract": "PetSanctuary.sol:PetSanctuary",
						"label": "animals",
						"offset": 0,
						"slot": "1",
						"type": "t_mapping(t_enum(AnimalKind)16,t_uint256)"
					},
					{
						"astId": 30,
						"contract": "PetSanctuary.sol:PetSanctuary",
						"label": "buyStatus",
						"offset": 0,
						"slot": "2",
						"type": "t_mapping(t_address,t_bool)"
					},
					{
						"astId": 35,
						"contract": "PetSanctuary.sol:PetSanctuary",
						"label": "buyers",
						"offset": 0,
						"slot": "3",
						"type": "t_mapping(t_address,t_struct(Person)10_storage)"
					}
				],
				"types": {
					"t_address": {
						"encoding": "inplace",
						"label": "address",
						"numberOfBytes": "20"
					},
					"t_bool": {
						"encoding": "inplace",
						"label": "bool",
						"numberOfBytes": "1"
					},
					"t_enum(AnimalKind)16": {
						"encoding": "inplace",
						"label": "enum PetSanctuary.AnimalKind",
						"numberOfBytes": "1"
					},
					"t_mapping(t_address,t_bool)": {
						"encoding": "mapping",
						"key": "t_address",
						"label": "mapping(address => bool)",
						"numberOfBytes": "32",
						"value": "t_bool"
					},
					"t_mapping(t_address,t_struct(Person)10_storage)": {
						"encoding": "mapping",
						"key": "t_address",
						"label": "mapping(address => struct Person)",
						"numberOfBytes": "32",
						"value": "t_struct(Person)10_storage"
					},
					"t_mapping(t_enum(AnimalKind)16,t_uint256)": {
						"encoding": "mapping",
						"key": "t_enum(AnimalKind)16",
						"label": "mapping(enum PetSanctuary.AnimalKind => uint256)",
						"numberOfBytes": "32",
						"value": "t_uint256"
					},
					"t_string_storage": {
						"encoding": "bytes",
						"label": "string",
						"numberOfBytes": "32"
					},
					"t_struct(Person)10_storage": {
						"encoding": "inplace",
						"label": "struct Person",
						"members": [
							{
								"astId": 3,
								"contract": "PetSanctuary.sol:PetSanctuary",
								"label": "age",
								"offset": 0,
								"slot": "0",
								"type": "t_uint256"
							},
							{
								"astId": 5,
								"contract": "PetSanctuary.sol:PetSanctuary",
								"label": "gender",
								"offset": 0,
								"slot": "1",
								"type": "t_string_storage"
							},
							{
								"astId": 7,
								"contract": "PetSanctuary.sol:PetSanctuary",
								"label": "lendTime",
								"offset": 0,
								"slot": "2",
								"type": "t_uint256"
							},
							{
								"astId": 9,
								"contract": "PetSanctuary.sol:PetSanctuary",
								"label": "noOfPieces",
								"offset": 0,
								"slot": "3",
								"type": "t_uint256"
							}
						],
						"numberOfBytes": "128"
					},
					"t_uint256": {
						"encoding": "inplace",
						"label": "uint256",
						"numberOfBytes": "32"
					}
				}
			},
			"userdoc": {
				"kind": "user",
				"methods": {},
				"version": 1
			}
		}
	}
}