{
	"Bank.sol": {
		"Bank": {
			"abi": [
				{
					"inputs": [],
					"stateMutability": "payable",
					"type": "constructor"
				},
				{
					"anonymous": false,
					"inputs": [
						{
							"indexed": false,
							"internalType": "address",
							"name": "_to",
							"type": "address"
						},
						{
							"indexed": false,
							"internalType": "uint256",
							"name": "balance",
							"type": "uint256"
						}
					],
					"name": "depositMade",
					"type": "event"
				},
				{
					"inputs": [
						{
							"internalType": "address",
							"name": "_to",
							"type": "address"
						}
					],
					"name": "depositMoney",
					"outputs": [
						{
							"internalType": "uint256",
							"name": "",
							"type": "uint256"
						}
					],
					"stateMutability": "payable",
					"type": "function"
				},
				{
					"inputs": [],
					"name": "getAccountBalance",
					"outputs": [
						{
							"internalType": "uint256",
							"name": "",
							"type": "uint256"
						}
					],
					"stateMutability": "view",
					"type": "function"
				},
				{
					"inputs": [],
					"name": "openAccount",
					"outputs": [
						{
							"internalType": "uint256",
							"name": "",
							"type": "uint256"
						}
					],
					"stateMutability": "payable",
					"type": "function"
				},
				{
					"inputs": [
						{
							"internalType": "uint256",
							"name": "withDrawAmount",
							"type": "uint256"
						}
					],
					"name": "withDrawMoney",
					"outputs": [
						{
							"internalType": "uint256",
							"name": "",
							"type": "uint256"
						}
					],
					"stateMutability": "payable",
					"type": "function"
				}
			],
			"devdoc": {
				"kind": "dev",
				"methods": {},
				"version": 1
			},
			"evm": {
				"assembly": "    /* \"Bank.sol\":71:1166  contract Bank{... */\n  mstore(0x40, 0x80)\n    /* \"Bank.sol\":272:280  15 ether */\n  0xd02ab486cedc0000\n    /* \"Bank.sol\":259:268  msg.value */\n  callvalue\n    /* \"Bank.sol\":259:280  msg.value == 15 ether */\n  eq\n    /* \"Bank.sol\":251:330  require(msg.value == 15 ether, 'Initial 15 ether required for contract to run') */\n  tag_3\n  jumpi\n  mload(0x40)\n  0x08c379a000000000000000000000000000000000000000000000000000000000\n  dup2\n  mstore\n  0x04\n  add\n  tag_4\n  swap1\n  tag_5\n  jump\t// in\ntag_4:\n  mload(0x40)\n  dup1\n  swap2\n  sub\n  swap1\n  revert\ntag_3:\n    /* \"Bank.sol\":346:356  msg.sender */\n  caller\n    /* \"Bank.sol\":340:345  owner */\n  0x02\n  0x00\n    /* \"Bank.sol\":340:356  owner=msg.sender */\n  0x0100\n  exp\n  dup2\n  sload\n  dup2\n  0xffffffffffffffffffffffffffffffffffffffff\n  mul\n  not\n  and\n  swap1\n  dup4\n  0xffffffffffffffffffffffffffffffffffffffff\n  and\n  mul\n  or\n  swap1\n  sstore\n  pop\n    /* \"Bank.sol\":71:1166  contract Bank{... */\n  jump(tag_6)\n    /* \"#utility.yul\":7:176   */\ntag_7:\n    /* \"#utility.yul\":91:102   */\n  0x00\n    /* \"#utility.yul\":125:131   */\n  dup3\n    /* \"#utility.yul\":120:123   */\n  dup3\n    /* \"#utility.yul\":113:132   */\n  mstore\n    /* \"#utility.yul\":165:169   */\n  0x20\n    /* \"#utility.yul\":160:163   */\n  dup3\n    /* \"#utility.yul\":156:170   */\n  add\n    /* \"#utility.yul\":141:170   */\n  swap1\n  pop\n    /* \"#utility.yul\":7:176   */\n  swap3\n  swap2\n  pop\n  pop\n  jump\t// out\n    /* \"#utility.yul\":182:414   */\ntag_8:\n    /* \"#utility.yul\":322:356   */\n  0x496e697469616c20313520657468657220726571756972656420666f7220636f\n    /* \"#utility.yul\":318:319   */\n  0x00\n    /* \"#utility.yul\":310:316   */\n  dup3\n    /* \"#utility.yul\":306:320   */\n  add\n    /* \"#utility.yul\":299:357   */\n  mstore\n    /* \"#utility.yul\":391:406   */\n  0x6e747261637420746f2072756e00000000000000000000000000000000000000\n    /* \"#utility.yul\":386:388   */\n  0x20\n    /* \"#utility.yul\":378:384   */\n  dup3\n    /* \"#utility.yul\":374:389   */\n  add\n    /* \"#utility.yul\":367:407   */\n  mstore\n    /* \"#utility.yul\":182:414   */\n  pop\n  jump\t// out\n    /* \"#utility.yul\":420:786   */\ntag_9:\n    /* \"#utility.yul\":562:565   */\n  0x00\n    /* \"#utility.yul\":583:650   */\n  tag_14\n    /* \"#utility.yul\":647:649   */\n  0x2d\n    /* \"#utility.yul\":642:645   */\n  dup4\n    /* \"#utility.yul\":583:650   */\n  tag_7\n  jump\t// in\ntag_14:\n    /* \"#utility.yul\":576:650   */\n  swap2\n  pop\n    /* \"#utility.yul\":659:752   */\n  tag_15\n    /* \"#utility.yul\":748:751   */\n  dup3\n    /* \"#utility.yul\":659:752   */\n  tag_8\n  jump\t// in\ntag_15:\n    /* \"#utility.yul\":777:779   */\n  0x40\n    /* \"#utility.yul\":772:775   */\n  dup3\n    /* \"#utility.yul\":768:780   */\n  add\n    /* \"#utility.yul\":761:780   */\n  swap1\n  pop\n    /* \"#utility.yul\":420:786   */\n  swap2\n  swap1\n  pop\n  jump\t// out\n    /* \"#utility.yul\":792:1211   */\ntag_5:\n    /* \"#utility.yul\":958:962   */\n  0x00\n    /* \"#utility.yul\":996:998   */\n  0x20\n    /* \"#utility.yul\":985:994   */\n  dup3\n    /* \"#utility.yul\":981:999   */\n  add\n    /* \"#utility.yul\":973:999   */\n  swap1\n  pop\n    /* \"#utility.yul\":1045:1054   */\n  dup2\n    /* \"#utility.yul\":1039:1043   */\n  dup2\n    /* \"#utility.yul\":1035:1055   */\n  sub\n    /* \"#utility.yul\":1031:1032   */\n  0x00\n    /* \"#utility.yul\":1020:1029   */\n  dup4\n    /* \"#utility.yul\":1016:1033   */\n  add\n    /* \"#utility.yul\":1009:1056   */\n  mstore\n    /* \"#utility.yul\":1073:1204   */\n  tag_17\n    /* \"#utility.yul\":1199:1203   */\n  dup2\n    /* \"#utility.yul\":1073:1204   */\n  tag_9\n  jump\t// in\ntag_17:\n    /* \"#utility.yul\":1065:1204   */\n  swap1\n  pop\n    /* \"#utility.yul\":792:1211   */\n  swap2\n  swap1\n  pop\n  jump\t// out\n    /* \"Bank.sol\":71:1166  contract Bank{... */\ntag_6:\n  dataSize(sub_0)\n  dup1\n  dataOffset(sub_0)\n  0x00\n  codecopy\n  0x00\n  return\nstop\n\nsub_0: assembly {\n        /* \"Bank.sol\":71:1166  contract Bank{... */\n      mstore(0x40, 0x80)\n      jumpi(tag_1, lt(calldatasize, 0x04))\n      shr(0xe0, calldataload(0x00))\n      dup1\n      0x292eb75d\n      eq\n      tag_2\n      jumpi\n      dup1\n      0x4a68533f\n      eq\n      tag_3\n      jumpi\n      dup1\n      0x6896fabf\n      eq\n      tag_4\n      jumpi\n      dup1\n      0x827cc452\n      eq\n      tag_5\n      jumpi\n    tag_1:\n      0x00\n      dup1\n      revert\n        /* \"Bank.sol\":368:627  function openAccount() public payable returns(uint) {... */\n    tag_2:\n      tag_6\n      tag_7\n      jump\t// in\n    tag_6:\n      mload(0x40)\n      tag_8\n      swap2\n      swap1\n      tag_9\n      jump\t// in\n    tag_8:\n      mload(0x40)\n      dup1\n      swap2\n      sub\n      swap1\n      return\n        /* \"Bank.sol\":632:809  function depositMoney(address _to) public payable returns(uint){... */\n    tag_3:\n      tag_10\n      0x04\n      dup1\n      calldatasize\n      sub\n      dup2\n      add\n      swap1\n      tag_11\n      swap2\n      swap1\n      tag_12\n      jump\t// in\n    tag_11:\n      tag_13\n      jump\t// in\n    tag_10:\n      mload(0x40)\n      tag_14\n      swap2\n      swap1\n      tag_9\n      jump\t// in\n    tag_14:\n      mload(0x40)\n      dup1\n      swap2\n      sub\n      swap1\n      return\n        /* \"Bank.sol\":1102:1164  function getAccountBalance() public view returns(uint){... */\n    tag_4:\n      callvalue\n      dup1\n      iszero\n      tag_15\n      jumpi\n      0x00\n      dup1\n      revert\n    tag_15:\n      pop\n      tag_16\n      tag_17\n      jump\t// in\n    tag_16:\n      mload(0x40)\n      tag_18\n      swap2\n      swap1\n      tag_9\n      jump\t// in\n    tag_18:\n      mload(0x40)\n      dup1\n      swap2\n      sub\n      swap1\n      return\n        /* \"Bank.sol\":814:1097  function withDrawMoney(uint withDrawAmount) public payable returns(uint){... */\n    tag_5:\n      tag_19\n      0x04\n      dup1\n      calldatasize\n      sub\n      dup2\n      add\n      swap1\n      tag_20\n      swap2\n      swap1\n      tag_21\n      jump\t// in\n    tag_20:\n      tag_22\n      jump\t// in\n    tag_19:\n      mload(0x40)\n      tag_23\n      swap2\n      swap1\n      tag_9\n      jump\t// in\n    tag_23:\n      mload(0x40)\n      dup1\n      swap2\n      sub\n      swap1\n      return\n        /* \"Bank.sol\":368:627  function openAccount() public payable returns(uint) {... */\n    tag_7:\n        /* \"Bank.sol\":414:418  uint */\n      0x00\n        /* \"Bank.sol\":444:445  3 */\n      0x03\n        /* \"Bank.sol\":433:442  userCount */\n      sload(0x01)\n        /* \"Bank.sol\":433:445  userCount<=3 */\n      gt\n        /* \"Bank.sol\":430:564  if(userCount<=3){... */\n      tag_25\n      jumpi\n        /* \"Bank.sol\":481:488  5 ether */\n      0x4563918244f40000\n        /* \"Bank.sol\":460:467  balance */\n      0x00\n        /* \"Bank.sol\":460:479  balance[msg.sender] */\n      dup1\n        /* \"Bank.sol\":468:478  msg.sender */\n      caller\n        /* \"Bank.sol\":460:479  balance[msg.sender] */\n      0xffffffffffffffffffffffffffffffffffffffff\n      and\n      0xffffffffffffffffffffffffffffffffffffffff\n      and\n      dup2\n      mstore\n      0x20\n      add\n      swap1\n      dup2\n      mstore\n      0x20\n      add\n      0x00\n      keccak256\n        /* \"Bank.sol\":460:488  balance[msg.sender]= 5 ether */\n      dup2\n      swap1\n      sstore\n      pop\n        /* \"Bank.sol\":430:564  if(userCount<=3){... */\n      jump(tag_26)\n    tag_25:\n        /* \"Bank.sol\":546:553  0 ether */\n      0x00\n        /* \"Bank.sol\":526:533  balance */\n      dup1\n        /* \"Bank.sol\":526:545  balance[msg.sender] */\n      0x00\n        /* \"Bank.sol\":534:544  msg.sender */\n      caller\n        /* \"Bank.sol\":526:545  balance[msg.sender] */\n      0xffffffffffffffffffffffffffffffffffffffff\n      and\n      0xffffffffffffffffffffffffffffffffffffffff\n      and\n      dup2\n      mstore\n      0x20\n      add\n      swap1\n      dup2\n      mstore\n      0x20\n      add\n      0x00\n      keccak256\n        /* \"Bank.sol\":526:553  balance[msg.sender]=0 ether */\n      dup2\n      swap1\n      sstore\n      pop\n        /* \"Bank.sol\":430:564  if(userCount<=3){... */\n    tag_26:\n        /* \"Bank.sol\":573:582  userCount */\n      0x01\n      0x00\n        /* \"Bank.sol\":573:584  userCount++ */\n      dup2\n      sload\n      dup1\n      swap3\n      swap2\n      swap1\n      tag_27\n      swap1\n      tag_28\n      jump\t// in\n    tag_27:\n      swap2\n      swap1\n      pop\n      sstore\n      pop\n        /* \"Bank.sol\":601:608  balance */\n      0x00\n        /* \"Bank.sol\":601:620  balance[msg.sender] */\n      dup1\n        /* \"Bank.sol\":609:619  msg.sender */\n      caller\n        /* \"Bank.sol\":601:620  balance[msg.sender] */\n      0xffffffffffffffffffffffffffffffffffffffff\n      and\n      0xffffffffffffffffffffffffffffffffffffffff\n      and\n      dup2\n      mstore\n      0x20\n      add\n      swap1\n      dup2\n      mstore\n      0x20\n      add\n      0x00\n      keccak256\n      sload\n        /* \"Bank.sol\":594:620  return balance[msg.sender] */\n      swap1\n      pop\n        /* \"Bank.sol\":368:627  function openAccount() public payable returns(uint) {... */\n      swap1\n      jump\t// out\n        /* \"Bank.sol\":632:809  function depositMoney(address _to) public payable returns(uint){... */\n    tag_13:\n        /* \"Bank.sol\":690:694  uint */\n      0x00\n        /* \"Bank.sol\":719:728  msg.value */\n      callvalue\n        /* \"Bank.sol\":705:712  balance */\n      0x00\n        /* \"Bank.sol\":705:717  balance[_to] */\n      dup1\n        /* \"Bank.sol\":713:716  _to */\n      dup5\n        /* \"Bank.sol\":705:717  balance[_to] */\n      0xffffffffffffffffffffffffffffffffffffffff\n      and\n      0xffffffffffffffffffffffffffffffffffffffff\n      and\n      dup2\n      mstore\n      0x20\n      add\n      swap1\n      dup2\n      mstore\n      0x20\n      add\n      0x00\n      keccak256\n      0x00\n        /* \"Bank.sol\":705:728  balance[_to]+=msg.value */\n      dup3\n      dup3\n      sload\n      tag_30\n      swap2\n      swap1\n      tag_31\n      jump\t// in\n    tag_30:\n      swap3\n      pop\n      pop\n      dup2\n      swap1\n      sstore\n      pop\n        /* \"Bank.sol\":743:773  depositMade(_to, balance[_to]) */\n      0x14558f60a55f03caac2b3dabdda0b51b20b0e22ce09a2c28cd1dc18e873578e8\n        /* \"Bank.sol\":755:758  _to */\n      dup3\n        /* \"Bank.sol\":760:767  balance */\n      0x00\n        /* \"Bank.sol\":760:772  balance[_to] */\n      dup1\n        /* \"Bank.sol\":768:771  _to */\n      dup6\n        /* \"Bank.sol\":760:772  balance[_to] */\n      0xffffffffffffffffffffffffffffffffffffffff\n      and\n      0xffffffffffffffffffffffffffffffffffffffff\n      and\n      dup2\n      mstore\n      0x20\n      add\n      swap1\n      dup2\n      mstore\n      0x20\n      add\n      0x00\n      keccak256\n      sload\n        /* \"Bank.sol\":743:773  depositMade(_to, balance[_to]) */\n      mload(0x40)\n      tag_32\n      swap3\n      swap2\n      swap1\n      tag_33\n      jump\t// in\n    tag_32:\n      mload(0x40)\n      dup1\n      swap2\n      sub\n      swap1\n      log1\n        /* \"Bank.sol\":790:797  balance */\n      0x00\n        /* \"Bank.sol\":790:802  balance[_to] */\n      dup1\n        /* \"Bank.sol\":798:801  _to */\n      dup4\n        /* \"Bank.sol\":790:802  balance[_to] */\n      0xffffffffffffffffffffffffffffffffffffffff\n      and\n      0xffffffffffffffffffffffffffffffffffffffff\n      and\n      dup2\n      mstore\n      0x20\n      add\n      swap1\n      dup2\n      mstore\n      0x20\n      add\n      0x00\n      keccak256\n      sload\n        /* \"Bank.sol\":783:802  return balance[_to] */\n      swap1\n      pop\n        /* \"Bank.sol\":632:809  function depositMoney(address _to) public payable returns(uint){... */\n      swap2\n      swap1\n      pop\n      jump\t// out\n        /* \"Bank.sol\":1102:1164  function getAccountBalance() public view returns(uint){... */\n    tag_17:\n        /* \"Bank.sol\":1151:1155  uint */\n      0x00\n        /* \"Bank.sol\":1102:1164  function getAccountBalance() public view returns(uint){... */\n      swap1\n      jump\t// out\n        /* \"Bank.sol\":814:1097  function withDrawMoney(uint withDrawAmount) public payable returns(uint){... */\n    tag_22:\n        /* \"Bank.sol\":881:885  uint */\n      0x00\n        /* \"Bank.sol\":917:924  balance */\n      dup1\n        /* \"Bank.sol\":917:936  balance[msg.sender] */\n      0x00\n        /* \"Bank.sol\":925:935  msg.sender */\n      caller\n        /* \"Bank.sol\":917:936  balance[msg.sender] */\n      0xffffffffffffffffffffffffffffffffffffffff\n      and\n      0xffffffffffffffffffffffffffffffffffffffff\n      and\n      dup2\n      mstore\n      0x20\n      add\n      swap1\n      dup2\n      mstore\n      0x20\n      add\n      0x00\n      keccak256\n      sload\n        /* \"Bank.sol\":899:913  withDrawAmount */\n      dup3\n        /* \"Bank.sol\":899:936  withDrawAmount <= balance[msg.sender] */\n      gt\n        /* \"Bank.sol\":896:1055  if(withDrawAmount <= balance[msg.sender]){... */\n      tag_36\n      jumpi\n        /* \"Bank.sol\":972:986  withDrawAmount */\n      dup2\n        /* \"Bank.sol\":951:958  balance */\n      0x00\n        /* \"Bank.sol\":951:970  balance[msg.sender] */\n      dup1\n        /* \"Bank.sol\":959:969  msg.sender */\n      caller\n        /* \"Bank.sol\":951:970  balance[msg.sender] */\n      0xffffffffffffffffffffffffffffffffffffffff\n      and\n      0xffffffffffffffffffffffffffffffffffffffff\n      and\n      dup2\n      mstore\n      0x20\n      add\n      swap1\n      dup2\n      mstore\n      0x20\n      add\n      0x00\n      keccak256\n      0x00\n        /* \"Bank.sol\":951:986  balance[msg.sender]-=withDrawAmount */\n      dup3\n      dup3\n      sload\n      tag_37\n      swap2\n      swap1\n      tag_38\n      jump\t// in\n    tag_37:\n      swap3\n      pop\n      pop\n      dup2\n      swap1\n      sstore\n      pop\n        /* \"Bank.sol\":1008:1018  msg.sender */\n      caller\n        /* \"Bank.sol\":1000:1028  payable(msg.sender).transfer */\n      0xffffffffffffffffffffffffffffffffffffffff\n      and\n        /* \"Bank.sol\":1000:1044  payable(msg.sender).transfer(withDrawAmount) */\n      0x08fc\n        /* \"Bank.sol\":1029:1043  withDrawAmount */\n      dup4\n        /* \"Bank.sol\":1000:1044  payable(msg.sender).transfer(withDrawAmount) */\n      swap1\n      dup2\n      iszero\n      mul\n      swap1\n      mload(0x40)\n      0x00\n      mload(0x40)\n      dup1\n      dup4\n      sub\n      dup2\n      dup6\n      dup9\n      dup9\n      call\n      swap4\n      pop\n      pop\n      pop\n      pop\n      iszero\n      dup1\n      iszero\n      tag_40\n      jumpi\n      returndatasize\n      0x00\n      dup1\n      returndatacopy\n      revert(0x00, returndatasize)\n    tag_40:\n      pop\n        /* \"Bank.sol\":896:1055  if(withDrawAmount <= balance[msg.sender]){... */\n    tag_36:\n        /* \"Bank.sol\":1071:1078  balance */\n      0x00\n        /* \"Bank.sol\":1071:1090  balance[msg.sender] */\n      dup1\n        /* \"Bank.sol\":1079:1089  msg.sender */\n      caller\n        /* \"Bank.sol\":1071:1090  balance[msg.sender] */\n      0xffffffffffffffffffffffffffffffffffffffff\n      and\n      0xffffffffffffffffffffffffffffffffffffffff\n      and\n      dup2\n      mstore\n      0x20\n      add\n      swap1\n      dup2\n      mstore\n      0x20\n      add\n      0x00\n      keccak256\n      sload\n        /* \"Bank.sol\":1064:1090  return balance[msg.sender] */\n      swap1\n      pop\n        /* \"Bank.sol\":814:1097  function withDrawMoney(uint withDrawAmount) public payable returns(uint){... */\n      swap2\n      swap1\n      pop\n      jump\t// out\n        /* \"#utility.yul\":7:84   */\n    tag_41:\n        /* \"#utility.yul\":44:51   */\n      0x00\n        /* \"#utility.yul\":73:78   */\n      dup2\n        /* \"#utility.yul\":62:78   */\n      swap1\n      pop\n        /* \"#utility.yul\":7:84   */\n      swap2\n      swap1\n      pop\n      jump\t// out\n        /* \"#utility.yul\":90:208   */\n    tag_42:\n        /* \"#utility.yul\":177:201   */\n      tag_57\n        /* \"#utility.yul\":195:200   */\n      dup2\n        /* \"#utility.yul\":177:201   */\n      tag_41\n      jump\t// in\n    tag_57:\n        /* \"#utility.yul\":172:175   */\n      dup3\n        /* \"#utility.yul\":165:202   */\n      mstore\n        /* \"#utility.yul\":90:208   */\n      pop\n      pop\n      jump\t// out\n        /* \"#utility.yul\":214:436   */\n    tag_9:\n        /* \"#utility.yul\":307:311   */\n      0x00\n        /* \"#utility.yul\":345:347   */\n      0x20\n        /* \"#utility.yul\":334:343   */\n      dup3\n        /* \"#utility.yul\":330:348   */\n      add\n        /* \"#utility.yul\":322:348   */\n      swap1\n      pop\n        /* \"#utility.yul\":358:429   */\n      tag_59\n        /* \"#utility.yul\":426:427   */\n      0x00\n        /* \"#utility.yul\":415:424   */\n      dup4\n        /* \"#utility.yul\":411:428   */\n      add\n        /* \"#utility.yul\":402:408   */\n      dup5\n        /* \"#utility.yul\":358:429   */\n      tag_42\n      jump\t// in\n    tag_59:\n        /* \"#utility.yul\":214:436   */\n      swap3\n      swap2\n      pop\n      pop\n      jump\t// out\n        /* \"#utility.yul\":523:640   */\n    tag_44:\n        /* \"#utility.yul\":632:633   */\n      0x00\n        /* \"#utility.yul\":629:630   */\n      dup1\n        /* \"#utility.yul\":622:634   */\n      revert\n        /* \"#utility.yul\":769:895   */\n    tag_46:\n        /* \"#utility.yul\":806:813   */\n      0x00\n        /* \"#utility.yul\":846:888   */\n      0xffffffffffffffffffffffffffffffffffffffff\n        /* \"#utility.yul\":839:844   */\n      dup3\n        /* \"#utility.yul\":835:889   */\n      and\n        /* \"#utility.yul\":824:889   */\n      swap1\n      pop\n        /* \"#utility.yul\":769:895   */\n      swap2\n      swap1\n      pop\n      jump\t// out\n        /* \"#utility.yul\":901:997   */\n    tag_47:\n        /* \"#utility.yul\":938:945   */\n      0x00\n        /* \"#utility.yul\":967:991   */\n      tag_65\n        /* \"#utility.yul\":985:990   */\n      dup3\n        /* \"#utility.yul\":967:991   */\n      tag_46\n      jump\t// in\n    tag_65:\n        /* \"#utility.yul\":956:991   */\n      swap1\n      pop\n        /* \"#utility.yul\":901:997   */\n      swap2\n      swap1\n      pop\n      jump\t// out\n        /* \"#utility.yul\":1003:1125   */\n    tag_48:\n        /* \"#utility.yul\":1076:1100   */\n      tag_67\n        /* \"#utility.yul\":1094:1099   */\n      dup2\n        /* \"#utility.yul\":1076:1100   */\n      tag_47\n      jump\t// in\n    tag_67:\n        /* \"#utility.yul\":1069:1074   */\n      dup2\n        /* \"#utility.yul\":1066:1101   */\n      eq\n        /* \"#utility.yul\":1056:1119   */\n      tag_68\n      jumpi\n        /* \"#utility.yul\":1115:1116   */\n      0x00\n        /* \"#utility.yul\":1112:1113   */\n      dup1\n        /* \"#utility.yul\":1105:1117   */\n      revert\n        /* \"#utility.yul\":1056:1119   */\n    tag_68:\n        /* \"#utility.yul\":1003:1125   */\n      pop\n      jump\t// out\n        /* \"#utility.yul\":1131:1270   */\n    tag_49:\n        /* \"#utility.yul\":1177:1182   */\n      0x00\n        /* \"#utility.yul\":1215:1221   */\n      dup2\n        /* \"#utility.yul\":1202:1222   */\n      calldataload\n        /* \"#utility.yul\":1193:1222   */\n      swap1\n      pop\n        /* \"#utility.yul\":1231:1264   */\n      tag_70\n        /* \"#utility.yul\":1258:1263   */\n      dup2\n        /* \"#utility.yul\":1231:1264   */\n      tag_48\n      jump\t// in\n    tag_70:\n        /* \"#utility.yul\":1131:1270   */\n      swap3\n      swap2\n      pop\n      pop\n      jump\t// out\n        /* \"#utility.yul\":1276:1605   */\n    tag_12:\n        /* \"#utility.yul\":1335:1341   */\n      0x00\n        /* \"#utility.yul\":1384:1386   */\n      0x20\n        /* \"#utility.yul\":1372:1381   */\n      dup3\n        /* \"#utility.yul\":1363:1370   */\n      dup5\n        /* \"#utility.yul\":1359:1382   */\n      sub\n        /* \"#utility.yul\":1355:1387   */\n      slt\n        /* \"#utility.yul\":1352:1471   */\n      iszero\n      tag_72\n      jumpi\n        /* \"#utility.yul\":1390:1469   */\n      tag_73\n      tag_44\n      jump\t// in\n    tag_73:\n        /* \"#utility.yul\":1352:1471   */\n    tag_72:\n        /* \"#utility.yul\":1510:1511   */\n      0x00\n        /* \"#utility.yul\":1535:1588   */\n      tag_74\n        /* \"#utility.yul\":1580:1587   */\n      dup5\n        /* \"#utility.yul\":1571:1577   */\n      dup3\n        /* \"#utility.yul\":1560:1569   */\n      dup6\n        /* \"#utility.yul\":1556:1578   */\n      add\n        /* \"#utility.yul\":1535:1588   */\n      tag_49\n      jump\t// in\n    tag_74:\n        /* \"#utility.yul\":1525:1588   */\n      swap2\n      pop\n        /* \"#utility.yul\":1481:1598   */\n      pop\n        /* \"#utility.yul\":1276:1605   */\n      swap3\n      swap2\n      pop\n      pop\n      jump\t// out\n        /* \"#utility.yul\":1611:1733   */\n    tag_50:\n        /* \"#utility.yul\":1684:1708   */\n      tag_76\n        /* \"#utility.yul\":1702:1707   */\n      dup2\n        /* \"#utility.yul\":1684:1708   */\n      tag_41\n      jump\t// in\n    tag_76:\n        /* \"#utility.yul\":1677:1682   */\n      dup2\n        /* \"#utility.yul\":1674:1709   */\n      eq\n        /* \"#utility.yul\":1664:1727   */\n      tag_77\n      jumpi\n        /* \"#utility.yul\":1723:1724   */\n      0x00\n        /* \"#utility.yul\":1720:1721   */\n      dup1\n        /* \"#utility.yul\":1713:1725   */\n      revert\n        /* \"#utility.yul\":1664:1727   */\n    tag_77:\n        /* \"#utility.yul\":1611:1733   */\n      pop\n      jump\t// out\n        /* \"#utility.yul\":1739:1878   */\n    tag_51:\n        /* \"#utility.yul\":1785:1790   */\n      0x00\n        /* \"#utility.yul\":1823:1829   */\n      dup2\n        /* \"#utility.yul\":1810:1830   */\n      calldataload\n        /* \"#utility.yul\":1801:1830   */\n      swap1\n      pop\n        /* \"#utility.yul\":1839:1872   */\n      tag_79\n        /* \"#utility.yul\":1866:1871   */\n      dup2\n        /* \"#utility.yul\":1839:1872   */\n      tag_50\n      jump\t// in\n    tag_79:\n        /* \"#utility.yul\":1739:1878   */\n      swap3\n      swap2\n      pop\n      pop\n      jump\t// out\n        /* \"#utility.yul\":1884:2213   */\n    tag_21:\n        /* \"#utility.yul\":1943:1949   */\n      0x00\n        /* \"#utility.yul\":1992:1994   */\n      0x20\n        /* \"#utility.yul\":1980:1989   */\n      dup3\n        /* \"#utility.yul\":1971:1978   */\n      dup5\n        /* \"#utility.yul\":1967:1990   */\n      sub\n        /* \"#utility.yul\":1963:1995   */\n      slt\n        /* \"#utility.yul\":1960:2079   */\n      iszero\n      tag_81\n      jumpi\n        /* \"#utility.yul\":1998:2077   */\n      tag_82\n      tag_44\n      jump\t// in\n    tag_82:\n        /* \"#utility.yul\":1960:2079   */\n    tag_81:\n        /* \"#utility.yul\":2118:2119   */\n      0x00\n        /* \"#utility.yul\":2143:2196   */\n      tag_83\n        /* \"#utility.yul\":2188:2195   */\n      dup5\n        /* \"#utility.yul\":2179:2185   */\n      dup3\n        /* \"#utility.yul\":2168:2177   */\n      dup6\n        /* \"#utility.yul\":2164:2186   */\n      add\n        /* \"#utility.yul\":2143:2196   */\n      tag_51\n      jump\t// in\n    tag_83:\n        /* \"#utility.yul\":2133:2196   */\n      swap2\n      pop\n        /* \"#utility.yul\":2089:2206   */\n      pop\n        /* \"#utility.yul\":1884:2213   */\n      swap3\n      swap2\n      pop\n      pop\n      jump\t// out\n        /* \"#utility.yul\":2219:2399   */\n    tag_52:\n        /* \"#utility.yul\":2267:2344   */\n      0x4e487b7100000000000000000000000000000000000000000000000000000000\n        /* \"#utility.yul\":2264:2265   */\n      0x00\n        /* \"#utility.yul\":2257:2345   */\n      mstore\n        /* \"#utility.yul\":2364:2368   */\n      0x11\n        /* \"#utility.yul\":2361:2362   */\n      0x04\n        /* \"#utility.yul\":2354:2369   */\n      mstore\n        /* \"#utility.yul\":2388:2392   */\n      0x24\n        /* \"#utility.yul\":2385:2386   */\n      0x00\n        /* \"#utility.yul\":2378:2393   */\n      revert\n        /* \"#utility.yul\":2405:2638   */\n    tag_28:\n        /* \"#utility.yul\":2444:2447   */\n      0x00\n        /* \"#utility.yul\":2467:2491   */\n      tag_86\n        /* \"#utility.yul\":2485:2490   */\n      dup3\n        /* \"#utility.yul\":2467:2491   */\n      tag_41\n      jump\t// in\n    tag_86:\n        /* \"#utility.yul\":2458:2491   */\n      swap2\n      pop\n        /* \"#utility.yul\":2513:2579   */\n      0xffffffffffffffffffffffffffffffffffffffffffffffffffffffffffffffff\n        /* \"#utility.yul\":2506:2511   */\n      dup3\n        /* \"#utility.yul\":2503:2580   */\n      eq\n        /* \"#utility.yul\":2500:2603   */\n      iszero\n      tag_87\n      jumpi\n        /* \"#utility.yul\":2583:2601   */\n      tag_88\n      tag_52\n      jump\t// in\n    tag_88:\n        /* \"#utility.yul\":2500:2603   */\n    tag_87:\n        /* \"#utility.yul\":2630:2631   */\n      0x01\n        /* \"#utility.yul\":2623:2628   */\n      dup3\n        /* \"#utility.yul\":2619:2632   */\n      add\n        /* \"#utility.yul\":2612:2632   */\n      swap1\n      pop\n        /* \"#utility.yul\":2405:2638   */\n      swap2\n      swap1\n      pop\n      jump\t// out\n        /* \"#utility.yul\":2644:2949   */\n    tag_31:\n        /* \"#utility.yul\":2684:2687   */\n      0x00\n        /* \"#utility.yul\":2703:2723   */\n      tag_90\n        /* \"#utility.yul\":2721:2722   */\n      dup3\n        /* \"#utility.yul\":2703:2723   */\n      tag_41\n      jump\t// in\n    tag_90:\n        /* \"#utility.yul\":2698:2723   */\n      swap2\n      pop\n        /* \"#utility.yul\":2737:2757   */\n      tag_91\n        /* \"#utility.yul\":2755:2756   */\n      dup4\n        /* \"#utility.yul\":2737:2757   */\n      tag_41\n      jump\t// in\n    tag_91:\n        /* \"#utility.yul\":2732:2757   */\n      swap3\n      pop\n        /* \"#utility.yul\":2891:2892   */\n      dup3\n        /* \"#utility.yul\":2823:2889   */\n      0xffffffffffffffffffffffffffffffffffffffffffffffffffffffffffffffff\n        /* \"#utility.yul\":2819:2893   */\n      sub\n        /* \"#utility.yul\":2816:2817   */\n      dup3\n        /* \"#utility.yul\":2813:2894   */\n      gt\n        /* \"#utility.yul\":2810:2917   */\n      iszero\n      tag_92\n      jumpi\n        /* \"#utility.yul\":2897:2915   */\n      tag_93\n      tag_52\n      jump\t// in\n    tag_93:\n        /* \"#utility.yul\":2810:2917   */\n    tag_92:\n        /* \"#utility.yul\":2941:2942   */\n      dup3\n        /* \"#utility.yul\":2938:2939   */\n      dup3\n        /* \"#utility.yul\":2934:2943   */\n      add\n        /* \"#utility.yul\":2927:2943   */\n      swap1\n      pop\n        /* \"#utility.yul\":2644:2949   */\n      swap3\n      swap2\n      pop\n      pop\n      jump\t// out\n        /* \"#utility.yul\":2955:3073   */\n    tag_53:\n        /* \"#utility.yul\":3042:3066   */\n      tag_95\n        /* \"#utility.yul\":3060:3065   */\n      dup2\n        /* \"#utility.yul\":3042:3066   */\n      tag_47\n      jump\t// in\n    tag_95:\n        /* \"#utility.yul\":3037:3040   */\n      dup3\n        /* \"#utility.yul\":3030:3067   */\n      mstore\n        /* \"#utility.yul\":2955:3073   */\n      pop\n      pop\n      jump\t// out\n        /* \"#utility.yul\":3079:3411   */\n    tag_33:\n        /* \"#utility.yul\":3200:3204   */\n      0x00\n        /* \"#utility.yul\":3238:3240   */\n      0x40\n        /* \"#utility.yul\":3227:3236   */\n      dup3\n        /* \"#utility.yul\":3223:3241   */\n      add\n        /* \"#utility.yul\":3215:3241   */\n      swap1\n      pop\n        /* \"#utility.yul\":3251:3322   */\n      tag_97\n        /* \"#utility.yul\":3319:3320   */\n      0x00\n        /* \"#utility.yul\":3308:3317   */\n      dup4\n        /* \"#utility.yul\":3304:3321   */\n      add\n        /* \"#utility.yul\":3295:3301   */\n      dup6\n        /* \"#utility.yul\":3251:3322   */\n      tag_53\n      jump\t// in\n    tag_97:\n        /* \"#utility.yul\":3332:3404   */\n      tag_98\n        /* \"#utility.yul\":3400:3402   */\n      0x20\n        /* \"#utility.yul\":3389:3398   */\n      dup4\n        /* \"#utility.yul\":3385:3403   */\n      add\n        /* \"#utility.yul\":3376:3382   */\n      dup5\n        /* \"#utility.yul\":3332:3404   */\n      tag_42\n      jump\t// in\n    tag_98:\n        /* \"#utility.yul\":3079:3411   */\n      swap4\n      swap3\n      pop\n      pop\n      pop\n      jump\t// out\n        /* \"#utility.yul\":3417:3608   */\n    tag_38:\n        /* \"#utility.yul\":3457:3461   */\n      0x00\n        /* \"#utility.yul\":3477:3497   */\n      tag_100\n        /* \"#utility.yul\":3495:3496   */\n      dup3\n        /* \"#utility.yul\":3477:3497   */\n      tag_41\n      jump\t// in\n    tag_100:\n        /* \"#utility.yul\":3472:3497   */\n      swap2\n      pop\n        /* \"#utility.yul\":3511:3531   */\n      tag_101\n        /* \"#utility.yul\":3529:3530   */\n      dup4\n        /* \"#utility.yul\":3511:3531   */\n      tag_41\n      jump\t// in\n    tag_101:\n        /* \"#utility.yul\":3506:3531   */\n      swap3\n      pop\n        /* \"#utility.yul\":3550:3551   */\n      dup3\n        /* \"#utility.yul\":3547:3548   */\n      dup3\n        /* \"#utility.yul\":3544:3552   */\n      lt\n        /* \"#utility.yul\":3541:3575   */\n      iszero\n      tag_102\n      jumpi\n        /* \"#utility.yul\":3555:3573   */\n      tag_103\n      tag_52\n      jump\t// in\n    tag_103:\n        /* \"#utility.yul\":3541:3575   */\n    tag_102:\n        /* \"#utility.yul\":3600:3601   */\n      dup3\n        /* \"#utility.yul\":3597:3598   */\n      dup3\n        /* \"#utility.yul\":3593:3602   */\n      sub\n        /* \"#utility.yul\":3585:3602   */\n      swap1\n      pop\n        /* \"#utility.yul\":3417:3608   */\n      swap3\n      swap2\n      pop\n      pop\n      jump\t// out\n\n    auxdata: 0xa264697066735822122056fc1585f4742a9cf1c56552e04d84994097b13052a2ee36ff7f0e74b5f3a7dc64736f6c63430008080033\n}\n",
				"bytecode": {
					"linkReferences": {},
					"object": "608060405267d02ab486cedc0000341461004e576040517f08c379a000000000000000000000000000000000000000000000000000000000815260040161004590610117565b60405180910390fd5b33600260006101000a81548173ffffffffffffffffffffffffffffffffffffffff021916908373ffffffffffffffffffffffffffffffffffffffff160217905550610137565b600082825260208201905092915050565b7f496e697469616c20313520657468657220726571756972656420666f7220636f60008201527f6e747261637420746f2072756e00000000000000000000000000000000000000602082015250565b6000610101602d83610094565b915061010c826100a5565b604082019050919050565b60006020820190508181036000830152610130816100f4565b9050919050565b6106ba806101466000396000f3fe60806040526004361061003f5760003560e01c8063292eb75d146100445780634a68533f146100625780636896fabf14610092578063827cc452146100bd575b600080fd5b61004c6100ed565b6040516100599190610446565b60405180910390f35b61007c600480360381019061007791906104c4565b6101ea565b6040516100899190610446565b60405180910390f35b34801561009e57600080fd5b506100a76102fe565b6040516100b49190610446565b60405180910390f35b6100d760048036038101906100d2919061051d565b610303565b6040516100e49190610446565b60405180910390f35b600060036001541161014957674563918244f400006000803373ffffffffffffffffffffffffffffffffffffffff1673ffffffffffffffffffffffffffffffffffffffff1681526020019081526020016000208190555061018e565b60008060003373ffffffffffffffffffffffffffffffffffffffff1673ffffffffffffffffffffffffffffffffffffffff168152602001908152602001600020819055505b600160008154809291906101a190610579565b91905055506000803373ffffffffffffffffffffffffffffffffffffffff1673ffffffffffffffffffffffffffffffffffffffff16815260200190815260200160002054905090565b6000346000808473ffffffffffffffffffffffffffffffffffffffff1673ffffffffffffffffffffffffffffffffffffffff168152602001908152602001600020600082825461023a91906105c2565b925050819055507f14558f60a55f03caac2b3dabdda0b51b20b0e22ce09a2c28cd1dc18e873578e8826000808573ffffffffffffffffffffffffffffffffffffffff1673ffffffffffffffffffffffffffffffffffffffff168152602001908152602001600020546040516102b0929190610627565b60405180910390a16000808373ffffffffffffffffffffffffffffffffffffffff1673ffffffffffffffffffffffffffffffffffffffff168152602001908152602001600020549050919050565b600090565b60008060003373ffffffffffffffffffffffffffffffffffffffff1673ffffffffffffffffffffffffffffffffffffffff1681526020019081526020016000205482116103e757816000803373ffffffffffffffffffffffffffffffffffffffff1673ffffffffffffffffffffffffffffffffffffffff16815260200190815260200160002060008282546103989190610650565b925050819055503373ffffffffffffffffffffffffffffffffffffffff166108fc839081150290604051600060405180830381858888f193505050501580156103e5573d6000803e3d6000fd5b505b6000803373ffffffffffffffffffffffffffffffffffffffff1673ffffffffffffffffffffffffffffffffffffffff168152602001908152602001600020549050919050565b6000819050919050565b6104408161042d565b82525050565b600060208201905061045b6000830184610437565b92915050565b600080fd5b600073ffffffffffffffffffffffffffffffffffffffff82169050919050565b600061049182610466565b9050919050565b6104a181610486565b81146104ac57600080fd5b50565b6000813590506104be81610498565b92915050565b6000602082840312156104da576104d9610461565b5b60006104e8848285016104af565b91505092915050565b6104fa8161042d565b811461050557600080fd5b50565b600081359050610517816104f1565b92915050565b60006020828403121561053357610532610461565b5b600061054184828501610508565b91505092915050565b7f4e487b7100000000000000000000000000000000000000000000000000000000600052601160045260246000fd5b60006105848261042d565b91507fffffffffffffffffffffffffffffffffffffffffffffffffffffffffffffffff8214156105b7576105b661054a565b5b600182019050919050565b60006105cd8261042d565b91506105d88361042d565b9250827fffffffffffffffffffffffffffffffffffffffffffffffffffffffffffffffff0382111561060d5761060c61054a565b5b828201905092915050565b61062181610486565b82525050565b600060408201905061063c6000830185610618565b6106496020830184610437565b9392505050565b600061065b8261042d565b91506106668361042d565b9250828210156106795761067861054a565b5b82820390509291505056fea264697066735822122056fc1585f4742a9cf1c56552e04d84994097b13052a2ee36ff7f0e74b5f3a7dc64736f6c63430008080033",
					"opcodes": "PUSH1 0x80 PUSH1 0x40 MSTORE PUSH8 0xD02AB486CEDC0000 CALLVALUE EQ PUSH2 0x4E JUMPI PUSH1 0x40 MLOAD PUSH32 0x8C379A000000000000000000000000000000000000000000000000000000000 DUP2 MSTORE PUSH1 0x4 ADD PUSH2 0x45 SWAP1 PUSH2 0x117 JUMP JUMPDEST PUSH1 0x40 MLOAD DUP1 SWAP2 SUB SWAP1 REVERT JUMPDEST CALLER PUSH1 0x2 PUSH1 0x0 PUSH2 0x100 EXP DUP2 SLOAD DUP2 PUSH20 0xFFFFFFFFFFFFFFFFFFFFFFFFFFFFFFFFFFFFFFFF MUL NOT AND SWAP1 DUP4 PUSH20 0xFFFFFFFFFFFFFFFFFFFFFFFFFFFFFFFFFFFFFFFF AND MUL OR SWAP1 SSTORE POP PUSH2 0x137 JUMP JUMPDEST PUSH1 0x0 DUP3 DUP3 MSTORE PUSH1 0x20 DUP3 ADD SWAP1 POP SWAP3 SWAP2 POP POP JUMP JUMPDEST PUSH32 0x496E697469616C20313520657468657220726571756972656420666F7220636F PUSH1 0x0 DUP3 ADD MSTORE PUSH32 0x6E747261637420746F2072756E00000000000000000000000000000000000000 PUSH1 0x20 DUP3 ADD MSTORE POP JUMP JUMPDEST PUSH1 0x0 PUSH2 0x101 PUSH1 0x2D DUP4 PUSH2 0x94 JUMP JUMPDEST SWAP2 POP PUSH2 0x10C DUP3 PUSH2 0xA5 JUMP JUMPDEST PUSH1 0x40 DUP3 ADD SWAP1 POP SWAP2 SWAP1 POP JUMP JUMPDEST PUSH1 0x0 PUSH1 0x20 DUP3 ADD SWAP1 POP DUP2 DUP2 SUB PUSH1 0x0 DUP4 ADD MSTORE PUSH2 0x130 DUP2 PUSH2 0xF4 JUMP JUMPDEST SWAP1 POP SWAP2 SWAP1 POP JUMP JUMPDEST PUSH2 0x6BA DUP1 PUSH2 0x146 PUSH1 0x0 CODECOPY PUSH1 0x0 RETURN INVALID PUSH1 0x80 PUSH1 0x40 MSTORE PUSH1 0x4 CALLDATASIZE LT PUSH2 0x3F JUMPI PUSH1 0x0 CALLDATALOAD PUSH1 0xE0 SHR DUP1 PUSH4 0x292EB75D EQ PUSH2 0x44 JUMPI DUP1 PUSH4 0x4A68533F EQ PUSH2 0x62 JUMPI DUP1 PUSH4 0x6896FABF EQ PUSH2 0x92 JUMPI DUP1 PUSH4 0x827CC452 EQ PUSH2 0xBD JUMPI JUMPDEST PUSH1 0x0 DUP1 REVERT JUMPDEST PUSH2 0x4C PUSH2 0xED JUMP JUMPDEST PUSH1 0x40 MLOAD PUSH2 0x59 SWAP2 SWAP1 PUSH2 0x446 JUMP JUMPDEST PUSH1 0x40 MLOAD DUP1 SWAP2 SUB SWAP1 RETURN JUMPDEST PUSH2 0x7C PUSH1 0x4 DUP1 CALLDATASIZE SUB DUP2 ADD SWAP1 PUSH2 0x77 SWAP2 SWAP1 PUSH2 0x4C4 JUMP JUMPDEST PUSH2 0x1EA JUMP JUMPDEST PUSH1 0x40 MLOAD PUSH2 0x89 SWAP2 SWAP1 PUSH2 0x446 JUMP JUMPDEST PUSH1 0x40 MLOAD DUP1 SWAP2 SUB SWAP1 RETURN JUMPDEST CALLVALUE DUP1 ISZERO PUSH2 0x9E JUMPI PUSH1 0x0 DUP1 REVERT JUMPDEST POP PUSH2 0xA7 PUSH2 0x2FE JUMP JUMPDEST PUSH1 0x40 MLOAD PUSH2 0xB4 SWAP2 SWAP1 PUSH2 0x446 JUMP JUMPDEST PUSH1 0x40 MLOAD DUP1 SWAP2 SUB SWAP1 RETURN JUMPDEST PUSH2 0xD7 PUSH1 0x4 DUP1 CALLDATASIZE SUB DUP2 ADD SWAP1 PUSH2 0xD2 SWAP2 SWAP1 PUSH2 0x51D JUMP JUMPDEST PUSH2 0x303 JUMP JUMPDEST PUSH1 0x40 MLOAD PUSH2 0xE4 SWAP2 SWAP1 PUSH2 0x446 JUMP JUMPDEST PUSH1 0x40 MLOAD DUP1 SWAP2 SUB SWAP1 RETURN JUMPDEST PUSH1 0x0 PUSH1 0x3 PUSH1 0x1 SLOAD GT PUSH2 0x149 JUMPI PUSH8 0x4563918244F40000 PUSH1 0x0 DUP1 CALLER PUSH20 0xFFFFFFFFFFFFFFFFFFFFFFFFFFFFFFFFFFFFFFFF AND PUSH20 0xFFFFFFFFFFFFFFFFFFFFFFFFFFFFFFFFFFFFFFFF AND DUP2 MSTORE PUSH1 0x20 ADD SWAP1 DUP2 MSTORE PUSH1 0x20 ADD PUSH1 0x0 KECCAK256 DUP2 SWAP1 SSTORE POP PUSH2 0x18E JUMP JUMPDEST PUSH1 0x0 DUP1 PUSH1 0x0 CALLER PUSH20 0xFFFFFFFFFFFFFFFFFFFFFFFFFFFFFFFFFFFFFFFF AND PUSH20 0xFFFFFFFFFFFFFFFFFFFFFFFFFFFFFFFFFFFFFFFF AND DUP2 MSTORE PUSH1 0x20 ADD SWAP1 DUP2 MSTORE PUSH1 0x20 ADD PUSH1 0x0 KECCAK256 DUP2 SWAP1 SSTORE POP JUMPDEST PUSH1 0x1 PUSH1 0x0 DUP2 SLOAD DUP1 SWAP3 SWAP2 SWAP1 PUSH2 0x1A1 SWAP1 PUSH2 0x579 JUMP JUMPDEST SWAP2 SWAP1 POP SSTORE POP PUSH1 0x0 DUP1 CALLER PUSH20 0xFFFFFFFFFFFFFFFFFFFFFFFFFFFFFFFFFFFFFFFF AND PUSH20 0xFFFFFFFFFFFFFFFFFFFFFFFFFFFFFFFFFFFFFFFF AND DUP2 MSTORE PUSH1 0x20 ADD SWAP1 DUP2 MSTORE PUSH1 0x20 ADD PUSH1 0x0 KECCAK256 SLOAD SWAP1 POP SWAP1 JUMP JUMPDEST PUSH1 0x0 CALLVALUE PUSH1 0x0 DUP1 DUP5 PUSH20 0xFFFFFFFFFFFFFFFFFFFFFFFFFFFFFFFFFFFFFFFF AND PUSH20 0xFFFFFFFFFFFFFFFFFFFFFFFFFFFFFFFFFFFFFFFF AND DUP2 MSTORE PUSH1 0x20 ADD SWAP1 DUP2 MSTORE PUSH1 0x20 ADD PUSH1 0x0 KECCAK256 PUSH1 0x0 DUP3 DUP3 SLOAD PUSH2 0x23A SWAP2 SWAP1 PUSH2 0x5C2 JUMP JUMPDEST SWAP3 POP POP DUP2 SWAP1 SSTORE POP PUSH32 0x14558F60A55F03CAAC2B3DABDDA0B51B20B0E22CE09A2C28CD1DC18E873578E8 DUP3 PUSH1 0x0 DUP1 DUP6 PUSH20 0xFFFFFFFFFFFFFFFFFFFFFFFFFFFFFFFFFFFFFFFF AND PUSH20 0xFFFFFFFFFFFFFFFFFFFFFFFFFFFFFFFFFFFFFFFF AND DUP2 MSTORE PUSH1 0x20 ADD SWAP1 DUP2 MSTORE PUSH1 0x20 ADD PUSH1 0x0 KECCAK256 SLOAD PUSH1 0x40 MLOAD PUSH2 0x2B0 SWAP3 SWAP2 SWAP1 PUSH2 0x627 JUMP JUMPDEST PUSH1 0x40 MLOAD DUP1 SWAP2 SUB SWAP1 LOG1 PUSH1 0x0 DUP1 DUP4 PUSH20 0xFFFFFFFFFFFFFFFFFFFFFFFFFFFFFFFFFFFFFFFF AND PUSH20 0xFFFFFFFFFFFFFFFFFFFFFFFFFFFFFFFFFFFFFFFF AND DUP2 MSTORE PUSH1 0x20 ADD SWAP1 DUP2 MSTORE PUSH1 0x20 ADD PUSH1 0x0 KECCAK256 SLOAD SWAP1 POP SWAP2 SWAP1 POP JUMP JUMPDEST PUSH1 0x0 SWAP1 JUMP JUMPDEST PUSH1 0x0 DUP1 PUSH1 0x0 CALLER PUSH20 0xFFFFFFFFFFFFFFFFFFFFFFFFFFFFFFFFFFFFFFFF AND PUSH20 0xFFFFFFFFFFFFFFFFFFFFFFFFFFFFFFFFFFFFFFFF AND DUP2 MSTORE PUSH1 0x20 ADD SWAP1 DUP2 MSTORE PUSH1 0x20 ADD PUSH1 0x0 KECCAK256 SLOAD DUP3 GT PUSH2 0x3E7 JUMPI DUP2 PUSH1 0x0 DUP1 CALLER PUSH20 0xFFFFFFFFFFFFFFFFFFFFFFFFFFFFFFFFFFFFFFFF AND PUSH20 0xFFFFFFFFFFFFFFFFFFFFFFFFFFFFFFFFFFFFFFFF AND DUP2 MSTORE PUSH1 0x20 ADD SWAP1 DUP2 MSTORE PUSH1 0x20 ADD PUSH1 0x0 KECCAK256 PUSH1 0x0 DUP3 DUP3 SLOAD PUSH2 0x398 SWAP2 SWAP1 PUSH2 0x650 JUMP JUMPDEST SWAP3 POP POP DUP2 SWAP1 SSTORE POP CALLER PUSH20 0xFFFFFFFFFFFFFFFFFFFFFFFFFFFFFFFFFFFFFFFF AND PUSH2 0x8FC DUP4 SWAP1 DUP2 ISZERO MUL SWAP1 PUSH1 0x40 MLOAD PUSH1 0x0 PUSH1 0x40 MLOAD DUP1 DUP4 SUB DUP2 DUP6 DUP9 DUP9 CALL SWAP4 POP POP POP POP ISZERO DUP1 ISZERO PUSH2 0x3E5 JUMPI RETURNDATASIZE PUSH1 0x0 DUP1 RETURNDATACOPY RETURNDATASIZE PUSH1 0x0 REVERT JUMPDEST POP JUMPDEST PUSH1 0x0 DUP1 CALLER PUSH20 0xFFFFFFFFFFFFFFFFFFFFFFFFFFFFFFFFFFFFFFFF AND PUSH20 0xFFFFFFFFFFFFFFFFFFFFFFFFFFFFFFFFFFFFFFFF AND DUP2 MSTORE PUSH1 0x20 ADD SWAP1 DUP2 MSTORE PUSH1 0x20 ADD PUSH1 0x0 KECCAK256 SLOAD SWAP1 POP SWAP2 SWAP1 POP JUMP JUMPDEST PUSH1 0x0 DUP2 SWAP1 POP SWAP2 SWAP1 POP JUMP JUMPDEST PUSH2 0x440 DUP2 PUSH2 0x42D JUMP JUMPDEST DUP3 MSTORE POP POP JUMP JUMPDEST PUSH1 0x0 PUSH1 0x20 DUP3 ADD SWAP1 POP PUSH2 0x45B PUSH1 0x0 DUP4 ADD DUP5 PUSH2 0x437 JUMP JUMPDEST SWAP3 SWAP2 POP POP JUMP JUMPDEST PUSH1 0x0 DUP1 REVERT JUMPDEST PUSH1 0x0 PUSH20 0xFFFFFFFFFFFFFFFFFFFFFFFFFFFFFFFFFFFFFFFF DUP3 AND SWAP1 POP SWAP2 SWAP1 POP JUMP JUMPDEST PUSH1 0x0 PUSH2 0x491 DUP3 PUSH2 0x466 JUMP JUMPDEST SWAP1 POP SWAP2 SWAP1 POP JUMP JUMPDEST PUSH2 0x4A1 DUP2 PUSH2 0x486 JUMP JUMPDEST DUP2 EQ PUSH2 0x4AC JUMPI PUSH1 0x0 DUP1 REVERT JUMPDEST POP JUMP JUMPDEST PUSH1 0x0 DUP2 CALLDATALOAD SWAP1 POP PUSH2 0x4BE DUP2 PUSH2 0x498 JUMP JUMPDEST SWAP3 SWAP2 POP POP JUMP JUMPDEST PUSH1 0x0 PUSH1 0x20 DUP3 DUP5 SUB SLT ISZERO PUSH2 0x4DA JUMPI PUSH2 0x4D9 PUSH2 0x461 JUMP JUMPDEST JUMPDEST PUSH1 0x0 PUSH2 0x4E8 DUP5 DUP3 DUP6 ADD PUSH2 0x4AF JUMP JUMPDEST SWAP2 POP POP SWAP3 SWAP2 POP POP JUMP JUMPDEST PUSH2 0x4FA DUP2 PUSH2 0x42D JUMP JUMPDEST DUP2 EQ PUSH2 0x505 JUMPI PUSH1 0x0 DUP1 REVERT JUMPDEST POP JUMP JUMPDEST PUSH1 0x0 DUP2 CALLDATALOAD SWAP1 POP PUSH2 0x517 DUP2 PUSH2 0x4F1 JUMP JUMPDEST SWAP3 SWAP2 POP POP JUMP JUMPDEST PUSH1 0x0 PUSH1 0x20 DUP3 DUP5 SUB SLT ISZERO PUSH2 0x533 JUMPI PUSH2 0x532 PUSH2 0x461 JUMP JUMPDEST JUMPDEST PUSH1 0x0 PUSH2 0x541 DUP5 DUP3 DUP6 ADD PUSH2 0x508 JUMP JUMPDEST SWAP2 POP POP SWAP3 SWAP2 POP POP JUMP JUMPDEST PUSH32 0x4E487B7100000000000000000000000000000000000000000000000000000000 PUSH1 0x0 MSTORE PUSH1 0x11 PUSH1 0x4 MSTORE PUSH1 0x24 PUSH1 0x0 REVERT JUMPDEST PUSH1 0x0 PUSH2 0x584 DUP3 PUSH2 0x42D JUMP JUMPDEST SWAP2 POP PUSH32 0xFFFFFFFFFFFFFFFFFFFFFFFFFFFFFFFFFFFFFFFFFFFFFFFFFFFFFFFFFFFFFFFF DUP3 EQ ISZERO PUSH2 0x5B7 JUMPI PUSH2 0x5B6 PUSH2 0x54A JUMP JUMPDEST JUMPDEST PUSH1 0x1 DUP3 ADD SWAP1 POP SWAP2 SWAP1 POP JUMP JUMPDEST PUSH1 0x0 PUSH2 0x5CD DUP3 PUSH2 0x42D JUMP JUMPDEST SWAP2 POP PUSH2 0x5D8 DUP4 PUSH2 0x42D JUMP JUMPDEST SWAP3 POP DUP3 PUSH32 0xFFFFFFFFFFFFFFFFFFFFFFFFFFFFFFFFFFFFFFFFFFFFFFFFFFFFFFFFFFFFFFFF SUB DUP3 GT ISZERO PUSH2 0x60D JUMPI PUSH2 0x60C PUSH2 0x54A JUMP JUMPDEST JUMPDEST DUP3 DUP3 ADD SWAP1 POP SWAP3 SWAP2 POP POP JUMP JUMPDEST PUSH2 0x621 DUP2 PUSH2 0x486 JUMP JUMPDEST DUP3 MSTORE POP POP JUMP JUMPDEST PUSH1 0x0 PUSH1 0x40 DUP3 ADD SWAP1 POP PUSH2 0x63C PUSH1 0x0 DUP4 ADD DUP6 PUSH2 0x618 JUMP JUMPDEST PUSH2 0x649 PUSH1 0x20 DUP4 ADD DUP5 PUSH2 0x437 JUMP JUMPDEST SWAP4 SWAP3 POP POP POP JUMP JUMPDEST PUSH1 0x0 PUSH2 0x65B DUP3 PUSH2 0x42D JUMP JUMPDEST SWAP2 POP PUSH2 0x666 DUP4 PUSH2 0x42D JUMP JUMPDEST SWAP3 POP DUP3 DUP3 LT ISZERO PUSH2 0x679 JUMPI PUSH2 0x678 PUSH2 0x54A JUMP JUMPDEST JUMPDEST DUP3 DUP3 SUB SWAP1 POP SWAP3 SWAP2 POP POP JUMP INVALID LOG2 PUSH5 0x6970667358 0x22 SLT KECCAK256 JUMP 0xFC ISZERO DUP6 DELEGATECALL PUSH21 0x2A9CF1C56552E04D84994097B13052A2EE36FF7F0E PUSH21 0xB5F3A7DC64736F6C63430008080033000000000000 "
				},
				"gasEstimates": {
					"creation": {
						"codeDepositCost": "344400",
						"executionCost": "24656",
						"totalCost": "369056"
					},
					"external": {
						"depositMoney(address)": "infinite",
						"getAccountBalance()": "351",
						"openAccount()": "infinite",
						"withDrawMoney(uint256)": "infinite"
					}
				},
				"methodIdentifiers": {
					"depositMoney(address)": "4a68533f",
					"getAccountBalance()": "6896fabf",
					"openAccount()": "292eb75d",
					"withDrawMoney(uint256)": "827cc452"
				}
			},
			"storageLayout": {
				"storage": [
					{
						"astId": 5,
						"contract": "Bank.sol:Bank",
						"label": "balance",
						"offset": 0,
						"slot": "0",
						"type": "t_mapping(t_address,t_uint256)"
					},
					{
						"astId": 7,
						"contract": "Bank.sol:Bank",
						"label": "userCount",
						"offset": 0,
						"slot": "1",
						"type": "t_uint256"
					},
					{
						"astId": 9,
						"contract": "Bank.sol:Bank",
						"label": "owner",
						"offset": 0,
						"slot": "2",
						"type": "t_address"
					}
				],
				"types": {
					"t_address": {
						"encoding": "inplace",
						"label": "address",
						"numberOfBytes": "20"
					},
					"t_mapping(t_address,t_uint256)": {
						"encoding": "mapping",
						"key": "t_address",
						"label": "mapping(address => uint256)",
						"numberOfBytes": "32",
						"value": "t_uint256"
					},
					"t_uint256": {
						"encoding": "inplace",
						"label": "uint256",
						"numberOfBytes": "32"
					}
				}
			},
			"userdoc": {
				"kind": "user",
				"methods": {},
				"version": 1
			}
		}
	}
}