{
	"PetSanctuary.sol": {
		"PetSanctuary": {
			"abi": [
				{
					"inputs": [],
					"stateMutability": "nonpayable",
					"type": "constructor"
				},
				{
					"inputs": [
						{
							"internalType": "enum PetSanctuary.AnimalKind",
							"name": "_animalKind",
							"type": "uint8"
						},
						{
							"internalType": "uint256",
							"name": "_howManyPieces",
							"type": "uint256"
						}
					],
					"name": "add",
					"outputs": [],
					"stateMutability": "nonpayable",
					"type": "function"
				},
				{
					"inputs": [],
					"name": "animalKind",
					"outputs": [
						{
							"internalType": "enum PetSanctuary.AnimalKind",
							"name": "",
							"type": "uint8"
						}
					],
					"stateMutability": "view",
					"type": "function"
				},
				{
					"inputs": [
						{
							"internalType": "enum PetSanctuary.AnimalKind",
							"name": "",
							"type": "uint8"
						}
					],
					"name": "animals",
					"outputs": [
						{
							"internalType": "uint256",
							"name": "",
							"type": "uint256"
						}
					],
					"stateMutability": "view",
					"type": "function"
				},
				{
					"inputs": [
						{
							"internalType": "uint256",
							"name": "personAge",
							"type": "uint256"
						},
						{
							"internalType": "string",
							"name": "_personGender",
							"type": "string"
						},
						{
							"internalType": "enum PetSanctuary.AnimalKind",
							"name": "_animalKind",
							"type": "uint8"
						}
					],
					"name": "buy",
					"outputs": [],
					"stateMutability": "nonpayable",
					"type": "function"
				},
				{
					"inputs": [],
					"name": "owner",
					"outputs": [
						{
							"internalType": "address",
							"name": "",
							"type": "address"
						}
					],
					"stateMutability": "view",
					"type": "function"
				}
			],
			"devdoc": {
				"kind": "dev",
				"methods": {},
				"version": 1
			},
			"evm": {
				"assembly": "    /* \"PetSanctuary.sol\":70:856  contract PetSanctuary{... */\n  mstore(0x40, 0x80)\n    /* \"PetSanctuary.sol\":295:341  constructor(){... */\n  callvalue\n  dup1\n  iszero\n  tag_1\n  jumpi\n  0x00\n  dup1\n  revert\ntag_1:\n  pop\n    /* \"PetSanctuary.sol\":324:334  msg.sender */\n  caller\n    /* \"PetSanctuary.sol\":318:323  owner */\n  0x00\n  0x01\n    /* \"PetSanctuary.sol\":318:334  owner=msg.sender */\n  0x0100\n  exp\n  dup2\n  sload\n  dup2\n  0xffffffffffffffffffffffffffffffffffffffff\n  mul\n  not\n  and\n  swap1\n  dup4\n  0xffffffffffffffffffffffffffffffffffffffff\n  and\n  mul\n  or\n  swap1\n  sstore\n  pop\n    /* \"PetSanctuary.sol\":70:856  contract PetSanctuary{... */\n  dataSize(sub_0)\n  dup1\n  dataOffset(sub_0)\n  0x00\n  codecopy\n  0x00\n  return\nstop\n\nsub_0: assembly {\n        /* \"PetSanctuary.sol\":70:856  contract PetSanctuary{... */\n      mstore(0x40, 0x80)\n      callvalue\n      dup1\n      iszero\n      tag_1\n      jumpi\n      0x00\n      dup1\n      revert\n    tag_1:\n      pop\n      jumpi(tag_2, lt(calldatasize, 0x04))\n      shr(0xe0, calldataload(0x00))\n      dup1\n      0x07f93f17\n      eq\n      tag_3\n      jumpi\n      dup1\n      0x1b54ac80\n      eq\n      tag_4\n      jumpi\n      dup1\n      0x2b23461f\n      eq\n      tag_5\n      jumpi\n      dup1\n      0x8da5cb5b\n      eq\n      tag_6\n      jumpi\n      dup1\n      0xec73cab5\n      eq\n      tag_7\n      jumpi\n    tag_2:\n      0x00\n      dup1\n      revert\n        /* \"PetSanctuary.sol\":594:854  function buy(uint256 personAge,string memory _personGender, AnimalKind _animalKind) public {... */\n    tag_3:\n      tag_8\n      0x04\n      dup1\n      calldatasize\n      sub\n      dup2\n      add\n      swap1\n      tag_9\n      swap2\n      swap1\n      tag_10\n      jump\t// in\n    tag_9:\n      tag_11\n      jump\t// in\n    tag_8:\n      stop\n        /* \"PetSanctuary.sol\":459:589  function add(AnimalKind _animalKind, uint256 _howManyPieces) onlyOwner public {... */\n    tag_4:\n      tag_12\n      0x04\n      dup1\n      calldatasize\n      sub\n      dup2\n      add\n      swap1\n      tag_13\n      swap2\n      swap1\n      tag_14\n      jump\t// in\n    tag_13:\n      tag_15\n      jump\t// in\n    tag_12:\n      stop\n        /* \"PetSanctuary.sol\":207:252  mapping(AnimalKind => uint256) public animals */\n    tag_5:\n      tag_16\n      0x04\n      dup1\n      calldatasize\n      sub\n      dup2\n      add\n      swap1\n      tag_17\n      swap2\n      swap1\n      tag_18\n      jump\t// in\n    tag_17:\n      tag_19\n      jump\t// in\n    tag_16:\n      mload(0x40)\n      tag_20\n      swap2\n      swap1\n      tag_21\n      jump\t// in\n    tag_20:\n      mload(0x40)\n      dup1\n      swap2\n      sub\n      swap1\n      return\n        /* \"PetSanctuary.sol\":181:201  address public owner */\n    tag_6:\n      tag_22\n      tag_23\n      jump\t// in\n    tag_22:\n      mload(0x40)\n      tag_24\n      swap2\n      swap1\n      tag_25\n      jump\t// in\n    tag_24:\n      mload(0x40)\n      dup1\n      swap2\n      sub\n      swap1\n      return\n        /* \"PetSanctuary.sol\":146:175  AnimalKind public  animalKind */\n    tag_7:\n      tag_26\n      tag_27\n      jump\t// in\n    tag_26:\n      mload(0x40)\n      tag_28\n      swap2\n      swap1\n      tag_29\n      jump\t// in\n    tag_28:\n      mload(0x40)\n      dup1\n      swap2\n      sub\n      swap1\n      return\n        /* \"PetSanctuary.sol\":594:854  function buy(uint256 personAge,string memory _personGender, AnimalKind _animalKind) public {... */\n    tag_11:\n        /* \"PetSanctuary.sol\":725:729  true */\n      0x01\n        /* \"PetSanctuary.sol\":703:729  buyers[msg.sender] != true */\n      iszero\n      iszero\n        /* \"PetSanctuary.sol\":703:709  buyers */\n      0x02\n        /* \"PetSanctuary.sol\":703:721  buyers[msg.sender] */\n      0x00\n        /* \"PetSanctuary.sol\":710:720  msg.sender */\n      caller\n        /* \"PetSanctuary.sol\":703:721  buyers[msg.sender] */\n      0xffffffffffffffffffffffffffffffffffffffff\n      and\n      0xffffffffffffffffffffffffffffffffffffffff\n      and\n      dup2\n      mstore\n      0x20\n      add\n      swap1\n      dup2\n      mstore\n      0x20\n      add\n      0x00\n      keccak256\n      0x00\n      swap1\n      sload\n      swap1\n      0x0100\n      exp\n      swap1\n      div\n      0xff\n      and\n        /* \"PetSanctuary.sol\":703:729  buyers[msg.sender] != true */\n      iszero\n      iszero\n      eq\n      iszero\n        /* \"PetSanctuary.sol\":695:770  require(buyers[msg.sender] != true, 'You already have borrowed the animal') */\n      tag_31\n      jumpi\n      mload(0x40)\n      0x08c379a000000000000000000000000000000000000000000000000000000000\n      dup2\n      mstore\n      0x04\n      add\n      tag_32\n      swap1\n      tag_33\n      jump\t// in\n    tag_32:\n      mload(0x40)\n      dup1\n      swap2\n      sub\n      swap1\n      revert\n    tag_31:\n        /* \"PetSanctuary.sol\":818:835  keccak256(\"Male\") */\n      0x310c3571b23091c007dda125492f3d2ae4469bdd98f17f8b3b7ba8fdb0f1272c\n        /* \"PetSanctuary.sol\":799:812  _personGender */\n      dup3\n        /* \"PetSanctuary.sol\":783:814  keccak256(bytes(_personGender)) */\n      dup1\n      mload\n      swap1\n      0x20\n      add\n      keccak256\n        /* \"PetSanctuary.sol\":783:835  keccak256(bytes(_personGender)) == keccak256(\"Male\") */\n      pop\n      pop\n        /* \"PetSanctuary.sol\":594:854  function buy(uint256 personAge,string memory _personGender, AnimalKind _animalKind) public {... */\n      pop\n      pop\n      pop\n      jump\t// out\n        /* \"PetSanctuary.sol\":459:589  function add(AnimalKind _animalKind, uint256 _howManyPieces) onlyOwner public {... */\n    tag_15:\n        /* \"PetSanctuary.sol\":398:403  owner */\n      0x00\n      0x01\n      swap1\n      sload\n      swap1\n      0x0100\n      exp\n      swap1\n      div\n      0xffffffffffffffffffffffffffffffffffffffff\n      and\n        /* \"PetSanctuary.sol\":384:403  msg.sender == owner */\n      0xffffffffffffffffffffffffffffffffffffffff\n      and\n        /* \"PetSanctuary.sol\":384:394  msg.sender */\n      caller\n        /* \"PetSanctuary.sol\":384:403  msg.sender == owner */\n      0xffffffffffffffffffffffffffffffffffffffff\n      and\n      eq\n        /* \"PetSanctuary.sol\":376:436  require(msg.sender == owner, 'Only owner can give shelter ') */\n      tag_36\n      jumpi\n      mload(0x40)\n      0x08c379a000000000000000000000000000000000000000000000000000000000\n      dup2\n      mstore\n      0x04\n      add\n      tag_37\n      swap1\n      tag_38\n      jump\t// in\n    tag_37:\n      mload(0x40)\n      dup1\n      swap2\n      sub\n      swap1\n      revert\n    tag_36:\n        /* \"PetSanctuary.sol\":568:582  _howManyPieces */\n      dup1\n        /* \"PetSanctuary.sol\":547:554  animals */\n      0x01\n        /* \"PetSanctuary.sol\":547:567  animals[_animalKind] */\n      0x00\n        /* \"PetSanctuary.sol\":555:566  _animalKind */\n      dup5\n        /* \"PetSanctuary.sol\":547:567  animals[_animalKind] */\n      0x04\n      dup2\n      gt\n      iszero\n      tag_40\n      jumpi\n      tag_41\n      tag_42\n      jump\t// in\n    tag_41:\n    tag_40:\n      0x04\n      dup2\n      gt\n      iszero\n      tag_43\n      jumpi\n      tag_44\n      tag_42\n      jump\t// in\n    tag_44:\n    tag_43:\n      dup2\n      mstore\n      0x20\n      add\n      swap1\n      dup2\n      mstore\n      0x20\n      add\n      0x00\n      keccak256\n        /* \"PetSanctuary.sol\":547:582  animals[_animalKind]=_howManyPieces */\n      dup2\n      swap1\n      sstore\n      pop\n        /* \"PetSanctuary.sol\":459:589  function add(AnimalKind _animalKind, uint256 _howManyPieces) onlyOwner public {... */\n      pop\n      pop\n      jump\t// out\n        /* \"PetSanctuary.sol\":207:252  mapping(AnimalKind => uint256) public animals */\n    tag_19:\n      mstore(0x20, 0x01)\n      dup1\n      0x00\n      mstore\n      keccak256(0x00, 0x40)\n      0x00\n      swap2\n      pop\n      swap1\n      pop\n      sload\n      dup2\n      jump\t// out\n        /* \"PetSanctuary.sol\":181:201  address public owner */\n    tag_23:\n      0x00\n      0x01\n      swap1\n      sload\n      swap1\n      0x0100\n      exp\n      swap1\n      div\n      0xffffffffffffffffffffffffffffffffffffffff\n      and\n      dup2\n      jump\t// out\n        /* \"PetSanctuary.sol\":146:175  AnimalKind public  animalKind */\n    tag_27:\n      0x00\n      dup1\n      sload\n      swap1\n      0x0100\n      exp\n      swap1\n      div\n      0xff\n      and\n      dup2\n      jump\t// out\n        /* \"#utility.yul\":7:82   */\n    tag_45:\n        /* \"#utility.yul\":40:46   */\n      0x00\n        /* \"#utility.yul\":73:75   */\n      0x40\n        /* \"#utility.yul\":67:76   */\n      mload\n        /* \"#utility.yul\":57:76   */\n      swap1\n      pop\n        /* \"#utility.yul\":7:82   */\n      swap1\n      jump\t// out\n        /* \"#utility.yul\":88:205   */\n    tag_46:\n        /* \"#utility.yul\":197:198   */\n      0x00\n        /* \"#utility.yul\":194:195   */\n      dup1\n        /* \"#utility.yul\":187:199   */\n      revert\n        /* \"#utility.yul\":211:328   */\n    tag_47:\n        /* \"#utility.yul\":320:321   */\n      0x00\n        /* \"#utility.yul\":317:318   */\n      dup1\n        /* \"#utility.yul\":310:322   */\n      revert\n        /* \"#utility.yul\":334:411   */\n    tag_48:\n        /* \"#utility.yul\":371:378   */\n      0x00\n        /* \"#utility.yul\":400:405   */\n      dup2\n        /* \"#utility.yul\":389:405   */\n      swap1\n      pop\n        /* \"#utility.yul\":334:411   */\n      swap2\n      swap1\n      pop\n      jump\t// out\n        /* \"#utility.yul\":417:539   */\n    tag_49:\n        /* \"#utility.yul\":490:514   */\n      tag_82\n        /* \"#utility.yul\":508:513   */\n      dup2\n        /* \"#utility.yul\":490:514   */\n      tag_48\n      jump\t// in\n    tag_82:\n        /* \"#utility.yul\":483:488   */\n      dup2\n        /* \"#utility.yul\":480:515   */\n      eq\n        /* \"#utility.yul\":470:533   */\n      tag_83\n      jumpi\n        /* \"#utility.yul\":529:530   */\n      0x00\n        /* \"#utility.yul\":526:527   */\n      dup1\n        /* \"#utility.yul\":519:531   */\n      revert\n        /* \"#utility.yul\":470:533   */\n    tag_83:\n        /* \"#utility.yul\":417:539   */\n      pop\n      jump\t// out\n        /* \"#utility.yul\":545:684   */\n    tag_50:\n        /* \"#utility.yul\":591:596   */\n      0x00\n        /* \"#utility.yul\":629:635   */\n      dup2\n        /* \"#utility.yul\":616:636   */\n      calldataload\n        /* \"#utility.yul\":607:636   */\n      swap1\n      pop\n        /* \"#utility.yul\":645:678   */\n      tag_85\n        /* \"#utility.yul\":672:677   */\n      dup2\n        /* \"#utility.yul\":645:678   */\n      tag_49\n      jump\t// in\n    tag_85:\n        /* \"#utility.yul\":545:684   */\n      swap3\n      swap2\n      pop\n      pop\n      jump\t// out\n        /* \"#utility.yul\":690:807   */\n    tag_51:\n        /* \"#utility.yul\":799:800   */\n      0x00\n        /* \"#utility.yul\":796:797   */\n      dup1\n        /* \"#utility.yul\":789:801   */\n      revert\n        /* \"#utility.yul\":813:930   */\n    tag_52:\n        /* \"#utility.yul\":922:923   */\n      0x00\n        /* \"#utility.yul\":919:920   */\n      dup1\n        /* \"#utility.yul\":912:924   */\n      revert\n        /* \"#utility.yul\":936:1038   */\n    tag_53:\n        /* \"#utility.yul\":977:983   */\n      0x00\n        /* \"#utility.yul\":1028:1030   */\n      0x1f\n        /* \"#utility.yul\":1024:1031   */\n      not\n        /* \"#utility.yul\":1019:1021   */\n      0x1f\n        /* \"#utility.yul\":1012:1017   */\n      dup4\n        /* \"#utility.yul\":1008:1022   */\n      add\n        /* \"#utility.yul\":1004:1032   */\n      and\n        /* \"#utility.yul\":994:1032   */\n      swap1\n      pop\n        /* \"#utility.yul\":936:1038   */\n      swap2\n      swap1\n      pop\n      jump\t// out\n        /* \"#utility.yul\":1044:1224   */\n    tag_54:\n        /* \"#utility.yul\":1092:1169   */\n      0x4e487b7100000000000000000000000000000000000000000000000000000000\n        /* \"#utility.yul\":1089:1090   */\n      0x00\n        /* \"#utility.yul\":1082:1170   */\n      mstore\n        /* \"#utility.yul\":1189:1193   */\n      0x41\n        /* \"#utility.yul\":1186:1187   */\n      0x04\n        /* \"#utility.yul\":1179:1194   */\n      mstore\n        /* \"#utility.yul\":1213:1217   */\n      0x24\n        /* \"#utility.yul\":1210:1211   */\n      0x00\n        /* \"#utility.yul\":1203:1218   */\n      revert\n        /* \"#utility.yul\":1230:1511   */\n    tag_55:\n        /* \"#utility.yul\":1313:1340   */\n      tag_91\n        /* \"#utility.yul\":1335:1339   */\n      dup3\n        /* \"#utility.yul\":1313:1340   */\n      tag_53\n      jump\t// in\n    tag_91:\n        /* \"#utility.yul\":1305:1311   */\n      dup2\n        /* \"#utility.yul\":1301:1341   */\n      add\n        /* \"#utility.yul\":1443:1449   */\n      dup2\n        /* \"#utility.yul\":1431:1441   */\n      dup2\n        /* \"#utility.yul\":1428:1450   */\n      lt\n        /* \"#utility.yul\":1407:1425   */\n      0xffffffffffffffff\n        /* \"#utility.yul\":1395:1405   */\n      dup3\n        /* \"#utility.yul\":1392:1426   */\n      gt\n        /* \"#utility.yul\":1389:1451   */\n      or\n        /* \"#utility.yul\":1386:1474   */\n      iszero\n      tag_92\n      jumpi\n        /* \"#utility.yul\":1454:1472   */\n      tag_93\n      tag_54\n      jump\t// in\n    tag_93:\n        /* \"#utility.yul\":1386:1474   */\n    tag_92:\n        /* \"#utility.yul\":1494:1504   */\n      dup1\n        /* \"#utility.yul\":1490:1492   */\n      0x40\n        /* \"#utility.yul\":1483:1505   */\n      mstore\n        /* \"#utility.yul\":1273:1511   */\n      pop\n        /* \"#utility.yul\":1230:1511   */\n      pop\n      pop\n      jump\t// out\n        /* \"#utility.yul\":1517:1646   */\n    tag_56:\n        /* \"#utility.yul\":1551:1557   */\n      0x00\n        /* \"#utility.yul\":1578:1598   */\n      tag_95\n      tag_45\n      jump\t// in\n    tag_95:\n        /* \"#utility.yul\":1568:1598   */\n      swap1\n      pop\n        /* \"#utility.yul\":1607:1640   */\n      tag_96\n        /* \"#utility.yul\":1635:1639   */\n      dup3\n        /* \"#utility.yul\":1627:1633   */\n      dup3\n        /* \"#utility.yul\":1607:1640   */\n      tag_55\n      jump\t// in\n    tag_96:\n        /* \"#utility.yul\":1517:1646   */\n      swap2\n      swap1\n      pop\n      jump\t// out\n        /* \"#utility.yul\":1652:1960   */\n    tag_57:\n        /* \"#utility.yul\":1714:1718   */\n      0x00\n        /* \"#utility.yul\":1804:1822   */\n      0xffffffffffffffff\n        /* \"#utility.yul\":1796:1802   */\n      dup3\n        /* \"#utility.yul\":1793:1823   */\n      gt\n        /* \"#utility.yul\":1790:1846   */\n      iszero\n      tag_98\n      jumpi\n        /* \"#utility.yul\":1826:1844   */\n      tag_99\n      tag_54\n      jump\t// in\n    tag_99:\n        /* \"#utility.yul\":1790:1846   */\n    tag_98:\n        /* \"#utility.yul\":1864:1893   */\n      tag_100\n        /* \"#utility.yul\":1886:1892   */\n      dup3\n        /* \"#utility.yul\":1864:1893   */\n      tag_53\n      jump\t// in\n    tag_100:\n        /* \"#utility.yul\":1856:1893   */\n      swap1\n      pop\n        /* \"#utility.yul\":1948:1952   */\n      0x20\n        /* \"#utility.yul\":1942:1946   */\n      dup2\n        /* \"#utility.yul\":1938:1953   */\n      add\n        /* \"#utility.yul\":1930:1953   */\n      swap1\n      pop\n        /* \"#utility.yul\":1652:1960   */\n      swap2\n      swap1\n      pop\n      jump\t// out\n        /* \"#utility.yul\":1966:2120   */\n    tag_58:\n        /* \"#utility.yul\":2050:2056   */\n      dup3\n        /* \"#utility.yul\":2045:2048   */\n      dup2\n        /* \"#utility.yul\":2040:2043   */\n      dup4\n        /* \"#utility.yul\":2027:2057   */\n      calldatacopy\n        /* \"#utility.yul\":2112:2113   */\n      0x00\n        /* \"#utility.yul\":2103:2109   */\n      dup4\n        /* \"#utility.yul\":2098:2101   */\n      dup4\n        /* \"#utility.yul\":2094:2110   */\n      add\n        /* \"#utility.yul\":2087:2114   */\n      mstore\n        /* \"#utility.yul\":1966:2120   */\n      pop\n      pop\n      pop\n      jump\t// out\n        /* \"#utility.yul\":2126:2538   */\n    tag_59:\n        /* \"#utility.yul\":2204:2209   */\n      0x00\n        /* \"#utility.yul\":2229:2295   */\n      tag_103\n        /* \"#utility.yul\":2245:2294   */\n      tag_104\n        /* \"#utility.yul\":2287:2293   */\n      dup5\n        /* \"#utility.yul\":2245:2294   */\n      tag_57\n      jump\t// in\n    tag_104:\n        /* \"#utility.yul\":2229:2295   */\n      tag_56\n      jump\t// in\n    tag_103:\n        /* \"#utility.yul\":2220:2295   */\n      swap1\n      pop\n        /* \"#utility.yul\":2318:2324   */\n      dup3\n        /* \"#utility.yul\":2311:2316   */\n      dup2\n        /* \"#utility.yul\":2304:2325   */\n      mstore\n        /* \"#utility.yul\":2356:2360   */\n      0x20\n        /* \"#utility.yul\":2349:2354   */\n      dup2\n        /* \"#utility.yul\":2345:2361   */\n      add\n        /* \"#utility.yul\":2394:2397   */\n      dup5\n        /* \"#utility.yul\":2385:2391   */\n      dup5\n        /* \"#utility.yul\":2380:2383   */\n      dup5\n        /* \"#utility.yul\":2376:2392   */\n      add\n        /* \"#utility.yul\":2373:2398   */\n      gt\n        /* \"#utility.yul\":2370:2482   */\n      iszero\n      tag_105\n      jumpi\n        /* \"#utility.yul\":2401:2480   */\n      tag_106\n      tag_52\n      jump\t// in\n    tag_106:\n        /* \"#utility.yul\":2370:2482   */\n    tag_105:\n        /* \"#utility.yul\":2491:2532   */\n      tag_107\n        /* \"#utility.yul\":2525:2531   */\n      dup5\n        /* \"#utility.yul\":2520:2523   */\n      dup3\n        /* \"#utility.yul\":2515:2518   */\n      dup6\n        /* \"#utility.yul\":2491:2532   */\n      tag_58\n      jump\t// in\n    tag_107:\n        /* \"#utility.yul\":2210:2538   */\n      pop\n        /* \"#utility.yul\":2126:2538   */\n      swap4\n      swap3\n      pop\n      pop\n      pop\n      jump\t// out\n        /* \"#utility.yul\":2558:2898   */\n    tag_60:\n        /* \"#utility.yul\":2614:2619   */\n      0x00\n        /* \"#utility.yul\":2663:2666   */\n      dup3\n        /* \"#utility.yul\":2656:2660   */\n      0x1f\n        /* \"#utility.yul\":2648:2654   */\n      dup4\n        /* \"#utility.yul\":2644:2661   */\n      add\n        /* \"#utility.yul\":2640:2667   */\n      slt\n        /* \"#utility.yul\":2630:2752   */\n      tag_109\n      jumpi\n        /* \"#utility.yul\":2671:2750   */\n      tag_110\n      tag_51\n      jump\t// in\n    tag_110:\n        /* \"#utility.yul\":2630:2752   */\n    tag_109:\n        /* \"#utility.yul\":2788:2794   */\n      dup2\n        /* \"#utility.yul\":2775:2795   */\n      calldataload\n        /* \"#utility.yul\":2813:2892   */\n      tag_111\n        /* \"#utility.yul\":2888:2891   */\n      dup5\n        /* \"#utility.yul\":2880:2886   */\n      dup3\n        /* \"#utility.yul\":2873:2877   */\n      0x20\n        /* \"#utility.yul\":2865:2871   */\n      dup7\n        /* \"#utility.yul\":2861:2878   */\n      add\n        /* \"#utility.yul\":2813:2892   */\n      tag_59\n      jump\t// in\n    tag_111:\n        /* \"#utility.yul\":2804:2892   */\n      swap2\n      pop\n        /* \"#utility.yul\":2620:2898   */\n      pop\n        /* \"#utility.yul\":2558:2898   */\n      swap3\n      swap2\n      pop\n      pop\n      jump\t// out\n        /* \"#utility.yul\":2904:3015   */\n    tag_61:\n        /* \"#utility.yul\":2989:2990   */\n      0x05\n        /* \"#utility.yul\":2982:2987   */\n      dup2\n        /* \"#utility.yul\":2979:2991   */\n      lt\n        /* \"#utility.yul\":2969:3009   */\n      tag_113\n      jumpi\n        /* \"#utility.yul\":3005:3006   */\n      0x00\n        /* \"#utility.yul\":3002:3003   */\n      dup1\n        /* \"#utility.yul\":2995:3007   */\n      revert\n        /* \"#utility.yul\":2969:3009   */\n    tag_113:\n        /* \"#utility.yul\":2904:3015   */\n      pop\n      jump\t// out\n        /* \"#utility.yul\":3021:3184   */\n    tag_62:\n        /* \"#utility.yul\":3079:3084   */\n      0x00\n        /* \"#utility.yul\":3117:3123   */\n      dup2\n        /* \"#utility.yul\":3104:3124   */\n      calldataload\n        /* \"#utility.yul\":3095:3124   */\n      swap1\n      pop\n        /* \"#utility.yul\":3133:3178   */\n      tag_115\n        /* \"#utility.yul\":3172:3177   */\n      dup2\n        /* \"#utility.yul\":3133:3178   */\n      tag_61\n      jump\t// in\n    tag_115:\n        /* \"#utility.yul\":3021:3184   */\n      swap3\n      swap2\n      pop\n      pop\n      jump\t// out\n        /* \"#utility.yul\":3190:4013   */\n    tag_10:\n        /* \"#utility.yul\":3289:3295   */\n      0x00\n        /* \"#utility.yul\":3297:3303   */\n      dup1\n        /* \"#utility.yul\":3305:3311   */\n      0x00\n        /* \"#utility.yul\":3354:3356   */\n      0x60\n        /* \"#utility.yul\":3342:3351   */\n      dup5\n        /* \"#utility.yul\":3333:3340   */\n      dup7\n        /* \"#utility.yul\":3329:3352   */\n      sub\n        /* \"#utility.yul\":3325:3357   */\n      slt\n        /* \"#utility.yul\":3322:3441   */\n      iszero\n      tag_117\n      jumpi\n        /* \"#utility.yul\":3360:3439   */\n      tag_118\n      tag_46\n      jump\t// in\n    tag_118:\n        /* \"#utility.yul\":3322:3441   */\n    tag_117:\n        /* \"#utility.yul\":3480:3481   */\n      0x00\n        /* \"#utility.yul\":3505:3558   */\n      tag_119\n        /* \"#utility.yul\":3550:3557   */\n      dup7\n        /* \"#utility.yul\":3541:3547   */\n      dup3\n        /* \"#utility.yul\":3530:3539   */\n      dup8\n        /* \"#utility.yul\":3526:3548   */\n      add\n        /* \"#utility.yul\":3505:3558   */\n      tag_50\n      jump\t// in\n    tag_119:\n        /* \"#utility.yul\":3495:3558   */\n      swap4\n      pop\n        /* \"#utility.yul\":3451:3568   */\n      pop\n        /* \"#utility.yul\":3635:3637   */\n      0x20\n        /* \"#utility.yul\":3624:3633   */\n      dup5\n        /* \"#utility.yul\":3620:3638   */\n      add\n        /* \"#utility.yul\":3607:3639   */\n      calldataload\n        /* \"#utility.yul\":3666:3684   */\n      0xffffffffffffffff\n        /* \"#utility.yul\":3658:3664   */\n      dup2\n        /* \"#utility.yul\":3655:3685   */\n      gt\n        /* \"#utility.yul\":3652:3769   */\n      iszero\n      tag_120\n      jumpi\n        /* \"#utility.yul\":3688:3767   */\n      tag_121\n      tag_47\n      jump\t// in\n    tag_121:\n        /* \"#utility.yul\":3652:3769   */\n    tag_120:\n        /* \"#utility.yul\":3793:3856   */\n      tag_122\n        /* \"#utility.yul\":3848:3855   */\n      dup7\n        /* \"#utility.yul\":3839:3845   */\n      dup3\n        /* \"#utility.yul\":3828:3837   */\n      dup8\n        /* \"#utility.yul\":3824:3846   */\n      add\n        /* \"#utility.yul\":3793:3856   */\n      tag_60\n      jump\t// in\n    tag_122:\n        /* \"#utility.yul\":3783:3856   */\n      swap3\n      pop\n        /* \"#utility.yul\":3578:3866   */\n      pop\n        /* \"#utility.yul\":3905:3907   */\n      0x40\n        /* \"#utility.yul\":3931:3996   */\n      tag_123\n        /* \"#utility.yul\":3988:3995   */\n      dup7\n        /* \"#utility.yul\":3979:3985   */\n      dup3\n        /* \"#utility.yul\":3968:3977   */\n      dup8\n        /* \"#utility.yul\":3964:3986   */\n      add\n        /* \"#utility.yul\":3931:3996   */\n      tag_62\n      jump\t// in\n    tag_123:\n        /* \"#utility.yul\":3921:3996   */\n      swap2\n      pop\n        /* \"#utility.yul\":3876:4006   */\n      pop\n        /* \"#utility.yul\":3190:4013   */\n      swap3\n      pop\n      swap3\n      pop\n      swap3\n      jump\t// out\n        /* \"#utility.yul\":4019:4517   */\n    tag_14:\n        /* \"#utility.yul\":4099:4105   */\n      0x00\n        /* \"#utility.yul\":4107:4113   */\n      dup1\n        /* \"#utility.yul\":4156:4158   */\n      0x40\n        /* \"#utility.yul\":4144:4153   */\n      dup4\n        /* \"#utility.yul\":4135:4142   */\n      dup6\n        /* \"#utility.yul\":4131:4154   */\n      sub\n        /* \"#utility.yul\":4127:4159   */\n      slt\n        /* \"#utility.yul\":4124:4243   */\n      iszero\n      tag_125\n      jumpi\n        /* \"#utility.yul\":4162:4241   */\n      tag_126\n      tag_46\n      jump\t// in\n    tag_126:\n        /* \"#utility.yul\":4124:4243   */\n    tag_125:\n        /* \"#utility.yul\":4282:4283   */\n      0x00\n        /* \"#utility.yul\":4307:4372   */\n      tag_127\n        /* \"#utility.yul\":4364:4371   */\n      dup6\n        /* \"#utility.yul\":4355:4361   */\n      dup3\n        /* \"#utility.yul\":4344:4353   */\n      dup7\n        /* \"#utility.yul\":4340:4362   */\n      add\n        /* \"#utility.yul\":4307:4372   */\n      tag_62\n      jump\t// in\n    tag_127:\n        /* \"#utility.yul\":4297:4372   */\n      swap3\n      pop\n        /* \"#utility.yul\":4253:4382   */\n      pop\n        /* \"#utility.yul\":4421:4423   */\n      0x20\n        /* \"#utility.yul\":4447:4500   */\n      tag_128\n        /* \"#utility.yul\":4492:4499   */\n      dup6\n        /* \"#utility.yul\":4483:4489   */\n      dup3\n        /* \"#utility.yul\":4472:4481   */\n      dup7\n        /* \"#utility.yul\":4468:4490   */\n      add\n        /* \"#utility.yul\":4447:4500   */\n      tag_50\n      jump\t// in\n    tag_128:\n        /* \"#utility.yul\":4437:4500   */\n      swap2\n      pop\n        /* \"#utility.yul\":4392:4510   */\n      pop\n        /* \"#utility.yul\":4019:4517   */\n      swap3\n      pop\n      swap3\n      swap1\n      pop\n      jump\t// out\n        /* \"#utility.yul\":4523:4876   */\n    tag_18:\n        /* \"#utility.yul\":4594:4600   */\n      0x00\n        /* \"#utility.yul\":4643:4645   */\n      0x20\n        /* \"#utility.yul\":4631:4640   */\n      dup3\n        /* \"#utility.yul\":4622:4629   */\n      dup5\n        /* \"#utility.yul\":4618:4641   */\n      sub\n        /* \"#utility.yul\":4614:4646   */\n      slt\n        /* \"#utility.yul\":4611:4730   */\n      iszero\n      tag_130\n      jumpi\n        /* \"#utility.yul\":4649:4728   */\n      tag_131\n      tag_46\n      jump\t// in\n    tag_131:\n        /* \"#utility.yul\":4611:4730   */\n    tag_130:\n        /* \"#utility.yul\":4769:4770   */\n      0x00\n        /* \"#utility.yul\":4794:4859   */\n      tag_132\n        /* \"#utility.yul\":4851:4858   */\n      dup5\n        /* \"#utility.yul\":4842:4848   */\n      dup3\n        /* \"#utility.yul\":4831:4840   */\n      dup6\n        /* \"#utility.yul\":4827:4849   */\n      add\n        /* \"#utility.yul\":4794:4859   */\n      tag_62\n      jump\t// in\n    tag_132:\n        /* \"#utility.yul\":4784:4859   */\n      swap2\n      pop\n        /* \"#utility.yul\":4740:4869   */\n      pop\n        /* \"#utility.yul\":4523:4876   */\n      swap3\n      swap2\n      pop\n      pop\n      jump\t// out\n        /* \"#utility.yul\":4882:5000   */\n    tag_63:\n        /* \"#utility.yul\":4969:4993   */\n      tag_134\n        /* \"#utility.yul\":4987:4992   */\n      dup2\n        /* \"#utility.yul\":4969:4993   */\n      tag_48\n      jump\t// in\n    tag_134:\n        /* \"#utility.yul\":4964:4967   */\n      dup3\n        /* \"#utility.yul\":4957:4994   */\n      mstore\n        /* \"#utility.yul\":4882:5000   */\n      pop\n      pop\n      jump\t// out\n        /* \"#utility.yul\":5006:5228   */\n    tag_21:\n        /* \"#utility.yul\":5099:5103   */\n      0x00\n        /* \"#utility.yul\":5137:5139   */\n      0x20\n        /* \"#utility.yul\":5126:5135   */\n      dup3\n        /* \"#utility.yul\":5122:5140   */\n      add\n        /* \"#utility.yul\":5114:5140   */\n      swap1\n      pop\n        /* \"#utility.yul\":5150:5221   */\n      tag_136\n        /* \"#utility.yul\":5218:5219   */\n      0x00\n        /* \"#utility.yul\":5207:5216   */\n      dup4\n        /* \"#utility.yul\":5203:5220   */\n      add\n        /* \"#utility.yul\":5194:5200   */\n      dup5\n        /* \"#utility.yul\":5150:5221   */\n      tag_63\n      jump\t// in\n    tag_136:\n        /* \"#utility.yul\":5006:5228   */\n      swap3\n      swap2\n      pop\n      pop\n      jump\t// out\n        /* \"#utility.yul\":5234:5360   */\n    tag_64:\n        /* \"#utility.yul\":5271:5278   */\n      0x00\n        /* \"#utility.yul\":5311:5353   */\n      0xffffffffffffffffffffffffffffffffffffffff\n        /* \"#utility.yul\":5304:5309   */\n      dup3\n        /* \"#utility.yul\":5300:5354   */\n      and\n        /* \"#utility.yul\":5289:5354   */\n      swap1\n      pop\n        /* \"#utility.yul\":5234:5360   */\n      swap2\n      swap1\n      pop\n      jump\t// out\n        /* \"#utility.yul\":5366:5462   */\n    tag_65:\n        /* \"#utility.yul\":5403:5410   */\n      0x00\n        /* \"#utility.yul\":5432:5456   */\n      tag_139\n        /* \"#utility.yul\":5450:5455   */\n      dup3\n        /* \"#utility.yul\":5432:5456   */\n      tag_64\n      jump\t// in\n    tag_139:\n        /* \"#utility.yul\":5421:5456   */\n      swap1\n      pop\n        /* \"#utility.yul\":5366:5462   */\n      swap2\n      swap1\n      pop\n      jump\t// out\n        /* \"#utility.yul\":5468:5586   */\n    tag_66:\n        /* \"#utility.yul\":5555:5579   */\n      tag_141\n        /* \"#utility.yul\":5573:5578   */\n      dup2\n        /* \"#utility.yul\":5555:5579   */\n      tag_65\n      jump\t// in\n    tag_141:\n        /* \"#utility.yul\":5550:5553   */\n      dup3\n        /* \"#utility.yul\":5543:5580   */\n      mstore\n        /* \"#utility.yul\":5468:5586   */\n      pop\n      pop\n      jump\t// out\n        /* \"#utility.yul\":5592:5814   */\n    tag_25:\n        /* \"#utility.yul\":5685:5689   */\n      0x00\n        /* \"#utility.yul\":5723:5725   */\n      0x20\n        /* \"#utility.yul\":5712:5721   */\n      dup3\n        /* \"#utility.yul\":5708:5726   */\n      add\n        /* \"#utility.yul\":5700:5726   */\n      swap1\n      pop\n        /* \"#utility.yul\":5736:5807   */\n      tag_143\n        /* \"#utility.yul\":5804:5805   */\n      0x00\n        /* \"#utility.yul\":5793:5802   */\n      dup4\n        /* \"#utility.yul\":5789:5806   */\n      add\n        /* \"#utility.yul\":5780:5786   */\n      dup5\n        /* \"#utility.yul\":5736:5807   */\n      tag_66\n      jump\t// in\n    tag_143:\n        /* \"#utility.yul\":5592:5814   */\n      swap3\n      swap2\n      pop\n      pop\n      jump\t// out\n        /* \"#utility.yul\":5820:6000   */\n    tag_42:\n        /* \"#utility.yul\":5868:5945   */\n      0x4e487b7100000000000000000000000000000000000000000000000000000000\n        /* \"#utility.yul\":5865:5866   */\n      0x00\n        /* \"#utility.yul\":5858:5946   */\n      mstore\n        /* \"#utility.yul\":5965:5969   */\n      0x21\n        /* \"#utility.yul\":5962:5963   */\n      0x04\n        /* \"#utility.yul\":5955:5970   */\n      mstore\n        /* \"#utility.yul\":5989:5993   */\n      0x24\n        /* \"#utility.yul\":5986:5987   */\n      0x00\n        /* \"#utility.yul\":5979:5994   */\n      revert\n        /* \"#utility.yul\":6006:6123   */\n    tag_67:\n        /* \"#utility.yul\":6091:6092   */\n      0x05\n        /* \"#utility.yul\":6084:6089   */\n      dup2\n        /* \"#utility.yul\":6081:6093   */\n      lt\n        /* \"#utility.yul\":6071:6117   */\n      tag_146\n      jumpi\n        /* \"#utility.yul\":6097:6115   */\n      tag_147\n      tag_42\n      jump\t// in\n    tag_147:\n        /* \"#utility.yul\":6071:6117   */\n    tag_146:\n        /* \"#utility.yul\":6006:6123   */\n      pop\n      jump\t// out\n        /* \"#utility.yul\":6129:6264   */\n    tag_68:\n        /* \"#utility.yul\":6178:6185   */\n      0x00\n        /* \"#utility.yul\":6207:6212   */\n      dup2\n        /* \"#utility.yul\":6196:6212   */\n      swap1\n      pop\n        /* \"#utility.yul\":6213:6258   */\n      tag_149\n        /* \"#utility.yul\":6252:6257   */\n      dup3\n        /* \"#utility.yul\":6213:6258   */\n      tag_67\n      jump\t// in\n    tag_149:\n        /* \"#utility.yul\":6129:6264   */\n      swap2\n      swap1\n      pop\n      jump\t// out\n        /* \"#utility.yul\":6270:6405   */\n    tag_69:\n        /* \"#utility.yul\":6330:6339   */\n      0x00\n        /* \"#utility.yul\":6363:6399   */\n      tag_151\n        /* \"#utility.yul\":6393:6398   */\n      dup3\n        /* \"#utility.yul\":6363:6399   */\n      tag_68\n      jump\t// in\n    tag_151:\n        /* \"#utility.yul\":6350:6399   */\n      swap1\n      pop\n        /* \"#utility.yul\":6270:6405   */\n      swap2\n      swap1\n      pop\n      jump\t// out\n        /* \"#utility.yul\":6411:6562   */\n    tag_70:\n        /* \"#utility.yul\":6508:6555   */\n      tag_153\n        /* \"#utility.yul\":6549:6554   */\n      dup2\n        /* \"#utility.yul\":6508:6555   */\n      tag_69\n      jump\t// in\n    tag_153:\n        /* \"#utility.yul\":6503:6506   */\n      dup3\n        /* \"#utility.yul\":6496:6556   */\n      mstore\n        /* \"#utility.yul\":6411:6562   */\n      pop\n      pop\n      jump\t// out\n        /* \"#utility.yul\":6568:6810   */\n    tag_29:\n        /* \"#utility.yul\":6671:6675   */\n      0x00\n        /* \"#utility.yul\":6709:6711   */\n      0x20\n        /* \"#utility.yul\":6698:6707   */\n      dup3\n        /* \"#utility.yul\":6694:6712   */\n      add\n        /* \"#utility.yul\":6686:6712   */\n      swap1\n      pop\n        /* \"#utility.yul\":6722:6803   */\n      tag_155\n        /* \"#utility.yul\":6800:6801   */\n      0x00\n        /* \"#utility.yul\":6789:6798   */\n      dup4\n        /* \"#utility.yul\":6785:6802   */\n      add\n        /* \"#utility.yul\":6776:6782   */\n      dup5\n        /* \"#utility.yul\":6722:6803   */\n      tag_70\n      jump\t// in\n    tag_155:\n        /* \"#utility.yul\":6568:6810   */\n      swap3\n      swap2\n      pop\n      pop\n      jump\t// out\n        /* \"#utility.yul\":6816:6985   */\n    tag_71:\n        /* \"#utility.yul\":6900:6911   */\n      0x00\n        /* \"#utility.yul\":6934:6940   */\n      dup3\n        /* \"#utility.yul\":6929:6932   */\n      dup3\n        /* \"#utility.yul\":6922:6941   */\n      mstore\n        /* \"#utility.yul\":6974:6978   */\n      0x20\n        /* \"#utility.yul\":6969:6972   */\n      dup3\n        /* \"#utility.yul\":6965:6979   */\n      add\n        /* \"#utility.yul\":6950:6979   */\n      swap1\n      pop\n        /* \"#utility.yul\":6816:6985   */\n      swap3\n      swap2\n      pop\n      pop\n      jump\t// out\n        /* \"#utility.yul\":6991:7214   */\n    tag_72:\n        /* \"#utility.yul\":7131:7165   */\n      0x596f7520616c7265616479206861766520626f72726f7765642074686520616e\n        /* \"#utility.yul\":7127:7128   */\n      0x00\n        /* \"#utility.yul\":7119:7125   */\n      dup3\n        /* \"#utility.yul\":7115:7129   */\n      add\n        /* \"#utility.yul\":7108:7166   */\n      mstore\n        /* \"#utility.yul\":7200:7206   */\n      0x696d616c00000000000000000000000000000000000000000000000000000000\n        /* \"#utility.yul\":7195:7197   */\n      0x20\n        /* \"#utility.yul\":7187:7193   */\n      dup3\n        /* \"#utility.yul\":7183:7198   */\n      add\n        /* \"#utility.yul\":7176:7207   */\n      mstore\n        /* \"#utility.yul\":6991:7214   */\n      pop\n      jump\t// out\n        /* \"#utility.yul\":7220:7586   */\n    tag_73:\n        /* \"#utility.yul\":7362:7365   */\n      0x00\n        /* \"#utility.yul\":7383:7450   */\n      tag_159\n        /* \"#utility.yul\":7447:7449   */\n      0x24\n        /* \"#utility.yul\":7442:7445   */\n      dup4\n        /* \"#utility.yul\":7383:7450   */\n      tag_71\n      jump\t// in\n    tag_159:\n        /* \"#utility.yul\":7376:7450   */\n      swap2\n      pop\n        /* \"#utility.yul\":7459:7552   */\n      tag_160\n        /* \"#utility.yul\":7548:7551   */\n      dup3\n        /* \"#utility.yul\":7459:7552   */\n      tag_72\n      jump\t// in\n    tag_160:\n        /* \"#utility.yul\":7577:7579   */\n      0x40\n        /* \"#utility.yul\":7572:7575   */\n      dup3\n        /* \"#utility.yul\":7568:7580   */\n      add\n        /* \"#utility.yul\":7561:7580   */\n      swap1\n      pop\n        /* \"#utility.yul\":7220:7586   */\n      swap2\n      swap1\n      pop\n      jump\t// out\n        /* \"#utility.yul\":7592:8011   */\n    tag_33:\n        /* \"#utility.yul\":7758:7762   */\n      0x00\n        /* \"#utility.yul\":7796:7798   */\n      0x20\n        /* \"#utility.yul\":7785:7794   */\n      dup3\n        /* \"#utility.yul\":7781:7799   */\n      add\n        /* \"#utility.yul\":7773:7799   */\n      swap1\n      pop\n        /* \"#utility.yul\":7845:7854   */\n      dup2\n        /* \"#utility.yul\":7839:7843   */\n      dup2\n        /* \"#utility.yul\":7835:7855   */\n      sub\n        /* \"#utility.yul\":7831:7832   */\n      0x00\n        /* \"#utility.yul\":7820:7829   */\n      dup4\n        /* \"#utility.yul\":7816:7833   */\n      add\n        /* \"#utility.yul\":7809:7856   */\n      mstore\n        /* \"#utility.yul\":7873:8004   */\n      tag_162\n        /* \"#utility.yul\":7999:8003   */\n      dup2\n        /* \"#utility.yul\":7873:8004   */\n      tag_73\n      jump\t// in\n    tag_162:\n        /* \"#utility.yul\":7865:8004   */\n      swap1\n      pop\n        /* \"#utility.yul\":7592:8011   */\n      swap2\n      swap1\n      pop\n      jump\t// out\n        /* \"#utility.yul\":8017:8195   */\n    tag_74:\n        /* \"#utility.yul\":8157:8187   */\n      0x4f6e6c79206f776e65722063616e2067697665207368656c7465722000000000\n        /* \"#utility.yul\":8153:8154   */\n      0x00\n        /* \"#utility.yul\":8145:8151   */\n      dup3\n        /* \"#utility.yul\":8141:8155   */\n      add\n        /* \"#utility.yul\":8134:8188   */\n      mstore\n        /* \"#utility.yul\":8017:8195   */\n      pop\n      jump\t// out\n        /* \"#utility.yul\":8201:8567   */\n    tag_75:\n        /* \"#utility.yul\":8343:8346   */\n      0x00\n        /* \"#utility.yul\":8364:8431   */\n      tag_165\n        /* \"#utility.yul\":8428:8430   */\n      0x1c\n        /* \"#utility.yul\":8423:8426   */\n      dup4\n        /* \"#utility.yul\":8364:8431   */\n      tag_71\n      jump\t// in\n    tag_165:\n        /* \"#utility.yul\":8357:8431   */\n      swap2\n      pop\n        /* \"#utility.yul\":8440:8533   */\n      tag_166\n        /* \"#utility.yul\":8529:8532   */\n      dup3\n        /* \"#utility.yul\":8440:8533   */\n      tag_74\n      jump\t// in\n    tag_166:\n        /* \"#utility.yul\":8558:8560   */\n      0x20\n        /* \"#utility.yul\":8553:8556   */\n      dup3\n        /* \"#utility.yul\":8549:8561   */\n      add\n        /* \"#utility.yul\":8542:8561   */\n      swap1\n      pop\n        /* \"#utility.yul\":8201:8567   */\n      swap2\n      swap1\n      pop\n      jump\t// out\n        /* \"#utility.yul\":8573:8992   */\n    tag_38:\n        /* \"#utility.yul\":8739:8743   */\n      0x00\n        /* \"#utility.yul\":8777:8779   */\n      0x20\n        /* \"#utility.yul\":8766:8775   */\n      dup3\n        /* \"#utility.yul\":8762:8780   */\n      add\n        /* \"#utility.yul\":8754:8780   */\n      swap1\n      pop\n        /* \"#utility.yul\":8826:8835   */\n      dup2\n        /* \"#utility.yul\":8820:8824   */\n      dup2\n        /* \"#utility.yul\":8816:8836   */\n      sub\n        /* \"#utility.yul\":8812:8813   */\n      0x00\n        /* \"#utility.yul\":8801:8810   */\n      dup4\n        /* \"#utility.yul\":8797:8814   */\n      add\n        /* \"#utility.yul\":8790:8837   */\n      mstore\n        /* \"#utility.yul\":8854:8985   */\n      tag_168\n        /* \"#utility.yul\":8980:8984   */\n      dup2\n        /* \"#utility.yul\":8854:8985   */\n      tag_75\n      jump\t// in\n    tag_168:\n        /* \"#utility.yul\":8846:8985   */\n      swap1\n      pop\n        /* \"#utility.yul\":8573:8992   */\n      swap2\n      swap1\n      pop\n      jump\t// out\n\n    auxdata: 0xa2646970667358221220c08de7093a3a7ef0eb906a51f5f5256d958a35c91f24349bd3b9433349409a1064736f6c63430008090033\n}\n",
				"bytecode": {
					"linkReferences": {},
					"object": "608060405234801561001057600080fd5b5033600060016101000a81548173ffffffffffffffffffffffffffffffffffffffff021916908373ffffffffffffffffffffffffffffffffffffffff1602179055506107d1806100616000396000f3fe608060405234801561001057600080fd5b50600436106100575760003560e01c806307f93f171461005c5780631b54ac80146100785780632b23461f146100945780638da5cb5b146100c4578063ec73cab5146100e2575b600080fd5b61007660048036038101906100719190610498565b610100565b005b610092600480360381019061008d9190610507565b6101c4565b005b6100ae60048036038101906100a99190610547565b610294565b6040516100bb9190610583565b60405180910390f35b6100cc6102ac565b6040516100d991906105df565b60405180910390f35b6100ea6102d2565b6040516100f79190610671565b60405180910390f35b60011515600260003373ffffffffffffffffffffffffffffffffffffffff1673ffffffffffffffffffffffffffffffffffffffff16815260200190815260200160002060009054906101000a900460ff1615151415610194576040517f08c379a000000000000000000000000000000000000000000000000000000000815260040161018b9061070f565b60405180910390fd5b7f310c3571b23091c007dda125492f3d2ae4469bdd98f17f8b3b7ba8fdb0f1272c82805190602001205050505050565b600060019054906101000a900473ffffffffffffffffffffffffffffffffffffffff1673ffffffffffffffffffffffffffffffffffffffff163373ffffffffffffffffffffffffffffffffffffffff1614610254576040517f08c379a000000000000000000000000000000000000000000000000000000000815260040161024b9061077b565b60405180910390fd5b806001600084600481111561026c5761026b6105fa565b5b600481111561027e5761027d6105fa565b5b8152602001908152602001600020819055505050565b60016020528060005260406000206000915090505481565b600060019054906101000a900473ffffffffffffffffffffffffffffffffffffffff1681565b60008054906101000a900460ff1681565b6000604051905090565b600080fd5b600080fd5b6000819050919050565b61030a816102f7565b811461031557600080fd5b50565b60008135905061032781610301565b92915050565b600080fd5b600080fd5b6000601f19601f8301169050919050565b7f4e487b7100000000000000000000000000000000000000000000000000000000600052604160045260246000fd5b61038082610337565b810181811067ffffffffffffffff8211171561039f5761039e610348565b5b80604052505050565b60006103b26102e3565b90506103be8282610377565b919050565b600067ffffffffffffffff8211156103de576103dd610348565b5b6103e782610337565b9050602081019050919050565b82818337600083830152505050565b6000610416610411846103c3565b6103a8565b90508281526020810184848401111561043257610431610332565b5b61043d8482856103f4565b509392505050565b600082601f83011261045a5761045961032d565b5b813561046a848260208601610403565b91505092915050565b6005811061048057600080fd5b50565b60008135905061049281610473565b92915050565b6000806000606084860312156104b1576104b06102ed565b5b60006104bf86828701610318565b935050602084013567ffffffffffffffff8111156104e0576104df6102f2565b5b6104ec86828701610445565b92505060406104fd86828701610483565b9150509250925092565b6000806040838503121561051e5761051d6102ed565b5b600061052c85828601610483565b925050602061053d85828601610318565b9150509250929050565b60006020828403121561055d5761055c6102ed565b5b600061056b84828501610483565b91505092915050565b61057d816102f7565b82525050565b60006020820190506105986000830184610574565b92915050565b600073ffffffffffffffffffffffffffffffffffffffff82169050919050565b60006105c98261059e565b9050919050565b6105d9816105be565b82525050565b60006020820190506105f460008301846105d0565b92915050565b7f4e487b7100000000000000000000000000000000000000000000000000000000600052602160045260246000fd5b6005811061063a576106396105fa565b5b50565b600081905061064b82610629565b919050565b600061065b8261063d565b9050919050565b61066b81610650565b82525050565b60006020820190506106866000830184610662565b92915050565b600082825260208201905092915050565b7f596f7520616c7265616479206861766520626f72726f7765642074686520616e60008201527f696d616c00000000000000000000000000000000000000000000000000000000602082015250565b60006106f960248361068c565b91506107048261069d565b604082019050919050565b60006020820190508181036000830152610728816106ec565b9050919050565b7f4f6e6c79206f776e65722063616e2067697665207368656c7465722000000000600082015250565b6000610765601c8361068c565b91506107708261072f565b602082019050919050565b6000602082019050818103600083015261079481610758565b905091905056fea2646970667358221220c08de7093a3a7ef0eb906a51f5f5256d958a35c91f24349bd3b9433349409a1064736f6c63430008090033",
					"opcodes": "PUSH1 0x80 PUSH1 0x40 MSTORE CALLVALUE DUP1 ISZERO PUSH2 0x10 JUMPI PUSH1 0x0 DUP1 REVERT JUMPDEST POP CALLER PUSH1 0x0 PUSH1 0x1 PUSH2 0x100 EXP DUP2 SLOAD DUP2 PUSH20 0xFFFFFFFFFFFFFFFFFFFFFFFFFFFFFFFFFFFFFFFF MUL NOT AND SWAP1 DUP4 PUSH20 0xFFFFFFFFFFFFFFFFFFFFFFFFFFFFFFFFFFFFFFFF AND MUL OR SWAP1 SSTORE POP PUSH2 0x7D1 DUP1 PUSH2 0x61 PUSH1 0x0 CODECOPY PUSH1 0x0 RETURN INVALID PUSH1 0x80 PUSH1 0x40 MSTORE CALLVALUE DUP1 ISZERO PUSH2 0x10 JUMPI PUSH1 0x0 DUP1 REVERT JUMPDEST POP PUSH1 0x4 CALLDATASIZE LT PUSH2 0x57 JUMPI PUSH1 0x0 CALLDATALOAD PUSH1 0xE0 SHR DUP1 PUSH4 0x7F93F17 EQ PUSH2 0x5C JUMPI DUP1 PUSH4 0x1B54AC80 EQ PUSH2 0x78 JUMPI DUP1 PUSH4 0x2B23461F EQ PUSH2 0x94 JUMPI DUP1 PUSH4 0x8DA5CB5B EQ PUSH2 0xC4 JUMPI DUP1 PUSH4 0xEC73CAB5 EQ PUSH2 0xE2 JUMPI JUMPDEST PUSH1 0x0 DUP1 REVERT JUMPDEST PUSH2 0x76 PUSH1 0x4 DUP1 CALLDATASIZE SUB DUP2 ADD SWAP1 PUSH2 0x71 SWAP2 SWAP1 PUSH2 0x498 JUMP JUMPDEST PUSH2 0x100 JUMP JUMPDEST STOP JUMPDEST PUSH2 0x92 PUSH1 0x4 DUP1 CALLDATASIZE SUB DUP2 ADD SWAP1 PUSH2 0x8D SWAP2 SWAP1 PUSH2 0x507 JUMP JUMPDEST PUSH2 0x1C4 JUMP JUMPDEST STOP JUMPDEST PUSH2 0xAE PUSH1 0x4 DUP1 CALLDATASIZE SUB DUP2 ADD SWAP1 PUSH2 0xA9 SWAP2 SWAP1 PUSH2 0x547 JUMP JUMPDEST PUSH2 0x294 JUMP JUMPDEST PUSH1 0x40 MLOAD PUSH2 0xBB SWAP2 SWAP1 PUSH2 0x583 JUMP JUMPDEST PUSH1 0x40 MLOAD DUP1 SWAP2 SUB SWAP1 RETURN JUMPDEST PUSH2 0xCC PUSH2 0x2AC JUMP JUMPDEST PUSH1 0x40 MLOAD PUSH2 0xD9 SWAP2 SWAP1 PUSH2 0x5DF JUMP JUMPDEST PUSH1 0x40 MLOAD DUP1 SWAP2 SUB SWAP1 RETURN JUMPDEST PUSH2 0xEA PUSH2 0x2D2 JUMP JUMPDEST PUSH1 0x40 MLOAD PUSH2 0xF7 SWAP2 SWAP1 PUSH2 0x671 JUMP JUMPDEST PUSH1 0x40 MLOAD DUP1 SWAP2 SUB SWAP1 RETURN JUMPDEST PUSH1 0x1 ISZERO ISZERO PUSH1 0x2 PUSH1 0x0 CALLER PUSH20 0xFFFFFFFFFFFFFFFFFFFFFFFFFFFFFFFFFFFFFFFF AND PUSH20 0xFFFFFFFFFFFFFFFFFFFFFFFFFFFFFFFFFFFFFFFF AND DUP2 MSTORE PUSH1 0x20 ADD SWAP1 DUP2 MSTORE PUSH1 0x20 ADD PUSH1 0x0 KECCAK256 PUSH1 0x0 SWAP1 SLOAD SWAP1 PUSH2 0x100 EXP SWAP1 DIV PUSH1 0xFF AND ISZERO ISZERO EQ ISZERO PUSH2 0x194 JUMPI PUSH1 0x40 MLOAD PUSH32 0x8C379A000000000000000000000000000000000000000000000000000000000 DUP2 MSTORE PUSH1 0x4 ADD PUSH2 0x18B SWAP1 PUSH2 0x70F JUMP JUMPDEST PUSH1 0x40 MLOAD DUP1 SWAP2 SUB SWAP1 REVERT JUMPDEST PUSH32 0x310C3571B23091C007DDA125492F3D2AE4469BDD98F17F8B3B7BA8FDB0F1272C DUP3 DUP1 MLOAD SWAP1 PUSH1 0x20 ADD KECCAK256 POP POP POP POP POP JUMP JUMPDEST PUSH1 0x0 PUSH1 0x1 SWAP1 SLOAD SWAP1 PUSH2 0x100 EXP SWAP1 DIV PUSH20 0xFFFFFFFFFFFFFFFFFFFFFFFFFFFFFFFFFFFFFFFF AND PUSH20 0xFFFFFFFFFFFFFFFFFFFFFFFFFFFFFFFFFFFFFFFF AND CALLER PUSH20 0xFFFFFFFFFFFFFFFFFFFFFFFFFFFFFFFFFFFFFFFF AND EQ PUSH2 0x254 JUMPI PUSH1 0x40 MLOAD PUSH32 0x8C379A000000000000000000000000000000000000000000000000000000000 DUP2 MSTORE PUSH1 0x4 ADD PUSH2 0x24B SWAP1 PUSH2 0x77B JUMP JUMPDEST PUSH1 0x40 MLOAD DUP1 SWAP2 SUB SWAP1 REVERT JUMPDEST DUP1 PUSH1 0x1 PUSH1 0x0 DUP5 PUSH1 0x4 DUP2 GT ISZERO PUSH2 0x26C JUMPI PUSH2 0x26B PUSH2 0x5FA JUMP JUMPDEST JUMPDEST PUSH1 0x4 DUP2 GT ISZERO PUSH2 0x27E JUMPI PUSH2 0x27D PUSH2 0x5FA JUMP JUMPDEST JUMPDEST DUP2 MSTORE PUSH1 0x20 ADD SWAP1 DUP2 MSTORE PUSH1 0x20 ADD PUSH1 0x0 KECCAK256 DUP2 SWAP1 SSTORE POP POP POP JUMP JUMPDEST PUSH1 0x1 PUSH1 0x20 MSTORE DUP1 PUSH1 0x0 MSTORE PUSH1 0x40 PUSH1 0x0 KECCAK256 PUSH1 0x0 SWAP2 POP SWAP1 POP SLOAD DUP2 JUMP JUMPDEST PUSH1 0x0 PUSH1 0x1 SWAP1 SLOAD SWAP1 PUSH2 0x100 EXP SWAP1 DIV PUSH20 0xFFFFFFFFFFFFFFFFFFFFFFFFFFFFFFFFFFFFFFFF AND DUP2 JUMP JUMPDEST PUSH1 0x0 DUP1 SLOAD SWAP1 PUSH2 0x100 EXP SWAP1 DIV PUSH1 0xFF AND DUP2 JUMP JUMPDEST PUSH1 0x0 PUSH1 0x40 MLOAD SWAP1 POP SWAP1 JUMP JUMPDEST PUSH1 0x0 DUP1 REVERT JUMPDEST PUSH1 0x0 DUP1 REVERT JUMPDEST PUSH1 0x0 DUP2 SWAP1 POP SWAP2 SWAP1 POP JUMP JUMPDEST PUSH2 0x30A DUP2 PUSH2 0x2F7 JUMP JUMPDEST DUP2 EQ PUSH2 0x315 JUMPI PUSH1 0x0 DUP1 REVERT JUMPDEST POP JUMP JUMPDEST PUSH1 0x0 DUP2 CALLDATALOAD SWAP1 POP PUSH2 0x327 DUP2 PUSH2 0x301 JUMP JUMPDEST SWAP3 SWAP2 POP POP JUMP JUMPDEST PUSH1 0x0 DUP1 REVERT JUMPDEST PUSH1 0x0 DUP1 REVERT JUMPDEST PUSH1 0x0 PUSH1 0x1F NOT PUSH1 0x1F DUP4 ADD AND SWAP1 POP SWAP2 SWAP1 POP JUMP JUMPDEST PUSH32 0x4E487B7100000000000000000000000000000000000000000000000000000000 PUSH1 0x0 MSTORE PUSH1 0x41 PUSH1 0x4 MSTORE PUSH1 0x24 PUSH1 0x0 REVERT JUMPDEST PUSH2 0x380 DUP3 PUSH2 0x337 JUMP JUMPDEST DUP2 ADD DUP2 DUP2 LT PUSH8 0xFFFFFFFFFFFFFFFF DUP3 GT OR ISZERO PUSH2 0x39F JUMPI PUSH2 0x39E PUSH2 0x348 JUMP JUMPDEST JUMPDEST DUP1 PUSH1 0x40 MSTORE POP POP POP JUMP JUMPDEST PUSH1 0x0 PUSH2 0x3B2 PUSH2 0x2E3 JUMP JUMPDEST SWAP1 POP PUSH2 0x3BE DUP3 DUP3 PUSH2 0x377 JUMP JUMPDEST SWAP2 SWAP1 POP JUMP JUMPDEST PUSH1 0x0 PUSH8 0xFFFFFFFFFFFFFFFF DUP3 GT ISZERO PUSH2 0x3DE JUMPI PUSH2 0x3DD PUSH2 0x348 JUMP JUMPDEST JUMPDEST PUSH2 0x3E7 DUP3 PUSH2 0x337 JUMP JUMPDEST SWAP1 POP PUSH1 0x20 DUP2 ADD SWAP1 POP SWAP2 SWAP1 POP JUMP JUMPDEST DUP3 DUP2 DUP4 CALLDATACOPY PUSH1 0x0 DUP4 DUP4 ADD MSTORE POP POP POP JUMP JUMPDEST PUSH1 0x0 PUSH2 0x416 PUSH2 0x411 DUP5 PUSH2 0x3C3 JUMP JUMPDEST PUSH2 0x3A8 JUMP JUMPDEST SWAP1 POP DUP3 DUP2 MSTORE PUSH1 0x20 DUP2 ADD DUP5 DUP5 DUP5 ADD GT ISZERO PUSH2 0x432 JUMPI PUSH2 0x431 PUSH2 0x332 JUMP JUMPDEST JUMPDEST PUSH2 0x43D DUP5 DUP3 DUP6 PUSH2 0x3F4 JUMP JUMPDEST POP SWAP4 SWAP3 POP POP POP JUMP JUMPDEST PUSH1 0x0 DUP3 PUSH1 0x1F DUP4 ADD SLT PUSH2 0x45A JUMPI PUSH2 0x459 PUSH2 0x32D JUMP JUMPDEST JUMPDEST DUP2 CALLDATALOAD PUSH2 0x46A DUP5 DUP3 PUSH1 0x20 DUP7 ADD PUSH2 0x403 JUMP JUMPDEST SWAP2 POP POP SWAP3 SWAP2 POP POP JUMP JUMPDEST PUSH1 0x5 DUP2 LT PUSH2 0x480 JUMPI PUSH1 0x0 DUP1 REVERT JUMPDEST POP JUMP JUMPDEST PUSH1 0x0 DUP2 CALLDATALOAD SWAP1 POP PUSH2 0x492 DUP2 PUSH2 0x473 JUMP JUMPDEST SWAP3 SWAP2 POP POP JUMP JUMPDEST PUSH1 0x0 DUP1 PUSH1 0x0 PUSH1 0x60 DUP5 DUP7 SUB SLT ISZERO PUSH2 0x4B1 JUMPI PUSH2 0x4B0 PUSH2 0x2ED JUMP JUMPDEST JUMPDEST PUSH1 0x0 PUSH2 0x4BF DUP7 DUP3 DUP8 ADD PUSH2 0x318 JUMP JUMPDEST SWAP4 POP POP PUSH1 0x20 DUP5 ADD CALLDATALOAD PUSH8 0xFFFFFFFFFFFFFFFF DUP2 GT ISZERO PUSH2 0x4E0 JUMPI PUSH2 0x4DF PUSH2 0x2F2 JUMP JUMPDEST JUMPDEST PUSH2 0x4EC DUP7 DUP3 DUP8 ADD PUSH2 0x445 JUMP JUMPDEST SWAP3 POP POP PUSH1 0x40 PUSH2 0x4FD DUP7 DUP3 DUP8 ADD PUSH2 0x483 JUMP JUMPDEST SWAP2 POP POP SWAP3 POP SWAP3 POP SWAP3 JUMP JUMPDEST PUSH1 0x0 DUP1 PUSH1 0x40 DUP4 DUP6 SUB SLT ISZERO PUSH2 0x51E JUMPI PUSH2 0x51D PUSH2 0x2ED JUMP JUMPDEST JUMPDEST PUSH1 0x0 PUSH2 0x52C DUP6 DUP3 DUP7 ADD PUSH2 0x483 JUMP JUMPDEST SWAP3 POP POP PUSH1 0x20 PUSH2 0x53D DUP6 DUP3 DUP7 ADD PUSH2 0x318 JUMP JUMPDEST SWAP2 POP POP SWAP3 POP SWAP3 SWAP1 POP JUMP JUMPDEST PUSH1 0x0 PUSH1 0x20 DUP3 DUP5 SUB SLT ISZERO PUSH2 0x55D JUMPI PUSH2 0x55C PUSH2 0x2ED JUMP JUMPDEST JUMPDEST PUSH1 0x0 PUSH2 0x56B DUP5 DUP3 DUP6 ADD PUSH2 0x483 JUMP JUMPDEST SWAP2 POP POP SWAP3 SWAP2 POP POP JUMP JUMPDEST PUSH2 0x57D DUP2 PUSH2 0x2F7 JUMP JUMPDEST DUP3 MSTORE POP POP JUMP JUMPDEST PUSH1 0x0 PUSH1 0x20 DUP3 ADD SWAP1 POP PUSH2 0x598 PUSH1 0x0 DUP4 ADD DUP5 PUSH2 0x574 JUMP JUMPDEST SWAP3 SWAP2 POP POP JUMP JUMPDEST PUSH1 0x0 PUSH20 0xFFFFFFFFFFFFFFFFFFFFFFFFFFFFFFFFFFFFFFFF DUP3 AND SWAP1 POP SWAP2 SWAP1 POP JUMP JUMPDEST PUSH1 0x0 PUSH2 0x5C9 DUP3 PUSH2 0x59E JUMP JUMPDEST SWAP1 POP SWAP2 SWAP1 POP JUMP JUMPDEST PUSH2 0x5D9 DUP2 PUSH2 0x5BE JUMP JUMPDEST DUP3 MSTORE POP POP JUMP JUMPDEST PUSH1 0x0 PUSH1 0x20 DUP3 ADD SWAP1 POP PUSH2 0x5F4 PUSH1 0x0 DUP4 ADD DUP5 PUSH2 0x5D0 JUMP JUMPDEST SWAP3 SWAP2 POP POP JUMP JUMPDEST PUSH32 0x4E487B7100000000000000000000000000000000000000000000000000000000 PUSH1 0x0 MSTORE PUSH1 0x21 PUSH1 0x4 MSTORE PUSH1 0x24 PUSH1 0x0 REVERT JUMPDEST PUSH1 0x5 DUP2 LT PUSH2 0x63A JUMPI PUSH2 0x639 PUSH2 0x5FA JUMP JUMPDEST JUMPDEST POP JUMP JUMPDEST PUSH1 0x0 DUP2 SWAP1 POP PUSH2 0x64B DUP3 PUSH2 0x629 JUMP JUMPDEST SWAP2 SWAP1 POP JUMP JUMPDEST PUSH1 0x0 PUSH2 0x65B DUP3 PUSH2 0x63D JUMP JUMPDEST SWAP1 POP SWAP2 SWAP1 POP JUMP JUMPDEST PUSH2 0x66B DUP2 PUSH2 0x650 JUMP JUMPDEST DUP3 MSTORE POP POP JUMP JUMPDEST PUSH1 0x0 PUSH1 0x20 DUP3 ADD SWAP1 POP PUSH2 0x686 PUSH1 0x0 DUP4 ADD DUP5 PUSH2 0x662 JUMP JUMPDEST SWAP3 SWAP2 POP POP JUMP JUMPDEST PUSH1 0x0 DUP3 DUP3 MSTORE PUSH1 0x20 DUP3 ADD SWAP1 POP SWAP3 SWAP2 POP POP JUMP JUMPDEST PUSH32 0x596F7520616C7265616479206861766520626F72726F7765642074686520616E PUSH1 0x0 DUP3 ADD MSTORE PUSH32 0x696D616C00000000000000000000000000000000000000000000000000000000 PUSH1 0x20 DUP3 ADD MSTORE POP JUMP JUMPDEST PUSH1 0x0 PUSH2 0x6F9 PUSH1 0x24 DUP4 PUSH2 0x68C JUMP JUMPDEST SWAP2 POP PUSH2 0x704 DUP3 PUSH2 0x69D JUMP JUMPDEST PUSH1 0x40 DUP3 ADD SWAP1 POP SWAP2 SWAP1 POP JUMP JUMPDEST PUSH1 0x0 PUSH1 0x20 DUP3 ADD SWAP1 POP DUP2 DUP2 SUB PUSH1 0x0 DUP4 ADD MSTORE PUSH2 0x728 DUP2 PUSH2 0x6EC JUMP JUMPDEST SWAP1 POP SWAP2 SWAP1 POP JUMP JUMPDEST PUSH32 0x4F6E6C79206F776E65722063616E2067697665207368656C7465722000000000 PUSH1 0x0 DUP3 ADD MSTORE POP JUMP JUMPDEST PUSH1 0x0 PUSH2 0x765 PUSH1 0x1C DUP4 PUSH2 0x68C JUMP JUMPDEST SWAP2 POP PUSH2 0x770 DUP3 PUSH2 0x72F JUMP JUMPDEST PUSH1 0x20 DUP3 ADD SWAP1 POP SWAP2 SWAP1 POP JUMP JUMPDEST PUSH1 0x0 PUSH1 0x20 DUP3 ADD SWAP1 POP DUP2 DUP2 SUB PUSH1 0x0 DUP4 ADD MSTORE PUSH2 0x794 DUP2 PUSH2 0x758 JUMP JUMPDEST SWAP1 POP SWAP2 SWAP1 POP JUMP INVALID LOG2 PUSH5 0x6970667358 0x22 SLT KECCAK256 0xC0 DUP14 0xE7 MULMOD GASPRICE GASPRICE PUSH31 0xF0EB906A51F5F5256D958A35C91F24349BD3B9433349409A1064736F6C6343 STOP ADDMOD MULMOD STOP CALLER "
				},
				"gasEstimates": {
					"creation": {
						"codeDepositCost": "400200",
						"executionCost": "24752",
						"totalCost": "424952"
					},
					"external": {
						"add(uint8,uint256)": "25000",
						"animalKind()": "2623",
						"animals(uint8)": "2744",
						"buy(uint256,string,uint8)": "infinite",
						"owner()": "2608"
					}
				},
				"methodIdentifiers": {
					"add(uint8,uint256)": "1b54ac80",
					"animalKind()": "ec73cab5",
					"animals(uint8)": "2b23461f",
					"buy(uint256,string,uint8)": "07f93f17",
					"owner()": "8da5cb5b"
				}
			},
			"storageLayout": {
				"storage": [
					{
						"astId": 10,
						"contract": "PetSanctuary.sol:PetSanctuary",
						"label": "animalKind",
						"offset": 0,
						"slot": "0",
						"type": "t_enum(AnimalKind)7"
					},
					{
						"astId": 12,
						"contract": "PetSanctuary.sol:PetSanctuary",
						"label": "owner",
						"offset": 1,
						"slot": "0",
						"type": "t_address"
					},
					{
						"astId": 17,
						"contract": "PetSanctuary.sol:PetSanctuary",
						"label": "animals",
						"offset": 0,
						"slot": "1",
						"type": "t_mapping(t_enum(AnimalKind)7,t_uint256)"
					},
					{
						"astId": 21,
						"contract": "PetSanctuary.sol:PetSanctuary",
						"label": "buyers",
						"offset": 0,
						"slot": "2",
						"type": "t_mapping(t_address,t_bool)"
					}
				],
				"types": {
					"t_address": {
						"encoding": "inplace",
						"label": "address",
						"numberOfBytes": "20"
					},
					"t_bool": {
						"encoding": "inplace",
						"label": "bool",
						"numberOfBytes": "1"
					},
					"t_enum(AnimalKind)7": {
						"encoding": "inplace",
						"label": "enum PetSanctuary.AnimalKind",
						"numberOfBytes": "1"
					},
					"t_mapping(t_address,t_bool)": {
						"encoding": "mapping",
						"key": "t_address",
						"label": "mapping(address => bool)",
						"numberOfBytes": "32",
						"value": "t_bool"
					},
					"t_mapping(t_enum(AnimalKind)7,t_uint256)": {
						"encoding": "mapping",
						"key": "t_enum(AnimalKind)7",
						"label": "mapping(enum PetSanctuary.AnimalKind => uint256)",
						"numberOfBytes": "32",
						"value": "t_uint256"
					},
					"t_uint256": {
						"encoding": "inplace",
						"label": "uint256",
						"numberOfBytes": "32"
					}
				}
			},
			"userdoc": {
				"kind": "user",
				"methods": {},
				"version": 1
			}
		}
	}
}