{
	"start.sol": {
		"Counter": {
			"abi": [
				{
					"constant": true,
					"inputs": [],
					"name": "getCount",
					"outputs": [
						{
							"name": "",
							"type": "uint256"
						}
					],
					"payable": false,
					"stateMutability": "view",
					"type": "function"
				},
				{
					"constant": false,
					"inputs": [],
					"name": "decrementCount",
					"outputs": [],
					"payable": false,
					"stateMutability": "nonpayable",
					"type": "function"
				},
				{
					"constant": false,
					"inputs": [],
					"name": "incrementCount",
					"outputs": [],
					"payable": false,
					"stateMutability": "nonpayable",
					"type": "function"
				},
				{
					"anonymous": false,
					"inputs": [
						{
							"indexed": false,
							"name": "value",
							"type": "uint256"
						}
					],
					"name": "increment",
					"type": "event"
				},
				{
					"anonymous": false,
					"inputs": [
						{
							"indexed": false,
							"name": "value",
							"type": "uint256"
						}
					],
					"name": "decrement",
					"type": "event"
				}
			],
			"devdoc": {
				"methods": {}
			},
			"evm": {
				"assembly": "    /* \"start.sol\":26:400  contract Counter {... */\n  mstore(0x40, 0x80)\n    /* \"start.sol\":60:61  0 */\n  0x0\n    /* \"start.sol\":49:61  uint count=0 */\n  dup1\n  sstore\n    /* \"start.sol\":26:400  contract Counter {... */\n  callvalue\n    /* \"--CODEGEN--\":8:17   */\n  dup1\n    /* \"--CODEGEN--\":5:7   */\n  iszero\n  tag_1\n  jumpi\n    /* \"--CODEGEN--\":30:31   */\n  0x0\n    /* \"--CODEGEN--\":27:28   */\n  dup1\n    /* \"--CODEGEN--\":20:32   */\n  revert\n    /* \"--CODEGEN--\":5:7   */\ntag_1:\n    /* \"start.sol\":26:400  contract Counter {... */\n  pop\n  dataSize(sub_0)\n  dup1\n  dataOffset(sub_0)\n  0x0\n  codecopy\n  0x0\n  return\nstop\n\nsub_0: assembly {\n        /* \"start.sol\":26:400  contract Counter {... */\n      mstore(0x40, 0x80)\n      jumpi(tag_1, lt(calldatasize, 0x4))\n      calldataload(0x0)\n      0x100000000000000000000000000000000000000000000000000000000\n      swap1\n      div\n      dup1\n      0xa87d942c\n      eq\n      tag_2\n      jumpi\n      dup1\n      0xb7f90f12\n      eq\n      tag_3\n      jumpi\n      dup1\n      0xe5071b8e\n      eq\n      tag_4\n      jumpi\n    tag_1:\n      0x0\n      dup1\n      revert\n        /* \"start.sol\":324:398  function getCount() view public returns(uint){... */\n    tag_2:\n      callvalue\n        /* \"--CODEGEN--\":8:17   */\n      dup1\n        /* \"--CODEGEN--\":5:7   */\n      iszero\n      tag_5\n      jumpi\n        /* \"--CODEGEN--\":30:31   */\n      0x0\n        /* \"--CODEGEN--\":27:28   */\n      dup1\n        /* \"--CODEGEN--\":20:32   */\n      revert\n        /* \"--CODEGEN--\":5:7   */\n    tag_5:\n        /* \"start.sol\":324:398  function getCount() view public returns(uint){... */\n      pop\n      tag_6\n      tag_7\n      jump\t// in\n    tag_6:\n      mload(0x40)\n      dup1\n      dup3\n      dup2\n      mstore\n      0x20\n      add\n      swap2\n      pop\n      pop\n      mload(0x40)\n      dup1\n      swap2\n      sub\n      swap1\n      return\n        /* \"start.sol\":229:318  function decrementCount() public {... */\n    tag_3:\n      callvalue\n        /* \"--CODEGEN--\":8:17   */\n      dup1\n        /* \"--CODEGEN--\":5:7   */\n      iszero\n      tag_8\n      jumpi\n        /* \"--CODEGEN--\":30:31   */\n      0x0\n        /* \"--CODEGEN--\":27:28   */\n      dup1\n        /* \"--CODEGEN--\":20:32   */\n      revert\n        /* \"--CODEGEN--\":5:7   */\n    tag_8:\n        /* \"start.sol\":229:318  function decrementCount() public {... */\n      pop\n      tag_9\n      tag_10\n      jump\t// in\n    tag_9:\n      stop\n        /* \"start.sol\":135:223  function incrementCount() public{... */\n    tag_4:\n      callvalue\n        /* \"--CODEGEN--\":8:17   */\n      dup1\n        /* \"--CODEGEN--\":5:7   */\n      iszero\n      tag_11\n      jumpi\n        /* \"--CODEGEN--\":30:31   */\n      0x0\n        /* \"--CODEGEN--\":27:28   */\n      dup1\n        /* \"--CODEGEN--\":20:32   */\n      revert\n        /* \"--CODEGEN--\":5:7   */\n    tag_11:\n        /* \"start.sol\":135:223  function incrementCount() public{... */\n      pop\n      tag_12\n      tag_13\n      jump\t// in\n    tag_12:\n      stop\n        /* \"start.sol\":324:398  function getCount() view public returns(uint){... */\n    tag_7:\n        /* \"start.sol\":364:368  uint */\n      0x0\n        /* \"start.sol\":386:391  count */\n      dup1\n      sload\n        /* \"start.sol\":379:391  return count */\n      swap1\n      pop\n        /* \"start.sol\":324:398  function getCount() view public returns(uint){... */\n      swap1\n      jump\t// out\n        /* \"start.sol\":229:318  function decrementCount() public {... */\n    tag_10:\n        /* \"start.sol\":279:280  1 */\n      0x1\n        /* \"start.sol\":272:277  count */\n      0x0\n      dup1\n        /* \"start.sol\":272:280  count-=1 */\n      dup3\n      dup3\n      sload\n      sub\n      swap3\n      pop\n      pop\n      dup2\n      swap1\n      sstore\n      pop\n        /* \"start.sol\":295:311  decrement(count) */\n      0x3a9ebefd0e9022a1fc7dca5027a8f0f5e8a71d2c1418950e434a825c353d0677\n        /* \"start.sol\":305:310  count */\n      sload(0x0)\n        /* \"start.sol\":295:311  decrement(count) */\n      mload(0x40)\n      dup1\n      dup3\n      dup2\n      mstore\n      0x20\n      add\n      swap2\n      pop\n      pop\n      mload(0x40)\n      dup1\n      swap2\n      sub\n      swap1\n      log1\n        /* \"start.sol\":229:318  function decrementCount() public {... */\n      jump\t// out\n        /* \"start.sol\":135:223  function incrementCount() public{... */\n    tag_13:\n        /* \"start.sol\":184:185  1 */\n      0x1\n        /* \"start.sol\":177:182  count */\n      0x0\n      dup1\n        /* \"start.sol\":177:185  count+=1 */\n      dup3\n      dup3\n      sload\n      add\n      swap3\n      pop\n      pop\n      dup2\n      swap1\n      sstore\n      pop\n        /* \"start.sol\":200:216  increment(count) */\n      0x7cf5dab01c7361384076429cdaa96970954ab0e6f0891e1226eb38be7a6b7918\n        /* \"start.sol\":210:215  count */\n      sload(0x0)\n        /* \"start.sol\":200:216  increment(count) */\n      mload(0x40)\n      dup1\n      dup3\n      dup2\n      mstore\n      0x20\n      add\n      swap2\n      pop\n      pop\n      mload(0x40)\n      dup1\n      swap2\n      sub\n      swap1\n      log1\n        /* \"start.sol\":135:223  function incrementCount() public{... */\n      jump\t// out\n\n    auxdata: 0xa165627a7a72305820160448c24dfc170a2a404c522605de4d6554742a8a8224bccd46cd15cc7f7f0b0029\n}\n",
				"bytecode": {
					"linkReferences": {},
					"object": "60806040526000805534801561001457600080fd5b5061017a806100246000396000f3fe608060405260043610610051576000357c010000000000000000000000000000000000000000000000000000000090048063a87d942c14610056578063b7f90f1214610081578063e5071b8e14610098575b600080fd5b34801561006257600080fd5b5061006b6100af565b6040518082815260200191505060405180910390f35b34801561008d57600080fd5b506100966100b8565b005b3480156100a457600080fd5b506100ad610103565b005b60008054905090565b600160008082825403925050819055507f3a9ebefd0e9022a1fc7dca5027a8f0f5e8a71d2c1418950e434a825c353d06776000546040518082815260200191505060405180910390a1565b600160008082825401925050819055507f7cf5dab01c7361384076429cdaa96970954ab0e6f0891e1226eb38be7a6b79186000546040518082815260200191505060405180910390a156fea165627a7a72305820160448c24dfc170a2a404c522605de4d6554742a8a8224bccd46cd15cc7f7f0b0029",
					"opcodes": "PUSH1 0x80 PUSH1 0x40 MSTORE PUSH1 0x0 DUP1 SSTORE CALLVALUE DUP1 ISZERO PUSH2 0x14 JUMPI PUSH1 0x0 DUP1 REVERT JUMPDEST POP PUSH2 0x17A DUP1 PUSH2 0x24 PUSH1 0x0 CODECOPY PUSH1 0x0 RETURN INVALID PUSH1 0x80 PUSH1 0x40 MSTORE PUSH1 0x4 CALLDATASIZE LT PUSH2 0x51 JUMPI PUSH1 0x0 CALLDATALOAD PUSH29 0x100000000000000000000000000000000000000000000000000000000 SWAP1 DIV DUP1 PUSH4 0xA87D942C EQ PUSH2 0x56 JUMPI DUP1 PUSH4 0xB7F90F12 EQ PUSH2 0x81 JUMPI DUP1 PUSH4 0xE5071B8E EQ PUSH2 0x98 JUMPI JUMPDEST PUSH1 0x0 DUP1 REVERT JUMPDEST CALLVALUE DUP1 ISZERO PUSH2 0x62 JUMPI PUSH1 0x0 DUP1 REVERT JUMPDEST POP PUSH2 0x6B PUSH2 0xAF JUMP JUMPDEST PUSH1 0x40 MLOAD DUP1 DUP3 DUP2 MSTORE PUSH1 0x20 ADD SWAP2 POP POP PUSH1 0x40 MLOAD DUP1 SWAP2 SUB SWAP1 RETURN JUMPDEST CALLVALUE DUP1 ISZERO PUSH2 0x8D JUMPI PUSH1 0x0 DUP1 REVERT JUMPDEST POP PUSH2 0x96 PUSH2 0xB8 JUMP JUMPDEST STOP JUMPDEST CALLVALUE DUP1 ISZERO PUSH2 0xA4 JUMPI PUSH1 0x0 DUP1 REVERT JUMPDEST POP PUSH2 0xAD PUSH2 0x103 JUMP JUMPDEST STOP JUMPDEST PUSH1 0x0 DUP1 SLOAD SWAP1 POP SWAP1 JUMP JUMPDEST PUSH1 0x1 PUSH1 0x0 DUP1 DUP3 DUP3 SLOAD SUB SWAP3 POP POP DUP2 SWAP1 SSTORE POP PUSH32 0x3A9EBEFD0E9022A1FC7DCA5027A8F0F5E8A71D2C1418950E434A825C353D0677 PUSH1 0x0 SLOAD PUSH1 0x40 MLOAD DUP1 DUP3 DUP2 MSTORE PUSH1 0x20 ADD SWAP2 POP POP PUSH1 0x40 MLOAD DUP1 SWAP2 SUB SWAP1 LOG1 JUMP JUMPDEST PUSH1 0x1 PUSH1 0x0 DUP1 DUP3 DUP3 SLOAD ADD SWAP3 POP POP DUP2 SWAP1 SSTORE POP PUSH32 0x7CF5DAB01C7361384076429CDAA96970954AB0E6F0891E1226EB38BE7A6B7918 PUSH1 0x0 SLOAD PUSH1 0x40 MLOAD DUP1 DUP3 DUP2 MSTORE PUSH1 0x20 ADD SWAP2 POP POP PUSH1 0x40 MLOAD DUP1 SWAP2 SUB SWAP1 LOG1 JUMP INVALID LOG1 PUSH6 0x627A7A723058 KECCAK256 AND DIV 0x48 0xc2 0x4d 0xfc OR EXP 0x2a BLOCKHASH 0x4c MSTORE 0x26 SDIV 0xde 0x4d PUSH6 0x54742A8A8224 0xbc 0xcd 0x46 0xcd ISZERO 0xcc PUSH32 0x7F0B002900000000000000000000000000000000000000000000000000000000 "
				},
				"gasEstimates": {
					"creation": {
						"codeDepositCost": "75600",
						"executionCost": "5129",
						"totalCost": "80729"
					},
					"external": {
						"decrementCount()": "21649",
						"getCount()": "396",
						"incrementCount()": "21671"
					}
				},
				"methodIdentifiers": {
					"decrementCount()": "b7f90f12",
					"getCount()": "a87d942c",
					"incrementCount()": "e5071b8e"
				}
			},
			"userdoc": {
				"methods": {}
			}
		}
	}
}