{
	"ActualBank.sol": {
		"ActualBank": {
			"abi": [
				{
					"inputs": [],
					"stateMutability": "nonpayable",
					"type": "constructor"
				},
				{
					"inputs": [
						{
							"internalType": "address",
							"name": "benificiaryAccount",
							"type": "address"
						}
					],
					"name": "deposit",
					"outputs": [
						{
							"internalType": "uint256",
							"name": "",
							"type": "uint256"
						}
					],
					"stateMutability": "payable",
					"type": "function"
				},
				{
					"inputs": [],
					"name": "getTotalBankBalance",
					"outputs": [
						{
							"internalType": "uint256",
							"name": "",
							"type": "uint256"
						}
					],
					"stateMutability": "view",
					"type": "function"
				},
				{
					"inputs": [
						{
							"internalType": "uint256",
							"name": "_secretKey",
							"type": "uint256"
						}
					],
					"name": "openAccount",
					"outputs": [
						{
							"internalType": "uint256",
							"name": "",
							"type": "uint256"
						}
					],
					"stateMutability": "payable",
					"type": "function"
				},
				{
					"inputs": [
						{
							"internalType": "uint256",
							"name": "_amount",
							"type": "uint256"
						},
						{
							"internalType": "uint256",
							"name": "_secretKey",
							"type": "uint256"
						}
					],
					"name": "withDraw",
					"outputs": [
						{
							"internalType": "uint256",
							"name": "",
							"type": "uint256"
						}
					],
					"stateMutability": "payable",
					"type": "function"
				}
			],
			"devdoc": {
				"kind": "dev",
				"methods": {},
				"version": 1
			},
			"evm": {
				"assembly": "    /* \"ActualBank.sol\":57:1472  contract ActualBank{... */\n  mstore(0x40, 0x80)\n    /* \"ActualBank.sol\":105:112  1 ether */\n  0x0de0b6b3a7640000\n    /* \"ActualBank.sol\":82:112  uint minAccountBalance=1 ether */\n  0x00\n  sstore\n    /* \"ActualBank.sol\":231:286  constructor(){... */\n  callvalue\n  dup1\n  iszero\n  tag_1\n  jumpi\n  0x00\n  dup1\n  revert\ntag_1:\n  pop\n    /* \"ActualBank.sol\":268:278  msg.sender */\n  caller\n    /* \"ActualBank.sol\":254:259  owner */\n  0x01\n  0x00\n    /* \"ActualBank.sol\":254:279  owner=payable(msg.sender) */\n  0x0100\n  exp\n  dup2\n  sload\n  dup2\n  0xffffffffffffffffffffffffffffffffffffffff\n  mul\n  not\n  and\n  swap1\n  dup4\n  0xffffffffffffffffffffffffffffffffffffffff\n  and\n  mul\n  or\n  swap1\n  sstore\n  pop\n    /* \"ActualBank.sol\":57:1472  contract ActualBank{... */\n  dataSize(sub_0)\n  dup1\n  dataOffset(sub_0)\n  0x00\n  codecopy\n  0x00\n  return\nstop\n\nsub_0: assembly {\n        /* \"ActualBank.sol\":57:1472  contract ActualBank{... */\n      mstore(0x40, 0x80)\n      jumpi(tag_1, lt(calldatasize, 0x04))\n      shr(0xe0, calldataload(0x00))\n      dup1\n      0x1000420d\n      eq\n      tag_2\n      jumpi\n      dup1\n      0x38a2ca40\n      eq\n      tag_3\n      jumpi\n      dup1\n      0xd8b6e79a\n      eq\n      tag_4\n      jumpi\n      dup1\n      0xf340fa01\n      eq\n      tag_5\n      jumpi\n    tag_1:\n      0x00\n      dup1\n      revert\n        /* \"ActualBank.sol\":292:581  function openAccount(uint256 _secretKey) payable public returns(uint256) {... */\n    tag_2:\n      tag_6\n      0x04\n      dup1\n      calldatasize\n      sub\n      dup2\n      add\n      swap1\n      tag_7\n      swap2\n      swap1\n      tag_8\n      jump\t// in\n    tag_7:\n      tag_9\n      jump\t// in\n    tag_6:\n      mload(0x40)\n      tag_10\n      swap2\n      swap1\n      tag_11\n      jump\t// in\n    tag_10:\n      mload(0x40)\n      dup1\n      swap2\n      sub\n      swap1\n      return\n        /* \"ActualBank.sol\":1287:1470  function getTotalBankBalance() public view returns(uint256){... */\n    tag_3:\n      callvalue\n      dup1\n      iszero\n      tag_12\n      jumpi\n      0x00\n      dup1\n      revert\n    tag_12:\n      pop\n      tag_13\n      tag_14\n      jump\t// in\n    tag_13:\n      mload(0x40)\n      tag_15\n      swap2\n      swap1\n      tag_11\n      jump\t// in\n    tag_15:\n      mload(0x40)\n      dup1\n      swap2\n      sub\n      swap1\n      return\n        /* \"ActualBank.sol\":820:1282  function withDraw(uint256 _amount, uint256 _secretKey) payable public returns(uint256) {... */\n    tag_4:\n      tag_16\n      0x04\n      dup1\n      calldatasize\n      sub\n      dup2\n      add\n      swap1\n      tag_17\n      swap2\n      swap1\n      tag_18\n      jump\t// in\n    tag_17:\n      tag_19\n      jump\t// in\n    tag_16:\n      mload(0x40)\n      tag_20\n      swap2\n      swap1\n      tag_11\n      jump\t// in\n    tag_20:\n      mload(0x40)\n      dup1\n      swap2\n      sub\n      swap1\n      return\n        /* \"ActualBank.sol\":588:814  function deposit(address benificiaryAccount) payable public returns(uint256){... */\n    tag_5:\n      tag_21\n      0x04\n      dup1\n      calldatasize\n      sub\n      dup2\n      add\n      swap1\n      tag_22\n      swap2\n      swap1\n      tag_23\n      jump\t// in\n    tag_22:\n      tag_24\n      jump\t// in\n    tag_21:\n      mload(0x40)\n      tag_25\n      swap2\n      swap1\n      tag_11\n      jump\t// in\n    tag_25:\n      mload(0x40)\n      dup1\n      swap2\n      sub\n      swap1\n      return\n        /* \"ActualBank.sol\":292:581  function openAccount(uint256 _secretKey) payable public returns(uint256) {... */\n    tag_9:\n        /* \"ActualBank.sol\":356:363  uint256 */\n      0x00\n        /* \"ActualBank.sol\":396:413  minAccountBalance */\n      dup1\n      sload\n        /* \"ActualBank.sol\":383:392  msg.value */\n      callvalue\n        /* \"ActualBank.sol\":383:413  msg.value >= minAccountBalance */\n      lt\n      iszero\n        /* \"ActualBank.sol\":375:456  require(msg.value >= minAccountBalance,\"There must a minimum balance of 1 ether\") */\n      tag_27\n      jumpi\n      mload(0x40)\n      0x08c379a000000000000000000000000000000000000000000000000000000000\n      dup2\n      mstore\n      0x04\n      add\n      tag_28\n      swap1\n      tag_29\n      jump\t// in\n    tag_28:\n      mload(0x40)\n      dup1\n      swap2\n      sub\n      swap1\n      revert\n    tag_27:\n        /* \"ActualBank.sol\":487:496  msg.value */\n      callvalue\n        /* \"ActualBank.sol\":466:473  balance */\n      0x02\n        /* \"ActualBank.sol\":466:485  balance[msg.sender] */\n      0x00\n        /* \"ActualBank.sol\":474:484  msg.sender */\n      caller\n        /* \"ActualBank.sol\":466:485  balance[msg.sender] */\n      0xffffffffffffffffffffffffffffffffffffffff\n      and\n      0xffffffffffffffffffffffffffffffffffffffff\n      and\n      dup2\n      mstore\n      0x20\n      add\n      swap1\n      dup2\n      mstore\n      0x20\n      add\n      0x00\n      keccak256\n      0x00\n        /* \"ActualBank.sol\":466:496  balance[msg.sender]+=msg.value */\n      dup3\n      dup3\n      sload\n      tag_30\n      swap2\n      swap1\n      tag_31\n      jump\t// in\n    tag_30:\n      swap3\n      pop\n      pop\n      dup2\n      swap1\n      sstore\n      pop\n        /* \"ActualBank.sol\":528:538  _secretKey */\n      dup2\n        /* \"ActualBank.sol\":506:515  secretKey */\n      0x03\n        /* \"ActualBank.sol\":506:527  secretKey[msg.sender] */\n      0x00\n        /* \"ActualBank.sol\":516:526  msg.sender */\n      caller\n        /* \"ActualBank.sol\":506:527  secretKey[msg.sender] */\n      0xffffffffffffffffffffffffffffffffffffffff\n      and\n      0xffffffffffffffffffffffffffffffffffffffff\n      and\n      dup2\n      mstore\n      0x20\n      add\n      swap1\n      dup2\n      mstore\n      0x20\n      add\n      0x00\n      keccak256\n        /* \"ActualBank.sol\":506:538  secretKey[msg.sender]=_secretKey */\n      dup2\n      swap1\n      sstore\n      pop\n        /* \"ActualBank.sol\":555:562  balance */\n      0x02\n        /* \"ActualBank.sol\":555:574  balance[msg.sender] */\n      0x00\n        /* \"ActualBank.sol\":563:573  msg.sender */\n      caller\n        /* \"ActualBank.sol\":555:574  balance[msg.sender] */\n      0xffffffffffffffffffffffffffffffffffffffff\n      and\n      0xffffffffffffffffffffffffffffffffffffffff\n      and\n      dup2\n      mstore\n      0x20\n      add\n      swap1\n      dup2\n      mstore\n      0x20\n      add\n      0x00\n      keccak256\n      sload\n        /* \"ActualBank.sol\":548:574  return balance[msg.sender] */\n      swap1\n      pop\n        /* \"ActualBank.sol\":292:581  function openAccount(uint256 _secretKey) payable public returns(uint256) {... */\n      swap2\n      swap1\n      pop\n      jump\t// out\n        /* \"ActualBank.sol\":1287:1470  function getTotalBankBalance() public view returns(uint256){... */\n    tag_14:\n        /* \"ActualBank.sol\":1338:1345  uint256 */\n      0x00\n        /* \"ActualBank.sol\":1378:1383  owner */\n      0x01\n      0x00\n      swap1\n      sload\n      swap1\n      0x0100\n      exp\n      swap1\n      div\n      0xffffffffffffffffffffffffffffffffffffffff\n      and\n        /* \"ActualBank.sol\":1364:1383  msg.sender == owner */\n      0xffffffffffffffffffffffffffffffffffffffff\n      and\n        /* \"ActualBank.sol\":1364:1374  msg.sender */\n      caller\n        /* \"ActualBank.sol\":1364:1383  msg.sender == owner */\n      0xffffffffffffffffffffffffffffffffffffffff\n      and\n      eq\n        /* \"ActualBank.sol\":1356:1425  require(msg.sender == owner,\"Owner of bank didn't call the function\") */\n      tag_33\n      jumpi\n      mload(0x40)\n      0x08c379a000000000000000000000000000000000000000000000000000000000\n      dup2\n      mstore\n      0x04\n      add\n      tag_34\n      swap1\n      tag_35\n      jump\t// in\n    tag_34:\n      mload(0x40)\n      dup1\n      swap2\n      sub\n      swap1\n      revert\n    tag_33:\n        /* \"ActualBank.sol\":1442:1463  address(this).balance */\n      selfbalance\n        /* \"ActualBank.sol\":1435:1463  return address(this).balance */\n      swap1\n      pop\n        /* \"ActualBank.sol\":1287:1470  function getTotalBankBalance() public view returns(uint256){... */\n      swap1\n      jump\t// out\n        /* \"ActualBank.sol\":820:1282  function withDraw(uint256 _amount, uint256 _secretKey) payable public returns(uint256) {... */\n    tag_19:\n        /* \"ActualBank.sol\":898:905  uint256 */\n      0x00\n        /* \"ActualBank.sol\":938:959  address(this).balance */\n      selfbalance\n        /* \"ActualBank.sol\":925:934  msg.value */\n      callvalue\n        /* \"ActualBank.sol\":925:959  msg.value <= address(this).balance */\n      gt\n      iszero\n        /* \"ActualBank.sol\":917:992  require(msg.value <= address(this).balance,\"With drawal value not correct\") */\n      tag_37\n      jumpi\n      mload(0x40)\n      0x08c379a000000000000000000000000000000000000000000000000000000000\n      dup2\n      mstore\n      0x04\n      add\n      tag_38\n      swap1\n      tag_39\n      jump\t// in\n    tag_38:\n      mload(0x40)\n      dup1\n      swap2\n      sub\n      swap1\n      revert\n    tag_37:\n        /* \"ActualBank.sol\":1023:1030  _amount */\n      dup3\n        /* \"ActualBank.sol\":1010:1019  msg.value */\n      callvalue\n        /* \"ActualBank.sol\":1010:1030  msg.value == _amount */\n      eq\n        /* \"ActualBank.sol\":1002:1057  require(msg.value == _amount, \" Arguments not correct\") */\n      tag_40\n      jumpi\n      mload(0x40)\n      0x08c379a000000000000000000000000000000000000000000000000000000000\n      dup2\n      mstore\n      0x04\n      add\n      tag_41\n      swap1\n      tag_42\n      jump\t// in\n    tag_41:\n      mload(0x40)\n      dup1\n      swap2\n      sub\n      swap1\n      revert\n    tag_40:\n        /* \"ActualBank.sol\":1100:1110  _secretKey */\n      dup2\n        /* \"ActualBank.sol\":1075:1084  secretKey */\n      0x03\n        /* \"ActualBank.sol\":1075:1096  secretKey[msg.sender] */\n      0x00\n        /* \"ActualBank.sol\":1085:1095  msg.sender */\n      caller\n        /* \"ActualBank.sol\":1075:1096  secretKey[msg.sender] */\n      0xffffffffffffffffffffffffffffffffffffffff\n      and\n      0xffffffffffffffffffffffffffffffffffffffff\n      and\n      dup2\n      mstore\n      0x20\n      add\n      swap1\n      dup2\n      mstore\n      0x20\n      add\n      0x00\n      keccak256\n      sload\n        /* \"ActualBank.sol\":1075:1110  secretKey[msg.sender] == _secretKey */\n      eq\n        /* \"ActualBank.sol\":1067:1140  require(secretKey[msg.sender] == _secretKey, \"Secret key didn't matched\") */\n      tag_43\n      jumpi\n      mload(0x40)\n      0x08c379a000000000000000000000000000000000000000000000000000000000\n      dup2\n      mstore\n      0x04\n      add\n      tag_44\n      swap1\n      tag_45\n      jump\t// in\n    tag_44:\n      mload(0x40)\n      dup1\n      swap2\n      sub\n      swap1\n      revert\n    tag_43:\n        /* \"ActualBank.sol\":1171:1178  _amount */\n      dup3\n        /* \"ActualBank.sol\":1150:1157  balance */\n      0x02\n        /* \"ActualBank.sol\":1150:1169  balance[msg.sender] */\n      0x00\n        /* \"ActualBank.sol\":1158:1168  msg.sender */\n      caller\n        /* \"ActualBank.sol\":1150:1169  balance[msg.sender] */\n      0xffffffffffffffffffffffffffffffffffffffff\n      and\n      0xffffffffffffffffffffffffffffffffffffffff\n      and\n      dup2\n      mstore\n      0x20\n      add\n      swap1\n      dup2\n      mstore\n      0x20\n      add\n      0x00\n      keccak256\n      0x00\n        /* \"ActualBank.sol\":1150:1178  balance[msg.sender]-=_amount */\n      dup3\n      dup3\n      sload\n      tag_46\n      swap2\n      swap1\n      tag_47\n      jump\t// in\n    tag_46:\n      swap3\n      pop\n      pop\n      dup2\n      swap1\n      sstore\n      pop\n        /* \"ActualBank.sol\":1196:1206  msg.sender */\n      caller\n        /* \"ActualBank.sol\":1188:1216  payable(msg.sender).transfer */\n      0xffffffffffffffffffffffffffffffffffffffff\n      and\n        /* \"ActualBank.sol\":1188:1239  payable(msg.sender).transfer(address(this).balance) */\n      0x08fc\n        /* \"ActualBank.sol\":1217:1238  address(this).balance */\n      selfbalance\n        /* \"ActualBank.sol\":1188:1239  payable(msg.sender).transfer(address(this).balance) */\n      swap1\n      dup2\n      iszero\n      mul\n      swap1\n      mload(0x40)\n      0x00\n      mload(0x40)\n      dup1\n      dup4\n      sub\n      dup2\n      dup6\n      dup9\n      dup9\n      call\n      swap4\n      pop\n      pop\n      pop\n      pop\n      iszero\n      dup1\n      iszero\n      tag_49\n      jumpi\n      returndatasize\n      0x00\n      dup1\n      returndatacopy\n      revert(0x00, returndatasize)\n    tag_49:\n      pop\n        /* \"ActualBank.sol\":1256:1263  balance */\n      0x02\n        /* \"ActualBank.sol\":1256:1275  balance[msg.sender] */\n      0x00\n        /* \"ActualBank.sol\":1264:1274  msg.sender */\n      caller\n        /* \"ActualBank.sol\":1256:1275  balance[msg.sender] */\n      0xffffffffffffffffffffffffffffffffffffffff\n      and\n      0xffffffffffffffffffffffffffffffffffffffff\n      and\n      dup2\n      mstore\n      0x20\n      add\n      swap1\n      dup2\n      mstore\n      0x20\n      add\n      0x00\n      keccak256\n      sload\n        /* \"ActualBank.sol\":1249:1275  return balance[msg.sender] */\n      swap1\n      pop\n        /* \"ActualBank.sol\":820:1282  function withDraw(uint256 _amount, uint256 _secretKey) payable public returns(uint256) {... */\n      swap3\n      swap2\n      pop\n      pop\n      jump\t// out\n        /* \"ActualBank.sol\":588:814  function deposit(address benificiaryAccount) payable public returns(uint256){... */\n    tag_24:\n        /* \"ActualBank.sol\":656:663  uint256 */\n      0x00\n        /* \"ActualBank.sol\":713:714  0 */\n      dup1\n        /* \"ActualBank.sol\":682:689  balance */\n      0x02\n        /* \"ActualBank.sol\":682:709  balance[benificiaryAccount] */\n      0x00\n        /* \"ActualBank.sol\":690:708  benificiaryAccount */\n      dup5\n        /* \"ActualBank.sol\":682:709  balance[benificiaryAccount] */\n      0xffffffffffffffffffffffffffffffffffffffff\n      and\n      0xffffffffffffffffffffffffffffffffffffffff\n      and\n      dup2\n      mstore\n      0x20\n      add\n      swap1\n      dup2\n      mstore\n      0x20\n      add\n      0x00\n      keccak256\n      sload\n        /* \"ActualBank.sol\":682:714  balance[benificiaryAccount] != 0 */\n      eq\n      iszero\n        /* \"ActualBank.sol\":674:715  require(balance[benificiaryAccount] != 0) */\n      tag_51\n      jumpi\n      0x00\n      dup1\n      revert\n    tag_51:\n        /* \"ActualBank.sol\":754:763  msg.value */\n      callvalue\n        /* \"ActualBank.sol\":725:732  balance */\n      0x02\n        /* \"ActualBank.sol\":725:752  balance[benificiaryAccount] */\n      0x00\n        /* \"ActualBank.sol\":733:751  benificiaryAccount */\n      dup5\n        /* \"ActualBank.sol\":725:752  balance[benificiaryAccount] */\n      0xffffffffffffffffffffffffffffffffffffffff\n      and\n      0xffffffffffffffffffffffffffffffffffffffff\n      and\n      dup2\n      mstore\n      0x20\n      add\n      swap1\n      dup2\n      mstore\n      0x20\n      add\n      0x00\n      keccak256\n      0x00\n        /* \"ActualBank.sol\":725:763  balance[benificiaryAccount]+=msg.value */\n      dup3\n      dup3\n      sload\n      tag_52\n      swap2\n      swap1\n      tag_31\n      jump\t// in\n    tag_52:\n      swap3\n      pop\n      pop\n      dup2\n      swap1\n      sstore\n      pop\n        /* \"ActualBank.sol\":780:787  balance */\n      0x02\n        /* \"ActualBank.sol\":780:807  balance[benificiaryAccount] */\n      0x00\n        /* \"ActualBank.sol\":788:806  benificiaryAccount */\n      dup4\n        /* \"ActualBank.sol\":780:807  balance[benificiaryAccount] */\n      0xffffffffffffffffffffffffffffffffffffffff\n      and\n      0xffffffffffffffffffffffffffffffffffffffff\n      and\n      dup2\n      mstore\n      0x20\n      add\n      swap1\n      dup2\n      mstore\n      0x20\n      add\n      0x00\n      keccak256\n      sload\n        /* \"ActualBank.sol\":773:807  return balance[benificiaryAccount] */\n      swap1\n      pop\n        /* \"ActualBank.sol\":588:814  function deposit(address benificiaryAccount) payable public returns(uint256){... */\n      swap2\n      swap1\n      pop\n      jump\t// out\n        /* \"#utility.yul\":88:205   */\n    tag_54:\n        /* \"#utility.yul\":197:198   */\n      0x00\n        /* \"#utility.yul\":194:195   */\n      dup1\n        /* \"#utility.yul\":187:199   */\n      revert\n        /* \"#utility.yul\":334:411   */\n    tag_56:\n        /* \"#utility.yul\":371:378   */\n      0x00\n        /* \"#utility.yul\":400:405   */\n      dup2\n        /* \"#utility.yul\":389:405   */\n      swap1\n      pop\n        /* \"#utility.yul\":334:411   */\n      swap2\n      swap1\n      pop\n      jump\t// out\n        /* \"#utility.yul\":417:539   */\n    tag_57:\n        /* \"#utility.yul\":490:514   */\n      tag_82\n        /* \"#utility.yul\":508:513   */\n      dup2\n        /* \"#utility.yul\":490:514   */\n      tag_56\n      jump\t// in\n    tag_82:\n        /* \"#utility.yul\":483:488   */\n      dup2\n        /* \"#utility.yul\":480:515   */\n      eq\n        /* \"#utility.yul\":470:533   */\n      tag_83\n      jumpi\n        /* \"#utility.yul\":529:530   */\n      0x00\n        /* \"#utility.yul\":526:527   */\n      dup1\n        /* \"#utility.yul\":519:531   */\n      revert\n        /* \"#utility.yul\":470:533   */\n    tag_83:\n        /* \"#utility.yul\":417:539   */\n      pop\n      jump\t// out\n        /* \"#utility.yul\":545:684   */\n    tag_58:\n        /* \"#utility.yul\":591:596   */\n      0x00\n        /* \"#utility.yul\":629:635   */\n      dup2\n        /* \"#utility.yul\":616:636   */\n      calldataload\n        /* \"#utility.yul\":607:636   */\n      swap1\n      pop\n        /* \"#utility.yul\":645:678   */\n      tag_85\n        /* \"#utility.yul\":672:677   */\n      dup2\n        /* \"#utility.yul\":645:678   */\n      tag_57\n      jump\t// in\n    tag_85:\n        /* \"#utility.yul\":545:684   */\n      swap3\n      swap2\n      pop\n      pop\n      jump\t// out\n        /* \"#utility.yul\":690:1019   */\n    tag_8:\n        /* \"#utility.yul\":749:755   */\n      0x00\n        /* \"#utility.yul\":798:800   */\n      0x20\n        /* \"#utility.yul\":786:795   */\n      dup3\n        /* \"#utility.yul\":777:784   */\n      dup5\n        /* \"#utility.yul\":773:796   */\n      sub\n        /* \"#utility.yul\":769:801   */\n      slt\n        /* \"#utility.yul\":766:885   */\n      iszero\n      tag_87\n      jumpi\n        /* \"#utility.yul\":804:883   */\n      tag_88\n      tag_54\n      jump\t// in\n    tag_88:\n        /* \"#utility.yul\":766:885   */\n    tag_87:\n        /* \"#utility.yul\":924:925   */\n      0x00\n        /* \"#utility.yul\":949:1002   */\n      tag_89\n        /* \"#utility.yul\":994:1001   */\n      dup5\n        /* \"#utility.yul\":985:991   */\n      dup3\n        /* \"#utility.yul\":974:983   */\n      dup6\n        /* \"#utility.yul\":970:992   */\n      add\n        /* \"#utility.yul\":949:1002   */\n      tag_58\n      jump\t// in\n    tag_89:\n        /* \"#utility.yul\":939:1002   */\n      swap2\n      pop\n        /* \"#utility.yul\":895:1012   */\n      pop\n        /* \"#utility.yul\":690:1019   */\n      swap3\n      swap2\n      pop\n      pop\n      jump\t// out\n        /* \"#utility.yul\":1025:1143   */\n    tag_59:\n        /* \"#utility.yul\":1112:1136   */\n      tag_91\n        /* \"#utility.yul\":1130:1135   */\n      dup2\n        /* \"#utility.yul\":1112:1136   */\n      tag_56\n      jump\t// in\n    tag_91:\n        /* \"#utility.yul\":1107:1110   */\n      dup3\n        /* \"#utility.yul\":1100:1137   */\n      mstore\n        /* \"#utility.yul\":1025:1143   */\n      pop\n      pop\n      jump\t// out\n        /* \"#utility.yul\":1149:1371   */\n    tag_11:\n        /* \"#utility.yul\":1242:1246   */\n      0x00\n        /* \"#utility.yul\":1280:1282   */\n      0x20\n        /* \"#utility.yul\":1269:1278   */\n      dup3\n        /* \"#utility.yul\":1265:1283   */\n      add\n        /* \"#utility.yul\":1257:1283   */\n      swap1\n      pop\n        /* \"#utility.yul\":1293:1364   */\n      tag_93\n        /* \"#utility.yul\":1361:1362   */\n      0x00\n        /* \"#utility.yul\":1350:1359   */\n      dup4\n        /* \"#utility.yul\":1346:1363   */\n      add\n        /* \"#utility.yul\":1337:1343   */\n      dup5\n        /* \"#utility.yul\":1293:1364   */\n      tag_59\n      jump\t// in\n    tag_93:\n        /* \"#utility.yul\":1149:1371   */\n      swap3\n      swap2\n      pop\n      pop\n      jump\t// out\n        /* \"#utility.yul\":1377:1851   */\n    tag_18:\n        /* \"#utility.yul\":1445:1451   */\n      0x00\n        /* \"#utility.yul\":1453:1459   */\n      dup1\n        /* \"#utility.yul\":1502:1504   */\n      0x40\n        /* \"#utility.yul\":1490:1499   */\n      dup4\n        /* \"#utility.yul\":1481:1488   */\n      dup6\n        /* \"#utility.yul\":1477:1500   */\n      sub\n        /* \"#utility.yul\":1473:1505   */\n      slt\n        /* \"#utility.yul\":1470:1589   */\n      iszero\n      tag_95\n      jumpi\n        /* \"#utility.yul\":1508:1587   */\n      tag_96\n      tag_54\n      jump\t// in\n    tag_96:\n        /* \"#utility.yul\":1470:1589   */\n    tag_95:\n        /* \"#utility.yul\":1628:1629   */\n      0x00\n        /* \"#utility.yul\":1653:1706   */\n      tag_97\n        /* \"#utility.yul\":1698:1705   */\n      dup6\n        /* \"#utility.yul\":1689:1695   */\n      dup3\n        /* \"#utility.yul\":1678:1687   */\n      dup7\n        /* \"#utility.yul\":1674:1696   */\n      add\n        /* \"#utility.yul\":1653:1706   */\n      tag_58\n      jump\t// in\n    tag_97:\n        /* \"#utility.yul\":1643:1706   */\n      swap3\n      pop\n        /* \"#utility.yul\":1599:1716   */\n      pop\n        /* \"#utility.yul\":1755:1757   */\n      0x20\n        /* \"#utility.yul\":1781:1834   */\n      tag_98\n        /* \"#utility.yul\":1826:1833   */\n      dup6\n        /* \"#utility.yul\":1817:1823   */\n      dup3\n        /* \"#utility.yul\":1806:1815   */\n      dup7\n        /* \"#utility.yul\":1802:1824   */\n      add\n        /* \"#utility.yul\":1781:1834   */\n      tag_58\n      jump\t// in\n    tag_98:\n        /* \"#utility.yul\":1771:1834   */\n      swap2\n      pop\n        /* \"#utility.yul\":1726:1844   */\n      pop\n        /* \"#utility.yul\":1377:1851   */\n      swap3\n      pop\n      swap3\n      swap1\n      pop\n      jump\t// out\n        /* \"#utility.yul\":1857:1983   */\n    tag_60:\n        /* \"#utility.yul\":1894:1901   */\n      0x00\n        /* \"#utility.yul\":1934:1976   */\n      0xffffffffffffffffffffffffffffffffffffffff\n        /* \"#utility.yul\":1927:1932   */\n      dup3\n        /* \"#utility.yul\":1923:1977   */\n      and\n        /* \"#utility.yul\":1912:1977   */\n      swap1\n      pop\n        /* \"#utility.yul\":1857:1983   */\n      swap2\n      swap1\n      pop\n      jump\t// out\n        /* \"#utility.yul\":1989:2085   */\n    tag_61:\n        /* \"#utility.yul\":2026:2033   */\n      0x00\n        /* \"#utility.yul\":2055:2079   */\n      tag_101\n        /* \"#utility.yul\":2073:2078   */\n      dup3\n        /* \"#utility.yul\":2055:2079   */\n      tag_60\n      jump\t// in\n    tag_101:\n        /* \"#utility.yul\":2044:2079   */\n      swap1\n      pop\n        /* \"#utility.yul\":1989:2085   */\n      swap2\n      swap1\n      pop\n      jump\t// out\n        /* \"#utility.yul\":2091:2213   */\n    tag_62:\n        /* \"#utility.yul\":2164:2188   */\n      tag_103\n        /* \"#utility.yul\":2182:2187   */\n      dup2\n        /* \"#utility.yul\":2164:2188   */\n      tag_61\n      jump\t// in\n    tag_103:\n        /* \"#utility.yul\":2157:2162   */\n      dup2\n        /* \"#utility.yul\":2154:2189   */\n      eq\n        /* \"#utility.yul\":2144:2207   */\n      tag_104\n      jumpi\n        /* \"#utility.yul\":2203:2204   */\n      0x00\n        /* \"#utility.yul\":2200:2201   */\n      dup1\n        /* \"#utility.yul\":2193:2205   */\n      revert\n        /* \"#utility.yul\":2144:2207   */\n    tag_104:\n        /* \"#utility.yul\":2091:2213   */\n      pop\n      jump\t// out\n        /* \"#utility.yul\":2219:2358   */\n    tag_63:\n        /* \"#utility.yul\":2265:2270   */\n      0x00\n        /* \"#utility.yul\":2303:2309   */\n      dup2\n        /* \"#utility.yul\":2290:2310   */\n      calldataload\n        /* \"#utility.yul\":2281:2310   */\n      swap1\n      pop\n        /* \"#utility.yul\":2319:2352   */\n      tag_106\n        /* \"#utility.yul\":2346:2351   */\n      dup2\n        /* \"#utility.yul\":2319:2352   */\n      tag_62\n      jump\t// in\n    tag_106:\n        /* \"#utility.yul\":2219:2358   */\n      swap3\n      swap2\n      pop\n      pop\n      jump\t// out\n        /* \"#utility.yul\":2364:2693   */\n    tag_23:\n        /* \"#utility.yul\":2423:2429   */\n      0x00\n        /* \"#utility.yul\":2472:2474   */\n      0x20\n        /* \"#utility.yul\":2460:2469   */\n      dup3\n        /* \"#utility.yul\":2451:2458   */\n      dup5\n        /* \"#utility.yul\":2447:2470   */\n      sub\n        /* \"#utility.yul\":2443:2475   */\n      slt\n        /* \"#utility.yul\":2440:2559   */\n      iszero\n      tag_108\n      jumpi\n        /* \"#utility.yul\":2478:2557   */\n      tag_109\n      tag_54\n      jump\t// in\n    tag_109:\n        /* \"#utility.yul\":2440:2559   */\n    tag_108:\n        /* \"#utility.yul\":2598:2599   */\n      0x00\n        /* \"#utility.yul\":2623:2676   */\n      tag_110\n        /* \"#utility.yul\":2668:2675   */\n      dup5\n        /* \"#utility.yul\":2659:2665   */\n      dup3\n        /* \"#utility.yul\":2648:2657   */\n      dup6\n        /* \"#utility.yul\":2644:2666   */\n      add\n        /* \"#utility.yul\":2623:2676   */\n      tag_63\n      jump\t// in\n    tag_110:\n        /* \"#utility.yul\":2613:2676   */\n      swap2\n      pop\n        /* \"#utility.yul\":2569:2686   */\n      pop\n        /* \"#utility.yul\":2364:2693   */\n      swap3\n      swap2\n      pop\n      pop\n      jump\t// out\n        /* \"#utility.yul\":2699:2868   */\n    tag_64:\n        /* \"#utility.yul\":2783:2794   */\n      0x00\n        /* \"#utility.yul\":2817:2823   */\n      dup3\n        /* \"#utility.yul\":2812:2815   */\n      dup3\n        /* \"#utility.yul\":2805:2824   */\n      mstore\n        /* \"#utility.yul\":2857:2861   */\n      0x20\n        /* \"#utility.yul\":2852:2855   */\n      dup3\n        /* \"#utility.yul\":2848:2862   */\n      add\n        /* \"#utility.yul\":2833:2862   */\n      swap1\n      pop\n        /* \"#utility.yul\":2699:2868   */\n      swap3\n      swap2\n      pop\n      pop\n      jump\t// out\n        /* \"#utility.yul\":2874:3100   */\n    tag_65:\n        /* \"#utility.yul\":3014:3048   */\n      0x5468657265206d7573742061206d696e696d756d2062616c616e6365206f6620\n        /* \"#utility.yul\":3010:3011   */\n      0x00\n        /* \"#utility.yul\":3002:3008   */\n      dup3\n        /* \"#utility.yul\":2998:3012   */\n      add\n        /* \"#utility.yul\":2991:3049   */\n      mstore\n        /* \"#utility.yul\":3083:3092   */\n      0x3120657468657200000000000000000000000000000000000000000000000000\n        /* \"#utility.yul\":3078:3080   */\n      0x20\n        /* \"#utility.yul\":3070:3076   */\n      dup3\n        /* \"#utility.yul\":3066:3081   */\n      add\n        /* \"#utility.yul\":3059:3093   */\n      mstore\n        /* \"#utility.yul\":2874:3100   */\n      pop\n      jump\t// out\n        /* \"#utility.yul\":3106:3472   */\n    tag_66:\n        /* \"#utility.yul\":3248:3251   */\n      0x00\n        /* \"#utility.yul\":3269:3336   */\n      tag_114\n        /* \"#utility.yul\":3333:3335   */\n      0x27\n        /* \"#utility.yul\":3328:3331   */\n      dup4\n        /* \"#utility.yul\":3269:3336   */\n      tag_64\n      jump\t// in\n    tag_114:\n        /* \"#utility.yul\":3262:3336   */\n      swap2\n      pop\n        /* \"#utility.yul\":3345:3438   */\n      tag_115\n        /* \"#utility.yul\":3434:3437   */\n      dup3\n        /* \"#utility.yul\":3345:3438   */\n      tag_65\n      jump\t// in\n    tag_115:\n        /* \"#utility.yul\":3463:3465   */\n      0x40\n        /* \"#utility.yul\":3458:3461   */\n      dup3\n        /* \"#utility.yul\":3454:3466   */\n      add\n        /* \"#utility.yul\":3447:3466   */\n      swap1\n      pop\n        /* \"#utility.yul\":3106:3472   */\n      swap2\n      swap1\n      pop\n      jump\t// out\n        /* \"#utility.yul\":3478:3897   */\n    tag_29:\n        /* \"#utility.yul\":3644:3648   */\n      0x00\n        /* \"#utility.yul\":3682:3684   */\n      0x20\n        /* \"#utility.yul\":3671:3680   */\n      dup3\n        /* \"#utility.yul\":3667:3685   */\n      add\n        /* \"#utility.yul\":3659:3685   */\n      swap1\n      pop\n        /* \"#utility.yul\":3731:3740   */\n      dup2\n        /* \"#utility.yul\":3725:3729   */\n      dup2\n        /* \"#utility.yul\":3721:3741   */\n      sub\n        /* \"#utility.yul\":3717:3718   */\n      0x00\n        /* \"#utility.yul\":3706:3715   */\n      dup4\n        /* \"#utility.yul\":3702:3719   */\n      add\n        /* \"#utility.yul\":3695:3742   */\n      mstore\n        /* \"#utility.yul\":3759:3890   */\n      tag_117\n        /* \"#utility.yul\":3885:3889   */\n      dup2\n        /* \"#utility.yul\":3759:3890   */\n      tag_66\n      jump\t// in\n    tag_117:\n        /* \"#utility.yul\":3751:3890   */\n      swap1\n      pop\n        /* \"#utility.yul\":3478:3897   */\n      swap2\n      swap1\n      pop\n      jump\t// out\n        /* \"#utility.yul\":3903:4083   */\n    tag_67:\n        /* \"#utility.yul\":3951:4028   */\n      0x4e487b7100000000000000000000000000000000000000000000000000000000\n        /* \"#utility.yul\":3948:3949   */\n      0x00\n        /* \"#utility.yul\":3941:4029   */\n      mstore\n        /* \"#utility.yul\":4048:4052   */\n      0x11\n        /* \"#utility.yul\":4045:4046   */\n      0x04\n        /* \"#utility.yul\":4038:4053   */\n      mstore\n        /* \"#utility.yul\":4072:4076   */\n      0x24\n        /* \"#utility.yul\":4069:4070   */\n      0x00\n        /* \"#utility.yul\":4062:4077   */\n      revert\n        /* \"#utility.yul\":4089:4394   */\n    tag_31:\n        /* \"#utility.yul\":4129:4132   */\n      0x00\n        /* \"#utility.yul\":4148:4168   */\n      tag_120\n        /* \"#utility.yul\":4166:4167   */\n      dup3\n        /* \"#utility.yul\":4148:4168   */\n      tag_56\n      jump\t// in\n    tag_120:\n        /* \"#utility.yul\":4143:4168   */\n      swap2\n      pop\n        /* \"#utility.yul\":4182:4202   */\n      tag_121\n        /* \"#utility.yul\":4200:4201   */\n      dup4\n        /* \"#utility.yul\":4182:4202   */\n      tag_56\n      jump\t// in\n    tag_121:\n        /* \"#utility.yul\":4177:4202   */\n      swap3\n      pop\n        /* \"#utility.yul\":4336:4337   */\n      dup3\n        /* \"#utility.yul\":4268:4334   */\n      0xffffffffffffffffffffffffffffffffffffffffffffffffffffffffffffffff\n        /* \"#utility.yul\":4264:4338   */\n      sub\n        /* \"#utility.yul\":4261:4262   */\n      dup3\n        /* \"#utility.yul\":4258:4339   */\n      gt\n        /* \"#utility.yul\":4255:4362   */\n      iszero\n      tag_122\n      jumpi\n        /* \"#utility.yul\":4342:4360   */\n      tag_123\n      tag_67\n      jump\t// in\n    tag_123:\n        /* \"#utility.yul\":4255:4362   */\n    tag_122:\n        /* \"#utility.yul\":4386:4387   */\n      dup3\n        /* \"#utility.yul\":4383:4384   */\n      dup3\n        /* \"#utility.yul\":4379:4388   */\n      add\n        /* \"#utility.yul\":4372:4388   */\n      swap1\n      pop\n        /* \"#utility.yul\":4089:4394   */\n      swap3\n      swap2\n      pop\n      pop\n      jump\t// out\n        /* \"#utility.yul\":4400:4625   */\n    tag_68:\n        /* \"#utility.yul\":4540:4574   */\n      0x4f776e6572206f662062616e6b206469646e27742063616c6c20746865206675\n        /* \"#utility.yul\":4536:4537   */\n      0x00\n        /* \"#utility.yul\":4528:4534   */\n      dup3\n        /* \"#utility.yul\":4524:4538   */\n      add\n        /* \"#utility.yul\":4517:4575   */\n      mstore\n        /* \"#utility.yul\":4609:4617   */\n      0x6e6374696f6e0000000000000000000000000000000000000000000000000000\n        /* \"#utility.yul\":4604:4606   */\n      0x20\n        /* \"#utility.yul\":4596:4602   */\n      dup3\n        /* \"#utility.yul\":4592:4607   */\n      add\n        /* \"#utility.yul\":4585:4618   */\n      mstore\n        /* \"#utility.yul\":4400:4625   */\n      pop\n      jump\t// out\n        /* \"#utility.yul\":4631:4997   */\n    tag_69:\n        /* \"#utility.yul\":4773:4776   */\n      0x00\n        /* \"#utility.yul\":4794:4861   */\n      tag_126\n        /* \"#utility.yul\":4858:4860   */\n      0x26\n        /* \"#utility.yul\":4853:4856   */\n      dup4\n        /* \"#utility.yul\":4794:4861   */\n      tag_64\n      jump\t// in\n    tag_126:\n        /* \"#utility.yul\":4787:4861   */\n      swap2\n      pop\n        /* \"#utility.yul\":4870:4963   */\n      tag_127\n        /* \"#utility.yul\":4959:4962   */\n      dup3\n        /* \"#utility.yul\":4870:4963   */\n      tag_68\n      jump\t// in\n    tag_127:\n        /* \"#utility.yul\":4988:4990   */\n      0x40\n        /* \"#utility.yul\":4983:4986   */\n      dup3\n        /* \"#utility.yul\":4979:4991   */\n      add\n        /* \"#utility.yul\":4972:4991   */\n      swap1\n      pop\n        /* \"#utility.yul\":4631:4997   */\n      swap2\n      swap1\n      pop\n      jump\t// out\n        /* \"#utility.yul\":5003:5422   */\n    tag_35:\n        /* \"#utility.yul\":5169:5173   */\n      0x00\n        /* \"#utility.yul\":5207:5209   */\n      0x20\n        /* \"#utility.yul\":5196:5205   */\n      dup3\n        /* \"#utility.yul\":5192:5210   */\n      add\n        /* \"#utility.yul\":5184:5210   */\n      swap1\n      pop\n        /* \"#utility.yul\":5256:5265   */\n      dup2\n        /* \"#utility.yul\":5250:5254   */\n      dup2\n        /* \"#utility.yul\":5246:5266   */\n      sub\n        /* \"#utility.yul\":5242:5243   */\n      0x00\n        /* \"#utility.yul\":5231:5240   */\n      dup4\n        /* \"#utility.yul\":5227:5244   */\n      add\n        /* \"#utility.yul\":5220:5267   */\n      mstore\n        /* \"#utility.yul\":5284:5415   */\n      tag_129\n        /* \"#utility.yul\":5410:5414   */\n      dup2\n        /* \"#utility.yul\":5284:5415   */\n      tag_69\n      jump\t// in\n    tag_129:\n        /* \"#utility.yul\":5276:5415   */\n      swap1\n      pop\n        /* \"#utility.yul\":5003:5422   */\n      swap2\n      swap1\n      pop\n      jump\t// out\n        /* \"#utility.yul\":5428:5607   */\n    tag_70:\n        /* \"#utility.yul\":5568:5599   */\n      0x576974682064726177616c2076616c7565206e6f7420636f7272656374000000\n        /* \"#utility.yul\":5564:5565   */\n      0x00\n        /* \"#utility.yul\":5556:5562   */\n      dup3\n        /* \"#utility.yul\":5552:5566   */\n      add\n        /* \"#utility.yul\":5545:5600   */\n      mstore\n        /* \"#utility.yul\":5428:5607   */\n      pop\n      jump\t// out\n        /* \"#utility.yul\":5613:5979   */\n    tag_71:\n        /* \"#utility.yul\":5755:5758   */\n      0x00\n        /* \"#utility.yul\":5776:5843   */\n      tag_132\n        /* \"#utility.yul\":5840:5842   */\n      0x1d\n        /* \"#utility.yul\":5835:5838   */\n      dup4\n        /* \"#utility.yul\":5776:5843   */\n      tag_64\n      jump\t// in\n    tag_132:\n        /* \"#utility.yul\":5769:5843   */\n      swap2\n      pop\n        /* \"#utility.yul\":5852:5945   */\n      tag_133\n        /* \"#utility.yul\":5941:5944   */\n      dup3\n        /* \"#utility.yul\":5852:5945   */\n      tag_70\n      jump\t// in\n    tag_133:\n        /* \"#utility.yul\":5970:5972   */\n      0x20\n        /* \"#utility.yul\":5965:5968   */\n      dup3\n        /* \"#utility.yul\":5961:5973   */\n      add\n        /* \"#utility.yul\":5954:5973   */\n      swap1\n      pop\n        /* \"#utility.yul\":5613:5979   */\n      swap2\n      swap1\n      pop\n      jump\t// out\n        /* \"#utility.yul\":5985:6404   */\n    tag_39:\n        /* \"#utility.yul\":6151:6155   */\n      0x00\n        /* \"#utility.yul\":6189:6191   */\n      0x20\n        /* \"#utility.yul\":6178:6187   */\n      dup3\n        /* \"#utility.yul\":6174:6192   */\n      add\n        /* \"#utility.yul\":6166:6192   */\n      swap1\n      pop\n        /* \"#utility.yul\":6238:6247   */\n      dup2\n        /* \"#utility.yul\":6232:6236   */\n      dup2\n        /* \"#utility.yul\":6228:6248   */\n      sub\n        /* \"#utility.yul\":6224:6225   */\n      0x00\n        /* \"#utility.yul\":6213:6222   */\n      dup4\n        /* \"#utility.yul\":6209:6226   */\n      add\n        /* \"#utility.yul\":6202:6249   */\n      mstore\n        /* \"#utility.yul\":6266:6397   */\n      tag_135\n        /* \"#utility.yul\":6392:6396   */\n      dup2\n        /* \"#utility.yul\":6266:6397   */\n      tag_71\n      jump\t// in\n    tag_135:\n        /* \"#utility.yul\":6258:6397   */\n      swap1\n      pop\n        /* \"#utility.yul\":5985:6404   */\n      swap2\n      swap1\n      pop\n      jump\t// out\n        /* \"#utility.yul\":6410:6582   */\n    tag_72:\n        /* \"#utility.yul\":6550:6574   */\n      0x20417267756d656e7473206e6f7420636f727265637400000000000000000000\n        /* \"#utility.yul\":6546:6547   */\n      0x00\n        /* \"#utility.yul\":6538:6544   */\n      dup3\n        /* \"#utility.yul\":6534:6548   */\n      add\n        /* \"#utility.yul\":6527:6575   */\n      mstore\n        /* \"#utility.yul\":6410:6582   */\n      pop\n      jump\t// out\n        /* \"#utility.yul\":6588:6954   */\n    tag_73:\n        /* \"#utility.yul\":6730:6733   */\n      0x00\n        /* \"#utility.yul\":6751:6818   */\n      tag_138\n        /* \"#utility.yul\":6815:6817   */\n      0x16\n        /* \"#utility.yul\":6810:6813   */\n      dup4\n        /* \"#utility.yul\":6751:6818   */\n      tag_64\n      jump\t// in\n    tag_138:\n        /* \"#utility.yul\":6744:6818   */\n      swap2\n      pop\n        /* \"#utility.yul\":6827:6920   */\n      tag_139\n        /* \"#utility.yul\":6916:6919   */\n      dup3\n        /* \"#utility.yul\":6827:6920   */\n      tag_72\n      jump\t// in\n    tag_139:\n        /* \"#utility.yul\":6945:6947   */\n      0x20\n        /* \"#utility.yul\":6940:6943   */\n      dup3\n        /* \"#utility.yul\":6936:6948   */\n      add\n        /* \"#utility.yul\":6929:6948   */\n      swap1\n      pop\n        /* \"#utility.yul\":6588:6954   */\n      swap2\n      swap1\n      pop\n      jump\t// out\n        /* \"#utility.yul\":6960:7379   */\n    tag_42:\n        /* \"#utility.yul\":7126:7130   */\n      0x00\n        /* \"#utility.yul\":7164:7166   */\n      0x20\n        /* \"#utility.yul\":7153:7162   */\n      dup3\n        /* \"#utility.yul\":7149:7167   */\n      add\n        /* \"#utility.yul\":7141:7167   */\n      swap1\n      pop\n        /* \"#utility.yul\":7213:7222   */\n      dup2\n        /* \"#utility.yul\":7207:7211   */\n      dup2\n        /* \"#utility.yul\":7203:7223   */\n      sub\n        /* \"#utility.yul\":7199:7200   */\n      0x00\n        /* \"#utility.yul\":7188:7197   */\n      dup4\n        /* \"#utility.yul\":7184:7201   */\n      add\n        /* \"#utility.yul\":7177:7224   */\n      mstore\n        /* \"#utility.yul\":7241:7372   */\n      tag_141\n        /* \"#utility.yul\":7367:7371   */\n      dup2\n        /* \"#utility.yul\":7241:7372   */\n      tag_73\n      jump\t// in\n    tag_141:\n        /* \"#utility.yul\":7233:7372   */\n      swap1\n      pop\n        /* \"#utility.yul\":6960:7379   */\n      swap2\n      swap1\n      pop\n      jump\t// out\n        /* \"#utility.yul\":7385:7560   */\n    tag_74:\n        /* \"#utility.yul\":7525:7552   */\n      0x536563726574206b6579206469646e2774206d61746368656400000000000000\n        /* \"#utility.yul\":7521:7522   */\n      0x00\n        /* \"#utility.yul\":7513:7519   */\n      dup3\n        /* \"#utility.yul\":7509:7523   */\n      add\n        /* \"#utility.yul\":7502:7553   */\n      mstore\n        /* \"#utility.yul\":7385:7560   */\n      pop\n      jump\t// out\n        /* \"#utility.yul\":7566:7932   */\n    tag_75:\n        /* \"#utility.yul\":7708:7711   */\n      0x00\n        /* \"#utility.yul\":7729:7796   */\n      tag_144\n        /* \"#utility.yul\":7793:7795   */\n      0x19\n        /* \"#utility.yul\":7788:7791   */\n      dup4\n        /* \"#utility.yul\":7729:7796   */\n      tag_64\n      jump\t// in\n    tag_144:\n        /* \"#utility.yul\":7722:7796   */\n      swap2\n      pop\n        /* \"#utility.yul\":7805:7898   */\n      tag_145\n        /* \"#utility.yul\":7894:7897   */\n      dup3\n        /* \"#utility.yul\":7805:7898   */\n      tag_74\n      jump\t// in\n    tag_145:\n        /* \"#utility.yul\":7923:7925   */\n      0x20\n        /* \"#utility.yul\":7918:7921   */\n      dup3\n        /* \"#utility.yul\":7914:7926   */\n      add\n        /* \"#utility.yul\":7907:7926   */\n      swap1\n      pop\n        /* \"#utility.yul\":7566:7932   */\n      swap2\n      swap1\n      pop\n      jump\t// out\n        /* \"#utility.yul\":7938:8357   */\n    tag_45:\n        /* \"#utility.yul\":8104:8108   */\n      0x00\n        /* \"#utility.yul\":8142:8144   */\n      0x20\n        /* \"#utility.yul\":8131:8140   */\n      dup3\n        /* \"#utility.yul\":8127:8145   */\n      add\n        /* \"#utility.yul\":8119:8145   */\n      swap1\n      pop\n        /* \"#utility.yul\":8191:8200   */\n      dup2\n        /* \"#utility.yul\":8185:8189   */\n      dup2\n        /* \"#utility.yul\":8181:8201   */\n      sub\n        /* \"#utility.yul\":8177:8178   */\n      0x00\n        /* \"#utility.yul\":8166:8175   */\n      dup4\n        /* \"#utility.yul\":8162:8179   */\n      add\n        /* \"#utility.yul\":8155:8202   */\n      mstore\n        /* \"#utility.yul\":8219:8350   */\n      tag_147\n        /* \"#utility.yul\":8345:8349   */\n      dup2\n        /* \"#utility.yul\":8219:8350   */\n      tag_75\n      jump\t// in\n    tag_147:\n        /* \"#utility.yul\":8211:8350   */\n      swap1\n      pop\n        /* \"#utility.yul\":7938:8357   */\n      swap2\n      swap1\n      pop\n      jump\t// out\n        /* \"#utility.yul\":8363:8554   */\n    tag_47:\n        /* \"#utility.yul\":8403:8407   */\n      0x00\n        /* \"#utility.yul\":8423:8443   */\n      tag_149\n        /* \"#utility.yul\":8441:8442   */\n      dup3\n        /* \"#utility.yul\":8423:8443   */\n      tag_56\n      jump\t// in\n    tag_149:\n        /* \"#utility.yul\":8418:8443   */\n      swap2\n      pop\n        /* \"#utility.yul\":8457:8477   */\n      tag_150\n        /* \"#utility.yul\":8475:8476   */\n      dup4\n        /* \"#utility.yul\":8457:8477   */\n      tag_56\n      jump\t// in\n    tag_150:\n        /* \"#utility.yul\":8452:8477   */\n      swap3\n      pop\n        /* \"#utility.yul\":8496:8497   */\n      dup3\n        /* \"#utility.yul\":8493:8494   */\n      dup3\n        /* \"#utility.yul\":8490:8498   */\n      lt\n        /* \"#utility.yul\":8487:8521   */\n      iszero\n      tag_151\n      jumpi\n        /* \"#utility.yul\":8501:8519   */\n      tag_152\n      tag_67\n      jump\t// in\n    tag_152:\n        /* \"#utility.yul\":8487:8521   */\n    tag_151:\n        /* \"#utility.yul\":8546:8547   */\n      dup3\n        /* \"#utility.yul\":8543:8544   */\n      dup3\n        /* \"#utility.yul\":8539:8548   */\n      sub\n        /* \"#utility.yul\":8531:8548   */\n      swap1\n      pop\n        /* \"#utility.yul\":8363:8554   */\n      swap3\n      swap2\n      pop\n      pop\n      jump\t// out\n\n    auxdata: 0xa264697066735822122091831f9cbe4191d2e61a44108ef7800501e00dfc26b554cd6966c5054d825a6864736f6c63430008090033\n}\n",
				"bytecode": {
					"linkReferences": {},
					"object": "6080604052670de0b6b3a764000060005534801561001c57600080fd5b5033600160006101000a81548173ffffffffffffffffffffffffffffffffffffffff021916908373ffffffffffffffffffffffffffffffffffffffff160217905550610a5b8061006d6000396000f3fe60806040526004361061003f5760003560e01c80631000420d1461004457806338a2ca4014610074578063d8b6e79a1461009f578063f340fa01146100cf575b600080fd5b61005e600480360381019061005991906105d1565b6100ff565b60405161006b919061060d565b60405180910390f35b34801561008057600080fd5b50610089610226565b604051610096919061060d565b60405180910390f35b6100b960048036038101906100b49190610628565b6102be565b6040516100c6919061060d565b60405180910390f35b6100e960048036038101906100e491906106c6565b6104ab565b6040516100f6919061060d565b60405180910390f35b60008054341015610145576040517f08c379a000000000000000000000000000000000000000000000000000000000815260040161013c90610776565b60405180910390fd5b34600260003373ffffffffffffffffffffffffffffffffffffffff1673ffffffffffffffffffffffffffffffffffffffff168152602001908152602001600020600082825461019491906107c5565b9250508190555081600360003373ffffffffffffffffffffffffffffffffffffffff1673ffffffffffffffffffffffffffffffffffffffff16815260200190815260200160002081905550600260003373ffffffffffffffffffffffffffffffffffffffff1673ffffffffffffffffffffffffffffffffffffffff168152602001908152602001600020549050919050565b6000600160009054906101000a900473ffffffffffffffffffffffffffffffffffffffff1673ffffffffffffffffffffffffffffffffffffffff163373ffffffffffffffffffffffffffffffffffffffff16146102b8576040517f08c379a00000000000000000000000000000000000000000000000000000000081526004016102af9061088d565b60405180910390fd5b47905090565b600047341115610303576040517f08c379a00000000000000000000000000000000000000000000000000000000081526004016102fa906108f9565b60405180910390fd5b823414610345576040517f08c379a000000000000000000000000000000000000000000000000000000000815260040161033c90610965565b60405180910390fd5b81600360003373ffffffffffffffffffffffffffffffffffffffff1673ffffffffffffffffffffffffffffffffffffffff16815260200190815260200160002054146103c6576040517f08c379a00000000000000000000000000000000000000000000000000000000081526004016103bd906109d1565b60405180910390fd5b82600260003373ffffffffffffffffffffffffffffffffffffffff1673ffffffffffffffffffffffffffffffffffffffff168152602001908152602001600020600082825461041591906109f1565b925050819055503373ffffffffffffffffffffffffffffffffffffffff166108fc479081150290604051600060405180830381858888f19350505050158015610462573d6000803e3d6000fd5b50600260003373ffffffffffffffffffffffffffffffffffffffff1673ffffffffffffffffffffffffffffffffffffffff16815260200190815260200160002054905092915050565b600080600260008473ffffffffffffffffffffffffffffffffffffffff1673ffffffffffffffffffffffffffffffffffffffff1681526020019081526020016000205414156104f957600080fd5b34600260008473ffffffffffffffffffffffffffffffffffffffff1673ffffffffffffffffffffffffffffffffffffffff168152602001908152602001600020600082825461054891906107c5565b92505081905550600260008373ffffffffffffffffffffffffffffffffffffffff1673ffffffffffffffffffffffffffffffffffffffff168152602001908152602001600020549050919050565b600080fd5b6000819050919050565b6105ae8161059b565b81146105b957600080fd5b50565b6000813590506105cb816105a5565b92915050565b6000602082840312156105e7576105e6610596565b5b60006105f5848285016105bc565b91505092915050565b6106078161059b565b82525050565b600060208201905061062260008301846105fe565b92915050565b6000806040838503121561063f5761063e610596565b5b600061064d858286016105bc565b925050602061065e858286016105bc565b9150509250929050565b600073ffffffffffffffffffffffffffffffffffffffff82169050919050565b600061069382610668565b9050919050565b6106a381610688565b81146106ae57600080fd5b50565b6000813590506106c08161069a565b92915050565b6000602082840312156106dc576106db610596565b5b60006106ea848285016106b1565b91505092915050565b600082825260208201905092915050565b7f5468657265206d7573742061206d696e696d756d2062616c616e6365206f662060008201527f3120657468657200000000000000000000000000000000000000000000000000602082015250565b60006107606027836106f3565b915061076b82610704565b604082019050919050565b6000602082019050818103600083015261078f81610753565b9050919050565b7f4e487b7100000000000000000000000000000000000000000000000000000000600052601160045260246000fd5b60006107d08261059b565b91506107db8361059b565b9250827fffffffffffffffffffffffffffffffffffffffffffffffffffffffffffffffff038211156108105761080f610796565b5b828201905092915050565b7f4f776e6572206f662062616e6b206469646e27742063616c6c2074686520667560008201527f6e6374696f6e0000000000000000000000000000000000000000000000000000602082015250565b60006108776026836106f3565b91506108828261081b565b604082019050919050565b600060208201905081810360008301526108a68161086a565b9050919050565b7f576974682064726177616c2076616c7565206e6f7420636f7272656374000000600082015250565b60006108e3601d836106f3565b91506108ee826108ad565b602082019050919050565b60006020820190508181036000830152610912816108d6565b9050919050565b7f20417267756d656e7473206e6f7420636f727265637400000000000000000000600082015250565b600061094f6016836106f3565b915061095a82610919565b602082019050919050565b6000602082019050818103600083015261097e81610942565b9050919050565b7f536563726574206b6579206469646e2774206d61746368656400000000000000600082015250565b60006109bb6019836106f3565b91506109c682610985565b602082019050919050565b600060208201905081810360008301526109ea816109ae565b9050919050565b60006109fc8261059b565b9150610a078361059b565b925082821015610a1a57610a19610796565b5b82820390509291505056fea264697066735822122091831f9cbe4191d2e61a44108ef7800501e00dfc26b554cd6966c5054d825a6864736f6c63430008090033",
					"opcodes": "PUSH1 0x80 PUSH1 0x40 MSTORE PUSH8 0xDE0B6B3A7640000 PUSH1 0x0 SSTORE CALLVALUE DUP1 ISZERO PUSH2 0x1C JUMPI PUSH1 0x0 DUP1 REVERT JUMPDEST POP CALLER PUSH1 0x1 PUSH1 0x0 PUSH2 0x100 EXP DUP2 SLOAD DUP2 PUSH20 0xFFFFFFFFFFFFFFFFFFFFFFFFFFFFFFFFFFFFFFFF MUL NOT AND SWAP1 DUP4 PUSH20 0xFFFFFFFFFFFFFFFFFFFFFFFFFFFFFFFFFFFFFFFF AND MUL OR SWAP1 SSTORE POP PUSH2 0xA5B DUP1 PUSH2 0x6D PUSH1 0x0 CODECOPY PUSH1 0x0 RETURN INVALID PUSH1 0x80 PUSH1 0x40 MSTORE PUSH1 0x4 CALLDATASIZE LT PUSH2 0x3F JUMPI PUSH1 0x0 CALLDATALOAD PUSH1 0xE0 SHR DUP1 PUSH4 0x1000420D EQ PUSH2 0x44 JUMPI DUP1 PUSH4 0x38A2CA40 EQ PUSH2 0x74 JUMPI DUP1 PUSH4 0xD8B6E79A EQ PUSH2 0x9F JUMPI DUP1 PUSH4 0xF340FA01 EQ PUSH2 0xCF JUMPI JUMPDEST PUSH1 0x0 DUP1 REVERT JUMPDEST PUSH2 0x5E PUSH1 0x4 DUP1 CALLDATASIZE SUB DUP2 ADD SWAP1 PUSH2 0x59 SWAP2 SWAP1 PUSH2 0x5D1 JUMP JUMPDEST PUSH2 0xFF JUMP JUMPDEST PUSH1 0x40 MLOAD PUSH2 0x6B SWAP2 SWAP1 PUSH2 0x60D JUMP JUMPDEST PUSH1 0x40 MLOAD DUP1 SWAP2 SUB SWAP1 RETURN JUMPDEST CALLVALUE DUP1 ISZERO PUSH2 0x80 JUMPI PUSH1 0x0 DUP1 REVERT JUMPDEST POP PUSH2 0x89 PUSH2 0x226 JUMP JUMPDEST PUSH1 0x40 MLOAD PUSH2 0x96 SWAP2 SWAP1 PUSH2 0x60D JUMP JUMPDEST PUSH1 0x40 MLOAD DUP1 SWAP2 SUB SWAP1 RETURN JUMPDEST PUSH2 0xB9 PUSH1 0x4 DUP1 CALLDATASIZE SUB DUP2 ADD SWAP1 PUSH2 0xB4 SWAP2 SWAP1 PUSH2 0x628 JUMP JUMPDEST PUSH2 0x2BE JUMP JUMPDEST PUSH1 0x40 MLOAD PUSH2 0xC6 SWAP2 SWAP1 PUSH2 0x60D JUMP JUMPDEST PUSH1 0x40 MLOAD DUP1 SWAP2 SUB SWAP1 RETURN JUMPDEST PUSH2 0xE9 PUSH1 0x4 DUP1 CALLDATASIZE SUB DUP2 ADD SWAP1 PUSH2 0xE4 SWAP2 SWAP1 PUSH2 0x6C6 JUMP JUMPDEST PUSH2 0x4AB JUMP JUMPDEST PUSH1 0x40 MLOAD PUSH2 0xF6 SWAP2 SWAP1 PUSH2 0x60D JUMP JUMPDEST PUSH1 0x40 MLOAD DUP1 SWAP2 SUB SWAP1 RETURN JUMPDEST PUSH1 0x0 DUP1 SLOAD CALLVALUE LT ISZERO PUSH2 0x145 JUMPI PUSH1 0x40 MLOAD PUSH32 0x8C379A000000000000000000000000000000000000000000000000000000000 DUP2 MSTORE PUSH1 0x4 ADD PUSH2 0x13C SWAP1 PUSH2 0x776 JUMP JUMPDEST PUSH1 0x40 MLOAD DUP1 SWAP2 SUB SWAP1 REVERT JUMPDEST CALLVALUE PUSH1 0x2 PUSH1 0x0 CALLER PUSH20 0xFFFFFFFFFFFFFFFFFFFFFFFFFFFFFFFFFFFFFFFF AND PUSH20 0xFFFFFFFFFFFFFFFFFFFFFFFFFFFFFFFFFFFFFFFF AND DUP2 MSTORE PUSH1 0x20 ADD SWAP1 DUP2 MSTORE PUSH1 0x20 ADD PUSH1 0x0 KECCAK256 PUSH1 0x0 DUP3 DUP3 SLOAD PUSH2 0x194 SWAP2 SWAP1 PUSH2 0x7C5 JUMP JUMPDEST SWAP3 POP POP DUP2 SWAP1 SSTORE POP DUP2 PUSH1 0x3 PUSH1 0x0 CALLER PUSH20 0xFFFFFFFFFFFFFFFFFFFFFFFFFFFFFFFFFFFFFFFF AND PUSH20 0xFFFFFFFFFFFFFFFFFFFFFFFFFFFFFFFFFFFFFFFF AND DUP2 MSTORE PUSH1 0x20 ADD SWAP1 DUP2 MSTORE PUSH1 0x20 ADD PUSH1 0x0 KECCAK256 DUP2 SWAP1 SSTORE POP PUSH1 0x2 PUSH1 0x0 CALLER PUSH20 0xFFFFFFFFFFFFFFFFFFFFFFFFFFFFFFFFFFFFFFFF AND PUSH20 0xFFFFFFFFFFFFFFFFFFFFFFFFFFFFFFFFFFFFFFFF AND DUP2 MSTORE PUSH1 0x20 ADD SWAP1 DUP2 MSTORE PUSH1 0x20 ADD PUSH1 0x0 KECCAK256 SLOAD SWAP1 POP SWAP2 SWAP1 POP JUMP JUMPDEST PUSH1 0x0 PUSH1 0x1 PUSH1 0x0 SWAP1 SLOAD SWAP1 PUSH2 0x100 EXP SWAP1 DIV PUSH20 0xFFFFFFFFFFFFFFFFFFFFFFFFFFFFFFFFFFFFFFFF AND PUSH20 0xFFFFFFFFFFFFFFFFFFFFFFFFFFFFFFFFFFFFFFFF AND CALLER PUSH20 0xFFFFFFFFFFFFFFFFFFFFFFFFFFFFFFFFFFFFFFFF AND EQ PUSH2 0x2B8 JUMPI PUSH1 0x40 MLOAD PUSH32 0x8C379A000000000000000000000000000000000000000000000000000000000 DUP2 MSTORE PUSH1 0x4 ADD PUSH2 0x2AF SWAP1 PUSH2 0x88D JUMP JUMPDEST PUSH1 0x40 MLOAD DUP1 SWAP2 SUB SWAP1 REVERT JUMPDEST SELFBALANCE SWAP1 POP SWAP1 JUMP JUMPDEST PUSH1 0x0 SELFBALANCE CALLVALUE GT ISZERO PUSH2 0x303 JUMPI PUSH1 0x40 MLOAD PUSH32 0x8C379A000000000000000000000000000000000000000000000000000000000 DUP2 MSTORE PUSH1 0x4 ADD PUSH2 0x2FA SWAP1 PUSH2 0x8F9 JUMP JUMPDEST PUSH1 0x40 MLOAD DUP1 SWAP2 SUB SWAP1 REVERT JUMPDEST DUP3 CALLVALUE EQ PUSH2 0x345 JUMPI PUSH1 0x40 MLOAD PUSH32 0x8C379A000000000000000000000000000000000000000000000000000000000 DUP2 MSTORE PUSH1 0x4 ADD PUSH2 0x33C SWAP1 PUSH2 0x965 JUMP JUMPDEST PUSH1 0x40 MLOAD DUP1 SWAP2 SUB SWAP1 REVERT JUMPDEST DUP2 PUSH1 0x3 PUSH1 0x0 CALLER PUSH20 0xFFFFFFFFFFFFFFFFFFFFFFFFFFFFFFFFFFFFFFFF AND PUSH20 0xFFFFFFFFFFFFFFFFFFFFFFFFFFFFFFFFFFFFFFFF AND DUP2 MSTORE PUSH1 0x20 ADD SWAP1 DUP2 MSTORE PUSH1 0x20 ADD PUSH1 0x0 KECCAK256 SLOAD EQ PUSH2 0x3C6 JUMPI PUSH1 0x40 MLOAD PUSH32 0x8C379A000000000000000000000000000000000000000000000000000000000 DUP2 MSTORE PUSH1 0x4 ADD PUSH2 0x3BD SWAP1 PUSH2 0x9D1 JUMP JUMPDEST PUSH1 0x40 MLOAD DUP1 SWAP2 SUB SWAP1 REVERT JUMPDEST DUP3 PUSH1 0x2 PUSH1 0x0 CALLER PUSH20 0xFFFFFFFFFFFFFFFFFFFFFFFFFFFFFFFFFFFFFFFF AND PUSH20 0xFFFFFFFFFFFFFFFFFFFFFFFFFFFFFFFFFFFFFFFF AND DUP2 MSTORE PUSH1 0x20 ADD SWAP1 DUP2 MSTORE PUSH1 0x20 ADD PUSH1 0x0 KECCAK256 PUSH1 0x0 DUP3 DUP3 SLOAD PUSH2 0x415 SWAP2 SWAP1 PUSH2 0x9F1 JUMP JUMPDEST SWAP3 POP POP DUP2 SWAP1 SSTORE POP CALLER PUSH20 0xFFFFFFFFFFFFFFFFFFFFFFFFFFFFFFFFFFFFFFFF AND PUSH2 0x8FC SELFBALANCE SWAP1 DUP2 ISZERO MUL SWAP1 PUSH1 0x40 MLOAD PUSH1 0x0 PUSH1 0x40 MLOAD DUP1 DUP4 SUB DUP2 DUP6 DUP9 DUP9 CALL SWAP4 POP POP POP POP ISZERO DUP1 ISZERO PUSH2 0x462 JUMPI RETURNDATASIZE PUSH1 0x0 DUP1 RETURNDATACOPY RETURNDATASIZE PUSH1 0x0 REVERT JUMPDEST POP PUSH1 0x2 PUSH1 0x0 CALLER PUSH20 0xFFFFFFFFFFFFFFFFFFFFFFFFFFFFFFFFFFFFFFFF AND PUSH20 0xFFFFFFFFFFFFFFFFFFFFFFFFFFFFFFFFFFFFFFFF AND DUP2 MSTORE PUSH1 0x20 ADD SWAP1 DUP2 MSTORE PUSH1 0x20 ADD PUSH1 0x0 KECCAK256 SLOAD SWAP1 POP SWAP3 SWAP2 POP POP JUMP JUMPDEST PUSH1 0x0 DUP1 PUSH1 0x2 PUSH1 0x0 DUP5 PUSH20 0xFFFFFFFFFFFFFFFFFFFFFFFFFFFFFFFFFFFFFFFF AND PUSH20 0xFFFFFFFFFFFFFFFFFFFFFFFFFFFFFFFFFFFFFFFF AND DUP2 MSTORE PUSH1 0x20 ADD SWAP1 DUP2 MSTORE PUSH1 0x20 ADD PUSH1 0x0 KECCAK256 SLOAD EQ ISZERO PUSH2 0x4F9 JUMPI PUSH1 0x0 DUP1 REVERT JUMPDEST CALLVALUE PUSH1 0x2 PUSH1 0x0 DUP5 PUSH20 0xFFFFFFFFFFFFFFFFFFFFFFFFFFFFFFFFFFFFFFFF AND PUSH20 0xFFFFFFFFFFFFFFFFFFFFFFFFFFFFFFFFFFFFFFFF AND DUP2 MSTORE PUSH1 0x20 ADD SWAP1 DUP2 MSTORE PUSH1 0x20 ADD PUSH1 0x0 KECCAK256 PUSH1 0x0 DUP3 DUP3 SLOAD PUSH2 0x548 SWAP2 SWAP1 PUSH2 0x7C5 JUMP JUMPDEST SWAP3 POP POP DUP2 SWAP1 SSTORE POP PUSH1 0x2 PUSH1 0x0 DUP4 PUSH20 0xFFFFFFFFFFFFFFFFFFFFFFFFFFFFFFFFFFFFFFFF AND PUSH20 0xFFFFFFFFFFFFFFFFFFFFFFFFFFFFFFFFFFFFFFFF AND DUP2 MSTORE PUSH1 0x20 ADD SWAP1 DUP2 MSTORE PUSH1 0x20 ADD PUSH1 0x0 KECCAK256 SLOAD SWAP1 POP SWAP2 SWAP1 POP JUMP JUMPDEST PUSH1 0x0 DUP1 REVERT JUMPDEST PUSH1 0x0 DUP2 SWAP1 POP SWAP2 SWAP1 POP JUMP JUMPDEST PUSH2 0x5AE DUP2 PUSH2 0x59B JUMP JUMPDEST DUP2 EQ PUSH2 0x5B9 JUMPI PUSH1 0x0 DUP1 REVERT JUMPDEST POP JUMP JUMPDEST PUSH1 0x0 DUP2 CALLDATALOAD SWAP1 POP PUSH2 0x5CB DUP2 PUSH2 0x5A5 JUMP JUMPDEST SWAP3 SWAP2 POP POP JUMP JUMPDEST PUSH1 0x0 PUSH1 0x20 DUP3 DUP5 SUB SLT ISZERO PUSH2 0x5E7 JUMPI PUSH2 0x5E6 PUSH2 0x596 JUMP JUMPDEST JUMPDEST PUSH1 0x0 PUSH2 0x5F5 DUP5 DUP3 DUP6 ADD PUSH2 0x5BC JUMP JUMPDEST SWAP2 POP POP SWAP3 SWAP2 POP POP JUMP JUMPDEST PUSH2 0x607 DUP2 PUSH2 0x59B JUMP JUMPDEST DUP3 MSTORE POP POP JUMP JUMPDEST PUSH1 0x0 PUSH1 0x20 DUP3 ADD SWAP1 POP PUSH2 0x622 PUSH1 0x0 DUP4 ADD DUP5 PUSH2 0x5FE JUMP JUMPDEST SWAP3 SWAP2 POP POP JUMP JUMPDEST PUSH1 0x0 DUP1 PUSH1 0x40 DUP4 DUP6 SUB SLT ISZERO PUSH2 0x63F JUMPI PUSH2 0x63E PUSH2 0x596 JUMP JUMPDEST JUMPDEST PUSH1 0x0 PUSH2 0x64D DUP6 DUP3 DUP7 ADD PUSH2 0x5BC JUMP JUMPDEST SWAP3 POP POP PUSH1 0x20 PUSH2 0x65E DUP6 DUP3 DUP7 ADD PUSH2 0x5BC JUMP JUMPDEST SWAP2 POP POP SWAP3 POP SWAP3 SWAP1 POP JUMP JUMPDEST PUSH1 0x0 PUSH20 0xFFFFFFFFFFFFFFFFFFFFFFFFFFFFFFFFFFFFFFFF DUP3 AND SWAP1 POP SWAP2 SWAP1 POP JUMP JUMPDEST PUSH1 0x0 PUSH2 0x693 DUP3 PUSH2 0x668 JUMP JUMPDEST SWAP1 POP SWAP2 SWAP1 POP JUMP JUMPDEST PUSH2 0x6A3 DUP2 PUSH2 0x688 JUMP JUMPDEST DUP2 EQ PUSH2 0x6AE JUMPI PUSH1 0x0 DUP1 REVERT JUMPDEST POP JUMP JUMPDEST PUSH1 0x0 DUP2 CALLDATALOAD SWAP1 POP PUSH2 0x6C0 DUP2 PUSH2 0x69A JUMP JUMPDEST SWAP3 SWAP2 POP POP JUMP JUMPDEST PUSH1 0x0 PUSH1 0x20 DUP3 DUP5 SUB SLT ISZERO PUSH2 0x6DC JUMPI PUSH2 0x6DB PUSH2 0x596 JUMP JUMPDEST JUMPDEST PUSH1 0x0 PUSH2 0x6EA DUP5 DUP3 DUP6 ADD PUSH2 0x6B1 JUMP JUMPDEST SWAP2 POP POP SWAP3 SWAP2 POP POP JUMP JUMPDEST PUSH1 0x0 DUP3 DUP3 MSTORE PUSH1 0x20 DUP3 ADD SWAP1 POP SWAP3 SWAP2 POP POP JUMP JUMPDEST PUSH32 0x5468657265206D7573742061206D696E696D756D2062616C616E6365206F6620 PUSH1 0x0 DUP3 ADD MSTORE PUSH32 0x3120657468657200000000000000000000000000000000000000000000000000 PUSH1 0x20 DUP3 ADD MSTORE POP JUMP JUMPDEST PUSH1 0x0 PUSH2 0x760 PUSH1 0x27 DUP4 PUSH2 0x6F3 JUMP JUMPDEST SWAP2 POP PUSH2 0x76B DUP3 PUSH2 0x704 JUMP JUMPDEST PUSH1 0x40 DUP3 ADD SWAP1 POP SWAP2 SWAP1 POP JUMP JUMPDEST PUSH1 0x0 PUSH1 0x20 DUP3 ADD SWAP1 POP DUP2 DUP2 SUB PUSH1 0x0 DUP4 ADD MSTORE PUSH2 0x78F DUP2 PUSH2 0x753 JUMP JUMPDEST SWAP1 POP SWAP2 SWAP1 POP JUMP JUMPDEST PUSH32 0x4E487B7100000000000000000000000000000000000000000000000000000000 PUSH1 0x0 MSTORE PUSH1 0x11 PUSH1 0x4 MSTORE PUSH1 0x24 PUSH1 0x0 REVERT JUMPDEST PUSH1 0x0 PUSH2 0x7D0 DUP3 PUSH2 0x59B JUMP JUMPDEST SWAP2 POP PUSH2 0x7DB DUP4 PUSH2 0x59B JUMP JUMPDEST SWAP3 POP DUP3 PUSH32 0xFFFFFFFFFFFFFFFFFFFFFFFFFFFFFFFFFFFFFFFFFFFFFFFFFFFFFFFFFFFFFFFF SUB DUP3 GT ISZERO PUSH2 0x810 JUMPI PUSH2 0x80F PUSH2 0x796 JUMP JUMPDEST JUMPDEST DUP3 DUP3 ADD SWAP1 POP SWAP3 SWAP2 POP POP JUMP JUMPDEST PUSH32 0x4F776E6572206F662062616E6B206469646E27742063616C6C20746865206675 PUSH1 0x0 DUP3 ADD MSTORE PUSH32 0x6E6374696F6E0000000000000000000000000000000000000000000000000000 PUSH1 0x20 DUP3 ADD MSTORE POP JUMP JUMPDEST PUSH1 0x0 PUSH2 0x877 PUSH1 0x26 DUP4 PUSH2 0x6F3 JUMP JUMPDEST SWAP2 POP PUSH2 0x882 DUP3 PUSH2 0x81B JUMP JUMPDEST PUSH1 0x40 DUP3 ADD SWAP1 POP SWAP2 SWAP1 POP JUMP JUMPDEST PUSH1 0x0 PUSH1 0x20 DUP3 ADD SWAP1 POP DUP2 DUP2 SUB PUSH1 0x0 DUP4 ADD MSTORE PUSH2 0x8A6 DUP2 PUSH2 0x86A JUMP JUMPDEST SWAP1 POP SWAP2 SWAP1 POP JUMP JUMPDEST PUSH32 0x576974682064726177616C2076616C7565206E6F7420636F7272656374000000 PUSH1 0x0 DUP3 ADD MSTORE POP JUMP JUMPDEST PUSH1 0x0 PUSH2 0x8E3 PUSH1 0x1D DUP4 PUSH2 0x6F3 JUMP JUMPDEST SWAP2 POP PUSH2 0x8EE DUP3 PUSH2 0x8AD JUMP JUMPDEST PUSH1 0x20 DUP3 ADD SWAP1 POP SWAP2 SWAP1 POP JUMP JUMPDEST PUSH1 0x0 PUSH1 0x20 DUP3 ADD SWAP1 POP DUP2 DUP2 SUB PUSH1 0x0 DUP4 ADD MSTORE PUSH2 0x912 DUP2 PUSH2 0x8D6 JUMP JUMPDEST SWAP1 POP SWAP2 SWAP1 POP JUMP JUMPDEST PUSH32 0x20417267756D656E7473206E6F7420636F727265637400000000000000000000 PUSH1 0x0 DUP3 ADD MSTORE POP JUMP JUMPDEST PUSH1 0x0 PUSH2 0x94F PUSH1 0x16 DUP4 PUSH2 0x6F3 JUMP JUMPDEST SWAP2 POP PUSH2 0x95A DUP3 PUSH2 0x919 JUMP JUMPDEST PUSH1 0x20 DUP3 ADD SWAP1 POP SWAP2 SWAP1 POP JUMP JUMPDEST PUSH1 0x0 PUSH1 0x20 DUP3 ADD SWAP1 POP DUP2 DUP2 SUB PUSH1 0x0 DUP4 ADD MSTORE PUSH2 0x97E DUP2 PUSH2 0x942 JUMP JUMPDEST SWAP1 POP SWAP2 SWAP1 POP JUMP JUMPDEST PUSH32 0x536563726574206B6579206469646E2774206D61746368656400000000000000 PUSH1 0x0 DUP3 ADD MSTORE POP JUMP JUMPDEST PUSH1 0x0 PUSH2 0x9BB PUSH1 0x19 DUP4 PUSH2 0x6F3 JUMP JUMPDEST SWAP2 POP PUSH2 0x9C6 DUP3 PUSH2 0x985 JUMP JUMPDEST PUSH1 0x20 DUP3 ADD SWAP1 POP SWAP2 SWAP1 POP JUMP JUMPDEST PUSH1 0x0 PUSH1 0x20 DUP3 ADD SWAP1 POP DUP2 DUP2 SUB PUSH1 0x0 DUP4 ADD MSTORE PUSH2 0x9EA DUP2 PUSH2 0x9AE JUMP JUMPDEST SWAP1 POP SWAP2 SWAP1 POP JUMP JUMPDEST PUSH1 0x0 PUSH2 0x9FC DUP3 PUSH2 0x59B JUMP JUMPDEST SWAP2 POP PUSH2 0xA07 DUP4 PUSH2 0x59B JUMP JUMPDEST SWAP3 POP DUP3 DUP3 LT ISZERO PUSH2 0xA1A JUMPI PUSH2 0xA19 PUSH2 0x796 JUMP JUMPDEST JUMPDEST DUP3 DUP3 SUB SWAP1 POP SWAP3 SWAP2 POP POP JUMP INVALID LOG2 PUSH5 0x6970667358 0x22 SLT KECCAK256 SWAP2 DUP4 0x1F SWAP13 0xBE COINBASE SWAP2 0xD2 0xE6 BYTE DIFFICULTY LT DUP15 0xF7 DUP1 SDIV ADD 0xE0 0xD 0xFC 0x26 0xB5 SLOAD 0xCD PUSH10 0x66C5054D825A6864736F PUSH13 0x63430008090033000000000000 "
				},
				"gasEstimates": {
					"creation": {
						"codeDepositCost": "530200",
						"executionCost": "46934",
						"totalCost": "577134"
					},
					"external": {
						"deposit(address)": "infinite",
						"getTotalBankBalance()": "2624",
						"openAccount(uint256)": "infinite",
						"withDraw(uint256,uint256)": "infinite"
					}
				},
				"methodIdentifiers": {
					"deposit(address)": "f340fa01",
					"getTotalBankBalance()": "38a2ca40",
					"openAccount(uint256)": "1000420d",
					"withDraw(uint256,uint256)": "d8b6e79a"
				}
			},
			"storageLayout": {
				"storage": [
					{
						"astId": 4,
						"contract": "ActualBank.sol:ActualBank",
						"label": "minAccountBalance",
						"offset": 0,
						"slot": "0",
						"type": "t_uint256"
					},
					{
						"astId": 6,
						"contract": "ActualBank.sol:ActualBank",
						"label": "owner",
						"offset": 0,
						"slot": "1",
						"type": "t_address_payable"
					},
					{
						"astId": 10,
						"contract": "ActualBank.sol:ActualBank",
						"label": "balance",
						"offset": 0,
						"slot": "2",
						"type": "t_mapping(t_address,t_uint256)"
					},
					{
						"astId": 14,
						"contract": "ActualBank.sol:ActualBank",
						"label": "secretKey",
						"offset": 0,
						"slot": "3",
						"type": "t_mapping(t_address,t_uint256)"
					}
				],
				"types": {
					"t_address": {
						"encoding": "inplace",
						"label": "address",
						"numberOfBytes": "20"
					},
					"t_address_payable": {
						"encoding": "inplace",
						"label": "address payable",
						"numberOfBytes": "20"
					},
					"t_mapping(t_address,t_uint256)": {
						"encoding": "mapping",
						"key": "t_address",
						"label": "mapping(address => uint256)",
						"numberOfBytes": "32",
						"value": "t_uint256"
					},
					"t_uint256": {
						"encoding": "inplace",
						"label": "uint256",
						"numberOfBytes": "32"
					}
				}
			},
			"userdoc": {
				"kind": "user",
				"methods": {},
				"version": 1
			}
		}
	}
}