{
	"PetSanctuary.sol": {
		"PetSanctuary": {
			"abi": [
				{
					"inputs": [],
					"stateMutability": "nonpayable",
					"type": "constructor"
				},
				{
					"inputs": [
						{
							"internalType": "enum PetSanctuary.AnimalKind",
							"name": "_animalKind",
							"type": "uint8"
						},
						{
							"internalType": "uint256",
							"name": "_howManyPieces",
							"type": "uint256"
						}
					],
					"name": "add",
					"outputs": [],
					"stateMutability": "nonpayable",
					"type": "function"
				},
				{
					"inputs": [],
					"name": "animalKind",
					"outputs": [
						{
							"internalType": "enum PetSanctuary.AnimalKind",
							"name": "",
							"type": "uint8"
						}
					],
					"stateMutability": "view",
					"type": "function"
				},
				{
					"inputs": [
						{
							"internalType": "enum PetSanctuary.AnimalKind",
							"name": "",
							"type": "uint8"
						}
					],
					"name": "animals",
					"outputs": [
						{
							"internalType": "uint256",
							"name": "",
							"type": "uint256"
						}
					],
					"stateMutability": "view",
					"type": "function"
				},
				{
					"inputs": [
						{
							"internalType": "uint256",
							"name": "personAge",
							"type": "uint256"
						},
						{
							"internalType": "string",
							"name": "_personGender",
							"type": "string"
						},
						{
							"internalType": "enum PetSanctuary.AnimalKind",
							"name": "_animalKind",
							"type": "uint8"
						}
					],
					"name": "buy",
					"outputs": [],
					"stateMutability": "nonpayable",
					"type": "function"
				},
				{
					"inputs": [
						{
							"internalType": "enum PetSanctuary.AnimalKind",
							"name": "_animalKind",
							"type": "uint8"
						}
					],
					"name": "giveBackAnimal",
					"outputs": [],
					"stateMutability": "nonpayable",
					"type": "function"
				},
				{
					"inputs": [],
					"name": "owner",
					"outputs": [
						{
							"internalType": "address",
							"name": "",
							"type": "address"
						}
					],
					"stateMutability": "view",
					"type": "function"
				}
			],
			"devdoc": {
				"kind": "dev",
				"methods": {},
				"version": 1
			},
			"evm": {
				"assembly": "    /* \"PetSanctuary.sol\":144:2038  contract PetSanctuary{... */\n  mstore(0x40, 0x80)\n    /* \"PetSanctuary.sol\":412:458  constructor(){... */\n  callvalue\n  dup1\n  iszero\n  tag_1\n  jumpi\n  0x00\n  dup1\n  revert\ntag_1:\n  pop\n    /* \"PetSanctuary.sol\":441:451  msg.sender */\n  caller\n    /* \"PetSanctuary.sol\":435:440  owner */\n  0x00\n  0x01\n    /* \"PetSanctuary.sol\":435:451  owner=msg.sender */\n  0x0100\n  exp\n  dup2\n  sload\n  dup2\n  0xffffffffffffffffffffffffffffffffffffffff\n  mul\n  not\n  and\n  swap1\n  dup4\n  0xffffffffffffffffffffffffffffffffffffffff\n  and\n  mul\n  or\n  swap1\n  sstore\n  pop\n    /* \"PetSanctuary.sol\":144:2038  contract PetSanctuary{... */\n  dataSize(sub_0)\n  dup1\n  dataOffset(sub_0)\n  0x00\n  codecopy\n  0x00\n  return\nstop\n\nsub_0: assembly {\n        /* \"PetSanctuary.sol\":144:2038  contract PetSanctuary{... */\n      mstore(0x40, 0x80)\n      callvalue\n      dup1\n      iszero\n      tag_1\n      jumpi\n      0x00\n      dup1\n      revert\n    tag_1:\n      pop\n      jumpi(tag_2, lt(calldatasize, 0x04))\n      shr(0xe0, calldataload(0x00))\n      dup1\n      0x07f93f17\n      eq\n      tag_3\n      jumpi\n      dup1\n      0x0d04d05a\n      eq\n      tag_4\n      jumpi\n      dup1\n      0x1b54ac80\n      eq\n      tag_5\n      jumpi\n      dup1\n      0x2b23461f\n      eq\n      tag_6\n      jumpi\n      dup1\n      0x8da5cb5b\n      eq\n      tag_7\n      jumpi\n      dup1\n      0xec73cab5\n      eq\n      tag_8\n      jumpi\n    tag_2:\n      0x00\n      dup1\n      revert\n        /* \"PetSanctuary.sol\":711:1650  function buy(uint256 personAge,string memory _personGender, AnimalKind _animalKind) public {... */\n    tag_3:\n      tag_9\n      0x04\n      dup1\n      calldatasize\n      sub\n      dup2\n      add\n      swap1\n      tag_10\n      swap2\n      swap1\n      tag_11\n      jump\t// in\n    tag_10:\n      tag_12\n      jump\t// in\n    tag_9:\n      stop\n        /* \"PetSanctuary.sol\":1655:2036  function giveBackAnimal(AnimalKind _animalKind) public {... */\n    tag_4:\n      tag_13\n      0x04\n      dup1\n      calldatasize\n      sub\n      dup2\n      add\n      swap1\n      tag_14\n      swap2\n      swap1\n      tag_15\n      jump\t// in\n    tag_14:\n      tag_16\n      jump\t// in\n    tag_13:\n      stop\n        /* \"PetSanctuary.sol\":576:706  function add(AnimalKind _animalKind, uint256 _howManyPieces) onlyOwner public {... */\n    tag_5:\n      tag_17\n      0x04\n      dup1\n      calldatasize\n      sub\n      dup2\n      add\n      swap1\n      tag_18\n      swap2\n      swap1\n      tag_19\n      jump\t// in\n    tag_18:\n      tag_20\n      jump\t// in\n    tag_17:\n      stop\n        /* \"PetSanctuary.sol\":281:326  mapping(AnimalKind => uint256) public animals */\n    tag_6:\n      tag_21\n      0x04\n      dup1\n      calldatasize\n      sub\n      dup2\n      add\n      swap1\n      tag_22\n      swap2\n      swap1\n      tag_15\n      jump\t// in\n    tag_22:\n      tag_23\n      jump\t// in\n    tag_21:\n      mload(0x40)\n      tag_24\n      swap2\n      swap1\n      tag_25\n      jump\t// in\n    tag_24:\n      mload(0x40)\n      dup1\n      swap2\n      sub\n      swap1\n      return\n        /* \"PetSanctuary.sol\":255:275  address public owner */\n    tag_7:\n      tag_26\n      tag_27\n      jump\t// in\n    tag_26:\n      mload(0x40)\n      tag_28\n      swap2\n      swap1\n      tag_29\n      jump\t// in\n    tag_28:\n      mload(0x40)\n      dup1\n      swap2\n      sub\n      swap1\n      return\n        /* \"PetSanctuary.sol\":220:249  AnimalKind public  animalKind */\n    tag_8:\n      tag_30\n      tag_31\n      jump\t// in\n    tag_30:\n      mload(0x40)\n      tag_32\n      swap2\n      swap1\n      tag_33\n      jump\t// in\n    tag_32:\n      mload(0x40)\n      dup1\n      swap2\n      sub\n      swap1\n      return\n        /* \"PetSanctuary.sol\":711:1650  function buy(uint256 personAge,string memory _personGender, AnimalKind _animalKind) public {... */\n    tag_12:\n        /* \"PetSanctuary.sol\":845:849  true */\n      0x01\n        /* \"PetSanctuary.sol\":820:849  buyStatus[msg.sender] != true */\n      iszero\n      iszero\n        /* \"PetSanctuary.sol\":820:829  buyStatus */\n      0x02\n        /* \"PetSanctuary.sol\":820:841  buyStatus[msg.sender] */\n      0x00\n        /* \"PetSanctuary.sol\":830:840  msg.sender */\n      caller\n        /* \"PetSanctuary.sol\":820:841  buyStatus[msg.sender] */\n      0xffffffffffffffffffffffffffffffffffffffff\n      and\n      0xffffffffffffffffffffffffffffffffffffffff\n      and\n      dup2\n      mstore\n      0x20\n      add\n      swap1\n      dup2\n      mstore\n      0x20\n      add\n      0x00\n      keccak256\n      0x00\n      swap1\n      sload\n      swap1\n      0x0100\n      exp\n      swap1\n      div\n      0xff\n      and\n        /* \"PetSanctuary.sol\":820:849  buyStatus[msg.sender] != true */\n      iszero\n      iszero\n      eq\n      iszero\n        /* \"PetSanctuary.sol\":812:890  require(buyStatus[msg.sender] != true, 'You already have borrowed the animal') */\n      tag_35\n      jumpi\n      mload(0x40)\n      0x08c379a000000000000000000000000000000000000000000000000000000000\n      dup2\n      mstore\n      0x04\n      add\n      tag_36\n      swap1\n      tag_37\n      jump\t// in\n    tag_36:\n      mload(0x40)\n      dup1\n      swap2\n      sub\n      swap1\n      revert\n    tag_35:\n        /* \"PetSanctuary.sol\":948:961  bytes(\"Male\") */\n      mload(0x40)\n      dup1\n      0x40\n      add\n      0x40\n      mstore\n      dup1\n      0x04\n      dup2\n      mstore\n      0x20\n      add\n      0x4d616c6500000000000000000000000000000000000000000000000000000000\n      dup2\n      mstore\n      pop\n        /* \"PetSanctuary.sol\":938:962  keccak256(bytes(\"Male\")) */\n      dup1\n      mload\n      swap1\n      0x20\n      add\n      keccak256\n        /* \"PetSanctuary.sol\":919:932  _personGender */\n      dup3\n        /* \"PetSanctuary.sol\":903:934  keccak256(bytes(_personGender)) */\n      dup1\n      mload\n      swap1\n      0x20\n      add\n      keccak256\n        /* \"PetSanctuary.sol\":903:962  keccak256(bytes(_personGender)) == keccak256(bytes(\"Male\")) */\n      eq\n        /* \"PetSanctuary.sol\":900:1298  if(keccak256(bytes(_personGender)) == keccak256(bytes(\"Male\"))){... */\n      iszero\n      tag_38\n      jumpi\n        /* \"PetSanctuary.sol\":1000:1014  AnimalKind.Dog */\n      0x02\n        /* \"PetSanctuary.sol\":985:1014  _animalKind == AnimalKind.Dog */\n      0x04\n      dup2\n      gt\n      iszero\n      tag_39\n      jumpi\n      tag_40\n      tag_41\n      jump\t// in\n    tag_40:\n    tag_39:\n        /* \"PetSanctuary.sol\":985:996  _animalKind */\n      dup2\n        /* \"PetSanctuary.sol\":985:1014  _animalKind == AnimalKind.Dog */\n      0x04\n      dup2\n      gt\n      iszero\n      tag_42\n      jumpi\n      tag_43\n      tag_41\n      jump\t// in\n    tag_43:\n    tag_42:\n      eq\n        /* \"PetSanctuary.sol\":977:1046  require(_animalKind == AnimalKind.Dog,'You can only buy dog or fish') */\n      tag_44\n      jumpi\n      mload(0x40)\n      0x08c379a000000000000000000000000000000000000000000000000000000000\n      dup2\n      mstore\n      0x04\n      add\n      tag_45\n      swap1\n      tag_46\n      jump\t// in\n    tag_45:\n      mload(0x40)\n      dup1\n      swap2\n      sub\n      swap1\n      revert\n    tag_44:\n        /* \"PetSanctuary.sol\":1083:1098  AnimalKind.Fish */\n      0x00\n        /* \"PetSanctuary.sol\":1068:1098  _animalKind == AnimalKind.Fish */\n      0x04\n      dup2\n      gt\n      iszero\n      tag_47\n      jumpi\n      tag_48\n      tag_41\n      jump\t// in\n    tag_48:\n    tag_47:\n        /* \"PetSanctuary.sol\":1068:1079  _animalKind */\n      dup2\n        /* \"PetSanctuary.sol\":1068:1098  _animalKind == AnimalKind.Fish */\n      0x04\n      dup2\n      gt\n      iszero\n      tag_49\n      jumpi\n      tag_50\n      tag_41\n      jump\t// in\n    tag_50:\n    tag_49:\n      eq\n        /* \"PetSanctuary.sol\":1060:1130  require(_animalKind == AnimalKind.Fish,'You can only buy dog or fish') */\n      tag_51\n      jumpi\n      mload(0x40)\n      0x08c379a000000000000000000000000000000000000000000000000000000000\n      dup2\n      mstore\n      0x04\n      add\n      tag_52\n      swap1\n      tag_46\n      jump\t// in\n    tag_52:\n      mload(0x40)\n      dup1\n      swap2\n      sub\n      swap1\n      revert\n    tag_51:\n        /* \"PetSanctuary.sol\":1163:1210  Person(personAge,_personGender,block.timestamp) */\n      mload(0x40)\n      dup1\n      0x60\n      add\n      0x40\n      mstore\n      dup1\n        /* \"PetSanctuary.sol\":1170:1179  personAge */\n      dup5\n        /* \"PetSanctuary.sol\":1163:1210  Person(personAge,_personGender,block.timestamp) */\n      dup2\n      mstore\n      0x20\n      add\n        /* \"PetSanctuary.sol\":1180:1193  _personGender */\n      dup4\n        /* \"PetSanctuary.sol\":1163:1210  Person(personAge,_personGender,block.timestamp) */\n      dup2\n      mstore\n      0x20\n      add\n        /* \"PetSanctuary.sol\":1194:1209  block.timestamp */\n      timestamp\n        /* \"PetSanctuary.sol\":1163:1210  Person(personAge,_personGender,block.timestamp) */\n      dup2\n      mstore\n      pop\n        /* \"PetSanctuary.sol\":1144:1150  buyers */\n      0x03\n        /* \"PetSanctuary.sol\":1144:1162  buyers[msg.sender] */\n      0x00\n        /* \"PetSanctuary.sol\":1151:1161  msg.sender */\n      caller\n        /* \"PetSanctuary.sol\":1144:1162  buyers[msg.sender] */\n      0xffffffffffffffffffffffffffffffffffffffff\n      and\n      0xffffffffffffffffffffffffffffffffffffffff\n      and\n      dup2\n      mstore\n      0x20\n      add\n      swap1\n      dup2\n      mstore\n      0x20\n      add\n      0x00\n      keccak256\n        /* \"PetSanctuary.sol\":1144:1210  buyers[msg.sender]=Person(personAge,_personGender,block.timestamp) */\n      0x00\n      dup3\n      add\n      mload\n      dup2\n      0x00\n      add\n      sstore\n      0x20\n      dup3\n      add\n      mload\n      dup2\n      0x01\n      add\n      swap1\n      dup1\n      mload\n      swap1\n      0x20\n      add\n      swap1\n      tag_53\n      swap3\n      swap2\n      swap1\n      tag_54\n      jump\t// in\n    tag_53:\n      pop\n      0x40\n      dup3\n      add\n      mload\n      dup2\n      0x02\n      add\n      sstore\n      swap1\n      pop\n      pop\n        /* \"PetSanctuary.sol\":1246:1247  1 */\n      0x01\n        /* \"PetSanctuary.sol\":1224:1231  animals */\n      dup1\n        /* \"PetSanctuary.sol\":1224:1244  animals[_animalKind] */\n      0x00\n        /* \"PetSanctuary.sol\":1232:1243  _animalKind */\n      dup4\n        /* \"PetSanctuary.sol\":1224:1244  animals[_animalKind] */\n      0x04\n      dup2\n      gt\n      iszero\n      tag_55\n      jumpi\n      tag_56\n      tag_41\n      jump\t// in\n    tag_56:\n    tag_55:\n      0x04\n      dup2\n      gt\n      iszero\n      tag_57\n      jumpi\n      tag_58\n      tag_41\n      jump\t// in\n    tag_58:\n    tag_57:\n      dup2\n      mstore\n      0x20\n      add\n      swap1\n      dup2\n      mstore\n      0x20\n      add\n      0x00\n      keccak256\n      0x00\n        /* \"PetSanctuary.sol\":1224:1247  animals[_animalKind]-=1 */\n      dup3\n      dup3\n      sload\n      tag_59\n      swap2\n      swap1\n      tag_60\n      jump\t// in\n    tag_59:\n      swap3\n      pop\n      pop\n      dup2\n      swap1\n      sstore\n      pop\n        /* \"PetSanctuary.sol\":1283:1287  true */\n      0x01\n        /* \"PetSanctuary.sol\":1261:1270  buyStatus */\n      0x02\n        /* \"PetSanctuary.sol\":1261:1282  buyStatus[msg.sender] */\n      0x00\n        /* \"PetSanctuary.sol\":1271:1281  msg.sender */\n      caller\n        /* \"PetSanctuary.sol\":1261:1282  buyStatus[msg.sender] */\n      0xffffffffffffffffffffffffffffffffffffffff\n      and\n      0xffffffffffffffffffffffffffffffffffffffff\n      and\n      dup2\n      mstore\n      0x20\n      add\n      swap1\n      dup2\n      mstore\n      0x20\n      add\n      0x00\n      keccak256\n      0x00\n        /* \"PetSanctuary.sol\":1261:1287  buyStatus[msg.sender]=true */\n      0x0100\n      exp\n      dup2\n      sload\n      dup2\n      0xff\n      mul\n      not\n      and\n      swap1\n      dup4\n      iszero\n      iszero\n      mul\n      or\n      swap1\n      sstore\n      pop\n        /* \"PetSanctuary.sol\":900:1298  if(keccak256(bytes(_personGender)) == keccak256(bytes(\"Male\"))){... */\n    tag_38:\n        /* \"PetSanctuary.sol\":1357:1372  bytes(\"Female\") */\n      mload(0x40)\n      dup1\n      0x40\n      add\n      0x40\n      mstore\n      dup1\n      0x06\n      dup2\n      mstore\n      0x20\n      add\n      0x46656d616c650000000000000000000000000000000000000000000000000000\n      dup2\n      mstore\n      pop\n        /* \"PetSanctuary.sol\":1347:1373  keccak256(bytes(\"Female\")) */\n      dup1\n      mload\n      swap1\n      0x20\n      add\n      keccak256\n        /* \"PetSanctuary.sol\":1328:1341  _personGender */\n      dup3\n        /* \"PetSanctuary.sol\":1312:1343  keccak256(bytes(_personGender)) */\n      dup1\n      mload\n      swap1\n      0x20\n      add\n      keccak256\n        /* \"PetSanctuary.sol\":1312:1373  keccak256(bytes(_personGender)) == keccak256(bytes(\"Female\")) */\n      eq\n        /* \"PetSanctuary.sol\":1309:1644  if(keccak256(bytes(_personGender)) == keccak256(bytes(\"Female\"))){... */\n      iszero\n      tag_61\n      jumpi\n        /* \"PetSanctuary.sol\":1404:1406  40 */\n      0x28\n        /* \"PetSanctuary.sol\":1392:1401  personAge */\n      dup4\n        /* \"PetSanctuary.sol\":1392:1406  personAge < 40 */\n      lt\n        /* \"PetSanctuary.sol\":1389:1513  if(personAge < 40){... */\n      iszero\n      tag_62\n      jumpi\n        /* \"PetSanctuary.sol\":1449:1463  AnimalKind.Cat */\n      0x01\n        /* \"PetSanctuary.sol\":1434:1463  _animalKind != AnimalKind.Cat */\n      0x04\n      dup2\n      gt\n      iszero\n      tag_63\n      jumpi\n      tag_64\n      tag_41\n      jump\t// in\n    tag_64:\n    tag_63:\n        /* \"PetSanctuary.sol\":1434:1445  _animalKind */\n      dup2\n        /* \"PetSanctuary.sol\":1434:1463  _animalKind != AnimalKind.Cat */\n      0x04\n      dup2\n      gt\n      iszero\n      tag_65\n      jumpi\n      tag_66\n      tag_41\n      jump\t// in\n    tag_66:\n    tag_65:\n      eq\n      iszero\n        /* \"PetSanctuary.sol\":1426:1497  require(_animalKind != AnimalKind.Cat,'You are not allowed to buy cat') */\n      tag_67\n      jumpi\n      mload(0x40)\n      0x08c379a000000000000000000000000000000000000000000000000000000000\n      dup2\n      mstore\n      0x04\n      add\n      tag_68\n      swap1\n      tag_69\n      jump\t// in\n    tag_68:\n      mload(0x40)\n      dup1\n      swap2\n      sub\n      swap1\n      revert\n    tag_67:\n        /* \"PetSanctuary.sol\":1389:1513  if(personAge < 40){... */\n    tag_62:\n        /* \"PetSanctuary.sol\":1545:1592  Person(personAge,_personGender,block.timestamp) */\n      mload(0x40)\n      dup1\n      0x60\n      add\n      0x40\n      mstore\n      dup1\n        /* \"PetSanctuary.sol\":1552:1561  personAge */\n      dup5\n        /* \"PetSanctuary.sol\":1545:1592  Person(personAge,_personGender,block.timestamp) */\n      dup2\n      mstore\n      0x20\n      add\n        /* \"PetSanctuary.sol\":1562:1575  _personGender */\n      dup4\n        /* \"PetSanctuary.sol\":1545:1592  Person(personAge,_personGender,block.timestamp) */\n      dup2\n      mstore\n      0x20\n      add\n        /* \"PetSanctuary.sol\":1576:1591  block.timestamp */\n      timestamp\n        /* \"PetSanctuary.sol\":1545:1592  Person(personAge,_personGender,block.timestamp) */\n      dup2\n      mstore\n      pop\n        /* \"PetSanctuary.sol\":1526:1532  buyers */\n      0x03\n        /* \"PetSanctuary.sol\":1526:1544  buyers[msg.sender] */\n      0x00\n        /* \"PetSanctuary.sol\":1533:1543  msg.sender */\n      caller\n        /* \"PetSanctuary.sol\":1526:1544  buyers[msg.sender] */\n      0xffffffffffffffffffffffffffffffffffffffff\n      and\n      0xffffffffffffffffffffffffffffffffffffffff\n      and\n      dup2\n      mstore\n      0x20\n      add\n      swap1\n      dup2\n      mstore\n      0x20\n      add\n      0x00\n      keccak256\n        /* \"PetSanctuary.sol\":1526:1592  buyers[msg.sender]=Person(personAge,_personGender,block.timestamp) */\n      0x00\n      dup3\n      add\n      mload\n      dup2\n      0x00\n      add\n      sstore\n      0x20\n      dup3\n      add\n      mload\n      dup2\n      0x01\n      add\n      swap1\n      dup1\n      mload\n      swap1\n      0x20\n      add\n      swap1\n      tag_70\n      swap3\n      swap2\n      swap1\n      tag_54\n      jump\t// in\n    tag_70:\n      pop\n      0x40\n      dup3\n      add\n      mload\n      dup2\n      0x02\n      add\n      sstore\n      swap1\n      pop\n      pop\n        /* \"PetSanctuary.sol\":1628:1632  true */\n      0x01\n        /* \"PetSanctuary.sol\":1606:1615  buyStatus */\n      0x02\n        /* \"PetSanctuary.sol\":1606:1627  buyStatus[msg.sender] */\n      0x00\n        /* \"PetSanctuary.sol\":1616:1626  msg.sender */\n      caller\n        /* \"PetSanctuary.sol\":1606:1627  buyStatus[msg.sender] */\n      0xffffffffffffffffffffffffffffffffffffffff\n      and\n      0xffffffffffffffffffffffffffffffffffffffff\n      and\n      dup2\n      mstore\n      0x20\n      add\n      swap1\n      dup2\n      mstore\n      0x20\n      add\n      0x00\n      keccak256\n      0x00\n        /* \"PetSanctuary.sol\":1606:1632  buyStatus[msg.sender]=true */\n      0x0100\n      exp\n      dup2\n      sload\n      dup2\n      0xff\n      mul\n      not\n      and\n      swap1\n      dup4\n      iszero\n      iszero\n      mul\n      or\n      swap1\n      sstore\n      pop\n        /* \"PetSanctuary.sol\":1309:1644  if(keccak256(bytes(_personGender)) == keccak256(bytes(\"Female\"))){... */\n    tag_61:\n        /* \"PetSanctuary.sol\":711:1650  function buy(uint256 personAge,string memory _personGender, AnimalKind _animalKind) public {... */\n      pop\n      pop\n      pop\n      jump\t// out\n        /* \"PetSanctuary.sol\":1655:2036  function giveBackAnimal(AnimalKind _animalKind) public {... */\n    tag_16:\n        /* \"PetSanctuary.sol\":1753:1757  true */\n      0x01\n        /* \"PetSanctuary.sol\":1728:1757  buyStatus[msg.sender] == true */\n      iszero\n      iszero\n        /* \"PetSanctuary.sol\":1728:1737  buyStatus */\n      0x02\n        /* \"PetSanctuary.sol\":1728:1749  buyStatus[msg.sender] */\n      0x00\n        /* \"PetSanctuary.sol\":1738:1748  msg.sender */\n      caller\n        /* \"PetSanctuary.sol\":1728:1749  buyStatus[msg.sender] */\n      0xffffffffffffffffffffffffffffffffffffffff\n      and\n      0xffffffffffffffffffffffffffffffffffffffff\n      and\n      dup2\n      mstore\n      0x20\n      add\n      swap1\n      dup2\n      mstore\n      0x20\n      add\n      0x00\n      keccak256\n      0x00\n      swap1\n      sload\n      swap1\n      0x0100\n      exp\n      swap1\n      div\n      0xff\n      and\n        /* \"PetSanctuary.sol\":1728:1757  buyStatus[msg.sender] == true */\n      iszero\n      iszero\n      eq\n        /* \"PetSanctuary.sol\":1720:1792  require(buyStatus[msg.sender] == true,\"You haven't lend the animal yet\") */\n      tag_72\n      jumpi\n      mload(0x40)\n      0x08c379a000000000000000000000000000000000000000000000000000000000\n      dup2\n      mstore\n      0x04\n      add\n      tag_73\n      swap1\n      tag_74\n      jump\t// in\n    tag_73:\n      mload(0x40)\n      dup1\n      swap2\n      sub\n      swap1\n      revert\n    tag_72:\n        /* \"PetSanctuary.sol\":1844:1859  block.timestamp */\n      timestamp\n        /* \"PetSanctuary.sol\":1838:1841  300 */\n      0x012c\n        /* \"PetSanctuary.sol\":1810:1816  buyers */\n      0x03\n        /* \"PetSanctuary.sol\":1810:1828  buyers[msg.sender] */\n      0x00\n        /* \"PetSanctuary.sol\":1817:1827  msg.sender */\n      caller\n        /* \"PetSanctuary.sol\":1810:1828  buyers[msg.sender] */\n      0xffffffffffffffffffffffffffffffffffffffff\n      and\n      0xffffffffffffffffffffffffffffffffffffffff\n      and\n      dup2\n      mstore\n      0x20\n      add\n      swap1\n      dup2\n      mstore\n      0x20\n      add\n      0x00\n      keccak256\n        /* \"PetSanctuary.sol\":1810:1837  buyers[msg.sender].lendTime */\n      0x02\n      add\n      sload\n        /* \"PetSanctuary.sol\":1810:1841  buyers[msg.sender].lendTime+300 */\n      tag_75\n      swap2\n      swap1\n      tag_76\n      jump\t// in\n    tag_75:\n        /* \"PetSanctuary.sol\":1810:1859  buyers[msg.sender].lendTime+300 < block.timestamp */\n      lt\n        /* \"PetSanctuary.sol\":1802:1894  require(buyers[msg.sender].lendTime+300 < block.timestamp, \"It is more than 5 minutes now \") */\n      tag_77\n      jumpi\n      mload(0x40)\n      0x08c379a000000000000000000000000000000000000000000000000000000000\n      dup2\n      mstore\n      0x04\n      add\n      tag_78\n      swap1\n      tag_79\n      jump\t// in\n    tag_78:\n      mload(0x40)\n      dup1\n      swap2\n      sub\n      swap1\n      revert\n    tag_77:\n        /* \"PetSanctuary.sol\":1926:1931  false */\n      0x00\n        /* \"PetSanctuary.sol\":1904:1913  buyStatus */\n      0x02\n        /* \"PetSanctuary.sol\":1904:1925  buyStatus[msg.sender] */\n      0x00\n        /* \"PetSanctuary.sol\":1914:1924  msg.sender */\n      caller\n        /* \"PetSanctuary.sol\":1904:1925  buyStatus[msg.sender] */\n      0xffffffffffffffffffffffffffffffffffffffff\n      and\n      0xffffffffffffffffffffffffffffffffffffffff\n      and\n      dup2\n      mstore\n      0x20\n      add\n      swap1\n      dup2\n      mstore\n      0x20\n      add\n      0x00\n      keccak256\n      0x00\n        /* \"PetSanctuary.sol\":1904:1931  buyStatus[msg.sender]=false */\n      0x0100\n      exp\n      dup2\n      sload\n      dup2\n      0xff\n      mul\n      not\n      and\n      swap1\n      dup4\n      iszero\n      iszero\n      mul\n      or\n      swap1\n      sstore\n      pop\n        /* \"PetSanctuary.sol\":1963:1964  1 */\n      0x01\n        /* \"PetSanctuary.sol\":1941:1948  animals */\n      dup1\n        /* \"PetSanctuary.sol\":1941:1961  animals[_animalKind] */\n      0x00\n        /* \"PetSanctuary.sol\":1949:1960  _animalKind */\n      dup4\n        /* \"PetSanctuary.sol\":1941:1961  animals[_animalKind] */\n      0x04\n      dup2\n      gt\n      iszero\n      tag_80\n      jumpi\n      tag_81\n      tag_41\n      jump\t// in\n    tag_81:\n    tag_80:\n      0x04\n      dup2\n      gt\n      iszero\n      tag_82\n      jumpi\n      tag_83\n      tag_41\n      jump\t// in\n    tag_83:\n    tag_82:\n      dup2\n      mstore\n      0x20\n      add\n      swap1\n      dup2\n      mstore\n      0x20\n      add\n      0x00\n      keccak256\n      0x00\n        /* \"PetSanctuary.sol\":1941:1964  animals[_animalKind]+=1 */\n      dup3\n      dup3\n      sload\n      tag_84\n      swap2\n      swap1\n      tag_76\n      jump\t// in\n    tag_84:\n      swap3\n      pop\n      pop\n      dup2\n      swap1\n      sstore\n      pop\n        /* \"PetSanctuary.sol\":1974:1994  Person memory person */\n      tag_85\n      tag_86\n      jump\t// in\n    tag_85:\n        /* \"PetSanctuary.sol\":2023:2029  person */\n      dup1\n        /* \"PetSanctuary.sol\":2004:2010  buyers */\n      0x03\n        /* \"PetSanctuary.sol\":2004:2022  buyers[msg.sender] */\n      0x00\n        /* \"PetSanctuary.sol\":2011:2021  msg.sender */\n      caller\n        /* \"PetSanctuary.sol\":2004:2022  buyers[msg.sender] */\n      0xffffffffffffffffffffffffffffffffffffffff\n      and\n      0xffffffffffffffffffffffffffffffffffffffff\n      and\n      dup2\n      mstore\n      0x20\n      add\n      swap1\n      dup2\n      mstore\n      0x20\n      add\n      0x00\n      keccak256\n        /* \"PetSanctuary.sol\":2004:2029  buyers[msg.sender]=person */\n      0x00\n      dup3\n      add\n      mload\n      dup2\n      0x00\n      add\n      sstore\n      0x20\n      dup3\n      add\n      mload\n      dup2\n      0x01\n      add\n      swap1\n      dup1\n      mload\n      swap1\n      0x20\n      add\n      swap1\n      tag_87\n      swap3\n      swap2\n      swap1\n      tag_54\n      jump\t// in\n    tag_87:\n      pop\n      0x40\n      dup3\n      add\n      mload\n      dup2\n      0x02\n      add\n      sstore\n      swap1\n      pop\n      pop\n        /* \"PetSanctuary.sol\":1710:2036  {... */\n      pop\n        /* \"PetSanctuary.sol\":1655:2036  function giveBackAnimal(AnimalKind _animalKind) public {... */\n      pop\n      jump\t// out\n        /* \"PetSanctuary.sol\":576:706  function add(AnimalKind _animalKind, uint256 _howManyPieces) onlyOwner public {... */\n    tag_20:\n        /* \"PetSanctuary.sol\":515:520  owner */\n      0x00\n      0x01\n      swap1\n      sload\n      swap1\n      0x0100\n      exp\n      swap1\n      div\n      0xffffffffffffffffffffffffffffffffffffffff\n      and\n        /* \"PetSanctuary.sol\":501:520  msg.sender == owner */\n      0xffffffffffffffffffffffffffffffffffffffff\n      and\n        /* \"PetSanctuary.sol\":501:511  msg.sender */\n      caller\n        /* \"PetSanctuary.sol\":501:520  msg.sender == owner */\n      0xffffffffffffffffffffffffffffffffffffffff\n      and\n      eq\n        /* \"PetSanctuary.sol\":493:553  require(msg.sender == owner, 'Only owner can give shelter ') */\n      tag_89\n      jumpi\n      mload(0x40)\n      0x08c379a000000000000000000000000000000000000000000000000000000000\n      dup2\n      mstore\n      0x04\n      add\n      tag_90\n      swap1\n      tag_91\n      jump\t// in\n    tag_90:\n      mload(0x40)\n      dup1\n      swap2\n      sub\n      swap1\n      revert\n    tag_89:\n        /* \"PetSanctuary.sol\":685:699  _howManyPieces */\n      dup1\n        /* \"PetSanctuary.sol\":664:671  animals */\n      0x01\n        /* \"PetSanctuary.sol\":664:684  animals[_animalKind] */\n      0x00\n        /* \"PetSanctuary.sol\":672:683  _animalKind */\n      dup5\n        /* \"PetSanctuary.sol\":664:684  animals[_animalKind] */\n      0x04\n      dup2\n      gt\n      iszero\n      tag_93\n      jumpi\n      tag_94\n      tag_41\n      jump\t// in\n    tag_94:\n    tag_93:\n      0x04\n      dup2\n      gt\n      iszero\n      tag_95\n      jumpi\n      tag_96\n      tag_41\n      jump\t// in\n    tag_96:\n    tag_95:\n      dup2\n      mstore\n      0x20\n      add\n      swap1\n      dup2\n      mstore\n      0x20\n      add\n      0x00\n      keccak256\n        /* \"PetSanctuary.sol\":664:699  animals[_animalKind]=_howManyPieces */\n      dup2\n      swap1\n      sstore\n      pop\n        /* \"PetSanctuary.sol\":576:706  function add(AnimalKind _animalKind, uint256 _howManyPieces) onlyOwner public {... */\n      pop\n      pop\n      jump\t// out\n        /* \"PetSanctuary.sol\":281:326  mapping(AnimalKind => uint256) public animals */\n    tag_23:\n      mstore(0x20, 0x01)\n      dup1\n      0x00\n      mstore\n      keccak256(0x00, 0x40)\n      0x00\n      swap2\n      pop\n      swap1\n      pop\n      sload\n      dup2\n      jump\t// out\n        /* \"PetSanctuary.sol\":255:275  address public owner */\n    tag_27:\n      0x00\n      0x01\n      swap1\n      sload\n      swap1\n      0x0100\n      exp\n      swap1\n      div\n      0xffffffffffffffffffffffffffffffffffffffff\n      and\n      dup2\n      jump\t// out\n        /* \"PetSanctuary.sol\":220:249  AnimalKind public  animalKind */\n    tag_31:\n      0x00\n      dup1\n      sload\n      swap1\n      0x0100\n      exp\n      swap1\n      div\n      0xff\n      and\n      dup2\n      jump\t// out\n    tag_54:\n      dup3\n      dup1\n      sload\n      tag_97\n      swap1\n      tag_98\n      jump\t// in\n    tag_97:\n      swap1\n      0x00\n      mstore\n      keccak256(0x00, 0x20)\n      swap1\n      0x1f\n      add\n      0x20\n      swap1\n      div\n      dup2\n      add\n      swap3\n      dup3\n      tag_100\n      jumpi\n      0x00\n      dup6\n      sstore\n      jump(tag_99)\n    tag_100:\n      dup3\n      0x1f\n      lt\n      tag_101\n      jumpi\n      dup1\n      mload\n      not(0xff)\n      and\n      dup4\n      dup1\n      add\n      or\n      dup6\n      sstore\n      jump(tag_99)\n    tag_101:\n      dup3\n      dup1\n      add\n      0x01\n      add\n      dup6\n      sstore\n      dup3\n      iszero\n      tag_99\n      jumpi\n      swap2\n      dup3\n      add\n    tag_102:\n      dup3\n      dup2\n      gt\n      iszero\n      tag_103\n      jumpi\n      dup3\n      mload\n      dup3\n      sstore\n      swap2\n      0x20\n      add\n      swap2\n      swap1\n      0x01\n      add\n      swap1\n      jump(tag_102)\n    tag_103:\n    tag_99:\n      pop\n      swap1\n      pop\n      tag_104\n      swap2\n      swap1\n      tag_105\n      jump\t// in\n    tag_104:\n      pop\n      swap1\n      jump\t// out\n    tag_86:\n      mload(0x40)\n      dup1\n      0x60\n      add\n      0x40\n      mstore\n      dup1\n      0x00\n      dup2\n      mstore\n      0x20\n      add\n      0x60\n      dup2\n      mstore\n      0x20\n      add\n      0x00\n      dup2\n      mstore\n      pop\n      swap1\n      jump\t// out\n    tag_105:\n    tag_106:\n      dup1\n      dup3\n      gt\n      iszero\n      tag_107\n      jumpi\n      0x00\n      dup2\n      0x00\n      swap1\n      sstore\n      pop\n      0x01\n      add\n      jump(tag_106)\n    tag_107:\n      pop\n      swap1\n      jump\t// out\n        /* \"#utility.yul\":7:82   */\n    tag_108:\n        /* \"#utility.yul\":40:46   */\n      0x00\n        /* \"#utility.yul\":73:75   */\n      0x40\n        /* \"#utility.yul\":67:76   */\n      mload\n        /* \"#utility.yul\":57:76   */\n      swap1\n      pop\n        /* \"#utility.yul\":7:82   */\n      swap1\n      jump\t// out\n        /* \"#utility.yul\":88:205   */\n    tag_109:\n        /* \"#utility.yul\":197:198   */\n      0x00\n        /* \"#utility.yul\":194:195   */\n      dup1\n        /* \"#utility.yul\":187:199   */\n      revert\n        /* \"#utility.yul\":211:328   */\n    tag_110:\n        /* \"#utility.yul\":320:321   */\n      0x00\n        /* \"#utility.yul\":317:318   */\n      dup1\n        /* \"#utility.yul\":310:322   */\n      revert\n        /* \"#utility.yul\":334:411   */\n    tag_111:\n        /* \"#utility.yul\":371:378   */\n      0x00\n        /* \"#utility.yul\":400:405   */\n      dup2\n        /* \"#utility.yul\":389:405   */\n      swap1\n      pop\n        /* \"#utility.yul\":334:411   */\n      swap2\n      swap1\n      pop\n      jump\t// out\n        /* \"#utility.yul\":417:539   */\n    tag_112:\n        /* \"#utility.yul\":490:514   */\n      tag_155\n        /* \"#utility.yul\":508:513   */\n      dup2\n        /* \"#utility.yul\":490:514   */\n      tag_111\n      jump\t// in\n    tag_155:\n        /* \"#utility.yul\":483:488   */\n      dup2\n        /* \"#utility.yul\":480:515   */\n      eq\n        /* \"#utility.yul\":470:533   */\n      tag_156\n      jumpi\n        /* \"#utility.yul\":529:530   */\n      0x00\n        /* \"#utility.yul\":526:527   */\n      dup1\n        /* \"#utility.yul\":519:531   */\n      revert\n        /* \"#utility.yul\":470:533   */\n    tag_156:\n        /* \"#utility.yul\":417:539   */\n      pop\n      jump\t// out\n        /* \"#utility.yul\":545:684   */\n    tag_113:\n        /* \"#utility.yul\":591:596   */\n      0x00\n        /* \"#utility.yul\":629:635   */\n      dup2\n        /* \"#utility.yul\":616:636   */\n      calldataload\n        /* \"#utility.yul\":607:636   */\n      swap1\n      pop\n        /* \"#utility.yul\":645:678   */\n      tag_158\n        /* \"#utility.yul\":672:677   */\n      dup2\n        /* \"#utility.yul\":645:678   */\n      tag_112\n      jump\t// in\n    tag_158:\n        /* \"#utility.yul\":545:684   */\n      swap3\n      swap2\n      pop\n      pop\n      jump\t// out\n        /* \"#utility.yul\":690:807   */\n    tag_114:\n        /* \"#utility.yul\":799:800   */\n      0x00\n        /* \"#utility.yul\":796:797   */\n      dup1\n        /* \"#utility.yul\":789:801   */\n      revert\n        /* \"#utility.yul\":813:930   */\n    tag_115:\n        /* \"#utility.yul\":922:923   */\n      0x00\n        /* \"#utility.yul\":919:920   */\n      dup1\n        /* \"#utility.yul\":912:924   */\n      revert\n        /* \"#utility.yul\":936:1038   */\n    tag_116:\n        /* \"#utility.yul\":977:983   */\n      0x00\n        /* \"#utility.yul\":1028:1030   */\n      0x1f\n        /* \"#utility.yul\":1024:1031   */\n      not\n        /* \"#utility.yul\":1019:1021   */\n      0x1f\n        /* \"#utility.yul\":1012:1017   */\n      dup4\n        /* \"#utility.yul\":1008:1022   */\n      add\n        /* \"#utility.yul\":1004:1032   */\n      and\n        /* \"#utility.yul\":994:1032   */\n      swap1\n      pop\n        /* \"#utility.yul\":936:1038   */\n      swap2\n      swap1\n      pop\n      jump\t// out\n        /* \"#utility.yul\":1044:1224   */\n    tag_117:\n        /* \"#utility.yul\":1092:1169   */\n      0x4e487b7100000000000000000000000000000000000000000000000000000000\n        /* \"#utility.yul\":1089:1090   */\n      0x00\n        /* \"#utility.yul\":1082:1170   */\n      mstore\n        /* \"#utility.yul\":1189:1193   */\n      0x41\n        /* \"#utility.yul\":1186:1187   */\n      0x04\n        /* \"#utility.yul\":1179:1194   */\n      mstore\n        /* \"#utility.yul\":1213:1217   */\n      0x24\n        /* \"#utility.yul\":1210:1211   */\n      0x00\n        /* \"#utility.yul\":1203:1218   */\n      revert\n        /* \"#utility.yul\":1230:1511   */\n    tag_118:\n        /* \"#utility.yul\":1313:1340   */\n      tag_164\n        /* \"#utility.yul\":1335:1339   */\n      dup3\n        /* \"#utility.yul\":1313:1340   */\n      tag_116\n      jump\t// in\n    tag_164:\n        /* \"#utility.yul\":1305:1311   */\n      dup2\n        /* \"#utility.yul\":1301:1341   */\n      add\n        /* \"#utility.yul\":1443:1449   */\n      dup2\n        /* \"#utility.yul\":1431:1441   */\n      dup2\n        /* \"#utility.yul\":1428:1450   */\n      lt\n        /* \"#utility.yul\":1407:1425   */\n      0xffffffffffffffff\n        /* \"#utility.yul\":1395:1405   */\n      dup3\n        /* \"#utility.yul\":1392:1426   */\n      gt\n        /* \"#utility.yul\":1389:1451   */\n      or\n        /* \"#utility.yul\":1386:1474   */\n      iszero\n      tag_165\n      jumpi\n        /* \"#utility.yul\":1454:1472   */\n      tag_166\n      tag_117\n      jump\t// in\n    tag_166:\n        /* \"#utility.yul\":1386:1474   */\n    tag_165:\n        /* \"#utility.yul\":1494:1504   */\n      dup1\n        /* \"#utility.yul\":1490:1492   */\n      0x40\n        /* \"#utility.yul\":1483:1505   */\n      mstore\n        /* \"#utility.yul\":1273:1511   */\n      pop\n        /* \"#utility.yul\":1230:1511   */\n      pop\n      pop\n      jump\t// out\n        /* \"#utility.yul\":1517:1646   */\n    tag_119:\n        /* \"#utility.yul\":1551:1557   */\n      0x00\n        /* \"#utility.yul\":1578:1598   */\n      tag_168\n      tag_108\n      jump\t// in\n    tag_168:\n        /* \"#utility.yul\":1568:1598   */\n      swap1\n      pop\n        /* \"#utility.yul\":1607:1640   */\n      tag_169\n        /* \"#utility.yul\":1635:1639   */\n      dup3\n        /* \"#utility.yul\":1627:1633   */\n      dup3\n        /* \"#utility.yul\":1607:1640   */\n      tag_118\n      jump\t// in\n    tag_169:\n        /* \"#utility.yul\":1517:1646   */\n      swap2\n      swap1\n      pop\n      jump\t// out\n        /* \"#utility.yul\":1652:1960   */\n    tag_120:\n        /* \"#utility.yul\":1714:1718   */\n      0x00\n        /* \"#utility.yul\":1804:1822   */\n      0xffffffffffffffff\n        /* \"#utility.yul\":1796:1802   */\n      dup3\n        /* \"#utility.yul\":1793:1823   */\n      gt\n        /* \"#utility.yul\":1790:1846   */\n      iszero\n      tag_171\n      jumpi\n        /* \"#utility.yul\":1826:1844   */\n      tag_172\n      tag_117\n      jump\t// in\n    tag_172:\n        /* \"#utility.yul\":1790:1846   */\n    tag_171:\n        /* \"#utility.yul\":1864:1893   */\n      tag_173\n        /* \"#utility.yul\":1886:1892   */\n      dup3\n        /* \"#utility.yul\":1864:1893   */\n      tag_116\n      jump\t// in\n    tag_173:\n        /* \"#utility.yul\":1856:1893   */\n      swap1\n      pop\n        /* \"#utility.yul\":1948:1952   */\n      0x20\n        /* \"#utility.yul\":1942:1946   */\n      dup2\n        /* \"#utility.yul\":1938:1953   */\n      add\n        /* \"#utility.yul\":1930:1953   */\n      swap1\n      pop\n        /* \"#utility.yul\":1652:1960   */\n      swap2\n      swap1\n      pop\n      jump\t// out\n        /* \"#utility.yul\":1966:2120   */\n    tag_121:\n        /* \"#utility.yul\":2050:2056   */\n      dup3\n        /* \"#utility.yul\":2045:2048   */\n      dup2\n        /* \"#utility.yul\":2040:2043   */\n      dup4\n        /* \"#utility.yul\":2027:2057   */\n      calldatacopy\n        /* \"#utility.yul\":2112:2113   */\n      0x00\n        /* \"#utility.yul\":2103:2109   */\n      dup4\n        /* \"#utility.yul\":2098:2101   */\n      dup4\n        /* \"#utility.yul\":2094:2110   */\n      add\n        /* \"#utility.yul\":2087:2114   */\n      mstore\n        /* \"#utility.yul\":1966:2120   */\n      pop\n      pop\n      pop\n      jump\t// out\n        /* \"#utility.yul\":2126:2538   */\n    tag_122:\n        /* \"#utility.yul\":2204:2209   */\n      0x00\n        /* \"#utility.yul\":2229:2295   */\n      tag_176\n        /* \"#utility.yul\":2245:2294   */\n      tag_177\n        /* \"#utility.yul\":2287:2293   */\n      dup5\n        /* \"#utility.yul\":2245:2294   */\n      tag_120\n      jump\t// in\n    tag_177:\n        /* \"#utility.yul\":2229:2295   */\n      tag_119\n      jump\t// in\n    tag_176:\n        /* \"#utility.yul\":2220:2295   */\n      swap1\n      pop\n        /* \"#utility.yul\":2318:2324   */\n      dup3\n        /* \"#utility.yul\":2311:2316   */\n      dup2\n        /* \"#utility.yul\":2304:2325   */\n      mstore\n        /* \"#utility.yul\":2356:2360   */\n      0x20\n        /* \"#utility.yul\":2349:2354   */\n      dup2\n        /* \"#utility.yul\":2345:2361   */\n      add\n        /* \"#utility.yul\":2394:2397   */\n      dup5\n        /* \"#utility.yul\":2385:2391   */\n      dup5\n        /* \"#utility.yul\":2380:2383   */\n      dup5\n        /* \"#utility.yul\":2376:2392   */\n      add\n        /* \"#utility.yul\":2373:2398   */\n      gt\n        /* \"#utility.yul\":2370:2482   */\n      iszero\n      tag_178\n      jumpi\n        /* \"#utility.yul\":2401:2480   */\n      tag_179\n      tag_115\n      jump\t// in\n    tag_179:\n        /* \"#utility.yul\":2370:2482   */\n    tag_178:\n        /* \"#utility.yul\":2491:2532   */\n      tag_180\n        /* \"#utility.yul\":2525:2531   */\n      dup5\n        /* \"#utility.yul\":2520:2523   */\n      dup3\n        /* \"#utility.yul\":2515:2518   */\n      dup6\n        /* \"#utility.yul\":2491:2532   */\n      tag_121\n      jump\t// in\n    tag_180:\n        /* \"#utility.yul\":2210:2538   */\n      pop\n        /* \"#utility.yul\":2126:2538   */\n      swap4\n      swap3\n      pop\n      pop\n      pop\n      jump\t// out\n        /* \"#utility.yul\":2558:2898   */\n    tag_123:\n        /* \"#utility.yul\":2614:2619   */\n      0x00\n        /* \"#utility.yul\":2663:2666   */\n      dup3\n        /* \"#utility.yul\":2656:2660   */\n      0x1f\n        /* \"#utility.yul\":2648:2654   */\n      dup4\n        /* \"#utility.yul\":2644:2661   */\n      add\n        /* \"#utility.yul\":2640:2667   */\n      slt\n        /* \"#utility.yul\":2630:2752   */\n      tag_182\n      jumpi\n        /* \"#utility.yul\":2671:2750   */\n      tag_183\n      tag_114\n      jump\t// in\n    tag_183:\n        /* \"#utility.yul\":2630:2752   */\n    tag_182:\n        /* \"#utility.yul\":2788:2794   */\n      dup2\n        /* \"#utility.yul\":2775:2795   */\n      calldataload\n        /* \"#utility.yul\":2813:2892   */\n      tag_184\n        /* \"#utility.yul\":2888:2891   */\n      dup5\n        /* \"#utility.yul\":2880:2886   */\n      dup3\n        /* \"#utility.yul\":2873:2877   */\n      0x20\n        /* \"#utility.yul\":2865:2871   */\n      dup7\n        /* \"#utility.yul\":2861:2878   */\n      add\n        /* \"#utility.yul\":2813:2892   */\n      tag_122\n      jump\t// in\n    tag_184:\n        /* \"#utility.yul\":2804:2892   */\n      swap2\n      pop\n        /* \"#utility.yul\":2620:2898   */\n      pop\n        /* \"#utility.yul\":2558:2898   */\n      swap3\n      swap2\n      pop\n      pop\n      jump\t// out\n        /* \"#utility.yul\":2904:3016   */\n    tag_124:\n        /* \"#utility.yul\":2990:2991   */\n      0x05\n        /* \"#utility.yul\":2983:2988   */\n      dup2\n        /* \"#utility.yul\":2980:2992   */\n      lt\n        /* \"#utility.yul\":2970:3010   */\n      tag_186\n      jumpi\n        /* \"#utility.yul\":3006:3007   */\n      0x00\n        /* \"#utility.yul\":3003:3004   */\n      dup1\n        /* \"#utility.yul\":2996:3008   */\n      revert\n        /* \"#utility.yul\":2970:3010   */\n    tag_186:\n        /* \"#utility.yul\":2904:3016   */\n      pop\n      jump\t// out\n        /* \"#utility.yul\":3022:3187   */\n    tag_125:\n        /* \"#utility.yul\":3081:3086   */\n      0x00\n        /* \"#utility.yul\":3119:3125   */\n      dup2\n        /* \"#utility.yul\":3106:3126   */\n      calldataload\n        /* \"#utility.yul\":3097:3126   */\n      swap1\n      pop\n        /* \"#utility.yul\":3135:3181   */\n      tag_188\n        /* \"#utility.yul\":3175:3180   */\n      dup2\n        /* \"#utility.yul\":3135:3181   */\n      tag_124\n      jump\t// in\n    tag_188:\n        /* \"#utility.yul\":3022:3187   */\n      swap3\n      swap2\n      pop\n      pop\n      jump\t// out\n        /* \"#utility.yul\":3193:4018   */\n    tag_11:\n        /* \"#utility.yul\":3293:3299   */\n      0x00\n        /* \"#utility.yul\":3301:3307   */\n      dup1\n        /* \"#utility.yul\":3309:3315   */\n      0x00\n        /* \"#utility.yul\":3358:3360   */\n      0x60\n        /* \"#utility.yul\":3346:3355   */\n      dup5\n        /* \"#utility.yul\":3337:3344   */\n      dup7\n        /* \"#utility.yul\":3333:3356   */\n      sub\n        /* \"#utility.yul\":3329:3361   */\n      slt\n        /* \"#utility.yul\":3326:3445   */\n      iszero\n      tag_190\n      jumpi\n        /* \"#utility.yul\":3364:3443   */\n      tag_191\n      tag_109\n      jump\t// in\n    tag_191:\n        /* \"#utility.yul\":3326:3445   */\n    tag_190:\n        /* \"#utility.yul\":3484:3485   */\n      0x00\n        /* \"#utility.yul\":3509:3562   */\n      tag_192\n        /* \"#utility.yul\":3554:3561   */\n      dup7\n        /* \"#utility.yul\":3545:3551   */\n      dup3\n        /* \"#utility.yul\":3534:3543   */\n      dup8\n        /* \"#utility.yul\":3530:3552   */\n      add\n        /* \"#utility.yul\":3509:3562   */\n      tag_113\n      jump\t// in\n    tag_192:\n        /* \"#utility.yul\":3499:3562   */\n      swap4\n      pop\n        /* \"#utility.yul\":3455:3572   */\n      pop\n        /* \"#utility.yul\":3639:3641   */\n      0x20\n        /* \"#utility.yul\":3628:3637   */\n      dup5\n        /* \"#utility.yul\":3624:3642   */\n      add\n        /* \"#utility.yul\":3611:3643   */\n      calldataload\n        /* \"#utility.yul\":3670:3688   */\n      0xffffffffffffffff\n        /* \"#utility.yul\":3662:3668   */\n      dup2\n        /* \"#utility.yul\":3659:3689   */\n      gt\n        /* \"#utility.yul\":3656:3773   */\n      iszero\n      tag_193\n      jumpi\n        /* \"#utility.yul\":3692:3771   */\n      tag_194\n      tag_110\n      jump\t// in\n    tag_194:\n        /* \"#utility.yul\":3656:3773   */\n    tag_193:\n        /* \"#utility.yul\":3797:3860   */\n      tag_195\n        /* \"#utility.yul\":3852:3859   */\n      dup7\n        /* \"#utility.yul\":3843:3849   */\n      dup3\n        /* \"#utility.yul\":3832:3841   */\n      dup8\n        /* \"#utility.yul\":3828:3850   */\n      add\n        /* \"#utility.yul\":3797:3860   */\n      tag_123\n      jump\t// in\n    tag_195:\n        /* \"#utility.yul\":3787:3860   */\n      swap3\n      pop\n        /* \"#utility.yul\":3582:3870   */\n      pop\n        /* \"#utility.yul\":3909:3911   */\n      0x40\n        /* \"#utility.yul\":3935:4001   */\n      tag_196\n        /* \"#utility.yul\":3993:4000   */\n      dup7\n        /* \"#utility.yul\":3984:3990   */\n      dup3\n        /* \"#utility.yul\":3973:3982   */\n      dup8\n        /* \"#utility.yul\":3969:3991   */\n      add\n        /* \"#utility.yul\":3935:4001   */\n      tag_125\n      jump\t// in\n    tag_196:\n        /* \"#utility.yul\":3925:4001   */\n      swap2\n      pop\n        /* \"#utility.yul\":3880:4011   */\n      pop\n        /* \"#utility.yul\":3193:4018   */\n      swap3\n      pop\n      swap3\n      pop\n      swap3\n      jump\t// out\n        /* \"#utility.yul\":4024:4379   */\n    tag_15:\n        /* \"#utility.yul\":4096:4102   */\n      0x00\n        /* \"#utility.yul\":4145:4147   */\n      0x20\n        /* \"#utility.yul\":4133:4142   */\n      dup3\n        /* \"#utility.yul\":4124:4131   */\n      dup5\n        /* \"#utility.yul\":4120:4143   */\n      sub\n        /* \"#utility.yul\":4116:4148   */\n      slt\n        /* \"#utility.yul\":4113:4232   */\n      iszero\n      tag_198\n      jumpi\n        /* \"#utility.yul\":4151:4230   */\n      tag_199\n      tag_109\n      jump\t// in\n    tag_199:\n        /* \"#utility.yul\":4113:4232   */\n    tag_198:\n        /* \"#utility.yul\":4271:4272   */\n      0x00\n        /* \"#utility.yul\":4296:4362   */\n      tag_200\n        /* \"#utility.yul\":4354:4361   */\n      dup5\n        /* \"#utility.yul\":4345:4351   */\n      dup3\n        /* \"#utility.yul\":4334:4343   */\n      dup6\n        /* \"#utility.yul\":4330:4352   */\n      add\n        /* \"#utility.yul\":4296:4362   */\n      tag_125\n      jump\t// in\n    tag_200:\n        /* \"#utility.yul\":4286:4362   */\n      swap2\n      pop\n        /* \"#utility.yul\":4242:4372   */\n      pop\n        /* \"#utility.yul\":4024:4379   */\n      swap3\n      swap2\n      pop\n      pop\n      jump\t// out\n        /* \"#utility.yul\":4385:4885   */\n    tag_19:\n        /* \"#utility.yul\":4466:4472   */\n      0x00\n        /* \"#utility.yul\":4474:4480   */\n      dup1\n        /* \"#utility.yul\":4523:4525   */\n      0x40\n        /* \"#utility.yul\":4511:4520   */\n      dup4\n        /* \"#utility.yul\":4502:4509   */\n      dup6\n        /* \"#utility.yul\":4498:4521   */\n      sub\n        /* \"#utility.yul\":4494:4526   */\n      slt\n        /* \"#utility.yul\":4491:4610   */\n      iszero\n      tag_202\n      jumpi\n        /* \"#utility.yul\":4529:4608   */\n      tag_203\n      tag_109\n      jump\t// in\n    tag_203:\n        /* \"#utility.yul\":4491:4610   */\n    tag_202:\n        /* \"#utility.yul\":4649:4650   */\n      0x00\n        /* \"#utility.yul\":4674:4740   */\n      tag_204\n        /* \"#utility.yul\":4732:4739   */\n      dup6\n        /* \"#utility.yul\":4723:4729   */\n      dup3\n        /* \"#utility.yul\":4712:4721   */\n      dup7\n        /* \"#utility.yul\":4708:4730   */\n      add\n        /* \"#utility.yul\":4674:4740   */\n      tag_125\n      jump\t// in\n    tag_204:\n        /* \"#utility.yul\":4664:4740   */\n      swap3\n      pop\n        /* \"#utility.yul\":4620:4750   */\n      pop\n        /* \"#utility.yul\":4789:4791   */\n      0x20\n        /* \"#utility.yul\":4815:4868   */\n      tag_205\n        /* \"#utility.yul\":4860:4867   */\n      dup6\n        /* \"#utility.yul\":4851:4857   */\n      dup3\n        /* \"#utility.yul\":4840:4849   */\n      dup7\n        /* \"#utility.yul\":4836:4858   */\n      add\n        /* \"#utility.yul\":4815:4868   */\n      tag_113\n      jump\t// in\n    tag_205:\n        /* \"#utility.yul\":4805:4868   */\n      swap2\n      pop\n        /* \"#utility.yul\":4760:4878   */\n      pop\n        /* \"#utility.yul\":4385:4885   */\n      swap3\n      pop\n      swap3\n      swap1\n      pop\n      jump\t// out\n        /* \"#utility.yul\":4891:5009   */\n    tag_126:\n        /* \"#utility.yul\":4978:5002   */\n      tag_207\n        /* \"#utility.yul\":4996:5001   */\n      dup2\n        /* \"#utility.yul\":4978:5002   */\n      tag_111\n      jump\t// in\n    tag_207:\n        /* \"#utility.yul\":4973:4976   */\n      dup3\n        /* \"#utility.yul\":4966:5003   */\n      mstore\n        /* \"#utility.yul\":4891:5009   */\n      pop\n      pop\n      jump\t// out\n        /* \"#utility.yul\":5015:5237   */\n    tag_25:\n        /* \"#utility.yul\":5108:5112   */\n      0x00\n        /* \"#utility.yul\":5146:5148   */\n      0x20\n        /* \"#utility.yul\":5135:5144   */\n      dup3\n        /* \"#utility.yul\":5131:5149   */\n      add\n        /* \"#utility.yul\":5123:5149   */\n      swap1\n      pop\n        /* \"#utility.yul\":5159:5230   */\n      tag_209\n        /* \"#utility.yul\":5227:5228   */\n      0x00\n        /* \"#utility.yul\":5216:5225   */\n      dup4\n        /* \"#utility.yul\":5212:5229   */\n      add\n        /* \"#utility.yul\":5203:5209   */\n      dup5\n        /* \"#utility.yul\":5159:5230   */\n      tag_126\n      jump\t// in\n    tag_209:\n        /* \"#utility.yul\":5015:5237   */\n      swap3\n      swap2\n      pop\n      pop\n      jump\t// out\n        /* \"#utility.yul\":5243:5369   */\n    tag_127:\n        /* \"#utility.yul\":5280:5287   */\n      0x00\n        /* \"#utility.yul\":5320:5362   */\n      0xffffffffffffffffffffffffffffffffffffffff\n        /* \"#utility.yul\":5313:5318   */\n      dup3\n        /* \"#utility.yul\":5309:5363   */\n      and\n        /* \"#utility.yul\":5298:5363   */\n      swap1\n      pop\n        /* \"#utility.yul\":5243:5369   */\n      swap2\n      swap1\n      pop\n      jump\t// out\n        /* \"#utility.yul\":5375:5471   */\n    tag_128:\n        /* \"#utility.yul\":5412:5419   */\n      0x00\n        /* \"#utility.yul\":5441:5465   */\n      tag_212\n        /* \"#utility.yul\":5459:5464   */\n      dup3\n        /* \"#utility.yul\":5441:5465   */\n      tag_127\n      jump\t// in\n    tag_212:\n        /* \"#utility.yul\":5430:5465   */\n      swap1\n      pop\n        /* \"#utility.yul\":5375:5471   */\n      swap2\n      swap1\n      pop\n      jump\t// out\n        /* \"#utility.yul\":5477:5595   */\n    tag_129:\n        /* \"#utility.yul\":5564:5588   */\n      tag_214\n        /* \"#utility.yul\":5582:5587   */\n      dup2\n        /* \"#utility.yul\":5564:5588   */\n      tag_128\n      jump\t// in\n    tag_214:\n        /* \"#utility.yul\":5559:5562   */\n      dup3\n        /* \"#utility.yul\":5552:5589   */\n      mstore\n        /* \"#utility.yul\":5477:5595   */\n      pop\n      pop\n      jump\t// out\n        /* \"#utility.yul\":5601:5823   */\n    tag_29:\n        /* \"#utility.yul\":5694:5698   */\n      0x00\n        /* \"#utility.yul\":5732:5734   */\n      0x20\n        /* \"#utility.yul\":5721:5730   */\n      dup3\n        /* \"#utility.yul\":5717:5735   */\n      add\n        /* \"#utility.yul\":5709:5735   */\n      swap1\n      pop\n        /* \"#utility.yul\":5745:5816   */\n      tag_216\n        /* \"#utility.yul\":5813:5814   */\n      0x00\n        /* \"#utility.yul\":5802:5811   */\n      dup4\n        /* \"#utility.yul\":5798:5815   */\n      add\n        /* \"#utility.yul\":5789:5795   */\n      dup5\n        /* \"#utility.yul\":5745:5816   */\n      tag_129\n      jump\t// in\n    tag_216:\n        /* \"#utility.yul\":5601:5823   */\n      swap3\n      swap2\n      pop\n      pop\n      jump\t// out\n        /* \"#utility.yul\":5829:6009   */\n    tag_41:\n        /* \"#utility.yul\":5877:5954   */\n      0x4e487b7100000000000000000000000000000000000000000000000000000000\n        /* \"#utility.yul\":5874:5875   */\n      0x00\n        /* \"#utility.yul\":5867:5955   */\n      mstore\n        /* \"#utility.yul\":5974:5978   */\n      0x21\n        /* \"#utility.yul\":5971:5972   */\n      0x04\n        /* \"#utility.yul\":5964:5979   */\n      mstore\n        /* \"#utility.yul\":5998:6002   */\n      0x24\n        /* \"#utility.yul\":5995:5996   */\n      0x00\n        /* \"#utility.yul\":5988:6003   */\n      revert\n        /* \"#utility.yul\":6015:6133   */\n    tag_130:\n        /* \"#utility.yul\":6101:6102   */\n      0x05\n        /* \"#utility.yul\":6094:6099   */\n      dup2\n        /* \"#utility.yul\":6091:6103   */\n      lt\n        /* \"#utility.yul\":6081:6127   */\n      tag_219\n      jumpi\n        /* \"#utility.yul\":6107:6125   */\n      tag_220\n      tag_41\n      jump\t// in\n    tag_220:\n        /* \"#utility.yul\":6081:6127   */\n    tag_219:\n        /* \"#utility.yul\":6015:6133   */\n      pop\n      jump\t// out\n        /* \"#utility.yul\":6139:6276   */\n    tag_131:\n        /* \"#utility.yul\":6189:6196   */\n      0x00\n        /* \"#utility.yul\":6218:6223   */\n      dup2\n        /* \"#utility.yul\":6207:6223   */\n      swap1\n      pop\n        /* \"#utility.yul\":6224:6270   */\n      tag_222\n        /* \"#utility.yul\":6264:6269   */\n      dup3\n        /* \"#utility.yul\":6224:6270   */\n      tag_130\n      jump\t// in\n    tag_222:\n        /* \"#utility.yul\":6139:6276   */\n      swap2\n      swap1\n      pop\n      jump\t// out\n        /* \"#utility.yul\":6282:6419   */\n    tag_132:\n        /* \"#utility.yul\":6343:6352   */\n      0x00\n        /* \"#utility.yul\":6376:6413   */\n      tag_224\n        /* \"#utility.yul\":6407:6412   */\n      dup3\n        /* \"#utility.yul\":6376:6413   */\n      tag_131\n      jump\t// in\n    tag_224:\n        /* \"#utility.yul\":6363:6413   */\n      swap1\n      pop\n        /* \"#utility.yul\":6282:6419   */\n      swap2\n      swap1\n      pop\n      jump\t// out\n        /* \"#utility.yul\":6425:6578   */\n    tag_133:\n        /* \"#utility.yul\":6523:6571   */\n      tag_226\n        /* \"#utility.yul\":6565:6570   */\n      dup2\n        /* \"#utility.yul\":6523:6571   */\n      tag_132\n      jump\t// in\n    tag_226:\n        /* \"#utility.yul\":6518:6521   */\n      dup3\n        /* \"#utility.yul\":6511:6572   */\n      mstore\n        /* \"#utility.yul\":6425:6578   */\n      pop\n      pop\n      jump\t// out\n        /* \"#utility.yul\":6584:6828   */\n    tag_33:\n        /* \"#utility.yul\":6688:6692   */\n      0x00\n        /* \"#utility.yul\":6726:6728   */\n      0x20\n        /* \"#utility.yul\":6715:6724   */\n      dup3\n        /* \"#utility.yul\":6711:6729   */\n      add\n        /* \"#utility.yul\":6703:6729   */\n      swap1\n      pop\n        /* \"#utility.yul\":6739:6821   */\n      tag_228\n        /* \"#utility.yul\":6818:6819   */\n      0x00\n        /* \"#utility.yul\":6807:6816   */\n      dup4\n        /* \"#utility.yul\":6803:6820   */\n      add\n        /* \"#utility.yul\":6794:6800   */\n      dup5\n        /* \"#utility.yul\":6739:6821   */\n      tag_133\n      jump\t// in\n    tag_228:\n        /* \"#utility.yul\":6584:6828   */\n      swap3\n      swap2\n      pop\n      pop\n      jump\t// out\n        /* \"#utility.yul\":6834:7003   */\n    tag_134:\n        /* \"#utility.yul\":6918:6929   */\n      0x00\n        /* \"#utility.yul\":6952:6958   */\n      dup3\n        /* \"#utility.yul\":6947:6950   */\n      dup3\n        /* \"#utility.yul\":6940:6959   */\n      mstore\n        /* \"#utility.yul\":6992:6996   */\n      0x20\n        /* \"#utility.yul\":6987:6990   */\n      dup3\n        /* \"#utility.yul\":6983:6997   */\n      add\n        /* \"#utility.yul\":6968:6997   */\n      swap1\n      pop\n        /* \"#utility.yul\":6834:7003   */\n      swap3\n      swap2\n      pop\n      pop\n      jump\t// out\n        /* \"#utility.yul\":7009:7232   */\n    tag_135:\n        /* \"#utility.yul\":7149:7183   */\n      0x596f7520616c7265616479206861766520626f72726f7765642074686520616e\n        /* \"#utility.yul\":7145:7146   */\n      0x00\n        /* \"#utility.yul\":7137:7143   */\n      dup3\n        /* \"#utility.yul\":7133:7147   */\n      add\n        /* \"#utility.yul\":7126:7184   */\n      mstore\n        /* \"#utility.yul\":7218:7224   */\n      0x696d616c00000000000000000000000000000000000000000000000000000000\n        /* \"#utility.yul\":7213:7215   */\n      0x20\n        /* \"#utility.yul\":7205:7211   */\n      dup3\n        /* \"#utility.yul\":7201:7216   */\n      add\n        /* \"#utility.yul\":7194:7225   */\n      mstore\n        /* \"#utility.yul\":7009:7232   */\n      pop\n      jump\t// out\n        /* \"#utility.yul\":7238:7604   */\n    tag_136:\n        /* \"#utility.yul\":7380:7383   */\n      0x00\n        /* \"#utility.yul\":7401:7468   */\n      tag_232\n        /* \"#utility.yul\":7465:7467   */\n      0x24\n        /* \"#utility.yul\":7460:7463   */\n      dup4\n        /* \"#utility.yul\":7401:7468   */\n      tag_134\n      jump\t// in\n    tag_232:\n        /* \"#utility.yul\":7394:7468   */\n      swap2\n      pop\n        /* \"#utility.yul\":7477:7570   */\n      tag_233\n        /* \"#utility.yul\":7566:7569   */\n      dup3\n        /* \"#utility.yul\":7477:7570   */\n      tag_135\n      jump\t// in\n    tag_233:\n        /* \"#utility.yul\":7595:7597   */\n      0x40\n        /* \"#utility.yul\":7590:7593   */\n      dup3\n        /* \"#utility.yul\":7586:7598   */\n      add\n        /* \"#utility.yul\":7579:7598   */\n      swap1\n      pop\n        /* \"#utility.yul\":7238:7604   */\n      swap2\n      swap1\n      pop\n      jump\t// out\n        /* \"#utility.yul\":7610:8029   */\n    tag_37:\n        /* \"#utility.yul\":7776:7780   */\n      0x00\n        /* \"#utility.yul\":7814:7816   */\n      0x20\n        /* \"#utility.yul\":7803:7812   */\n      dup3\n        /* \"#utility.yul\":7799:7817   */\n      add\n        /* \"#utility.yul\":7791:7817   */\n      swap1\n      pop\n        /* \"#utility.yul\":7863:7872   */\n      dup2\n        /* \"#utility.yul\":7857:7861   */\n      dup2\n        /* \"#utility.yul\":7853:7873   */\n      sub\n        /* \"#utility.yul\":7849:7850   */\n      0x00\n        /* \"#utility.yul\":7838:7847   */\n      dup4\n        /* \"#utility.yul\":7834:7851   */\n      add\n        /* \"#utility.yul\":7827:7874   */\n      mstore\n        /* \"#utility.yul\":7891:8022   */\n      tag_235\n        /* \"#utility.yul\":8017:8021   */\n      dup2\n        /* \"#utility.yul\":7891:8022   */\n      tag_136\n      jump\t// in\n    tag_235:\n        /* \"#utility.yul\":7883:8022   */\n      swap1\n      pop\n        /* \"#utility.yul\":7610:8029   */\n      swap2\n      swap1\n      pop\n      jump\t// out\n        /* \"#utility.yul\":8035:8213   */\n    tag_137:\n        /* \"#utility.yul\":8175:8205   */\n      0x596f752063616e206f6e6c792062757920646f67206f72206669736800000000\n        /* \"#utility.yul\":8171:8172   */\n      0x00\n        /* \"#utility.yul\":8163:8169   */\n      dup3\n        /* \"#utility.yul\":8159:8173   */\n      add\n        /* \"#utility.yul\":8152:8206   */\n      mstore\n        /* \"#utility.yul\":8035:8213   */\n      pop\n      jump\t// out\n        /* \"#utility.yul\":8219:8585   */\n    tag_138:\n        /* \"#utility.yul\":8361:8364   */\n      0x00\n        /* \"#utility.yul\":8382:8449   */\n      tag_238\n        /* \"#utility.yul\":8446:8448   */\n      0x1c\n        /* \"#utility.yul\":8441:8444   */\n      dup4\n        /* \"#utility.yul\":8382:8449   */\n      tag_134\n      jump\t// in\n    tag_238:\n        /* \"#utility.yul\":8375:8449   */\n      swap2\n      pop\n        /* \"#utility.yul\":8458:8551   */\n      tag_239\n        /* \"#utility.yul\":8547:8550   */\n      dup3\n        /* \"#utility.yul\":8458:8551   */\n      tag_137\n      jump\t// in\n    tag_239:\n        /* \"#utility.yul\":8576:8578   */\n      0x20\n        /* \"#utility.yul\":8571:8574   */\n      dup3\n        /* \"#utility.yul\":8567:8579   */\n      add\n        /* \"#utility.yul\":8560:8579   */\n      swap1\n      pop\n        /* \"#utility.yul\":8219:8585   */\n      swap2\n      swap1\n      pop\n      jump\t// out\n        /* \"#utility.yul\":8591:9010   */\n    tag_46:\n        /* \"#utility.yul\":8757:8761   */\n      0x00\n        /* \"#utility.yul\":8795:8797   */\n      0x20\n        /* \"#utility.yul\":8784:8793   */\n      dup3\n        /* \"#utility.yul\":8780:8798   */\n      add\n        /* \"#utility.yul\":8772:8798   */\n      swap1\n      pop\n        /* \"#utility.yul\":8844:8853   */\n      dup2\n        /* \"#utility.yul\":8838:8842   */\n      dup2\n        /* \"#utility.yul\":8834:8854   */\n      sub\n        /* \"#utility.yul\":8830:8831   */\n      0x00\n        /* \"#utility.yul\":8819:8828   */\n      dup4\n        /* \"#utility.yul\":8815:8832   */\n      add\n        /* \"#utility.yul\":8808:8855   */\n      mstore\n        /* \"#utility.yul\":8872:9003   */\n      tag_241\n        /* \"#utility.yul\":8998:9002   */\n      dup2\n        /* \"#utility.yul\":8872:9003   */\n      tag_138\n      jump\t// in\n    tag_241:\n        /* \"#utility.yul\":8864:9003   */\n      swap1\n      pop\n        /* \"#utility.yul\":8591:9010   */\n      swap2\n      swap1\n      pop\n      jump\t// out\n        /* \"#utility.yul\":9016:9196   */\n    tag_139:\n        /* \"#utility.yul\":9064:9141   */\n      0x4e487b7100000000000000000000000000000000000000000000000000000000\n        /* \"#utility.yul\":9061:9062   */\n      0x00\n        /* \"#utility.yul\":9054:9142   */\n      mstore\n        /* \"#utility.yul\":9161:9165   */\n      0x11\n        /* \"#utility.yul\":9158:9159   */\n      0x04\n        /* \"#utility.yul\":9151:9166   */\n      mstore\n        /* \"#utility.yul\":9185:9189   */\n      0x24\n        /* \"#utility.yul\":9182:9183   */\n      0x00\n        /* \"#utility.yul\":9175:9190   */\n      revert\n        /* \"#utility.yul\":9202:9393   */\n    tag_60:\n        /* \"#utility.yul\":9242:9246   */\n      0x00\n        /* \"#utility.yul\":9262:9282   */\n      tag_244\n        /* \"#utility.yul\":9280:9281   */\n      dup3\n        /* \"#utility.yul\":9262:9282   */\n      tag_111\n      jump\t// in\n    tag_244:\n        /* \"#utility.yul\":9257:9282   */\n      swap2\n      pop\n        /* \"#utility.yul\":9296:9316   */\n      tag_245\n        /* \"#utility.yul\":9314:9315   */\n      dup4\n        /* \"#utility.yul\":9296:9316   */\n      tag_111\n      jump\t// in\n    tag_245:\n        /* \"#utility.yul\":9291:9316   */\n      swap3\n      pop\n        /* \"#utility.yul\":9335:9336   */\n      dup3\n        /* \"#utility.yul\":9332:9333   */\n      dup3\n        /* \"#utility.yul\":9329:9337   */\n      lt\n        /* \"#utility.yul\":9326:9360   */\n      iszero\n      tag_246\n      jumpi\n        /* \"#utility.yul\":9340:9358   */\n      tag_247\n      tag_139\n      jump\t// in\n    tag_247:\n        /* \"#utility.yul\":9326:9360   */\n    tag_246:\n        /* \"#utility.yul\":9385:9386   */\n      dup3\n        /* \"#utility.yul\":9382:9383   */\n      dup3\n        /* \"#utility.yul\":9378:9387   */\n      sub\n        /* \"#utility.yul\":9370:9387   */\n      swap1\n      pop\n        /* \"#utility.yul\":9202:9393   */\n      swap3\n      swap2\n      pop\n      pop\n      jump\t// out\n        /* \"#utility.yul\":9399:9579   */\n    tag_140:\n        /* \"#utility.yul\":9539:9571   */\n      0x596f7520617265206e6f7420616c6c6f77656420746f20627579206361740000\n        /* \"#utility.yul\":9535:9536   */\n      0x00\n        /* \"#utility.yul\":9527:9533   */\n      dup3\n        /* \"#utility.yul\":9523:9537   */\n      add\n        /* \"#utility.yul\":9516:9572   */\n      mstore\n        /* \"#utility.yul\":9399:9579   */\n      pop\n      jump\t// out\n        /* \"#utility.yul\":9585:9951   */\n    tag_141:\n        /* \"#utility.yul\":9727:9730   */\n      0x00\n        /* \"#utility.yul\":9748:9815   */\n      tag_250\n        /* \"#utility.yul\":9812:9814   */\n      0x1e\n        /* \"#utility.yul\":9807:9810   */\n      dup4\n        /* \"#utility.yul\":9748:9815   */\n      tag_134\n      jump\t// in\n    tag_250:\n        /* \"#utility.yul\":9741:9815   */\n      swap2\n      pop\n        /* \"#utility.yul\":9824:9917   */\n      tag_251\n        /* \"#utility.yul\":9913:9916   */\n      dup3\n        /* \"#utility.yul\":9824:9917   */\n      tag_140\n      jump\t// in\n    tag_251:\n        /* \"#utility.yul\":9942:9944   */\n      0x20\n        /* \"#utility.yul\":9937:9940   */\n      dup3\n        /* \"#utility.yul\":9933:9945   */\n      add\n        /* \"#utility.yul\":9926:9945   */\n      swap1\n      pop\n        /* \"#utility.yul\":9585:9951   */\n      swap2\n      swap1\n      pop\n      jump\t// out\n        /* \"#utility.yul\":9957:10376   */\n    tag_69:\n        /* \"#utility.yul\":10123:10127   */\n      0x00\n        /* \"#utility.yul\":10161:10163   */\n      0x20\n        /* \"#utility.yul\":10150:10159   */\n      dup3\n        /* \"#utility.yul\":10146:10164   */\n      add\n        /* \"#utility.yul\":10138:10164   */\n      swap1\n      pop\n        /* \"#utility.yul\":10210:10219   */\n      dup2\n        /* \"#utility.yul\":10204:10208   */\n      dup2\n        /* \"#utility.yul\":10200:10220   */\n      sub\n        /* \"#utility.yul\":10196:10197   */\n      0x00\n        /* \"#utility.yul\":10185:10194   */\n      dup4\n        /* \"#utility.yul\":10181:10198   */\n      add\n        /* \"#utility.yul\":10174:10221   */\n      mstore\n        /* \"#utility.yul\":10238:10369   */\n      tag_253\n        /* \"#utility.yul\":10364:10368   */\n      dup2\n        /* \"#utility.yul\":10238:10369   */\n      tag_141\n      jump\t// in\n    tag_253:\n        /* \"#utility.yul\":10230:10369   */\n      swap1\n      pop\n        /* \"#utility.yul\":9957:10376   */\n      swap2\n      swap1\n      pop\n      jump\t// out\n        /* \"#utility.yul\":10382:10563   */\n    tag_142:\n        /* \"#utility.yul\":10522:10555   */\n      0x596f7520686176656e2774206c656e642074686520616e696d616c2079657400\n        /* \"#utility.yul\":10518:10519   */\n      0x00\n        /* \"#utility.yul\":10510:10516   */\n      dup3\n        /* \"#utility.yul\":10506:10520   */\n      add\n        /* \"#utility.yul\":10499:10556   */\n      mstore\n        /* \"#utility.yul\":10382:10563   */\n      pop\n      jump\t// out\n        /* \"#utility.yul\":10569:10935   */\n    tag_143:\n        /* \"#utility.yul\":10711:10714   */\n      0x00\n        /* \"#utility.yul\":10732:10799   */\n      tag_256\n        /* \"#utility.yul\":10796:10798   */\n      0x1f\n        /* \"#utility.yul\":10791:10794   */\n      dup4\n        /* \"#utility.yul\":10732:10799   */\n      tag_134\n      jump\t// in\n    tag_256:\n        /* \"#utility.yul\":10725:10799   */\n      swap2\n      pop\n        /* \"#utility.yul\":10808:10901   */\n      tag_257\n        /* \"#utility.yul\":10897:10900   */\n      dup3\n        /* \"#utility.yul\":10808:10901   */\n      tag_142\n      jump\t// in\n    tag_257:\n        /* \"#utility.yul\":10926:10928   */\n      0x20\n        /* \"#utility.yul\":10921:10924   */\n      dup3\n        /* \"#utility.yul\":10917:10929   */\n      add\n        /* \"#utility.yul\":10910:10929   */\n      swap1\n      pop\n        /* \"#utility.yul\":10569:10935   */\n      swap2\n      swap1\n      pop\n      jump\t// out\n        /* \"#utility.yul\":10941:11360   */\n    tag_74:\n        /* \"#utility.yul\":11107:11111   */\n      0x00\n        /* \"#utility.yul\":11145:11147   */\n      0x20\n        /* \"#utility.yul\":11134:11143   */\n      dup3\n        /* \"#utility.yul\":11130:11148   */\n      add\n        /* \"#utility.yul\":11122:11148   */\n      swap1\n      pop\n        /* \"#utility.yul\":11194:11203   */\n      dup2\n        /* \"#utility.yul\":11188:11192   */\n      dup2\n        /* \"#utility.yul\":11184:11204   */\n      sub\n        /* \"#utility.yul\":11180:11181   */\n      0x00\n        /* \"#utility.yul\":11169:11178   */\n      dup4\n        /* \"#utility.yul\":11165:11182   */\n      add\n        /* \"#utility.yul\":11158:11205   */\n      mstore\n        /* \"#utility.yul\":11222:11353   */\n      tag_259\n        /* \"#utility.yul\":11348:11352   */\n      dup2\n        /* \"#utility.yul\":11222:11353   */\n      tag_143\n      jump\t// in\n    tag_259:\n        /* \"#utility.yul\":11214:11353   */\n      swap1\n      pop\n        /* \"#utility.yul\":10941:11360   */\n      swap2\n      swap1\n      pop\n      jump\t// out\n        /* \"#utility.yul\":11366:11671   */\n    tag_76:\n        /* \"#utility.yul\":11406:11409   */\n      0x00\n        /* \"#utility.yul\":11425:11445   */\n      tag_261\n        /* \"#utility.yul\":11443:11444   */\n      dup3\n        /* \"#utility.yul\":11425:11445   */\n      tag_111\n      jump\t// in\n    tag_261:\n        /* \"#utility.yul\":11420:11445   */\n      swap2\n      pop\n        /* \"#utility.yul\":11459:11479   */\n      tag_262\n        /* \"#utility.yul\":11477:11478   */\n      dup4\n        /* \"#utility.yul\":11459:11479   */\n      tag_111\n      jump\t// in\n    tag_262:\n        /* \"#utility.yul\":11454:11479   */\n      swap3\n      pop\n        /* \"#utility.yul\":11613:11614   */\n      dup3\n        /* \"#utility.yul\":11545:11611   */\n      0xffffffffffffffffffffffffffffffffffffffffffffffffffffffffffffffff\n        /* \"#utility.yul\":11541:11615   */\n      sub\n        /* \"#utility.yul\":11538:11539   */\n      dup3\n        /* \"#utility.yul\":11535:11616   */\n      gt\n        /* \"#utility.yul\":11532:11639   */\n      iszero\n      tag_263\n      jumpi\n        /* \"#utility.yul\":11619:11637   */\n      tag_264\n      tag_139\n      jump\t// in\n    tag_264:\n        /* \"#utility.yul\":11532:11639   */\n    tag_263:\n        /* \"#utility.yul\":11663:11664   */\n      dup3\n        /* \"#utility.yul\":11660:11661   */\n      dup3\n        /* \"#utility.yul\":11656:11665   */\n      add\n        /* \"#utility.yul\":11649:11665   */\n      swap1\n      pop\n        /* \"#utility.yul\":11366:11671   */\n      swap3\n      swap2\n      pop\n      pop\n      jump\t// out\n        /* \"#utility.yul\":11677:11857   */\n    tag_144:\n        /* \"#utility.yul\":11817:11849   */\n      0x4974206973206d6f7265207468616e2035206d696e75746573206e6f77200000\n        /* \"#utility.yul\":11813:11814   */\n      0x00\n        /* \"#utility.yul\":11805:11811   */\n      dup3\n        /* \"#utility.yul\":11801:11815   */\n      add\n        /* \"#utility.yul\":11794:11850   */\n      mstore\n        /* \"#utility.yul\":11677:11857   */\n      pop\n      jump\t// out\n        /* \"#utility.yul\":11863:12229   */\n    tag_145:\n        /* \"#utility.yul\":12005:12008   */\n      0x00\n        /* \"#utility.yul\":12026:12093   */\n      tag_267\n        /* \"#utility.yul\":12090:12092   */\n      0x1e\n        /* \"#utility.yul\":12085:12088   */\n      dup4\n        /* \"#utility.yul\":12026:12093   */\n      tag_134\n      jump\t// in\n    tag_267:\n        /* \"#utility.yul\":12019:12093   */\n      swap2\n      pop\n        /* \"#utility.yul\":12102:12195   */\n      tag_268\n        /* \"#utility.yul\":12191:12194   */\n      dup3\n        /* \"#utility.yul\":12102:12195   */\n      tag_144\n      jump\t// in\n    tag_268:\n        /* \"#utility.yul\":12220:12222   */\n      0x20\n        /* \"#utility.yul\":12215:12218   */\n      dup3\n        /* \"#utility.yul\":12211:12223   */\n      add\n        /* \"#utility.yul\":12204:12223   */\n      swap1\n      pop\n        /* \"#utility.yul\":11863:12229   */\n      swap2\n      swap1\n      pop\n      jump\t// out\n        /* \"#utility.yul\":12235:12654   */\n    tag_79:\n        /* \"#utility.yul\":12401:12405   */\n      0x00\n        /* \"#utility.yul\":12439:12441   */\n      0x20\n        /* \"#utility.yul\":12428:12437   */\n      dup3\n        /* \"#utility.yul\":12424:12442   */\n      add\n        /* \"#utility.yul\":12416:12442   */\n      swap1\n      pop\n        /* \"#utility.yul\":12488:12497   */\n      dup2\n        /* \"#utility.yul\":12482:12486   */\n      dup2\n        /* \"#utility.yul\":12478:12498   */\n      sub\n        /* \"#utility.yul\":12474:12475   */\n      0x00\n        /* \"#utility.yul\":12463:12472   */\n      dup4\n        /* \"#utility.yul\":12459:12476   */\n      add\n        /* \"#utility.yul\":12452:12499   */\n      mstore\n        /* \"#utility.yul\":12516:12647   */\n      tag_270\n        /* \"#utility.yul\":12642:12646   */\n      dup2\n        /* \"#utility.yul\":12516:12647   */\n      tag_145\n      jump\t// in\n    tag_270:\n        /* \"#utility.yul\":12508:12647   */\n      swap1\n      pop\n        /* \"#utility.yul\":12235:12654   */\n      swap2\n      swap1\n      pop\n      jump\t// out\n        /* \"#utility.yul\":12660:12838   */\n    tag_146:\n        /* \"#utility.yul\":12800:12830   */\n      0x4f6e6c79206f776e65722063616e2067697665207368656c7465722000000000\n        /* \"#utility.yul\":12796:12797   */\n      0x00\n        /* \"#utility.yul\":12788:12794   */\n      dup3\n        /* \"#utility.yul\":12784:12798   */\n      add\n        /* \"#utility.yul\":12777:12831   */\n      mstore\n        /* \"#utility.yul\":12660:12838   */\n      pop\n      jump\t// out\n        /* \"#utility.yul\":12844:13210   */\n    tag_147:\n        /* \"#utility.yul\":12986:12989   */\n      0x00\n        /* \"#utility.yul\":13007:13074   */\n      tag_273\n        /* \"#utility.yul\":13071:13073   */\n      0x1c\n        /* \"#utility.yul\":13066:13069   */\n      dup4\n        /* \"#utility.yul\":13007:13074   */\n      tag_134\n      jump\t// in\n    tag_273:\n        /* \"#utility.yul\":13000:13074   */\n      swap2\n      pop\n        /* \"#utility.yul\":13083:13176   */\n      tag_274\n        /* \"#utility.yul\":13172:13175   */\n      dup3\n        /* \"#utility.yul\":13083:13176   */\n      tag_146\n      jump\t// in\n    tag_274:\n        /* \"#utility.yul\":13201:13203   */\n      0x20\n        /* \"#utility.yul\":13196:13199   */\n      dup3\n        /* \"#utility.yul\":13192:13204   */\n      add\n        /* \"#utility.yul\":13185:13204   */\n      swap1\n      pop\n        /* \"#utility.yul\":12844:13210   */\n      swap2\n      swap1\n      pop\n      jump\t// out\n        /* \"#utility.yul\":13216:13635   */\n    tag_91:\n        /* \"#utility.yul\":13382:13386   */\n      0x00\n        /* \"#utility.yul\":13420:13422   */\n      0x20\n        /* \"#utility.yul\":13409:13418   */\n      dup3\n        /* \"#utility.yul\":13405:13423   */\n      add\n        /* \"#utility.yul\":13397:13423   */\n      swap1\n      pop\n        /* \"#utility.yul\":13469:13478   */\n      dup2\n        /* \"#utility.yul\":13463:13467   */\n      dup2\n        /* \"#utility.yul\":13459:13479   */\n      sub\n        /* \"#utility.yul\":13455:13456   */\n      0x00\n        /* \"#utility.yul\":13444:13453   */\n      dup4\n        /* \"#utility.yul\":13440:13457   */\n      add\n        /* \"#utility.yul\":13433:13480   */\n      mstore\n        /* \"#utility.yul\":13497:13628   */\n      tag_276\n        /* \"#utility.yul\":13623:13627   */\n      dup2\n        /* \"#utility.yul\":13497:13628   */\n      tag_147\n      jump\t// in\n    tag_276:\n        /* \"#utility.yul\":13489:13628   */\n      swap1\n      pop\n        /* \"#utility.yul\":13216:13635   */\n      swap2\n      swap1\n      pop\n      jump\t// out\n        /* \"#utility.yul\":13641:13821   */\n    tag_148:\n        /* \"#utility.yul\":13689:13766   */\n      0x4e487b7100000000000000000000000000000000000000000000000000000000\n        /* \"#utility.yul\":13686:13687   */\n      0x00\n        /* \"#utility.yul\":13679:13767   */\n      mstore\n        /* \"#utility.yul\":13786:13790   */\n      0x22\n        /* \"#utility.yul\":13783:13784   */\n      0x04\n        /* \"#utility.yul\":13776:13791   */\n      mstore\n        /* \"#utility.yul\":13810:13814   */\n      0x24\n        /* \"#utility.yul\":13807:13808   */\n      0x00\n        /* \"#utility.yul\":13800:13815   */\n      revert\n        /* \"#utility.yul\":13827:14147   */\n    tag_98:\n        /* \"#utility.yul\":13871:13877   */\n      0x00\n        /* \"#utility.yul\":13908:13909   */\n      0x02\n        /* \"#utility.yul\":13902:13906   */\n      dup3\n        /* \"#utility.yul\":13898:13910   */\n      div\n        /* \"#utility.yul\":13888:13910   */\n      swap1\n      pop\n        /* \"#utility.yul\":13955:13956   */\n      0x01\n        /* \"#utility.yul\":13949:13953   */\n      dup3\n        /* \"#utility.yul\":13945:13957   */\n      and\n        /* \"#utility.yul\":13976:13994   */\n      dup1\n        /* \"#utility.yul\":13966:14047   */\n      tag_279\n      jumpi\n        /* \"#utility.yul\":14032:14036   */\n      0x7f\n        /* \"#utility.yul\":14024:14030   */\n      dup3\n        /* \"#utility.yul\":14020:14037   */\n      and\n        /* \"#utility.yul\":14010:14037   */\n      swap2\n      pop\n        /* \"#utility.yul\":13966:14047   */\n    tag_279:\n        /* \"#utility.yul\":14094:14096   */\n      0x20\n        /* \"#utility.yul\":14086:14092   */\n      dup3\n        /* \"#utility.yul\":14083:14097   */\n      lt\n        /* \"#utility.yul\":14063:14081   */\n      dup2\n        /* \"#utility.yul\":14060:14098   */\n      eq\n        /* \"#utility.yul\":14057:14141   */\n      iszero\n      tag_280\n      jumpi\n        /* \"#utility.yul\":14113:14131   */\n      tag_281\n      tag_148\n      jump\t// in\n    tag_281:\n        /* \"#utility.yul\":14057:14141   */\n    tag_280:\n        /* \"#utility.yul\":13878:14147   */\n      pop\n        /* \"#utility.yul\":13827:14147   */\n      swap2\n      swap1\n      pop\n      jump\t// out\n\n    auxdata: 0xa264697066735822122057ec45cdb3bfe88300bbe80027da398a344deb6754d5f4fb3ba672c8897c310764736f6c63430008090033\n}\n",
				"bytecode": {
					"linkReferences": {},
					"object": "608060405234801561001057600080fd5b5033600060016101000a81548173ffffffffffffffffffffffffffffffffffffffff021916908373ffffffffffffffffffffffffffffffffffffffff160217905550611197806100616000396000f3fe608060405234801561001057600080fd5b50600436106100625760003560e01c806307f93f17146100675780630d04d05a146100835780631b54ac801461009f5780632b23461f146100bb5780638da5cb5b146100eb578063ec73cab514610109575b600080fd5b610081600480360381019061007c9190610b94565b610127565b005b61009d60048036038101906100989190610c03565b6105b2565b005b6100b960048036038101906100b49190610c30565b6107fc565b005b6100d560048036038101906100d09190610c03565b6108cc565b6040516100e29190610c7f565b60405180910390f35b6100f36108e4565b6040516101009190610cdb565b60405180910390f35b61011161090a565b60405161011e9190610d6d565b60405180910390f35b60011515600260003373ffffffffffffffffffffffffffffffffffffffff1673ffffffffffffffffffffffffffffffffffffffff16815260200190815260200160002060009054906101000a900460ff16151514156101bb576040517f08c379a00000000000000000000000000000000000000000000000000000000081526004016101b290610e0b565b60405180910390fd5b6040518060400160405280600481526020017f4d616c65000000000000000000000000000000000000000000000000000000008152508051906020012082805190602001201415610409576002600481111561021a57610219610cf6565b5b81600481111561022d5761022c610cf6565b5b1461026d576040517f08c379a000000000000000000000000000000000000000000000000000000000815260040161026490610e77565b60405180910390fd5b6000600481111561028157610280610cf6565b5b81600481111561029457610293610cf6565b5b146102d4576040517f08c379a00000000000000000000000000000000000000000000000000000000081526004016102cb90610e77565b60405180910390fd5b604051806060016040528084815260200183815260200142815250600360003373ffffffffffffffffffffffffffffffffffffffff1673ffffffffffffffffffffffffffffffffffffffff16815260200190815260200160002060008201518160000155602082015181600101908051906020019061035492919061091b565b5060408201518160020155905050600180600083600481111561037a57610379610cf6565b5b600481111561038c5761038b610cf6565b5b815260200190815260200160002060008282546103a99190610ec6565b925050819055506001600260003373ffffffffffffffffffffffffffffffffffffffff1673ffffffffffffffffffffffffffffffffffffffff16815260200190815260200160002060006101000a81548160ff0219169083151502179055505b6040518060400160405280600681526020017f46656d616c65000000000000000000000000000000000000000000000000000081525080519060200120828051906020012014156105ad5760288310156104c6576001600481111561047157610470610cf6565b5b81600481111561048457610483610cf6565b5b14156104c5576040517f08c379a00000000000000000000000000000000000000000000000000000000081526004016104bc90610f46565b60405180910390fd5b5b604051806060016040528084815260200183815260200142815250600360003373ffffffffffffffffffffffffffffffffffffffff1673ffffffffffffffffffffffffffffffffffffffff16815260200190815260200160002060008201518160000155602082015181600101908051906020019061054692919061091b565b50604082015181600201559050506001600260003373ffffffffffffffffffffffffffffffffffffffff1673ffffffffffffffffffffffffffffffffffffffff16815260200190815260200160002060006101000a81548160ff0219169083151502179055505b505050565b60011515600260003373ffffffffffffffffffffffffffffffffffffffff1673ffffffffffffffffffffffffffffffffffffffff16815260200190815260200160002060009054906101000a900460ff16151514610645576040517f08c379a000000000000000000000000000000000000000000000000000000000815260040161063c90610fb2565b60405180910390fd5b4261012c600360003373ffffffffffffffffffffffffffffffffffffffff1673ffffffffffffffffffffffffffffffffffffffff168152602001908152602001600020600201546106969190610fd2565b106106d6576040517f08c379a00000000000000000000000000000000000000000000000000000000081526004016106cd90611074565b60405180910390fd5b6000600260003373ffffffffffffffffffffffffffffffffffffffff1673ffffffffffffffffffffffffffffffffffffffff16815260200190815260200160002060006101000a81548160ff021916908315150217905550600180600083600481111561074657610745610cf6565b5b600481111561075857610757610cf6565b5b815260200190815260200160002060008282546107759190610fd2565b925050819055506107846109a1565b80600360003373ffffffffffffffffffffffffffffffffffffffff1673ffffffffffffffffffffffffffffffffffffffff1681526020019081526020016000206000820151816000015560208201518160010190805190602001906107ea92919061091b565b50604082015181600201559050505050565b600060019054906101000a900473ffffffffffffffffffffffffffffffffffffffff1673ffffffffffffffffffffffffffffffffffffffff163373ffffffffffffffffffffffffffffffffffffffff161461088c576040517f08c379a0000000000000000000000000000000000000000000000000000000008152600401610883906110e0565b60405180910390fd5b80600160008460048111156108a4576108a3610cf6565b5b60048111156108b6576108b5610cf6565b5b8152602001908152602001600020819055505050565b60016020528060005260406000206000915090505481565b600060019054906101000a900473ffffffffffffffffffffffffffffffffffffffff1681565b60008054906101000a900460ff1681565b8280546109279061112f565b90600052602060002090601f0160209004810192826109495760008555610990565b82601f1061096257805160ff1916838001178555610990565b82800160010185558215610990579182015b8281111561098f578251825591602001919060010190610974565b5b50905061099d91906109c2565b5090565b60405180606001604052806000815260200160608152602001600081525090565b5b808211156109db5760008160009055506001016109c3565b5090565b6000604051905090565b600080fd5b600080fd5b6000819050919050565b610a06816109f3565b8114610a1157600080fd5b50565b600081359050610a23816109fd565b92915050565b600080fd5b600080fd5b6000601f19601f8301169050919050565b7f4e487b7100000000000000000000000000000000000000000000000000000000600052604160045260246000fd5b610a7c82610a33565b810181811067ffffffffffffffff82111715610a9b57610a9a610a44565b5b80604052505050565b6000610aae6109df565b9050610aba8282610a73565b919050565b600067ffffffffffffffff821115610ada57610ad9610a44565b5b610ae382610a33565b9050602081019050919050565b82818337600083830152505050565b6000610b12610b0d84610abf565b610aa4565b905082815260208101848484011115610b2e57610b2d610a2e565b5b610b39848285610af0565b509392505050565b600082601f830112610b5657610b55610a29565b5b8135610b66848260208601610aff565b91505092915050565b60058110610b7c57600080fd5b50565b600081359050610b8e81610b6f565b92915050565b600080600060608486031215610bad57610bac6109e9565b5b6000610bbb86828701610a14565b935050602084013567ffffffffffffffff811115610bdc57610bdb6109ee565b5b610be886828701610b41565b9250506040610bf986828701610b7f565b9150509250925092565b600060208284031215610c1957610c186109e9565b5b6000610c2784828501610b7f565b91505092915050565b60008060408385031215610c4757610c466109e9565b5b6000610c5585828601610b7f565b9250506020610c6685828601610a14565b9150509250929050565b610c79816109f3565b82525050565b6000602082019050610c946000830184610c70565b92915050565b600073ffffffffffffffffffffffffffffffffffffffff82169050919050565b6000610cc582610c9a565b9050919050565b610cd581610cba565b82525050565b6000602082019050610cf06000830184610ccc565b92915050565b7f4e487b7100000000000000000000000000000000000000000000000000000000600052602160045260246000fd5b60058110610d3657610d35610cf6565b5b50565b6000819050610d4782610d25565b919050565b6000610d5782610d39565b9050919050565b610d6781610d4c565b82525050565b6000602082019050610d826000830184610d5e565b92915050565b600082825260208201905092915050565b7f596f7520616c7265616479206861766520626f72726f7765642074686520616e60008201527f696d616c00000000000000000000000000000000000000000000000000000000602082015250565b6000610df5602483610d88565b9150610e0082610d99565b604082019050919050565b60006020820190508181036000830152610e2481610de8565b9050919050565b7f596f752063616e206f6e6c792062757920646f67206f72206669736800000000600082015250565b6000610e61601c83610d88565b9150610e6c82610e2b565b602082019050919050565b60006020820190508181036000830152610e9081610e54565b9050919050565b7f4e487b7100000000000000000000000000000000000000000000000000000000600052601160045260246000fd5b6000610ed1826109f3565b9150610edc836109f3565b925082821015610eef57610eee610e97565b5b828203905092915050565b7f596f7520617265206e6f7420616c6c6f77656420746f20627579206361740000600082015250565b6000610f30601e83610d88565b9150610f3b82610efa565b602082019050919050565b60006020820190508181036000830152610f5f81610f23565b9050919050565b7f596f7520686176656e2774206c656e642074686520616e696d616c2079657400600082015250565b6000610f9c601f83610d88565b9150610fa782610f66565b602082019050919050565b60006020820190508181036000830152610fcb81610f8f565b9050919050565b6000610fdd826109f3565b9150610fe8836109f3565b9250827fffffffffffffffffffffffffffffffffffffffffffffffffffffffffffffffff0382111561101d5761101c610e97565b5b828201905092915050565b7f4974206973206d6f7265207468616e2035206d696e75746573206e6f77200000600082015250565b600061105e601e83610d88565b915061106982611028565b602082019050919050565b6000602082019050818103600083015261108d81611051565b9050919050565b7f4f6e6c79206f776e65722063616e2067697665207368656c7465722000000000600082015250565b60006110ca601c83610d88565b91506110d582611094565b602082019050919050565b600060208201905081810360008301526110f9816110bd565b9050919050565b7f4e487b7100000000000000000000000000000000000000000000000000000000600052602260045260246000fd5b6000600282049050600182168061114757607f821691505b6020821081141561115b5761115a611100565b5b5091905056fea264697066735822122057ec45cdb3bfe88300bbe80027da398a344deb6754d5f4fb3ba672c8897c310764736f6c63430008090033",
					"opcodes": "PUSH1 0x80 PUSH1 0x40 MSTORE CALLVALUE DUP1 ISZERO PUSH2 0x10 JUMPI PUSH1 0x0 DUP1 REVERT JUMPDEST POP CALLER PUSH1 0x0 PUSH1 0x1 PUSH2 0x100 EXP DUP2 SLOAD DUP2 PUSH20 0xFFFFFFFFFFFFFFFFFFFFFFFFFFFFFFFFFFFFFFFF MUL NOT AND SWAP1 DUP4 PUSH20 0xFFFFFFFFFFFFFFFFFFFFFFFFFFFFFFFFFFFFFFFF AND MUL OR SWAP1 SSTORE POP PUSH2 0x1197 DUP1 PUSH2 0x61 PUSH1 0x0 CODECOPY PUSH1 0x0 RETURN INVALID PUSH1 0x80 PUSH1 0x40 MSTORE CALLVALUE DUP1 ISZERO PUSH2 0x10 JUMPI PUSH1 0x0 DUP1 REVERT JUMPDEST POP PUSH1 0x4 CALLDATASIZE LT PUSH2 0x62 JUMPI PUSH1 0x0 CALLDATALOAD PUSH1 0xE0 SHR DUP1 PUSH4 0x7F93F17 EQ PUSH2 0x67 JUMPI DUP1 PUSH4 0xD04D05A EQ PUSH2 0x83 JUMPI DUP1 PUSH4 0x1B54AC80 EQ PUSH2 0x9F JUMPI DUP1 PUSH4 0x2B23461F EQ PUSH2 0xBB JUMPI DUP1 PUSH4 0x8DA5CB5B EQ PUSH2 0xEB JUMPI DUP1 PUSH4 0xEC73CAB5 EQ PUSH2 0x109 JUMPI JUMPDEST PUSH1 0x0 DUP1 REVERT JUMPDEST PUSH2 0x81 PUSH1 0x4 DUP1 CALLDATASIZE SUB DUP2 ADD SWAP1 PUSH2 0x7C SWAP2 SWAP1 PUSH2 0xB94 JUMP JUMPDEST PUSH2 0x127 JUMP JUMPDEST STOP JUMPDEST PUSH2 0x9D PUSH1 0x4 DUP1 CALLDATASIZE SUB DUP2 ADD SWAP1 PUSH2 0x98 SWAP2 SWAP1 PUSH2 0xC03 JUMP JUMPDEST PUSH2 0x5B2 JUMP JUMPDEST STOP JUMPDEST PUSH2 0xB9 PUSH1 0x4 DUP1 CALLDATASIZE SUB DUP2 ADD SWAP1 PUSH2 0xB4 SWAP2 SWAP1 PUSH2 0xC30 JUMP JUMPDEST PUSH2 0x7FC JUMP JUMPDEST STOP JUMPDEST PUSH2 0xD5 PUSH1 0x4 DUP1 CALLDATASIZE SUB DUP2 ADD SWAP1 PUSH2 0xD0 SWAP2 SWAP1 PUSH2 0xC03 JUMP JUMPDEST PUSH2 0x8CC JUMP JUMPDEST PUSH1 0x40 MLOAD PUSH2 0xE2 SWAP2 SWAP1 PUSH2 0xC7F JUMP JUMPDEST PUSH1 0x40 MLOAD DUP1 SWAP2 SUB SWAP1 RETURN JUMPDEST PUSH2 0xF3 PUSH2 0x8E4 JUMP JUMPDEST PUSH1 0x40 MLOAD PUSH2 0x100 SWAP2 SWAP1 PUSH2 0xCDB JUMP JUMPDEST PUSH1 0x40 MLOAD DUP1 SWAP2 SUB SWAP1 RETURN JUMPDEST PUSH2 0x111 PUSH2 0x90A JUMP JUMPDEST PUSH1 0x40 MLOAD PUSH2 0x11E SWAP2 SWAP1 PUSH2 0xD6D JUMP JUMPDEST PUSH1 0x40 MLOAD DUP1 SWAP2 SUB SWAP1 RETURN JUMPDEST PUSH1 0x1 ISZERO ISZERO PUSH1 0x2 PUSH1 0x0 CALLER PUSH20 0xFFFFFFFFFFFFFFFFFFFFFFFFFFFFFFFFFFFFFFFF AND PUSH20 0xFFFFFFFFFFFFFFFFFFFFFFFFFFFFFFFFFFFFFFFF AND DUP2 MSTORE PUSH1 0x20 ADD SWAP1 DUP2 MSTORE PUSH1 0x20 ADD PUSH1 0x0 KECCAK256 PUSH1 0x0 SWAP1 SLOAD SWAP1 PUSH2 0x100 EXP SWAP1 DIV PUSH1 0xFF AND ISZERO ISZERO EQ ISZERO PUSH2 0x1BB JUMPI PUSH1 0x40 MLOAD PUSH32 0x8C379A000000000000000000000000000000000000000000000000000000000 DUP2 MSTORE PUSH1 0x4 ADD PUSH2 0x1B2 SWAP1 PUSH2 0xE0B JUMP JUMPDEST PUSH1 0x40 MLOAD DUP1 SWAP2 SUB SWAP1 REVERT JUMPDEST PUSH1 0x40 MLOAD DUP1 PUSH1 0x40 ADD PUSH1 0x40 MSTORE DUP1 PUSH1 0x4 DUP2 MSTORE PUSH1 0x20 ADD PUSH32 0x4D616C6500000000000000000000000000000000000000000000000000000000 DUP2 MSTORE POP DUP1 MLOAD SWAP1 PUSH1 0x20 ADD KECCAK256 DUP3 DUP1 MLOAD SWAP1 PUSH1 0x20 ADD KECCAK256 EQ ISZERO PUSH2 0x409 JUMPI PUSH1 0x2 PUSH1 0x4 DUP2 GT ISZERO PUSH2 0x21A JUMPI PUSH2 0x219 PUSH2 0xCF6 JUMP JUMPDEST JUMPDEST DUP2 PUSH1 0x4 DUP2 GT ISZERO PUSH2 0x22D JUMPI PUSH2 0x22C PUSH2 0xCF6 JUMP JUMPDEST JUMPDEST EQ PUSH2 0x26D JUMPI PUSH1 0x40 MLOAD PUSH32 0x8C379A000000000000000000000000000000000000000000000000000000000 DUP2 MSTORE PUSH1 0x4 ADD PUSH2 0x264 SWAP1 PUSH2 0xE77 JUMP JUMPDEST PUSH1 0x40 MLOAD DUP1 SWAP2 SUB SWAP1 REVERT JUMPDEST PUSH1 0x0 PUSH1 0x4 DUP2 GT ISZERO PUSH2 0x281 JUMPI PUSH2 0x280 PUSH2 0xCF6 JUMP JUMPDEST JUMPDEST DUP2 PUSH1 0x4 DUP2 GT ISZERO PUSH2 0x294 JUMPI PUSH2 0x293 PUSH2 0xCF6 JUMP JUMPDEST JUMPDEST EQ PUSH2 0x2D4 JUMPI PUSH1 0x40 MLOAD PUSH32 0x8C379A000000000000000000000000000000000000000000000000000000000 DUP2 MSTORE PUSH1 0x4 ADD PUSH2 0x2CB SWAP1 PUSH2 0xE77 JUMP JUMPDEST PUSH1 0x40 MLOAD DUP1 SWAP2 SUB SWAP1 REVERT JUMPDEST PUSH1 0x40 MLOAD DUP1 PUSH1 0x60 ADD PUSH1 0x40 MSTORE DUP1 DUP5 DUP2 MSTORE PUSH1 0x20 ADD DUP4 DUP2 MSTORE PUSH1 0x20 ADD TIMESTAMP DUP2 MSTORE POP PUSH1 0x3 PUSH1 0x0 CALLER PUSH20 0xFFFFFFFFFFFFFFFFFFFFFFFFFFFFFFFFFFFFFFFF AND PUSH20 0xFFFFFFFFFFFFFFFFFFFFFFFFFFFFFFFFFFFFFFFF AND DUP2 MSTORE PUSH1 0x20 ADD SWAP1 DUP2 MSTORE PUSH1 0x20 ADD PUSH1 0x0 KECCAK256 PUSH1 0x0 DUP3 ADD MLOAD DUP2 PUSH1 0x0 ADD SSTORE PUSH1 0x20 DUP3 ADD MLOAD DUP2 PUSH1 0x1 ADD SWAP1 DUP1 MLOAD SWAP1 PUSH1 0x20 ADD SWAP1 PUSH2 0x354 SWAP3 SWAP2 SWAP1 PUSH2 0x91B JUMP JUMPDEST POP PUSH1 0x40 DUP3 ADD MLOAD DUP2 PUSH1 0x2 ADD SSTORE SWAP1 POP POP PUSH1 0x1 DUP1 PUSH1 0x0 DUP4 PUSH1 0x4 DUP2 GT ISZERO PUSH2 0x37A JUMPI PUSH2 0x379 PUSH2 0xCF6 JUMP JUMPDEST JUMPDEST PUSH1 0x4 DUP2 GT ISZERO PUSH2 0x38C JUMPI PUSH2 0x38B PUSH2 0xCF6 JUMP JUMPDEST JUMPDEST DUP2 MSTORE PUSH1 0x20 ADD SWAP1 DUP2 MSTORE PUSH1 0x20 ADD PUSH1 0x0 KECCAK256 PUSH1 0x0 DUP3 DUP3 SLOAD PUSH2 0x3A9 SWAP2 SWAP1 PUSH2 0xEC6 JUMP JUMPDEST SWAP3 POP POP DUP2 SWAP1 SSTORE POP PUSH1 0x1 PUSH1 0x2 PUSH1 0x0 CALLER PUSH20 0xFFFFFFFFFFFFFFFFFFFFFFFFFFFFFFFFFFFFFFFF AND PUSH20 0xFFFFFFFFFFFFFFFFFFFFFFFFFFFFFFFFFFFFFFFF AND DUP2 MSTORE PUSH1 0x20 ADD SWAP1 DUP2 MSTORE PUSH1 0x20 ADD PUSH1 0x0 KECCAK256 PUSH1 0x0 PUSH2 0x100 EXP DUP2 SLOAD DUP2 PUSH1 0xFF MUL NOT AND SWAP1 DUP4 ISZERO ISZERO MUL OR SWAP1 SSTORE POP JUMPDEST PUSH1 0x40 MLOAD DUP1 PUSH1 0x40 ADD PUSH1 0x40 MSTORE DUP1 PUSH1 0x6 DUP2 MSTORE PUSH1 0x20 ADD PUSH32 0x46656D616C650000000000000000000000000000000000000000000000000000 DUP2 MSTORE POP DUP1 MLOAD SWAP1 PUSH1 0x20 ADD KECCAK256 DUP3 DUP1 MLOAD SWAP1 PUSH1 0x20 ADD KECCAK256 EQ ISZERO PUSH2 0x5AD JUMPI PUSH1 0x28 DUP4 LT ISZERO PUSH2 0x4C6 JUMPI PUSH1 0x1 PUSH1 0x4 DUP2 GT ISZERO PUSH2 0x471 JUMPI PUSH2 0x470 PUSH2 0xCF6 JUMP JUMPDEST JUMPDEST DUP2 PUSH1 0x4 DUP2 GT ISZERO PUSH2 0x484 JUMPI PUSH2 0x483 PUSH2 0xCF6 JUMP JUMPDEST JUMPDEST EQ ISZERO PUSH2 0x4C5 JUMPI PUSH1 0x40 MLOAD PUSH32 0x8C379A000000000000000000000000000000000000000000000000000000000 DUP2 MSTORE PUSH1 0x4 ADD PUSH2 0x4BC SWAP1 PUSH2 0xF46 JUMP JUMPDEST PUSH1 0x40 MLOAD DUP1 SWAP2 SUB SWAP1 REVERT JUMPDEST JUMPDEST PUSH1 0x40 MLOAD DUP1 PUSH1 0x60 ADD PUSH1 0x40 MSTORE DUP1 DUP5 DUP2 MSTORE PUSH1 0x20 ADD DUP4 DUP2 MSTORE PUSH1 0x20 ADD TIMESTAMP DUP2 MSTORE POP PUSH1 0x3 PUSH1 0x0 CALLER PUSH20 0xFFFFFFFFFFFFFFFFFFFFFFFFFFFFFFFFFFFFFFFF AND PUSH20 0xFFFFFFFFFFFFFFFFFFFFFFFFFFFFFFFFFFFFFFFF AND DUP2 MSTORE PUSH1 0x20 ADD SWAP1 DUP2 MSTORE PUSH1 0x20 ADD PUSH1 0x0 KECCAK256 PUSH1 0x0 DUP3 ADD MLOAD DUP2 PUSH1 0x0 ADD SSTORE PUSH1 0x20 DUP3 ADD MLOAD DUP2 PUSH1 0x1 ADD SWAP1 DUP1 MLOAD SWAP1 PUSH1 0x20 ADD SWAP1 PUSH2 0x546 SWAP3 SWAP2 SWAP1 PUSH2 0x91B JUMP JUMPDEST POP PUSH1 0x40 DUP3 ADD MLOAD DUP2 PUSH1 0x2 ADD SSTORE SWAP1 POP POP PUSH1 0x1 PUSH1 0x2 PUSH1 0x0 CALLER PUSH20 0xFFFFFFFFFFFFFFFFFFFFFFFFFFFFFFFFFFFFFFFF AND PUSH20 0xFFFFFFFFFFFFFFFFFFFFFFFFFFFFFFFFFFFFFFFF AND DUP2 MSTORE PUSH1 0x20 ADD SWAP1 DUP2 MSTORE PUSH1 0x20 ADD PUSH1 0x0 KECCAK256 PUSH1 0x0 PUSH2 0x100 EXP DUP2 SLOAD DUP2 PUSH1 0xFF MUL NOT AND SWAP1 DUP4 ISZERO ISZERO MUL OR SWAP1 SSTORE POP JUMPDEST POP POP POP JUMP JUMPDEST PUSH1 0x1 ISZERO ISZERO PUSH1 0x2 PUSH1 0x0 CALLER PUSH20 0xFFFFFFFFFFFFFFFFFFFFFFFFFFFFFFFFFFFFFFFF AND PUSH20 0xFFFFFFFFFFFFFFFFFFFFFFFFFFFFFFFFFFFFFFFF AND DUP2 MSTORE PUSH1 0x20 ADD SWAP1 DUP2 MSTORE PUSH1 0x20 ADD PUSH1 0x0 KECCAK256 PUSH1 0x0 SWAP1 SLOAD SWAP1 PUSH2 0x100 EXP SWAP1 DIV PUSH1 0xFF AND ISZERO ISZERO EQ PUSH2 0x645 JUMPI PUSH1 0x40 MLOAD PUSH32 0x8C379A000000000000000000000000000000000000000000000000000000000 DUP2 MSTORE PUSH1 0x4 ADD PUSH2 0x63C SWAP1 PUSH2 0xFB2 JUMP JUMPDEST PUSH1 0x40 MLOAD DUP1 SWAP2 SUB SWAP1 REVERT JUMPDEST TIMESTAMP PUSH2 0x12C PUSH1 0x3 PUSH1 0x0 CALLER PUSH20 0xFFFFFFFFFFFFFFFFFFFFFFFFFFFFFFFFFFFFFFFF AND PUSH20 0xFFFFFFFFFFFFFFFFFFFFFFFFFFFFFFFFFFFFFFFF AND DUP2 MSTORE PUSH1 0x20 ADD SWAP1 DUP2 MSTORE PUSH1 0x20 ADD PUSH1 0x0 KECCAK256 PUSH1 0x2 ADD SLOAD PUSH2 0x696 SWAP2 SWAP1 PUSH2 0xFD2 JUMP JUMPDEST LT PUSH2 0x6D6 JUMPI PUSH1 0x40 MLOAD PUSH32 0x8C379A000000000000000000000000000000000000000000000000000000000 DUP2 MSTORE PUSH1 0x4 ADD PUSH2 0x6CD SWAP1 PUSH2 0x1074 JUMP JUMPDEST PUSH1 0x40 MLOAD DUP1 SWAP2 SUB SWAP1 REVERT JUMPDEST PUSH1 0x0 PUSH1 0x2 PUSH1 0x0 CALLER PUSH20 0xFFFFFFFFFFFFFFFFFFFFFFFFFFFFFFFFFFFFFFFF AND PUSH20 0xFFFFFFFFFFFFFFFFFFFFFFFFFFFFFFFFFFFFFFFF AND DUP2 MSTORE PUSH1 0x20 ADD SWAP1 DUP2 MSTORE PUSH1 0x20 ADD PUSH1 0x0 KECCAK256 PUSH1 0x0 PUSH2 0x100 EXP DUP2 SLOAD DUP2 PUSH1 0xFF MUL NOT AND SWAP1 DUP4 ISZERO ISZERO MUL OR SWAP1 SSTORE POP PUSH1 0x1 DUP1 PUSH1 0x0 DUP4 PUSH1 0x4 DUP2 GT ISZERO PUSH2 0x746 JUMPI PUSH2 0x745 PUSH2 0xCF6 JUMP JUMPDEST JUMPDEST PUSH1 0x4 DUP2 GT ISZERO PUSH2 0x758 JUMPI PUSH2 0x757 PUSH2 0xCF6 JUMP JUMPDEST JUMPDEST DUP2 MSTORE PUSH1 0x20 ADD SWAP1 DUP2 MSTORE PUSH1 0x20 ADD PUSH1 0x0 KECCAK256 PUSH1 0x0 DUP3 DUP3 SLOAD PUSH2 0x775 SWAP2 SWAP1 PUSH2 0xFD2 JUMP JUMPDEST SWAP3 POP POP DUP2 SWAP1 SSTORE POP PUSH2 0x784 PUSH2 0x9A1 JUMP JUMPDEST DUP1 PUSH1 0x3 PUSH1 0x0 CALLER PUSH20 0xFFFFFFFFFFFFFFFFFFFFFFFFFFFFFFFFFFFFFFFF AND PUSH20 0xFFFFFFFFFFFFFFFFFFFFFFFFFFFFFFFFFFFFFFFF AND DUP2 MSTORE PUSH1 0x20 ADD SWAP1 DUP2 MSTORE PUSH1 0x20 ADD PUSH1 0x0 KECCAK256 PUSH1 0x0 DUP3 ADD MLOAD DUP2 PUSH1 0x0 ADD SSTORE PUSH1 0x20 DUP3 ADD MLOAD DUP2 PUSH1 0x1 ADD SWAP1 DUP1 MLOAD SWAP1 PUSH1 0x20 ADD SWAP1 PUSH2 0x7EA SWAP3 SWAP2 SWAP1 PUSH2 0x91B JUMP JUMPDEST POP PUSH1 0x40 DUP3 ADD MLOAD DUP2 PUSH1 0x2 ADD SSTORE SWAP1 POP POP POP POP JUMP JUMPDEST PUSH1 0x0 PUSH1 0x1 SWAP1 SLOAD SWAP1 PUSH2 0x100 EXP SWAP1 DIV PUSH20 0xFFFFFFFFFFFFFFFFFFFFFFFFFFFFFFFFFFFFFFFF AND PUSH20 0xFFFFFFFFFFFFFFFFFFFFFFFFFFFFFFFFFFFFFFFF AND CALLER PUSH20 0xFFFFFFFFFFFFFFFFFFFFFFFFFFFFFFFFFFFFFFFF AND EQ PUSH2 0x88C JUMPI PUSH1 0x40 MLOAD PUSH32 0x8C379A000000000000000000000000000000000000000000000000000000000 DUP2 MSTORE PUSH1 0x4 ADD PUSH2 0x883 SWAP1 PUSH2 0x10E0 JUMP JUMPDEST PUSH1 0x40 MLOAD DUP1 SWAP2 SUB SWAP1 REVERT JUMPDEST DUP1 PUSH1 0x1 PUSH1 0x0 DUP5 PUSH1 0x4 DUP2 GT ISZERO PUSH2 0x8A4 JUMPI PUSH2 0x8A3 PUSH2 0xCF6 JUMP JUMPDEST JUMPDEST PUSH1 0x4 DUP2 GT ISZERO PUSH2 0x8B6 JUMPI PUSH2 0x8B5 PUSH2 0xCF6 JUMP JUMPDEST JUMPDEST DUP2 MSTORE PUSH1 0x20 ADD SWAP1 DUP2 MSTORE PUSH1 0x20 ADD PUSH1 0x0 KECCAK256 DUP2 SWAP1 SSTORE POP POP POP JUMP JUMPDEST PUSH1 0x1 PUSH1 0x20 MSTORE DUP1 PUSH1 0x0 MSTORE PUSH1 0x40 PUSH1 0x0 KECCAK256 PUSH1 0x0 SWAP2 POP SWAP1 POP SLOAD DUP2 JUMP JUMPDEST PUSH1 0x0 PUSH1 0x1 SWAP1 SLOAD SWAP1 PUSH2 0x100 EXP SWAP1 DIV PUSH20 0xFFFFFFFFFFFFFFFFFFFFFFFFFFFFFFFFFFFFFFFF AND DUP2 JUMP JUMPDEST PUSH1 0x0 DUP1 SLOAD SWAP1 PUSH2 0x100 EXP SWAP1 DIV PUSH1 0xFF AND DUP2 JUMP JUMPDEST DUP3 DUP1 SLOAD PUSH2 0x927 SWAP1 PUSH2 0x112F JUMP JUMPDEST SWAP1 PUSH1 0x0 MSTORE PUSH1 0x20 PUSH1 0x0 KECCAK256 SWAP1 PUSH1 0x1F ADD PUSH1 0x20 SWAP1 DIV DUP2 ADD SWAP3 DUP3 PUSH2 0x949 JUMPI PUSH1 0x0 DUP6 SSTORE PUSH2 0x990 JUMP JUMPDEST DUP3 PUSH1 0x1F LT PUSH2 0x962 JUMPI DUP1 MLOAD PUSH1 0xFF NOT AND DUP4 DUP1 ADD OR DUP6 SSTORE PUSH2 0x990 JUMP JUMPDEST DUP3 DUP1 ADD PUSH1 0x1 ADD DUP6 SSTORE DUP3 ISZERO PUSH2 0x990 JUMPI SWAP2 DUP3 ADD JUMPDEST DUP3 DUP2 GT ISZERO PUSH2 0x98F JUMPI DUP3 MLOAD DUP3 SSTORE SWAP2 PUSH1 0x20 ADD SWAP2 SWAP1 PUSH1 0x1 ADD SWAP1 PUSH2 0x974 JUMP JUMPDEST JUMPDEST POP SWAP1 POP PUSH2 0x99D SWAP2 SWAP1 PUSH2 0x9C2 JUMP JUMPDEST POP SWAP1 JUMP JUMPDEST PUSH1 0x40 MLOAD DUP1 PUSH1 0x60 ADD PUSH1 0x40 MSTORE DUP1 PUSH1 0x0 DUP2 MSTORE PUSH1 0x20 ADD PUSH1 0x60 DUP2 MSTORE PUSH1 0x20 ADD PUSH1 0x0 DUP2 MSTORE POP SWAP1 JUMP JUMPDEST JUMPDEST DUP1 DUP3 GT ISZERO PUSH2 0x9DB JUMPI PUSH1 0x0 DUP2 PUSH1 0x0 SWAP1 SSTORE POP PUSH1 0x1 ADD PUSH2 0x9C3 JUMP JUMPDEST POP SWAP1 JUMP JUMPDEST PUSH1 0x0 PUSH1 0x40 MLOAD SWAP1 POP SWAP1 JUMP JUMPDEST PUSH1 0x0 DUP1 REVERT JUMPDEST PUSH1 0x0 DUP1 REVERT JUMPDEST PUSH1 0x0 DUP2 SWAP1 POP SWAP2 SWAP1 POP JUMP JUMPDEST PUSH2 0xA06 DUP2 PUSH2 0x9F3 JUMP JUMPDEST DUP2 EQ PUSH2 0xA11 JUMPI PUSH1 0x0 DUP1 REVERT JUMPDEST POP JUMP JUMPDEST PUSH1 0x0 DUP2 CALLDATALOAD SWAP1 POP PUSH2 0xA23 DUP2 PUSH2 0x9FD JUMP JUMPDEST SWAP3 SWAP2 POP POP JUMP JUMPDEST PUSH1 0x0 DUP1 REVERT JUMPDEST PUSH1 0x0 DUP1 REVERT JUMPDEST PUSH1 0x0 PUSH1 0x1F NOT PUSH1 0x1F DUP4 ADD AND SWAP1 POP SWAP2 SWAP1 POP JUMP JUMPDEST PUSH32 0x4E487B7100000000000000000000000000000000000000000000000000000000 PUSH1 0x0 MSTORE PUSH1 0x41 PUSH1 0x4 MSTORE PUSH1 0x24 PUSH1 0x0 REVERT JUMPDEST PUSH2 0xA7C DUP3 PUSH2 0xA33 JUMP JUMPDEST DUP2 ADD DUP2 DUP2 LT PUSH8 0xFFFFFFFFFFFFFFFF DUP3 GT OR ISZERO PUSH2 0xA9B JUMPI PUSH2 0xA9A PUSH2 0xA44 JUMP JUMPDEST JUMPDEST DUP1 PUSH1 0x40 MSTORE POP POP POP JUMP JUMPDEST PUSH1 0x0 PUSH2 0xAAE PUSH2 0x9DF JUMP JUMPDEST SWAP1 POP PUSH2 0xABA DUP3 DUP3 PUSH2 0xA73 JUMP JUMPDEST SWAP2 SWAP1 POP JUMP JUMPDEST PUSH1 0x0 PUSH8 0xFFFFFFFFFFFFFFFF DUP3 GT ISZERO PUSH2 0xADA JUMPI PUSH2 0xAD9 PUSH2 0xA44 JUMP JUMPDEST JUMPDEST PUSH2 0xAE3 DUP3 PUSH2 0xA33 JUMP JUMPDEST SWAP1 POP PUSH1 0x20 DUP2 ADD SWAP1 POP SWAP2 SWAP1 POP JUMP JUMPDEST DUP3 DUP2 DUP4 CALLDATACOPY PUSH1 0x0 DUP4 DUP4 ADD MSTORE POP POP POP JUMP JUMPDEST PUSH1 0x0 PUSH2 0xB12 PUSH2 0xB0D DUP5 PUSH2 0xABF JUMP JUMPDEST PUSH2 0xAA4 JUMP JUMPDEST SWAP1 POP DUP3 DUP2 MSTORE PUSH1 0x20 DUP2 ADD DUP5 DUP5 DUP5 ADD GT ISZERO PUSH2 0xB2E JUMPI PUSH2 0xB2D PUSH2 0xA2E JUMP JUMPDEST JUMPDEST PUSH2 0xB39 DUP5 DUP3 DUP6 PUSH2 0xAF0 JUMP JUMPDEST POP SWAP4 SWAP3 POP POP POP JUMP JUMPDEST PUSH1 0x0 DUP3 PUSH1 0x1F DUP4 ADD SLT PUSH2 0xB56 JUMPI PUSH2 0xB55 PUSH2 0xA29 JUMP JUMPDEST JUMPDEST DUP2 CALLDATALOAD PUSH2 0xB66 DUP5 DUP3 PUSH1 0x20 DUP7 ADD PUSH2 0xAFF JUMP JUMPDEST SWAP2 POP POP SWAP3 SWAP2 POP POP JUMP JUMPDEST PUSH1 0x5 DUP2 LT PUSH2 0xB7C JUMPI PUSH1 0x0 DUP1 REVERT JUMPDEST POP JUMP JUMPDEST PUSH1 0x0 DUP2 CALLDATALOAD SWAP1 POP PUSH2 0xB8E DUP2 PUSH2 0xB6F JUMP JUMPDEST SWAP3 SWAP2 POP POP JUMP JUMPDEST PUSH1 0x0 DUP1 PUSH1 0x0 PUSH1 0x60 DUP5 DUP7 SUB SLT ISZERO PUSH2 0xBAD JUMPI PUSH2 0xBAC PUSH2 0x9E9 JUMP JUMPDEST JUMPDEST PUSH1 0x0 PUSH2 0xBBB DUP7 DUP3 DUP8 ADD PUSH2 0xA14 JUMP JUMPDEST SWAP4 POP POP PUSH1 0x20 DUP5 ADD CALLDATALOAD PUSH8 0xFFFFFFFFFFFFFFFF DUP2 GT ISZERO PUSH2 0xBDC JUMPI PUSH2 0xBDB PUSH2 0x9EE JUMP JUMPDEST JUMPDEST PUSH2 0xBE8 DUP7 DUP3 DUP8 ADD PUSH2 0xB41 JUMP JUMPDEST SWAP3 POP POP PUSH1 0x40 PUSH2 0xBF9 DUP7 DUP3 DUP8 ADD PUSH2 0xB7F JUMP JUMPDEST SWAP2 POP POP SWAP3 POP SWAP3 POP SWAP3 JUMP JUMPDEST PUSH1 0x0 PUSH1 0x20 DUP3 DUP5 SUB SLT ISZERO PUSH2 0xC19 JUMPI PUSH2 0xC18 PUSH2 0x9E9 JUMP JUMPDEST JUMPDEST PUSH1 0x0 PUSH2 0xC27 DUP5 DUP3 DUP6 ADD PUSH2 0xB7F JUMP JUMPDEST SWAP2 POP POP SWAP3 SWAP2 POP POP JUMP JUMPDEST PUSH1 0x0 DUP1 PUSH1 0x40 DUP4 DUP6 SUB SLT ISZERO PUSH2 0xC47 JUMPI PUSH2 0xC46 PUSH2 0x9E9 JUMP JUMPDEST JUMPDEST PUSH1 0x0 PUSH2 0xC55 DUP6 DUP3 DUP7 ADD PUSH2 0xB7F JUMP JUMPDEST SWAP3 POP POP PUSH1 0x20 PUSH2 0xC66 DUP6 DUP3 DUP7 ADD PUSH2 0xA14 JUMP JUMPDEST SWAP2 POP POP SWAP3 POP SWAP3 SWAP1 POP JUMP JUMPDEST PUSH2 0xC79 DUP2 PUSH2 0x9F3 JUMP JUMPDEST DUP3 MSTORE POP POP JUMP JUMPDEST PUSH1 0x0 PUSH1 0x20 DUP3 ADD SWAP1 POP PUSH2 0xC94 PUSH1 0x0 DUP4 ADD DUP5 PUSH2 0xC70 JUMP JUMPDEST SWAP3 SWAP2 POP POP JUMP JUMPDEST PUSH1 0x0 PUSH20 0xFFFFFFFFFFFFFFFFFFFFFFFFFFFFFFFFFFFFFFFF DUP3 AND SWAP1 POP SWAP2 SWAP1 POP JUMP JUMPDEST PUSH1 0x0 PUSH2 0xCC5 DUP3 PUSH2 0xC9A JUMP JUMPDEST SWAP1 POP SWAP2 SWAP1 POP JUMP JUMPDEST PUSH2 0xCD5 DUP2 PUSH2 0xCBA JUMP JUMPDEST DUP3 MSTORE POP POP JUMP JUMPDEST PUSH1 0x0 PUSH1 0x20 DUP3 ADD SWAP1 POP PUSH2 0xCF0 PUSH1 0x0 DUP4 ADD DUP5 PUSH2 0xCCC JUMP JUMPDEST SWAP3 SWAP2 POP POP JUMP JUMPDEST PUSH32 0x4E487B7100000000000000000000000000000000000000000000000000000000 PUSH1 0x0 MSTORE PUSH1 0x21 PUSH1 0x4 MSTORE PUSH1 0x24 PUSH1 0x0 REVERT JUMPDEST PUSH1 0x5 DUP2 LT PUSH2 0xD36 JUMPI PUSH2 0xD35 PUSH2 0xCF6 JUMP JUMPDEST JUMPDEST POP JUMP JUMPDEST PUSH1 0x0 DUP2 SWAP1 POP PUSH2 0xD47 DUP3 PUSH2 0xD25 JUMP JUMPDEST SWAP2 SWAP1 POP JUMP JUMPDEST PUSH1 0x0 PUSH2 0xD57 DUP3 PUSH2 0xD39 JUMP JUMPDEST SWAP1 POP SWAP2 SWAP1 POP JUMP JUMPDEST PUSH2 0xD67 DUP2 PUSH2 0xD4C JUMP JUMPDEST DUP3 MSTORE POP POP JUMP JUMPDEST PUSH1 0x0 PUSH1 0x20 DUP3 ADD SWAP1 POP PUSH2 0xD82 PUSH1 0x0 DUP4 ADD DUP5 PUSH2 0xD5E JUMP JUMPDEST SWAP3 SWAP2 POP POP JUMP JUMPDEST PUSH1 0x0 DUP3 DUP3 MSTORE PUSH1 0x20 DUP3 ADD SWAP1 POP SWAP3 SWAP2 POP POP JUMP JUMPDEST PUSH32 0x596F7520616C7265616479206861766520626F72726F7765642074686520616E PUSH1 0x0 DUP3 ADD MSTORE PUSH32 0x696D616C00000000000000000000000000000000000000000000000000000000 PUSH1 0x20 DUP3 ADD MSTORE POP JUMP JUMPDEST PUSH1 0x0 PUSH2 0xDF5 PUSH1 0x24 DUP4 PUSH2 0xD88 JUMP JUMPDEST SWAP2 POP PUSH2 0xE00 DUP3 PUSH2 0xD99 JUMP JUMPDEST PUSH1 0x40 DUP3 ADD SWAP1 POP SWAP2 SWAP1 POP JUMP JUMPDEST PUSH1 0x0 PUSH1 0x20 DUP3 ADD SWAP1 POP DUP2 DUP2 SUB PUSH1 0x0 DUP4 ADD MSTORE PUSH2 0xE24 DUP2 PUSH2 0xDE8 JUMP JUMPDEST SWAP1 POP SWAP2 SWAP1 POP JUMP JUMPDEST PUSH32 0x596F752063616E206F6E6C792062757920646F67206F72206669736800000000 PUSH1 0x0 DUP3 ADD MSTORE POP JUMP JUMPDEST PUSH1 0x0 PUSH2 0xE61 PUSH1 0x1C DUP4 PUSH2 0xD88 JUMP JUMPDEST SWAP2 POP PUSH2 0xE6C DUP3 PUSH2 0xE2B JUMP JUMPDEST PUSH1 0x20 DUP3 ADD SWAP1 POP SWAP2 SWAP1 POP JUMP JUMPDEST PUSH1 0x0 PUSH1 0x20 DUP3 ADD SWAP1 POP DUP2 DUP2 SUB PUSH1 0x0 DUP4 ADD MSTORE PUSH2 0xE90 DUP2 PUSH2 0xE54 JUMP JUMPDEST SWAP1 POP SWAP2 SWAP1 POP JUMP JUMPDEST PUSH32 0x4E487B7100000000000000000000000000000000000000000000000000000000 PUSH1 0x0 MSTORE PUSH1 0x11 PUSH1 0x4 MSTORE PUSH1 0x24 PUSH1 0x0 REVERT JUMPDEST PUSH1 0x0 PUSH2 0xED1 DUP3 PUSH2 0x9F3 JUMP JUMPDEST SWAP2 POP PUSH2 0xEDC DUP4 PUSH2 0x9F3 JUMP JUMPDEST SWAP3 POP DUP3 DUP3 LT ISZERO PUSH2 0xEEF JUMPI PUSH2 0xEEE PUSH2 0xE97 JUMP JUMPDEST JUMPDEST DUP3 DUP3 SUB SWAP1 POP SWAP3 SWAP2 POP POP JUMP JUMPDEST PUSH32 0x596F7520617265206E6F7420616C6C6F77656420746F20627579206361740000 PUSH1 0x0 DUP3 ADD MSTORE POP JUMP JUMPDEST PUSH1 0x0 PUSH2 0xF30 PUSH1 0x1E DUP4 PUSH2 0xD88 JUMP JUMPDEST SWAP2 POP PUSH2 0xF3B DUP3 PUSH2 0xEFA JUMP JUMPDEST PUSH1 0x20 DUP3 ADD SWAP1 POP SWAP2 SWAP1 POP JUMP JUMPDEST PUSH1 0x0 PUSH1 0x20 DUP3 ADD SWAP1 POP DUP2 DUP2 SUB PUSH1 0x0 DUP4 ADD MSTORE PUSH2 0xF5F DUP2 PUSH2 0xF23 JUMP JUMPDEST SWAP1 POP SWAP2 SWAP1 POP JUMP JUMPDEST PUSH32 0x596F7520686176656E2774206C656E642074686520616E696D616C2079657400 PUSH1 0x0 DUP3 ADD MSTORE POP JUMP JUMPDEST PUSH1 0x0 PUSH2 0xF9C PUSH1 0x1F DUP4 PUSH2 0xD88 JUMP JUMPDEST SWAP2 POP PUSH2 0xFA7 DUP3 PUSH2 0xF66 JUMP JUMPDEST PUSH1 0x20 DUP3 ADD SWAP1 POP SWAP2 SWAP1 POP JUMP JUMPDEST PUSH1 0x0 PUSH1 0x20 DUP3 ADD SWAP1 POP DUP2 DUP2 SUB PUSH1 0x0 DUP4 ADD MSTORE PUSH2 0xFCB DUP2 PUSH2 0xF8F JUMP JUMPDEST SWAP1 POP SWAP2 SWAP1 POP JUMP JUMPDEST PUSH1 0x0 PUSH2 0xFDD DUP3 PUSH2 0x9F3 JUMP JUMPDEST SWAP2 POP PUSH2 0xFE8 DUP4 PUSH2 0x9F3 JUMP JUMPDEST SWAP3 POP DUP3 PUSH32 0xFFFFFFFFFFFFFFFFFFFFFFFFFFFFFFFFFFFFFFFFFFFFFFFFFFFFFFFFFFFFFFFF SUB DUP3 GT ISZERO PUSH2 0x101D JUMPI PUSH2 0x101C PUSH2 0xE97 JUMP JUMPDEST JUMPDEST DUP3 DUP3 ADD SWAP1 POP SWAP3 SWAP2 POP POP JUMP JUMPDEST PUSH32 0x4974206973206D6F7265207468616E2035206D696E75746573206E6F77200000 PUSH1 0x0 DUP3 ADD MSTORE POP JUMP JUMPDEST PUSH1 0x0 PUSH2 0x105E PUSH1 0x1E DUP4 PUSH2 0xD88 JUMP JUMPDEST SWAP2 POP PUSH2 0x1069 DUP3 PUSH2 0x1028 JUMP JUMPDEST PUSH1 0x20 DUP3 ADD SWAP1 POP SWAP2 SWAP1 POP JUMP JUMPDEST PUSH1 0x0 PUSH1 0x20 DUP3 ADD SWAP1 POP DUP2 DUP2 SUB PUSH1 0x0 DUP4 ADD MSTORE PUSH2 0x108D DUP2 PUSH2 0x1051 JUMP JUMPDEST SWAP1 POP SWAP2 SWAP1 POP JUMP JUMPDEST PUSH32 0x4F6E6C79206F776E65722063616E2067697665207368656C7465722000000000 PUSH1 0x0 DUP3 ADD MSTORE POP JUMP JUMPDEST PUSH1 0x0 PUSH2 0x10CA PUSH1 0x1C DUP4 PUSH2 0xD88 JUMP JUMPDEST SWAP2 POP PUSH2 0x10D5 DUP3 PUSH2 0x1094 JUMP JUMPDEST PUSH1 0x20 DUP3 ADD SWAP1 POP SWAP2 SWAP1 POP JUMP JUMPDEST PUSH1 0x0 PUSH1 0x20 DUP3 ADD SWAP1 POP DUP2 DUP2 SUB PUSH1 0x0 DUP4 ADD MSTORE PUSH2 0x10F9 DUP2 PUSH2 0x10BD JUMP JUMPDEST SWAP1 POP SWAP2 SWAP1 POP JUMP JUMPDEST PUSH32 0x4E487B7100000000000000000000000000000000000000000000000000000000 PUSH1 0x0 MSTORE PUSH1 0x22 PUSH1 0x4 MSTORE PUSH1 0x24 PUSH1 0x0 REVERT JUMPDEST PUSH1 0x0 PUSH1 0x2 DUP3 DIV SWAP1 POP PUSH1 0x1 DUP3 AND DUP1 PUSH2 0x1147 JUMPI PUSH1 0x7F DUP3 AND SWAP2 POP JUMPDEST PUSH1 0x20 DUP3 LT DUP2 EQ ISZERO PUSH2 0x115B JUMPI PUSH2 0x115A PUSH2 0x1100 JUMP JUMPDEST JUMPDEST POP SWAP2 SWAP1 POP JUMP INVALID LOG2 PUSH5 0x6970667358 0x22 SLT KECCAK256 JUMPI 0xEC GASLIMIT 0xCD 0xB3 0xBF 0xE8 DUP4 STOP 0xBB 0xE8 STOP 0x27 0xDA CODECOPY DUP11 CALLVALUE 0x4D 0xEB PUSH8 0x54D5F4FB3BA672C8 DUP10 PUSH29 0x310764736F6C6343000809003300000000000000000000000000000000 "
				},
				"gasEstimates": {
					"creation": {
						"codeDepositCost": "900600",
						"executionCost": "25251",
						"totalCost": "925851"
					},
					"external": {
						"add(uint8,uint256)": "25022",
						"animalKind()": "2645",
						"animals(uint8)": "2766",
						"buy(uint256,string,uint8)": "infinite",
						"giveBackAnimal(uint8)": "infinite",
						"owner()": "2630"
					}
				},
				"methodIdentifiers": {
					"add(uint8,uint256)": "1b54ac80",
					"animalKind()": "ec73cab5",
					"animals(uint8)": "2b23461f",
					"buy(uint256,string,uint8)": "07f93f17",
					"giveBackAnimal(uint8)": "0d04d05a",
					"owner()": "8da5cb5b"
				}
			},
			"storageLayout": {
				"storage": [
					{
						"astId": 17,
						"contract": "PetSanctuary.sol:PetSanctuary",
						"label": "animalKind",
						"offset": 0,
						"slot": "0",
						"type": "t_enum(AnimalKind)14"
					},
					{
						"astId": 19,
						"contract": "PetSanctuary.sol:PetSanctuary",
						"label": "owner",
						"offset": 1,
						"slot": "0",
						"type": "t_address"
					},
					{
						"astId": 24,
						"contract": "PetSanctuary.sol:PetSanctuary",
						"label": "animals",
						"offset": 0,
						"slot": "1",
						"type": "t_mapping(t_enum(AnimalKind)14,t_uint256)"
					},
					{
						"astId": 28,
						"contract": "PetSanctuary.sol:PetSanctuary",
						"label": "buyStatus",
						"offset": 0,
						"slot": "2",
						"type": "t_mapping(t_address,t_bool)"
					},
					{
						"astId": 33,
						"contract": "PetSanctuary.sol:PetSanctuary",
						"label": "buyers",
						"offset": 0,
						"slot": "3",
						"type": "t_mapping(t_address,t_struct(Person)8_storage)"
					}
				],
				"types": {
					"t_address": {
						"encoding": "inplace",
						"label": "address",
						"numberOfBytes": "20"
					},
					"t_bool": {
						"encoding": "inplace",
						"label": "bool",
						"numberOfBytes": "1"
					},
					"t_enum(AnimalKind)14": {
						"encoding": "inplace",
						"label": "enum PetSanctuary.AnimalKind",
						"numberOfBytes": "1"
					},
					"t_mapping(t_address,t_bool)": {
						"encoding": "mapping",
						"key": "t_address",
						"label": "mapping(address => bool)",
						"numberOfBytes": "32",
						"value": "t_bool"
					},
					"t_mapping(t_address,t_struct(Person)8_storage)": {
						"encoding": "mapping",
						"key": "t_address",
						"label": "mapping(address => struct Person)",
						"numberOfBytes": "32",
						"value": "t_struct(Person)8_storage"
					},
					"t_mapping(t_enum(AnimalKind)14,t_uint256)": {
						"encoding": "mapping",
						"key": "t_enum(AnimalKind)14",
						"label": "mapping(enum PetSanctuary.AnimalKind => uint256)",
						"numberOfBytes": "32",
						"value": "t_uint256"
					},
					"t_string_storage": {
						"encoding": "bytes",
						"label": "string",
						"numberOfBytes": "32"
					},
					"t_struct(Person)8_storage": {
						"encoding": "inplace",
						"label": "struct Person",
						"members": [
							{
								"astId": 3,
								"contract": "PetSanctuary.sol:PetSanctuary",
								"label": "age",
								"offset": 0,
								"slot": "0",
								"type": "t_uint256"
							},
							{
								"astId": 5,
								"contract": "PetSanctuary.sol:PetSanctuary",
								"label": "gender",
								"offset": 0,
								"slot": "1",
								"type": "t_string_storage"
							},
							{
								"astId": 7,
								"contract": "PetSanctuary.sol:PetSanctuary",
								"label": "lendTime",
								"offset": 0,
								"slot": "2",
								"type": "t_uint256"
							}
						],
						"numberOfBytes": "96"
					},
					"t_uint256": {
						"encoding": "inplace",
						"label": "uint256",
						"numberOfBytes": "32"
					}
				}
			},
			"userdoc": {
				"kind": "user",
				"methods": {},
				"version": 1
			}
		}
	}
}