{
	"SimpleAuction.sol": {
		"simpleAuction": {
			"abi": [
				{
					"anonymous": false,
					"inputs": [
						{
							"indexed": false,
							"internalType": "address",
							"name": "topBider",
							"type": "address"
						},
						{
							"indexed": false,
							"internalType": "uint256",
							"name": "topBid",
							"type": "uint256"
						}
					],
					"name": "auctionClosed",
					"type": "event"
				},
				{
					"anonymous": false,
					"inputs": [
						{
							"indexed": false,
							"internalType": "address",
							"name": "auctionOwner",
							"type": "address"
						},
						{
							"indexed": false,
							"internalType": "uint256",
							"name": "startPrice",
							"type": "uint256"
						}
					],
					"name": "auctionStarted",
					"type": "event"
				},
				{
					"anonymous": false,
					"inputs": [
						{
							"indexed": false,
							"internalType": "address",
							"name": "bidder",
							"type": "address"
						},
						{
							"indexed": false,
							"internalType": "uint256",
							"name": "bidAmount",
							"type": "uint256"
						}
					],
					"name": "bidPlaced",
					"type": "event"
				},
				{
					"inputs": [],
					"name": "cancelAuction",
					"outputs": [],
					"stateMutability": "nonpayable",
					"type": "function"
				},
				{
					"inputs": [],
					"name": "placeBid",
					"outputs": [],
					"stateMutability": "payable",
					"type": "function"
				},
				{
					"inputs": [
						{
							"internalType": "uint256",
							"name": "_auctionStartPrice",
							"type": "uint256"
						},
						{
							"internalType": "uint256",
							"name": "_auctionTime",
							"type": "uint256"
						}
					],
					"name": "startAuction",
					"outputs": [],
					"stateMutability": "nonpayable",
					"type": "function"
				}
			],
			"devdoc": {
				"kind": "dev",
				"methods": {},
				"version": 1
			},
			"evm": {
				"assembly": "    /* \"SimpleAuction.sol\":71:1481  contract simpleAuction{... */\n  mstore(0x40, 0x80)\n    /* \"SimpleAuction.sol\":118:123  false */\n  0x00\n    /* \"SimpleAuction.sol\":99:123  bool AuctionClosed=false */\n  dup1\n  exp(0x0100, 0x00)\n  dup2\n  sload\n  dup2\n  0xff\n  mul\n  not\n  and\n  swap1\n  dup4\n  iszero\n  iszero\n  mul\n  or\n  swap1\n  sstore\n  pop\n    /* \"SimpleAuction.sol\":184:185  0 */\n  0x00\n    /* \"SimpleAuction.sol\":163:185  uint256 topBidAmount=0 */\n  0x01\n  sstore\n    /* \"SimpleAuction.sol\":71:1481  contract simpleAuction{... */\n  callvalue\n  dup1\n  iszero\n  tag_1\n  jumpi\n  0x00\n  dup1\n  revert\ntag_1:\n  pop\n  dataSize(sub_0)\n  dup1\n  dataOffset(sub_0)\n  0x00\n  codecopy\n  0x00\n  return\nstop\n\nsub_0: assembly {\n        /* \"SimpleAuction.sol\":71:1481  contract simpleAuction{... */\n      mstore(0x40, 0x80)\n      jumpi(tag_1, lt(calldatasize, 0x04))\n      shr(0xe0, calldataload(0x00))\n      dup1\n      0x4fee13fc\n      eq\n      tag_2\n      jumpi\n      dup1\n      0x8fa8b790\n      eq\n      tag_3\n      jumpi\n      dup1\n      0xecfc7ecc\n      eq\n      tag_4\n      jumpi\n    tag_1:\n      0x00\n      dup1\n      revert\n        /* \"SimpleAuction.sol\":526:841  function startAuction(uint256 _auctionStartPrice, uint256 _auctionTime) public {... */\n    tag_2:\n      callvalue\n      dup1\n      iszero\n      tag_5\n      jumpi\n      0x00\n      dup1\n      revert\n    tag_5:\n      pop\n      tag_6\n      0x04\n      dup1\n      calldatasize\n      sub\n      dup2\n      add\n      swap1\n      tag_7\n      swap2\n      swap1\n      tag_8\n      jump\t// in\n    tag_7:\n      tag_9\n      jump\t// in\n    tag_6:\n      stop\n        /* \"SimpleAuction.sol\":1232:1478  function cancelAuction() public {... */\n    tag_3:\n      callvalue\n      dup1\n      iszero\n      tag_10\n      jumpi\n      0x00\n      dup1\n      revert\n    tag_10:\n      pop\n      tag_11\n      tag_12\n      jump\t// in\n    tag_11:\n      stop\n        /* \"SimpleAuction.sol\":848:1226  function placeBid() public payable{... */\n    tag_4:\n      tag_13\n      tag_14\n      jump\t// in\n    tag_13:\n      stop\n        /* \"SimpleAuction.sol\":526:841  function startAuction(uint256 _auctionStartPrice, uint256 _auctionTime) public {... */\n    tag_9:\n        /* \"SimpleAuction.sol\":637:647  msg.sender */\n      caller\n        /* \"SimpleAuction.sol\":615:627  auctionOwner */\n      0x00\n      0x01\n        /* \"SimpleAuction.sol\":615:648  auctionOwner= payable(msg.sender) */\n      0x0100\n      exp\n      dup2\n      sload\n      dup2\n      0xffffffffffffffffffffffffffffffffffffffff\n      mul\n      not\n      and\n      swap1\n      dup4\n      0xffffffffffffffffffffffffffffffffffffffff\n      and\n      mul\n      or\n      swap1\n      sstore\n      pop\n        /* \"SimpleAuction.sol\":672:677  false */\n      0x00\n        /* \"SimpleAuction.sol\":658:671  AuctionClosed */\n      dup1\n      0x00\n        /* \"SimpleAuction.sol\":658:677  AuctionClosed=false */\n      0x0100\n      exp\n      dup2\n      sload\n      dup2\n      0xff\n      mul\n      not\n      and\n      swap1\n      dup4\n      iszero\n      iszero\n      mul\n      or\n      swap1\n      sstore\n      pop\n        /* \"SimpleAuction.sol\":705:723  _auctionStartPrice */\n      dup2\n        /* \"SimpleAuction.sol\":687:704  auctionStartPrice */\n      0x02\n        /* \"SimpleAuction.sol\":687:723  auctionStartPrice=_auctionStartPrice */\n      dup2\n      swap1\n      sstore\n      pop\n        /* \"SimpleAuction.sol\":761:773  _auctionTime */\n      dup1\n        /* \"SimpleAuction.sol\":745:760  block.timestamp */\n      timestamp\n        /* \"SimpleAuction.sol\":745:773  block.timestamp+_auctionTime */\n      tag_16\n      swap2\n      swap1\n      tag_17\n      jump\t// in\n    tag_16:\n        /* \"SimpleAuction.sol\":733:744  auctionTime */\n      0x03\n        /* \"SimpleAuction.sol\":733:773  auctionTime=block.timestamp+_auctionTime */\n      dup2\n      swap1\n      sstore\n      pop\n        /* \"SimpleAuction.sol\":788:834  auctionStarted(auctionOwner,auctionStartPrice) */\n      0x1e6871a9ec2c22e508757c73d7e2d7d15e2819276867174afb13fcdc9f018df2\n        /* \"SimpleAuction.sol\":803:815  auctionOwner */\n      0x00\n      0x01\n      swap1\n      sload\n      swap1\n      0x0100\n      exp\n      swap1\n      div\n      0xffffffffffffffffffffffffffffffffffffffff\n      and\n        /* \"SimpleAuction.sol\":816:833  auctionStartPrice */\n      sload(0x02)\n        /* \"SimpleAuction.sol\":788:834  auctionStarted(auctionOwner,auctionStartPrice) */\n      mload(0x40)\n      tag_18\n      swap3\n      swap2\n      swap1\n      tag_19\n      jump\t// in\n    tag_18:\n      mload(0x40)\n      dup1\n      swap2\n      sub\n      swap1\n      log1\n        /* \"SimpleAuction.sol\":526:841  function startAuction(uint256 _auctionStartPrice, uint256 _auctionTime) public {... */\n      pop\n      pop\n      jump\t// out\n        /* \"SimpleAuction.sol\":1232:1478  function cancelAuction() public {... */\n    tag_12:\n        /* \"SimpleAuction.sol\":1296:1308  auctionOwner */\n      0x00\n      0x01\n      swap1\n      sload\n      swap1\n      0x0100\n      exp\n      swap1\n      div\n      0xffffffffffffffffffffffffffffffffffffffff\n      and\n        /* \"SimpleAuction.sol\":1282:1308  msg.sender == auctionOwner */\n      0xffffffffffffffffffffffffffffffffffffffff\n      and\n        /* \"SimpleAuction.sol\":1282:1292  msg.sender */\n      caller\n        /* \"SimpleAuction.sol\":1282:1308  msg.sender == auctionOwner */\n      0xffffffffffffffffffffffffffffffffffffffff\n      and\n      eq\n        /* \"SimpleAuction.sol\":1274:1309  require(msg.sender == auctionOwner) */\n      tag_21\n      jumpi\n      0x00\n      dup1\n      revert\n    tag_21:\n        /* \"SimpleAuction.sol\":1346:1357  auctionTime */\n      sload(0x03)\n        /* \"SimpleAuction.sol\":1327:1342  block.timestamp */\n      timestamp\n        /* \"SimpleAuction.sol\":1327:1357  block.timestamp >= auctionTime */\n      lt\n      iszero\n        /* \"SimpleAuction.sol\":1319:1358  require(block.timestamp >= auctionTime) */\n      tag_22\n      jumpi\n      0x00\n      dup1\n      revert\n    tag_22:\n        /* \"SimpleAuction.sol\":1382:1386  true */\n      0x01\n        /* \"SimpleAuction.sol\":1368:1381  AuctionClosed */\n      0x00\n      dup1\n        /* \"SimpleAuction.sol\":1368:1386  AuctionClosed=true */\n      0x0100\n      exp\n      dup2\n      sload\n      dup2\n      0xff\n      mul\n      not\n      and\n      swap1\n      dup4\n      iszero\n      iszero\n      mul\n      or\n      swap1\n      sstore\n      pop\n        /* \"SimpleAuction.sol\":1401:1432  auctionClosed(topBidder,topBid) */\n      0x0693fe466dadf29e4700c29f41d1504c602b944fa5e6b5f1cb0a3a2ca0702120\n        /* \"SimpleAuction.sol\":1415:1424  topBidder */\n      0x04\n      0x00\n      swap1\n      sload\n      swap1\n      0x0100\n      exp\n      swap1\n      div\n      0xffffffffffffffffffffffffffffffffffffffff\n      and\n        /* \"SimpleAuction.sol\":1425:1431  topBid */\n      sload(0x05)\n        /* \"SimpleAuction.sol\":1401:1432  auctionClosed(topBidder,topBid) */\n      mload(0x40)\n      tag_23\n      swap3\n      swap2\n      swap1\n      tag_24\n      jump\t// in\n    tag_23:\n      mload(0x40)\n      dup1\n      swap2\n      sub\n      swap1\n      log1\n        /* \"SimpleAuction.sol\":1442:1454  auctionOwner */\n      0x00\n      0x01\n      swap1\n      sload\n      swap1\n      0x0100\n      exp\n      swap1\n      div\n      0xffffffffffffffffffffffffffffffffffffffff\n      and\n        /* \"SimpleAuction.sol\":1442:1463  auctionOwner.transfer */\n      0xffffffffffffffffffffffffffffffffffffffff\n      and\n        /* \"SimpleAuction.sol\":1442:1471  auctionOwner.transfer(topBid) */\n      0x08fc\n        /* \"SimpleAuction.sol\":1464:1470  topBid */\n      sload(0x05)\n        /* \"SimpleAuction.sol\":1442:1471  auctionOwner.transfer(topBid) */\n      swap1\n      dup2\n      iszero\n      mul\n      swap1\n      mload(0x40)\n      0x00\n      mload(0x40)\n      dup1\n      dup4\n      sub\n      dup2\n      dup6\n      dup9\n      dup9\n      call\n      swap4\n      pop\n      pop\n      pop\n      pop\n      iszero\n      dup1\n      iszero\n      tag_26\n      jumpi\n      returndatasize\n      0x00\n      dup1\n      returndatacopy\n      revert(0x00, returndatasize)\n    tag_26:\n      pop\n        /* \"SimpleAuction.sol\":1232:1478  function cancelAuction() public {... */\n      jump\t// out\n        /* \"SimpleAuction.sol\":848:1226  function placeBid() public payable{... */\n    tag_14:\n        /* \"SimpleAuction.sol\":912:924  topBidAmount */\n      sload(0x01)\n        /* \"SimpleAuction.sol\":900:909  msg.value */\n      callvalue\n        /* \"SimpleAuction.sol\":900:924  msg.value > topBidAmount */\n      gt\n        /* \"SimpleAuction.sol\":892:967  require(msg.value > topBidAmount,\"You have placed low bid than top bidder\") */\n      tag_28\n      jumpi\n      mload(0x40)\n      0x08c379a000000000000000000000000000000000000000000000000000000000\n      dup2\n      mstore\n      0x04\n      add\n      tag_29\n      swap1\n      tag_30\n      jump\t// in\n    tag_29:\n      mload(0x40)\n      dup1\n      swap2\n      sub\n      swap1\n      revert\n    tag_28:\n        /* \"SimpleAuction.sol\":999:1014  block.timestamp */\n      timestamp\n        /* \"SimpleAuction.sol\":985:996  auctionTime */\n      sload(0x03)\n        /* \"SimpleAuction.sol\":985:1014  auctionTime > block.timestamp */\n      gt\n        /* \"SimpleAuction.sol\":977:1036  require(auctionTime > block.timestamp,\"Auction time ended\") */\n      tag_31\n      jumpi\n      mload(0x40)\n      0x08c379a000000000000000000000000000000000000000000000000000000000\n      dup2\n      mstore\n      0x04\n      add\n      tag_32\n      swap1\n      tag_33\n      jump\t// in\n    tag_32:\n      mload(0x40)\n      dup1\n      swap2\n      sub\n      swap1\n      revert\n    tag_31:\n        /* \"SimpleAuction.sol\":1058:1059  0 */\n      0x00\n        /* \"SimpleAuction.sol\":1049:1055  topBid */\n      sload(0x05)\n        /* \"SimpleAuction.sol\":1049:1059  topBid !=0 */\n      eq\n        /* \"SimpleAuction.sol\":1046:1118  if(topBid !=0 ){... */\n      tag_34\n      jumpi\n        /* \"SimpleAuction.sol\":1101:1107  topBid */\n      sload(0x05)\n        /* \"SimpleAuction.sol\":1075:1089  pendingReturns */\n      0x06\n        /* \"SimpleAuction.sol\":1075:1100  pendingReturns[topBidder] */\n      0x00\n        /* \"SimpleAuction.sol\":1090:1099  topBidder */\n      0x04\n      0x00\n      swap1\n      sload\n      swap1\n      0x0100\n      exp\n      swap1\n      div\n      0xffffffffffffffffffffffffffffffffffffffff\n      and\n        /* \"SimpleAuction.sol\":1075:1100  pendingReturns[topBidder] */\n      0xffffffffffffffffffffffffffffffffffffffff\n      and\n      0xffffffffffffffffffffffffffffffffffffffff\n      and\n      dup2\n      mstore\n      0x20\n      add\n      swap1\n      dup2\n      mstore\n      0x20\n      add\n      0x00\n      keccak256\n        /* \"SimpleAuction.sol\":1075:1107  pendingReturns[topBidder]=topBid */\n      dup2\n      swap1\n      sstore\n      pop\n        /* \"SimpleAuction.sol\":1046:1118  if(topBid !=0 ){... */\n    tag_34:\n        /* \"SimpleAuction.sol\":1137:1147  msg.sender */\n      caller\n        /* \"SimpleAuction.sol\":1127:1136  topBidder */\n      0x04\n      0x00\n        /* \"SimpleAuction.sol\":1127:1147  topBidder=msg.sender */\n      0x0100\n      exp\n      dup2\n      sload\n      dup2\n      0xffffffffffffffffffffffffffffffffffffffff\n      mul\n      not\n      and\n      swap1\n      dup4\n      0xffffffffffffffffffffffffffffffffffffffff\n      and\n      mul\n      or\n      swap1\n      sstore\n      pop\n        /* \"SimpleAuction.sol\":1164:1173  msg.value */\n      callvalue\n        /* \"SimpleAuction.sol\":1157:1163  topBid */\n      0x05\n        /* \"SimpleAuction.sol\":1157:1173  topBid=msg.value */\n      dup2\n      swap1\n      sstore\n      pop\n        /* \"SimpleAuction.sol\":1188:1219  bidPlaced(msg.sender,msg.value) */\n      0xf7d2dbe81680a1f0c2b9aaeb63d4184de5c64951ba06bf1b5900341760775a22\n        /* \"SimpleAuction.sol\":1198:1208  msg.sender */\n      caller\n        /* \"SimpleAuction.sol\":1209:1218  msg.value */\n      callvalue\n        /* \"SimpleAuction.sol\":1188:1219  bidPlaced(msg.sender,msg.value) */\n      mload(0x40)\n      tag_35\n      swap3\n      swap2\n      swap1\n      tag_24\n      jump\t// in\n    tag_35:\n      mload(0x40)\n      dup1\n      swap2\n      sub\n      swap1\n      log1\n        /* \"SimpleAuction.sol\":848:1226  function placeBid() public payable{... */\n      jump\t// out\n        /* \"#utility.yul\":88:205   */\n    tag_37:\n        /* \"#utility.yul\":197:198   */\n      0x00\n        /* \"#utility.yul\":194:195   */\n      dup1\n        /* \"#utility.yul\":187:199   */\n      revert\n        /* \"#utility.yul\":334:411   */\n    tag_39:\n        /* \"#utility.yul\":371:378   */\n      0x00\n        /* \"#utility.yul\":400:405   */\n      dup2\n        /* \"#utility.yul\":389:405   */\n      swap1\n      pop\n        /* \"#utility.yul\":334:411   */\n      swap2\n      swap1\n      pop\n      jump\t// out\n        /* \"#utility.yul\":417:539   */\n    tag_40:\n        /* \"#utility.yul\":490:514   */\n      tag_63\n        /* \"#utility.yul\":508:513   */\n      dup2\n        /* \"#utility.yul\":490:514   */\n      tag_39\n      jump\t// in\n    tag_63:\n        /* \"#utility.yul\":483:488   */\n      dup2\n        /* \"#utility.yul\":480:515   */\n      eq\n        /* \"#utility.yul\":470:533   */\n      tag_64\n      jumpi\n        /* \"#utility.yul\":529:530   */\n      0x00\n        /* \"#utility.yul\":526:527   */\n      dup1\n        /* \"#utility.yul\":519:531   */\n      revert\n        /* \"#utility.yul\":470:533   */\n    tag_64:\n        /* \"#utility.yul\":417:539   */\n      pop\n      jump\t// out\n        /* \"#utility.yul\":545:684   */\n    tag_41:\n        /* \"#utility.yul\":591:596   */\n      0x00\n        /* \"#utility.yul\":629:635   */\n      dup2\n        /* \"#utility.yul\":616:636   */\n      calldataload\n        /* \"#utility.yul\":607:636   */\n      swap1\n      pop\n        /* \"#utility.yul\":645:678   */\n      tag_66\n        /* \"#utility.yul\":672:677   */\n      dup2\n        /* \"#utility.yul\":645:678   */\n      tag_40\n      jump\t// in\n    tag_66:\n        /* \"#utility.yul\":545:684   */\n      swap3\n      swap2\n      pop\n      pop\n      jump\t// out\n        /* \"#utility.yul\":690:1164   */\n    tag_8:\n        /* \"#utility.yul\":758:764   */\n      0x00\n        /* \"#utility.yul\":766:772   */\n      dup1\n        /* \"#utility.yul\":815:817   */\n      0x40\n        /* \"#utility.yul\":803:812   */\n      dup4\n        /* \"#utility.yul\":794:801   */\n      dup6\n        /* \"#utility.yul\":790:813   */\n      sub\n        /* \"#utility.yul\":786:818   */\n      slt\n        /* \"#utility.yul\":783:902   */\n      iszero\n      tag_68\n      jumpi\n        /* \"#utility.yul\":821:900   */\n      tag_69\n      tag_37\n      jump\t// in\n    tag_69:\n        /* \"#utility.yul\":783:902   */\n    tag_68:\n        /* \"#utility.yul\":941:942   */\n      0x00\n        /* \"#utility.yul\":966:1019   */\n      tag_70\n        /* \"#utility.yul\":1011:1018   */\n      dup6\n        /* \"#utility.yul\":1002:1008   */\n      dup3\n        /* \"#utility.yul\":991:1000   */\n      dup7\n        /* \"#utility.yul\":987:1009   */\n      add\n        /* \"#utility.yul\":966:1019   */\n      tag_41\n      jump\t// in\n    tag_70:\n        /* \"#utility.yul\":956:1019   */\n      swap3\n      pop\n        /* \"#utility.yul\":912:1029   */\n      pop\n        /* \"#utility.yul\":1068:1070   */\n      0x20\n        /* \"#utility.yul\":1094:1147   */\n      tag_71\n        /* \"#utility.yul\":1139:1146   */\n      dup6\n        /* \"#utility.yul\":1130:1136   */\n      dup3\n        /* \"#utility.yul\":1119:1128   */\n      dup7\n        /* \"#utility.yul\":1115:1137   */\n      add\n        /* \"#utility.yul\":1094:1147   */\n      tag_41\n      jump\t// in\n    tag_71:\n        /* \"#utility.yul\":1084:1147   */\n      swap2\n      pop\n        /* \"#utility.yul\":1039:1157   */\n      pop\n        /* \"#utility.yul\":690:1164   */\n      swap3\n      pop\n      swap3\n      swap1\n      pop\n      jump\t// out\n        /* \"#utility.yul\":1170:1350   */\n    tag_42:\n        /* \"#utility.yul\":1218:1295   */\n      0x4e487b7100000000000000000000000000000000000000000000000000000000\n        /* \"#utility.yul\":1215:1216   */\n      0x00\n        /* \"#utility.yul\":1208:1296   */\n      mstore\n        /* \"#utility.yul\":1315:1319   */\n      0x11\n        /* \"#utility.yul\":1312:1313   */\n      0x04\n        /* \"#utility.yul\":1305:1320   */\n      mstore\n        /* \"#utility.yul\":1339:1343   */\n      0x24\n        /* \"#utility.yul\":1336:1337   */\n      0x00\n        /* \"#utility.yul\":1329:1344   */\n      revert\n        /* \"#utility.yul\":1356:1661   */\n    tag_17:\n        /* \"#utility.yul\":1396:1399   */\n      0x00\n        /* \"#utility.yul\":1415:1435   */\n      tag_74\n        /* \"#utility.yul\":1433:1434   */\n      dup3\n        /* \"#utility.yul\":1415:1435   */\n      tag_39\n      jump\t// in\n    tag_74:\n        /* \"#utility.yul\":1410:1435   */\n      swap2\n      pop\n        /* \"#utility.yul\":1449:1469   */\n      tag_75\n        /* \"#utility.yul\":1467:1468   */\n      dup4\n        /* \"#utility.yul\":1449:1469   */\n      tag_39\n      jump\t// in\n    tag_75:\n        /* \"#utility.yul\":1444:1469   */\n      swap3\n      pop\n        /* \"#utility.yul\":1603:1604   */\n      dup3\n        /* \"#utility.yul\":1535:1601   */\n      0xffffffffffffffffffffffffffffffffffffffffffffffffffffffffffffffff\n        /* \"#utility.yul\":1531:1605   */\n      sub\n        /* \"#utility.yul\":1528:1529   */\n      dup3\n        /* \"#utility.yul\":1525:1606   */\n      gt\n        /* \"#utility.yul\":1522:1629   */\n      iszero\n      tag_76\n      jumpi\n        /* \"#utility.yul\":1609:1627   */\n      tag_77\n      tag_42\n      jump\t// in\n    tag_77:\n        /* \"#utility.yul\":1522:1629   */\n    tag_76:\n        /* \"#utility.yul\":1653:1654   */\n      dup3\n        /* \"#utility.yul\":1650:1651   */\n      dup3\n        /* \"#utility.yul\":1646:1655   */\n      add\n        /* \"#utility.yul\":1639:1655   */\n      swap1\n      pop\n        /* \"#utility.yul\":1356:1661   */\n      swap3\n      swap2\n      pop\n      pop\n      jump\t// out\n        /* \"#utility.yul\":1667:1793   */\n    tag_43:\n        /* \"#utility.yul\":1704:1711   */\n      0x00\n        /* \"#utility.yul\":1744:1786   */\n      0xffffffffffffffffffffffffffffffffffffffff\n        /* \"#utility.yul\":1737:1742   */\n      dup3\n        /* \"#utility.yul\":1733:1787   */\n      and\n        /* \"#utility.yul\":1722:1787   */\n      swap1\n      pop\n        /* \"#utility.yul\":1667:1793   */\n      swap2\n      swap1\n      pop\n      jump\t// out\n        /* \"#utility.yul\":1799:1859   */\n    tag_44:\n        /* \"#utility.yul\":1827:1830   */\n      0x00\n        /* \"#utility.yul\":1848:1853   */\n      dup2\n        /* \"#utility.yul\":1841:1853   */\n      swap1\n      pop\n        /* \"#utility.yul\":1799:1859   */\n      swap2\n      swap1\n      pop\n      jump\t// out\n        /* \"#utility.yul\":1865:2007   */\n    tag_45:\n        /* \"#utility.yul\":1915:1924   */\n      0x00\n        /* \"#utility.yul\":1948:2001   */\n      tag_81\n        /* \"#utility.yul\":1966:2000   */\n      tag_82\n        /* \"#utility.yul\":1975:1999   */\n      tag_83\n        /* \"#utility.yul\":1993:1998   */\n      dup5\n        /* \"#utility.yul\":1975:1999   */\n      tag_43\n      jump\t// in\n    tag_83:\n        /* \"#utility.yul\":1966:2000   */\n      tag_44\n      jump\t// in\n    tag_82:\n        /* \"#utility.yul\":1948:2001   */\n      tag_43\n      jump\t// in\n    tag_81:\n        /* \"#utility.yul\":1935:2001   */\n      swap1\n      pop\n        /* \"#utility.yul\":1865:2007   */\n      swap2\n      swap1\n      pop\n      jump\t// out\n        /* \"#utility.yul\":2013:2139   */\n    tag_46:\n        /* \"#utility.yul\":2063:2072   */\n      0x00\n        /* \"#utility.yul\":2096:2133   */\n      tag_85\n        /* \"#utility.yul\":2127:2132   */\n      dup3\n        /* \"#utility.yul\":2096:2133   */\n      tag_45\n      jump\t// in\n    tag_85:\n        /* \"#utility.yul\":2083:2133   */\n      swap1\n      pop\n        /* \"#utility.yul\":2013:2139   */\n      swap2\n      swap1\n      pop\n      jump\t// out\n        /* \"#utility.yul\":2145:2279   */\n    tag_47:\n        /* \"#utility.yul\":2203:2212   */\n      0x00\n        /* \"#utility.yul\":2236:2273   */\n      tag_87\n        /* \"#utility.yul\":2267:2272   */\n      dup3\n        /* \"#utility.yul\":2236:2273   */\n      tag_46\n      jump\t// in\n    tag_87:\n        /* \"#utility.yul\":2223:2273   */\n      swap1\n      pop\n        /* \"#utility.yul\":2145:2279   */\n      swap2\n      swap1\n      pop\n      jump\t// out\n        /* \"#utility.yul\":2285:2432   */\n    tag_48:\n        /* \"#utility.yul\":2380:2425   */\n      tag_89\n        /* \"#utility.yul\":2419:2424   */\n      dup2\n        /* \"#utility.yul\":2380:2425   */\n      tag_47\n      jump\t// in\n    tag_89:\n        /* \"#utility.yul\":2375:2378   */\n      dup3\n        /* \"#utility.yul\":2368:2426   */\n      mstore\n        /* \"#utility.yul\":2285:2432   */\n      pop\n      pop\n      jump\t// out\n        /* \"#utility.yul\":2438:2556   */\n    tag_49:\n        /* \"#utility.yul\":2525:2549   */\n      tag_91\n        /* \"#utility.yul\":2543:2548   */\n      dup2\n        /* \"#utility.yul\":2525:2549   */\n      tag_39\n      jump\t// in\n    tag_91:\n        /* \"#utility.yul\":2520:2523   */\n      dup3\n        /* \"#utility.yul\":2513:2550   */\n      mstore\n        /* \"#utility.yul\":2438:2556   */\n      pop\n      pop\n      jump\t// out\n        /* \"#utility.yul\":2562:2910   */\n    tag_19:\n        /* \"#utility.yul\":2691:2695   */\n      0x00\n        /* \"#utility.yul\":2729:2731   */\n      0x40\n        /* \"#utility.yul\":2718:2727   */\n      dup3\n        /* \"#utility.yul\":2714:2732   */\n      add\n        /* \"#utility.yul\":2706:2732   */\n      swap1\n      pop\n        /* \"#utility.yul\":2742:2821   */\n      tag_93\n        /* \"#utility.yul\":2818:2819   */\n      0x00\n        /* \"#utility.yul\":2807:2816   */\n      dup4\n        /* \"#utility.yul\":2803:2820   */\n      add\n        /* \"#utility.yul\":2794:2800   */\n      dup6\n        /* \"#utility.yul\":2742:2821   */\n      tag_48\n      jump\t// in\n    tag_93:\n        /* \"#utility.yul\":2831:2903   */\n      tag_94\n        /* \"#utility.yul\":2899:2901   */\n      0x20\n        /* \"#utility.yul\":2888:2897   */\n      dup4\n        /* \"#utility.yul\":2884:2902   */\n      add\n        /* \"#utility.yul\":2875:2881   */\n      dup5\n        /* \"#utility.yul\":2831:2903   */\n      tag_49\n      jump\t// in\n    tag_94:\n        /* \"#utility.yul\":2562:2910   */\n      swap4\n      swap3\n      pop\n      pop\n      pop\n      jump\t// out\n        /* \"#utility.yul\":2916:3012   */\n    tag_50:\n        /* \"#utility.yul\":2953:2960   */\n      0x00\n        /* \"#utility.yul\":2982:3006   */\n      tag_96\n        /* \"#utility.yul\":3000:3005   */\n      dup3\n        /* \"#utility.yul\":2982:3006   */\n      tag_43\n      jump\t// in\n    tag_96:\n        /* \"#utility.yul\":2971:3006   */\n      swap1\n      pop\n        /* \"#utility.yul\":2916:3012   */\n      swap2\n      swap1\n      pop\n      jump\t// out\n        /* \"#utility.yul\":3018:3136   */\n    tag_51:\n        /* \"#utility.yul\":3105:3129   */\n      tag_98\n        /* \"#utility.yul\":3123:3128   */\n      dup2\n        /* \"#utility.yul\":3105:3129   */\n      tag_50\n      jump\t// in\n    tag_98:\n        /* \"#utility.yul\":3100:3103   */\n      dup3\n        /* \"#utility.yul\":3093:3130   */\n      mstore\n        /* \"#utility.yul\":3018:3136   */\n      pop\n      pop\n      jump\t// out\n        /* \"#utility.yul\":3142:3474   */\n    tag_24:\n        /* \"#utility.yul\":3263:3267   */\n      0x00\n        /* \"#utility.yul\":3301:3303   */\n      0x40\n        /* \"#utility.yul\":3290:3299   */\n      dup3\n        /* \"#utility.yul\":3286:3304   */\n      add\n        /* \"#utility.yul\":3278:3304   */\n      swap1\n      pop\n        /* \"#utility.yul\":3314:3385   */\n      tag_100\n        /* \"#utility.yul\":3382:3383   */\n      0x00\n        /* \"#utility.yul\":3371:3380   */\n      dup4\n        /* \"#utility.yul\":3367:3384   */\n      add\n        /* \"#utility.yul\":3358:3364   */\n      dup6\n        /* \"#utility.yul\":3314:3385   */\n      tag_51\n      jump\t// in\n    tag_100:\n        /* \"#utility.yul\":3395:3467   */\n      tag_101\n        /* \"#utility.yul\":3463:3465   */\n      0x20\n        /* \"#utility.yul\":3452:3461   */\n      dup4\n        /* \"#utility.yul\":3448:3466   */\n      add\n        /* \"#utility.yul\":3439:3445   */\n      dup5\n        /* \"#utility.yul\":3395:3467   */\n      tag_49\n      jump\t// in\n    tag_101:\n        /* \"#utility.yul\":3142:3474   */\n      swap4\n      swap3\n      pop\n      pop\n      pop\n      jump\t// out\n        /* \"#utility.yul\":3480:3649   */\n    tag_52:\n        /* \"#utility.yul\":3564:3575   */\n      0x00\n        /* \"#utility.yul\":3598:3604   */\n      dup3\n        /* \"#utility.yul\":3593:3596   */\n      dup3\n        /* \"#utility.yul\":3586:3605   */\n      mstore\n        /* \"#utility.yul\":3638:3642   */\n      0x20\n        /* \"#utility.yul\":3633:3636   */\n      dup3\n        /* \"#utility.yul\":3629:3643   */\n      add\n        /* \"#utility.yul\":3614:3643   */\n      swap1\n      pop\n        /* \"#utility.yul\":3480:3649   */\n      swap3\n      swap2\n      pop\n      pop\n      jump\t// out\n        /* \"#utility.yul\":3655:3881   */\n    tag_53:\n        /* \"#utility.yul\":3795:3829   */\n      0x596f75206861766520706c61636564206c6f7720626964207468616e20746f70\n        /* \"#utility.yul\":3791:3792   */\n      0x00\n        /* \"#utility.yul\":3783:3789   */\n      dup3\n        /* \"#utility.yul\":3779:3793   */\n      add\n        /* \"#utility.yul\":3772:3830   */\n      mstore\n        /* \"#utility.yul\":3864:3873   */\n      0x2062696464657200000000000000000000000000000000000000000000000000\n        /* \"#utility.yul\":3859:3861   */\n      0x20\n        /* \"#utility.yul\":3851:3857   */\n      dup3\n        /* \"#utility.yul\":3847:3862   */\n      add\n        /* \"#utility.yul\":3840:3874   */\n      mstore\n        /* \"#utility.yul\":3655:3881   */\n      pop\n      jump\t// out\n        /* \"#utility.yul\":3887:4253   */\n    tag_54:\n        /* \"#utility.yul\":4029:4032   */\n      0x00\n        /* \"#utility.yul\":4050:4117   */\n      tag_105\n        /* \"#utility.yul\":4114:4116   */\n      0x27\n        /* \"#utility.yul\":4109:4112   */\n      dup4\n        /* \"#utility.yul\":4050:4117   */\n      tag_52\n      jump\t// in\n    tag_105:\n        /* \"#utility.yul\":4043:4117   */\n      swap2\n      pop\n        /* \"#utility.yul\":4126:4219   */\n      tag_106\n        /* \"#utility.yul\":4215:4218   */\n      dup3\n        /* \"#utility.yul\":4126:4219   */\n      tag_53\n      jump\t// in\n    tag_106:\n        /* \"#utility.yul\":4244:4246   */\n      0x40\n        /* \"#utility.yul\":4239:4242   */\n      dup3\n        /* \"#utility.yul\":4235:4247   */\n      add\n        /* \"#utility.yul\":4228:4247   */\n      swap1\n      pop\n        /* \"#utility.yul\":3887:4253   */\n      swap2\n      swap1\n      pop\n      jump\t// out\n        /* \"#utility.yul\":4259:4678   */\n    tag_30:\n        /* \"#utility.yul\":4425:4429   */\n      0x00\n        /* \"#utility.yul\":4463:4465   */\n      0x20\n        /* \"#utility.yul\":4452:4461   */\n      dup3\n        /* \"#utility.yul\":4448:4466   */\n      add\n        /* \"#utility.yul\":4440:4466   */\n      swap1\n      pop\n        /* \"#utility.yul\":4512:4521   */\n      dup2\n        /* \"#utility.yul\":4506:4510   */\n      dup2\n        /* \"#utility.yul\":4502:4522   */\n      sub\n        /* \"#utility.yul\":4498:4499   */\n      0x00\n        /* \"#utility.yul\":4487:4496   */\n      dup4\n        /* \"#utility.yul\":4483:4500   */\n      add\n        /* \"#utility.yul\":4476:4523   */\n      mstore\n        /* \"#utility.yul\":4540:4671   */\n      tag_108\n        /* \"#utility.yul\":4666:4670   */\n      dup2\n        /* \"#utility.yul\":4540:4671   */\n      tag_54\n      jump\t// in\n    tag_108:\n        /* \"#utility.yul\":4532:4671   */\n      swap1\n      pop\n        /* \"#utility.yul\":4259:4678   */\n      swap2\n      swap1\n      pop\n      jump\t// out\n        /* \"#utility.yul\":4684:4852   */\n    tag_55:\n        /* \"#utility.yul\":4824:4844   */\n      0x41756374696f6e2074696d6520656e6465640000000000000000000000000000\n        /* \"#utility.yul\":4820:4821   */\n      0x00\n        /* \"#utility.yul\":4812:4818   */\n      dup3\n        /* \"#utility.yul\":4808:4822   */\n      add\n        /* \"#utility.yul\":4801:4845   */\n      mstore\n        /* \"#utility.yul\":4684:4852   */\n      pop\n      jump\t// out\n        /* \"#utility.yul\":4858:5224   */\n    tag_56:\n        /* \"#utility.yul\":5000:5003   */\n      0x00\n        /* \"#utility.yul\":5021:5088   */\n      tag_111\n        /* \"#utility.yul\":5085:5087   */\n      0x12\n        /* \"#utility.yul\":5080:5083   */\n      dup4\n        /* \"#utility.yul\":5021:5088   */\n      tag_52\n      jump\t// in\n    tag_111:\n        /* \"#utility.yul\":5014:5088   */\n      swap2\n      pop\n        /* \"#utility.yul\":5097:5190   */\n      tag_112\n        /* \"#utility.yul\":5186:5189   */\n      dup3\n        /* \"#utility.yul\":5097:5190   */\n      tag_55\n      jump\t// in\n    tag_112:\n        /* \"#utility.yul\":5215:5217   */\n      0x20\n        /* \"#utility.yul\":5210:5213   */\n      dup3\n        /* \"#utility.yul\":5206:5218   */\n      add\n        /* \"#utility.yul\":5199:5218   */\n      swap1\n      pop\n        /* \"#utility.yul\":4858:5224   */\n      swap2\n      swap1\n      pop\n      jump\t// out\n        /* \"#utility.yul\":5230:5649   */\n    tag_33:\n        /* \"#utility.yul\":5396:5400   */\n      0x00\n        /* \"#utility.yul\":5434:5436   */\n      0x20\n        /* \"#utility.yul\":5423:5432   */\n      dup3\n        /* \"#utility.yul\":5419:5437   */\n      add\n        /* \"#utility.yul\":5411:5437   */\n      swap1\n      pop\n        /* \"#utility.yul\":5483:5492   */\n      dup2\n        /* \"#utility.yul\":5477:5481   */\n      dup2\n        /* \"#utility.yul\":5473:5493   */\n      sub\n        /* \"#utility.yul\":5469:5470   */\n      0x00\n        /* \"#utility.yul\":5458:5467   */\n      dup4\n        /* \"#utility.yul\":5454:5471   */\n      add\n        /* \"#utility.yul\":5447:5494   */\n      mstore\n        /* \"#utility.yul\":5511:5642   */\n      tag_114\n        /* \"#utility.yul\":5637:5641   */\n      dup2\n        /* \"#utility.yul\":5511:5642   */\n      tag_56\n      jump\t// in\n    tag_114:\n        /* \"#utility.yul\":5503:5642   */\n      swap1\n      pop\n        /* \"#utility.yul\":5230:5649   */\n      swap2\n      swap1\n      pop\n      jump\t// out\n\n    auxdata: 0xa26469706673582212205e821e7ea0c86ab3d8d7f9bc1aa8b9b6e5e71e7fec1099174963d519b551070b64736f6c63430008090033\n}\n",
				"bytecode": {
					"linkReferences": {},
					"object": "608060405260008060006101000a81548160ff021916908315150217905550600060015534801561002f57600080fd5b506107698061003f6000396000f3fe6080604052600436106100345760003560e01c80634fee13fc146100395780638fa8b79014610062578063ecfc7ecc14610079575b600080fd5b34801561004557600080fd5b50610060600480360381019061005b919061045e565b610083565b005b34801561006e57600080fd5b50610077610158565b005b6100816102a5565b005b33600060016101000a81548173ffffffffffffffffffffffffffffffffffffffff021916908373ffffffffffffffffffffffffffffffffffffffff16021790555060008060006101000a81548160ff0219169083151502179055508160028190555080426100f191906104cd565b6003819055507f1e6871a9ec2c22e508757c73d7e2d7d15e2819276867174afb13fcdc9f018df2600060019054906101000a900473ffffffffffffffffffffffffffffffffffffffff1660025460405161014c9291906105b1565b60405180910390a15050565b600060019054906101000a900473ffffffffffffffffffffffffffffffffffffffff1673ffffffffffffffffffffffffffffffffffffffff163373ffffffffffffffffffffffffffffffffffffffff16146101b257600080fd5b6003544210156101c157600080fd5b60016000806101000a81548160ff0219169083151502179055507f0693fe466dadf29e4700c29f41d1504c602b944fa5e6b5f1cb0a3a2ca0702120600460009054906101000a900473ffffffffffffffffffffffffffffffffffffffff166005546040516102309291906105fb565b60405180910390a1600060019054906101000a900473ffffffffffffffffffffffffffffffffffffffff1673ffffffffffffffffffffffffffffffffffffffff166108fc6005549081150290604051600060405180830381858888f193505050501580156102a2573d6000803e3d6000fd5b50565b60015434116102e9576040517f08c379a00000000000000000000000000000000000000000000000000000000081526004016102e0906106a7565b60405180910390fd5b426003541161032d576040517f08c379a000000000000000000000000000000000000000000000000000000000815260040161032490610713565b60405180910390fd5b6000600554146103a05760055460066000600460009054906101000a900473ffffffffffffffffffffffffffffffffffffffff1673ffffffffffffffffffffffffffffffffffffffff1673ffffffffffffffffffffffffffffffffffffffff168152602001908152602001600020819055505b33600460006101000a81548173ffffffffffffffffffffffffffffffffffffffff021916908373ffffffffffffffffffffffffffffffffffffffff160217905550346005819055507ff7d2dbe81680a1f0c2b9aaeb63d4184de5c64951ba06bf1b5900341760775a2233346040516104199291906105fb565b60405180910390a1565b600080fd5b6000819050919050565b61043b81610428565b811461044657600080fd5b50565b60008135905061045881610432565b92915050565b6000806040838503121561047557610474610423565b5b600061048385828601610449565b925050602061049485828601610449565b9150509250929050565b7f4e487b7100000000000000000000000000000000000000000000000000000000600052601160045260246000fd5b60006104d882610428565b91506104e383610428565b9250827fffffffffffffffffffffffffffffffffffffffffffffffffffffffffffffffff038211156105185761051761049e565b5b828201905092915050565b600073ffffffffffffffffffffffffffffffffffffffff82169050919050565b6000819050919050565b600061056861056361055e84610523565b610543565b610523565b9050919050565b600061057a8261054d565b9050919050565b600061058c8261056f565b9050919050565b61059c81610581565b82525050565b6105ab81610428565b82525050565b60006040820190506105c66000830185610593565b6105d360208301846105a2565b9392505050565b60006105e582610523565b9050919050565b6105f5816105da565b82525050565b600060408201905061061060008301856105ec565b61061d60208301846105a2565b9392505050565b600082825260208201905092915050565b7f596f75206861766520706c61636564206c6f7720626964207468616e20746f7060008201527f2062696464657200000000000000000000000000000000000000000000000000602082015250565b6000610691602783610624565b915061069c82610635565b604082019050919050565b600060208201905081810360008301526106c081610684565b9050919050565b7f41756374696f6e2074696d6520656e6465640000000000000000000000000000600082015250565b60006106fd601283610624565b9150610708826106c7565b602082019050919050565b6000602082019050818103600083015261072c816106f0565b905091905056fea26469706673582212205e821e7ea0c86ab3d8d7f9bc1aa8b9b6e5e71e7fec1099174963d519b551070b64736f6c63430008090033",
					"opcodes": "PUSH1 0x80 PUSH1 0x40 MSTORE PUSH1 0x0 DUP1 PUSH1 0x0 PUSH2 0x100 EXP DUP2 SLOAD DUP2 PUSH1 0xFF MUL NOT AND SWAP1 DUP4 ISZERO ISZERO MUL OR SWAP1 SSTORE POP PUSH1 0x0 PUSH1 0x1 SSTORE CALLVALUE DUP1 ISZERO PUSH2 0x2F JUMPI PUSH1 0x0 DUP1 REVERT JUMPDEST POP PUSH2 0x769 DUP1 PUSH2 0x3F PUSH1 0x0 CODECOPY PUSH1 0x0 RETURN INVALID PUSH1 0x80 PUSH1 0x40 MSTORE PUSH1 0x4 CALLDATASIZE LT PUSH2 0x34 JUMPI PUSH1 0x0 CALLDATALOAD PUSH1 0xE0 SHR DUP1 PUSH4 0x4FEE13FC EQ PUSH2 0x39 JUMPI DUP1 PUSH4 0x8FA8B790 EQ PUSH2 0x62 JUMPI DUP1 PUSH4 0xECFC7ECC EQ PUSH2 0x79 JUMPI JUMPDEST PUSH1 0x0 DUP1 REVERT JUMPDEST CALLVALUE DUP1 ISZERO PUSH2 0x45 JUMPI PUSH1 0x0 DUP1 REVERT JUMPDEST POP PUSH2 0x60 PUSH1 0x4 DUP1 CALLDATASIZE SUB DUP2 ADD SWAP1 PUSH2 0x5B SWAP2 SWAP1 PUSH2 0x45E JUMP JUMPDEST PUSH2 0x83 JUMP JUMPDEST STOP JUMPDEST CALLVALUE DUP1 ISZERO PUSH2 0x6E JUMPI PUSH1 0x0 DUP1 REVERT JUMPDEST POP PUSH2 0x77 PUSH2 0x158 JUMP JUMPDEST STOP JUMPDEST PUSH2 0x81 PUSH2 0x2A5 JUMP JUMPDEST STOP JUMPDEST CALLER PUSH1 0x0 PUSH1 0x1 PUSH2 0x100 EXP DUP2 SLOAD DUP2 PUSH20 0xFFFFFFFFFFFFFFFFFFFFFFFFFFFFFFFFFFFFFFFF MUL NOT AND SWAP1 DUP4 PUSH20 0xFFFFFFFFFFFFFFFFFFFFFFFFFFFFFFFFFFFFFFFF AND MUL OR SWAP1 SSTORE POP PUSH1 0x0 DUP1 PUSH1 0x0 PUSH2 0x100 EXP DUP2 SLOAD DUP2 PUSH1 0xFF MUL NOT AND SWAP1 DUP4 ISZERO ISZERO MUL OR SWAP1 SSTORE POP DUP2 PUSH1 0x2 DUP2 SWAP1 SSTORE POP DUP1 TIMESTAMP PUSH2 0xF1 SWAP2 SWAP1 PUSH2 0x4CD JUMP JUMPDEST PUSH1 0x3 DUP2 SWAP1 SSTORE POP PUSH32 0x1E6871A9EC2C22E508757C73D7E2D7D15E2819276867174AFB13FCDC9F018DF2 PUSH1 0x0 PUSH1 0x1 SWAP1 SLOAD SWAP1 PUSH2 0x100 EXP SWAP1 DIV PUSH20 0xFFFFFFFFFFFFFFFFFFFFFFFFFFFFFFFFFFFFFFFF AND PUSH1 0x2 SLOAD PUSH1 0x40 MLOAD PUSH2 0x14C SWAP3 SWAP2 SWAP1 PUSH2 0x5B1 JUMP JUMPDEST PUSH1 0x40 MLOAD DUP1 SWAP2 SUB SWAP1 LOG1 POP POP JUMP JUMPDEST PUSH1 0x0 PUSH1 0x1 SWAP1 SLOAD SWAP1 PUSH2 0x100 EXP SWAP1 DIV PUSH20 0xFFFFFFFFFFFFFFFFFFFFFFFFFFFFFFFFFFFFFFFF AND PUSH20 0xFFFFFFFFFFFFFFFFFFFFFFFFFFFFFFFFFFFFFFFF AND CALLER PUSH20 0xFFFFFFFFFFFFFFFFFFFFFFFFFFFFFFFFFFFFFFFF AND EQ PUSH2 0x1B2 JUMPI PUSH1 0x0 DUP1 REVERT JUMPDEST PUSH1 0x3 SLOAD TIMESTAMP LT ISZERO PUSH2 0x1C1 JUMPI PUSH1 0x0 DUP1 REVERT JUMPDEST PUSH1 0x1 PUSH1 0x0 DUP1 PUSH2 0x100 EXP DUP2 SLOAD DUP2 PUSH1 0xFF MUL NOT AND SWAP1 DUP4 ISZERO ISZERO MUL OR SWAP1 SSTORE POP PUSH32 0x693FE466DADF29E4700C29F41D1504C602B944FA5E6B5F1CB0A3A2CA0702120 PUSH1 0x4 PUSH1 0x0 SWAP1 SLOAD SWAP1 PUSH2 0x100 EXP SWAP1 DIV PUSH20 0xFFFFFFFFFFFFFFFFFFFFFFFFFFFFFFFFFFFFFFFF AND PUSH1 0x5 SLOAD PUSH1 0x40 MLOAD PUSH2 0x230 SWAP3 SWAP2 SWAP1 PUSH2 0x5FB JUMP JUMPDEST PUSH1 0x40 MLOAD DUP1 SWAP2 SUB SWAP1 LOG1 PUSH1 0x0 PUSH1 0x1 SWAP1 SLOAD SWAP1 PUSH2 0x100 EXP SWAP1 DIV PUSH20 0xFFFFFFFFFFFFFFFFFFFFFFFFFFFFFFFFFFFFFFFF AND PUSH20 0xFFFFFFFFFFFFFFFFFFFFFFFFFFFFFFFFFFFFFFFF AND PUSH2 0x8FC PUSH1 0x5 SLOAD SWAP1 DUP2 ISZERO MUL SWAP1 PUSH1 0x40 MLOAD PUSH1 0x0 PUSH1 0x40 MLOAD DUP1 DUP4 SUB DUP2 DUP6 DUP9 DUP9 CALL SWAP4 POP POP POP POP ISZERO DUP1 ISZERO PUSH2 0x2A2 JUMPI RETURNDATASIZE PUSH1 0x0 DUP1 RETURNDATACOPY RETURNDATASIZE PUSH1 0x0 REVERT JUMPDEST POP JUMP JUMPDEST PUSH1 0x1 SLOAD CALLVALUE GT PUSH2 0x2E9 JUMPI PUSH1 0x40 MLOAD PUSH32 0x8C379A000000000000000000000000000000000000000000000000000000000 DUP2 MSTORE PUSH1 0x4 ADD PUSH2 0x2E0 SWAP1 PUSH2 0x6A7 JUMP JUMPDEST PUSH1 0x40 MLOAD DUP1 SWAP2 SUB SWAP1 REVERT JUMPDEST TIMESTAMP PUSH1 0x3 SLOAD GT PUSH2 0x32D JUMPI PUSH1 0x40 MLOAD PUSH32 0x8C379A000000000000000000000000000000000000000000000000000000000 DUP2 MSTORE PUSH1 0x4 ADD PUSH2 0x324 SWAP1 PUSH2 0x713 JUMP JUMPDEST PUSH1 0x40 MLOAD DUP1 SWAP2 SUB SWAP1 REVERT JUMPDEST PUSH1 0x0 PUSH1 0x5 SLOAD EQ PUSH2 0x3A0 JUMPI PUSH1 0x5 SLOAD PUSH1 0x6 PUSH1 0x0 PUSH1 0x4 PUSH1 0x0 SWAP1 SLOAD SWAP1 PUSH2 0x100 EXP SWAP1 DIV PUSH20 0xFFFFFFFFFFFFFFFFFFFFFFFFFFFFFFFFFFFFFFFF AND PUSH20 0xFFFFFFFFFFFFFFFFFFFFFFFFFFFFFFFFFFFFFFFF AND PUSH20 0xFFFFFFFFFFFFFFFFFFFFFFFFFFFFFFFFFFFFFFFF AND DUP2 MSTORE PUSH1 0x20 ADD SWAP1 DUP2 MSTORE PUSH1 0x20 ADD PUSH1 0x0 KECCAK256 DUP2 SWAP1 SSTORE POP JUMPDEST CALLER PUSH1 0x4 PUSH1 0x0 PUSH2 0x100 EXP DUP2 SLOAD DUP2 PUSH20 0xFFFFFFFFFFFFFFFFFFFFFFFFFFFFFFFFFFFFFFFF MUL NOT AND SWAP1 DUP4 PUSH20 0xFFFFFFFFFFFFFFFFFFFFFFFFFFFFFFFFFFFFFFFF AND MUL OR SWAP1 SSTORE POP CALLVALUE PUSH1 0x5 DUP2 SWAP1 SSTORE POP PUSH32 0xF7D2DBE81680A1F0C2B9AAEB63D4184DE5C64951BA06BF1B5900341760775A22 CALLER CALLVALUE PUSH1 0x40 MLOAD PUSH2 0x419 SWAP3 SWAP2 SWAP1 PUSH2 0x5FB JUMP JUMPDEST PUSH1 0x40 MLOAD DUP1 SWAP2 SUB SWAP1 LOG1 JUMP JUMPDEST PUSH1 0x0 DUP1 REVERT JUMPDEST PUSH1 0x0 DUP2 SWAP1 POP SWAP2 SWAP1 POP JUMP JUMPDEST PUSH2 0x43B DUP2 PUSH2 0x428 JUMP JUMPDEST DUP2 EQ PUSH2 0x446 JUMPI PUSH1 0x0 DUP1 REVERT JUMPDEST POP JUMP JUMPDEST PUSH1 0x0 DUP2 CALLDATALOAD SWAP1 POP PUSH2 0x458 DUP2 PUSH2 0x432 JUMP JUMPDEST SWAP3 SWAP2 POP POP JUMP JUMPDEST PUSH1 0x0 DUP1 PUSH1 0x40 DUP4 DUP6 SUB SLT ISZERO PUSH2 0x475 JUMPI PUSH2 0x474 PUSH2 0x423 JUMP JUMPDEST JUMPDEST PUSH1 0x0 PUSH2 0x483 DUP6 DUP3 DUP7 ADD PUSH2 0x449 JUMP JUMPDEST SWAP3 POP POP PUSH1 0x20 PUSH2 0x494 DUP6 DUP3 DUP7 ADD PUSH2 0x449 JUMP JUMPDEST SWAP2 POP POP SWAP3 POP SWAP3 SWAP1 POP JUMP JUMPDEST PUSH32 0x4E487B7100000000000000000000000000000000000000000000000000000000 PUSH1 0x0 MSTORE PUSH1 0x11 PUSH1 0x4 MSTORE PUSH1 0x24 PUSH1 0x0 REVERT JUMPDEST PUSH1 0x0 PUSH2 0x4D8 DUP3 PUSH2 0x428 JUMP JUMPDEST SWAP2 POP PUSH2 0x4E3 DUP4 PUSH2 0x428 JUMP JUMPDEST SWAP3 POP DUP3 PUSH32 0xFFFFFFFFFFFFFFFFFFFFFFFFFFFFFFFFFFFFFFFFFFFFFFFFFFFFFFFFFFFFFFFF SUB DUP3 GT ISZERO PUSH2 0x518 JUMPI PUSH2 0x517 PUSH2 0x49E JUMP JUMPDEST JUMPDEST DUP3 DUP3 ADD SWAP1 POP SWAP3 SWAP2 POP POP JUMP JUMPDEST PUSH1 0x0 PUSH20 0xFFFFFFFFFFFFFFFFFFFFFFFFFFFFFFFFFFFFFFFF DUP3 AND SWAP1 POP SWAP2 SWAP1 POP JUMP JUMPDEST PUSH1 0x0 DUP2 SWAP1 POP SWAP2 SWAP1 POP JUMP JUMPDEST PUSH1 0x0 PUSH2 0x568 PUSH2 0x563 PUSH2 0x55E DUP5 PUSH2 0x523 JUMP JUMPDEST PUSH2 0x543 JUMP JUMPDEST PUSH2 0x523 JUMP JUMPDEST SWAP1 POP SWAP2 SWAP1 POP JUMP JUMPDEST PUSH1 0x0 PUSH2 0x57A DUP3 PUSH2 0x54D JUMP JUMPDEST SWAP1 POP SWAP2 SWAP1 POP JUMP JUMPDEST PUSH1 0x0 PUSH2 0x58C DUP3 PUSH2 0x56F JUMP JUMPDEST SWAP1 POP SWAP2 SWAP1 POP JUMP JUMPDEST PUSH2 0x59C DUP2 PUSH2 0x581 JUMP JUMPDEST DUP3 MSTORE POP POP JUMP JUMPDEST PUSH2 0x5AB DUP2 PUSH2 0x428 JUMP JUMPDEST DUP3 MSTORE POP POP JUMP JUMPDEST PUSH1 0x0 PUSH1 0x40 DUP3 ADD SWAP1 POP PUSH2 0x5C6 PUSH1 0x0 DUP4 ADD DUP6 PUSH2 0x593 JUMP JUMPDEST PUSH2 0x5D3 PUSH1 0x20 DUP4 ADD DUP5 PUSH2 0x5A2 JUMP JUMPDEST SWAP4 SWAP3 POP POP POP JUMP JUMPDEST PUSH1 0x0 PUSH2 0x5E5 DUP3 PUSH2 0x523 JUMP JUMPDEST SWAP1 POP SWAP2 SWAP1 POP JUMP JUMPDEST PUSH2 0x5F5 DUP2 PUSH2 0x5DA JUMP JUMPDEST DUP3 MSTORE POP POP JUMP JUMPDEST PUSH1 0x0 PUSH1 0x40 DUP3 ADD SWAP1 POP PUSH2 0x610 PUSH1 0x0 DUP4 ADD DUP6 PUSH2 0x5EC JUMP JUMPDEST PUSH2 0x61D PUSH1 0x20 DUP4 ADD DUP5 PUSH2 0x5A2 JUMP JUMPDEST SWAP4 SWAP3 POP POP POP JUMP JUMPDEST PUSH1 0x0 DUP3 DUP3 MSTORE PUSH1 0x20 DUP3 ADD SWAP1 POP SWAP3 SWAP2 POP POP JUMP JUMPDEST PUSH32 0x596F75206861766520706C61636564206C6F7720626964207468616E20746F70 PUSH1 0x0 DUP3 ADD MSTORE PUSH32 0x2062696464657200000000000000000000000000000000000000000000000000 PUSH1 0x20 DUP3 ADD MSTORE POP JUMP JUMPDEST PUSH1 0x0 PUSH2 0x691 PUSH1 0x27 DUP4 PUSH2 0x624 JUMP JUMPDEST SWAP2 POP PUSH2 0x69C DUP3 PUSH2 0x635 JUMP JUMPDEST PUSH1 0x40 DUP3 ADD SWAP1 POP SWAP2 SWAP1 POP JUMP JUMPDEST PUSH1 0x0 PUSH1 0x20 DUP3 ADD SWAP1 POP DUP2 DUP2 SUB PUSH1 0x0 DUP4 ADD MSTORE PUSH2 0x6C0 DUP2 PUSH2 0x684 JUMP JUMPDEST SWAP1 POP SWAP2 SWAP1 POP JUMP JUMPDEST PUSH32 0x41756374696F6E2074696D6520656E6465640000000000000000000000000000 PUSH1 0x0 DUP3 ADD MSTORE POP JUMP JUMPDEST PUSH1 0x0 PUSH2 0x6FD PUSH1 0x12 DUP4 PUSH2 0x624 JUMP JUMPDEST SWAP2 POP PUSH2 0x708 DUP3 PUSH2 0x6C7 JUMP JUMPDEST PUSH1 0x20 DUP3 ADD SWAP1 POP SWAP2 SWAP1 POP JUMP JUMPDEST PUSH1 0x0 PUSH1 0x20 DUP3 ADD SWAP1 POP DUP2 DUP2 SUB PUSH1 0x0 DUP4 ADD MSTORE PUSH2 0x72C DUP2 PUSH2 0x6F0 JUMP JUMPDEST SWAP1 POP SWAP2 SWAP1 POP JUMP INVALID LOG2 PUSH5 0x6970667358 0x22 SLT KECCAK256 0x5E DUP3 0x1E PUSH31 0xA0C86AB3D8D7F9BC1AA8B9B6E5E71E7FEC1099174963D519B551070B64736F PUSH13 0x63430008090033000000000000 "
				},
				"gasEstimates": {
					"creation": {
						"codeDepositCost": "379400",
						"executionCost": "29691",
						"totalCost": "409091"
					},
					"external": {
						"cancelAuction()": "infinite",
						"placeBid()": "80925",
						"startAuction(uint256,uint256)": "infinite"
					}
				},
				"methodIdentifiers": {
					"cancelAuction()": "8fa8b790",
					"placeBid()": "ecfc7ecc",
					"startAuction(uint256,uint256)": "4fee13fc"
				}
			},
			"storageLayout": {
				"storage": [
					{
						"astId": 4,
						"contract": "SimpleAuction.sol:simpleAuction",
						"label": "AuctionClosed",
						"offset": 0,
						"slot": "0",
						"type": "t_bool"
					},
					{
						"astId": 6,
						"contract": "SimpleAuction.sol:simpleAuction",
						"label": "auctionOwner",
						"offset": 1,
						"slot": "0",
						"type": "t_address_payable"
					},
					{
						"astId": 9,
						"contract": "SimpleAuction.sol:simpleAuction",
						"label": "topBidAmount",
						"offset": 0,
						"slot": "1",
						"type": "t_uint256"
					},
					{
						"astId": 11,
						"contract": "SimpleAuction.sol:simpleAuction",
						"label": "auctionStartPrice",
						"offset": 0,
						"slot": "2",
						"type": "t_uint256"
					},
					{
						"astId": 13,
						"contract": "SimpleAuction.sol:simpleAuction",
						"label": "auctionTime",
						"offset": 0,
						"slot": "3",
						"type": "t_uint256"
					},
					{
						"astId": 15,
						"contract": "SimpleAuction.sol:simpleAuction",
						"label": "topBidder",
						"offset": 0,
						"slot": "4",
						"type": "t_address"
					},
					{
						"astId": 17,
						"contract": "SimpleAuction.sol:simpleAuction",
						"label": "topBid",
						"offset": 0,
						"slot": "5",
						"type": "t_uint256"
					},
					{
						"astId": 21,
						"contract": "SimpleAuction.sol:simpleAuction",
						"label": "pendingReturns",
						"offset": 0,
						"slot": "6",
						"type": "t_mapping(t_address,t_uint256)"
					}
				],
				"types": {
					"t_address": {
						"encoding": "inplace",
						"label": "address",
						"numberOfBytes": "20"
					},
					"t_address_payable": {
						"encoding": "inplace",
						"label": "address payable",
						"numberOfBytes": "20"
					},
					"t_bool": {
						"encoding": "inplace",
						"label": "bool",
						"numberOfBytes": "1"
					},
					"t_mapping(t_address,t_uint256)": {
						"encoding": "mapping",
						"key": "t_address",
						"label": "mapping(address => uint256)",
						"numberOfBytes": "32",
						"value": "t_uint256"
					},
					"t_uint256": {
						"encoding": "inplace",
						"label": "uint256",
						"numberOfBytes": "32"
					}
				}
			},
			"userdoc": {
				"kind": "user",
				"methods": {},
				"version": 1
			}
		}
	}
}