{
	"FreeToken.sol": {
		"FreeToken": {
			"abi": [
				{
					"inputs": [],
					"stateMutability": "nonpayable",
					"type": "constructor"
				},
				{
					"inputs": [
						{
							"internalType": "uint256",
							"name": "_amount",
							"type": "uint256"
						}
					],
					"name": "purchase",
					"outputs": [],
					"stateMutability": "nonpayable",
					"type": "function"
				},
				{
					"inputs": [
						{
							"internalType": "uint256",
							"name": "_totalSupply",
							"type": "uint256"
						}
					],
					"name": "setTotalSupply",
					"outputs": [],
					"stateMutability": "nonpayable",
					"type": "function"
				},
				{
					"inputs": [
						{
							"internalType": "address",
							"name": "_to",
							"type": "address"
						},
						{
							"internalType": "uint256",
							"name": "_amount",
							"type": "uint256"
						}
					],
					"name": "transfer",
					"outputs": [],
					"stateMutability": "nonpayable",
					"type": "function"
				}
			],
			"devdoc": {
				"kind": "dev",
				"methods": {},
				"version": 1
			},
			"evm": {
				"assembly": "    /* \"FreeToken.sol\":72:720  contract FreeToken{... */\n  mstore(0x40, 0x80)\n    /* \"FreeToken.sol\":211:257  constructor(){... */\n  callvalue\n  dup1\n  iszero\n  tag_1\n  jumpi\n  0x00\n  dup1\n  revert\ntag_1:\n  pop\n    /* \"FreeToken.sol\":240:250  msg.sender */\n  caller\n    /* \"FreeToken.sol\":234:239  owner */\n  0x02\n  0x00\n    /* \"FreeToken.sol\":234:250  owner=msg.sender */\n  0x0100\n  exp\n  dup2\n  sload\n  dup2\n  0xffffffffffffffffffffffffffffffffffffffff\n  mul\n  not\n  and\n  swap1\n  dup4\n  0xffffffffffffffffffffffffffffffffffffffff\n  and\n  mul\n  or\n  swap1\n  sstore\n  pop\n    /* \"FreeToken.sol\":72:720  contract FreeToken{... */\n  dataSize(sub_0)\n  dup1\n  dataOffset(sub_0)\n  0x00\n  codecopy\n  0x00\n  return\nstop\n\nsub_0: assembly {\n        /* \"FreeToken.sol\":72:720  contract FreeToken{... */\n      mstore(0x40, 0x80)\n      callvalue\n      dup1\n      iszero\n      tag_1\n      jumpi\n      0x00\n      dup1\n      revert\n    tag_1:\n      pop\n      jumpi(tag_2, lt(calldatasize, 0x04))\n      shr(0xe0, calldataload(0x00))\n      dup1\n      0xa9059cbb\n      eq\n      tag_3\n      jumpi\n      dup1\n      0xefef39a1\n      eq\n      tag_4\n      jumpi\n      dup1\n      0xf7ea7a3d\n      eq\n      tag_5\n      jumpi\n    tag_2:\n      0x00\n      dup1\n      revert\n        /* \"FreeToken.sol\":517:718  function transfer(address _to, uint256 _amount) public {... */\n    tag_3:\n      tag_6\n      0x04\n      dup1\n      calldatasize\n      sub\n      dup2\n      add\n      swap1\n      tag_7\n      swap2\n      swap1\n      tag_8\n      jump\t// in\n    tag_7:\n      tag_9\n      jump\t// in\n    tag_6:\n      stop\n        /* \"FreeToken.sol\":399:511  function purchase(uint _amount) public {... */\n    tag_4:\n      tag_10\n      0x04\n      dup1\n      calldatasize\n      sub\n      dup2\n      add\n      swap1\n      tag_11\n      swap2\n      swap1\n      tag_12\n      jump\t// in\n    tag_11:\n      tag_13\n      jump\t// in\n    tag_10:\n      stop\n        /* \"FreeToken.sol\":263:392  function setTotalSupply(uint _totalSupply) public {... */\n    tag_5:\n      tag_14\n      0x04\n      dup1\n      calldatasize\n      sub\n      dup2\n      add\n      swap1\n      tag_15\n      swap2\n      swap1\n      tag_12\n      jump\t// in\n    tag_15:\n      tag_16\n      jump\t// in\n    tag_14:\n      stop\n        /* \"FreeToken.sol\":517:718  function transfer(address _to, uint256 _amount) public {... */\n    tag_9:\n        /* \"FreeToken.sol\":613:620  _amount */\n      dup1\n        /* \"FreeToken.sol\":590:597  balance */\n      0x00\n        /* \"FreeToken.sol\":590:609  balance[msg.sender] */\n      dup1\n        /* \"FreeToken.sol\":598:608  msg.sender */\n      caller\n        /* \"FreeToken.sol\":590:609  balance[msg.sender] */\n      0xffffffffffffffffffffffffffffffffffffffff\n      and\n      0xffffffffffffffffffffffffffffffffffffffff\n      and\n      dup2\n      mstore\n      0x20\n      add\n      swap1\n      dup2\n      mstore\n      0x20\n      add\n      0x00\n      keccak256\n      sload\n        /* \"FreeToken.sol\":590:620  balance[msg.sender] >= _amount */\n      lt\n      iszero\n        /* \"FreeToken.sol\":582:642  require(balance[msg.sender] >= _amount,\"Insufficient funds\") */\n      tag_18\n      jumpi\n      mload(0x40)\n      0x08c379a000000000000000000000000000000000000000000000000000000000\n      dup2\n      mstore\n      0x04\n      add\n      tag_19\n      swap1\n      tag_20\n      jump\t// in\n    tag_19:\n      mload(0x40)\n      dup1\n      swap2\n      sub\n      swap1\n      revert\n    tag_18:\n        /* \"FreeToken.sol\":673:680  _amount */\n      dup1\n        /* \"FreeToken.sol\":652:659  balance */\n      0x00\n        /* \"FreeToken.sol\":652:671  balance[msg.sender] */\n      dup1\n        /* \"FreeToken.sol\":660:670  msg.sender */\n      caller\n        /* \"FreeToken.sol\":652:671  balance[msg.sender] */\n      0xffffffffffffffffffffffffffffffffffffffff\n      and\n      0xffffffffffffffffffffffffffffffffffffffff\n      and\n      dup2\n      mstore\n      0x20\n      add\n      swap1\n      dup2\n      mstore\n      0x20\n      add\n      0x00\n      keccak256\n      0x00\n        /* \"FreeToken.sol\":652:680  balance[msg.sender]-=_amount */\n      dup3\n      dup3\n      sload\n      tag_21\n      swap2\n      swap1\n      tag_22\n      jump\t// in\n    tag_21:\n      swap3\n      pop\n      pop\n      dup2\n      swap1\n      sstore\n      pop\n        /* \"FreeToken.sol\":704:711  _amount */\n      dup1\n        /* \"FreeToken.sol\":690:697  balance */\n      0x00\n        /* \"FreeToken.sol\":690:702  balance[_to] */\n      dup1\n        /* \"FreeToken.sol\":698:701  _to */\n      dup5\n        /* \"FreeToken.sol\":690:702  balance[_to] */\n      0xffffffffffffffffffffffffffffffffffffffff\n      and\n      0xffffffffffffffffffffffffffffffffffffffff\n      and\n      dup2\n      mstore\n      0x20\n      add\n      swap1\n      dup2\n      mstore\n      0x20\n      add\n      0x00\n      keccak256\n      0x00\n        /* \"FreeToken.sol\":690:711  balance[_to]+=_amount */\n      dup3\n      dup3\n      sload\n      tag_23\n      swap2\n      swap1\n      tag_24\n      jump\t// in\n    tag_23:\n      swap3\n      pop\n      pop\n      dup2\n      swap1\n      sstore\n      pop\n        /* \"FreeToken.sol\":517:718  function transfer(address _to, uint256 _amount) public {... */\n      pop\n      pop\n      jump\t// out\n        /* \"FreeToken.sol\":399:511  function purchase(uint _amount) public {... */\n    tag_13:\n        /* \"FreeToken.sol\":468:475  _amount */\n      dup1\n        /* \"FreeToken.sol\":447:454  balance */\n      0x00\n        /* \"FreeToken.sol\":447:466  balance[msg.sender] */\n      dup1\n        /* \"FreeToken.sol\":455:465  msg.sender */\n      caller\n        /* \"FreeToken.sol\":447:466  balance[msg.sender] */\n      0xffffffffffffffffffffffffffffffffffffffff\n      and\n      0xffffffffffffffffffffffffffffffffffffffff\n      and\n      dup2\n      mstore\n      0x20\n      add\n      swap1\n      dup2\n      mstore\n      0x20\n      add\n      0x00\n      keccak256\n      0x00\n        /* \"FreeToken.sol\":447:475  balance[msg.sender]+=_amount */\n      dup3\n      dup3\n      sload\n      tag_26\n      swap2\n      swap1\n      tag_24\n      jump\t// in\n    tag_26:\n      swap3\n      pop\n      pop\n      dup2\n      swap1\n      sstore\n      pop\n        /* \"FreeToken.sol\":497:504  _amount */\n      dup1\n        /* \"FreeToken.sol\":484:495  totalSupply */\n      0x01\n      0x00\n        /* \"FreeToken.sol\":484:504  totalSupply-=_amount */\n      dup3\n      dup3\n      sload\n      tag_27\n      swap2\n      swap1\n      tag_22\n      jump\t// in\n    tag_27:\n      swap3\n      pop\n      pop\n      dup2\n      swap1\n      sstore\n      pop\n        /* \"FreeToken.sol\":399:511  function purchase(uint _amount) public {... */\n      pop\n      jump\t// out\n        /* \"FreeToken.sol\":263:392  function setTotalSupply(uint _totalSupply) public {... */\n    tag_16:\n        /* \"FreeToken.sol\":340:350  msg.sender */\n      caller\n        /* \"FreeToken.sol\":331:350  owner == msg.sender */\n      0xffffffffffffffffffffffffffffffffffffffff\n      and\n        /* \"FreeToken.sol\":331:336  owner */\n      0x02\n      0x00\n      swap1\n      sload\n      swap1\n      0x0100\n      exp\n      swap1\n      div\n      0xffffffffffffffffffffffffffffffffffffffff\n      and\n        /* \"FreeToken.sol\":331:350  owner == msg.sender */\n      0xffffffffffffffffffffffffffffffffffffffff\n      and\n      eq\n        /* \"FreeToken.sol\":323:351  require(owner == msg.sender) */\n      tag_29\n      jumpi\n      0x00\n      dup1\n      revert\n    tag_29:\n        /* \"FreeToken.sol\":373:385  _totalSupply */\n      dup1\n        /* \"FreeToken.sol\":361:372  totalSupply */\n      0x01\n        /* \"FreeToken.sol\":361:385  totalSupply=_totalSupply */\n      dup2\n      swap1\n      sstore\n      pop\n        /* \"FreeToken.sol\":263:392  function setTotalSupply(uint _totalSupply) public {... */\n      pop\n      jump\t// out\n        /* \"#utility.yul\":88:205   */\n    tag_31:\n        /* \"#utility.yul\":197:198   */\n      0x00\n        /* \"#utility.yul\":194:195   */\n      dup1\n        /* \"#utility.yul\":187:199   */\n      revert\n        /* \"#utility.yul\":334:460   */\n    tag_33:\n        /* \"#utility.yul\":371:378   */\n      0x00\n        /* \"#utility.yul\":411:453   */\n      0xffffffffffffffffffffffffffffffffffffffff\n        /* \"#utility.yul\":404:409   */\n      dup3\n        /* \"#utility.yul\":400:454   */\n      and\n        /* \"#utility.yul\":389:454   */\n      swap1\n      pop\n        /* \"#utility.yul\":334:460   */\n      swap2\n      swap1\n      pop\n      jump\t// out\n        /* \"#utility.yul\":466:562   */\n    tag_34:\n        /* \"#utility.yul\":503:510   */\n      0x00\n        /* \"#utility.yul\":532:556   */\n      tag_50\n        /* \"#utility.yul\":550:555   */\n      dup3\n        /* \"#utility.yul\":532:556   */\n      tag_33\n      jump\t// in\n    tag_50:\n        /* \"#utility.yul\":521:556   */\n      swap1\n      pop\n        /* \"#utility.yul\":466:562   */\n      swap2\n      swap1\n      pop\n      jump\t// out\n        /* \"#utility.yul\":568:690   */\n    tag_35:\n        /* \"#utility.yul\":641:665   */\n      tag_52\n        /* \"#utility.yul\":659:664   */\n      dup2\n        /* \"#utility.yul\":641:665   */\n      tag_34\n      jump\t// in\n    tag_52:\n        /* \"#utility.yul\":634:639   */\n      dup2\n        /* \"#utility.yul\":631:666   */\n      eq\n        /* \"#utility.yul\":621:684   */\n      tag_53\n      jumpi\n        /* \"#utility.yul\":680:681   */\n      0x00\n        /* \"#utility.yul\":677:678   */\n      dup1\n        /* \"#utility.yul\":670:682   */\n      revert\n        /* \"#utility.yul\":621:684   */\n    tag_53:\n        /* \"#utility.yul\":568:690   */\n      pop\n      jump\t// out\n        /* \"#utility.yul\":696:835   */\n    tag_36:\n        /* \"#utility.yul\":742:747   */\n      0x00\n        /* \"#utility.yul\":780:786   */\n      dup2\n        /* \"#utility.yul\":767:787   */\n      calldataload\n        /* \"#utility.yul\":758:787   */\n      swap1\n      pop\n        /* \"#utility.yul\":796:829   */\n      tag_55\n        /* \"#utility.yul\":823:828   */\n      dup2\n        /* \"#utility.yul\":796:829   */\n      tag_35\n      jump\t// in\n    tag_55:\n        /* \"#utility.yul\":696:835   */\n      swap3\n      swap2\n      pop\n      pop\n      jump\t// out\n        /* \"#utility.yul\":841:918   */\n    tag_37:\n        /* \"#utility.yul\":878:885   */\n      0x00\n        /* \"#utility.yul\":907:912   */\n      dup2\n        /* \"#utility.yul\":896:912   */\n      swap1\n      pop\n        /* \"#utility.yul\":841:918   */\n      swap2\n      swap1\n      pop\n      jump\t// out\n        /* \"#utility.yul\":924:1046   */\n    tag_38:\n        /* \"#utility.yul\":997:1021   */\n      tag_58\n        /* \"#utility.yul\":1015:1020   */\n      dup2\n        /* \"#utility.yul\":997:1021   */\n      tag_37\n      jump\t// in\n    tag_58:\n        /* \"#utility.yul\":990:995   */\n      dup2\n        /* \"#utility.yul\":987:1022   */\n      eq\n        /* \"#utility.yul\":977:1040   */\n      tag_59\n      jumpi\n        /* \"#utility.yul\":1036:1037   */\n      0x00\n        /* \"#utility.yul\":1033:1034   */\n      dup1\n        /* \"#utility.yul\":1026:1038   */\n      revert\n        /* \"#utility.yul\":977:1040   */\n    tag_59:\n        /* \"#utility.yul\":924:1046   */\n      pop\n      jump\t// out\n        /* \"#utility.yul\":1052:1191   */\n    tag_39:\n        /* \"#utility.yul\":1098:1103   */\n      0x00\n        /* \"#utility.yul\":1136:1142   */\n      dup2\n        /* \"#utility.yul\":1123:1143   */\n      calldataload\n        /* \"#utility.yul\":1114:1143   */\n      swap1\n      pop\n        /* \"#utility.yul\":1152:1185   */\n      tag_61\n        /* \"#utility.yul\":1179:1184   */\n      dup2\n        /* \"#utility.yul\":1152:1185   */\n      tag_38\n      jump\t// in\n    tag_61:\n        /* \"#utility.yul\":1052:1191   */\n      swap3\n      swap2\n      pop\n      pop\n      jump\t// out\n        /* \"#utility.yul\":1197:1671   */\n    tag_8:\n        /* \"#utility.yul\":1265:1271   */\n      0x00\n        /* \"#utility.yul\":1273:1279   */\n      dup1\n        /* \"#utility.yul\":1322:1324   */\n      0x40\n        /* \"#utility.yul\":1310:1319   */\n      dup4\n        /* \"#utility.yul\":1301:1308   */\n      dup6\n        /* \"#utility.yul\":1297:1320   */\n      sub\n        /* \"#utility.yul\":1293:1325   */\n      slt\n        /* \"#utility.yul\":1290:1409   */\n      iszero\n      tag_63\n      jumpi\n        /* \"#utility.yul\":1328:1407   */\n      tag_64\n      tag_31\n      jump\t// in\n    tag_64:\n        /* \"#utility.yul\":1290:1409   */\n    tag_63:\n        /* \"#utility.yul\":1448:1449   */\n      0x00\n        /* \"#utility.yul\":1473:1526   */\n      tag_65\n        /* \"#utility.yul\":1518:1525   */\n      dup6\n        /* \"#utility.yul\":1509:1515   */\n      dup3\n        /* \"#utility.yul\":1498:1507   */\n      dup7\n        /* \"#utility.yul\":1494:1516   */\n      add\n        /* \"#utility.yul\":1473:1526   */\n      tag_36\n      jump\t// in\n    tag_65:\n        /* \"#utility.yul\":1463:1526   */\n      swap3\n      pop\n        /* \"#utility.yul\":1419:1536   */\n      pop\n        /* \"#utility.yul\":1575:1577   */\n      0x20\n        /* \"#utility.yul\":1601:1654   */\n      tag_66\n        /* \"#utility.yul\":1646:1653   */\n      dup6\n        /* \"#utility.yul\":1637:1643   */\n      dup3\n        /* \"#utility.yul\":1626:1635   */\n      dup7\n        /* \"#utility.yul\":1622:1644   */\n      add\n        /* \"#utility.yul\":1601:1654   */\n      tag_39\n      jump\t// in\n    tag_66:\n        /* \"#utility.yul\":1591:1654   */\n      swap2\n      pop\n        /* \"#utility.yul\":1546:1664   */\n      pop\n        /* \"#utility.yul\":1197:1671   */\n      swap3\n      pop\n      swap3\n      swap1\n      pop\n      jump\t// out\n        /* \"#utility.yul\":1677:2006   */\n    tag_12:\n        /* \"#utility.yul\":1736:1742   */\n      0x00\n        /* \"#utility.yul\":1785:1787   */\n      0x20\n        /* \"#utility.yul\":1773:1782   */\n      dup3\n        /* \"#utility.yul\":1764:1771   */\n      dup5\n        /* \"#utility.yul\":1760:1783   */\n      sub\n        /* \"#utility.yul\":1756:1788   */\n      slt\n        /* \"#utility.yul\":1753:1872   */\n      iszero\n      tag_68\n      jumpi\n        /* \"#utility.yul\":1791:1870   */\n      tag_69\n      tag_31\n      jump\t// in\n    tag_69:\n        /* \"#utility.yul\":1753:1872   */\n    tag_68:\n        /* \"#utility.yul\":1911:1912   */\n      0x00\n        /* \"#utility.yul\":1936:1989   */\n      tag_70\n        /* \"#utility.yul\":1981:1988   */\n      dup5\n        /* \"#utility.yul\":1972:1978   */\n      dup3\n        /* \"#utility.yul\":1961:1970   */\n      dup6\n        /* \"#utility.yul\":1957:1979   */\n      add\n        /* \"#utility.yul\":1936:1989   */\n      tag_39\n      jump\t// in\n    tag_70:\n        /* \"#utility.yul\":1926:1989   */\n      swap2\n      pop\n        /* \"#utility.yul\":1882:1999   */\n      pop\n        /* \"#utility.yul\":1677:2006   */\n      swap3\n      swap2\n      pop\n      pop\n      jump\t// out\n        /* \"#utility.yul\":2012:2181   */\n    tag_40:\n        /* \"#utility.yul\":2096:2107   */\n      0x00\n        /* \"#utility.yul\":2130:2136   */\n      dup3\n        /* \"#utility.yul\":2125:2128   */\n      dup3\n        /* \"#utility.yul\":2118:2137   */\n      mstore\n        /* \"#utility.yul\":2170:2174   */\n      0x20\n        /* \"#utility.yul\":2165:2168   */\n      dup3\n        /* \"#utility.yul\":2161:2175   */\n      add\n        /* \"#utility.yul\":2146:2175   */\n      swap1\n      pop\n        /* \"#utility.yul\":2012:2181   */\n      swap3\n      swap2\n      pop\n      pop\n      jump\t// out\n        /* \"#utility.yul\":2187:2355   */\n    tag_41:\n        /* \"#utility.yul\":2327:2347   */\n      0x496e73756666696369656e742066756e64730000000000000000000000000000\n        /* \"#utility.yul\":2323:2324   */\n      0x00\n        /* \"#utility.yul\":2315:2321   */\n      dup3\n        /* \"#utility.yul\":2311:2325   */\n      add\n        /* \"#utility.yul\":2304:2348   */\n      mstore\n        /* \"#utility.yul\":2187:2355   */\n      pop\n      jump\t// out\n        /* \"#utility.yul\":2361:2727   */\n    tag_42:\n        /* \"#utility.yul\":2503:2506   */\n      0x00\n        /* \"#utility.yul\":2524:2591   */\n      tag_74\n        /* \"#utility.yul\":2588:2590   */\n      0x12\n        /* \"#utility.yul\":2583:2586   */\n      dup4\n        /* \"#utility.yul\":2524:2591   */\n      tag_40\n      jump\t// in\n    tag_74:\n        /* \"#utility.yul\":2517:2591   */\n      swap2\n      pop\n        /* \"#utility.yul\":2600:2693   */\n      tag_75\n        /* \"#utility.yul\":2689:2692   */\n      dup3\n        /* \"#utility.yul\":2600:2693   */\n      tag_41\n      jump\t// in\n    tag_75:\n        /* \"#utility.yul\":2718:2720   */\n      0x20\n        /* \"#utility.yul\":2713:2716   */\n      dup3\n        /* \"#utility.yul\":2709:2721   */\n      add\n        /* \"#utility.yul\":2702:2721   */\n      swap1\n      pop\n        /* \"#utility.yul\":2361:2727   */\n      swap2\n      swap1\n      pop\n      jump\t// out\n        /* \"#utility.yul\":2733:3152   */\n    tag_20:\n        /* \"#utility.yul\":2899:2903   */\n      0x00\n        /* \"#utility.yul\":2937:2939   */\n      0x20\n        /* \"#utility.yul\":2926:2935   */\n      dup3\n        /* \"#utility.yul\":2922:2940   */\n      add\n        /* \"#utility.yul\":2914:2940   */\n      swap1\n      pop\n        /* \"#utility.yul\":2986:2995   */\n      dup2\n        /* \"#utility.yul\":2980:2984   */\n      dup2\n        /* \"#utility.yul\":2976:2996   */\n      sub\n        /* \"#utility.yul\":2972:2973   */\n      0x00\n        /* \"#utility.yul\":2961:2970   */\n      dup4\n        /* \"#utility.yul\":2957:2974   */\n      add\n        /* \"#utility.yul\":2950:2997   */\n      mstore\n        /* \"#utility.yul\":3014:3145   */\n      tag_77\n        /* \"#utility.yul\":3140:3144   */\n      dup2\n        /* \"#utility.yul\":3014:3145   */\n      tag_42\n      jump\t// in\n    tag_77:\n        /* \"#utility.yul\":3006:3145   */\n      swap1\n      pop\n        /* \"#utility.yul\":2733:3152   */\n      swap2\n      swap1\n      pop\n      jump\t// out\n        /* \"#utility.yul\":3158:3338   */\n    tag_43:\n        /* \"#utility.yul\":3206:3283   */\n      0x4e487b7100000000000000000000000000000000000000000000000000000000\n        /* \"#utility.yul\":3203:3204   */\n      0x00\n        /* \"#utility.yul\":3196:3284   */\n      mstore\n        /* \"#utility.yul\":3303:3307   */\n      0x11\n        /* \"#utility.yul\":3300:3301   */\n      0x04\n        /* \"#utility.yul\":3293:3308   */\n      mstore\n        /* \"#utility.yul\":3327:3331   */\n      0x24\n        /* \"#utility.yul\":3324:3325   */\n      0x00\n        /* \"#utility.yul\":3317:3332   */\n      revert\n        /* \"#utility.yul\":3344:3535   */\n    tag_22:\n        /* \"#utility.yul\":3384:3388   */\n      0x00\n        /* \"#utility.yul\":3404:3424   */\n      tag_80\n        /* \"#utility.yul\":3422:3423   */\n      dup3\n        /* \"#utility.yul\":3404:3424   */\n      tag_37\n      jump\t// in\n    tag_80:\n        /* \"#utility.yul\":3399:3424   */\n      swap2\n      pop\n        /* \"#utility.yul\":3438:3458   */\n      tag_81\n        /* \"#utility.yul\":3456:3457   */\n      dup4\n        /* \"#utility.yul\":3438:3458   */\n      tag_37\n      jump\t// in\n    tag_81:\n        /* \"#utility.yul\":3433:3458   */\n      swap3\n      pop\n        /* \"#utility.yul\":3477:3478   */\n      dup3\n        /* \"#utility.yul\":3474:3475   */\n      dup3\n        /* \"#utility.yul\":3471:3479   */\n      lt\n        /* \"#utility.yul\":3468:3502   */\n      iszero\n      tag_82\n      jumpi\n        /* \"#utility.yul\":3482:3500   */\n      tag_83\n      tag_43\n      jump\t// in\n    tag_83:\n        /* \"#utility.yul\":3468:3502   */\n    tag_82:\n        /* \"#utility.yul\":3527:3528   */\n      dup3\n        /* \"#utility.yul\":3524:3525   */\n      dup3\n        /* \"#utility.yul\":3520:3529   */\n      sub\n        /* \"#utility.yul\":3512:3529   */\n      swap1\n      pop\n        /* \"#utility.yul\":3344:3535   */\n      swap3\n      swap2\n      pop\n      pop\n      jump\t// out\n        /* \"#utility.yul\":3541:3846   */\n    tag_24:\n        /* \"#utility.yul\":3581:3584   */\n      0x00\n        /* \"#utility.yul\":3600:3620   */\n      tag_85\n        /* \"#utility.yul\":3618:3619   */\n      dup3\n        /* \"#utility.yul\":3600:3620   */\n      tag_37\n      jump\t// in\n    tag_85:\n        /* \"#utility.yul\":3595:3620   */\n      swap2\n      pop\n        /* \"#utility.yul\":3634:3654   */\n      tag_86\n        /* \"#utility.yul\":3652:3653   */\n      dup4\n        /* \"#utility.yul\":3634:3654   */\n      tag_37\n      jump\t// in\n    tag_86:\n        /* \"#utility.yul\":3629:3654   */\n      swap3\n      pop\n        /* \"#utility.yul\":3788:3789   */\n      dup3\n        /* \"#utility.yul\":3720:3786   */\n      0xffffffffffffffffffffffffffffffffffffffffffffffffffffffffffffffff\n        /* \"#utility.yul\":3716:3790   */\n      sub\n        /* \"#utility.yul\":3713:3714   */\n      dup3\n        /* \"#utility.yul\":3710:3791   */\n      gt\n        /* \"#utility.yul\":3707:3814   */\n      iszero\n      tag_87\n      jumpi\n        /* \"#utility.yul\":3794:3812   */\n      tag_88\n      tag_43\n      jump\t// in\n    tag_88:\n        /* \"#utility.yul\":3707:3814   */\n    tag_87:\n        /* \"#utility.yul\":3838:3839   */\n      dup3\n        /* \"#utility.yul\":3835:3836   */\n      dup3\n        /* \"#utility.yul\":3831:3840   */\n      add\n        /* \"#utility.yul\":3824:3840   */\n      swap1\n      pop\n        /* \"#utility.yul\":3541:3846   */\n      swap3\n      swap2\n      pop\n      pop\n      jump\t// out\n\n    auxdata: 0xa2646970667358221220036d4c42b3b4e72d707b4200f79176db5dbd296c2e8ccdaebbc8f7962dc8d2c664736f6c63430008080033\n}\n",
				"bytecode": {
					"linkReferences": {},
					"object": "608060405234801561001057600080fd5b5033600260006101000a81548173ffffffffffffffffffffffffffffffffffffffff021916908373ffffffffffffffffffffffffffffffffffffffff160217905550610510806100616000396000f3fe608060405234801561001057600080fd5b50600436106100415760003560e01c8063a9059cbb14610046578063efef39a114610062578063f7ea7a3d1461007e575b600080fd5b610060600480360381019061005b9190610337565b61009a565b005b61007c60048036038101906100779190610377565b6101c9565b005b61009860048036038101906100939190610377565b61023a565b005b806000803373ffffffffffffffffffffffffffffffffffffffff1673ffffffffffffffffffffffffffffffffffffffff16815260200190815260200160002054101561011b576040517f08c379a000000000000000000000000000000000000000000000000000000000815260040161011290610401565b60405180910390fd5b806000803373ffffffffffffffffffffffffffffffffffffffff1673ffffffffffffffffffffffffffffffffffffffff16815260200190815260200160002060008282546101699190610450565b92505081905550806000808473ffffffffffffffffffffffffffffffffffffffff1673ffffffffffffffffffffffffffffffffffffffff16815260200190815260200160002060008282546101be9190610484565b925050819055505050565b806000803373ffffffffffffffffffffffffffffffffffffffff1673ffffffffffffffffffffffffffffffffffffffff16815260200190815260200160002060008282546102179190610484565b9250508190555080600160008282546102309190610450565b9250508190555050565b3373ffffffffffffffffffffffffffffffffffffffff16600260009054906101000a900473ffffffffffffffffffffffffffffffffffffffff1673ffffffffffffffffffffffffffffffffffffffff161461029457600080fd5b8060018190555050565b600080fd5b600073ffffffffffffffffffffffffffffffffffffffff82169050919050565b60006102ce826102a3565b9050919050565b6102de816102c3565b81146102e957600080fd5b50565b6000813590506102fb816102d5565b92915050565b6000819050919050565b61031481610301565b811461031f57600080fd5b50565b6000813590506103318161030b565b92915050565b6000806040838503121561034e5761034d61029e565b5b600061035c858286016102ec565b925050602061036d85828601610322565b9150509250929050565b60006020828403121561038d5761038c61029e565b5b600061039b84828501610322565b91505092915050565b600082825260208201905092915050565b7f496e73756666696369656e742066756e64730000000000000000000000000000600082015250565b60006103eb6012836103a4565b91506103f6826103b5565b602082019050919050565b6000602082019050818103600083015261041a816103de565b9050919050565b7f4e487b7100000000000000000000000000000000000000000000000000000000600052601160045260246000fd5b600061045b82610301565b915061046683610301565b92508282101561047957610478610421565b5b828203905092915050565b600061048f82610301565b915061049a83610301565b9250827fffffffffffffffffffffffffffffffffffffffffffffffffffffffffffffffff038211156104cf576104ce610421565b5b82820190509291505056fea2646970667358221220036d4c42b3b4e72d707b4200f79176db5dbd296c2e8ccdaebbc8f7962dc8d2c664736f6c63430008080033",
					"opcodes": "PUSH1 0x80 PUSH1 0x40 MSTORE CALLVALUE DUP1 ISZERO PUSH2 0x10 JUMPI PUSH1 0x0 DUP1 REVERT JUMPDEST POP CALLER PUSH1 0x2 PUSH1 0x0 PUSH2 0x100 EXP DUP2 SLOAD DUP2 PUSH20 0xFFFFFFFFFFFFFFFFFFFFFFFFFFFFFFFFFFFFFFFF MUL NOT AND SWAP1 DUP4 PUSH20 0xFFFFFFFFFFFFFFFFFFFFFFFFFFFFFFFFFFFFFFFF AND MUL OR SWAP1 SSTORE POP PUSH2 0x510 DUP1 PUSH2 0x61 PUSH1 0x0 CODECOPY PUSH1 0x0 RETURN INVALID PUSH1 0x80 PUSH1 0x40 MSTORE CALLVALUE DUP1 ISZERO PUSH2 0x10 JUMPI PUSH1 0x0 DUP1 REVERT JUMPDEST POP PUSH1 0x4 CALLDATASIZE LT PUSH2 0x41 JUMPI PUSH1 0x0 CALLDATALOAD PUSH1 0xE0 SHR DUP1 PUSH4 0xA9059CBB EQ PUSH2 0x46 JUMPI DUP1 PUSH4 0xEFEF39A1 EQ PUSH2 0x62 JUMPI DUP1 PUSH4 0xF7EA7A3D EQ PUSH2 0x7E JUMPI JUMPDEST PUSH1 0x0 DUP1 REVERT JUMPDEST PUSH2 0x60 PUSH1 0x4 DUP1 CALLDATASIZE SUB DUP2 ADD SWAP1 PUSH2 0x5B SWAP2 SWAP1 PUSH2 0x337 JUMP JUMPDEST PUSH2 0x9A JUMP JUMPDEST STOP JUMPDEST PUSH2 0x7C PUSH1 0x4 DUP1 CALLDATASIZE SUB DUP2 ADD SWAP1 PUSH2 0x77 SWAP2 SWAP1 PUSH2 0x377 JUMP JUMPDEST PUSH2 0x1C9 JUMP JUMPDEST STOP JUMPDEST PUSH2 0x98 PUSH1 0x4 DUP1 CALLDATASIZE SUB DUP2 ADD SWAP1 PUSH2 0x93 SWAP2 SWAP1 PUSH2 0x377 JUMP JUMPDEST PUSH2 0x23A JUMP JUMPDEST STOP JUMPDEST DUP1 PUSH1 0x0 DUP1 CALLER PUSH20 0xFFFFFFFFFFFFFFFFFFFFFFFFFFFFFFFFFFFFFFFF AND PUSH20 0xFFFFFFFFFFFFFFFFFFFFFFFFFFFFFFFFFFFFFFFF AND DUP2 MSTORE PUSH1 0x20 ADD SWAP1 DUP2 MSTORE PUSH1 0x20 ADD PUSH1 0x0 KECCAK256 SLOAD LT ISZERO PUSH2 0x11B JUMPI PUSH1 0x40 MLOAD PUSH32 0x8C379A000000000000000000000000000000000000000000000000000000000 DUP2 MSTORE PUSH1 0x4 ADD PUSH2 0x112 SWAP1 PUSH2 0x401 JUMP JUMPDEST PUSH1 0x40 MLOAD DUP1 SWAP2 SUB SWAP1 REVERT JUMPDEST DUP1 PUSH1 0x0 DUP1 CALLER PUSH20 0xFFFFFFFFFFFFFFFFFFFFFFFFFFFFFFFFFFFFFFFF AND PUSH20 0xFFFFFFFFFFFFFFFFFFFFFFFFFFFFFFFFFFFFFFFF AND DUP2 MSTORE PUSH1 0x20 ADD SWAP1 DUP2 MSTORE PUSH1 0x20 ADD PUSH1 0x0 KECCAK256 PUSH1 0x0 DUP3 DUP3 SLOAD PUSH2 0x169 SWAP2 SWAP1 PUSH2 0x450 JUMP JUMPDEST SWAP3 POP POP DUP2 SWAP1 SSTORE POP DUP1 PUSH1 0x0 DUP1 DUP5 PUSH20 0xFFFFFFFFFFFFFFFFFFFFFFFFFFFFFFFFFFFFFFFF AND PUSH20 0xFFFFFFFFFFFFFFFFFFFFFFFFFFFFFFFFFFFFFFFF AND DUP2 MSTORE PUSH1 0x20 ADD SWAP1 DUP2 MSTORE PUSH1 0x20 ADD PUSH1 0x0 KECCAK256 PUSH1 0x0 DUP3 DUP3 SLOAD PUSH2 0x1BE SWAP2 SWAP1 PUSH2 0x484 JUMP JUMPDEST SWAP3 POP POP DUP2 SWAP1 SSTORE POP POP POP JUMP JUMPDEST DUP1 PUSH1 0x0 DUP1 CALLER PUSH20 0xFFFFFFFFFFFFFFFFFFFFFFFFFFFFFFFFFFFFFFFF AND PUSH20 0xFFFFFFFFFFFFFFFFFFFFFFFFFFFFFFFFFFFFFFFF AND DUP2 MSTORE PUSH1 0x20 ADD SWAP1 DUP2 MSTORE PUSH1 0x20 ADD PUSH1 0x0 KECCAK256 PUSH1 0x0 DUP3 DUP3 SLOAD PUSH2 0x217 SWAP2 SWAP1 PUSH2 0x484 JUMP JUMPDEST SWAP3 POP POP DUP2 SWAP1 SSTORE POP DUP1 PUSH1 0x1 PUSH1 0x0 DUP3 DUP3 SLOAD PUSH2 0x230 SWAP2 SWAP1 PUSH2 0x450 JUMP JUMPDEST SWAP3 POP POP DUP2 SWAP1 SSTORE POP POP JUMP JUMPDEST CALLER PUSH20 0xFFFFFFFFFFFFFFFFFFFFFFFFFFFFFFFFFFFFFFFF AND PUSH1 0x2 PUSH1 0x0 SWAP1 SLOAD SWAP1 PUSH2 0x100 EXP SWAP1 DIV PUSH20 0xFFFFFFFFFFFFFFFFFFFFFFFFFFFFFFFFFFFFFFFF AND PUSH20 0xFFFFFFFFFFFFFFFFFFFFFFFFFFFFFFFFFFFFFFFF AND EQ PUSH2 0x294 JUMPI PUSH1 0x0 DUP1 REVERT JUMPDEST DUP1 PUSH1 0x1 DUP2 SWAP1 SSTORE POP POP JUMP JUMPDEST PUSH1 0x0 DUP1 REVERT JUMPDEST PUSH1 0x0 PUSH20 0xFFFFFFFFFFFFFFFFFFFFFFFFFFFFFFFFFFFFFFFF DUP3 AND SWAP1 POP SWAP2 SWAP1 POP JUMP JUMPDEST PUSH1 0x0 PUSH2 0x2CE DUP3 PUSH2 0x2A3 JUMP JUMPDEST SWAP1 POP SWAP2 SWAP1 POP JUMP JUMPDEST PUSH2 0x2DE DUP2 PUSH2 0x2C3 JUMP JUMPDEST DUP2 EQ PUSH2 0x2E9 JUMPI PUSH1 0x0 DUP1 REVERT JUMPDEST POP JUMP JUMPDEST PUSH1 0x0 DUP2 CALLDATALOAD SWAP1 POP PUSH2 0x2FB DUP2 PUSH2 0x2D5 JUMP JUMPDEST SWAP3 SWAP2 POP POP JUMP JUMPDEST PUSH1 0x0 DUP2 SWAP1 POP SWAP2 SWAP1 POP JUMP JUMPDEST PUSH2 0x314 DUP2 PUSH2 0x301 JUMP JUMPDEST DUP2 EQ PUSH2 0x31F JUMPI PUSH1 0x0 DUP1 REVERT JUMPDEST POP JUMP JUMPDEST PUSH1 0x0 DUP2 CALLDATALOAD SWAP1 POP PUSH2 0x331 DUP2 PUSH2 0x30B JUMP JUMPDEST SWAP3 SWAP2 POP POP JUMP JUMPDEST PUSH1 0x0 DUP1 PUSH1 0x40 DUP4 DUP6 SUB SLT ISZERO PUSH2 0x34E JUMPI PUSH2 0x34D PUSH2 0x29E JUMP JUMPDEST JUMPDEST PUSH1 0x0 PUSH2 0x35C DUP6 DUP3 DUP7 ADD PUSH2 0x2EC JUMP JUMPDEST SWAP3 POP POP PUSH1 0x20 PUSH2 0x36D DUP6 DUP3 DUP7 ADD PUSH2 0x322 JUMP JUMPDEST SWAP2 POP POP SWAP3 POP SWAP3 SWAP1 POP JUMP JUMPDEST PUSH1 0x0 PUSH1 0x20 DUP3 DUP5 SUB SLT ISZERO PUSH2 0x38D JUMPI PUSH2 0x38C PUSH2 0x29E JUMP JUMPDEST JUMPDEST PUSH1 0x0 PUSH2 0x39B DUP5 DUP3 DUP6 ADD PUSH2 0x322 JUMP JUMPDEST SWAP2 POP POP SWAP3 SWAP2 POP POP JUMP JUMPDEST PUSH1 0x0 DUP3 DUP3 MSTORE PUSH1 0x20 DUP3 ADD SWAP1 POP SWAP3 SWAP2 POP POP JUMP JUMPDEST PUSH32 0x496E73756666696369656E742066756E64730000000000000000000000000000 PUSH1 0x0 DUP3 ADD MSTORE POP JUMP JUMPDEST PUSH1 0x0 PUSH2 0x3EB PUSH1 0x12 DUP4 PUSH2 0x3A4 JUMP JUMPDEST SWAP2 POP PUSH2 0x3F6 DUP3 PUSH2 0x3B5 JUMP JUMPDEST PUSH1 0x20 DUP3 ADD SWAP1 POP SWAP2 SWAP1 POP JUMP JUMPDEST PUSH1 0x0 PUSH1 0x20 DUP3 ADD SWAP1 POP DUP2 DUP2 SUB PUSH1 0x0 DUP4 ADD MSTORE PUSH2 0x41A DUP2 PUSH2 0x3DE JUMP JUMPDEST SWAP1 POP SWAP2 SWAP1 POP JUMP JUMPDEST PUSH32 0x4E487B7100000000000000000000000000000000000000000000000000000000 PUSH1 0x0 MSTORE PUSH1 0x11 PUSH1 0x4 MSTORE PUSH1 0x24 PUSH1 0x0 REVERT JUMPDEST PUSH1 0x0 PUSH2 0x45B DUP3 PUSH2 0x301 JUMP JUMPDEST SWAP2 POP PUSH2 0x466 DUP4 PUSH2 0x301 JUMP JUMPDEST SWAP3 POP DUP3 DUP3 LT ISZERO PUSH2 0x479 JUMPI PUSH2 0x478 PUSH2 0x421 JUMP JUMPDEST JUMPDEST DUP3 DUP3 SUB SWAP1 POP SWAP3 SWAP2 POP POP JUMP JUMPDEST PUSH1 0x0 PUSH2 0x48F DUP3 PUSH2 0x301 JUMP JUMPDEST SWAP2 POP PUSH2 0x49A DUP4 PUSH2 0x301 JUMP JUMPDEST SWAP3 POP DUP3 PUSH32 0xFFFFFFFFFFFFFFFFFFFFFFFFFFFFFFFFFFFFFFFFFFFFFFFFFFFFFFFFFFFFFFFF SUB DUP3 GT ISZERO PUSH2 0x4CF JUMPI PUSH2 0x4CE PUSH2 0x421 JUMP JUMPDEST JUMPDEST DUP3 DUP3 ADD SWAP1 POP SWAP3 SWAP2 POP POP JUMP INVALID LOG2 PUSH5 0x6970667358 0x22 SLT KECCAK256 SUB PUSH14 0x4C42B3B4E72D707B4200F79176DB 0x5D 0xBD 0x29 PUSH13 0x2E8CCDAEBBC8F7962DC8D2C664 PUSH20 0x6F6C634300080800330000000000000000000000 "
				},
				"gasEstimates": {
					"creation": {
						"codeDepositCost": "259200",
						"executionCost": "24566",
						"totalCost": "283766"
					},
					"external": {
						"purchase(uint256)": "infinite",
						"setTotalSupply(uint256)": "24712",
						"transfer(address,uint256)": "infinite"
					}
				},
				"methodIdentifiers": {
					"purchase(uint256)": "efef39a1",
					"setTotalSupply(uint256)": "f7ea7a3d",
					"transfer(address,uint256)": "a9059cbb"
				}
			},
			"storageLayout": {
				"storage": [
					{
						"astId": 5,
						"contract": "FreeToken.sol:FreeToken",
						"label": "balance",
						"offset": 0,
						"slot": "0",
						"type": "t_mapping(t_address,t_uint256)"
					},
					{
						"astId": 7,
						"contract": "FreeToken.sol:FreeToken",
						"label": "totalSupply",
						"offset": 0,
						"slot": "1",
						"type": "t_uint256"
					},
					{
						"astId": 9,
						"contract": "FreeToken.sol:FreeToken",
						"label": "owner",
						"offset": 0,
						"slot": "2",
						"type": "t_address"
					}
				],
				"types": {
					"t_address": {
						"encoding": "inplace",
						"label": "address",
						"numberOfBytes": "20"
					},
					"t_mapping(t_address,t_uint256)": {
						"encoding": "mapping",
						"key": "t_address",
						"label": "mapping(address => uint256)",
						"numberOfBytes": "32",
						"value": "t_uint256"
					},
					"t_uint256": {
						"encoding": "inplace",
						"label": "uint256",
						"numberOfBytes": "32"
					}
				}
			},
			"userdoc": {
				"kind": "user",
				"methods": {},
				"version": 1
			}
		}
	}
}