{
	"SaleAggrement.sol": {
		"SaleAggrement": {
			"abi": [
				{
					"inputs": [],
					"stateMutability": "payable",
					"type": "constructor"
				},
				{
					"anonymous": false,
					"inputs": [],
					"name": "Aborted",
					"type": "event"
				},
				{
					"anonymous": false,
					"inputs": [],
					"name": "ItemReceived",
					"type": "event"
				},
				{
					"anonymous": false,
					"inputs": [],
					"name": "confirmedPurchase",
					"type": "event"
				},
				{
					"inputs": [],
					"name": "abort",
					"outputs": [],
					"stateMutability": "nonpayable",
					"type": "function"
				},
				{
					"inputs": [],
					"name": "buyer",
					"outputs": [
						{
							"internalType": "address payable",
							"name": "",
							"type": "address"
						}
					],
					"stateMutability": "view",
					"type": "function"
				},
				{
					"inputs": [],
					"name": "confirmPurchase",
					"outputs": [],
					"stateMutability": "payable",
					"type": "function"
				},
				{
					"inputs": [],
					"name": "confirmReceive",
					"outputs": [],
					"stateMutability": "nonpayable",
					"type": "function"
				},
				{
					"inputs": [],
					"name": "seller",
					"outputs": [
						{
							"internalType": "address payable",
							"name": "",
							"type": "address"
						}
					],
					"stateMutability": "view",
					"type": "function"
				},
				{
					"inputs": [],
					"name": "state",
					"outputs": [
						{
							"internalType": "enum SaleAggrement.State",
							"name": "",
							"type": "uint8"
						}
					],
					"stateMutability": "view",
					"type": "function"
				}
			],
			"devdoc": {
				"kind": "dev",
				"methods": {},
				"version": 1
			},
			"evm": {
				"assembly": "    /* \"SaleAggrement.sol\":58:1316  contract SaleAggrement{... */\n  mstore(0x40, 0x80)\n    /* \"SaleAggrement.sol\":287:297  msg.sender */\n  caller\n    /* \"SaleAggrement.sol\":272:278  seller */\n  0x02\n  0x00\n    /* \"SaleAggrement.sol\":272:298  seller=payable(msg.sender) */\n  0x0100\n  exp\n  dup2\n  sload\n  dup2\n  0xffffffffffffffffffffffffffffffffffffffff\n  mul\n  not\n  and\n  swap1\n  dup4\n  0xffffffffffffffffffffffffffffffffffffffff\n  and\n  mul\n  or\n  swap1\n  sstore\n  pop\n    /* \"SaleAggrement.sol\":314:323  msg.value */\n  callvalue\n    /* \"SaleAggrement.sol\":308:313  value */\n  0x00\n    /* \"SaleAggrement.sol\":308:323  value=msg.value */\n  dup2\n  swap1\n  sstore\n  pop\n    /* \"SaleAggrement.sol\":339:352  State.created */\n  0x00\n    /* \"SaleAggrement.sol\":333:338  state */\n  0x02\n  0x14\n    /* \"SaleAggrement.sol\":333:352  state=State.created */\n  0x0100\n  exp\n  dup2\n  sload\n  dup2\n  0xff\n  mul\n  not\n  and\n  swap1\n  dup4\n  0x02\n  dup2\n  gt\n  iszero\n  tag_3\n  jumpi\n  tag_4\n  tag_5\n  jump\t// in\ntag_4:\ntag_3:\n  mul\n  or\n  swap1\n  sstore\n  pop\n    /* \"SaleAggrement.sol\":58:1316  contract SaleAggrement{... */\n  jump(tag_6)\n    /* \"#utility.yul\":7:187   */\ntag_5:\n    /* \"#utility.yul\":55:132   */\n  0x4e487b7100000000000000000000000000000000000000000000000000000000\n    /* \"#utility.yul\":52:53   */\n  0x00\n    /* \"#utility.yul\":45:133   */\n  mstore\n    /* \"#utility.yul\":152:156   */\n  0x21\n    /* \"#utility.yul\":149:150   */\n  0x04\n    /* \"#utility.yul\":142:157   */\n  mstore\n    /* \"#utility.yul\":176:180   */\n  0x24\n    /* \"#utility.yul\":173:174   */\n  0x00\n    /* \"#utility.yul\":166:181   */\n  revert\n    /* \"SaleAggrement.sol\":58:1316  contract SaleAggrement{... */\ntag_6:\n  dataSize(sub_0)\n  dup1\n  dataOffset(sub_0)\n  0x00\n  codecopy\n  0x00\n  return\nstop\n\nsub_0: assembly {\n        /* \"SaleAggrement.sol\":58:1316  contract SaleAggrement{... */\n      mstore(0x40, 0x80)\n      jumpi(tag_1, lt(calldatasize, 0x04))\n      shr(0xe0, calldataload(0x00))\n      dup1\n      0x08551a53\n      eq\n      tag_2\n      jumpi\n      dup1\n      0x35a063b4\n      eq\n      tag_3\n      jumpi\n      dup1\n      0x7150d8ae\n      eq\n      tag_4\n      jumpi\n      dup1\n      0xc19d93fb\n      eq\n      tag_5\n      jumpi\n      dup1\n      0xd6960697\n      eq\n      tag_6\n      jumpi\n      dup1\n      0xffcfd076\n      eq\n      tag_7\n      jumpi\n    tag_1:\n      0x00\n      dup1\n      revert\n        /* \"SaleAggrement.sol\":136:165  address payable public seller */\n    tag_2:\n      callvalue\n      dup1\n      iszero\n      tag_8\n      jumpi\n      0x00\n      dup1\n      revert\n    tag_8:\n      pop\n      tag_9\n      tag_10\n      jump\t// in\n    tag_9:\n      mload(0x40)\n      tag_11\n      swap2\n      swap1\n      tag_12\n      jump\t// in\n    tag_11:\n      mload(0x40)\n      dup1\n      swap2\n      sub\n      swap1\n      return\n        /* \"SaleAggrement.sol\":784:954  function abort() onlySeller checkState(State.created) public {... */\n    tag_3:\n      callvalue\n      dup1\n      iszero\n      tag_13\n      jumpi\n      0x00\n      dup1\n      revert\n    tag_13:\n      pop\n      tag_14\n      tag_15\n      jump\t// in\n    tag_14:\n      stop\n        /* \"SaleAggrement.sol\":102:130  address payable public buyer */\n    tag_4:\n      callvalue\n      dup1\n      iszero\n      tag_16\n      jumpi\n      0x00\n      dup1\n      revert\n    tag_16:\n      pop\n      tag_17\n      tag_18\n      jump\t// in\n    tag_17:\n      mload(0x40)\n      tag_19\n      swap2\n      swap1\n      tag_12\n      jump\t// in\n    tag_19:\n      mload(0x40)\n      dup1\n      swap2\n      sub\n      swap1\n      return\n        /* \"SaleAggrement.sol\":215:233  State public state */\n    tag_5:\n      callvalue\n      dup1\n      iszero\n      tag_20\n      jumpi\n      0x00\n      dup1\n      revert\n    tag_20:\n      pop\n      tag_21\n      tag_22\n      jump\t// in\n    tag_21:\n      mload(0x40)\n      tag_23\n      swap2\n      swap1\n      tag_24\n      jump\t// in\n    tag_23:\n      mload(0x40)\n      dup1\n      swap2\n      sub\n      swap1\n      return\n        /* \"SaleAggrement.sol\":961:1232  function confirmPurchase() onlyBuyer checkState(State.created) public payable  {... */\n    tag_6:\n      tag_25\n      tag_26\n      jump\t// in\n    tag_25:\n      stop\n        /* \"SaleAggrement.sol\":1237:1313  function confirmReceive() onlyBuyer checkState(State.locked) public {... */\n    tag_7:\n      callvalue\n      dup1\n      iszero\n      tag_27\n      jumpi\n      0x00\n      dup1\n      revert\n    tag_27:\n      pop\n      tag_28\n      tag_29\n      jump\t// in\n    tag_28:\n      stop\n        /* \"SaleAggrement.sol\":136:165  address payable public seller */\n    tag_10:\n      0x02\n      0x00\n      swap1\n      sload\n      swap1\n      0x0100\n      exp\n      swap1\n      div\n      0xffffffffffffffffffffffffffffffffffffffff\n      and\n      dup2\n      jump\t// out\n        /* \"SaleAggrement.sol\":784:954  function abort() onlySeller checkState(State.created) public {... */\n    tag_15:\n        /* \"SaleAggrement.sol\":533:539  seller */\n      0x02\n      0x00\n      swap1\n      sload\n      swap1\n      0x0100\n      exp\n      swap1\n      div\n      0xffffffffffffffffffffffffffffffffffffffff\n      and\n        /* \"SaleAggrement.sol\":519:539  msg.sender == seller */\n      0xffffffffffffffffffffffffffffffffffffffff\n      and\n        /* \"SaleAggrement.sol\":519:529  msg.sender */\n      caller\n        /* \"SaleAggrement.sol\":519:539  msg.sender == seller */\n      0xffffffffffffffffffffffffffffffffffffffff\n      and\n      eq\n        /* \"SaleAggrement.sol\":511:575  require(msg.sender == seller, \"Only buyer can call this method\") */\n      tag_31\n      jumpi\n      mload(0x40)\n      0x08c379a000000000000000000000000000000000000000000000000000000000\n      dup2\n      mstore\n      0x04\n      add\n      tag_32\n      swap1\n      tag_33\n      jump\t// in\n    tag_32:\n      mload(0x40)\n      dup1\n      swap2\n      sub\n      swap1\n      revert\n    tag_31:\n        /* \"SaleAggrement.sol\":823:836  State.created */\n      0x00\n        /* \"SaleAggrement.sol\":659:664  state */\n      0x02\n      0x14\n      swap1\n      sload\n      swap1\n      0x0100\n      exp\n      swap1\n      div\n      0xff\n      and\n        /* \"SaleAggrement.sol\":649:664  _state == state */\n      0x02\n      dup2\n      gt\n      iszero\n      tag_35\n      jumpi\n      tag_36\n      tag_37\n      jump\t// in\n    tag_36:\n    tag_35:\n        /* \"SaleAggrement.sol\":649:655  _state */\n      dup2\n        /* \"SaleAggrement.sol\":649:664  _state == state */\n      0x02\n      dup2\n      gt\n      iszero\n      tag_38\n      jumpi\n      tag_39\n      tag_37\n      jump\t// in\n    tag_39:\n    tag_38:\n      eq\n        /* \"SaleAggrement.sol\":641:682  require(_state == state, \"Invalid state\") */\n      tag_40\n      jumpi\n      mload(0x40)\n      0x08c379a000000000000000000000000000000000000000000000000000000000\n      dup2\n      mstore\n      0x04\n      add\n      tag_41\n      swap1\n      tag_42\n      jump\t// in\n    tag_41:\n      mload(0x40)\n      dup1\n      swap2\n      sub\n      swap1\n      revert\n    tag_40:\n        /* \"SaleAggrement.sol\":860:869  Aborted() */\n      0x72c874aeff0b183a56e2b79c71b46e1aed4dee5e09862134b8821ba2fddbf8bf\n      mload(0x40)\n      mload(0x40)\n      dup1\n      swap2\n      sub\n      swap1\n      log1\n        /* \"SaleAggrement.sol\":885:899  State.Inactive */\n      0x02\n        /* \"SaleAggrement.sol\":879:884  state */\n      dup1\n      0x14\n        /* \"SaleAggrement.sol\":879:899  state=State.Inactive */\n      0x0100\n      exp\n      dup2\n      sload\n      dup2\n      0xff\n      mul\n      not\n      and\n      swap1\n      dup4\n      0x02\n      dup2\n      gt\n      iszero\n      tag_44\n      jumpi\n      tag_45\n      tag_37\n      jump\t// in\n    tag_45:\n    tag_44:\n      mul\n      or\n      swap1\n      sstore\n      pop\n        /* \"SaleAggrement.sol\":909:915  seller */\n      0x02\n      0x00\n      swap1\n      sload\n      swap1\n      0x0100\n      exp\n      swap1\n      div\n      0xffffffffffffffffffffffffffffffffffffffff\n      and\n        /* \"SaleAggrement.sol\":909:924  seller.transfer */\n      0xffffffffffffffffffffffffffffffffffffffff\n      and\n        /* \"SaleAggrement.sol\":909:947  seller.transfer(address(this).balance) */\n      0x08fc\n        /* \"SaleAggrement.sol\":925:946  address(this).balance */\n      selfbalance\n        /* \"SaleAggrement.sol\":909:947  seller.transfer(address(this).balance) */\n      swap1\n      dup2\n      iszero\n      mul\n      swap1\n      mload(0x40)\n      0x00\n      mload(0x40)\n      dup1\n      dup4\n      sub\n      dup2\n      dup6\n      dup9\n      dup9\n      call\n      swap4\n      pop\n      pop\n      pop\n      pop\n      iszero\n      dup1\n      iszero\n      tag_47\n      jumpi\n      returndatasize\n      0x00\n      dup1\n      returndatacopy\n      revert(0x00, returndatasize)\n    tag_47:\n      pop\n        /* \"SaleAggrement.sol\":585:586  _ */\n      pop\n        /* \"SaleAggrement.sol\":784:954  function abort() onlySeller checkState(State.created) public {... */\n      jump\t// out\n        /* \"SaleAggrement.sol\":102:130  address payable public buyer */\n    tag_18:\n      0x01\n      0x00\n      swap1\n      sload\n      swap1\n      0x0100\n      exp\n      swap1\n      div\n      0xffffffffffffffffffffffffffffffffffffffff\n      and\n      dup2\n      jump\t// out\n        /* \"SaleAggrement.sol\":215:233  State public state */\n    tag_22:\n      0x02\n      0x14\n      swap1\n      sload\n      swap1\n      0x0100\n      exp\n      swap1\n      div\n      0xff\n      and\n      dup2\n      jump\t// out\n        /* \"SaleAggrement.sol\":961:1232  function confirmPurchase() onlyBuyer checkState(State.created) public payable  {... */\n    tag_26:\n        /* \"SaleAggrement.sol\":416:421  buyer */\n      0x01\n      0x00\n      swap1\n      sload\n      swap1\n      0x0100\n      exp\n      swap1\n      div\n      0xffffffffffffffffffffffffffffffffffffffff\n      and\n        /* \"SaleAggrement.sol\":402:421  msg.sender == buyer */\n      0xffffffffffffffffffffffffffffffffffffffff\n      and\n        /* \"SaleAggrement.sol\":402:412  msg.sender */\n      caller\n        /* \"SaleAggrement.sol\":402:421  msg.sender == buyer */\n      0xffffffffffffffffffffffffffffffffffffffff\n      and\n      eq\n        /* \"SaleAggrement.sol\":394:457  require(msg.sender == buyer, \"Only buyer can call this method\") */\n      tag_49\n      jumpi\n      mload(0x40)\n      0x08c379a000000000000000000000000000000000000000000000000000000000\n      dup2\n      mstore\n      0x04\n      add\n      tag_50\n      swap1\n      tag_33\n      jump\t// in\n    tag_50:\n      mload(0x40)\n      dup1\n      swap2\n      sub\n      swap1\n      revert\n    tag_49:\n        /* \"SaleAggrement.sol\":1009:1022  State.created */\n      0x00\n        /* \"SaleAggrement.sol\":659:664  state */\n      0x02\n      0x14\n      swap1\n      sload\n      swap1\n      0x0100\n      exp\n      swap1\n      div\n      0xff\n      and\n        /* \"SaleAggrement.sol\":649:664  _state == state */\n      0x02\n      dup2\n      gt\n      iszero\n      tag_52\n      jumpi\n      tag_53\n      tag_37\n      jump\t// in\n    tag_53:\n    tag_52:\n        /* \"SaleAggrement.sol\":649:655  _state */\n      dup2\n        /* \"SaleAggrement.sol\":649:664  _state == state */\n      0x02\n      dup2\n      gt\n      iszero\n      tag_54\n      jumpi\n      tag_55\n      tag_37\n      jump\t// in\n    tag_55:\n    tag_54:\n      eq\n        /* \"SaleAggrement.sol\":641:682  require(_state == state, \"Invalid state\") */\n      tag_56\n      jumpi\n      mload(0x40)\n      0x08c379a000000000000000000000000000000000000000000000000000000000\n      dup2\n      mstore\n      0x04\n      add\n      tag_57\n      swap1\n      tag_42\n      jump\t// in\n    tag_57:\n      mload(0x40)\n      dup1\n      swap2\n      sub\n      swap1\n      revert\n    tag_56:\n        /* \"SaleAggrement.sol\":1077:1078  2 */\n      0x02\n        /* \"SaleAggrement.sol\":1071:1076  value */\n      sload(0x00)\n        /* \"SaleAggrement.sol\":1071:1078  value*2 */\n      tag_59\n      swap2\n      swap1\n      tag_60\n      jump\t// in\n    tag_59:\n        /* \"SaleAggrement.sol\":1058:1067  msg.value */\n      callvalue\n        /* \"SaleAggrement.sol\":1058:1078  msg.value == value*2 */\n      eq\n        /* \"SaleAggrement.sol\":1050:1128  require(msg.value == value*2, \"Value must be double of purhcased items value\") */\n      tag_61\n      jumpi\n      mload(0x40)\n      0x08c379a000000000000000000000000000000000000000000000000000000000\n      dup2\n      mstore\n      0x04\n      add\n      tag_62\n      swap1\n      tag_63\n      jump\t// in\n    tag_62:\n      mload(0x40)\n      dup1\n      swap2\n      sub\n      swap1\n      revert\n    tag_61:\n        /* \"SaleAggrement.sol\":1152:1162  msg.sender */\n      caller\n        /* \"SaleAggrement.sol\":1138:1143  buyer */\n      0x01\n      0x00\n        /* \"SaleAggrement.sol\":1138:1163  buyer=payable(msg.sender) */\n      0x0100\n      exp\n      dup2\n      sload\n      dup2\n      0xffffffffffffffffffffffffffffffffffffffff\n      mul\n      not\n      and\n      swap1\n      dup4\n      0xffffffffffffffffffffffffffffffffffffffff\n      and\n      mul\n      or\n      swap1\n      sstore\n      pop\n        /* \"SaleAggrement.sol\":1178:1197  confirmedPurchase() */\n      0xb196fb0cc9eee2ffedd9ebc54b6928e8870c6221906d065411c0843e2934bd21\n      mload(0x40)\n      mload(0x40)\n      dup1\n      swap2\n      sub\n      swap1\n      log1\n        /* \"SaleAggrement.sol\":1213:1225  State.locked */\n      0x01\n        /* \"SaleAggrement.sol\":1207:1212  state */\n      0x02\n      0x14\n        /* \"SaleAggrement.sol\":1207:1225  state=State.locked */\n      0x0100\n      exp\n      dup2\n      sload\n      dup2\n      0xff\n      mul\n      not\n      and\n      swap1\n      dup4\n      0x02\n      dup2\n      gt\n      iszero\n      tag_64\n      jumpi\n      tag_65\n      tag_37\n      jump\t// in\n    tag_65:\n    tag_64:\n      mul\n      or\n      swap1\n      sstore\n      pop\n        /* \"SaleAggrement.sol\":467:468  _ */\n      pop\n        /* \"SaleAggrement.sol\":961:1232  function confirmPurchase() onlyBuyer checkState(State.created) public payable  {... */\n      jump\t// out\n        /* \"SaleAggrement.sol\":1237:1313  function confirmReceive() onlyBuyer checkState(State.locked) public {... */\n    tag_29:\n        /* \"SaleAggrement.sol\":416:421  buyer */\n      0x01\n      0x00\n      swap1\n      sload\n      swap1\n      0x0100\n      exp\n      swap1\n      div\n      0xffffffffffffffffffffffffffffffffffffffff\n      and\n        /* \"SaleAggrement.sol\":402:421  msg.sender == buyer */\n      0xffffffffffffffffffffffffffffffffffffffff\n      and\n        /* \"SaleAggrement.sol\":402:412  msg.sender */\n      caller\n        /* \"SaleAggrement.sol\":402:421  msg.sender == buyer */\n      0xffffffffffffffffffffffffffffffffffffffff\n      and\n      eq\n        /* \"SaleAggrement.sol\":394:457  require(msg.sender == buyer, \"Only buyer can call this method\") */\n      tag_67\n      jumpi\n      mload(0x40)\n      0x08c379a000000000000000000000000000000000000000000000000000000000\n      dup2\n      mstore\n      0x04\n      add\n      tag_68\n      swap1\n      tag_33\n      jump\t// in\n    tag_68:\n      mload(0x40)\n      dup1\n      swap2\n      sub\n      swap1\n      revert\n    tag_67:\n        /* \"SaleAggrement.sol\":1284:1296  State.locked */\n      0x01\n        /* \"SaleAggrement.sol\":659:664  state */\n      0x02\n      0x14\n      swap1\n      sload\n      swap1\n      0x0100\n      exp\n      swap1\n      div\n      0xff\n      and\n        /* \"SaleAggrement.sol\":649:664  _state == state */\n      0x02\n      dup2\n      gt\n      iszero\n      tag_70\n      jumpi\n      tag_71\n      tag_37\n      jump\t// in\n    tag_71:\n    tag_70:\n        /* \"SaleAggrement.sol\":649:655  _state */\n      dup2\n        /* \"SaleAggrement.sol\":649:664  _state == state */\n      0x02\n      dup2\n      gt\n      iszero\n      tag_72\n      jumpi\n      tag_73\n      tag_37\n      jump\t// in\n    tag_73:\n    tag_72:\n      eq\n        /* \"SaleAggrement.sol\":641:682  require(_state == state, \"Invalid state\") */\n      tag_74\n      jumpi\n      mload(0x40)\n      0x08c379a000000000000000000000000000000000000000000000000000000000\n      dup2\n      mstore\n      0x04\n      add\n      tag_75\n      swap1\n      tag_42\n      jump\t// in\n    tag_75:\n      mload(0x40)\n      dup1\n      swap2\n      sub\n      swap1\n      revert\n    tag_74:\n        /* \"SaleAggrement.sol\":467:468  _ */\n      pop\n        /* \"SaleAggrement.sol\":1237:1313  function confirmReceive() onlyBuyer checkState(State.locked) public {... */\n      jump\t// out\n        /* \"#utility.yul\":7:133   */\n    tag_77:\n        /* \"#utility.yul\":44:51   */\n      0x00\n        /* \"#utility.yul\":84:126   */\n      0xffffffffffffffffffffffffffffffffffffffff\n        /* \"#utility.yul\":77:82   */\n      dup3\n        /* \"#utility.yul\":73:127   */\n      and\n        /* \"#utility.yul\":62:127   */\n      swap1\n      pop\n        /* \"#utility.yul\":7:133   */\n      swap2\n      swap1\n      pop\n      jump\t// out\n        /* \"#utility.yul\":139:243   */\n    tag_78:\n        /* \"#utility.yul\":184:191   */\n      0x00\n        /* \"#utility.yul\":213:237   */\n      tag_96\n        /* \"#utility.yul\":231:236   */\n      dup3\n        /* \"#utility.yul\":213:237   */\n      tag_77\n      jump\t// in\n    tag_96:\n        /* \"#utility.yul\":202:237   */\n      swap1\n      pop\n        /* \"#utility.yul\":139:243   */\n      swap2\n      swap1\n      pop\n      jump\t// out\n        /* \"#utility.yul\":249:391   */\n    tag_79:\n        /* \"#utility.yul\":352:384   */\n      tag_98\n        /* \"#utility.yul\":378:383   */\n      dup2\n        /* \"#utility.yul\":352:384   */\n      tag_78\n      jump\t// in\n    tag_98:\n        /* \"#utility.yul\":347:350   */\n      dup3\n        /* \"#utility.yul\":340:385   */\n      mstore\n        /* \"#utility.yul\":249:391   */\n      pop\n      pop\n      jump\t// out\n        /* \"#utility.yul\":397:651   */\n    tag_12:\n        /* \"#utility.yul\":506:510   */\n      0x00\n        /* \"#utility.yul\":544:546   */\n      0x20\n        /* \"#utility.yul\":533:542   */\n      dup3\n        /* \"#utility.yul\":529:547   */\n      add\n        /* \"#utility.yul\":521:547   */\n      swap1\n      pop\n        /* \"#utility.yul\":557:644   */\n      tag_100\n        /* \"#utility.yul\":641:642   */\n      0x00\n        /* \"#utility.yul\":630:639   */\n      dup4\n        /* \"#utility.yul\":626:643   */\n      add\n        /* \"#utility.yul\":617:623   */\n      dup5\n        /* \"#utility.yul\":557:644   */\n      tag_79\n      jump\t// in\n    tag_100:\n        /* \"#utility.yul\":397:651   */\n      swap3\n      swap2\n      pop\n      pop\n      jump\t// out\n        /* \"#utility.yul\":657:837   */\n    tag_37:\n        /* \"#utility.yul\":705:782   */\n      0x4e487b7100000000000000000000000000000000000000000000000000000000\n        /* \"#utility.yul\":702:703   */\n      0x00\n        /* \"#utility.yul\":695:783   */\n      mstore\n        /* \"#utility.yul\":802:806   */\n      0x21\n        /* \"#utility.yul\":799:800   */\n      0x04\n        /* \"#utility.yul\":792:807   */\n      mstore\n        /* \"#utility.yul\":826:830   */\n      0x24\n        /* \"#utility.yul\":823:824   */\n      0x00\n        /* \"#utility.yul\":816:831   */\n      revert\n        /* \"#utility.yul\":843:956   */\n    tag_80:\n        /* \"#utility.yul\":924:925   */\n      0x03\n        /* \"#utility.yul\":917:922   */\n      dup2\n        /* \"#utility.yul\":914:926   */\n      lt\n        /* \"#utility.yul\":904:950   */\n      tag_103\n      jumpi\n        /* \"#utility.yul\":930:948   */\n      tag_104\n      tag_37\n      jump\t// in\n    tag_104:\n        /* \"#utility.yul\":904:950   */\n    tag_103:\n        /* \"#utility.yul\":843:956   */\n      pop\n      jump\t// out\n        /* \"#utility.yul\":962:1089   */\n    tag_81:\n        /* \"#utility.yul\":1007:1014   */\n      0x00\n        /* \"#utility.yul\":1036:1041   */\n      dup2\n        /* \"#utility.yul\":1025:1041   */\n      swap1\n      pop\n        /* \"#utility.yul\":1042:1083   */\n      tag_106\n        /* \"#utility.yul\":1077:1082   */\n      dup3\n        /* \"#utility.yul\":1042:1083   */\n      tag_80\n      jump\t// in\n    tag_106:\n        /* \"#utility.yul\":962:1089   */\n      swap2\n      swap1\n      pop\n      jump\t// out\n        /* \"#utility.yul\":1095:1222   */\n    tag_82:\n        /* \"#utility.yul\":1151:1160   */\n      0x00\n        /* \"#utility.yul\":1184:1216   */\n      tag_108\n        /* \"#utility.yul\":1210:1215   */\n      dup3\n        /* \"#utility.yul\":1184:1216   */\n      tag_81\n      jump\t// in\n    tag_108:\n        /* \"#utility.yul\":1171:1216   */\n      swap1\n      pop\n        /* \"#utility.yul\":1095:1222   */\n      swap2\n      swap1\n      pop\n      jump\t// out\n        /* \"#utility.yul\":1228:1371   */\n    tag_83:\n        /* \"#utility.yul\":1321:1364   */\n      tag_110\n        /* \"#utility.yul\":1358:1363   */\n      dup2\n        /* \"#utility.yul\":1321:1364   */\n      tag_82\n      jump\t// in\n    tag_110:\n        /* \"#utility.yul\":1316:1319   */\n      dup3\n        /* \"#utility.yul\":1309:1365   */\n      mstore\n        /* \"#utility.yul\":1228:1371   */\n      pop\n      pop\n      jump\t// out\n        /* \"#utility.yul\":1377:1611   */\n    tag_24:\n        /* \"#utility.yul\":1476:1480   */\n      0x00\n        /* \"#utility.yul\":1514:1516   */\n      0x20\n        /* \"#utility.yul\":1503:1512   */\n      dup3\n        /* \"#utility.yul\":1499:1517   */\n      add\n        /* \"#utility.yul\":1491:1517   */\n      swap1\n      pop\n        /* \"#utility.yul\":1527:1604   */\n      tag_112\n        /* \"#utility.yul\":1601:1602   */\n      0x00\n        /* \"#utility.yul\":1590:1599   */\n      dup4\n        /* \"#utility.yul\":1586:1603   */\n      add\n        /* \"#utility.yul\":1577:1583   */\n      dup5\n        /* \"#utility.yul\":1527:1604   */\n      tag_83\n      jump\t// in\n    tag_112:\n        /* \"#utility.yul\":1377:1611   */\n      swap3\n      swap2\n      pop\n      pop\n      jump\t// out\n        /* \"#utility.yul\":1617:1786   */\n    tag_84:\n        /* \"#utility.yul\":1701:1712   */\n      0x00\n        /* \"#utility.yul\":1735:1741   */\n      dup3\n        /* \"#utility.yul\":1730:1733   */\n      dup3\n        /* \"#utility.yul\":1723:1742   */\n      mstore\n        /* \"#utility.yul\":1775:1779   */\n      0x20\n        /* \"#utility.yul\":1770:1773   */\n      dup3\n        /* \"#utility.yul\":1766:1780   */\n      add\n        /* \"#utility.yul\":1751:1780   */\n      swap1\n      pop\n        /* \"#utility.yul\":1617:1786   */\n      swap3\n      swap2\n      pop\n      pop\n      jump\t// out\n        /* \"#utility.yul\":1792:1973   */\n    tag_85:\n        /* \"#utility.yul\":1932:1965   */\n      0x4f6e6c792062757965722063616e2063616c6c2074686973206d6574686f6400\n        /* \"#utility.yul\":1928:1929   */\n      0x00\n        /* \"#utility.yul\":1920:1926   */\n      dup3\n        /* \"#utility.yul\":1916:1930   */\n      add\n        /* \"#utility.yul\":1909:1966   */\n      mstore\n        /* \"#utility.yul\":1792:1973   */\n      pop\n      jump\t// out\n        /* \"#utility.yul\":1979:2345   */\n    tag_86:\n        /* \"#utility.yul\":2121:2124   */\n      0x00\n        /* \"#utility.yul\":2142:2209   */\n      tag_116\n        /* \"#utility.yul\":2206:2208   */\n      0x1f\n        /* \"#utility.yul\":2201:2204   */\n      dup4\n        /* \"#utility.yul\":2142:2209   */\n      tag_84\n      jump\t// in\n    tag_116:\n        /* \"#utility.yul\":2135:2209   */\n      swap2\n      pop\n        /* \"#utility.yul\":2218:2311   */\n      tag_117\n        /* \"#utility.yul\":2307:2310   */\n      dup3\n        /* \"#utility.yul\":2218:2311   */\n      tag_85\n      jump\t// in\n    tag_117:\n        /* \"#utility.yul\":2336:2338   */\n      0x20\n        /* \"#utility.yul\":2331:2334   */\n      dup3\n        /* \"#utility.yul\":2327:2339   */\n      add\n        /* \"#utility.yul\":2320:2339   */\n      swap1\n      pop\n        /* \"#utility.yul\":1979:2345   */\n      swap2\n      swap1\n      pop\n      jump\t// out\n        /* \"#utility.yul\":2351:2770   */\n    tag_33:\n        /* \"#utility.yul\":2517:2521   */\n      0x00\n        /* \"#utility.yul\":2555:2557   */\n      0x20\n        /* \"#utility.yul\":2544:2553   */\n      dup3\n        /* \"#utility.yul\":2540:2558   */\n      add\n        /* \"#utility.yul\":2532:2558   */\n      swap1\n      pop\n        /* \"#utility.yul\":2604:2613   */\n      dup2\n        /* \"#utility.yul\":2598:2602   */\n      dup2\n        /* \"#utility.yul\":2594:2614   */\n      sub\n        /* \"#utility.yul\":2590:2591   */\n      0x00\n        /* \"#utility.yul\":2579:2588   */\n      dup4\n        /* \"#utility.yul\":2575:2592   */\n      add\n        /* \"#utility.yul\":2568:2615   */\n      mstore\n        /* \"#utility.yul\":2632:2763   */\n      tag_119\n        /* \"#utility.yul\":2758:2762   */\n      dup2\n        /* \"#utility.yul\":2632:2763   */\n      tag_86\n      jump\t// in\n    tag_119:\n        /* \"#utility.yul\":2624:2763   */\n      swap1\n      pop\n        /* \"#utility.yul\":2351:2770   */\n      swap2\n      swap1\n      pop\n      jump\t// out\n        /* \"#utility.yul\":2776:2939   */\n    tag_87:\n        /* \"#utility.yul\":2916:2931   */\n      0x496e76616c696420737461746500000000000000000000000000000000000000\n        /* \"#utility.yul\":2912:2913   */\n      0x00\n        /* \"#utility.yul\":2904:2910   */\n      dup3\n        /* \"#utility.yul\":2900:2914   */\n      add\n        /* \"#utility.yul\":2893:2932   */\n      mstore\n        /* \"#utility.yul\":2776:2939   */\n      pop\n      jump\t// out\n        /* \"#utility.yul\":2945:3311   */\n    tag_88:\n        /* \"#utility.yul\":3087:3090   */\n      0x00\n        /* \"#utility.yul\":3108:3175   */\n      tag_122\n        /* \"#utility.yul\":3172:3174   */\n      0x0d\n        /* \"#utility.yul\":3167:3170   */\n      dup4\n        /* \"#utility.yul\":3108:3175   */\n      tag_84\n      jump\t// in\n    tag_122:\n        /* \"#utility.yul\":3101:3175   */\n      swap2\n      pop\n        /* \"#utility.yul\":3184:3277   */\n      tag_123\n        /* \"#utility.yul\":3273:3276   */\n      dup3\n        /* \"#utility.yul\":3184:3277   */\n      tag_87\n      jump\t// in\n    tag_123:\n        /* \"#utility.yul\":3302:3304   */\n      0x20\n        /* \"#utility.yul\":3297:3300   */\n      dup3\n        /* \"#utility.yul\":3293:3305   */\n      add\n        /* \"#utility.yul\":3286:3305   */\n      swap1\n      pop\n        /* \"#utility.yul\":2945:3311   */\n      swap2\n      swap1\n      pop\n      jump\t// out\n        /* \"#utility.yul\":3317:3736   */\n    tag_42:\n        /* \"#utility.yul\":3483:3487   */\n      0x00\n        /* \"#utility.yul\":3521:3523   */\n      0x20\n        /* \"#utility.yul\":3510:3519   */\n      dup3\n        /* \"#utility.yul\":3506:3524   */\n      add\n        /* \"#utility.yul\":3498:3524   */\n      swap1\n      pop\n        /* \"#utility.yul\":3570:3579   */\n      dup2\n        /* \"#utility.yul\":3564:3568   */\n      dup2\n        /* \"#utility.yul\":3560:3580   */\n      sub\n        /* \"#utility.yul\":3556:3557   */\n      0x00\n        /* \"#utility.yul\":3545:3554   */\n      dup4\n        /* \"#utility.yul\":3541:3558   */\n      add\n        /* \"#utility.yul\":3534:3581   */\n      mstore\n        /* \"#utility.yul\":3598:3729   */\n      tag_125\n        /* \"#utility.yul\":3724:3728   */\n      dup2\n        /* \"#utility.yul\":3598:3729   */\n      tag_88\n      jump\t// in\n    tag_125:\n        /* \"#utility.yul\":3590:3729   */\n      swap1\n      pop\n        /* \"#utility.yul\":3317:3736   */\n      swap2\n      swap1\n      pop\n      jump\t// out\n        /* \"#utility.yul\":3742:3819   */\n    tag_89:\n        /* \"#utility.yul\":3779:3786   */\n      0x00\n        /* \"#utility.yul\":3808:3813   */\n      dup2\n        /* \"#utility.yul\":3797:3813   */\n      swap1\n      pop\n        /* \"#utility.yul\":3742:3819   */\n      swap2\n      swap1\n      pop\n      jump\t// out\n        /* \"#utility.yul\":3825:4005   */\n    tag_90:\n        /* \"#utility.yul\":3873:3950   */\n      0x4e487b7100000000000000000000000000000000000000000000000000000000\n        /* \"#utility.yul\":3870:3871   */\n      0x00\n        /* \"#utility.yul\":3863:3951   */\n      mstore\n        /* \"#utility.yul\":3970:3974   */\n      0x11\n        /* \"#utility.yul\":3967:3968   */\n      0x04\n        /* \"#utility.yul\":3960:3975   */\n      mstore\n        /* \"#utility.yul\":3994:3998   */\n      0x24\n        /* \"#utility.yul\":3991:3992   */\n      0x00\n        /* \"#utility.yul\":3984:3999   */\n      revert\n        /* \"#utility.yul\":4011:4359   */\n    tag_60:\n        /* \"#utility.yul\":4051:4058   */\n      0x00\n        /* \"#utility.yul\":4074:4094   */\n      tag_129\n        /* \"#utility.yul\":4092:4093   */\n      dup3\n        /* \"#utility.yul\":4074:4094   */\n      tag_89\n      jump\t// in\n    tag_129:\n        /* \"#utility.yul\":4069:4094   */\n      swap2\n      pop\n        /* \"#utility.yul\":4108:4128   */\n      tag_130\n        /* \"#utility.yul\":4126:4127   */\n      dup4\n        /* \"#utility.yul\":4108:4128   */\n      tag_89\n      jump\t// in\n    tag_130:\n        /* \"#utility.yul\":4103:4128   */\n      swap3\n      pop\n        /* \"#utility.yul\":4296:4297   */\n      dup2\n        /* \"#utility.yul\":4228:4294   */\n      0xffffffffffffffffffffffffffffffffffffffffffffffffffffffffffffffff\n        /* \"#utility.yul\":4224:4298   */\n      div\n        /* \"#utility.yul\":4221:4222   */\n      dup4\n        /* \"#utility.yul\":4218:4299   */\n      gt\n        /* \"#utility.yul\":4213:4214   */\n      dup3\n        /* \"#utility.yul\":4206:4215   */\n      iszero\n        /* \"#utility.yul\":4199:4216   */\n      iszero\n        /* \"#utility.yul\":4195:4300   */\n      and\n        /* \"#utility.yul\":4192:4323   */\n      iszero\n      tag_131\n      jumpi\n        /* \"#utility.yul\":4303:4321   */\n      tag_132\n      tag_90\n      jump\t// in\n    tag_132:\n        /* \"#utility.yul\":4192:4323   */\n    tag_131:\n        /* \"#utility.yul\":4351:4352   */\n      dup3\n        /* \"#utility.yul\":4348:4349   */\n      dup3\n        /* \"#utility.yul\":4344:4353   */\n      mul\n        /* \"#utility.yul\":4333:4353   */\n      swap1\n      pop\n        /* \"#utility.yul\":4011:4359   */\n      swap3\n      swap2\n      pop\n      pop\n      jump\t// out\n        /* \"#utility.yul\":4365:4597   */\n    tag_91:\n        /* \"#utility.yul\":4505:4539   */\n      0x56616c7565206d75737420626520646f75626c65206f66207075726863617365\n        /* \"#utility.yul\":4501:4502   */\n      0x00\n        /* \"#utility.yul\":4493:4499   */\n      dup3\n        /* \"#utility.yul\":4489:4503   */\n      add\n        /* \"#utility.yul\":4482:4540   */\n      mstore\n        /* \"#utility.yul\":4574:4589   */\n      0x64206974656d732076616c756500000000000000000000000000000000000000\n        /* \"#utility.yul\":4569:4571   */\n      0x20\n        /* \"#utility.yul\":4561:4567   */\n      dup3\n        /* \"#utility.yul\":4557:4572   */\n      add\n        /* \"#utility.yul\":4550:4590   */\n      mstore\n        /* \"#utility.yul\":4365:4597   */\n      pop\n      jump\t// out\n        /* \"#utility.yul\":4603:4969   */\n    tag_92:\n        /* \"#utility.yul\":4745:4748   */\n      0x00\n        /* \"#utility.yul\":4766:4833   */\n      tag_135\n        /* \"#utility.yul\":4830:4832   */\n      0x2d\n        /* \"#utility.yul\":4825:4828   */\n      dup4\n        /* \"#utility.yul\":4766:4833   */\n      tag_84\n      jump\t// in\n    tag_135:\n        /* \"#utility.yul\":4759:4833   */\n      swap2\n      pop\n        /* \"#utility.yul\":4842:4935   */\n      tag_136\n        /* \"#utility.yul\":4931:4934   */\n      dup3\n        /* \"#utility.yul\":4842:4935   */\n      tag_91\n      jump\t// in\n    tag_136:\n        /* \"#utility.yul\":4960:4962   */\n      0x40\n        /* \"#utility.yul\":4955:4958   */\n      dup3\n        /* \"#utility.yul\":4951:4963   */\n      add\n        /* \"#utility.yul\":4944:4963   */\n      swap1\n      pop\n        /* \"#utility.yul\":4603:4969   */\n      swap2\n      swap1\n      pop\n      jump\t// out\n        /* \"#utility.yul\":4975:5394   */\n    tag_63:\n        /* \"#utility.yul\":5141:5145   */\n      0x00\n        /* \"#utility.yul\":5179:5181   */\n      0x20\n        /* \"#utility.yul\":5168:5177   */\n      dup3\n        /* \"#utility.yul\":5164:5182   */\n      add\n        /* \"#utility.yul\":5156:5182   */\n      swap1\n      pop\n        /* \"#utility.yul\":5228:5237   */\n      dup2\n        /* \"#utility.yul\":5222:5226   */\n      dup2\n        /* \"#utility.yul\":5218:5238   */\n      sub\n        /* \"#utility.yul\":5214:5215   */\n      0x00\n        /* \"#utility.yul\":5203:5212   */\n      dup4\n        /* \"#utility.yul\":5199:5216   */\n      add\n        /* \"#utility.yul\":5192:5239   */\n      mstore\n        /* \"#utility.yul\":5256:5387   */\n      tag_138\n        /* \"#utility.yul\":5382:5386   */\n      dup2\n        /* \"#utility.yul\":5256:5387   */\n      tag_92\n      jump\t// in\n    tag_138:\n        /* \"#utility.yul\":5248:5387   */\n      swap1\n      pop\n        /* \"#utility.yul\":4975:5394   */\n      swap2\n      swap1\n      pop\n      jump\t// out\n\n    auxdata: 0xa2646970667358221220bc814644d86a11a64f4adfc324decf0ad54db8a8f8ab2c66633b7c390633328464736f6c63430008090033\n}\n",
				"bytecode": {
					"linkReferences": {},
					"object": "608060405233600260006101000a81548173ffffffffffffffffffffffffffffffffffffffff021916908373ffffffffffffffffffffffffffffffffffffffff160217905550346000819055506000600260146101000a81548160ff021916908360028111156100725761007161007c565b5b02179055506100ab565b7f4e487b7100000000000000000000000000000000000000000000000000000000600052602160045260246000fd5b610969806100ba6000396000f3fe6080604052600436106100555760003560e01c806308551a531461005a57806335a063b4146100855780637150d8ae1461009c578063c19d93fb146100c7578063d6960697146100f2578063ffcfd076146100fc575b600080fd5b34801561006657600080fd5b5061006f610113565b60405161007c9190610678565b60405180910390f35b34801561009157600080fd5b5061009a610139565b005b3480156100a857600080fd5b506100b1610302565b6040516100be9190610678565b60405180910390f35b3480156100d357600080fd5b506100dc610328565b6040516100e9919061070a565b60405180910390f35b6100fa61033b565b005b34801561010857600080fd5b5061011161052d565b005b600260009054906101000a900473ffffffffffffffffffffffffffffffffffffffff1681565b600260009054906101000a900473ffffffffffffffffffffffffffffffffffffffff1673ffffffffffffffffffffffffffffffffffffffff163373ffffffffffffffffffffffffffffffffffffffff16146101c9576040517f08c379a00000000000000000000000000000000000000000000000000000000081526004016101c090610782565b60405180910390fd5b6000600260149054906101000a900460ff1660028111156101ed576101ec610693565b5b816002811115610200576101ff610693565b5b14610240576040517f08c379a0000000000000000000000000000000000000000000000000000000008152600401610237906107ee565b60405180910390fd5b7f72c874aeff0b183a56e2b79c71b46e1aed4dee5e09862134b8821ba2fddbf8bf60405160405180910390a160028060146101000a81548160ff0219169083600281111561029157610290610693565b5b0217905550600260009054906101000a900473ffffffffffffffffffffffffffffffffffffffff1673ffffffffffffffffffffffffffffffffffffffff166108fc479081150290604051600060405180830381858888f193505050501580156102fe573d6000803e3d6000fd5b5050565b600160009054906101000a900473ffffffffffffffffffffffffffffffffffffffff1681565b600260149054906101000a900460ff1681565b600160009054906101000a900473ffffffffffffffffffffffffffffffffffffffff1673ffffffffffffffffffffffffffffffffffffffff163373ffffffffffffffffffffffffffffffffffffffff16146103cb576040517f08c379a00000000000000000000000000000000000000000000000000000000081526004016103c290610782565b60405180910390fd5b6000600260149054906101000a900460ff1660028111156103ef576103ee610693565b5b81600281111561040257610401610693565b5b14610442576040517f08c379a0000000000000000000000000000000000000000000000000000000008152600401610439906107ee565b60405180910390fd5b60026000546104519190610847565b3414610492576040517f08c379a000000000000000000000000000000000000000000000000000000000815260040161048990610913565b60405180910390fd5b33600160006101000a81548173ffffffffffffffffffffffffffffffffffffffff021916908373ffffffffffffffffffffffffffffffffffffffff1602179055507fb196fb0cc9eee2ffedd9ebc54b6928e8870c6221906d065411c0843e2934bd2160405160405180910390a16001600260146101000a81548160ff0219169083600281111561052557610524610693565b5b021790555050565b600160009054906101000a900473ffffffffffffffffffffffffffffffffffffffff1673ffffffffffffffffffffffffffffffffffffffff163373ffffffffffffffffffffffffffffffffffffffff16146105bd576040517f08c379a00000000000000000000000000000000000000000000000000000000081526004016105b490610782565b60405180910390fd5b6001600260149054906101000a900460ff1660028111156105e1576105e0610693565b5b8160028111156105f4576105f3610693565b5b14610634576040517f08c379a000000000000000000000000000000000000000000000000000000000815260040161062b906107ee565b60405180910390fd5b50565b600073ffffffffffffffffffffffffffffffffffffffff82169050919050565b600061066282610637565b9050919050565b61067281610657565b82525050565b600060208201905061068d6000830184610669565b92915050565b7f4e487b7100000000000000000000000000000000000000000000000000000000600052602160045260246000fd5b600381106106d3576106d2610693565b5b50565b60008190506106e4826106c2565b919050565b60006106f4826106d6565b9050919050565b610704816106e9565b82525050565b600060208201905061071f60008301846106fb565b92915050565b600082825260208201905092915050565b7f4f6e6c792062757965722063616e2063616c6c2074686973206d6574686f6400600082015250565b600061076c601f83610725565b915061077782610736565b602082019050919050565b6000602082019050818103600083015261079b8161075f565b9050919050565b7f496e76616c696420737461746500000000000000000000000000000000000000600082015250565b60006107d8600d83610725565b91506107e3826107a2565b602082019050919050565b60006020820190508181036000830152610807816107cb565b9050919050565b6000819050919050565b7f4e487b7100000000000000000000000000000000000000000000000000000000600052601160045260246000fd5b60006108528261080e565b915061085d8361080e565b9250817fffffffffffffffffffffffffffffffffffffffffffffffffffffffffffffffff048311821515161561089657610895610818565b5b828202905092915050565b7f56616c7565206d75737420626520646f75626c65206f6620707572686361736560008201527f64206974656d732076616c756500000000000000000000000000000000000000602082015250565b60006108fd602d83610725565b9150610908826108a1565b604082019050919050565b6000602082019050818103600083015261092c816108f0565b905091905056fea2646970667358221220bc814644d86a11a64f4adfc324decf0ad54db8a8f8ab2c66633b7c390633328464736f6c63430008090033",
					"opcodes": "PUSH1 0x80 PUSH1 0x40 MSTORE CALLER PUSH1 0x2 PUSH1 0x0 PUSH2 0x100 EXP DUP2 SLOAD DUP2 PUSH20 0xFFFFFFFFFFFFFFFFFFFFFFFFFFFFFFFFFFFFFFFF MUL NOT AND SWAP1 DUP4 PUSH20 0xFFFFFFFFFFFFFFFFFFFFFFFFFFFFFFFFFFFFFFFF AND MUL OR SWAP1 SSTORE POP CALLVALUE PUSH1 0x0 DUP2 SWAP1 SSTORE POP PUSH1 0x0 PUSH1 0x2 PUSH1 0x14 PUSH2 0x100 EXP DUP2 SLOAD DUP2 PUSH1 0xFF MUL NOT AND SWAP1 DUP4 PUSH1 0x2 DUP2 GT ISZERO PUSH2 0x72 JUMPI PUSH2 0x71 PUSH2 0x7C JUMP JUMPDEST JUMPDEST MUL OR SWAP1 SSTORE POP PUSH2 0xAB JUMP JUMPDEST PUSH32 0x4E487B7100000000000000000000000000000000000000000000000000000000 PUSH1 0x0 MSTORE PUSH1 0x21 PUSH1 0x4 MSTORE PUSH1 0x24 PUSH1 0x0 REVERT JUMPDEST PUSH2 0x969 DUP1 PUSH2 0xBA PUSH1 0x0 CODECOPY PUSH1 0x0 RETURN INVALID PUSH1 0x80 PUSH1 0x40 MSTORE PUSH1 0x4 CALLDATASIZE LT PUSH2 0x55 JUMPI PUSH1 0x0 CALLDATALOAD PUSH1 0xE0 SHR DUP1 PUSH4 0x8551A53 EQ PUSH2 0x5A JUMPI DUP1 PUSH4 0x35A063B4 EQ PUSH2 0x85 JUMPI DUP1 PUSH4 0x7150D8AE EQ PUSH2 0x9C JUMPI DUP1 PUSH4 0xC19D93FB EQ PUSH2 0xC7 JUMPI DUP1 PUSH4 0xD6960697 EQ PUSH2 0xF2 JUMPI DUP1 PUSH4 0xFFCFD076 EQ PUSH2 0xFC JUMPI JUMPDEST PUSH1 0x0 DUP1 REVERT JUMPDEST CALLVALUE DUP1 ISZERO PUSH2 0x66 JUMPI PUSH1 0x0 DUP1 REVERT JUMPDEST POP PUSH2 0x6F PUSH2 0x113 JUMP JUMPDEST PUSH1 0x40 MLOAD PUSH2 0x7C SWAP2 SWAP1 PUSH2 0x678 JUMP JUMPDEST PUSH1 0x40 MLOAD DUP1 SWAP2 SUB SWAP1 RETURN JUMPDEST CALLVALUE DUP1 ISZERO PUSH2 0x91 JUMPI PUSH1 0x0 DUP1 REVERT JUMPDEST POP PUSH2 0x9A PUSH2 0x139 JUMP JUMPDEST STOP JUMPDEST CALLVALUE DUP1 ISZERO PUSH2 0xA8 JUMPI PUSH1 0x0 DUP1 REVERT JUMPDEST POP PUSH2 0xB1 PUSH2 0x302 JUMP JUMPDEST PUSH1 0x40 MLOAD PUSH2 0xBE SWAP2 SWAP1 PUSH2 0x678 JUMP JUMPDEST PUSH1 0x40 MLOAD DUP1 SWAP2 SUB SWAP1 RETURN JUMPDEST CALLVALUE DUP1 ISZERO PUSH2 0xD3 JUMPI PUSH1 0x0 DUP1 REVERT JUMPDEST POP PUSH2 0xDC PUSH2 0x328 JUMP JUMPDEST PUSH1 0x40 MLOAD PUSH2 0xE9 SWAP2 SWAP1 PUSH2 0x70A JUMP JUMPDEST PUSH1 0x40 MLOAD DUP1 SWAP2 SUB SWAP1 RETURN JUMPDEST PUSH2 0xFA PUSH2 0x33B JUMP JUMPDEST STOP JUMPDEST CALLVALUE DUP1 ISZERO PUSH2 0x108 JUMPI PUSH1 0x0 DUP1 REVERT JUMPDEST POP PUSH2 0x111 PUSH2 0x52D JUMP JUMPDEST STOP JUMPDEST PUSH1 0x2 PUSH1 0x0 SWAP1 SLOAD SWAP1 PUSH2 0x100 EXP SWAP1 DIV PUSH20 0xFFFFFFFFFFFFFFFFFFFFFFFFFFFFFFFFFFFFFFFF AND DUP2 JUMP JUMPDEST PUSH1 0x2 PUSH1 0x0 SWAP1 SLOAD SWAP1 PUSH2 0x100 EXP SWAP1 DIV PUSH20 0xFFFFFFFFFFFFFFFFFFFFFFFFFFFFFFFFFFFFFFFF AND PUSH20 0xFFFFFFFFFFFFFFFFFFFFFFFFFFFFFFFFFFFFFFFF AND CALLER PUSH20 0xFFFFFFFFFFFFFFFFFFFFFFFFFFFFFFFFFFFFFFFF AND EQ PUSH2 0x1C9 JUMPI PUSH1 0x40 MLOAD PUSH32 0x8C379A000000000000000000000000000000000000000000000000000000000 DUP2 MSTORE PUSH1 0x4 ADD PUSH2 0x1C0 SWAP1 PUSH2 0x782 JUMP JUMPDEST PUSH1 0x40 MLOAD DUP1 SWAP2 SUB SWAP1 REVERT JUMPDEST PUSH1 0x0 PUSH1 0x2 PUSH1 0x14 SWAP1 SLOAD SWAP1 PUSH2 0x100 EXP SWAP1 DIV PUSH1 0xFF AND PUSH1 0x2 DUP2 GT ISZERO PUSH2 0x1ED JUMPI PUSH2 0x1EC PUSH2 0x693 JUMP JUMPDEST JUMPDEST DUP2 PUSH1 0x2 DUP2 GT ISZERO PUSH2 0x200 JUMPI PUSH2 0x1FF PUSH2 0x693 JUMP JUMPDEST JUMPDEST EQ PUSH2 0x240 JUMPI PUSH1 0x40 MLOAD PUSH32 0x8C379A000000000000000000000000000000000000000000000000000000000 DUP2 MSTORE PUSH1 0x4 ADD PUSH2 0x237 SWAP1 PUSH2 0x7EE JUMP JUMPDEST PUSH1 0x40 MLOAD DUP1 SWAP2 SUB SWAP1 REVERT JUMPDEST PUSH32 0x72C874AEFF0B183A56E2B79C71B46E1AED4DEE5E09862134B8821BA2FDDBF8BF PUSH1 0x40 MLOAD PUSH1 0x40 MLOAD DUP1 SWAP2 SUB SWAP1 LOG1 PUSH1 0x2 DUP1 PUSH1 0x14 PUSH2 0x100 EXP DUP2 SLOAD DUP2 PUSH1 0xFF MUL NOT AND SWAP1 DUP4 PUSH1 0x2 DUP2 GT ISZERO PUSH2 0x291 JUMPI PUSH2 0x290 PUSH2 0x693 JUMP JUMPDEST JUMPDEST MUL OR SWAP1 SSTORE POP PUSH1 0x2 PUSH1 0x0 SWAP1 SLOAD SWAP1 PUSH2 0x100 EXP SWAP1 DIV PUSH20 0xFFFFFFFFFFFFFFFFFFFFFFFFFFFFFFFFFFFFFFFF AND PUSH20 0xFFFFFFFFFFFFFFFFFFFFFFFFFFFFFFFFFFFFFFFF AND PUSH2 0x8FC SELFBALANCE SWAP1 DUP2 ISZERO MUL SWAP1 PUSH1 0x40 MLOAD PUSH1 0x0 PUSH1 0x40 MLOAD DUP1 DUP4 SUB DUP2 DUP6 DUP9 DUP9 CALL SWAP4 POP POP POP POP ISZERO DUP1 ISZERO PUSH2 0x2FE JUMPI RETURNDATASIZE PUSH1 0x0 DUP1 RETURNDATACOPY RETURNDATASIZE PUSH1 0x0 REVERT JUMPDEST POP POP JUMP JUMPDEST PUSH1 0x1 PUSH1 0x0 SWAP1 SLOAD SWAP1 PUSH2 0x100 EXP SWAP1 DIV PUSH20 0xFFFFFFFFFFFFFFFFFFFFFFFFFFFFFFFFFFFFFFFF AND DUP2 JUMP JUMPDEST PUSH1 0x2 PUSH1 0x14 SWAP1 SLOAD SWAP1 PUSH2 0x100 EXP SWAP1 DIV PUSH1 0xFF AND DUP2 JUMP JUMPDEST PUSH1 0x1 PUSH1 0x0 SWAP1 SLOAD SWAP1 PUSH2 0x100 EXP SWAP1 DIV PUSH20 0xFFFFFFFFFFFFFFFFFFFFFFFFFFFFFFFFFFFFFFFF AND PUSH20 0xFFFFFFFFFFFFFFFFFFFFFFFFFFFFFFFFFFFFFFFF AND CALLER PUSH20 0xFFFFFFFFFFFFFFFFFFFFFFFFFFFFFFFFFFFFFFFF AND EQ PUSH2 0x3CB JUMPI PUSH1 0x40 MLOAD PUSH32 0x8C379A000000000000000000000000000000000000000000000000000000000 DUP2 MSTORE PUSH1 0x4 ADD PUSH2 0x3C2 SWAP1 PUSH2 0x782 JUMP JUMPDEST PUSH1 0x40 MLOAD DUP1 SWAP2 SUB SWAP1 REVERT JUMPDEST PUSH1 0x0 PUSH1 0x2 PUSH1 0x14 SWAP1 SLOAD SWAP1 PUSH2 0x100 EXP SWAP1 DIV PUSH1 0xFF AND PUSH1 0x2 DUP2 GT ISZERO PUSH2 0x3EF JUMPI PUSH2 0x3EE PUSH2 0x693 JUMP JUMPDEST JUMPDEST DUP2 PUSH1 0x2 DUP2 GT ISZERO PUSH2 0x402 JUMPI PUSH2 0x401 PUSH2 0x693 JUMP JUMPDEST JUMPDEST EQ PUSH2 0x442 JUMPI PUSH1 0x40 MLOAD PUSH32 0x8C379A000000000000000000000000000000000000000000000000000000000 DUP2 MSTORE PUSH1 0x4 ADD PUSH2 0x439 SWAP1 PUSH2 0x7EE JUMP JUMPDEST PUSH1 0x40 MLOAD DUP1 SWAP2 SUB SWAP1 REVERT JUMPDEST PUSH1 0x2 PUSH1 0x0 SLOAD PUSH2 0x451 SWAP2 SWAP1 PUSH2 0x847 JUMP JUMPDEST CALLVALUE EQ PUSH2 0x492 JUMPI PUSH1 0x40 MLOAD PUSH32 0x8C379A000000000000000000000000000000000000000000000000000000000 DUP2 MSTORE PUSH1 0x4 ADD PUSH2 0x489 SWAP1 PUSH2 0x913 JUMP JUMPDEST PUSH1 0x40 MLOAD DUP1 SWAP2 SUB SWAP1 REVERT JUMPDEST CALLER PUSH1 0x1 PUSH1 0x0 PUSH2 0x100 EXP DUP2 SLOAD DUP2 PUSH20 0xFFFFFFFFFFFFFFFFFFFFFFFFFFFFFFFFFFFFFFFF MUL NOT AND SWAP1 DUP4 PUSH20 0xFFFFFFFFFFFFFFFFFFFFFFFFFFFFFFFFFFFFFFFF AND MUL OR SWAP1 SSTORE POP PUSH32 0xB196FB0CC9EEE2FFEDD9EBC54B6928E8870C6221906D065411C0843E2934BD21 PUSH1 0x40 MLOAD PUSH1 0x40 MLOAD DUP1 SWAP2 SUB SWAP1 LOG1 PUSH1 0x1 PUSH1 0x2 PUSH1 0x14 PUSH2 0x100 EXP DUP2 SLOAD DUP2 PUSH1 0xFF MUL NOT AND SWAP1 DUP4 PUSH1 0x2 DUP2 GT ISZERO PUSH2 0x525 JUMPI PUSH2 0x524 PUSH2 0x693 JUMP JUMPDEST JUMPDEST MUL OR SWAP1 SSTORE POP POP JUMP JUMPDEST PUSH1 0x1 PUSH1 0x0 SWAP1 SLOAD SWAP1 PUSH2 0x100 EXP SWAP1 DIV PUSH20 0xFFFFFFFFFFFFFFFFFFFFFFFFFFFFFFFFFFFFFFFF AND PUSH20 0xFFFFFFFFFFFFFFFFFFFFFFFFFFFFFFFFFFFFFFFF AND CALLER PUSH20 0xFFFFFFFFFFFFFFFFFFFFFFFFFFFFFFFFFFFFFFFF AND EQ PUSH2 0x5BD JUMPI PUSH1 0x40 MLOAD PUSH32 0x8C379A000000000000000000000000000000000000000000000000000000000 DUP2 MSTORE PUSH1 0x4 ADD PUSH2 0x5B4 SWAP1 PUSH2 0x782 JUMP JUMPDEST PUSH1 0x40 MLOAD DUP1 SWAP2 SUB SWAP1 REVERT JUMPDEST PUSH1 0x1 PUSH1 0x2 PUSH1 0x14 SWAP1 SLOAD SWAP1 PUSH2 0x100 EXP SWAP1 DIV PUSH1 0xFF AND PUSH1 0x2 DUP2 GT ISZERO PUSH2 0x5E1 JUMPI PUSH2 0x5E0 PUSH2 0x693 JUMP JUMPDEST JUMPDEST DUP2 PUSH1 0x2 DUP2 GT ISZERO PUSH2 0x5F4 JUMPI PUSH2 0x5F3 PUSH2 0x693 JUMP JUMPDEST JUMPDEST EQ PUSH2 0x634 JUMPI PUSH1 0x40 MLOAD PUSH32 0x8C379A000000000000000000000000000000000000000000000000000000000 DUP2 MSTORE PUSH1 0x4 ADD PUSH2 0x62B SWAP1 PUSH2 0x7EE JUMP JUMPDEST PUSH1 0x40 MLOAD DUP1 SWAP2 SUB SWAP1 REVERT JUMPDEST POP JUMP JUMPDEST PUSH1 0x0 PUSH20 0xFFFFFFFFFFFFFFFFFFFFFFFFFFFFFFFFFFFFFFFF DUP3 AND SWAP1 POP SWAP2 SWAP1 POP JUMP JUMPDEST PUSH1 0x0 PUSH2 0x662 DUP3 PUSH2 0x637 JUMP JUMPDEST SWAP1 POP SWAP2 SWAP1 POP JUMP JUMPDEST PUSH2 0x672 DUP2 PUSH2 0x657 JUMP JUMPDEST DUP3 MSTORE POP POP JUMP JUMPDEST PUSH1 0x0 PUSH1 0x20 DUP3 ADD SWAP1 POP PUSH2 0x68D PUSH1 0x0 DUP4 ADD DUP5 PUSH2 0x669 JUMP JUMPDEST SWAP3 SWAP2 POP POP JUMP JUMPDEST PUSH32 0x4E487B7100000000000000000000000000000000000000000000000000000000 PUSH1 0x0 MSTORE PUSH1 0x21 PUSH1 0x4 MSTORE PUSH1 0x24 PUSH1 0x0 REVERT JUMPDEST PUSH1 0x3 DUP2 LT PUSH2 0x6D3 JUMPI PUSH2 0x6D2 PUSH2 0x693 JUMP JUMPDEST JUMPDEST POP JUMP JUMPDEST PUSH1 0x0 DUP2 SWAP1 POP PUSH2 0x6E4 DUP3 PUSH2 0x6C2 JUMP JUMPDEST SWAP2 SWAP1 POP JUMP JUMPDEST PUSH1 0x0 PUSH2 0x6F4 DUP3 PUSH2 0x6D6 JUMP JUMPDEST SWAP1 POP SWAP2 SWAP1 POP JUMP JUMPDEST PUSH2 0x704 DUP2 PUSH2 0x6E9 JUMP JUMPDEST DUP3 MSTORE POP POP JUMP JUMPDEST PUSH1 0x0 PUSH1 0x20 DUP3 ADD SWAP1 POP PUSH2 0x71F PUSH1 0x0 DUP4 ADD DUP5 PUSH2 0x6FB JUMP JUMPDEST SWAP3 SWAP2 POP POP JUMP JUMPDEST PUSH1 0x0 DUP3 DUP3 MSTORE PUSH1 0x20 DUP3 ADD SWAP1 POP SWAP3 SWAP2 POP POP JUMP JUMPDEST PUSH32 0x4F6E6C792062757965722063616E2063616C6C2074686973206D6574686F6400 PUSH1 0x0 DUP3 ADD MSTORE POP JUMP JUMPDEST PUSH1 0x0 PUSH2 0x76C PUSH1 0x1F DUP4 PUSH2 0x725 JUMP JUMPDEST SWAP2 POP PUSH2 0x777 DUP3 PUSH2 0x736 JUMP JUMPDEST PUSH1 0x20 DUP3 ADD SWAP1 POP SWAP2 SWAP1 POP JUMP JUMPDEST PUSH1 0x0 PUSH1 0x20 DUP3 ADD SWAP1 POP DUP2 DUP2 SUB PUSH1 0x0 DUP4 ADD MSTORE PUSH2 0x79B DUP2 PUSH2 0x75F JUMP JUMPDEST SWAP1 POP SWAP2 SWAP1 POP JUMP JUMPDEST PUSH32 0x496E76616C696420737461746500000000000000000000000000000000000000 PUSH1 0x0 DUP3 ADD MSTORE POP JUMP JUMPDEST PUSH1 0x0 PUSH2 0x7D8 PUSH1 0xD DUP4 PUSH2 0x725 JUMP JUMPDEST SWAP2 POP PUSH2 0x7E3 DUP3 PUSH2 0x7A2 JUMP JUMPDEST PUSH1 0x20 DUP3 ADD SWAP1 POP SWAP2 SWAP1 POP JUMP JUMPDEST PUSH1 0x0 PUSH1 0x20 DUP3 ADD SWAP1 POP DUP2 DUP2 SUB PUSH1 0x0 DUP4 ADD MSTORE PUSH2 0x807 DUP2 PUSH2 0x7CB JUMP JUMPDEST SWAP1 POP SWAP2 SWAP1 POP JUMP JUMPDEST PUSH1 0x0 DUP2 SWAP1 POP SWAP2 SWAP1 POP JUMP JUMPDEST PUSH32 0x4E487B7100000000000000000000000000000000000000000000000000000000 PUSH1 0x0 MSTORE PUSH1 0x11 PUSH1 0x4 MSTORE PUSH1 0x24 PUSH1 0x0 REVERT JUMPDEST PUSH1 0x0 PUSH2 0x852 DUP3 PUSH2 0x80E JUMP JUMPDEST SWAP2 POP PUSH2 0x85D DUP4 PUSH2 0x80E JUMP JUMPDEST SWAP3 POP DUP2 PUSH32 0xFFFFFFFFFFFFFFFFFFFFFFFFFFFFFFFFFFFFFFFFFFFFFFFFFFFFFFFFFFFFFFFF DIV DUP4 GT DUP3 ISZERO ISZERO AND ISZERO PUSH2 0x896 JUMPI PUSH2 0x895 PUSH2 0x818 JUMP JUMPDEST JUMPDEST DUP3 DUP3 MUL SWAP1 POP SWAP3 SWAP2 POP POP JUMP JUMPDEST PUSH32 0x56616C7565206D75737420626520646F75626C65206F66207075726863617365 PUSH1 0x0 DUP3 ADD MSTORE PUSH32 0x64206974656D732076616C756500000000000000000000000000000000000000 PUSH1 0x20 DUP3 ADD MSTORE POP JUMP JUMPDEST PUSH1 0x0 PUSH2 0x8FD PUSH1 0x2D DUP4 PUSH2 0x725 JUMP JUMPDEST SWAP2 POP PUSH2 0x908 DUP3 PUSH2 0x8A1 JUMP JUMPDEST PUSH1 0x40 DUP3 ADD SWAP1 POP SWAP2 SWAP1 POP JUMP JUMPDEST PUSH1 0x0 PUSH1 0x20 DUP3 ADD SWAP1 POP DUP2 DUP2 SUB PUSH1 0x0 DUP4 ADD MSTORE PUSH2 0x92C DUP2 PUSH2 0x8F0 JUMP JUMPDEST SWAP1 POP SWAP2 SWAP1 POP JUMP INVALID LOG2 PUSH5 0x6970667358 0x22 SLT KECCAK256 0xBC DUP2 CHAINID DIFFICULTY 0xD8 PUSH11 0x11A64F4ADFC324DECF0AD5 0x4D 0xB8 0xA8 0xF8 0xAB 0x2C PUSH7 0x633B7C39063332 DUP5 PUSH5 0x736F6C6343 STOP ADDMOD MULMOD STOP CALLER "
				},
				"gasEstimates": {
					"creation": {
						"codeDepositCost": "481800",
						"executionCost": "71222",
						"totalCost": "553022"
					},
					"external": {
						"abort()": "infinite",
						"buyer()": "2536",
						"confirmPurchase()": "infinite",
						"confirmReceive()": "4955",
						"seller()": "2492",
						"state()": "2654"
					}
				},
				"methodIdentifiers": {
					"abort()": "35a063b4",
					"buyer()": "7150d8ae",
					"confirmPurchase()": "d6960697",
					"confirmReceive()": "ffcfd076",
					"seller()": "08551a53",
					"state()": "c19d93fb"
				}
			},
			"storageLayout": {
				"storage": [
					{
						"astId": 3,
						"contract": "SaleAggrement.sol:SaleAggrement",
						"label": "value",
						"offset": 0,
						"slot": "0",
						"type": "t_uint256"
					},
					{
						"astId": 5,
						"contract": "SaleAggrement.sol:SaleAggrement",
						"label": "buyer",
						"offset": 0,
						"slot": "1",
						"type": "t_address_payable"
					},
					{
						"astId": 7,
						"contract": "SaleAggrement.sol:SaleAggrement",
						"label": "seller",
						"offset": 0,
						"slot": "2",
						"type": "t_address_payable"
					},
					{
						"astId": 14,
						"contract": "SaleAggrement.sol:SaleAggrement",
						"label": "state",
						"offset": 20,
						"slot": "2",
						"type": "t_enum(State)11"
					}
				],
				"types": {
					"t_address_payable": {
						"encoding": "inplace",
						"label": "address payable",
						"numberOfBytes": "20"
					},
					"t_enum(State)11": {
						"encoding": "inplace",
						"label": "enum SaleAggrement.State",
						"numberOfBytes": "1"
					},
					"t_uint256": {
						"encoding": "inplace",
						"label": "uint256",
						"numberOfBytes": "32"
					}
				}
			},
			"userdoc": {
				"kind": "user",
				"methods": {},
				"version": 1
			}
		}
	}
}