{
	"ActualBank.sol": {
		"ActualBank": {
			"abi": [
				{
					"inputs": [
						{
							"internalType": "address",
							"name": "benificiaryAccount",
							"type": "address"
						},
						{
							"internalType": "uint256",
							"name": "_amount",
							"type": "uint256"
						}
					],
					"name": "deposit",
					"outputs": [
						{
							"internalType": "uint256",
							"name": "",
							"type": "uint256"
						}
					],
					"stateMutability": "payable",
					"type": "function"
				},
				{
					"inputs": [
						{
							"internalType": "uint256",
							"name": "_amount",
							"type": "uint256"
						},
						{
							"internalType": "uint256",
							"name": "_secretKey",
							"type": "uint256"
						}
					],
					"name": "openAccount",
					"outputs": [
						{
							"internalType": "uint256",
							"name": "",
							"type": "uint256"
						}
					],
					"stateMutability": "payable",
					"type": "function"
				},
				{
					"inputs": [
						{
							"internalType": "uint256",
							"name": "_amount",
							"type": "uint256"
						},
						{
							"internalType": "uint256",
							"name": "_secretKey",
							"type": "uint256"
						}
					],
					"name": "withDraw",
					"outputs": [
						{
							"internalType": "uint256",
							"name": "",
							"type": "uint256"
						}
					],
					"stateMutability": "payable",
					"type": "function"
				}
			],
			"devdoc": {
				"kind": "dev",
				"methods": {},
				"version": 1
			},
			"evm": {
				"assembly": "    /* \"ActualBank.sol\":57:1247  contract ActualBank{... */\n  mstore(0x40, 0x80)\n    /* \"ActualBank.sol\":105:112  1 ether */\n  0x0de0b6b3a7640000\n    /* \"ActualBank.sol\":82:112  uint minAccountBalance=1 ether */\n  0x00\n  sstore\n    /* \"ActualBank.sol\":57:1247  contract ActualBank{... */\n  callvalue\n  dup1\n  iszero\n  tag_1\n  jumpi\n  0x00\n  dup1\n  revert\ntag_1:\n  pop\n  dataSize(sub_0)\n  dup1\n  dataOffset(sub_0)\n  0x00\n  codecopy\n  0x00\n  return\nstop\n\nsub_0: assembly {\n        /* \"ActualBank.sol\":57:1247  contract ActualBank{... */\n      mstore(0x40, 0x80)\n      jumpi(tag_1, lt(calldatasize, 0x04))\n      shr(0xe0, calldataload(0x00))\n      dup1\n      0x47e7ef24\n      eq\n      tag_2\n      jumpi\n      dup1\n      0xd0ffcab3\n      eq\n      tag_3\n      jumpi\n      dup1\n      0xd8b6e79a\n      eq\n      tag_4\n      jumpi\n    tag_1:\n      0x00\n      dup1\n      revert\n        /* \"ActualBank.sol\":511:790  function deposit(address benificiaryAccount,uint256 _amount) payable public returns(uint256){... */\n    tag_2:\n      tag_5\n      0x04\n      dup1\n      calldatasize\n      sub\n      dup2\n      add\n      swap1\n      tag_6\n      swap2\n      swap1\n      tag_7\n      jump\t// in\n    tag_6:\n      tag_8\n      jump\t// in\n    tag_5:\n      mload(0x40)\n      tag_9\n      swap2\n      swap1\n      tag_10\n      jump\t// in\n    tag_9:\n      mload(0x40)\n      dup1\n      swap2\n      sub\n      swap1\n      return\n        /* \"ActualBank.sol\":204:504  function openAccount(uint256 _amount,uint256 _secretKey) payable public returns(uint256) {... */\n    tag_3:\n      tag_11\n      0x04\n      dup1\n      calldatasize\n      sub\n      dup2\n      add\n      swap1\n      tag_12\n      swap2\n      swap1\n      tag_13\n      jump\t// in\n    tag_12:\n      tag_14\n      jump\t// in\n    tag_11:\n      mload(0x40)\n      tag_15\n      swap2\n      swap1\n      tag_10\n      jump\t// in\n    tag_15:\n      mload(0x40)\n      dup1\n      swap2\n      sub\n      swap1\n      return\n        /* \"ActualBank.sol\":796:1245  function withDraw(uint256 _amount, uint256 _secretKey) payable public returns(uint256) {... */\n    tag_4:\n      tag_16\n      0x04\n      dup1\n      calldatasize\n      sub\n      dup2\n      add\n      swap1\n      tag_17\n      swap2\n      swap1\n      tag_13\n      jump\t// in\n    tag_17:\n      tag_18\n      jump\t// in\n    tag_16:\n      mload(0x40)\n      tag_19\n      swap2\n      swap1\n      tag_10\n      jump\t// in\n    tag_19:\n      mload(0x40)\n      dup1\n      swap2\n      sub\n      swap1\n      return\n        /* \"ActualBank.sol\":511:790  function deposit(address benificiaryAccount,uint256 _amount) payable public returns(uint256){... */\n    tag_8:\n        /* \"ActualBank.sol\":595:602  uint256 */\n      0x00\n        /* \"ActualBank.sol\":634:641  _amount */\n      dup2\n        /* \"ActualBank.sol\":621:630  msg.value */\n      callvalue\n        /* \"ActualBank.sol\":621:641  msg.value == _amount */\n      eq\n        /* \"ActualBank.sol\":613:642  require(msg.value == _amount) */\n      tag_21\n      jumpi\n      0x00\n      dup1\n      revert\n    tag_21:\n        /* \"ActualBank.sol\":691:692  0 */\n      0x00\n        /* \"ActualBank.sol\":660:667  balance */\n      0x01\n        /* \"ActualBank.sol\":660:687  balance[benificiaryAccount] */\n      0x00\n        /* \"ActualBank.sol\":668:686  benificiaryAccount */\n      dup6\n        /* \"ActualBank.sol\":660:687  balance[benificiaryAccount] */\n      0xffffffffffffffffffffffffffffffffffffffff\n      and\n      0xffffffffffffffffffffffffffffffffffffffff\n      and\n      dup2\n      mstore\n      0x20\n      add\n      swap1\n      dup2\n      mstore\n      0x20\n      add\n      0x00\n      keccak256\n      sload\n        /* \"ActualBank.sol\":660:692  balance[benificiaryAccount] != 0 */\n      eq\n      iszero\n        /* \"ActualBank.sol\":652:693  require(balance[benificiaryAccount] != 0) */\n      tag_22\n      jumpi\n      0x00\n      dup1\n      revert\n    tag_22:\n        /* \"ActualBank.sol\":732:739  _amount */\n      dup2\n        /* \"ActualBank.sol\":703:710  balance */\n      0x01\n        /* \"ActualBank.sol\":703:730  balance[benificiaryAccount] */\n      0x00\n        /* \"ActualBank.sol\":711:729  benificiaryAccount */\n      dup6\n        /* \"ActualBank.sol\":703:730  balance[benificiaryAccount] */\n      0xffffffffffffffffffffffffffffffffffffffff\n      and\n      0xffffffffffffffffffffffffffffffffffffffff\n      and\n      dup2\n      mstore\n      0x20\n      add\n      swap1\n      dup2\n      mstore\n      0x20\n      add\n      0x00\n      keccak256\n      0x00\n        /* \"ActualBank.sol\":703:739  balance[benificiaryAccount]+=_amount */\n      dup3\n      dup3\n      sload\n      tag_23\n      swap2\n      swap1\n      tag_24\n      jump\t// in\n    tag_23:\n      swap3\n      pop\n      pop\n      dup2\n      swap1\n      sstore\n      pop\n        /* \"ActualBank.sol\":756:763  balance */\n      0x01\n        /* \"ActualBank.sol\":756:783  balance[benificiaryAccount] */\n      0x00\n        /* \"ActualBank.sol\":764:782  benificiaryAccount */\n      dup5\n        /* \"ActualBank.sol\":756:783  balance[benificiaryAccount] */\n      0xffffffffffffffffffffffffffffffffffffffff\n      and\n      0xffffffffffffffffffffffffffffffffffffffff\n      and\n      dup2\n      mstore\n      0x20\n      add\n      swap1\n      dup2\n      mstore\n      0x20\n      add\n      0x00\n      keccak256\n      sload\n        /* \"ActualBank.sol\":749:783  return balance[benificiaryAccount] */\n      swap1\n      pop\n        /* \"ActualBank.sol\":511:790  function deposit(address benificiaryAccount,uint256 _amount) payable public returns(uint256){... */\n      swap3\n      swap2\n      pop\n      pop\n      jump\t// out\n        /* \"ActualBank.sol\":204:504  function openAccount(uint256 _amount,uint256 _secretKey) payable public returns(uint256) {... */\n    tag_14:\n        /* \"ActualBank.sol\":284:291  uint256 */\n      0x00\n        /* \"ActualBank.sol\":324:341  minAccountBalance */\n      dup1\n      sload\n        /* \"ActualBank.sol\":311:320  msg.value */\n      callvalue\n        /* \"ActualBank.sol\":311:341  msg.value >= minAccountBalance */\n      lt\n      iszero\n        /* \"ActualBank.sol\":303:342  require(msg.value >= minAccountBalance) */\n      tag_26\n      jumpi\n      0x00\n      dup1\n      revert\n    tag_26:\n        /* \"ActualBank.sol\":373:380  _amount */\n      dup3\n        /* \"ActualBank.sol\":360:369  msg.value */\n      callvalue\n        /* \"ActualBank.sol\":360:380  msg.value == _amount */\n      eq\n        /* \"ActualBank.sol\":352:381  require(msg.value == _amount) */\n      tag_27\n      jumpi\n      0x00\n      dup1\n      revert\n    tag_27:\n        /* \"ActualBank.sol\":412:419  _amount */\n      dup3\n        /* \"ActualBank.sol\":391:398  balance */\n      0x01\n        /* \"ActualBank.sol\":391:410  balance[msg.sender] */\n      0x00\n        /* \"ActualBank.sol\":399:409  msg.sender */\n      caller\n        /* \"ActualBank.sol\":391:410  balance[msg.sender] */\n      0xffffffffffffffffffffffffffffffffffffffff\n      and\n      0xffffffffffffffffffffffffffffffffffffffff\n      and\n      dup2\n      mstore\n      0x20\n      add\n      swap1\n      dup2\n      mstore\n      0x20\n      add\n      0x00\n      keccak256\n      0x00\n        /* \"ActualBank.sol\":391:419  balance[msg.sender]+=_amount */\n      dup3\n      dup3\n      sload\n      tag_28\n      swap2\n      swap1\n      tag_24\n      jump\t// in\n    tag_28:\n      swap3\n      pop\n      pop\n      dup2\n      swap1\n      sstore\n      pop\n        /* \"ActualBank.sol\":451:461  _secretKey */\n      dup2\n        /* \"ActualBank.sol\":429:438  secretKey */\n      0x02\n        /* \"ActualBank.sol\":429:450  secretKey[msg.sender] */\n      0x00\n        /* \"ActualBank.sol\":439:449  msg.sender */\n      caller\n        /* \"ActualBank.sol\":429:450  secretKey[msg.sender] */\n      0xffffffffffffffffffffffffffffffffffffffff\n      and\n      0xffffffffffffffffffffffffffffffffffffffff\n      and\n      dup2\n      mstore\n      0x20\n      add\n      swap1\n      dup2\n      mstore\n      0x20\n      add\n      0x00\n      keccak256\n        /* \"ActualBank.sol\":429:461  secretKey[msg.sender]=_secretKey */\n      dup2\n      swap1\n      sstore\n      pop\n        /* \"ActualBank.sol\":478:485  balance */\n      0x01\n        /* \"ActualBank.sol\":478:497  balance[msg.sender] */\n      0x00\n        /* \"ActualBank.sol\":486:496  msg.sender */\n      caller\n        /* \"ActualBank.sol\":478:497  balance[msg.sender] */\n      0xffffffffffffffffffffffffffffffffffffffff\n      and\n      0xffffffffffffffffffffffffffffffffffffffff\n      and\n      dup2\n      mstore\n      0x20\n      add\n      swap1\n      dup2\n      mstore\n      0x20\n      add\n      0x00\n      keccak256\n      sload\n        /* \"ActualBank.sol\":471:497  return balance[msg.sender] */\n      swap1\n      pop\n        /* \"ActualBank.sol\":204:504  function openAccount(uint256 _amount,uint256 _secretKey) payable public returns(uint256) {... */\n      swap3\n      swap2\n      pop\n      pop\n      jump\t// out\n        /* \"ActualBank.sol\":796:1245  function withDraw(uint256 _amount, uint256 _secretKey) payable public returns(uint256) {... */\n    tag_18:\n        /* \"ActualBank.sol\":874:881  uint256 */\n      0x00\n        /* \"ActualBank.sol\":914:935  address(this).balance */\n      selfbalance\n        /* \"ActualBank.sol\":901:910  msg.value */\n      callvalue\n        /* \"ActualBank.sol\":901:935  msg.value <= address(this).balance */\n      gt\n      iszero\n        /* \"ActualBank.sol\":893:969  require(msg.value <= address(this).balance, \"With drawal value not correct\") */\n      tag_30\n      jumpi\n      mload(0x40)\n      0x08c379a000000000000000000000000000000000000000000000000000000000\n      dup2\n      mstore\n      0x04\n      add\n      tag_31\n      swap1\n      tag_32\n      jump\t// in\n    tag_31:\n      mload(0x40)\n      dup1\n      swap2\n      sub\n      swap1\n      revert\n    tag_30:\n        /* \"ActualBank.sol\":1000:1007  _amount */\n      dup3\n        /* \"ActualBank.sol\":987:996  msg.value */\n      callvalue\n        /* \"ActualBank.sol\":987:1007  msg.value == _amount */\n      eq\n        /* \"ActualBank.sol\":979:1034  require(msg.value == _amount, \" Arguments not correct\") */\n      tag_33\n      jumpi\n      mload(0x40)\n      0x08c379a000000000000000000000000000000000000000000000000000000000\n      dup2\n      mstore\n      0x04\n      add\n      tag_34\n      swap1\n      tag_35\n      jump\t// in\n    tag_34:\n      mload(0x40)\n      dup1\n      swap2\n      sub\n      swap1\n      revert\n    tag_33:\n        /* \"ActualBank.sol\":1077:1087  _secretKey */\n      dup2\n        /* \"ActualBank.sol\":1052:1061  secretKey */\n      0x02\n        /* \"ActualBank.sol\":1052:1073  secretKey[msg.sender] */\n      0x00\n        /* \"ActualBank.sol\":1062:1072  msg.sender */\n      caller\n        /* \"ActualBank.sol\":1052:1073  secretKey[msg.sender] */\n      0xffffffffffffffffffffffffffffffffffffffff\n      and\n      0xffffffffffffffffffffffffffffffffffffffff\n      and\n      dup2\n      mstore\n      0x20\n      add\n      swap1\n      dup2\n      mstore\n      0x20\n      add\n      0x00\n      keccak256\n      sload\n        /* \"ActualBank.sol\":1052:1087  secretKey[msg.sender] == _secretKey */\n      eq\n        /* \"ActualBank.sol\":1044:1117  require(secretKey[msg.sender] == _secretKey, \"Secret key didn't matched\") */\n      tag_36\n      jumpi\n      mload(0x40)\n      0x08c379a000000000000000000000000000000000000000000000000000000000\n      dup2\n      mstore\n      0x04\n      add\n      tag_37\n      swap1\n      tag_38\n      jump\t// in\n    tag_37:\n      mload(0x40)\n      dup1\n      swap2\n      sub\n      swap1\n      revert\n    tag_36:\n        /* \"ActualBank.sol\":1148:1155  _amount */\n      dup3\n        /* \"ActualBank.sol\":1127:1134  balance */\n      0x01\n        /* \"ActualBank.sol\":1127:1146  balance[msg.sender] */\n      0x00\n        /* \"ActualBank.sol\":1135:1145  msg.sender */\n      caller\n        /* \"ActualBank.sol\":1127:1146  balance[msg.sender] */\n      0xffffffffffffffffffffffffffffffffffffffff\n      and\n      0xffffffffffffffffffffffffffffffffffffffff\n      and\n      dup2\n      mstore\n      0x20\n      add\n      swap1\n      dup2\n      mstore\n      0x20\n      add\n      0x00\n      keccak256\n      0x00\n        /* \"ActualBank.sol\":1127:1155  balance[msg.sender]-=_amount */\n      dup3\n      dup3\n      sload\n      tag_39\n      swap2\n      swap1\n      tag_40\n      jump\t// in\n    tag_39:\n      swap3\n      pop\n      pop\n      dup2\n      swap1\n      sstore\n      pop\n        /* \"ActualBank.sol\":1173:1183  msg.sender */\n      caller\n        /* \"ActualBank.sol\":1165:1193  payable(msg.sender).transfer */\n      0xffffffffffffffffffffffffffffffffffffffff\n      and\n        /* \"ActualBank.sol\":1165:1202  payable(msg.sender).transfer(_amount) */\n      0x08fc\n        /* \"ActualBank.sol\":1194:1201  _amount */\n      dup5\n        /* \"ActualBank.sol\":1165:1202  payable(msg.sender).transfer(_amount) */\n      swap1\n      dup2\n      iszero\n      mul\n      swap1\n      mload(0x40)\n      0x00\n      mload(0x40)\n      dup1\n      dup4\n      sub\n      dup2\n      dup6\n      dup9\n      dup9\n      call\n      swap4\n      pop\n      pop\n      pop\n      pop\n      iszero\n      dup1\n      iszero\n      tag_42\n      jumpi\n      returndatasize\n      0x00\n      dup1\n      returndatacopy\n      revert(0x00, returndatasize)\n    tag_42:\n      pop\n        /* \"ActualBank.sol\":1219:1226  balance */\n      0x01\n        /* \"ActualBank.sol\":1219:1238  balance[msg.sender] */\n      0x00\n        /* \"ActualBank.sol\":1227:1237  msg.sender */\n      caller\n        /* \"ActualBank.sol\":1219:1238  balance[msg.sender] */\n      0xffffffffffffffffffffffffffffffffffffffff\n      and\n      0xffffffffffffffffffffffffffffffffffffffff\n      and\n      dup2\n      mstore\n      0x20\n      add\n      swap1\n      dup2\n      mstore\n      0x20\n      add\n      0x00\n      keccak256\n      sload\n        /* \"ActualBank.sol\":1212:1238  return balance[msg.sender] */\n      swap1\n      pop\n        /* \"ActualBank.sol\":796:1245  function withDraw(uint256 _amount, uint256 _secretKey) payable public returns(uint256) {... */\n      swap3\n      swap2\n      pop\n      pop\n      jump\t// out\n        /* \"#utility.yul\":88:205   */\n    tag_44:\n        /* \"#utility.yul\":197:198   */\n      0x00\n        /* \"#utility.yul\":194:195   */\n      dup1\n        /* \"#utility.yul\":187:199   */\n      revert\n        /* \"#utility.yul\":334:460   */\n    tag_46:\n        /* \"#utility.yul\":371:378   */\n      0x00\n        /* \"#utility.yul\":411:453   */\n      0xffffffffffffffffffffffffffffffffffffffff\n        /* \"#utility.yul\":404:409   */\n      dup3\n        /* \"#utility.yul\":400:454   */\n      and\n        /* \"#utility.yul\":389:454   */\n      swap1\n      pop\n        /* \"#utility.yul\":334:460   */\n      swap2\n      swap1\n      pop\n      jump\t// out\n        /* \"#utility.yul\":466:562   */\n    tag_47:\n        /* \"#utility.yul\":503:510   */\n      0x00\n        /* \"#utility.yul\":532:556   */\n      tag_68\n        /* \"#utility.yul\":550:555   */\n      dup3\n        /* \"#utility.yul\":532:556   */\n      tag_46\n      jump\t// in\n    tag_68:\n        /* \"#utility.yul\":521:556   */\n      swap1\n      pop\n        /* \"#utility.yul\":466:562   */\n      swap2\n      swap1\n      pop\n      jump\t// out\n        /* \"#utility.yul\":568:690   */\n    tag_48:\n        /* \"#utility.yul\":641:665   */\n      tag_70\n        /* \"#utility.yul\":659:664   */\n      dup2\n        /* \"#utility.yul\":641:665   */\n      tag_47\n      jump\t// in\n    tag_70:\n        /* \"#utility.yul\":634:639   */\n      dup2\n        /* \"#utility.yul\":631:666   */\n      eq\n        /* \"#utility.yul\":621:684   */\n      tag_71\n      jumpi\n        /* \"#utility.yul\":680:681   */\n      0x00\n        /* \"#utility.yul\":677:678   */\n      dup1\n        /* \"#utility.yul\":670:682   */\n      revert\n        /* \"#utility.yul\":621:684   */\n    tag_71:\n        /* \"#utility.yul\":568:690   */\n      pop\n      jump\t// out\n        /* \"#utility.yul\":696:835   */\n    tag_49:\n        /* \"#utility.yul\":742:747   */\n      0x00\n        /* \"#utility.yul\":780:786   */\n      dup2\n        /* \"#utility.yul\":767:787   */\n      calldataload\n        /* \"#utility.yul\":758:787   */\n      swap1\n      pop\n        /* \"#utility.yul\":796:829   */\n      tag_73\n        /* \"#utility.yul\":823:828   */\n      dup2\n        /* \"#utility.yul\":796:829   */\n      tag_48\n      jump\t// in\n    tag_73:\n        /* \"#utility.yul\":696:835   */\n      swap3\n      swap2\n      pop\n      pop\n      jump\t// out\n        /* \"#utility.yul\":841:918   */\n    tag_50:\n        /* \"#utility.yul\":878:885   */\n      0x00\n        /* \"#utility.yul\":907:912   */\n      dup2\n        /* \"#utility.yul\":896:912   */\n      swap1\n      pop\n        /* \"#utility.yul\":841:918   */\n      swap2\n      swap1\n      pop\n      jump\t// out\n        /* \"#utility.yul\":924:1046   */\n    tag_51:\n        /* \"#utility.yul\":997:1021   */\n      tag_76\n        /* \"#utility.yul\":1015:1020   */\n      dup2\n        /* \"#utility.yul\":997:1021   */\n      tag_50\n      jump\t// in\n    tag_76:\n        /* \"#utility.yul\":990:995   */\n      dup2\n        /* \"#utility.yul\":987:1022   */\n      eq\n        /* \"#utility.yul\":977:1040   */\n      tag_77\n      jumpi\n        /* \"#utility.yul\":1036:1037   */\n      0x00\n        /* \"#utility.yul\":1033:1034   */\n      dup1\n        /* \"#utility.yul\":1026:1038   */\n      revert\n        /* \"#utility.yul\":977:1040   */\n    tag_77:\n        /* \"#utility.yul\":924:1046   */\n      pop\n      jump\t// out\n        /* \"#utility.yul\":1052:1191   */\n    tag_52:\n        /* \"#utility.yul\":1098:1103   */\n      0x00\n        /* \"#utility.yul\":1136:1142   */\n      dup2\n        /* \"#utility.yul\":1123:1143   */\n      calldataload\n        /* \"#utility.yul\":1114:1143   */\n      swap1\n      pop\n        /* \"#utility.yul\":1152:1185   */\n      tag_79\n        /* \"#utility.yul\":1179:1184   */\n      dup2\n        /* \"#utility.yul\":1152:1185   */\n      tag_51\n      jump\t// in\n    tag_79:\n        /* \"#utility.yul\":1052:1191   */\n      swap3\n      swap2\n      pop\n      pop\n      jump\t// out\n        /* \"#utility.yul\":1197:1671   */\n    tag_7:\n        /* \"#utility.yul\":1265:1271   */\n      0x00\n        /* \"#utility.yul\":1273:1279   */\n      dup1\n        /* \"#utility.yul\":1322:1324   */\n      0x40\n        /* \"#utility.yul\":1310:1319   */\n      dup4\n        /* \"#utility.yul\":1301:1308   */\n      dup6\n        /* \"#utility.yul\":1297:1320   */\n      sub\n        /* \"#utility.yul\":1293:1325   */\n      slt\n        /* \"#utility.yul\":1290:1409   */\n      iszero\n      tag_81\n      jumpi\n        /* \"#utility.yul\":1328:1407   */\n      tag_82\n      tag_44\n      jump\t// in\n    tag_82:\n        /* \"#utility.yul\":1290:1409   */\n    tag_81:\n        /* \"#utility.yul\":1448:1449   */\n      0x00\n        /* \"#utility.yul\":1473:1526   */\n      tag_83\n        /* \"#utility.yul\":1518:1525   */\n      dup6\n        /* \"#utility.yul\":1509:1515   */\n      dup3\n        /* \"#utility.yul\":1498:1507   */\n      dup7\n        /* \"#utility.yul\":1494:1516   */\n      add\n        /* \"#utility.yul\":1473:1526   */\n      tag_49\n      jump\t// in\n    tag_83:\n        /* \"#utility.yul\":1463:1526   */\n      swap3\n      pop\n        /* \"#utility.yul\":1419:1536   */\n      pop\n        /* \"#utility.yul\":1575:1577   */\n      0x20\n        /* \"#utility.yul\":1601:1654   */\n      tag_84\n        /* \"#utility.yul\":1646:1653   */\n      dup6\n        /* \"#utility.yul\":1637:1643   */\n      dup3\n        /* \"#utility.yul\":1626:1635   */\n      dup7\n        /* \"#utility.yul\":1622:1644   */\n      add\n        /* \"#utility.yul\":1601:1654   */\n      tag_52\n      jump\t// in\n    tag_84:\n        /* \"#utility.yul\":1591:1654   */\n      swap2\n      pop\n        /* \"#utility.yul\":1546:1664   */\n      pop\n        /* \"#utility.yul\":1197:1671   */\n      swap3\n      pop\n      swap3\n      swap1\n      pop\n      jump\t// out\n        /* \"#utility.yul\":1677:1795   */\n    tag_53:\n        /* \"#utility.yul\":1764:1788   */\n      tag_86\n        /* \"#utility.yul\":1782:1787   */\n      dup2\n        /* \"#utility.yul\":1764:1788   */\n      tag_50\n      jump\t// in\n    tag_86:\n        /* \"#utility.yul\":1759:1762   */\n      dup3\n        /* \"#utility.yul\":1752:1789   */\n      mstore\n        /* \"#utility.yul\":1677:1795   */\n      pop\n      pop\n      jump\t// out\n        /* \"#utility.yul\":1801:2023   */\n    tag_10:\n        /* \"#utility.yul\":1894:1898   */\n      0x00\n        /* \"#utility.yul\":1932:1934   */\n      0x20\n        /* \"#utility.yul\":1921:1930   */\n      dup3\n        /* \"#utility.yul\":1917:1935   */\n      add\n        /* \"#utility.yul\":1909:1935   */\n      swap1\n      pop\n        /* \"#utility.yul\":1945:2016   */\n      tag_88\n        /* \"#utility.yul\":2013:2014   */\n      0x00\n        /* \"#utility.yul\":2002:2011   */\n      dup4\n        /* \"#utility.yul\":1998:2015   */\n      add\n        /* \"#utility.yul\":1989:1995   */\n      dup5\n        /* \"#utility.yul\":1945:2016   */\n      tag_53\n      jump\t// in\n    tag_88:\n        /* \"#utility.yul\":1801:2023   */\n      swap3\n      swap2\n      pop\n      pop\n      jump\t// out\n        /* \"#utility.yul\":2029:2503   */\n    tag_13:\n        /* \"#utility.yul\":2097:2103   */\n      0x00\n        /* \"#utility.yul\":2105:2111   */\n      dup1\n        /* \"#utility.yul\":2154:2156   */\n      0x40\n        /* \"#utility.yul\":2142:2151   */\n      dup4\n        /* \"#utility.yul\":2133:2140   */\n      dup6\n        /* \"#utility.yul\":2129:2152   */\n      sub\n        /* \"#utility.yul\":2125:2157   */\n      slt\n        /* \"#utility.yul\":2122:2241   */\n      iszero\n      tag_90\n      jumpi\n        /* \"#utility.yul\":2160:2239   */\n      tag_91\n      tag_44\n      jump\t// in\n    tag_91:\n        /* \"#utility.yul\":2122:2241   */\n    tag_90:\n        /* \"#utility.yul\":2280:2281   */\n      0x00\n        /* \"#utility.yul\":2305:2358   */\n      tag_92\n        /* \"#utility.yul\":2350:2357   */\n      dup6\n        /* \"#utility.yul\":2341:2347   */\n      dup3\n        /* \"#utility.yul\":2330:2339   */\n      dup7\n        /* \"#utility.yul\":2326:2348   */\n      add\n        /* \"#utility.yul\":2305:2358   */\n      tag_52\n      jump\t// in\n    tag_92:\n        /* \"#utility.yul\":2295:2358   */\n      swap3\n      pop\n        /* \"#utility.yul\":2251:2368   */\n      pop\n        /* \"#utility.yul\":2407:2409   */\n      0x20\n        /* \"#utility.yul\":2433:2486   */\n      tag_93\n        /* \"#utility.yul\":2478:2485   */\n      dup6\n        /* \"#utility.yul\":2469:2475   */\n      dup3\n        /* \"#utility.yul\":2458:2467   */\n      dup7\n        /* \"#utility.yul\":2454:2476   */\n      add\n        /* \"#utility.yul\":2433:2486   */\n      tag_52\n      jump\t// in\n    tag_93:\n        /* \"#utility.yul\":2423:2486   */\n      swap2\n      pop\n        /* \"#utility.yul\":2378:2496   */\n      pop\n        /* \"#utility.yul\":2029:2503   */\n      swap3\n      pop\n      swap3\n      swap1\n      pop\n      jump\t// out\n        /* \"#utility.yul\":2509:2689   */\n    tag_54:\n        /* \"#utility.yul\":2557:2634   */\n      0x4e487b7100000000000000000000000000000000000000000000000000000000\n        /* \"#utility.yul\":2554:2555   */\n      0x00\n        /* \"#utility.yul\":2547:2635   */\n      mstore\n        /* \"#utility.yul\":2654:2658   */\n      0x11\n        /* \"#utility.yul\":2651:2652   */\n      0x04\n        /* \"#utility.yul\":2644:2659   */\n      mstore\n        /* \"#utility.yul\":2678:2682   */\n      0x24\n        /* \"#utility.yul\":2675:2676   */\n      0x00\n        /* \"#utility.yul\":2668:2683   */\n      revert\n        /* \"#utility.yul\":2695:3000   */\n    tag_24:\n        /* \"#utility.yul\":2735:2738   */\n      0x00\n        /* \"#utility.yul\":2754:2774   */\n      tag_96\n        /* \"#utility.yul\":2772:2773   */\n      dup3\n        /* \"#utility.yul\":2754:2774   */\n      tag_50\n      jump\t// in\n    tag_96:\n        /* \"#utility.yul\":2749:2774   */\n      swap2\n      pop\n        /* \"#utility.yul\":2788:2808   */\n      tag_97\n        /* \"#utility.yul\":2806:2807   */\n      dup4\n        /* \"#utility.yul\":2788:2808   */\n      tag_50\n      jump\t// in\n    tag_97:\n        /* \"#utility.yul\":2783:2808   */\n      swap3\n      pop\n        /* \"#utility.yul\":2942:2943   */\n      dup3\n        /* \"#utility.yul\":2874:2940   */\n      0xffffffffffffffffffffffffffffffffffffffffffffffffffffffffffffffff\n        /* \"#utility.yul\":2870:2944   */\n      sub\n        /* \"#utility.yul\":2867:2868   */\n      dup3\n        /* \"#utility.yul\":2864:2945   */\n      gt\n        /* \"#utility.yul\":2861:2968   */\n      iszero\n      tag_98\n      jumpi\n        /* \"#utility.yul\":2948:2966   */\n      tag_99\n      tag_54\n      jump\t// in\n    tag_99:\n        /* \"#utility.yul\":2861:2968   */\n    tag_98:\n        /* \"#utility.yul\":2992:2993   */\n      dup3\n        /* \"#utility.yul\":2989:2990   */\n      dup3\n        /* \"#utility.yul\":2985:2994   */\n      add\n        /* \"#utility.yul\":2978:2994   */\n      swap1\n      pop\n        /* \"#utility.yul\":2695:3000   */\n      swap3\n      swap2\n      pop\n      pop\n      jump\t// out\n        /* \"#utility.yul\":3006:3175   */\n    tag_55:\n        /* \"#utility.yul\":3090:3101   */\n      0x00\n        /* \"#utility.yul\":3124:3130   */\n      dup3\n        /* \"#utility.yul\":3119:3122   */\n      dup3\n        /* \"#utility.yul\":3112:3131   */\n      mstore\n        /* \"#utility.yul\":3164:3168   */\n      0x20\n        /* \"#utility.yul\":3159:3162   */\n      dup3\n        /* \"#utility.yul\":3155:3169   */\n      add\n        /* \"#utility.yul\":3140:3169   */\n      swap1\n      pop\n        /* \"#utility.yul\":3006:3175   */\n      swap3\n      swap2\n      pop\n      pop\n      jump\t// out\n        /* \"#utility.yul\":3181:3360   */\n    tag_56:\n        /* \"#utility.yul\":3321:3352   */\n      0x576974682064726177616c2076616c7565206e6f7420636f7272656374000000\n        /* \"#utility.yul\":3317:3318   */\n      0x00\n        /* \"#utility.yul\":3309:3315   */\n      dup3\n        /* \"#utility.yul\":3305:3319   */\n      add\n        /* \"#utility.yul\":3298:3353   */\n      mstore\n        /* \"#utility.yul\":3181:3360   */\n      pop\n      jump\t// out\n        /* \"#utility.yul\":3366:3732   */\n    tag_57:\n        /* \"#utility.yul\":3508:3511   */\n      0x00\n        /* \"#utility.yul\":3529:3596   */\n      tag_103\n        /* \"#utility.yul\":3593:3595   */\n      0x1d\n        /* \"#utility.yul\":3588:3591   */\n      dup4\n        /* \"#utility.yul\":3529:3596   */\n      tag_55\n      jump\t// in\n    tag_103:\n        /* \"#utility.yul\":3522:3596   */\n      swap2\n      pop\n        /* \"#utility.yul\":3605:3698   */\n      tag_104\n        /* \"#utility.yul\":3694:3697   */\n      dup3\n        /* \"#utility.yul\":3605:3698   */\n      tag_56\n      jump\t// in\n    tag_104:\n        /* \"#utility.yul\":3723:3725   */\n      0x20\n        /* \"#utility.yul\":3718:3721   */\n      dup3\n        /* \"#utility.yul\":3714:3726   */\n      add\n        /* \"#utility.yul\":3707:3726   */\n      swap1\n      pop\n        /* \"#utility.yul\":3366:3732   */\n      swap2\n      swap1\n      pop\n      jump\t// out\n        /* \"#utility.yul\":3738:4157   */\n    tag_32:\n        /* \"#utility.yul\":3904:3908   */\n      0x00\n        /* \"#utility.yul\":3942:3944   */\n      0x20\n        /* \"#utility.yul\":3931:3940   */\n      dup3\n        /* \"#utility.yul\":3927:3945   */\n      add\n        /* \"#utility.yul\":3919:3945   */\n      swap1\n      pop\n        /* \"#utility.yul\":3991:4000   */\n      dup2\n        /* \"#utility.yul\":3985:3989   */\n      dup2\n        /* \"#utility.yul\":3981:4001   */\n      sub\n        /* \"#utility.yul\":3977:3978   */\n      0x00\n        /* \"#utility.yul\":3966:3975   */\n      dup4\n        /* \"#utility.yul\":3962:3979   */\n      add\n        /* \"#utility.yul\":3955:4002   */\n      mstore\n        /* \"#utility.yul\":4019:4150   */\n      tag_106\n        /* \"#utility.yul\":4145:4149   */\n      dup2\n        /* \"#utility.yul\":4019:4150   */\n      tag_57\n      jump\t// in\n    tag_106:\n        /* \"#utility.yul\":4011:4150   */\n      swap1\n      pop\n        /* \"#utility.yul\":3738:4157   */\n      swap2\n      swap1\n      pop\n      jump\t// out\n        /* \"#utility.yul\":4163:4335   */\n    tag_58:\n        /* \"#utility.yul\":4303:4327   */\n      0x20417267756d656e7473206e6f7420636f727265637400000000000000000000\n        /* \"#utility.yul\":4299:4300   */\n      0x00\n        /* \"#utility.yul\":4291:4297   */\n      dup3\n        /* \"#utility.yul\":4287:4301   */\n      add\n        /* \"#utility.yul\":4280:4328   */\n      mstore\n        /* \"#utility.yul\":4163:4335   */\n      pop\n      jump\t// out\n        /* \"#utility.yul\":4341:4707   */\n    tag_59:\n        /* \"#utility.yul\":4483:4486   */\n      0x00\n        /* \"#utility.yul\":4504:4571   */\n      tag_109\n        /* \"#utility.yul\":4568:4570   */\n      0x16\n        /* \"#utility.yul\":4563:4566   */\n      dup4\n        /* \"#utility.yul\":4504:4571   */\n      tag_55\n      jump\t// in\n    tag_109:\n        /* \"#utility.yul\":4497:4571   */\n      swap2\n      pop\n        /* \"#utility.yul\":4580:4673   */\n      tag_110\n        /* \"#utility.yul\":4669:4672   */\n      dup3\n        /* \"#utility.yul\":4580:4673   */\n      tag_58\n      jump\t// in\n    tag_110:\n        /* \"#utility.yul\":4698:4700   */\n      0x20\n        /* \"#utility.yul\":4693:4696   */\n      dup3\n        /* \"#utility.yul\":4689:4701   */\n      add\n        /* \"#utility.yul\":4682:4701   */\n      swap1\n      pop\n        /* \"#utility.yul\":4341:4707   */\n      swap2\n      swap1\n      pop\n      jump\t// out\n        /* \"#utility.yul\":4713:5132   */\n    tag_35:\n        /* \"#utility.yul\":4879:4883   */\n      0x00\n        /* \"#utility.yul\":4917:4919   */\n      0x20\n        /* \"#utility.yul\":4906:4915   */\n      dup3\n        /* \"#utility.yul\":4902:4920   */\n      add\n        /* \"#utility.yul\":4894:4920   */\n      swap1\n      pop\n        /* \"#utility.yul\":4966:4975   */\n      dup2\n        /* \"#utility.yul\":4960:4964   */\n      dup2\n        /* \"#utility.yul\":4956:4976   */\n      sub\n        /* \"#utility.yul\":4952:4953   */\n      0x00\n        /* \"#utility.yul\":4941:4950   */\n      dup4\n        /* \"#utility.yul\":4937:4954   */\n      add\n        /* \"#utility.yul\":4930:4977   */\n      mstore\n        /* \"#utility.yul\":4994:5125   */\n      tag_112\n        /* \"#utility.yul\":5120:5124   */\n      dup2\n        /* \"#utility.yul\":4994:5125   */\n      tag_59\n      jump\t// in\n    tag_112:\n        /* \"#utility.yul\":4986:5125   */\n      swap1\n      pop\n        /* \"#utility.yul\":4713:5132   */\n      swap2\n      swap1\n      pop\n      jump\t// out\n        /* \"#utility.yul\":5138:5313   */\n    tag_60:\n        /* \"#utility.yul\":5278:5305   */\n      0x536563726574206b6579206469646e2774206d61746368656400000000000000\n        /* \"#utility.yul\":5274:5275   */\n      0x00\n        /* \"#utility.yul\":5266:5272   */\n      dup3\n        /* \"#utility.yul\":5262:5276   */\n      add\n        /* \"#utility.yul\":5255:5306   */\n      mstore\n        /* \"#utility.yul\":5138:5313   */\n      pop\n      jump\t// out\n        /* \"#utility.yul\":5319:5685   */\n    tag_61:\n        /* \"#utility.yul\":5461:5464   */\n      0x00\n        /* \"#utility.yul\":5482:5549   */\n      tag_115\n        /* \"#utility.yul\":5546:5548   */\n      0x19\n        /* \"#utility.yul\":5541:5544   */\n      dup4\n        /* \"#utility.yul\":5482:5549   */\n      tag_55\n      jump\t// in\n    tag_115:\n        /* \"#utility.yul\":5475:5549   */\n      swap2\n      pop\n        /* \"#utility.yul\":5558:5651   */\n      tag_116\n        /* \"#utility.yul\":5647:5650   */\n      dup3\n        /* \"#utility.yul\":5558:5651   */\n      tag_60\n      jump\t// in\n    tag_116:\n        /* \"#utility.yul\":5676:5678   */\n      0x20\n        /* \"#utility.yul\":5671:5674   */\n      dup3\n        /* \"#utility.yul\":5667:5679   */\n      add\n        /* \"#utility.yul\":5660:5679   */\n      swap1\n      pop\n        /* \"#utility.yul\":5319:5685   */\n      swap2\n      swap1\n      pop\n      jump\t// out\n        /* \"#utility.yul\":5691:6110   */\n    tag_38:\n        /* \"#utility.yul\":5857:5861   */\n      0x00\n        /* \"#utility.yul\":5895:5897   */\n      0x20\n        /* \"#utility.yul\":5884:5893   */\n      dup3\n        /* \"#utility.yul\":5880:5898   */\n      add\n        /* \"#utility.yul\":5872:5898   */\n      swap1\n      pop\n        /* \"#utility.yul\":5944:5953   */\n      dup2\n        /* \"#utility.yul\":5938:5942   */\n      dup2\n        /* \"#utility.yul\":5934:5954   */\n      sub\n        /* \"#utility.yul\":5930:5931   */\n      0x00\n        /* \"#utility.yul\":5919:5928   */\n      dup4\n        /* \"#utility.yul\":5915:5932   */\n      add\n        /* \"#utility.yul\":5908:5955   */\n      mstore\n        /* \"#utility.yul\":5972:6103   */\n      tag_118\n        /* \"#utility.yul\":6098:6102   */\n      dup2\n        /* \"#utility.yul\":5972:6103   */\n      tag_61\n      jump\t// in\n    tag_118:\n        /* \"#utility.yul\":5964:6103   */\n      swap1\n      pop\n        /* \"#utility.yul\":5691:6110   */\n      swap2\n      swap1\n      pop\n      jump\t// out\n        /* \"#utility.yul\":6116:6307   */\n    tag_40:\n        /* \"#utility.yul\":6156:6160   */\n      0x00\n        /* \"#utility.yul\":6176:6196   */\n      tag_120\n        /* \"#utility.yul\":6194:6195   */\n      dup3\n        /* \"#utility.yul\":6176:6196   */\n      tag_50\n      jump\t// in\n    tag_120:\n        /* \"#utility.yul\":6171:6196   */\n      swap2\n      pop\n        /* \"#utility.yul\":6210:6230   */\n      tag_121\n        /* \"#utility.yul\":6228:6229   */\n      dup4\n        /* \"#utility.yul\":6210:6230   */\n      tag_50\n      jump\t// in\n    tag_121:\n        /* \"#utility.yul\":6205:6230   */\n      swap3\n      pop\n        /* \"#utility.yul\":6249:6250   */\n      dup3\n        /* \"#utility.yul\":6246:6247   */\n      dup3\n        /* \"#utility.yul\":6243:6251   */\n      lt\n        /* \"#utility.yul\":6240:6274   */\n      iszero\n      tag_122\n      jumpi\n        /* \"#utility.yul\":6254:6272   */\n      tag_123\n      tag_54\n      jump\t// in\n    tag_123:\n        /* \"#utility.yul\":6240:6274   */\n    tag_122:\n        /* \"#utility.yul\":6299:6300   */\n      dup3\n        /* \"#utility.yul\":6296:6297   */\n      dup3\n        /* \"#utility.yul\":6292:6301   */\n      sub\n        /* \"#utility.yul\":6284:6301   */\n      swap1\n      pop\n        /* \"#utility.yul\":6116:6307   */\n      swap3\n      swap2\n      pop\n      pop\n      jump\t// out\n\n    auxdata: 0xa26469706673582212200a5e3b1a52ce1bc1a7bf171a458b29cb19b191d2d10850db973d44247286dec264736f6c63430008090033\n}\n",
				"bytecode": {
					"linkReferences": {},
					"object": "6080604052670de0b6b3a764000060005534801561001c57600080fd5b506108348061002c6000396000f3fe6080604052600436106100345760003560e01c806347e7ef2414610039578063d0ffcab314610069578063d8b6e79a14610099575b600080fd5b610053600480360381019061004e9190610546565b6100c9565b6040516100609190610595565b60405180910390f35b610083600480360381019061007e91906105b0565b6101c2565b6040516100909190610595565b60405180910390f35b6100b360048036038101906100ae91906105b0565b6102c0565b6040516100c09190610595565b60405180910390f35b60008134146100d757600080fd5b6000600160008573ffffffffffffffffffffffffffffffffffffffff1673ffffffffffffffffffffffffffffffffffffffff16815260200190815260200160002054141561012457600080fd5b81600160008573ffffffffffffffffffffffffffffffffffffffff1673ffffffffffffffffffffffffffffffffffffffff1681526020019081526020016000206000828254610173919061061f565b92505081905550600160008473ffffffffffffffffffffffffffffffffffffffff1673ffffffffffffffffffffffffffffffffffffffff16815260200190815260200160002054905092915050565b600080543410156101d257600080fd5b8234146101de57600080fd5b82600160003373ffffffffffffffffffffffffffffffffffffffff1673ffffffffffffffffffffffffffffffffffffffff168152602001908152602001600020600082825461022d919061061f565b9250508190555081600260003373ffffffffffffffffffffffffffffffffffffffff1673ffffffffffffffffffffffffffffffffffffffff16815260200190815260200160002081905550600160003373ffffffffffffffffffffffffffffffffffffffff1673ffffffffffffffffffffffffffffffffffffffff16815260200190815260200160002054905092915050565b600047341115610305576040517f08c379a00000000000000000000000000000000000000000000000000000000081526004016102fc906106d2565b60405180910390fd5b823414610347576040517f08c379a000000000000000000000000000000000000000000000000000000000815260040161033e9061073e565b60405180910390fd5b81600260003373ffffffffffffffffffffffffffffffffffffffff1673ffffffffffffffffffffffffffffffffffffffff16815260200190815260200160002054146103c8576040517f08c379a00000000000000000000000000000000000000000000000000000000081526004016103bf906107aa565b60405180910390fd5b82600160003373ffffffffffffffffffffffffffffffffffffffff1673ffffffffffffffffffffffffffffffffffffffff168152602001908152602001600020600082825461041791906107ca565b925050819055503373ffffffffffffffffffffffffffffffffffffffff166108fc849081150290604051600060405180830381858888f19350505050158015610464573d6000803e3d6000fd5b50600160003373ffffffffffffffffffffffffffffffffffffffff1673ffffffffffffffffffffffffffffffffffffffff16815260200190815260200160002054905092915050565b600080fd5b600073ffffffffffffffffffffffffffffffffffffffff82169050919050565b60006104dd826104b2565b9050919050565b6104ed816104d2565b81146104f857600080fd5b50565b60008135905061050a816104e4565b92915050565b6000819050919050565b61052381610510565b811461052e57600080fd5b50565b6000813590506105408161051a565b92915050565b6000806040838503121561055d5761055c6104ad565b5b600061056b858286016104fb565b925050602061057c85828601610531565b9150509250929050565b61058f81610510565b82525050565b60006020820190506105aa6000830184610586565b92915050565b600080604083850312156105c7576105c66104ad565b5b60006105d585828601610531565b92505060206105e685828601610531565b9150509250929050565b7f4e487b7100000000000000000000000000000000000000000000000000000000600052601160045260246000fd5b600061062a82610510565b915061063583610510565b9250827fffffffffffffffffffffffffffffffffffffffffffffffffffffffffffffffff0382111561066a576106696105f0565b5b828201905092915050565b600082825260208201905092915050565b7f576974682064726177616c2076616c7565206e6f7420636f7272656374000000600082015250565b60006106bc601d83610675565b91506106c782610686565b602082019050919050565b600060208201905081810360008301526106eb816106af565b9050919050565b7f20417267756d656e7473206e6f7420636f727265637400000000000000000000600082015250565b6000610728601683610675565b9150610733826106f2565b602082019050919050565b600060208201905081810360008301526107578161071b565b9050919050565b7f536563726574206b6579206469646e2774206d61746368656400000000000000600082015250565b6000610794601983610675565b915061079f8261075e565b602082019050919050565b600060208201905081810360008301526107c381610787565b9050919050565b60006107d582610510565b91506107e083610510565b9250828210156107f3576107f26105f0565b5b82820390509291505056fea26469706673582212200a5e3b1a52ce1bc1a7bf171a458b29cb19b191d2d10850db973d44247286dec264736f6c63430008090033",
					"opcodes": "PUSH1 0x80 PUSH1 0x40 MSTORE PUSH8 0xDE0B6B3A7640000 PUSH1 0x0 SSTORE CALLVALUE DUP1 ISZERO PUSH2 0x1C JUMPI PUSH1 0x0 DUP1 REVERT JUMPDEST POP PUSH2 0x834 DUP1 PUSH2 0x2C PUSH1 0x0 CODECOPY PUSH1 0x0 RETURN INVALID PUSH1 0x80 PUSH1 0x40 MSTORE PUSH1 0x4 CALLDATASIZE LT PUSH2 0x34 JUMPI PUSH1 0x0 CALLDATALOAD PUSH1 0xE0 SHR DUP1 PUSH4 0x47E7EF24 EQ PUSH2 0x39 JUMPI DUP1 PUSH4 0xD0FFCAB3 EQ PUSH2 0x69 JUMPI DUP1 PUSH4 0xD8B6E79A EQ PUSH2 0x99 JUMPI JUMPDEST PUSH1 0x0 DUP1 REVERT JUMPDEST PUSH2 0x53 PUSH1 0x4 DUP1 CALLDATASIZE SUB DUP2 ADD SWAP1 PUSH2 0x4E SWAP2 SWAP1 PUSH2 0x546 JUMP JUMPDEST PUSH2 0xC9 JUMP JUMPDEST PUSH1 0x40 MLOAD PUSH2 0x60 SWAP2 SWAP1 PUSH2 0x595 JUMP JUMPDEST PUSH1 0x40 MLOAD DUP1 SWAP2 SUB SWAP1 RETURN JUMPDEST PUSH2 0x83 PUSH1 0x4 DUP1 CALLDATASIZE SUB DUP2 ADD SWAP1 PUSH2 0x7E SWAP2 SWAP1 PUSH2 0x5B0 JUMP JUMPDEST PUSH2 0x1C2 JUMP JUMPDEST PUSH1 0x40 MLOAD PUSH2 0x90 SWAP2 SWAP1 PUSH2 0x595 JUMP JUMPDEST PUSH1 0x40 MLOAD DUP1 SWAP2 SUB SWAP1 RETURN JUMPDEST PUSH2 0xB3 PUSH1 0x4 DUP1 CALLDATASIZE SUB DUP2 ADD SWAP1 PUSH2 0xAE SWAP2 SWAP1 PUSH2 0x5B0 JUMP JUMPDEST PUSH2 0x2C0 JUMP JUMPDEST PUSH1 0x40 MLOAD PUSH2 0xC0 SWAP2 SWAP1 PUSH2 0x595 JUMP JUMPDEST PUSH1 0x40 MLOAD DUP1 SWAP2 SUB SWAP1 RETURN JUMPDEST PUSH1 0x0 DUP2 CALLVALUE EQ PUSH2 0xD7 JUMPI PUSH1 0x0 DUP1 REVERT JUMPDEST PUSH1 0x0 PUSH1 0x1 PUSH1 0x0 DUP6 PUSH20 0xFFFFFFFFFFFFFFFFFFFFFFFFFFFFFFFFFFFFFFFF AND PUSH20 0xFFFFFFFFFFFFFFFFFFFFFFFFFFFFFFFFFFFFFFFF AND DUP2 MSTORE PUSH1 0x20 ADD SWAP1 DUP2 MSTORE PUSH1 0x20 ADD PUSH1 0x0 KECCAK256 SLOAD EQ ISZERO PUSH2 0x124 JUMPI PUSH1 0x0 DUP1 REVERT JUMPDEST DUP2 PUSH1 0x1 PUSH1 0x0 DUP6 PUSH20 0xFFFFFFFFFFFFFFFFFFFFFFFFFFFFFFFFFFFFFFFF AND PUSH20 0xFFFFFFFFFFFFFFFFFFFFFFFFFFFFFFFFFFFFFFFF AND DUP2 MSTORE PUSH1 0x20 ADD SWAP1 DUP2 MSTORE PUSH1 0x20 ADD PUSH1 0x0 KECCAK256 PUSH1 0x0 DUP3 DUP3 SLOAD PUSH2 0x173 SWAP2 SWAP1 PUSH2 0x61F JUMP JUMPDEST SWAP3 POP POP DUP2 SWAP1 SSTORE POP PUSH1 0x1 PUSH1 0x0 DUP5 PUSH20 0xFFFFFFFFFFFFFFFFFFFFFFFFFFFFFFFFFFFFFFFF AND PUSH20 0xFFFFFFFFFFFFFFFFFFFFFFFFFFFFFFFFFFFFFFFF AND DUP2 MSTORE PUSH1 0x20 ADD SWAP1 DUP2 MSTORE PUSH1 0x20 ADD PUSH1 0x0 KECCAK256 SLOAD SWAP1 POP SWAP3 SWAP2 POP POP JUMP JUMPDEST PUSH1 0x0 DUP1 SLOAD CALLVALUE LT ISZERO PUSH2 0x1D2 JUMPI PUSH1 0x0 DUP1 REVERT JUMPDEST DUP3 CALLVALUE EQ PUSH2 0x1DE JUMPI PUSH1 0x0 DUP1 REVERT JUMPDEST DUP3 PUSH1 0x1 PUSH1 0x0 CALLER PUSH20 0xFFFFFFFFFFFFFFFFFFFFFFFFFFFFFFFFFFFFFFFF AND PUSH20 0xFFFFFFFFFFFFFFFFFFFFFFFFFFFFFFFFFFFFFFFF AND DUP2 MSTORE PUSH1 0x20 ADD SWAP1 DUP2 MSTORE PUSH1 0x20 ADD PUSH1 0x0 KECCAK256 PUSH1 0x0 DUP3 DUP3 SLOAD PUSH2 0x22D SWAP2 SWAP1 PUSH2 0x61F JUMP JUMPDEST SWAP3 POP POP DUP2 SWAP1 SSTORE POP DUP2 PUSH1 0x2 PUSH1 0x0 CALLER PUSH20 0xFFFFFFFFFFFFFFFFFFFFFFFFFFFFFFFFFFFFFFFF AND PUSH20 0xFFFFFFFFFFFFFFFFFFFFFFFFFFFFFFFFFFFFFFFF AND DUP2 MSTORE PUSH1 0x20 ADD SWAP1 DUP2 MSTORE PUSH1 0x20 ADD PUSH1 0x0 KECCAK256 DUP2 SWAP1 SSTORE POP PUSH1 0x1 PUSH1 0x0 CALLER PUSH20 0xFFFFFFFFFFFFFFFFFFFFFFFFFFFFFFFFFFFFFFFF AND PUSH20 0xFFFFFFFFFFFFFFFFFFFFFFFFFFFFFFFFFFFFFFFF AND DUP2 MSTORE PUSH1 0x20 ADD SWAP1 DUP2 MSTORE PUSH1 0x20 ADD PUSH1 0x0 KECCAK256 SLOAD SWAP1 POP SWAP3 SWAP2 POP POP JUMP JUMPDEST PUSH1 0x0 SELFBALANCE CALLVALUE GT ISZERO PUSH2 0x305 JUMPI PUSH1 0x40 MLOAD PUSH32 0x8C379A000000000000000000000000000000000000000000000000000000000 DUP2 MSTORE PUSH1 0x4 ADD PUSH2 0x2FC SWAP1 PUSH2 0x6D2 JUMP JUMPDEST PUSH1 0x40 MLOAD DUP1 SWAP2 SUB SWAP1 REVERT JUMPDEST DUP3 CALLVALUE EQ PUSH2 0x347 JUMPI PUSH1 0x40 MLOAD PUSH32 0x8C379A000000000000000000000000000000000000000000000000000000000 DUP2 MSTORE PUSH1 0x4 ADD PUSH2 0x33E SWAP1 PUSH2 0x73E JUMP JUMPDEST PUSH1 0x40 MLOAD DUP1 SWAP2 SUB SWAP1 REVERT JUMPDEST DUP2 PUSH1 0x2 PUSH1 0x0 CALLER PUSH20 0xFFFFFFFFFFFFFFFFFFFFFFFFFFFFFFFFFFFFFFFF AND PUSH20 0xFFFFFFFFFFFFFFFFFFFFFFFFFFFFFFFFFFFFFFFF AND DUP2 MSTORE PUSH1 0x20 ADD SWAP1 DUP2 MSTORE PUSH1 0x20 ADD PUSH1 0x0 KECCAK256 SLOAD EQ PUSH2 0x3C8 JUMPI PUSH1 0x40 MLOAD PUSH32 0x8C379A000000000000000000000000000000000000000000000000000000000 DUP2 MSTORE PUSH1 0x4 ADD PUSH2 0x3BF SWAP1 PUSH2 0x7AA JUMP JUMPDEST PUSH1 0x40 MLOAD DUP1 SWAP2 SUB SWAP1 REVERT JUMPDEST DUP3 PUSH1 0x1 PUSH1 0x0 CALLER PUSH20 0xFFFFFFFFFFFFFFFFFFFFFFFFFFFFFFFFFFFFFFFF AND PUSH20 0xFFFFFFFFFFFFFFFFFFFFFFFFFFFFFFFFFFFFFFFF AND DUP2 MSTORE PUSH1 0x20 ADD SWAP1 DUP2 MSTORE PUSH1 0x20 ADD PUSH1 0x0 KECCAK256 PUSH1 0x0 DUP3 DUP3 SLOAD PUSH2 0x417 SWAP2 SWAP1 PUSH2 0x7CA JUMP JUMPDEST SWAP3 POP POP DUP2 SWAP1 SSTORE POP CALLER PUSH20 0xFFFFFFFFFFFFFFFFFFFFFFFFFFFFFFFFFFFFFFFF AND PUSH2 0x8FC DUP5 SWAP1 DUP2 ISZERO MUL SWAP1 PUSH1 0x40 MLOAD PUSH1 0x0 PUSH1 0x40 MLOAD DUP1 DUP4 SUB DUP2 DUP6 DUP9 DUP9 CALL SWAP4 POP POP POP POP ISZERO DUP1 ISZERO PUSH2 0x464 JUMPI RETURNDATASIZE PUSH1 0x0 DUP1 RETURNDATACOPY RETURNDATASIZE PUSH1 0x0 REVERT JUMPDEST POP PUSH1 0x1 PUSH1 0x0 CALLER PUSH20 0xFFFFFFFFFFFFFFFFFFFFFFFFFFFFFFFFFFFFFFFF AND PUSH20 0xFFFFFFFFFFFFFFFFFFFFFFFFFFFFFFFFFFFFFFFF AND DUP2 MSTORE PUSH1 0x20 ADD SWAP1 DUP2 MSTORE PUSH1 0x20 ADD PUSH1 0x0 KECCAK256 SLOAD SWAP1 POP SWAP3 SWAP2 POP POP JUMP JUMPDEST PUSH1 0x0 DUP1 REVERT JUMPDEST PUSH1 0x0 PUSH20 0xFFFFFFFFFFFFFFFFFFFFFFFFFFFFFFFFFFFFFFFF DUP3 AND SWAP1 POP SWAP2 SWAP1 POP JUMP JUMPDEST PUSH1 0x0 PUSH2 0x4DD DUP3 PUSH2 0x4B2 JUMP JUMPDEST SWAP1 POP SWAP2 SWAP1 POP JUMP JUMPDEST PUSH2 0x4ED DUP2 PUSH2 0x4D2 JUMP JUMPDEST DUP2 EQ PUSH2 0x4F8 JUMPI PUSH1 0x0 DUP1 REVERT JUMPDEST POP JUMP JUMPDEST PUSH1 0x0 DUP2 CALLDATALOAD SWAP1 POP PUSH2 0x50A DUP2 PUSH2 0x4E4 JUMP JUMPDEST SWAP3 SWAP2 POP POP JUMP JUMPDEST PUSH1 0x0 DUP2 SWAP1 POP SWAP2 SWAP1 POP JUMP JUMPDEST PUSH2 0x523 DUP2 PUSH2 0x510 JUMP JUMPDEST DUP2 EQ PUSH2 0x52E JUMPI PUSH1 0x0 DUP1 REVERT JUMPDEST POP JUMP JUMPDEST PUSH1 0x0 DUP2 CALLDATALOAD SWAP1 POP PUSH2 0x540 DUP2 PUSH2 0x51A JUMP JUMPDEST SWAP3 SWAP2 POP POP JUMP JUMPDEST PUSH1 0x0 DUP1 PUSH1 0x40 DUP4 DUP6 SUB SLT ISZERO PUSH2 0x55D JUMPI PUSH2 0x55C PUSH2 0x4AD JUMP JUMPDEST JUMPDEST PUSH1 0x0 PUSH2 0x56B DUP6 DUP3 DUP7 ADD PUSH2 0x4FB JUMP JUMPDEST SWAP3 POP POP PUSH1 0x20 PUSH2 0x57C DUP6 DUP3 DUP7 ADD PUSH2 0x531 JUMP JUMPDEST SWAP2 POP POP SWAP3 POP SWAP3 SWAP1 POP JUMP JUMPDEST PUSH2 0x58F DUP2 PUSH2 0x510 JUMP JUMPDEST DUP3 MSTORE POP POP JUMP JUMPDEST PUSH1 0x0 PUSH1 0x20 DUP3 ADD SWAP1 POP PUSH2 0x5AA PUSH1 0x0 DUP4 ADD DUP5 PUSH2 0x586 JUMP JUMPDEST SWAP3 SWAP2 POP POP JUMP JUMPDEST PUSH1 0x0 DUP1 PUSH1 0x40 DUP4 DUP6 SUB SLT ISZERO PUSH2 0x5C7 JUMPI PUSH2 0x5C6 PUSH2 0x4AD JUMP JUMPDEST JUMPDEST PUSH1 0x0 PUSH2 0x5D5 DUP6 DUP3 DUP7 ADD PUSH2 0x531 JUMP JUMPDEST SWAP3 POP POP PUSH1 0x20 PUSH2 0x5E6 DUP6 DUP3 DUP7 ADD PUSH2 0x531 JUMP JUMPDEST SWAP2 POP POP SWAP3 POP SWAP3 SWAP1 POP JUMP JUMPDEST PUSH32 0x4E487B7100000000000000000000000000000000000000000000000000000000 PUSH1 0x0 MSTORE PUSH1 0x11 PUSH1 0x4 MSTORE PUSH1 0x24 PUSH1 0x0 REVERT JUMPDEST PUSH1 0x0 PUSH2 0x62A DUP3 PUSH2 0x510 JUMP JUMPDEST SWAP2 POP PUSH2 0x635 DUP4 PUSH2 0x510 JUMP JUMPDEST SWAP3 POP DUP3 PUSH32 0xFFFFFFFFFFFFFFFFFFFFFFFFFFFFFFFFFFFFFFFFFFFFFFFFFFFFFFFFFFFFFFFF SUB DUP3 GT ISZERO PUSH2 0x66A JUMPI PUSH2 0x669 PUSH2 0x5F0 JUMP JUMPDEST JUMPDEST DUP3 DUP3 ADD SWAP1 POP SWAP3 SWAP2 POP POP JUMP JUMPDEST PUSH1 0x0 DUP3 DUP3 MSTORE PUSH1 0x20 DUP3 ADD SWAP1 POP SWAP3 SWAP2 POP POP JUMP JUMPDEST PUSH32 0x576974682064726177616C2076616C7565206E6F7420636F7272656374000000 PUSH1 0x0 DUP3 ADD MSTORE POP JUMP JUMPDEST PUSH1 0x0 PUSH2 0x6BC PUSH1 0x1D DUP4 PUSH2 0x675 JUMP JUMPDEST SWAP2 POP PUSH2 0x6C7 DUP3 PUSH2 0x686 JUMP JUMPDEST PUSH1 0x20 DUP3 ADD SWAP1 POP SWAP2 SWAP1 POP JUMP JUMPDEST PUSH1 0x0 PUSH1 0x20 DUP3 ADD SWAP1 POP DUP2 DUP2 SUB PUSH1 0x0 DUP4 ADD MSTORE PUSH2 0x6EB DUP2 PUSH2 0x6AF JUMP JUMPDEST SWAP1 POP SWAP2 SWAP1 POP JUMP JUMPDEST PUSH32 0x20417267756D656E7473206E6F7420636F727265637400000000000000000000 PUSH1 0x0 DUP3 ADD MSTORE POP JUMP JUMPDEST PUSH1 0x0 PUSH2 0x728 PUSH1 0x16 DUP4 PUSH2 0x675 JUMP JUMPDEST SWAP2 POP PUSH2 0x733 DUP3 PUSH2 0x6F2 JUMP JUMPDEST PUSH1 0x20 DUP3 ADD SWAP1 POP SWAP2 SWAP1 POP JUMP JUMPDEST PUSH1 0x0 PUSH1 0x20 DUP3 ADD SWAP1 POP DUP2 DUP2 SUB PUSH1 0x0 DUP4 ADD MSTORE PUSH2 0x757 DUP2 PUSH2 0x71B JUMP JUMPDEST SWAP1 POP SWAP2 SWAP1 POP JUMP JUMPDEST PUSH32 0x536563726574206B6579206469646E2774206D61746368656400000000000000 PUSH1 0x0 DUP3 ADD MSTORE POP JUMP JUMPDEST PUSH1 0x0 PUSH2 0x794 PUSH1 0x19 DUP4 PUSH2 0x675 JUMP JUMPDEST SWAP2 POP PUSH2 0x79F DUP3 PUSH2 0x75E JUMP JUMPDEST PUSH1 0x20 DUP3 ADD SWAP1 POP SWAP2 SWAP1 POP JUMP JUMPDEST PUSH1 0x0 PUSH1 0x20 DUP3 ADD SWAP1 POP DUP2 DUP2 SUB PUSH1 0x0 DUP4 ADD MSTORE PUSH2 0x7C3 DUP2 PUSH2 0x787 JUMP JUMPDEST SWAP1 POP SWAP2 SWAP1 POP JUMP JUMPDEST PUSH1 0x0 PUSH2 0x7D5 DUP3 PUSH2 0x510 JUMP JUMPDEST SWAP2 POP PUSH2 0x7E0 DUP4 PUSH2 0x510 JUMP JUMPDEST SWAP3 POP DUP3 DUP3 LT ISZERO PUSH2 0x7F3 JUMPI PUSH2 0x7F2 PUSH2 0x5F0 JUMP JUMPDEST JUMPDEST DUP3 DUP3 SUB SWAP1 POP SWAP3 SWAP2 POP POP JUMP INVALID LOG2 PUSH5 0x6970667358 0x22 SLT KECCAK256 EXP 0x5E EXTCODESIZE BYTE MSTORE 0xCE SHL 0xC1 0xA7 0xBF OR BYTE GASLIMIT DUP12 0x29 0xCB NOT 0xB1 SWAP2 0xD2 0xD1 ADDMOD POP 0xDB SWAP8 RETURNDATASIZE DIFFICULTY 0x24 PUSH19 0x86DEC264736F6C634300080900330000000000 "
				},
				"gasEstimates": {
					"creation": {
						"codeDepositCost": "420000",
						"executionCost": "22561",
						"totalCost": "442561"
					},
					"external": {
						"deposit(address,uint256)": "infinite",
						"openAccount(uint256,uint256)": "infinite",
						"withDraw(uint256,uint256)": "infinite"
					}
				},
				"methodIdentifiers": {
					"deposit(address,uint256)": "47e7ef24",
					"openAccount(uint256,uint256)": "d0ffcab3",
					"withDraw(uint256,uint256)": "d8b6e79a"
				}
			},
			"storageLayout": {
				"storage": [
					{
						"astId": 4,
						"contract": "ActualBank.sol:ActualBank",
						"label": "minAccountBalance",
						"offset": 0,
						"slot": "0",
						"type": "t_uint256"
					},
					{
						"astId": 8,
						"contract": "ActualBank.sol:ActualBank",
						"label": "balance",
						"offset": 0,
						"slot": "1",
						"type": "t_mapping(t_address,t_uint256)"
					},
					{
						"astId": 12,
						"contract": "ActualBank.sol:ActualBank",
						"label": "secretKey",
						"offset": 0,
						"slot": "2",
						"type": "t_mapping(t_address,t_uint256)"
					}
				],
				"types": {
					"t_address": {
						"encoding": "inplace",
						"label": "address",
						"numberOfBytes": "20"
					},
					"t_mapping(t_address,t_uint256)": {
						"encoding": "mapping",
						"key": "t_address",
						"label": "mapping(address => uint256)",
						"numberOfBytes": "32",
						"value": "t_uint256"
					},
					"t_uint256": {
						"encoding": "inplace",
						"label": "uint256",
						"numberOfBytes": "32"
					}
				}
			},
			"userdoc": {
				"kind": "user",
				"methods": {},
				"version": 1
			}
		}
	}
}