{
	"SimpleAuction.sol": {
		"simpleAuction": {
			"abi": [
				{
					"anonymous": false,
					"inputs": [
						{
							"indexed": false,
							"internalType": "address",
							"name": "topBider",
							"type": "address"
						},
						{
							"indexed": false,
							"internalType": "uint256",
							"name": "topBid",
							"type": "uint256"
						}
					],
					"name": "auctionClosed",
					"type": "event"
				},
				{
					"anonymous": false,
					"inputs": [
						{
							"indexed": false,
							"internalType": "address",
							"name": "auctionOwner",
							"type": "address"
						},
						{
							"indexed": false,
							"internalType": "uint256",
							"name": "startPrice",
							"type": "uint256"
						}
					],
					"name": "auctionStarted",
					"type": "event"
				},
				{
					"anonymous": false,
					"inputs": [
						{
							"indexed": false,
							"internalType": "address",
							"name": "bidder",
							"type": "address"
						},
						{
							"indexed": false,
							"internalType": "uint256",
							"name": "bidAmount",
							"type": "uint256"
						}
					],
					"name": "bidPlaced",
					"type": "event"
				},
				{
					"inputs": [],
					"name": "cancelAuction",
					"outputs": [],
					"stateMutability": "nonpayable",
					"type": "function"
				},
				{
					"inputs": [],
					"name": "placeBid",
					"outputs": [],
					"stateMutability": "payable",
					"type": "function"
				},
				{
					"inputs": [
						{
							"internalType": "uint256",
							"name": "_auctionStartPrice",
							"type": "uint256"
						},
						{
							"internalType": "uint256",
							"name": "_auctionTime",
							"type": "uint256"
						}
					],
					"name": "startAuction",
					"outputs": [],
					"stateMutability": "nonpayable",
					"type": "function"
				},
				{
					"inputs": [],
					"name": "topBid",
					"outputs": [
						{
							"internalType": "uint256",
							"name": "",
							"type": "uint256"
						}
					],
					"stateMutability": "view",
					"type": "function"
				},
				{
					"inputs": [],
					"name": "topBidder",
					"outputs": [
						{
							"internalType": "address",
							"name": "",
							"type": "address"
						}
					],
					"stateMutability": "view",
					"type": "function"
				},
				{
					"inputs": [],
					"name": "withDrawBid",
					"outputs": [
						{
							"internalType": "bool",
							"name": "",
							"type": "bool"
						}
					],
					"stateMutability": "nonpayable",
					"type": "function"
				}
			],
			"devdoc": {
				"kind": "dev",
				"methods": {},
				"version": 1
			},
			"evm": {
				"assembly": "    /* \"SimpleAuction.sol\":71:1844  contract simpleAuction{... */\n  mstore(0x40, 0x80)\n    /* \"SimpleAuction.sol\":118:123  false */\n  0x00\n    /* \"SimpleAuction.sol\":99:123  bool AuctionClosed=false */\n  dup1\n  exp(0x0100, 0x00)\n  dup2\n  sload\n  dup2\n  0xff\n  mul\n  not\n  and\n  swap1\n  dup4\n  iszero\n  iszero\n  mul\n  or\n  swap1\n  sstore\n  pop\n    /* \"SimpleAuction.sol\":184:185  0 */\n  0x00\n    /* \"SimpleAuction.sol\":163:185  uint256 topBidAmount=0 */\n  0x01\n  sstore\n    /* \"SimpleAuction.sol\":71:1844  contract simpleAuction{... */\n  callvalue\n  dup1\n  iszero\n  tag_1\n  jumpi\n  0x00\n  dup1\n  revert\ntag_1:\n  pop\n  dataSize(sub_0)\n  dup1\n  dataOffset(sub_0)\n  0x00\n  codecopy\n  0x00\n  return\nstop\n\nsub_0: assembly {\n        /* \"SimpleAuction.sol\":71:1844  contract simpleAuction{... */\n      mstore(0x40, 0x80)\n      jumpi(tag_1, lt(calldatasize, 0x04))\n      shr(0xe0, calldataload(0x00))\n      dup1\n      0x01333f06\n      eq\n      tag_2\n      jumpi\n      dup1\n      0x4fee13fc\n      eq\n      tag_3\n      jumpi\n      dup1\n      0x636bf730\n      eq\n      tag_4\n      jumpi\n      dup1\n      0x8fa8b790\n      eq\n      tag_5\n      jumpi\n      dup1\n      0xecfc7ecc\n      eq\n      tag_6\n      jumpi\n      dup1\n      0xfde8c63e\n      eq\n      tag_7\n      jumpi\n    tag_1:\n      0x00\n      dup1\n      revert\n        /* \"SimpleAuction.sol\":247:271  address public topBidder */\n    tag_2:\n      callvalue\n      dup1\n      iszero\n      tag_8\n      jumpi\n      0x00\n      dup1\n      revert\n    tag_8:\n      pop\n      tag_9\n      tag_10\n      jump\t// in\n    tag_9:\n      mload(0x40)\n      tag_11\n      swap2\n      swap1\n      tag_12\n      jump\t// in\n    tag_11:\n      mload(0x40)\n      dup1\n      swap2\n      sub\n      swap1\n      return\n        /* \"SimpleAuction.sol\":540:855  function startAuction(uint256 _auctionStartPrice, uint256 _auctionTime) public {... */\n    tag_3:\n      callvalue\n      dup1\n      iszero\n      tag_13\n      jumpi\n      0x00\n      dup1\n      revert\n    tag_13:\n      pop\n      tag_14\n      0x04\n      dup1\n      calldatasize\n      sub\n      dup2\n      add\n      swap1\n      tag_15\n      swap2\n      swap1\n      tag_16\n      jump\t// in\n    tag_15:\n      tag_17\n      jump\t// in\n    tag_14:\n      stop\n        /* \"SimpleAuction.sol\":277:298  uint256 public topBid */\n    tag_4:\n      callvalue\n      dup1\n      iszero\n      tag_18\n      jumpi\n      0x00\n      dup1\n      revert\n    tag_18:\n      pop\n      tag_19\n      tag_20\n      jump\t// in\n    tag_19:\n      mload(0x40)\n      tag_21\n      swap2\n      swap1\n      tag_22\n      jump\t// in\n    tag_21:\n      mload(0x40)\n      dup1\n      swap2\n      sub\n      swap1\n      return\n        /* \"SimpleAuction.sol\":1246:1492  function cancelAuction() public {... */\n    tag_5:\n      callvalue\n      dup1\n      iszero\n      tag_23\n      jumpi\n      0x00\n      dup1\n      revert\n    tag_23:\n      pop\n      tag_24\n      tag_25\n      jump\t// in\n    tag_24:\n      stop\n        /* \"SimpleAuction.sol\":862:1240  function placeBid() public payable{... */\n    tag_6:\n      tag_26\n      tag_27\n      jump\t// in\n    tag_26:\n      stop\n        /* \"SimpleAuction.sol\":1497:1841  function withDrawBid() public returns(bool){... */\n    tag_7:\n      callvalue\n      dup1\n      iszero\n      tag_28\n      jumpi\n      0x00\n      dup1\n      revert\n    tag_28:\n      pop\n      tag_29\n      tag_30\n      jump\t// in\n    tag_29:\n      mload(0x40)\n      tag_31\n      swap2\n      swap1\n      tag_32\n      jump\t// in\n    tag_31:\n      mload(0x40)\n      dup1\n      swap2\n      sub\n      swap1\n      return\n        /* \"SimpleAuction.sol\":247:271  address public topBidder */\n    tag_10:\n      0x04\n      0x00\n      swap1\n      sload\n      swap1\n      0x0100\n      exp\n      swap1\n      div\n      0xffffffffffffffffffffffffffffffffffffffff\n      and\n      dup2\n      jump\t// out\n        /* \"SimpleAuction.sol\":540:855  function startAuction(uint256 _auctionStartPrice, uint256 _auctionTime) public {... */\n    tag_17:\n        /* \"SimpleAuction.sol\":651:661  msg.sender */\n      caller\n        /* \"SimpleAuction.sol\":629:641  auctionOwner */\n      0x00\n      0x01\n        /* \"SimpleAuction.sol\":629:662  auctionOwner= payable(msg.sender) */\n      0x0100\n      exp\n      dup2\n      sload\n      dup2\n      0xffffffffffffffffffffffffffffffffffffffff\n      mul\n      not\n      and\n      swap1\n      dup4\n      0xffffffffffffffffffffffffffffffffffffffff\n      and\n      mul\n      or\n      swap1\n      sstore\n      pop\n        /* \"SimpleAuction.sol\":686:691  false */\n      0x00\n        /* \"SimpleAuction.sol\":672:685  AuctionClosed */\n      dup1\n      0x00\n        /* \"SimpleAuction.sol\":672:691  AuctionClosed=false */\n      0x0100\n      exp\n      dup2\n      sload\n      dup2\n      0xff\n      mul\n      not\n      and\n      swap1\n      dup4\n      iszero\n      iszero\n      mul\n      or\n      swap1\n      sstore\n      pop\n        /* \"SimpleAuction.sol\":719:737  _auctionStartPrice */\n      dup2\n        /* \"SimpleAuction.sol\":701:718  auctionStartPrice */\n      0x02\n        /* \"SimpleAuction.sol\":701:737  auctionStartPrice=_auctionStartPrice */\n      dup2\n      swap1\n      sstore\n      pop\n        /* \"SimpleAuction.sol\":775:787  _auctionTime */\n      dup1\n        /* \"SimpleAuction.sol\":759:774  block.timestamp */\n      timestamp\n        /* \"SimpleAuction.sol\":759:787  block.timestamp+_auctionTime */\n      tag_34\n      swap2\n      swap1\n      tag_35\n      jump\t// in\n    tag_34:\n        /* \"SimpleAuction.sol\":747:758  auctionTime */\n      0x03\n        /* \"SimpleAuction.sol\":747:787  auctionTime=block.timestamp+_auctionTime */\n      dup2\n      swap1\n      sstore\n      pop\n        /* \"SimpleAuction.sol\":802:848  auctionStarted(auctionOwner,auctionStartPrice) */\n      0x1e6871a9ec2c22e508757c73d7e2d7d15e2819276867174afb13fcdc9f018df2\n        /* \"SimpleAuction.sol\":817:829  auctionOwner */\n      0x00\n      0x01\n      swap1\n      sload\n      swap1\n      0x0100\n      exp\n      swap1\n      div\n      0xffffffffffffffffffffffffffffffffffffffff\n      and\n        /* \"SimpleAuction.sol\":830:847  auctionStartPrice */\n      sload(0x02)\n        /* \"SimpleAuction.sol\":802:848  auctionStarted(auctionOwner,auctionStartPrice) */\n      mload(0x40)\n      tag_36\n      swap3\n      swap2\n      swap1\n      tag_37\n      jump\t// in\n    tag_36:\n      mload(0x40)\n      dup1\n      swap2\n      sub\n      swap1\n      log1\n        /* \"SimpleAuction.sol\":540:855  function startAuction(uint256 _auctionStartPrice, uint256 _auctionTime) public {... */\n      pop\n      pop\n      jump\t// out\n        /* \"SimpleAuction.sol\":277:298  uint256 public topBid */\n    tag_20:\n      sload(0x05)\n      dup2\n      jump\t// out\n        /* \"SimpleAuction.sol\":1246:1492  function cancelAuction() public {... */\n    tag_25:\n        /* \"SimpleAuction.sol\":1310:1322  auctionOwner */\n      0x00\n      0x01\n      swap1\n      sload\n      swap1\n      0x0100\n      exp\n      swap1\n      div\n      0xffffffffffffffffffffffffffffffffffffffff\n      and\n        /* \"SimpleAuction.sol\":1296:1322  msg.sender == auctionOwner */\n      0xffffffffffffffffffffffffffffffffffffffff\n      and\n        /* \"SimpleAuction.sol\":1296:1306  msg.sender */\n      caller\n        /* \"SimpleAuction.sol\":1296:1322  msg.sender == auctionOwner */\n      0xffffffffffffffffffffffffffffffffffffffff\n      and\n      eq\n        /* \"SimpleAuction.sol\":1288:1323  require(msg.sender == auctionOwner) */\n      tag_39\n      jumpi\n      0x00\n      dup1\n      revert\n    tag_39:\n        /* \"SimpleAuction.sol\":1360:1371  auctionTime */\n      sload(0x03)\n        /* \"SimpleAuction.sol\":1341:1356  block.timestamp */\n      timestamp\n        /* \"SimpleAuction.sol\":1341:1371  block.timestamp >= auctionTime */\n      lt\n      iszero\n        /* \"SimpleAuction.sol\":1333:1372  require(block.timestamp >= auctionTime) */\n      tag_40\n      jumpi\n      0x00\n      dup1\n      revert\n    tag_40:\n        /* \"SimpleAuction.sol\":1396:1400  true */\n      0x01\n        /* \"SimpleAuction.sol\":1382:1395  AuctionClosed */\n      0x00\n      dup1\n        /* \"SimpleAuction.sol\":1382:1400  AuctionClosed=true */\n      0x0100\n      exp\n      dup2\n      sload\n      dup2\n      0xff\n      mul\n      not\n      and\n      swap1\n      dup4\n      iszero\n      iszero\n      mul\n      or\n      swap1\n      sstore\n      pop\n        /* \"SimpleAuction.sol\":1415:1446  auctionClosed(topBidder,topBid) */\n      0x0693fe466dadf29e4700c29f41d1504c602b944fa5e6b5f1cb0a3a2ca0702120\n        /* \"SimpleAuction.sol\":1429:1438  topBidder */\n      0x04\n      0x00\n      swap1\n      sload\n      swap1\n      0x0100\n      exp\n      swap1\n      div\n      0xffffffffffffffffffffffffffffffffffffffff\n      and\n        /* \"SimpleAuction.sol\":1439:1445  topBid */\n      sload(0x05)\n        /* \"SimpleAuction.sol\":1415:1446  auctionClosed(topBidder,topBid) */\n      mload(0x40)\n      tag_41\n      swap3\n      swap2\n      swap1\n      tag_42\n      jump\t// in\n    tag_41:\n      mload(0x40)\n      dup1\n      swap2\n      sub\n      swap1\n      log1\n        /* \"SimpleAuction.sol\":1456:1468  auctionOwner */\n      0x00\n      0x01\n      swap1\n      sload\n      swap1\n      0x0100\n      exp\n      swap1\n      div\n      0xffffffffffffffffffffffffffffffffffffffff\n      and\n        /* \"SimpleAuction.sol\":1456:1477  auctionOwner.transfer */\n      0xffffffffffffffffffffffffffffffffffffffff\n      and\n        /* \"SimpleAuction.sol\":1456:1485  auctionOwner.transfer(topBid) */\n      0x08fc\n        /* \"SimpleAuction.sol\":1478:1484  topBid */\n      sload(0x05)\n        /* \"SimpleAuction.sol\":1456:1485  auctionOwner.transfer(topBid) */\n      swap1\n      dup2\n      iszero\n      mul\n      swap1\n      mload(0x40)\n      0x00\n      mload(0x40)\n      dup1\n      dup4\n      sub\n      dup2\n      dup6\n      dup9\n      dup9\n      call\n      swap4\n      pop\n      pop\n      pop\n      pop\n      iszero\n      dup1\n      iszero\n      tag_44\n      jumpi\n      returndatasize\n      0x00\n      dup1\n      returndatacopy\n      revert(0x00, returndatasize)\n    tag_44:\n      pop\n        /* \"SimpleAuction.sol\":1246:1492  function cancelAuction() public {... */\n      jump\t// out\n        /* \"SimpleAuction.sol\":862:1240  function placeBid() public payable{... */\n    tag_27:\n        /* \"SimpleAuction.sol\":926:938  topBidAmount */\n      sload(0x01)\n        /* \"SimpleAuction.sol\":914:923  msg.value */\n      callvalue\n        /* \"SimpleAuction.sol\":914:938  msg.value > topBidAmount */\n      gt\n        /* \"SimpleAuction.sol\":906:981  require(msg.value > topBidAmount,\"You have placed low bid than top bidder\") */\n      tag_46\n      jumpi\n      mload(0x40)\n      0x08c379a000000000000000000000000000000000000000000000000000000000\n      dup2\n      mstore\n      0x04\n      add\n      tag_47\n      swap1\n      tag_48\n      jump\t// in\n    tag_47:\n      mload(0x40)\n      dup1\n      swap2\n      sub\n      swap1\n      revert\n    tag_46:\n        /* \"SimpleAuction.sol\":1013:1028  block.timestamp */\n      timestamp\n        /* \"SimpleAuction.sol\":999:1010  auctionTime */\n      sload(0x03)\n        /* \"SimpleAuction.sol\":999:1028  auctionTime > block.timestamp */\n      gt\n        /* \"SimpleAuction.sol\":991:1050  require(auctionTime > block.timestamp,\"Auction time ended\") */\n      tag_49\n      jumpi\n      mload(0x40)\n      0x08c379a000000000000000000000000000000000000000000000000000000000\n      dup2\n      mstore\n      0x04\n      add\n      tag_50\n      swap1\n      tag_51\n      jump\t// in\n    tag_50:\n      mload(0x40)\n      dup1\n      swap2\n      sub\n      swap1\n      revert\n    tag_49:\n        /* \"SimpleAuction.sol\":1072:1073  0 */\n      0x00\n        /* \"SimpleAuction.sol\":1063:1069  topBid */\n      sload(0x05)\n        /* \"SimpleAuction.sol\":1063:1073  topBid !=0 */\n      eq\n        /* \"SimpleAuction.sol\":1060:1132  if(topBid !=0 ){... */\n      tag_52\n      jumpi\n        /* \"SimpleAuction.sol\":1115:1121  topBid */\n      sload(0x05)\n        /* \"SimpleAuction.sol\":1089:1103  pendingReturns */\n      0x06\n        /* \"SimpleAuction.sol\":1089:1114  pendingReturns[topBidder] */\n      0x00\n        /* \"SimpleAuction.sol\":1104:1113  topBidder */\n      0x04\n      0x00\n      swap1\n      sload\n      swap1\n      0x0100\n      exp\n      swap1\n      div\n      0xffffffffffffffffffffffffffffffffffffffff\n      and\n        /* \"SimpleAuction.sol\":1089:1114  pendingReturns[topBidder] */\n      0xffffffffffffffffffffffffffffffffffffffff\n      and\n      0xffffffffffffffffffffffffffffffffffffffff\n      and\n      dup2\n      mstore\n      0x20\n      add\n      swap1\n      dup2\n      mstore\n      0x20\n      add\n      0x00\n      keccak256\n        /* \"SimpleAuction.sol\":1089:1121  pendingReturns[topBidder]=topBid */\n      dup2\n      swap1\n      sstore\n      pop\n        /* \"SimpleAuction.sol\":1060:1132  if(topBid !=0 ){... */\n    tag_52:\n        /* \"SimpleAuction.sol\":1151:1161  msg.sender */\n      caller\n        /* \"SimpleAuction.sol\":1141:1150  topBidder */\n      0x04\n      0x00\n        /* \"SimpleAuction.sol\":1141:1161  topBidder=msg.sender */\n      0x0100\n      exp\n      dup2\n      sload\n      dup2\n      0xffffffffffffffffffffffffffffffffffffffff\n      mul\n      not\n      and\n      swap1\n      dup4\n      0xffffffffffffffffffffffffffffffffffffffff\n      and\n      mul\n      or\n      swap1\n      sstore\n      pop\n        /* \"SimpleAuction.sol\":1178:1187  msg.value */\n      callvalue\n        /* \"SimpleAuction.sol\":1171:1177  topBid */\n      0x05\n        /* \"SimpleAuction.sol\":1171:1187  topBid=msg.value */\n      dup2\n      swap1\n      sstore\n      pop\n        /* \"SimpleAuction.sol\":1202:1233  bidPlaced(msg.sender,msg.value) */\n      0xf7d2dbe81680a1f0c2b9aaeb63d4184de5c64951ba06bf1b5900341760775a22\n        /* \"SimpleAuction.sol\":1212:1222  msg.sender */\n      caller\n        /* \"SimpleAuction.sol\":1223:1232  msg.value */\n      callvalue\n        /* \"SimpleAuction.sol\":1202:1233  bidPlaced(msg.sender,msg.value) */\n      mload(0x40)\n      tag_53\n      swap3\n      swap2\n      swap1\n      tag_42\n      jump\t// in\n    tag_53:\n      mload(0x40)\n      dup1\n      swap2\n      sub\n      swap1\n      log1\n        /* \"SimpleAuction.sol\":862:1240  function placeBid() public payable{... */\n      jump\t// out\n        /* \"SimpleAuction.sol\":1497:1841  function withDrawBid() public returns(bool){... */\n    tag_30:\n        /* \"SimpleAuction.sol\":1535:1539  bool */\n      0x00\n        /* \"SimpleAuction.sol\":1575:1586  auctionTime */\n      sload(0x03)\n        /* \"SimpleAuction.sol\":1558:1573  block.timestamp */\n      timestamp\n        /* \"SimpleAuction.sol\":1558:1586  block.timestamp>=auctionTime */\n      lt\n      iszero\n        /* \"SimpleAuction.sol\":1550:1587  require(block.timestamp>=auctionTime) */\n      tag_55\n      jumpi\n      0x00\n      dup1\n      revert\n    tag_55:\n        /* \"SimpleAuction.sol\":1597:1619  uint256 withDrawAmount */\n      0x00\n        /* \"SimpleAuction.sol\":1621:1635  pendingReturns */\n      0x06\n        /* \"SimpleAuction.sol\":1621:1647  pendingReturns[msg.sender] */\n      0x00\n        /* \"SimpleAuction.sol\":1636:1646  msg.sender */\n      caller\n        /* \"SimpleAuction.sol\":1621:1647  pendingReturns[msg.sender] */\n      0xffffffffffffffffffffffffffffffffffffffff\n      and\n      0xffffffffffffffffffffffffffffffffffffffff\n      and\n      dup2\n      mstore\n      0x20\n      add\n      swap1\n      dup2\n      mstore\n      0x20\n      add\n      0x00\n      keccak256\n      sload\n        /* \"SimpleAuction.sol\":1597:1647  uint256 withDrawAmount= pendingReturns[msg.sender] */\n      swap1\n      pop\n        /* \"SimpleAuction.sol\":1675:1676  0 */\n      0x00\n        /* \"SimpleAuction.sol\":1660:1674  withDrawAmount */\n      dup2\n        /* \"SimpleAuction.sol\":1660:1676  withDrawAmount>0 */\n      gt\n        /* \"SimpleAuction.sol\":1657:1813  if(withDrawAmount>0){... */\n      iszero\n      tag_56\n      jumpi\n        /* \"SimpleAuction.sol\":1699:1709  msg.sender */\n      caller\n        /* \"SimpleAuction.sol\":1691:1719  payable(msg.sender).transfer */\n      0xffffffffffffffffffffffffffffffffffffffff\n      and\n        /* \"SimpleAuction.sol\":1691:1735  payable(msg.sender).transfer(withDrawAmount) */\n      0x08fc\n        /* \"SimpleAuction.sol\":1720:1734  withDrawAmount */\n      dup3\n        /* \"SimpleAuction.sol\":1691:1735  payable(msg.sender).transfer(withDrawAmount) */\n      swap1\n      dup2\n      iszero\n      mul\n      swap1\n      mload(0x40)\n      0x00\n      mload(0x40)\n      dup1\n      dup4\n      sub\n      dup2\n      dup6\n      dup9\n      dup9\n      call\n      swap4\n      pop\n      pop\n      pop\n      pop\n      iszero\n      dup1\n      iszero\n      tag_58\n      jumpi\n      returndatasize\n      0x00\n      dup1\n      returndatacopy\n      revert(0x00, returndatasize)\n    tag_58:\n      pop\n        /* \"SimpleAuction.sol\":1776:1777  0 */\n      0x00\n        /* \"SimpleAuction.sol\":1749:1763  pendingReturns */\n      0x06\n        /* \"SimpleAuction.sol\":1749:1775  pendingReturns[msg.sender] */\n      0x00\n        /* \"SimpleAuction.sol\":1764:1774  msg.sender */\n      caller\n        /* \"SimpleAuction.sol\":1749:1775  pendingReturns[msg.sender] */\n      0xffffffffffffffffffffffffffffffffffffffff\n      and\n      0xffffffffffffffffffffffffffffffffffffffff\n      and\n      dup2\n      mstore\n      0x20\n      add\n      swap1\n      dup2\n      mstore\n      0x20\n      add\n      0x00\n      keccak256\n        /* \"SimpleAuction.sol\":1749:1777  pendingReturns[msg.sender]=0 */\n      dup2\n      swap1\n      sstore\n      pop\n        /* \"SimpleAuction.sol\":1798:1802  true */\n      0x01\n        /* \"SimpleAuction.sol\":1791:1802  return true */\n      swap2\n      pop\n      pop\n      jump(tag_54)\n        /* \"SimpleAuction.sol\":1657:1813  if(withDrawAmount>0){... */\n    tag_56:\n        /* \"SimpleAuction.sol\":1829:1834  false */\n      0x00\n        /* \"SimpleAuction.sol\":1822:1834  return false */\n      swap2\n      pop\n      pop\n        /* \"SimpleAuction.sol\":1497:1841  function withDrawBid() public returns(bool){... */\n    tag_54:\n      swap1\n      jump\t// out\n        /* \"#utility.yul\":7:133   */\n    tag_59:\n        /* \"#utility.yul\":44:51   */\n      0x00\n        /* \"#utility.yul\":84:126   */\n      0xffffffffffffffffffffffffffffffffffffffff\n        /* \"#utility.yul\":77:82   */\n      dup3\n        /* \"#utility.yul\":73:127   */\n      and\n        /* \"#utility.yul\":62:127   */\n      swap1\n      pop\n        /* \"#utility.yul\":7:133   */\n      swap2\n      swap1\n      pop\n      jump\t// out\n        /* \"#utility.yul\":139:235   */\n    tag_60:\n        /* \"#utility.yul\":176:183   */\n      0x00\n        /* \"#utility.yul\":205:229   */\n      tag_85\n        /* \"#utility.yul\":223:228   */\n      dup3\n        /* \"#utility.yul\":205:229   */\n      tag_59\n      jump\t// in\n    tag_85:\n        /* \"#utility.yul\":194:229   */\n      swap1\n      pop\n        /* \"#utility.yul\":139:235   */\n      swap2\n      swap1\n      pop\n      jump\t// out\n        /* \"#utility.yul\":241:359   */\n    tag_61:\n        /* \"#utility.yul\":328:352   */\n      tag_87\n        /* \"#utility.yul\":346:351   */\n      dup2\n        /* \"#utility.yul\":328:352   */\n      tag_60\n      jump\t// in\n    tag_87:\n        /* \"#utility.yul\":323:326   */\n      dup3\n        /* \"#utility.yul\":316:353   */\n      mstore\n        /* \"#utility.yul\":241:359   */\n      pop\n      pop\n      jump\t// out\n        /* \"#utility.yul\":365:587   */\n    tag_12:\n        /* \"#utility.yul\":458:462   */\n      0x00\n        /* \"#utility.yul\":496:498   */\n      0x20\n        /* \"#utility.yul\":485:494   */\n      dup3\n        /* \"#utility.yul\":481:499   */\n      add\n        /* \"#utility.yul\":473:499   */\n      swap1\n      pop\n        /* \"#utility.yul\":509:580   */\n      tag_89\n        /* \"#utility.yul\":577:578   */\n      0x00\n        /* \"#utility.yul\":566:575   */\n      dup4\n        /* \"#utility.yul\":562:579   */\n      add\n        /* \"#utility.yul\":553:559   */\n      dup5\n        /* \"#utility.yul\":509:580   */\n      tag_61\n      jump\t// in\n    tag_89:\n        /* \"#utility.yul\":365:587   */\n      swap3\n      swap2\n      pop\n      pop\n      jump\t// out\n        /* \"#utility.yul\":674:791   */\n    tag_63:\n        /* \"#utility.yul\":783:784   */\n      0x00\n        /* \"#utility.yul\":780:781   */\n      dup1\n        /* \"#utility.yul\":773:785   */\n      revert\n        /* \"#utility.yul\":920:997   */\n    tag_65:\n        /* \"#utility.yul\":957:964   */\n      0x00\n        /* \"#utility.yul\":986:991   */\n      dup2\n        /* \"#utility.yul\":975:991   */\n      swap1\n      pop\n        /* \"#utility.yul\":920:997   */\n      swap2\n      swap1\n      pop\n      jump\t// out\n        /* \"#utility.yul\":1003:1125   */\n    tag_66:\n        /* \"#utility.yul\":1076:1100   */\n      tag_95\n        /* \"#utility.yul\":1094:1099   */\n      dup2\n        /* \"#utility.yul\":1076:1100   */\n      tag_65\n      jump\t// in\n    tag_95:\n        /* \"#utility.yul\":1069:1074   */\n      dup2\n        /* \"#utility.yul\":1066:1101   */\n      eq\n        /* \"#utility.yul\":1056:1119   */\n      tag_96\n      jumpi\n        /* \"#utility.yul\":1115:1116   */\n      0x00\n        /* \"#utility.yul\":1112:1113   */\n      dup1\n        /* \"#utility.yul\":1105:1117   */\n      revert\n        /* \"#utility.yul\":1056:1119   */\n    tag_96:\n        /* \"#utility.yul\":1003:1125   */\n      pop\n      jump\t// out\n        /* \"#utility.yul\":1131:1270   */\n    tag_67:\n        /* \"#utility.yul\":1177:1182   */\n      0x00\n        /* \"#utility.yul\":1215:1221   */\n      dup2\n        /* \"#utility.yul\":1202:1222   */\n      calldataload\n        /* \"#utility.yul\":1193:1222   */\n      swap1\n      pop\n        /* \"#utility.yul\":1231:1264   */\n      tag_98\n        /* \"#utility.yul\":1258:1263   */\n      dup2\n        /* \"#utility.yul\":1231:1264   */\n      tag_66\n      jump\t// in\n    tag_98:\n        /* \"#utility.yul\":1131:1270   */\n      swap3\n      swap2\n      pop\n      pop\n      jump\t// out\n        /* \"#utility.yul\":1276:1750   */\n    tag_16:\n        /* \"#utility.yul\":1344:1350   */\n      0x00\n        /* \"#utility.yul\":1352:1358   */\n      dup1\n        /* \"#utility.yul\":1401:1403   */\n      0x40\n        /* \"#utility.yul\":1389:1398   */\n      dup4\n        /* \"#utility.yul\":1380:1387   */\n      dup6\n        /* \"#utility.yul\":1376:1399   */\n      sub\n        /* \"#utility.yul\":1372:1404   */\n      slt\n        /* \"#utility.yul\":1369:1488   */\n      iszero\n      tag_100\n      jumpi\n        /* \"#utility.yul\":1407:1486   */\n      tag_101\n      tag_63\n      jump\t// in\n    tag_101:\n        /* \"#utility.yul\":1369:1488   */\n    tag_100:\n        /* \"#utility.yul\":1527:1528   */\n      0x00\n        /* \"#utility.yul\":1552:1605   */\n      tag_102\n        /* \"#utility.yul\":1597:1604   */\n      dup6\n        /* \"#utility.yul\":1588:1594   */\n      dup3\n        /* \"#utility.yul\":1577:1586   */\n      dup7\n        /* \"#utility.yul\":1573:1595   */\n      add\n        /* \"#utility.yul\":1552:1605   */\n      tag_67\n      jump\t// in\n    tag_102:\n        /* \"#utility.yul\":1542:1605   */\n      swap3\n      pop\n        /* \"#utility.yul\":1498:1615   */\n      pop\n        /* \"#utility.yul\":1654:1656   */\n      0x20\n        /* \"#utility.yul\":1680:1733   */\n      tag_103\n        /* \"#utility.yul\":1725:1732   */\n      dup6\n        /* \"#utility.yul\":1716:1722   */\n      dup3\n        /* \"#utility.yul\":1705:1714   */\n      dup7\n        /* \"#utility.yul\":1701:1723   */\n      add\n        /* \"#utility.yul\":1680:1733   */\n      tag_67\n      jump\t// in\n    tag_103:\n        /* \"#utility.yul\":1670:1733   */\n      swap2\n      pop\n        /* \"#utility.yul\":1625:1743   */\n      pop\n        /* \"#utility.yul\":1276:1750   */\n      swap3\n      pop\n      swap3\n      swap1\n      pop\n      jump\t// out\n        /* \"#utility.yul\":1756:1874   */\n    tag_68:\n        /* \"#utility.yul\":1843:1867   */\n      tag_105\n        /* \"#utility.yul\":1861:1866   */\n      dup2\n        /* \"#utility.yul\":1843:1867   */\n      tag_65\n      jump\t// in\n    tag_105:\n        /* \"#utility.yul\":1838:1841   */\n      dup3\n        /* \"#utility.yul\":1831:1868   */\n      mstore\n        /* \"#utility.yul\":1756:1874   */\n      pop\n      pop\n      jump\t// out\n        /* \"#utility.yul\":1880:2102   */\n    tag_22:\n        /* \"#utility.yul\":1973:1977   */\n      0x00\n        /* \"#utility.yul\":2011:2013   */\n      0x20\n        /* \"#utility.yul\":2000:2009   */\n      dup3\n        /* \"#utility.yul\":1996:2014   */\n      add\n        /* \"#utility.yul\":1988:2014   */\n      swap1\n      pop\n        /* \"#utility.yul\":2024:2095   */\n      tag_107\n        /* \"#utility.yul\":2092:2093   */\n      0x00\n        /* \"#utility.yul\":2081:2090   */\n      dup4\n        /* \"#utility.yul\":2077:2094   */\n      add\n        /* \"#utility.yul\":2068:2074   */\n      dup5\n        /* \"#utility.yul\":2024:2095   */\n      tag_68\n      jump\t// in\n    tag_107:\n        /* \"#utility.yul\":1880:2102   */\n      swap3\n      swap2\n      pop\n      pop\n      jump\t// out\n        /* \"#utility.yul\":2108:2198   */\n    tag_69:\n        /* \"#utility.yul\":2142:2149   */\n      0x00\n        /* \"#utility.yul\":2185:2190   */\n      dup2\n        /* \"#utility.yul\":2178:2191   */\n      iszero\n        /* \"#utility.yul\":2171:2192   */\n      iszero\n        /* \"#utility.yul\":2160:2192   */\n      swap1\n      pop\n        /* \"#utility.yul\":2108:2198   */\n      swap2\n      swap1\n      pop\n      jump\t// out\n        /* \"#utility.yul\":2204:2313   */\n    tag_70:\n        /* \"#utility.yul\":2285:2306   */\n      tag_110\n        /* \"#utility.yul\":2300:2305   */\n      dup2\n        /* \"#utility.yul\":2285:2306   */\n      tag_69\n      jump\t// in\n    tag_110:\n        /* \"#utility.yul\":2280:2283   */\n      dup3\n        /* \"#utility.yul\":2273:2307   */\n      mstore\n        /* \"#utility.yul\":2204:2313   */\n      pop\n      pop\n      jump\t// out\n        /* \"#utility.yul\":2319:2529   */\n    tag_32:\n        /* \"#utility.yul\":2406:2410   */\n      0x00\n        /* \"#utility.yul\":2444:2446   */\n      0x20\n        /* \"#utility.yul\":2433:2442   */\n      dup3\n        /* \"#utility.yul\":2429:2447   */\n      add\n        /* \"#utility.yul\":2421:2447   */\n      swap1\n      pop\n        /* \"#utility.yul\":2457:2522   */\n      tag_112\n        /* \"#utility.yul\":2519:2520   */\n      0x00\n        /* \"#utility.yul\":2508:2517   */\n      dup4\n        /* \"#utility.yul\":2504:2521   */\n      add\n        /* \"#utility.yul\":2495:2501   */\n      dup5\n        /* \"#utility.yul\":2457:2522   */\n      tag_70\n      jump\t// in\n    tag_112:\n        /* \"#utility.yul\":2319:2529   */\n      swap3\n      swap2\n      pop\n      pop\n      jump\t// out\n        /* \"#utility.yul\":2535:2715   */\n    tag_71:\n        /* \"#utility.yul\":2583:2660   */\n      0x4e487b7100000000000000000000000000000000000000000000000000000000\n        /* \"#utility.yul\":2580:2581   */\n      0x00\n        /* \"#utility.yul\":2573:2661   */\n      mstore\n        /* \"#utility.yul\":2680:2684   */\n      0x11\n        /* \"#utility.yul\":2677:2678   */\n      0x04\n        /* \"#utility.yul\":2670:2685   */\n      mstore\n        /* \"#utility.yul\":2704:2708   */\n      0x24\n        /* \"#utility.yul\":2701:2702   */\n      0x00\n        /* \"#utility.yul\":2694:2709   */\n      revert\n        /* \"#utility.yul\":2721:3026   */\n    tag_35:\n        /* \"#utility.yul\":2761:2764   */\n      0x00\n        /* \"#utility.yul\":2780:2800   */\n      tag_115\n        /* \"#utility.yul\":2798:2799   */\n      dup3\n        /* \"#utility.yul\":2780:2800   */\n      tag_65\n      jump\t// in\n    tag_115:\n        /* \"#utility.yul\":2775:2800   */\n      swap2\n      pop\n        /* \"#utility.yul\":2814:2834   */\n      tag_116\n        /* \"#utility.yul\":2832:2833   */\n      dup4\n        /* \"#utility.yul\":2814:2834   */\n      tag_65\n      jump\t// in\n    tag_116:\n        /* \"#utility.yul\":2809:2834   */\n      swap3\n      pop\n        /* \"#utility.yul\":2968:2969   */\n      dup3\n        /* \"#utility.yul\":2900:2966   */\n      0xffffffffffffffffffffffffffffffffffffffffffffffffffffffffffffffff\n        /* \"#utility.yul\":2896:2970   */\n      sub\n        /* \"#utility.yul\":2893:2894   */\n      dup3\n        /* \"#utility.yul\":2890:2971   */\n      gt\n        /* \"#utility.yul\":2887:2994   */\n      iszero\n      tag_117\n      jumpi\n        /* \"#utility.yul\":2974:2992   */\n      tag_118\n      tag_71\n      jump\t// in\n    tag_118:\n        /* \"#utility.yul\":2887:2994   */\n    tag_117:\n        /* \"#utility.yul\":3018:3019   */\n      dup3\n        /* \"#utility.yul\":3015:3016   */\n      dup3\n        /* \"#utility.yul\":3011:3020   */\n      add\n        /* \"#utility.yul\":3004:3020   */\n      swap1\n      pop\n        /* \"#utility.yul\":2721:3026   */\n      swap3\n      swap2\n      pop\n      pop\n      jump\t// out\n        /* \"#utility.yul\":3032:3092   */\n    tag_72:\n        /* \"#utility.yul\":3060:3063   */\n      0x00\n        /* \"#utility.yul\":3081:3086   */\n      dup2\n        /* \"#utility.yul\":3074:3086   */\n      swap1\n      pop\n        /* \"#utility.yul\":3032:3092   */\n      swap2\n      swap1\n      pop\n      jump\t// out\n        /* \"#utility.yul\":3098:3240   */\n    tag_73:\n        /* \"#utility.yul\":3148:3157   */\n      0x00\n        /* \"#utility.yul\":3181:3234   */\n      tag_121\n        /* \"#utility.yul\":3199:3233   */\n      tag_122\n        /* \"#utility.yul\":3208:3232   */\n      tag_123\n        /* \"#utility.yul\":3226:3231   */\n      dup5\n        /* \"#utility.yul\":3208:3232   */\n      tag_59\n      jump\t// in\n    tag_123:\n        /* \"#utility.yul\":3199:3233   */\n      tag_72\n      jump\t// in\n    tag_122:\n        /* \"#utility.yul\":3181:3234   */\n      tag_59\n      jump\t// in\n    tag_121:\n        /* \"#utility.yul\":3168:3234   */\n      swap1\n      pop\n        /* \"#utility.yul\":3098:3240   */\n      swap2\n      swap1\n      pop\n      jump\t// out\n        /* \"#utility.yul\":3246:3372   */\n    tag_74:\n        /* \"#utility.yul\":3296:3305   */\n      0x00\n        /* \"#utility.yul\":3329:3366   */\n      tag_125\n        /* \"#utility.yul\":3360:3365   */\n      dup3\n        /* \"#utility.yul\":3329:3366   */\n      tag_73\n      jump\t// in\n    tag_125:\n        /* \"#utility.yul\":3316:3366   */\n      swap1\n      pop\n        /* \"#utility.yul\":3246:3372   */\n      swap2\n      swap1\n      pop\n      jump\t// out\n        /* \"#utility.yul\":3378:3512   */\n    tag_75:\n        /* \"#utility.yul\":3436:3445   */\n      0x00\n        /* \"#utility.yul\":3469:3506   */\n      tag_127\n        /* \"#utility.yul\":3500:3505   */\n      dup3\n        /* \"#utility.yul\":3469:3506   */\n      tag_74\n      jump\t// in\n    tag_127:\n        /* \"#utility.yul\":3456:3506   */\n      swap1\n      pop\n        /* \"#utility.yul\":3378:3512   */\n      swap2\n      swap1\n      pop\n      jump\t// out\n        /* \"#utility.yul\":3518:3665   */\n    tag_76:\n        /* \"#utility.yul\":3613:3658   */\n      tag_129\n        /* \"#utility.yul\":3652:3657   */\n      dup2\n        /* \"#utility.yul\":3613:3658   */\n      tag_75\n      jump\t// in\n    tag_129:\n        /* \"#utility.yul\":3608:3611   */\n      dup3\n        /* \"#utility.yul\":3601:3659   */\n      mstore\n        /* \"#utility.yul\":3518:3665   */\n      pop\n      pop\n      jump\t// out\n        /* \"#utility.yul\":3671:4019   */\n    tag_37:\n        /* \"#utility.yul\":3800:3804   */\n      0x00\n        /* \"#utility.yul\":3838:3840   */\n      0x40\n        /* \"#utility.yul\":3827:3836   */\n      dup3\n        /* \"#utility.yul\":3823:3841   */\n      add\n        /* \"#utility.yul\":3815:3841   */\n      swap1\n      pop\n        /* \"#utility.yul\":3851:3930   */\n      tag_131\n        /* \"#utility.yul\":3927:3928   */\n      0x00\n        /* \"#utility.yul\":3916:3925   */\n      dup4\n        /* \"#utility.yul\":3912:3929   */\n      add\n        /* \"#utility.yul\":3903:3909   */\n      dup6\n        /* \"#utility.yul\":3851:3930   */\n      tag_76\n      jump\t// in\n    tag_131:\n        /* \"#utility.yul\":3940:4012   */\n      tag_132\n        /* \"#utility.yul\":4008:4010   */\n      0x20\n        /* \"#utility.yul\":3997:4006   */\n      dup4\n        /* \"#utility.yul\":3993:4011   */\n      add\n        /* \"#utility.yul\":3984:3990   */\n      dup5\n        /* \"#utility.yul\":3940:4012   */\n      tag_68\n      jump\t// in\n    tag_132:\n        /* \"#utility.yul\":3671:4019   */\n      swap4\n      swap3\n      pop\n      pop\n      pop\n      jump\t// out\n        /* \"#utility.yul\":4025:4357   */\n    tag_42:\n        /* \"#utility.yul\":4146:4150   */\n      0x00\n        /* \"#utility.yul\":4184:4186   */\n      0x40\n        /* \"#utility.yul\":4173:4182   */\n      dup3\n        /* \"#utility.yul\":4169:4187   */\n      add\n        /* \"#utility.yul\":4161:4187   */\n      swap1\n      pop\n        /* \"#utility.yul\":4197:4268   */\n      tag_134\n        /* \"#utility.yul\":4265:4266   */\n      0x00\n        /* \"#utility.yul\":4254:4263   */\n      dup4\n        /* \"#utility.yul\":4250:4267   */\n      add\n        /* \"#utility.yul\":4241:4247   */\n      dup6\n        /* \"#utility.yul\":4197:4268   */\n      tag_61\n      jump\t// in\n    tag_134:\n        /* \"#utility.yul\":4278:4350   */\n      tag_135\n        /* \"#utility.yul\":4346:4348   */\n      0x20\n        /* \"#utility.yul\":4335:4344   */\n      dup4\n        /* \"#utility.yul\":4331:4349   */\n      add\n        /* \"#utility.yul\":4322:4328   */\n      dup5\n        /* \"#utility.yul\":4278:4350   */\n      tag_68\n      jump\t// in\n    tag_135:\n        /* \"#utility.yul\":4025:4357   */\n      swap4\n      swap3\n      pop\n      pop\n      pop\n      jump\t// out\n        /* \"#utility.yul\":4363:4532   */\n    tag_77:\n        /* \"#utility.yul\":4447:4458   */\n      0x00\n        /* \"#utility.yul\":4481:4487   */\n      dup3\n        /* \"#utility.yul\":4476:4479   */\n      dup3\n        /* \"#utility.yul\":4469:4488   */\n      mstore\n        /* \"#utility.yul\":4521:4525   */\n      0x20\n        /* \"#utility.yul\":4516:4519   */\n      dup3\n        /* \"#utility.yul\":4512:4526   */\n      add\n        /* \"#utility.yul\":4497:4526   */\n      swap1\n      pop\n        /* \"#utility.yul\":4363:4532   */\n      swap3\n      swap2\n      pop\n      pop\n      jump\t// out\n        /* \"#utility.yul\":4538:4764   */\n    tag_78:\n        /* \"#utility.yul\":4678:4712   */\n      0x596f75206861766520706c61636564206c6f7720626964207468616e20746f70\n        /* \"#utility.yul\":4674:4675   */\n      0x00\n        /* \"#utility.yul\":4666:4672   */\n      dup3\n        /* \"#utility.yul\":4662:4676   */\n      add\n        /* \"#utility.yul\":4655:4713   */\n      mstore\n        /* \"#utility.yul\":4747:4756   */\n      0x2062696464657200000000000000000000000000000000000000000000000000\n        /* \"#utility.yul\":4742:4744   */\n      0x20\n        /* \"#utility.yul\":4734:4740   */\n      dup3\n        /* \"#utility.yul\":4730:4745   */\n      add\n        /* \"#utility.yul\":4723:4757   */\n      mstore\n        /* \"#utility.yul\":4538:4764   */\n      pop\n      jump\t// out\n        /* \"#utility.yul\":4770:5136   */\n    tag_79:\n        /* \"#utility.yul\":4912:4915   */\n      0x00\n        /* \"#utility.yul\":4933:5000   */\n      tag_139\n        /* \"#utility.yul\":4997:4999   */\n      0x27\n        /* \"#utility.yul\":4992:4995   */\n      dup4\n        /* \"#utility.yul\":4933:5000   */\n      tag_77\n      jump\t// in\n    tag_139:\n        /* \"#utility.yul\":4926:5000   */\n      swap2\n      pop\n        /* \"#utility.yul\":5009:5102   */\n      tag_140\n        /* \"#utility.yul\":5098:5101   */\n      dup3\n        /* \"#utility.yul\":5009:5102   */\n      tag_78\n      jump\t// in\n    tag_140:\n        /* \"#utility.yul\":5127:5129   */\n      0x40\n        /* \"#utility.yul\":5122:5125   */\n      dup3\n        /* \"#utility.yul\":5118:5130   */\n      add\n        /* \"#utility.yul\":5111:5130   */\n      swap1\n      pop\n        /* \"#utility.yul\":4770:5136   */\n      swap2\n      swap1\n      pop\n      jump\t// out\n        /* \"#utility.yul\":5142:5561   */\n    tag_48:\n        /* \"#utility.yul\":5308:5312   */\n      0x00\n        /* \"#utility.yul\":5346:5348   */\n      0x20\n        /* \"#utility.yul\":5335:5344   */\n      dup3\n        /* \"#utility.yul\":5331:5349   */\n      add\n        /* \"#utility.yul\":5323:5349   */\n      swap1\n      pop\n        /* \"#utility.yul\":5395:5404   */\n      dup2\n        /* \"#utility.yul\":5389:5393   */\n      dup2\n        /* \"#utility.yul\":5385:5405   */\n      sub\n        /* \"#utility.yul\":5381:5382   */\n      0x00\n        /* \"#utility.yul\":5370:5379   */\n      dup4\n        /* \"#utility.yul\":5366:5383   */\n      add\n        /* \"#utility.yul\":5359:5406   */\n      mstore\n        /* \"#utility.yul\":5423:5554   */\n      tag_142\n        /* \"#utility.yul\":5549:5553   */\n      dup2\n        /* \"#utility.yul\":5423:5554   */\n      tag_79\n      jump\t// in\n    tag_142:\n        /* \"#utility.yul\":5415:5554   */\n      swap1\n      pop\n        /* \"#utility.yul\":5142:5561   */\n      swap2\n      swap1\n      pop\n      jump\t// out\n        /* \"#utility.yul\":5567:5735   */\n    tag_80:\n        /* \"#utility.yul\":5707:5727   */\n      0x41756374696f6e2074696d6520656e6465640000000000000000000000000000\n        /* \"#utility.yul\":5703:5704   */\n      0x00\n        /* \"#utility.yul\":5695:5701   */\n      dup3\n        /* \"#utility.yul\":5691:5705   */\n      add\n        /* \"#utility.yul\":5684:5728   */\n      mstore\n        /* \"#utility.yul\":5567:5735   */\n      pop\n      jump\t// out\n        /* \"#utility.yul\":5741:6107   */\n    tag_81:\n        /* \"#utility.yul\":5883:5886   */\n      0x00\n        /* \"#utility.yul\":5904:5971   */\n      tag_145\n        /* \"#utility.yul\":5968:5970   */\n      0x12\n        /* \"#utility.yul\":5963:5966   */\n      dup4\n        /* \"#utility.yul\":5904:5971   */\n      tag_77\n      jump\t// in\n    tag_145:\n        /* \"#utility.yul\":5897:5971   */\n      swap2\n      pop\n        /* \"#utility.yul\":5980:6073   */\n      tag_146\n        /* \"#utility.yul\":6069:6072   */\n      dup3\n        /* \"#utility.yul\":5980:6073   */\n      tag_80\n      jump\t// in\n    tag_146:\n        /* \"#utility.yul\":6098:6100   */\n      0x20\n        /* \"#utility.yul\":6093:6096   */\n      dup3\n        /* \"#utility.yul\":6089:6101   */\n      add\n        /* \"#utility.yul\":6082:6101   */\n      swap1\n      pop\n        /* \"#utility.yul\":5741:6107   */\n      swap2\n      swap1\n      pop\n      jump\t// out\n        /* \"#utility.yul\":6113:6532   */\n    tag_51:\n        /* \"#utility.yul\":6279:6283   */\n      0x00\n        /* \"#utility.yul\":6317:6319   */\n      0x20\n        /* \"#utility.yul\":6306:6315   */\n      dup3\n        /* \"#utility.yul\":6302:6320   */\n      add\n        /* \"#utility.yul\":6294:6320   */\n      swap1\n      pop\n        /* \"#utility.yul\":6366:6375   */\n      dup2\n        /* \"#utility.yul\":6360:6364   */\n      dup2\n        /* \"#utility.yul\":6356:6376   */\n      sub\n        /* \"#utility.yul\":6352:6353   */\n      0x00\n        /* \"#utility.yul\":6341:6350   */\n      dup4\n        /* \"#utility.yul\":6337:6354   */\n      add\n        /* \"#utility.yul\":6330:6377   */\n      mstore\n        /* \"#utility.yul\":6394:6525   */\n      tag_148\n        /* \"#utility.yul\":6520:6524   */\n      dup2\n        /* \"#utility.yul\":6394:6525   */\n      tag_81\n      jump\t// in\n    tag_148:\n        /* \"#utility.yul\":6386:6525   */\n      swap1\n      pop\n        /* \"#utility.yul\":6113:6532   */\n      swap2\n      swap1\n      pop\n      jump\t// out\n\n    auxdata: 0xa2646970667358221220497126a5c9fece509799a9f256ef6530d3c488b85e2a7fbca0e5da9ca1c51cd964736f6c63430008090033\n}\n",
				"bytecode": {
					"linkReferences": {},
					"object": "608060405260008060006101000a81548160ff021916908315150217905550600060015534801561002f57600080fd5b506109a08061003f6000396000f3fe6080604052600436106100555760003560e01c806301333f061461005a5780634fee13fc14610085578063636bf730146100ae5780638fa8b790146100d9578063ecfc7ecc146100f0578063fde8c63e146100fa575b600080fd5b34801561006657600080fd5b5061006f610125565b60405161007c919061062f565b60405180910390f35b34801561009157600080fd5b506100ac60048036038101906100a79190610685565b61014b565b005b3480156100ba57600080fd5b506100c3610220565b6040516100d091906106d4565b60405180910390f35b3480156100e557600080fd5b506100ee610226565b005b6100f8610373565b005b34801561010657600080fd5b5061010f6104f1565b60405161011c919061070a565b60405180910390f35b600460009054906101000a900473ffffffffffffffffffffffffffffffffffffffff1681565b33600060016101000a81548173ffffffffffffffffffffffffffffffffffffffff021916908373ffffffffffffffffffffffffffffffffffffffff16021790555060008060006101000a81548160ff0219169083151502179055508160028190555080426101b99190610754565b6003819055507f1e6871a9ec2c22e508757c73d7e2d7d15e2819276867174afb13fcdc9f018df2600060019054906101000a900473ffffffffffffffffffffffffffffffffffffffff16600254604051610214929190610809565b60405180910390a15050565b60055481565b600060019054906101000a900473ffffffffffffffffffffffffffffffffffffffff1673ffffffffffffffffffffffffffffffffffffffff163373ffffffffffffffffffffffffffffffffffffffff161461028057600080fd5b60035442101561028f57600080fd5b60016000806101000a81548160ff0219169083151502179055507f0693fe466dadf29e4700c29f41d1504c602b944fa5e6b5f1cb0a3a2ca0702120600460009054906101000a900473ffffffffffffffffffffffffffffffffffffffff166005546040516102fe929190610832565b60405180910390a1600060019054906101000a900473ffffffffffffffffffffffffffffffffffffffff1673ffffffffffffffffffffffffffffffffffffffff166108fc6005549081150290604051600060405180830381858888f19350505050158015610370573d6000803e3d6000fd5b50565b60015434116103b7576040517f08c379a00000000000000000000000000000000000000000000000000000000081526004016103ae906108de565b60405180910390fd5b42600354116103fb576040517f08c379a00000000000000000000000000000000000000000000000000000000081526004016103f29061094a565b60405180910390fd5b60006005541461046e5760055460066000600460009054906101000a900473ffffffffffffffffffffffffffffffffffffffff1673ffffffffffffffffffffffffffffffffffffffff1673ffffffffffffffffffffffffffffffffffffffff168152602001908152602001600020819055505b33600460006101000a81548173ffffffffffffffffffffffffffffffffffffffff021916908373ffffffffffffffffffffffffffffffffffffffff160217905550346005819055507ff7d2dbe81680a1f0c2b9aaeb63d4184de5c64951ba06bf1b5900341760775a2233346040516104e7929190610832565b60405180910390a1565b600060035442101561050257600080fd5b6000600660003373ffffffffffffffffffffffffffffffffffffffff1673ffffffffffffffffffffffffffffffffffffffff16815260200190815260200160002054905060008111156105e5573373ffffffffffffffffffffffffffffffffffffffff166108fc829081150290604051600060405180830381858888f19350505050158015610595573d6000803e3d6000fd5b506000600660003373ffffffffffffffffffffffffffffffffffffffff1673ffffffffffffffffffffffffffffffffffffffff1681526020019081526020016000208190555060019150506105eb565b60009150505b90565b600073ffffffffffffffffffffffffffffffffffffffff82169050919050565b6000610619826105ee565b9050919050565b6106298161060e565b82525050565b60006020820190506106446000830184610620565b92915050565b600080fd5b6000819050919050565b6106628161064f565b811461066d57600080fd5b50565b60008135905061067f81610659565b92915050565b6000806040838503121561069c5761069b61064a565b5b60006106aa85828601610670565b92505060206106bb85828601610670565b9150509250929050565b6106ce8161064f565b82525050565b60006020820190506106e960008301846106c5565b92915050565b60008115159050919050565b610704816106ef565b82525050565b600060208201905061071f60008301846106fb565b92915050565b7f4e487b7100000000000000000000000000000000000000000000000000000000600052601160045260246000fd5b600061075f8261064f565b915061076a8361064f565b9250827fffffffffffffffffffffffffffffffffffffffffffffffffffffffffffffffff0382111561079f5761079e610725565b5b828201905092915050565b6000819050919050565b60006107cf6107ca6107c5846105ee565b6107aa565b6105ee565b9050919050565b60006107e1826107b4565b9050919050565b60006107f3826107d6565b9050919050565b610803816107e8565b82525050565b600060408201905061081e60008301856107fa565b61082b60208301846106c5565b9392505050565b60006040820190506108476000830185610620565b61085460208301846106c5565b9392505050565b600082825260208201905092915050565b7f596f75206861766520706c61636564206c6f7720626964207468616e20746f7060008201527f2062696464657200000000000000000000000000000000000000000000000000602082015250565b60006108c860278361085b565b91506108d38261086c565b604082019050919050565b600060208201905081810360008301526108f7816108bb565b9050919050565b7f41756374696f6e2074696d6520656e6465640000000000000000000000000000600082015250565b600061093460128361085b565b915061093f826108fe565b602082019050919050565b6000602082019050818103600083015261096381610927565b905091905056fea2646970667358221220497126a5c9fece509799a9f256ef6530d3c488b85e2a7fbca0e5da9ca1c51cd964736f6c63430008090033",
					"opcodes": "PUSH1 0x80 PUSH1 0x40 MSTORE PUSH1 0x0 DUP1 PUSH1 0x0 PUSH2 0x100 EXP DUP2 SLOAD DUP2 PUSH1 0xFF MUL NOT AND SWAP1 DUP4 ISZERO ISZERO MUL OR SWAP1 SSTORE POP PUSH1 0x0 PUSH1 0x1 SSTORE CALLVALUE DUP1 ISZERO PUSH2 0x2F JUMPI PUSH1 0x0 DUP1 REVERT JUMPDEST POP PUSH2 0x9A0 DUP1 PUSH2 0x3F PUSH1 0x0 CODECOPY PUSH1 0x0 RETURN INVALID PUSH1 0x80 PUSH1 0x40 MSTORE PUSH1 0x4 CALLDATASIZE LT PUSH2 0x55 JUMPI PUSH1 0x0 CALLDATALOAD PUSH1 0xE0 SHR DUP1 PUSH4 0x1333F06 EQ PUSH2 0x5A JUMPI DUP1 PUSH4 0x4FEE13FC EQ PUSH2 0x85 JUMPI DUP1 PUSH4 0x636BF730 EQ PUSH2 0xAE JUMPI DUP1 PUSH4 0x8FA8B790 EQ PUSH2 0xD9 JUMPI DUP1 PUSH4 0xECFC7ECC EQ PUSH2 0xF0 JUMPI DUP1 PUSH4 0xFDE8C63E EQ PUSH2 0xFA JUMPI JUMPDEST PUSH1 0x0 DUP1 REVERT JUMPDEST CALLVALUE DUP1 ISZERO PUSH2 0x66 JUMPI PUSH1 0x0 DUP1 REVERT JUMPDEST POP PUSH2 0x6F PUSH2 0x125 JUMP JUMPDEST PUSH1 0x40 MLOAD PUSH2 0x7C SWAP2 SWAP1 PUSH2 0x62F JUMP JUMPDEST PUSH1 0x40 MLOAD DUP1 SWAP2 SUB SWAP1 RETURN JUMPDEST CALLVALUE DUP1 ISZERO PUSH2 0x91 JUMPI PUSH1 0x0 DUP1 REVERT JUMPDEST POP PUSH2 0xAC PUSH1 0x4 DUP1 CALLDATASIZE SUB DUP2 ADD SWAP1 PUSH2 0xA7 SWAP2 SWAP1 PUSH2 0x685 JUMP JUMPDEST PUSH2 0x14B JUMP JUMPDEST STOP JUMPDEST CALLVALUE DUP1 ISZERO PUSH2 0xBA JUMPI PUSH1 0x0 DUP1 REVERT JUMPDEST POP PUSH2 0xC3 PUSH2 0x220 JUMP JUMPDEST PUSH1 0x40 MLOAD PUSH2 0xD0 SWAP2 SWAP1 PUSH2 0x6D4 JUMP JUMPDEST PUSH1 0x40 MLOAD DUP1 SWAP2 SUB SWAP1 RETURN JUMPDEST CALLVALUE DUP1 ISZERO PUSH2 0xE5 JUMPI PUSH1 0x0 DUP1 REVERT JUMPDEST POP PUSH2 0xEE PUSH2 0x226 JUMP JUMPDEST STOP JUMPDEST PUSH2 0xF8 PUSH2 0x373 JUMP JUMPDEST STOP JUMPDEST CALLVALUE DUP1 ISZERO PUSH2 0x106 JUMPI PUSH1 0x0 DUP1 REVERT JUMPDEST POP PUSH2 0x10F PUSH2 0x4F1 JUMP JUMPDEST PUSH1 0x40 MLOAD PUSH2 0x11C SWAP2 SWAP1 PUSH2 0x70A JUMP JUMPDEST PUSH1 0x40 MLOAD DUP1 SWAP2 SUB SWAP1 RETURN JUMPDEST PUSH1 0x4 PUSH1 0x0 SWAP1 SLOAD SWAP1 PUSH2 0x100 EXP SWAP1 DIV PUSH20 0xFFFFFFFFFFFFFFFFFFFFFFFFFFFFFFFFFFFFFFFF AND DUP2 JUMP JUMPDEST CALLER PUSH1 0x0 PUSH1 0x1 PUSH2 0x100 EXP DUP2 SLOAD DUP2 PUSH20 0xFFFFFFFFFFFFFFFFFFFFFFFFFFFFFFFFFFFFFFFF MUL NOT AND SWAP1 DUP4 PUSH20 0xFFFFFFFFFFFFFFFFFFFFFFFFFFFFFFFFFFFFFFFF AND MUL OR SWAP1 SSTORE POP PUSH1 0x0 DUP1 PUSH1 0x0 PUSH2 0x100 EXP DUP2 SLOAD DUP2 PUSH1 0xFF MUL NOT AND SWAP1 DUP4 ISZERO ISZERO MUL OR SWAP1 SSTORE POP DUP2 PUSH1 0x2 DUP2 SWAP1 SSTORE POP DUP1 TIMESTAMP PUSH2 0x1B9 SWAP2 SWAP1 PUSH2 0x754 JUMP JUMPDEST PUSH1 0x3 DUP2 SWAP1 SSTORE POP PUSH32 0x1E6871A9EC2C22E508757C73D7E2D7D15E2819276867174AFB13FCDC9F018DF2 PUSH1 0x0 PUSH1 0x1 SWAP1 SLOAD SWAP1 PUSH2 0x100 EXP SWAP1 DIV PUSH20 0xFFFFFFFFFFFFFFFFFFFFFFFFFFFFFFFFFFFFFFFF AND PUSH1 0x2 SLOAD PUSH1 0x40 MLOAD PUSH2 0x214 SWAP3 SWAP2 SWAP1 PUSH2 0x809 JUMP JUMPDEST PUSH1 0x40 MLOAD DUP1 SWAP2 SUB SWAP1 LOG1 POP POP JUMP JUMPDEST PUSH1 0x5 SLOAD DUP2 JUMP JUMPDEST PUSH1 0x0 PUSH1 0x1 SWAP1 SLOAD SWAP1 PUSH2 0x100 EXP SWAP1 DIV PUSH20 0xFFFFFFFFFFFFFFFFFFFFFFFFFFFFFFFFFFFFFFFF AND PUSH20 0xFFFFFFFFFFFFFFFFFFFFFFFFFFFFFFFFFFFFFFFF AND CALLER PUSH20 0xFFFFFFFFFFFFFFFFFFFFFFFFFFFFFFFFFFFFFFFF AND EQ PUSH2 0x280 JUMPI PUSH1 0x0 DUP1 REVERT JUMPDEST PUSH1 0x3 SLOAD TIMESTAMP LT ISZERO PUSH2 0x28F JUMPI PUSH1 0x0 DUP1 REVERT JUMPDEST PUSH1 0x1 PUSH1 0x0 DUP1 PUSH2 0x100 EXP DUP2 SLOAD DUP2 PUSH1 0xFF MUL NOT AND SWAP1 DUP4 ISZERO ISZERO MUL OR SWAP1 SSTORE POP PUSH32 0x693FE466DADF29E4700C29F41D1504C602B944FA5E6B5F1CB0A3A2CA0702120 PUSH1 0x4 PUSH1 0x0 SWAP1 SLOAD SWAP1 PUSH2 0x100 EXP SWAP1 DIV PUSH20 0xFFFFFFFFFFFFFFFFFFFFFFFFFFFFFFFFFFFFFFFF AND PUSH1 0x5 SLOAD PUSH1 0x40 MLOAD PUSH2 0x2FE SWAP3 SWAP2 SWAP1 PUSH2 0x832 JUMP JUMPDEST PUSH1 0x40 MLOAD DUP1 SWAP2 SUB SWAP1 LOG1 PUSH1 0x0 PUSH1 0x1 SWAP1 SLOAD SWAP1 PUSH2 0x100 EXP SWAP1 DIV PUSH20 0xFFFFFFFFFFFFFFFFFFFFFFFFFFFFFFFFFFFFFFFF AND PUSH20 0xFFFFFFFFFFFFFFFFFFFFFFFFFFFFFFFFFFFFFFFF AND PUSH2 0x8FC PUSH1 0x5 SLOAD SWAP1 DUP2 ISZERO MUL SWAP1 PUSH1 0x40 MLOAD PUSH1 0x0 PUSH1 0x40 MLOAD DUP1 DUP4 SUB DUP2 DUP6 DUP9 DUP9 CALL SWAP4 POP POP POP POP ISZERO DUP1 ISZERO PUSH2 0x370 JUMPI RETURNDATASIZE PUSH1 0x0 DUP1 RETURNDATACOPY RETURNDATASIZE PUSH1 0x0 REVERT JUMPDEST POP JUMP JUMPDEST PUSH1 0x1 SLOAD CALLVALUE GT PUSH2 0x3B7 JUMPI PUSH1 0x40 MLOAD PUSH32 0x8C379A000000000000000000000000000000000000000000000000000000000 DUP2 MSTORE PUSH1 0x4 ADD PUSH2 0x3AE SWAP1 PUSH2 0x8DE JUMP JUMPDEST PUSH1 0x40 MLOAD DUP1 SWAP2 SUB SWAP1 REVERT JUMPDEST TIMESTAMP PUSH1 0x3 SLOAD GT PUSH2 0x3FB JUMPI PUSH1 0x40 MLOAD PUSH32 0x8C379A000000000000000000000000000000000000000000000000000000000 DUP2 MSTORE PUSH1 0x4 ADD PUSH2 0x3F2 SWAP1 PUSH2 0x94A JUMP JUMPDEST PUSH1 0x40 MLOAD DUP1 SWAP2 SUB SWAP1 REVERT JUMPDEST PUSH1 0x0 PUSH1 0x5 SLOAD EQ PUSH2 0x46E JUMPI PUSH1 0x5 SLOAD PUSH1 0x6 PUSH1 0x0 PUSH1 0x4 PUSH1 0x0 SWAP1 SLOAD SWAP1 PUSH2 0x100 EXP SWAP1 DIV PUSH20 0xFFFFFFFFFFFFFFFFFFFFFFFFFFFFFFFFFFFFFFFF AND PUSH20 0xFFFFFFFFFFFFFFFFFFFFFFFFFFFFFFFFFFFFFFFF AND PUSH20 0xFFFFFFFFFFFFFFFFFFFFFFFFFFFFFFFFFFFFFFFF AND DUP2 MSTORE PUSH1 0x20 ADD SWAP1 DUP2 MSTORE PUSH1 0x20 ADD PUSH1 0x0 KECCAK256 DUP2 SWAP1 SSTORE POP JUMPDEST CALLER PUSH1 0x4 PUSH1 0x0 PUSH2 0x100 EXP DUP2 SLOAD DUP2 PUSH20 0xFFFFFFFFFFFFFFFFFFFFFFFFFFFFFFFFFFFFFFFF MUL NOT AND SWAP1 DUP4 PUSH20 0xFFFFFFFFFFFFFFFFFFFFFFFFFFFFFFFFFFFFFFFF AND MUL OR SWAP1 SSTORE POP CALLVALUE PUSH1 0x5 DUP2 SWAP1 SSTORE POP PUSH32 0xF7D2DBE81680A1F0C2B9AAEB63D4184DE5C64951BA06BF1B5900341760775A22 CALLER CALLVALUE PUSH1 0x40 MLOAD PUSH2 0x4E7 SWAP3 SWAP2 SWAP1 PUSH2 0x832 JUMP JUMPDEST PUSH1 0x40 MLOAD DUP1 SWAP2 SUB SWAP1 LOG1 JUMP JUMPDEST PUSH1 0x0 PUSH1 0x3 SLOAD TIMESTAMP LT ISZERO PUSH2 0x502 JUMPI PUSH1 0x0 DUP1 REVERT JUMPDEST PUSH1 0x0 PUSH1 0x6 PUSH1 0x0 CALLER PUSH20 0xFFFFFFFFFFFFFFFFFFFFFFFFFFFFFFFFFFFFFFFF AND PUSH20 0xFFFFFFFFFFFFFFFFFFFFFFFFFFFFFFFFFFFFFFFF AND DUP2 MSTORE PUSH1 0x20 ADD SWAP1 DUP2 MSTORE PUSH1 0x20 ADD PUSH1 0x0 KECCAK256 SLOAD SWAP1 POP PUSH1 0x0 DUP2 GT ISZERO PUSH2 0x5E5 JUMPI CALLER PUSH20 0xFFFFFFFFFFFFFFFFFFFFFFFFFFFFFFFFFFFFFFFF AND PUSH2 0x8FC DUP3 SWAP1 DUP2 ISZERO MUL SWAP1 PUSH1 0x40 MLOAD PUSH1 0x0 PUSH1 0x40 MLOAD DUP1 DUP4 SUB DUP2 DUP6 DUP9 DUP9 CALL SWAP4 POP POP POP POP ISZERO DUP1 ISZERO PUSH2 0x595 JUMPI RETURNDATASIZE PUSH1 0x0 DUP1 RETURNDATACOPY RETURNDATASIZE PUSH1 0x0 REVERT JUMPDEST POP PUSH1 0x0 PUSH1 0x6 PUSH1 0x0 CALLER PUSH20 0xFFFFFFFFFFFFFFFFFFFFFFFFFFFFFFFFFFFFFFFF AND PUSH20 0xFFFFFFFFFFFFFFFFFFFFFFFFFFFFFFFFFFFFFFFF AND DUP2 MSTORE PUSH1 0x20 ADD SWAP1 DUP2 MSTORE PUSH1 0x20 ADD PUSH1 0x0 KECCAK256 DUP2 SWAP1 SSTORE POP PUSH1 0x1 SWAP2 POP POP PUSH2 0x5EB JUMP JUMPDEST PUSH1 0x0 SWAP2 POP POP JUMPDEST SWAP1 JUMP JUMPDEST PUSH1 0x0 PUSH20 0xFFFFFFFFFFFFFFFFFFFFFFFFFFFFFFFFFFFFFFFF DUP3 AND SWAP1 POP SWAP2 SWAP1 POP JUMP JUMPDEST PUSH1 0x0 PUSH2 0x619 DUP3 PUSH2 0x5EE JUMP JUMPDEST SWAP1 POP SWAP2 SWAP1 POP JUMP JUMPDEST PUSH2 0x629 DUP2 PUSH2 0x60E JUMP JUMPDEST DUP3 MSTORE POP POP JUMP JUMPDEST PUSH1 0x0 PUSH1 0x20 DUP3 ADD SWAP1 POP PUSH2 0x644 PUSH1 0x0 DUP4 ADD DUP5 PUSH2 0x620 JUMP JUMPDEST SWAP3 SWAP2 POP POP JUMP JUMPDEST PUSH1 0x0 DUP1 REVERT JUMPDEST PUSH1 0x0 DUP2 SWAP1 POP SWAP2 SWAP1 POP JUMP JUMPDEST PUSH2 0x662 DUP2 PUSH2 0x64F JUMP JUMPDEST DUP2 EQ PUSH2 0x66D JUMPI PUSH1 0x0 DUP1 REVERT JUMPDEST POP JUMP JUMPDEST PUSH1 0x0 DUP2 CALLDATALOAD SWAP1 POP PUSH2 0x67F DUP2 PUSH2 0x659 JUMP JUMPDEST SWAP3 SWAP2 POP POP JUMP JUMPDEST PUSH1 0x0 DUP1 PUSH1 0x40 DUP4 DUP6 SUB SLT ISZERO PUSH2 0x69C JUMPI PUSH2 0x69B PUSH2 0x64A JUMP JUMPDEST JUMPDEST PUSH1 0x0 PUSH2 0x6AA DUP6 DUP3 DUP7 ADD PUSH2 0x670 JUMP JUMPDEST SWAP3 POP POP PUSH1 0x20 PUSH2 0x6BB DUP6 DUP3 DUP7 ADD PUSH2 0x670 JUMP JUMPDEST SWAP2 POP POP SWAP3 POP SWAP3 SWAP1 POP JUMP JUMPDEST PUSH2 0x6CE DUP2 PUSH2 0x64F JUMP JUMPDEST DUP3 MSTORE POP POP JUMP JUMPDEST PUSH1 0x0 PUSH1 0x20 DUP3 ADD SWAP1 POP PUSH2 0x6E9 PUSH1 0x0 DUP4 ADD DUP5 PUSH2 0x6C5 JUMP JUMPDEST SWAP3 SWAP2 POP POP JUMP JUMPDEST PUSH1 0x0 DUP2 ISZERO ISZERO SWAP1 POP SWAP2 SWAP1 POP JUMP JUMPDEST PUSH2 0x704 DUP2 PUSH2 0x6EF JUMP JUMPDEST DUP3 MSTORE POP POP JUMP JUMPDEST PUSH1 0x0 PUSH1 0x20 DUP3 ADD SWAP1 POP PUSH2 0x71F PUSH1 0x0 DUP4 ADD DUP5 PUSH2 0x6FB JUMP JUMPDEST SWAP3 SWAP2 POP POP JUMP JUMPDEST PUSH32 0x4E487B7100000000000000000000000000000000000000000000000000000000 PUSH1 0x0 MSTORE PUSH1 0x11 PUSH1 0x4 MSTORE PUSH1 0x24 PUSH1 0x0 REVERT JUMPDEST PUSH1 0x0 PUSH2 0x75F DUP3 PUSH2 0x64F JUMP JUMPDEST SWAP2 POP PUSH2 0x76A DUP4 PUSH2 0x64F JUMP JUMPDEST SWAP3 POP DUP3 PUSH32 0xFFFFFFFFFFFFFFFFFFFFFFFFFFFFFFFFFFFFFFFFFFFFFFFFFFFFFFFFFFFFFFFF SUB DUP3 GT ISZERO PUSH2 0x79F JUMPI PUSH2 0x79E PUSH2 0x725 JUMP JUMPDEST JUMPDEST DUP3 DUP3 ADD SWAP1 POP SWAP3 SWAP2 POP POP JUMP JUMPDEST PUSH1 0x0 DUP2 SWAP1 POP SWAP2 SWAP1 POP JUMP JUMPDEST PUSH1 0x0 PUSH2 0x7CF PUSH2 0x7CA PUSH2 0x7C5 DUP5 PUSH2 0x5EE JUMP JUMPDEST PUSH2 0x7AA JUMP JUMPDEST PUSH2 0x5EE JUMP JUMPDEST SWAP1 POP SWAP2 SWAP1 POP JUMP JUMPDEST PUSH1 0x0 PUSH2 0x7E1 DUP3 PUSH2 0x7B4 JUMP JUMPDEST SWAP1 POP SWAP2 SWAP1 POP JUMP JUMPDEST PUSH1 0x0 PUSH2 0x7F3 DUP3 PUSH2 0x7D6 JUMP JUMPDEST SWAP1 POP SWAP2 SWAP1 POP JUMP JUMPDEST PUSH2 0x803 DUP2 PUSH2 0x7E8 JUMP JUMPDEST DUP3 MSTORE POP POP JUMP JUMPDEST PUSH1 0x0 PUSH1 0x40 DUP3 ADD SWAP1 POP PUSH2 0x81E PUSH1 0x0 DUP4 ADD DUP6 PUSH2 0x7FA JUMP JUMPDEST PUSH2 0x82B PUSH1 0x20 DUP4 ADD DUP5 PUSH2 0x6C5 JUMP JUMPDEST SWAP4 SWAP3 POP POP POP JUMP JUMPDEST PUSH1 0x0 PUSH1 0x40 DUP3 ADD SWAP1 POP PUSH2 0x847 PUSH1 0x0 DUP4 ADD DUP6 PUSH2 0x620 JUMP JUMPDEST PUSH2 0x854 PUSH1 0x20 DUP4 ADD DUP5 PUSH2 0x6C5 JUMP JUMPDEST SWAP4 SWAP3 POP POP POP JUMP JUMPDEST PUSH1 0x0 DUP3 DUP3 MSTORE PUSH1 0x20 DUP3 ADD SWAP1 POP SWAP3 SWAP2 POP POP JUMP JUMPDEST PUSH32 0x596F75206861766520706C61636564206C6F7720626964207468616E20746F70 PUSH1 0x0 DUP3 ADD MSTORE PUSH32 0x2062696464657200000000000000000000000000000000000000000000000000 PUSH1 0x20 DUP3 ADD MSTORE POP JUMP JUMPDEST PUSH1 0x0 PUSH2 0x8C8 PUSH1 0x27 DUP4 PUSH2 0x85B JUMP JUMPDEST SWAP2 POP PUSH2 0x8D3 DUP3 PUSH2 0x86C JUMP JUMPDEST PUSH1 0x40 DUP3 ADD SWAP1 POP SWAP2 SWAP1 POP JUMP JUMPDEST PUSH1 0x0 PUSH1 0x20 DUP3 ADD SWAP1 POP DUP2 DUP2 SUB PUSH1 0x0 DUP4 ADD MSTORE PUSH2 0x8F7 DUP2 PUSH2 0x8BB JUMP JUMPDEST SWAP1 POP SWAP2 SWAP1 POP JUMP JUMPDEST PUSH32 0x41756374696F6E2074696D6520656E6465640000000000000000000000000000 PUSH1 0x0 DUP3 ADD MSTORE POP JUMP JUMPDEST PUSH1 0x0 PUSH2 0x934 PUSH1 0x12 DUP4 PUSH2 0x85B JUMP JUMPDEST SWAP2 POP PUSH2 0x93F DUP3 PUSH2 0x8FE JUMP JUMPDEST PUSH1 0x20 DUP3 ADD SWAP1 POP SWAP2 SWAP1 POP JUMP JUMPDEST PUSH1 0x0 PUSH1 0x20 DUP3 ADD SWAP1 POP DUP2 DUP2 SUB PUSH1 0x0 DUP4 ADD MSTORE PUSH2 0x963 DUP2 PUSH2 0x927 JUMP JUMPDEST SWAP1 POP SWAP2 SWAP1 POP JUMP INVALID LOG2 PUSH5 0x6970667358 0x22 SLT KECCAK256 0x49 PUSH18 0x26A5C9FECE509799A9F256EF6530D3C488B8 0x5E 0x2A PUSH32 0xBCA0E5DA9CA1C51CD964736F6C63430008090033000000000000000000000000 "
				},
				"gasEstimates": {
					"creation": {
						"codeDepositCost": "492800",
						"executionCost": "29797",
						"totalCost": "522597"
					},
					"external": {
						"cancelAuction()": "infinite",
						"placeBid()": "80969",
						"startAuction(uint256,uint256)": "infinite",
						"topBid()": "2451",
						"topBidder()": "2492",
						"withDrawBid()": "infinite"
					}
				},
				"methodIdentifiers": {
					"cancelAuction()": "8fa8b790",
					"placeBid()": "ecfc7ecc",
					"startAuction(uint256,uint256)": "4fee13fc",
					"topBid()": "636bf730",
					"topBidder()": "01333f06",
					"withDrawBid()": "fde8c63e"
				}
			},
			"storageLayout": {
				"storage": [
					{
						"astId": 4,
						"contract": "SimpleAuction.sol:simpleAuction",
						"label": "AuctionClosed",
						"offset": 0,
						"slot": "0",
						"type": "t_bool"
					},
					{
						"astId": 6,
						"contract": "SimpleAuction.sol:simpleAuction",
						"label": "auctionOwner",
						"offset": 1,
						"slot": "0",
						"type": "t_address_payable"
					},
					{
						"astId": 9,
						"contract": "SimpleAuction.sol:simpleAuction",
						"label": "topBidAmount",
						"offset": 0,
						"slot": "1",
						"type": "t_uint256"
					},
					{
						"astId": 11,
						"contract": "SimpleAuction.sol:simpleAuction",
						"label": "auctionStartPrice",
						"offset": 0,
						"slot": "2",
						"type": "t_uint256"
					},
					{
						"astId": 13,
						"contract": "SimpleAuction.sol:simpleAuction",
						"label": "auctionTime",
						"offset": 0,
						"slot": "3",
						"type": "t_uint256"
					},
					{
						"astId": 15,
						"contract": "SimpleAuction.sol:simpleAuction",
						"label": "topBidder",
						"offset": 0,
						"slot": "4",
						"type": "t_address"
					},
					{
						"astId": 17,
						"contract": "SimpleAuction.sol:simpleAuction",
						"label": "topBid",
						"offset": 0,
						"slot": "5",
						"type": "t_uint256"
					},
					{
						"astId": 21,
						"contract": "SimpleAuction.sol:simpleAuction",
						"label": "pendingReturns",
						"offset": 0,
						"slot": "6",
						"type": "t_mapping(t_address,t_uint256)"
					}
				],
				"types": {
					"t_address": {
						"encoding": "inplace",
						"label": "address",
						"numberOfBytes": "20"
					},
					"t_address_payable": {
						"encoding": "inplace",
						"label": "address payable",
						"numberOfBytes": "20"
					},
					"t_bool": {
						"encoding": "inplace",
						"label": "bool",
						"numberOfBytes": "1"
					},
					"t_mapping(t_address,t_uint256)": {
						"encoding": "mapping",
						"key": "t_address",
						"label": "mapping(address => uint256)",
						"numberOfBytes": "32",
						"value": "t_uint256"
					},
					"t_uint256": {
						"encoding": "inplace",
						"label": "uint256",
						"numberOfBytes": "32"
					}
				}
			},
			"userdoc": {
				"kind": "user",
				"methods": {},
				"version": 1
			}
		}
	}
}