{
	"SimpleAuction.sol": {
		"simpleAuction": {
			"abi": [
				{
					"anonymous": false,
					"inputs": [
						{
							"indexed": false,
							"internalType": "address",
							"name": "auctionOwner",
							"type": "address"
						},
						{
							"indexed": false,
							"internalType": "uint256",
							"name": "startPrice",
							"type": "uint256"
						}
					],
					"name": "auctionStarted",
					"type": "event"
				},
				{
					"anonymous": false,
					"inputs": [
						{
							"indexed": false,
							"internalType": "address",
							"name": "bidder",
							"type": "address"
						},
						{
							"indexed": false,
							"internalType": "uint256",
							"name": "bidAmount",
							"type": "uint256"
						}
					],
					"name": "bidPlaced",
					"type": "event"
				},
				{
					"inputs": [],
					"name": "placeBid",
					"outputs": [],
					"stateMutability": "payable",
					"type": "function"
				},
				{
					"inputs": [
						{
							"internalType": "uint256",
							"name": "_auctionStartPrice",
							"type": "uint256"
						},
						{
							"internalType": "uint256",
							"name": "_auctionTime",
							"type": "uint256"
						}
					],
					"name": "startAuction",
					"outputs": [],
					"stateMutability": "nonpayable",
					"type": "function"
				}
			],
			"devdoc": {
				"kind": "dev",
				"methods": {},
				"version": 1
			},
			"evm": {
				"assembly": "    /* \"SimpleAuction.sol\":71:790  contract simpleAuction{... */\n  mstore(0x40, 0x80)\n    /* \"SimpleAuction.sol\":118:123  false */\n  0x00\n    /* \"SimpleAuction.sol\":99:123  bool AuctionClosed=false */\n  dup1\n  exp(0x0100, 0x00)\n  dup2\n  sload\n  dup2\n  0xff\n  mul\n  not\n  and\n  swap1\n  dup4\n  iszero\n  iszero\n  mul\n  or\n  swap1\n  sstore\n  pop\n    /* \"SimpleAuction.sol\":176:177  0 */\n  0x00\n    /* \"SimpleAuction.sol\":155:177  uint256 topBidAmount=0 */\n  0x01\n  sstore\n    /* \"SimpleAuction.sol\":71:790  contract simpleAuction{... */\n  callvalue\n  dup1\n  iszero\n  tag_1\n  jumpi\n  0x00\n  dup1\n  revert\ntag_1:\n  pop\n  dataSize(sub_0)\n  dup1\n  dataOffset(sub_0)\n  0x00\n  codecopy\n  0x00\n  return\nstop\n\nsub_0: assembly {\n        /* \"SimpleAuction.sol\":71:790  contract simpleAuction{... */\n      mstore(0x40, 0x80)\n      jumpi(tag_1, lt(calldatasize, 0x04))\n      shr(0xe0, calldataload(0x00))\n      dup1\n      0x4fee13fc\n      eq\n      tag_2\n      jumpi\n      dup1\n      0xecfc7ecc\n      eq\n      tag_3\n      jumpi\n    tag_1:\n      0x00\n      dup1\n      revert\n        /* \"SimpleAuction.sol\":389:694  function startAuction(uint256 _auctionStartPrice, uint256 _auctionTime) public {... */\n    tag_2:\n      callvalue\n      dup1\n      iszero\n      tag_4\n      jumpi\n      0x00\n      dup1\n      revert\n    tag_4:\n      pop\n      tag_5\n      0x04\n      dup1\n      calldatasize\n      sub\n      dup2\n      add\n      swap1\n      tag_6\n      swap2\n      swap1\n      tag_7\n      jump\t// in\n    tag_6:\n      tag_8\n      jump\t// in\n    tag_5:\n      stop\n        /* \"SimpleAuction.sol\":701:786  function placeBid() public payable{... */\n    tag_3:\n      tag_9\n      tag_10\n      jump\t// in\n    tag_9:\n      stop\n        /* \"SimpleAuction.sol\":389:694  function startAuction(uint256 _auctionStartPrice, uint256 _auctionTime) public {... */\n    tag_8:\n        /* \"SimpleAuction.sol\":491:501  msg.sender */\n      caller\n        /* \"SimpleAuction.sol\":478:490  auctionOwner */\n      0x00\n      0x01\n        /* \"SimpleAuction.sol\":478:501  auctionOwner=msg.sender */\n      0x0100\n      exp\n      dup2\n      sload\n      dup2\n      0xffffffffffffffffffffffffffffffffffffffff\n      mul\n      not\n      and\n      swap1\n      dup4\n      0xffffffffffffffffffffffffffffffffffffffff\n      and\n      mul\n      or\n      swap1\n      sstore\n      pop\n        /* \"SimpleAuction.sol\":525:530  false */\n      0x00\n        /* \"SimpleAuction.sol\":511:524  AuctionClosed */\n      dup1\n      0x00\n        /* \"SimpleAuction.sol\":511:530  AuctionClosed=false */\n      0x0100\n      exp\n      dup2\n      sload\n      dup2\n      0xff\n      mul\n      not\n      and\n      swap1\n      dup4\n      iszero\n      iszero\n      mul\n      or\n      swap1\n      sstore\n      pop\n        /* \"SimpleAuction.sol\":558:576  _auctionStartPrice */\n      dup2\n        /* \"SimpleAuction.sol\":540:557  auctionStartPrice */\n      0x02\n        /* \"SimpleAuction.sol\":540:576  auctionStartPrice=_auctionStartPrice */\n      dup2\n      swap1\n      sstore\n      pop\n        /* \"SimpleAuction.sol\":614:626  _auctionTime */\n      dup1\n        /* \"SimpleAuction.sol\":598:613  block.timestamp */\n      timestamp\n        /* \"SimpleAuction.sol\":598:626  block.timestamp+_auctionTime */\n      tag_12\n      swap2\n      swap1\n      tag_13\n      jump\t// in\n    tag_12:\n        /* \"SimpleAuction.sol\":586:597  auctionTime */\n      0x03\n        /* \"SimpleAuction.sol\":586:626  auctionTime=block.timestamp+_auctionTime */\n      dup2\n      swap1\n      sstore\n      pop\n        /* \"SimpleAuction.sol\":641:687  auctionStarted(auctionOwner,auctionStartPrice) */\n      0x1e6871a9ec2c22e508757c73d7e2d7d15e2819276867174afb13fcdc9f018df2\n        /* \"SimpleAuction.sol\":656:668  auctionOwner */\n      0x00\n      0x01\n      swap1\n      sload\n      swap1\n      0x0100\n      exp\n      swap1\n      div\n      0xffffffffffffffffffffffffffffffffffffffff\n      and\n        /* \"SimpleAuction.sol\":669:686  auctionStartPrice */\n      sload(0x02)\n        /* \"SimpleAuction.sol\":641:687  auctionStarted(auctionOwner,auctionStartPrice) */\n      mload(0x40)\n      tag_14\n      swap3\n      swap2\n      swap1\n      tag_15\n      jump\t// in\n    tag_14:\n      mload(0x40)\n      dup1\n      swap2\n      sub\n      swap1\n      log1\n        /* \"SimpleAuction.sol\":389:694  function startAuction(uint256 _auctionStartPrice, uint256 _auctionTime) public {... */\n      pop\n      pop\n      jump\t// out\n        /* \"SimpleAuction.sol\":701:786  function placeBid() public payable{... */\n    tag_10:\n        /* \"SimpleAuction.sol\":765:777  topBidAmount */\n      sload(0x01)\n        /* \"SimpleAuction.sol\":753:762  msg.value */\n      callvalue\n        /* \"SimpleAuction.sol\":753:777  msg.value > topBidAmount */\n      gt\n        /* \"SimpleAuction.sol\":745:778  require(msg.value > topBidAmount) */\n      tag_17\n      jumpi\n      0x00\n      dup1\n      revert\n    tag_17:\n        /* \"SimpleAuction.sol\":701:786  function placeBid() public payable{... */\n      jump\t// out\n        /* \"#utility.yul\":88:205   */\n    tag_19:\n        /* \"#utility.yul\":197:198   */\n      0x00\n        /* \"#utility.yul\":194:195   */\n      dup1\n        /* \"#utility.yul\":187:199   */\n      revert\n        /* \"#utility.yul\":334:411   */\n    tag_21:\n        /* \"#utility.yul\":371:378   */\n      0x00\n        /* \"#utility.yul\":400:405   */\n      dup2\n        /* \"#utility.yul\":389:405   */\n      swap1\n      pop\n        /* \"#utility.yul\":334:411   */\n      swap2\n      swap1\n      pop\n      jump\t// out\n        /* \"#utility.yul\":417:539   */\n    tag_22:\n        /* \"#utility.yul\":490:514   */\n      tag_35\n        /* \"#utility.yul\":508:513   */\n      dup2\n        /* \"#utility.yul\":490:514   */\n      tag_21\n      jump\t// in\n    tag_35:\n        /* \"#utility.yul\":483:488   */\n      dup2\n        /* \"#utility.yul\":480:515   */\n      eq\n        /* \"#utility.yul\":470:533   */\n      tag_36\n      jumpi\n        /* \"#utility.yul\":529:530   */\n      0x00\n        /* \"#utility.yul\":526:527   */\n      dup1\n        /* \"#utility.yul\":519:531   */\n      revert\n        /* \"#utility.yul\":470:533   */\n    tag_36:\n        /* \"#utility.yul\":417:539   */\n      pop\n      jump\t// out\n        /* \"#utility.yul\":545:684   */\n    tag_23:\n        /* \"#utility.yul\":591:596   */\n      0x00\n        /* \"#utility.yul\":629:635   */\n      dup2\n        /* \"#utility.yul\":616:636   */\n      calldataload\n        /* \"#utility.yul\":607:636   */\n      swap1\n      pop\n        /* \"#utility.yul\":645:678   */\n      tag_38\n        /* \"#utility.yul\":672:677   */\n      dup2\n        /* \"#utility.yul\":645:678   */\n      tag_22\n      jump\t// in\n    tag_38:\n        /* \"#utility.yul\":545:684   */\n      swap3\n      swap2\n      pop\n      pop\n      jump\t// out\n        /* \"#utility.yul\":690:1164   */\n    tag_7:\n        /* \"#utility.yul\":758:764   */\n      0x00\n        /* \"#utility.yul\":766:772   */\n      dup1\n        /* \"#utility.yul\":815:817   */\n      0x40\n        /* \"#utility.yul\":803:812   */\n      dup4\n        /* \"#utility.yul\":794:801   */\n      dup6\n        /* \"#utility.yul\":790:813   */\n      sub\n        /* \"#utility.yul\":786:818   */\n      slt\n        /* \"#utility.yul\":783:902   */\n      iszero\n      tag_40\n      jumpi\n        /* \"#utility.yul\":821:900   */\n      tag_41\n      tag_19\n      jump\t// in\n    tag_41:\n        /* \"#utility.yul\":783:902   */\n    tag_40:\n        /* \"#utility.yul\":941:942   */\n      0x00\n        /* \"#utility.yul\":966:1019   */\n      tag_42\n        /* \"#utility.yul\":1011:1018   */\n      dup6\n        /* \"#utility.yul\":1002:1008   */\n      dup3\n        /* \"#utility.yul\":991:1000   */\n      dup7\n        /* \"#utility.yul\":987:1009   */\n      add\n        /* \"#utility.yul\":966:1019   */\n      tag_23\n      jump\t// in\n    tag_42:\n        /* \"#utility.yul\":956:1019   */\n      swap3\n      pop\n        /* \"#utility.yul\":912:1029   */\n      pop\n        /* \"#utility.yul\":1068:1070   */\n      0x20\n        /* \"#utility.yul\":1094:1147   */\n      tag_43\n        /* \"#utility.yul\":1139:1146   */\n      dup6\n        /* \"#utility.yul\":1130:1136   */\n      dup3\n        /* \"#utility.yul\":1119:1128   */\n      dup7\n        /* \"#utility.yul\":1115:1137   */\n      add\n        /* \"#utility.yul\":1094:1147   */\n      tag_23\n      jump\t// in\n    tag_43:\n        /* \"#utility.yul\":1084:1147   */\n      swap2\n      pop\n        /* \"#utility.yul\":1039:1157   */\n      pop\n        /* \"#utility.yul\":690:1164   */\n      swap3\n      pop\n      swap3\n      swap1\n      pop\n      jump\t// out\n        /* \"#utility.yul\":1170:1350   */\n    tag_24:\n        /* \"#utility.yul\":1218:1295   */\n      0x4e487b7100000000000000000000000000000000000000000000000000000000\n        /* \"#utility.yul\":1215:1216   */\n      0x00\n        /* \"#utility.yul\":1208:1296   */\n      mstore\n        /* \"#utility.yul\":1315:1319   */\n      0x11\n        /* \"#utility.yul\":1312:1313   */\n      0x04\n        /* \"#utility.yul\":1305:1320   */\n      mstore\n        /* \"#utility.yul\":1339:1343   */\n      0x24\n        /* \"#utility.yul\":1336:1337   */\n      0x00\n        /* \"#utility.yul\":1329:1344   */\n      revert\n        /* \"#utility.yul\":1356:1661   */\n    tag_13:\n        /* \"#utility.yul\":1396:1399   */\n      0x00\n        /* \"#utility.yul\":1415:1435   */\n      tag_46\n        /* \"#utility.yul\":1433:1434   */\n      dup3\n        /* \"#utility.yul\":1415:1435   */\n      tag_21\n      jump\t// in\n    tag_46:\n        /* \"#utility.yul\":1410:1435   */\n      swap2\n      pop\n        /* \"#utility.yul\":1449:1469   */\n      tag_47\n        /* \"#utility.yul\":1467:1468   */\n      dup4\n        /* \"#utility.yul\":1449:1469   */\n      tag_21\n      jump\t// in\n    tag_47:\n        /* \"#utility.yul\":1444:1469   */\n      swap3\n      pop\n        /* \"#utility.yul\":1603:1604   */\n      dup3\n        /* \"#utility.yul\":1535:1601   */\n      0xffffffffffffffffffffffffffffffffffffffffffffffffffffffffffffffff\n        /* \"#utility.yul\":1531:1605   */\n      sub\n        /* \"#utility.yul\":1528:1529   */\n      dup3\n        /* \"#utility.yul\":1525:1606   */\n      gt\n        /* \"#utility.yul\":1522:1629   */\n      iszero\n      tag_48\n      jumpi\n        /* \"#utility.yul\":1609:1627   */\n      tag_49\n      tag_24\n      jump\t// in\n    tag_49:\n        /* \"#utility.yul\":1522:1629   */\n    tag_48:\n        /* \"#utility.yul\":1653:1654   */\n      dup3\n        /* \"#utility.yul\":1650:1651   */\n      dup3\n        /* \"#utility.yul\":1646:1655   */\n      add\n        /* \"#utility.yul\":1639:1655   */\n      swap1\n      pop\n        /* \"#utility.yul\":1356:1661   */\n      swap3\n      swap2\n      pop\n      pop\n      jump\t// out\n        /* \"#utility.yul\":1667:1793   */\n    tag_25:\n        /* \"#utility.yul\":1704:1711   */\n      0x00\n        /* \"#utility.yul\":1744:1786   */\n      0xffffffffffffffffffffffffffffffffffffffff\n        /* \"#utility.yul\":1737:1742   */\n      dup3\n        /* \"#utility.yul\":1733:1787   */\n      and\n        /* \"#utility.yul\":1722:1787   */\n      swap1\n      pop\n        /* \"#utility.yul\":1667:1793   */\n      swap2\n      swap1\n      pop\n      jump\t// out\n        /* \"#utility.yul\":1799:1895   */\n    tag_26:\n        /* \"#utility.yul\":1836:1843   */\n      0x00\n        /* \"#utility.yul\":1865:1889   */\n      tag_52\n        /* \"#utility.yul\":1883:1888   */\n      dup3\n        /* \"#utility.yul\":1865:1889   */\n      tag_25\n      jump\t// in\n    tag_52:\n        /* \"#utility.yul\":1854:1889   */\n      swap1\n      pop\n        /* \"#utility.yul\":1799:1895   */\n      swap2\n      swap1\n      pop\n      jump\t// out\n        /* \"#utility.yul\":1901:2019   */\n    tag_27:\n        /* \"#utility.yul\":1988:2012   */\n      tag_54\n        /* \"#utility.yul\":2006:2011   */\n      dup2\n        /* \"#utility.yul\":1988:2012   */\n      tag_26\n      jump\t// in\n    tag_54:\n        /* \"#utility.yul\":1983:1986   */\n      dup3\n        /* \"#utility.yul\":1976:2013   */\n      mstore\n        /* \"#utility.yul\":1901:2019   */\n      pop\n      pop\n      jump\t// out\n        /* \"#utility.yul\":2025:2143   */\n    tag_28:\n        /* \"#utility.yul\":2112:2136   */\n      tag_56\n        /* \"#utility.yul\":2130:2135   */\n      dup2\n        /* \"#utility.yul\":2112:2136   */\n      tag_21\n      jump\t// in\n    tag_56:\n        /* \"#utility.yul\":2107:2110   */\n      dup3\n        /* \"#utility.yul\":2100:2137   */\n      mstore\n        /* \"#utility.yul\":2025:2143   */\n      pop\n      pop\n      jump\t// out\n        /* \"#utility.yul\":2149:2481   */\n    tag_15:\n        /* \"#utility.yul\":2270:2274   */\n      0x00\n        /* \"#utility.yul\":2308:2310   */\n      0x40\n        /* \"#utility.yul\":2297:2306   */\n      dup3\n        /* \"#utility.yul\":2293:2311   */\n      add\n        /* \"#utility.yul\":2285:2311   */\n      swap1\n      pop\n        /* \"#utility.yul\":2321:2392   */\n      tag_58\n        /* \"#utility.yul\":2389:2390   */\n      0x00\n        /* \"#utility.yul\":2378:2387   */\n      dup4\n        /* \"#utility.yul\":2374:2391   */\n      add\n        /* \"#utility.yul\":2365:2371   */\n      dup6\n        /* \"#utility.yul\":2321:2392   */\n      tag_27\n      jump\t// in\n    tag_58:\n        /* \"#utility.yul\":2402:2474   */\n      tag_59\n        /* \"#utility.yul\":2470:2472   */\n      0x20\n        /* \"#utility.yul\":2459:2468   */\n      dup4\n        /* \"#utility.yul\":2455:2473   */\n      add\n        /* \"#utility.yul\":2446:2452   */\n      dup5\n        /* \"#utility.yul\":2402:2474   */\n      tag_28\n      jump\t// in\n    tag_59:\n        /* \"#utility.yul\":2149:2481   */\n      swap4\n      swap3\n      pop\n      pop\n      pop\n      jump\t// out\n\n    auxdata: 0xa2646970667358221220530afe7e8208961c0e0c1d01aadc435fe5468329af5fe64ed2ba2e036f09fe0664736f6c63430008090033\n}\n",
				"bytecode": {
					"linkReferences": {},
					"object": "608060405260008060006101000a81548160ff021916908315150217905550600060015534801561002f57600080fd5b506102f58061003f6000396000f3fe6080604052600436106100295760003560e01c80634fee13fc1461002e578063ecfc7ecc14610057575b600080fd5b34801561003a57600080fd5b5061005560048036038101906100509190610181565b610061565b005b61005f610136565b005b33600060016101000a81548173ffffffffffffffffffffffffffffffffffffffff021916908373ffffffffffffffffffffffffffffffffffffffff16021790555060008060006101000a81548160ff0219169083151502179055508160028190555080426100cf91906101f0565b6003819055507f1e6871a9ec2c22e508757c73d7e2d7d15e2819276867174afb13fcdc9f018df2600060019054906101000a900473ffffffffffffffffffffffffffffffffffffffff1660025460405161012a929190610296565b60405180910390a15050565b600154341161014457600080fd5b565b600080fd5b6000819050919050565b61015e8161014b565b811461016957600080fd5b50565b60008135905061017b81610155565b92915050565b6000806040838503121561019857610197610146565b5b60006101a68582860161016c565b92505060206101b78582860161016c565b9150509250929050565b7f4e487b7100000000000000000000000000000000000000000000000000000000600052601160045260246000fd5b60006101fb8261014b565b91506102068361014b565b9250827fffffffffffffffffffffffffffffffffffffffffffffffffffffffffffffffff0382111561023b5761023a6101c1565b5b828201905092915050565b600073ffffffffffffffffffffffffffffffffffffffff82169050919050565b600061027182610246565b9050919050565b61028181610266565b82525050565b6102908161014b565b82525050565b60006040820190506102ab6000830185610278565b6102b86020830184610287565b939250505056fea2646970667358221220530afe7e8208961c0e0c1d01aadc435fe5468329af5fe64ed2ba2e036f09fe0664736f6c63430008090033",
					"opcodes": "PUSH1 0x80 PUSH1 0x40 MSTORE PUSH1 0x0 DUP1 PUSH1 0x0 PUSH2 0x100 EXP DUP2 SLOAD DUP2 PUSH1 0xFF MUL NOT AND SWAP1 DUP4 ISZERO ISZERO MUL OR SWAP1 SSTORE POP PUSH1 0x0 PUSH1 0x1 SSTORE CALLVALUE DUP1 ISZERO PUSH2 0x2F JUMPI PUSH1 0x0 DUP1 REVERT JUMPDEST POP PUSH2 0x2F5 DUP1 PUSH2 0x3F PUSH1 0x0 CODECOPY PUSH1 0x0 RETURN INVALID PUSH1 0x80 PUSH1 0x40 MSTORE PUSH1 0x4 CALLDATASIZE LT PUSH2 0x29 JUMPI PUSH1 0x0 CALLDATALOAD PUSH1 0xE0 SHR DUP1 PUSH4 0x4FEE13FC EQ PUSH2 0x2E JUMPI DUP1 PUSH4 0xECFC7ECC EQ PUSH2 0x57 JUMPI JUMPDEST PUSH1 0x0 DUP1 REVERT JUMPDEST CALLVALUE DUP1 ISZERO PUSH2 0x3A JUMPI PUSH1 0x0 DUP1 REVERT JUMPDEST POP PUSH2 0x55 PUSH1 0x4 DUP1 CALLDATASIZE SUB DUP2 ADD SWAP1 PUSH2 0x50 SWAP2 SWAP1 PUSH2 0x181 JUMP JUMPDEST PUSH2 0x61 JUMP JUMPDEST STOP JUMPDEST PUSH2 0x5F PUSH2 0x136 JUMP JUMPDEST STOP JUMPDEST CALLER PUSH1 0x0 PUSH1 0x1 PUSH2 0x100 EXP DUP2 SLOAD DUP2 PUSH20 0xFFFFFFFFFFFFFFFFFFFFFFFFFFFFFFFFFFFFFFFF MUL NOT AND SWAP1 DUP4 PUSH20 0xFFFFFFFFFFFFFFFFFFFFFFFFFFFFFFFFFFFFFFFF AND MUL OR SWAP1 SSTORE POP PUSH1 0x0 DUP1 PUSH1 0x0 PUSH2 0x100 EXP DUP2 SLOAD DUP2 PUSH1 0xFF MUL NOT AND SWAP1 DUP4 ISZERO ISZERO MUL OR SWAP1 SSTORE POP DUP2 PUSH1 0x2 DUP2 SWAP1 SSTORE POP DUP1 TIMESTAMP PUSH2 0xCF SWAP2 SWAP1 PUSH2 0x1F0 JUMP JUMPDEST PUSH1 0x3 DUP2 SWAP1 SSTORE POP PUSH32 0x1E6871A9EC2C22E508757C73D7E2D7D15E2819276867174AFB13FCDC9F018DF2 PUSH1 0x0 PUSH1 0x1 SWAP1 SLOAD SWAP1 PUSH2 0x100 EXP SWAP1 DIV PUSH20 0xFFFFFFFFFFFFFFFFFFFFFFFFFFFFFFFFFFFFFFFF AND PUSH1 0x2 SLOAD PUSH1 0x40 MLOAD PUSH2 0x12A SWAP3 SWAP2 SWAP1 PUSH2 0x296 JUMP JUMPDEST PUSH1 0x40 MLOAD DUP1 SWAP2 SUB SWAP1 LOG1 POP POP JUMP JUMPDEST PUSH1 0x1 SLOAD CALLVALUE GT PUSH2 0x144 JUMPI PUSH1 0x0 DUP1 REVERT JUMPDEST JUMP JUMPDEST PUSH1 0x0 DUP1 REVERT JUMPDEST PUSH1 0x0 DUP2 SWAP1 POP SWAP2 SWAP1 POP JUMP JUMPDEST PUSH2 0x15E DUP2 PUSH2 0x14B JUMP JUMPDEST DUP2 EQ PUSH2 0x169 JUMPI PUSH1 0x0 DUP1 REVERT JUMPDEST POP JUMP JUMPDEST PUSH1 0x0 DUP2 CALLDATALOAD SWAP1 POP PUSH2 0x17B DUP2 PUSH2 0x155 JUMP JUMPDEST SWAP3 SWAP2 POP POP JUMP JUMPDEST PUSH1 0x0 DUP1 PUSH1 0x40 DUP4 DUP6 SUB SLT ISZERO PUSH2 0x198 JUMPI PUSH2 0x197 PUSH2 0x146 JUMP JUMPDEST JUMPDEST PUSH1 0x0 PUSH2 0x1A6 DUP6 DUP3 DUP7 ADD PUSH2 0x16C JUMP JUMPDEST SWAP3 POP POP PUSH1 0x20 PUSH2 0x1B7 DUP6 DUP3 DUP7 ADD PUSH2 0x16C JUMP JUMPDEST SWAP2 POP POP SWAP3 POP SWAP3 SWAP1 POP JUMP JUMPDEST PUSH32 0x4E487B7100000000000000000000000000000000000000000000000000000000 PUSH1 0x0 MSTORE PUSH1 0x11 PUSH1 0x4 MSTORE PUSH1 0x24 PUSH1 0x0 REVERT JUMPDEST PUSH1 0x0 PUSH2 0x1FB DUP3 PUSH2 0x14B JUMP JUMPDEST SWAP2 POP PUSH2 0x206 DUP4 PUSH2 0x14B JUMP JUMPDEST SWAP3 POP DUP3 PUSH32 0xFFFFFFFFFFFFFFFFFFFFFFFFFFFFFFFFFFFFFFFFFFFFFFFFFFFFFFFFFFFFFFFF SUB DUP3 GT ISZERO PUSH2 0x23B JUMPI PUSH2 0x23A PUSH2 0x1C1 JUMP JUMPDEST JUMPDEST DUP3 DUP3 ADD SWAP1 POP SWAP3 SWAP2 POP POP JUMP JUMPDEST PUSH1 0x0 PUSH20 0xFFFFFFFFFFFFFFFFFFFFFFFFFFFFFFFFFFFFFFFF DUP3 AND SWAP1 POP SWAP2 SWAP1 POP JUMP JUMPDEST PUSH1 0x0 PUSH2 0x271 DUP3 PUSH2 0x246 JUMP JUMPDEST SWAP1 POP SWAP2 SWAP1 POP JUMP JUMPDEST PUSH2 0x281 DUP2 PUSH2 0x266 JUMP JUMPDEST DUP3 MSTORE POP POP JUMP JUMPDEST PUSH2 0x290 DUP2 PUSH2 0x14B JUMP JUMPDEST DUP3 MSTORE POP POP JUMP JUMPDEST PUSH1 0x0 PUSH1 0x40 DUP3 ADD SWAP1 POP PUSH2 0x2AB PUSH1 0x0 DUP4 ADD DUP6 PUSH2 0x278 JUMP JUMPDEST PUSH2 0x2B8 PUSH1 0x20 DUP4 ADD DUP5 PUSH2 0x287 JUMP JUMPDEST SWAP4 SWAP3 POP POP POP JUMP INVALID LOG2 PUSH5 0x6970667358 0x22 SLT KECCAK256 MSTORE8 EXP INVALID PUSH31 0x8208961C0E0C1D01AADC435FE5468329AF5FE64ED2BA2E036F09FE0664736F PUSH13 0x63430008090033000000000000 "
				},
				"gasEstimates": {
					"creation": {
						"codeDepositCost": "151400",
						"executionCost": "29469",
						"totalCost": "180869"
					},
					"external": {
						"placeBid()": "2242",
						"startAuction(uint256,uint256)": "infinite"
					}
				},
				"methodIdentifiers": {
					"placeBid()": "ecfc7ecc",
					"startAuction(uint256,uint256)": "4fee13fc"
				}
			},
			"storageLayout": {
				"storage": [
					{
						"astId": 4,
						"contract": "SimpleAuction.sol:simpleAuction",
						"label": "AuctionClosed",
						"offset": 0,
						"slot": "0",
						"type": "t_bool"
					},
					{
						"astId": 6,
						"contract": "SimpleAuction.sol:simpleAuction",
						"label": "auctionOwner",
						"offset": 1,
						"slot": "0",
						"type": "t_address"
					},
					{
						"astId": 9,
						"contract": "SimpleAuction.sol:simpleAuction",
						"label": "topBidAmount",
						"offset": 0,
						"slot": "1",
						"type": "t_uint256"
					},
					{
						"astId": 11,
						"contract": "SimpleAuction.sol:simpleAuction",
						"label": "auctionStartPrice",
						"offset": 0,
						"slot": "2",
						"type": "t_uint256"
					},
					{
						"astId": 13,
						"contract": "SimpleAuction.sol:simpleAuction",
						"label": "auctionTime",
						"offset": 0,
						"slot": "3",
						"type": "t_uint256"
					},
					{
						"astId": 15,
						"contract": "SimpleAuction.sol:simpleAuction",
						"label": "topBidder",
						"offset": 0,
						"slot": "4",
						"type": "t_address"
					}
				],
				"types": {
					"t_address": {
						"encoding": "inplace",
						"label": "address",
						"numberOfBytes": "20"
					},
					"t_bool": {
						"encoding": "inplace",
						"label": "bool",
						"numberOfBytes": "1"
					},
					"t_uint256": {
						"encoding": "inplace",
						"label": "uint256",
						"numberOfBytes": "32"
					}
				}
			},
			"userdoc": {
				"kind": "user",
				"methods": {},
				"version": 1
			}
		}
	}
}