{
	"PetSanctuary.sol": {
		"PetSanctuary": {
			"abi": [
				{
					"inputs": [],
					"stateMutability": "nonpayable",
					"type": "constructor"
				},
				{
					"inputs": [
						{
							"internalType": "enum PetSanctuary.AnimalKind",
							"name": "_animalKind",
							"type": "uint8"
						},
						{
							"internalType": "uint256",
							"name": "_howManyPieces",
							"type": "uint256"
						}
					],
					"name": "add",
					"outputs": [],
					"stateMutability": "nonpayable",
					"type": "function"
				},
				{
					"inputs": [],
					"name": "animalKind",
					"outputs": [
						{
							"internalType": "enum PetSanctuary.AnimalKind",
							"name": "",
							"type": "uint8"
						}
					],
					"stateMutability": "view",
					"type": "function"
				},
				{
					"inputs": [
						{
							"internalType": "enum PetSanctuary.AnimalKind",
							"name": "",
							"type": "uint8"
						}
					],
					"name": "animals",
					"outputs": [
						{
							"internalType": "uint256",
							"name": "",
							"type": "uint256"
						}
					],
					"stateMutability": "view",
					"type": "function"
				},
				{
					"inputs": [],
					"name": "owner",
					"outputs": [
						{
							"internalType": "address",
							"name": "",
							"type": "address"
						}
					],
					"stateMutability": "view",
					"type": "function"
				}
			],
			"devdoc": {
				"kind": "dev",
				"methods": {},
				"version": 1
			},
			"evm": {
				"assembly": "    /* \"PetSanctuary.sol\":70:554  contract PetSanctuary{... */\n  mstore(0x40, 0x80)\n    /* \"PetSanctuary.sol\":258:304  constructor(){... */\n  callvalue\n  dup1\n  iszero\n  tag_1\n  jumpi\n  0x00\n  dup1\n  revert\ntag_1:\n  pop\n    /* \"PetSanctuary.sol\":287:297  msg.sender */\n  caller\n    /* \"PetSanctuary.sol\":281:286  owner */\n  0x00\n  0x01\n    /* \"PetSanctuary.sol\":281:297  owner=msg.sender */\n  0x0100\n  exp\n  dup2\n  sload\n  dup2\n  0xffffffffffffffffffffffffffffffffffffffff\n  mul\n  not\n  and\n  swap1\n  dup4\n  0xffffffffffffffffffffffffffffffffffffffff\n  and\n  mul\n  or\n  swap1\n  sstore\n  pop\n    /* \"PetSanctuary.sol\":70:554  contract PetSanctuary{... */\n  dataSize(sub_0)\n  dup1\n  dataOffset(sub_0)\n  0x00\n  codecopy\n  0x00\n  return\nstop\n\nsub_0: assembly {\n        /* \"PetSanctuary.sol\":70:554  contract PetSanctuary{... */\n      mstore(0x40, 0x80)\n      callvalue\n      dup1\n      iszero\n      tag_1\n      jumpi\n      0x00\n      dup1\n      revert\n    tag_1:\n      pop\n      jumpi(tag_2, lt(calldatasize, 0x04))\n      shr(0xe0, calldataload(0x00))\n      dup1\n      0x1b54ac80\n      eq\n      tag_3\n      jumpi\n      dup1\n      0x2b23461f\n      eq\n      tag_4\n      jumpi\n      dup1\n      0x8da5cb5b\n      eq\n      tag_5\n      jumpi\n      dup1\n      0xec73cab5\n      eq\n      tag_6\n      jumpi\n    tag_2:\n      0x00\n      dup1\n      revert\n        /* \"PetSanctuary.sol\":422:552  function add(AnimalKind _animalKind, uint256 _howManyPieces) onlyOwner public {... */\n    tag_3:\n      tag_7\n      0x04\n      dup1\n      calldatasize\n      sub\n      dup2\n      add\n      swap1\n      tag_8\n      swap2\n      swap1\n      tag_9\n      jump\t// in\n    tag_8:\n      tag_10\n      jump\t// in\n    tag_7:\n      stop\n        /* \"PetSanctuary.sol\":207:252  mapping(AnimalKind => uint256) public animals */\n    tag_4:\n      tag_11\n      0x04\n      dup1\n      calldatasize\n      sub\n      dup2\n      add\n      swap1\n      tag_12\n      swap2\n      swap1\n      tag_13\n      jump\t// in\n    tag_12:\n      tag_14\n      jump\t// in\n    tag_11:\n      mload(0x40)\n      tag_15\n      swap2\n      swap1\n      tag_16\n      jump\t// in\n    tag_15:\n      mload(0x40)\n      dup1\n      swap2\n      sub\n      swap1\n      return\n        /* \"PetSanctuary.sol\":181:201  address public owner */\n    tag_5:\n      tag_17\n      tag_18\n      jump\t// in\n    tag_17:\n      mload(0x40)\n      tag_19\n      swap2\n      swap1\n      tag_20\n      jump\t// in\n    tag_19:\n      mload(0x40)\n      dup1\n      swap2\n      sub\n      swap1\n      return\n        /* \"PetSanctuary.sol\":146:175  AnimalKind public  animalKind */\n    tag_6:\n      tag_21\n      tag_22\n      jump\t// in\n    tag_21:\n      mload(0x40)\n      tag_23\n      swap2\n      swap1\n      tag_24\n      jump\t// in\n    tag_23:\n      mload(0x40)\n      dup1\n      swap2\n      sub\n      swap1\n      return\n        /* \"PetSanctuary.sol\":422:552  function add(AnimalKind _animalKind, uint256 _howManyPieces) onlyOwner public {... */\n    tag_10:\n        /* \"PetSanctuary.sol\":361:366  owner */\n      0x00\n      0x01\n      swap1\n      sload\n      swap1\n      0x0100\n      exp\n      swap1\n      div\n      0xffffffffffffffffffffffffffffffffffffffff\n      and\n        /* \"PetSanctuary.sol\":347:366  msg.sender == owner */\n      0xffffffffffffffffffffffffffffffffffffffff\n      and\n        /* \"PetSanctuary.sol\":347:357  msg.sender */\n      caller\n        /* \"PetSanctuary.sol\":347:366  msg.sender == owner */\n      0xffffffffffffffffffffffffffffffffffffffff\n      and\n      eq\n        /* \"PetSanctuary.sol\":339:399  require(msg.sender == owner, 'Only owner can give shelter ') */\n      tag_26\n      jumpi\n      mload(0x40)\n      0x08c379a000000000000000000000000000000000000000000000000000000000\n      dup2\n      mstore\n      0x04\n      add\n      tag_27\n      swap1\n      tag_28\n      jump\t// in\n    tag_27:\n      mload(0x40)\n      dup1\n      swap2\n      sub\n      swap1\n      revert\n    tag_26:\n        /* \"PetSanctuary.sol\":531:545  _howManyPieces */\n      dup1\n        /* \"PetSanctuary.sol\":510:517  animals */\n      0x01\n        /* \"PetSanctuary.sol\":510:530  animals[_animalKind] */\n      0x00\n        /* \"PetSanctuary.sol\":518:529  _animalKind */\n      dup5\n        /* \"PetSanctuary.sol\":510:530  animals[_animalKind] */\n      0x04\n      dup2\n      gt\n      iszero\n      tag_30\n      jumpi\n      tag_31\n      tag_32\n      jump\t// in\n    tag_31:\n    tag_30:\n      0x04\n      dup2\n      gt\n      iszero\n      tag_33\n      jumpi\n      tag_34\n      tag_32\n      jump\t// in\n    tag_34:\n    tag_33:\n      dup2\n      mstore\n      0x20\n      add\n      swap1\n      dup2\n      mstore\n      0x20\n      add\n      0x00\n      keccak256\n        /* \"PetSanctuary.sol\":510:545  animals[_animalKind]=_howManyPieces */\n      dup2\n      swap1\n      sstore\n      pop\n        /* \"PetSanctuary.sol\":422:552  function add(AnimalKind _animalKind, uint256 _howManyPieces) onlyOwner public {... */\n      pop\n      pop\n      jump\t// out\n        /* \"PetSanctuary.sol\":207:252  mapping(AnimalKind => uint256) public animals */\n    tag_14:\n      mstore(0x20, 0x01)\n      dup1\n      0x00\n      mstore\n      keccak256(0x00, 0x40)\n      0x00\n      swap2\n      pop\n      swap1\n      pop\n      sload\n      dup2\n      jump\t// out\n        /* \"PetSanctuary.sol\":181:201  address public owner */\n    tag_18:\n      0x00\n      0x01\n      swap1\n      sload\n      swap1\n      0x0100\n      exp\n      swap1\n      div\n      0xffffffffffffffffffffffffffffffffffffffff\n      and\n      dup2\n      jump\t// out\n        /* \"PetSanctuary.sol\":146:175  AnimalKind public  animalKind */\n    tag_22:\n      0x00\n      dup1\n      sload\n      swap1\n      0x0100\n      exp\n      swap1\n      div\n      0xff\n      and\n      dup2\n      jump\t// out\n        /* \"#utility.yul\":88:205   */\n    tag_36:\n        /* \"#utility.yul\":197:198   */\n      0x00\n        /* \"#utility.yul\":194:195   */\n      dup1\n        /* \"#utility.yul\":187:199   */\n      revert\n        /* \"#utility.yul\":334:445   */\n    tag_38:\n        /* \"#utility.yul\":419:420   */\n      0x05\n        /* \"#utility.yul\":412:417   */\n      dup2\n        /* \"#utility.yul\":409:421   */\n      lt\n        /* \"#utility.yul\":399:439   */\n      tag_59\n      jumpi\n        /* \"#utility.yul\":435:436   */\n      0x00\n        /* \"#utility.yul\":432:433   */\n      dup1\n        /* \"#utility.yul\":425:437   */\n      revert\n        /* \"#utility.yul\":399:439   */\n    tag_59:\n        /* \"#utility.yul\":334:445   */\n      pop\n      jump\t// out\n        /* \"#utility.yul\":451:614   */\n    tag_39:\n        /* \"#utility.yul\":509:514   */\n      0x00\n        /* \"#utility.yul\":547:553   */\n      dup2\n        /* \"#utility.yul\":534:554   */\n      calldataload\n        /* \"#utility.yul\":525:554   */\n      swap1\n      pop\n        /* \"#utility.yul\":563:608   */\n      tag_61\n        /* \"#utility.yul\":602:607   */\n      dup2\n        /* \"#utility.yul\":563:608   */\n      tag_38\n      jump\t// in\n    tag_61:\n        /* \"#utility.yul\":451:614   */\n      swap3\n      swap2\n      pop\n      pop\n      jump\t// out\n        /* \"#utility.yul\":620:697   */\n    tag_40:\n        /* \"#utility.yul\":657:664   */\n      0x00\n        /* \"#utility.yul\":686:691   */\n      dup2\n        /* \"#utility.yul\":675:691   */\n      swap1\n      pop\n        /* \"#utility.yul\":620:697   */\n      swap2\n      swap1\n      pop\n      jump\t// out\n        /* \"#utility.yul\":703:825   */\n    tag_41:\n        /* \"#utility.yul\":776:800   */\n      tag_64\n        /* \"#utility.yul\":794:799   */\n      dup2\n        /* \"#utility.yul\":776:800   */\n      tag_40\n      jump\t// in\n    tag_64:\n        /* \"#utility.yul\":769:774   */\n      dup2\n        /* \"#utility.yul\":766:801   */\n      eq\n        /* \"#utility.yul\":756:819   */\n      tag_65\n      jumpi\n        /* \"#utility.yul\":815:816   */\n      0x00\n        /* \"#utility.yul\":812:813   */\n      dup1\n        /* \"#utility.yul\":805:817   */\n      revert\n        /* \"#utility.yul\":756:819   */\n    tag_65:\n        /* \"#utility.yul\":703:825   */\n      pop\n      jump\t// out\n        /* \"#utility.yul\":831:970   */\n    tag_42:\n        /* \"#utility.yul\":877:882   */\n      0x00\n        /* \"#utility.yul\":915:921   */\n      dup2\n        /* \"#utility.yul\":902:922   */\n      calldataload\n        /* \"#utility.yul\":893:922   */\n      swap1\n      pop\n        /* \"#utility.yul\":931:964   */\n      tag_67\n        /* \"#utility.yul\":958:963   */\n      dup2\n        /* \"#utility.yul\":931:964   */\n      tag_41\n      jump\t// in\n    tag_67:\n        /* \"#utility.yul\":831:970   */\n      swap3\n      swap2\n      pop\n      pop\n      jump\t// out\n        /* \"#utility.yul\":976:1474   */\n    tag_9:\n        /* \"#utility.yul\":1056:1062   */\n      0x00\n        /* \"#utility.yul\":1064:1070   */\n      dup1\n        /* \"#utility.yul\":1113:1115   */\n      0x40\n        /* \"#utility.yul\":1101:1110   */\n      dup4\n        /* \"#utility.yul\":1092:1099   */\n      dup6\n        /* \"#utility.yul\":1088:1111   */\n      sub\n        /* \"#utility.yul\":1084:1116   */\n      slt\n        /* \"#utility.yul\":1081:1200   */\n      iszero\n      tag_69\n      jumpi\n        /* \"#utility.yul\":1119:1198   */\n      tag_70\n      tag_36\n      jump\t// in\n    tag_70:\n        /* \"#utility.yul\":1081:1200   */\n    tag_69:\n        /* \"#utility.yul\":1239:1240   */\n      0x00\n        /* \"#utility.yul\":1264:1329   */\n      tag_71\n        /* \"#utility.yul\":1321:1328   */\n      dup6\n        /* \"#utility.yul\":1312:1318   */\n      dup3\n        /* \"#utility.yul\":1301:1310   */\n      dup7\n        /* \"#utility.yul\":1297:1319   */\n      add\n        /* \"#utility.yul\":1264:1329   */\n      tag_39\n      jump\t// in\n    tag_71:\n        /* \"#utility.yul\":1254:1329   */\n      swap3\n      pop\n        /* \"#utility.yul\":1210:1339   */\n      pop\n        /* \"#utility.yul\":1378:1380   */\n      0x20\n        /* \"#utility.yul\":1404:1457   */\n      tag_72\n        /* \"#utility.yul\":1449:1456   */\n      dup6\n        /* \"#utility.yul\":1440:1446   */\n      dup3\n        /* \"#utility.yul\":1429:1438   */\n      dup7\n        /* \"#utility.yul\":1425:1447   */\n      add\n        /* \"#utility.yul\":1404:1457   */\n      tag_42\n      jump\t// in\n    tag_72:\n        /* \"#utility.yul\":1394:1457   */\n      swap2\n      pop\n        /* \"#utility.yul\":1349:1467   */\n      pop\n        /* \"#utility.yul\":976:1474   */\n      swap3\n      pop\n      swap3\n      swap1\n      pop\n      jump\t// out\n        /* \"#utility.yul\":1480:1833   */\n    tag_13:\n        /* \"#utility.yul\":1551:1557   */\n      0x00\n        /* \"#utility.yul\":1600:1602   */\n      0x20\n        /* \"#utility.yul\":1588:1597   */\n      dup3\n        /* \"#utility.yul\":1579:1586   */\n      dup5\n        /* \"#utility.yul\":1575:1598   */\n      sub\n        /* \"#utility.yul\":1571:1603   */\n      slt\n        /* \"#utility.yul\":1568:1687   */\n      iszero\n      tag_74\n      jumpi\n        /* \"#utility.yul\":1606:1685   */\n      tag_75\n      tag_36\n      jump\t// in\n    tag_75:\n        /* \"#utility.yul\":1568:1687   */\n    tag_74:\n        /* \"#utility.yul\":1726:1727   */\n      0x00\n        /* \"#utility.yul\":1751:1816   */\n      tag_76\n        /* \"#utility.yul\":1808:1815   */\n      dup5\n        /* \"#utility.yul\":1799:1805   */\n      dup3\n        /* \"#utility.yul\":1788:1797   */\n      dup6\n        /* \"#utility.yul\":1784:1806   */\n      add\n        /* \"#utility.yul\":1751:1816   */\n      tag_39\n      jump\t// in\n    tag_76:\n        /* \"#utility.yul\":1741:1816   */\n      swap2\n      pop\n        /* \"#utility.yul\":1697:1826   */\n      pop\n        /* \"#utility.yul\":1480:1833   */\n      swap3\n      swap2\n      pop\n      pop\n      jump\t// out\n        /* \"#utility.yul\":1839:1957   */\n    tag_43:\n        /* \"#utility.yul\":1926:1950   */\n      tag_78\n        /* \"#utility.yul\":1944:1949   */\n      dup2\n        /* \"#utility.yul\":1926:1950   */\n      tag_40\n      jump\t// in\n    tag_78:\n        /* \"#utility.yul\":1921:1924   */\n      dup3\n        /* \"#utility.yul\":1914:1951   */\n      mstore\n        /* \"#utility.yul\":1839:1957   */\n      pop\n      pop\n      jump\t// out\n        /* \"#utility.yul\":1963:2185   */\n    tag_16:\n        /* \"#utility.yul\":2056:2060   */\n      0x00\n        /* \"#utility.yul\":2094:2096   */\n      0x20\n        /* \"#utility.yul\":2083:2092   */\n      dup3\n        /* \"#utility.yul\":2079:2097   */\n      add\n        /* \"#utility.yul\":2071:2097   */\n      swap1\n      pop\n        /* \"#utility.yul\":2107:2178   */\n      tag_80\n        /* \"#utility.yul\":2175:2176   */\n      0x00\n        /* \"#utility.yul\":2164:2173   */\n      dup4\n        /* \"#utility.yul\":2160:2177   */\n      add\n        /* \"#utility.yul\":2151:2157   */\n      dup5\n        /* \"#utility.yul\":2107:2178   */\n      tag_43\n      jump\t// in\n    tag_80:\n        /* \"#utility.yul\":1963:2185   */\n      swap3\n      swap2\n      pop\n      pop\n      jump\t// out\n        /* \"#utility.yul\":2191:2317   */\n    tag_44:\n        /* \"#utility.yul\":2228:2235   */\n      0x00\n        /* \"#utility.yul\":2268:2310   */\n      0xffffffffffffffffffffffffffffffffffffffff\n        /* \"#utility.yul\":2261:2266   */\n      dup3\n        /* \"#utility.yul\":2257:2311   */\n      and\n        /* \"#utility.yul\":2246:2311   */\n      swap1\n      pop\n        /* \"#utility.yul\":2191:2317   */\n      swap2\n      swap1\n      pop\n      jump\t// out\n        /* \"#utility.yul\":2323:2419   */\n    tag_45:\n        /* \"#utility.yul\":2360:2367   */\n      0x00\n        /* \"#utility.yul\":2389:2413   */\n      tag_83\n        /* \"#utility.yul\":2407:2412   */\n      dup3\n        /* \"#utility.yul\":2389:2413   */\n      tag_44\n      jump\t// in\n    tag_83:\n        /* \"#utility.yul\":2378:2413   */\n      swap1\n      pop\n        /* \"#utility.yul\":2323:2419   */\n      swap2\n      swap1\n      pop\n      jump\t// out\n        /* \"#utility.yul\":2425:2543   */\n    tag_46:\n        /* \"#utility.yul\":2512:2536   */\n      tag_85\n        /* \"#utility.yul\":2530:2535   */\n      dup2\n        /* \"#utility.yul\":2512:2536   */\n      tag_45\n      jump\t// in\n    tag_85:\n        /* \"#utility.yul\":2507:2510   */\n      dup3\n        /* \"#utility.yul\":2500:2537   */\n      mstore\n        /* \"#utility.yul\":2425:2543   */\n      pop\n      pop\n      jump\t// out\n        /* \"#utility.yul\":2549:2771   */\n    tag_20:\n        /* \"#utility.yul\":2642:2646   */\n      0x00\n        /* \"#utility.yul\":2680:2682   */\n      0x20\n        /* \"#utility.yul\":2669:2678   */\n      dup3\n        /* \"#utility.yul\":2665:2683   */\n      add\n        /* \"#utility.yul\":2657:2683   */\n      swap1\n      pop\n        /* \"#utility.yul\":2693:2764   */\n      tag_87\n        /* \"#utility.yul\":2761:2762   */\n      0x00\n        /* \"#utility.yul\":2750:2759   */\n      dup4\n        /* \"#utility.yul\":2746:2763   */\n      add\n        /* \"#utility.yul\":2737:2743   */\n      dup5\n        /* \"#utility.yul\":2693:2764   */\n      tag_46\n      jump\t// in\n    tag_87:\n        /* \"#utility.yul\":2549:2771   */\n      swap3\n      swap2\n      pop\n      pop\n      jump\t// out\n        /* \"#utility.yul\":2777:2957   */\n    tag_32:\n        /* \"#utility.yul\":2825:2902   */\n      0x4e487b7100000000000000000000000000000000000000000000000000000000\n        /* \"#utility.yul\":2822:2823   */\n      0x00\n        /* \"#utility.yul\":2815:2903   */\n      mstore\n        /* \"#utility.yul\":2922:2926   */\n      0x21\n        /* \"#utility.yul\":2919:2920   */\n      0x04\n        /* \"#utility.yul\":2912:2927   */\n      mstore\n        /* \"#utility.yul\":2946:2950   */\n      0x24\n        /* \"#utility.yul\":2943:2944   */\n      0x00\n        /* \"#utility.yul\":2936:2951   */\n      revert\n        /* \"#utility.yul\":2963:3080   */\n    tag_47:\n        /* \"#utility.yul\":3048:3049   */\n      0x05\n        /* \"#utility.yul\":3041:3046   */\n      dup2\n        /* \"#utility.yul\":3038:3050   */\n      lt\n        /* \"#utility.yul\":3028:3074   */\n      tag_90\n      jumpi\n        /* \"#utility.yul\":3054:3072   */\n      tag_91\n      tag_32\n      jump\t// in\n    tag_91:\n        /* \"#utility.yul\":3028:3074   */\n    tag_90:\n        /* \"#utility.yul\":2963:3080   */\n      pop\n      jump\t// out\n        /* \"#utility.yul\":3086:3221   */\n    tag_48:\n        /* \"#utility.yul\":3135:3142   */\n      0x00\n        /* \"#utility.yul\":3164:3169   */\n      dup2\n        /* \"#utility.yul\":3153:3169   */\n      swap1\n      pop\n        /* \"#utility.yul\":3170:3215   */\n      tag_93\n        /* \"#utility.yul\":3209:3214   */\n      dup3\n        /* \"#utility.yul\":3170:3215   */\n      tag_47\n      jump\t// in\n    tag_93:\n        /* \"#utility.yul\":3086:3221   */\n      swap2\n      swap1\n      pop\n      jump\t// out\n        /* \"#utility.yul\":3227:3362   */\n    tag_49:\n        /* \"#utility.yul\":3287:3296   */\n      0x00\n        /* \"#utility.yul\":3320:3356   */\n      tag_95\n        /* \"#utility.yul\":3350:3355   */\n      dup3\n        /* \"#utility.yul\":3320:3356   */\n      tag_48\n      jump\t// in\n    tag_95:\n        /* \"#utility.yul\":3307:3356   */\n      swap1\n      pop\n        /* \"#utility.yul\":3227:3362   */\n      swap2\n      swap1\n      pop\n      jump\t// out\n        /* \"#utility.yul\":3368:3519   */\n    tag_50:\n        /* \"#utility.yul\":3465:3512   */\n      tag_97\n        /* \"#utility.yul\":3506:3511   */\n      dup2\n        /* \"#utility.yul\":3465:3512   */\n      tag_49\n      jump\t// in\n    tag_97:\n        /* \"#utility.yul\":3460:3463   */\n      dup3\n        /* \"#utility.yul\":3453:3513   */\n      mstore\n        /* \"#utility.yul\":3368:3519   */\n      pop\n      pop\n      jump\t// out\n        /* \"#utility.yul\":3525:3767   */\n    tag_24:\n        /* \"#utility.yul\":3628:3632   */\n      0x00\n        /* \"#utility.yul\":3666:3668   */\n      0x20\n        /* \"#utility.yul\":3655:3664   */\n      dup3\n        /* \"#utility.yul\":3651:3669   */\n      add\n        /* \"#utility.yul\":3643:3669   */\n      swap1\n      pop\n        /* \"#utility.yul\":3679:3760   */\n      tag_99\n        /* \"#utility.yul\":3757:3758   */\n      0x00\n        /* \"#utility.yul\":3746:3755   */\n      dup4\n        /* \"#utility.yul\":3742:3759   */\n      add\n        /* \"#utility.yul\":3733:3739   */\n      dup5\n        /* \"#utility.yul\":3679:3760   */\n      tag_50\n      jump\t// in\n    tag_99:\n        /* \"#utility.yul\":3525:3767   */\n      swap3\n      swap2\n      pop\n      pop\n      jump\t// out\n        /* \"#utility.yul\":3773:3942   */\n    tag_51:\n        /* \"#utility.yul\":3857:3868   */\n      0x00\n        /* \"#utility.yul\":3891:3897   */\n      dup3\n        /* \"#utility.yul\":3886:3889   */\n      dup3\n        /* \"#utility.yul\":3879:3898   */\n      mstore\n        /* \"#utility.yul\":3931:3935   */\n      0x20\n        /* \"#utility.yul\":3926:3929   */\n      dup3\n        /* \"#utility.yul\":3922:3936   */\n      add\n        /* \"#utility.yul\":3907:3936   */\n      swap1\n      pop\n        /* \"#utility.yul\":3773:3942   */\n      swap3\n      swap2\n      pop\n      pop\n      jump\t// out\n        /* \"#utility.yul\":3948:4126   */\n    tag_52:\n        /* \"#utility.yul\":4088:4118   */\n      0x4f6e6c79206f776e65722063616e2067697665207368656c7465722000000000\n        /* \"#utility.yul\":4084:4085   */\n      0x00\n        /* \"#utility.yul\":4076:4082   */\n      dup3\n        /* \"#utility.yul\":4072:4086   */\n      add\n        /* \"#utility.yul\":4065:4119   */\n      mstore\n        /* \"#utility.yul\":3948:4126   */\n      pop\n      jump\t// out\n        /* \"#utility.yul\":4132:4498   */\n    tag_53:\n        /* \"#utility.yul\":4274:4277   */\n      0x00\n        /* \"#utility.yul\":4295:4362   */\n      tag_103\n        /* \"#utility.yul\":4359:4361   */\n      0x1c\n        /* \"#utility.yul\":4354:4357   */\n      dup4\n        /* \"#utility.yul\":4295:4362   */\n      tag_51\n      jump\t// in\n    tag_103:\n        /* \"#utility.yul\":4288:4362   */\n      swap2\n      pop\n        /* \"#utility.yul\":4371:4464   */\n      tag_104\n        /* \"#utility.yul\":4460:4463   */\n      dup3\n        /* \"#utility.yul\":4371:4464   */\n      tag_52\n      jump\t// in\n    tag_104:\n        /* \"#utility.yul\":4489:4491   */\n      0x20\n        /* \"#utility.yul\":4484:4487   */\n      dup3\n        /* \"#utility.yul\":4480:4492   */\n      add\n        /* \"#utility.yul\":4473:4492   */\n      swap1\n      pop\n        /* \"#utility.yul\":4132:4498   */\n      swap2\n      swap1\n      pop\n      jump\t// out\n        /* \"#utility.yul\":4504:4923   */\n    tag_28:\n        /* \"#utility.yul\":4670:4674   */\n      0x00\n        /* \"#utility.yul\":4708:4710   */\n      0x20\n        /* \"#utility.yul\":4697:4706   */\n      dup3\n        /* \"#utility.yul\":4693:4711   */\n      add\n        /* \"#utility.yul\":4685:4711   */\n      swap1\n      pop\n        /* \"#utility.yul\":4757:4766   */\n      dup2\n        /* \"#utility.yul\":4751:4755   */\n      dup2\n        /* \"#utility.yul\":4747:4767   */\n      sub\n        /* \"#utility.yul\":4743:4744   */\n      0x00\n        /* \"#utility.yul\":4732:4741   */\n      dup4\n        /* \"#utility.yul\":4728:4745   */\n      add\n        /* \"#utility.yul\":4721:4768   */\n      mstore\n        /* \"#utility.yul\":4785:4916   */\n      tag_106\n        /* \"#utility.yul\":4911:4915   */\n      dup2\n        /* \"#utility.yul\":4785:4916   */\n      tag_53\n      jump\t// in\n    tag_106:\n        /* \"#utility.yul\":4777:4916   */\n      swap1\n      pop\n        /* \"#utility.yul\":4504:4923   */\n      swap2\n      swap1\n      pop\n      jump\t// out\n\n    auxdata: 0xa2646970667358221220fe18a5624d52e2429b0df57f4332198efaa219b815100a1cb862d0f9e9f3297c64736f6c63430008090033\n}\n",
				"bytecode": {
					"linkReferences": {},
					"object": "608060405234801561001057600080fd5b5033600060016101000a81548173ffffffffffffffffffffffffffffffffffffffff021916908373ffffffffffffffffffffffffffffffffffffffff160217905550610490806100616000396000f3fe608060405234801561001057600080fd5b506004361061004c5760003560e01c80631b54ac80146100515780632b23461f1461006d5780638da5cb5b1461009d578063ec73cab5146100bb575b600080fd5b61006b60048036038101906100669190610258565b6100d9565b005b61008760048036038101906100829190610298565b6101a9565b60405161009491906102d4565b60405180910390f35b6100a56101c1565b6040516100b29190610330565b60405180910390f35b6100c36101e7565b6040516100d091906103c2565b60405180910390f35b600060019054906101000a900473ffffffffffffffffffffffffffffffffffffffff1673ffffffffffffffffffffffffffffffffffffffff163373ffffffffffffffffffffffffffffffffffffffff1614610169576040517f08c379a00000000000000000000000000000000000000000000000000000000081526004016101609061043a565b60405180910390fd5b80600160008460048111156101815761018061034b565b5b60048111156101935761019261034b565b5b8152602001908152602001600020819055505050565b60016020528060005260406000206000915090505481565b600060019054906101000a900473ffffffffffffffffffffffffffffffffffffffff1681565b60008054906101000a900460ff1681565b600080fd5b6005811061020a57600080fd5b50565b60008135905061021c816101fd565b92915050565b6000819050919050565b61023581610222565b811461024057600080fd5b50565b6000813590506102528161022c565b92915050565b6000806040838503121561026f5761026e6101f8565b5b600061027d8582860161020d565b925050602061028e85828601610243565b9150509250929050565b6000602082840312156102ae576102ad6101f8565b5b60006102bc8482850161020d565b91505092915050565b6102ce81610222565b82525050565b60006020820190506102e960008301846102c5565b92915050565b600073ffffffffffffffffffffffffffffffffffffffff82169050919050565b600061031a826102ef565b9050919050565b61032a8161030f565b82525050565b60006020820190506103456000830184610321565b92915050565b7f4e487b7100000000000000000000000000000000000000000000000000000000600052602160045260246000fd5b6005811061038b5761038a61034b565b5b50565b600081905061039c8261037a565b919050565b60006103ac8261038e565b9050919050565b6103bc816103a1565b82525050565b60006020820190506103d760008301846103b3565b92915050565b600082825260208201905092915050565b7f4f6e6c79206f776e65722063616e2067697665207368656c7465722000000000600082015250565b6000610424601c836103dd565b915061042f826103ee565b602082019050919050565b6000602082019050818103600083015261045381610417565b905091905056fea2646970667358221220fe18a5624d52e2429b0df57f4332198efaa219b815100a1cb862d0f9e9f3297c64736f6c63430008090033",
					"opcodes": "PUSH1 0x80 PUSH1 0x40 MSTORE CALLVALUE DUP1 ISZERO PUSH2 0x10 JUMPI PUSH1 0x0 DUP1 REVERT JUMPDEST POP CALLER PUSH1 0x0 PUSH1 0x1 PUSH2 0x100 EXP DUP2 SLOAD DUP2 PUSH20 0xFFFFFFFFFFFFFFFFFFFFFFFFFFFFFFFFFFFFFFFF MUL NOT AND SWAP1 DUP4 PUSH20 0xFFFFFFFFFFFFFFFFFFFFFFFFFFFFFFFFFFFFFFFF AND MUL OR SWAP1 SSTORE POP PUSH2 0x490 DUP1 PUSH2 0x61 PUSH1 0x0 CODECOPY PUSH1 0x0 RETURN INVALID PUSH1 0x80 PUSH1 0x40 MSTORE CALLVALUE DUP1 ISZERO PUSH2 0x10 JUMPI PUSH1 0x0 DUP1 REVERT JUMPDEST POP PUSH1 0x4 CALLDATASIZE LT PUSH2 0x4C JUMPI PUSH1 0x0 CALLDATALOAD PUSH1 0xE0 SHR DUP1 PUSH4 0x1B54AC80 EQ PUSH2 0x51 JUMPI DUP1 PUSH4 0x2B23461F EQ PUSH2 0x6D JUMPI DUP1 PUSH4 0x8DA5CB5B EQ PUSH2 0x9D JUMPI DUP1 PUSH4 0xEC73CAB5 EQ PUSH2 0xBB JUMPI JUMPDEST PUSH1 0x0 DUP1 REVERT JUMPDEST PUSH2 0x6B PUSH1 0x4 DUP1 CALLDATASIZE SUB DUP2 ADD SWAP1 PUSH2 0x66 SWAP2 SWAP1 PUSH2 0x258 JUMP JUMPDEST PUSH2 0xD9 JUMP JUMPDEST STOP JUMPDEST PUSH2 0x87 PUSH1 0x4 DUP1 CALLDATASIZE SUB DUP2 ADD SWAP1 PUSH2 0x82 SWAP2 SWAP1 PUSH2 0x298 JUMP JUMPDEST PUSH2 0x1A9 JUMP JUMPDEST PUSH1 0x40 MLOAD PUSH2 0x94 SWAP2 SWAP1 PUSH2 0x2D4 JUMP JUMPDEST PUSH1 0x40 MLOAD DUP1 SWAP2 SUB SWAP1 RETURN JUMPDEST PUSH2 0xA5 PUSH2 0x1C1 JUMP JUMPDEST PUSH1 0x40 MLOAD PUSH2 0xB2 SWAP2 SWAP1 PUSH2 0x330 JUMP JUMPDEST PUSH1 0x40 MLOAD DUP1 SWAP2 SUB SWAP1 RETURN JUMPDEST PUSH2 0xC3 PUSH2 0x1E7 JUMP JUMPDEST PUSH1 0x40 MLOAD PUSH2 0xD0 SWAP2 SWAP1 PUSH2 0x3C2 JUMP JUMPDEST PUSH1 0x40 MLOAD DUP1 SWAP2 SUB SWAP1 RETURN JUMPDEST PUSH1 0x0 PUSH1 0x1 SWAP1 SLOAD SWAP1 PUSH2 0x100 EXP SWAP1 DIV PUSH20 0xFFFFFFFFFFFFFFFFFFFFFFFFFFFFFFFFFFFFFFFF AND PUSH20 0xFFFFFFFFFFFFFFFFFFFFFFFFFFFFFFFFFFFFFFFF AND CALLER PUSH20 0xFFFFFFFFFFFFFFFFFFFFFFFFFFFFFFFFFFFFFFFF AND EQ PUSH2 0x169 JUMPI PUSH1 0x40 MLOAD PUSH32 0x8C379A000000000000000000000000000000000000000000000000000000000 DUP2 MSTORE PUSH1 0x4 ADD PUSH2 0x160 SWAP1 PUSH2 0x43A JUMP JUMPDEST PUSH1 0x40 MLOAD DUP1 SWAP2 SUB SWAP1 REVERT JUMPDEST DUP1 PUSH1 0x1 PUSH1 0x0 DUP5 PUSH1 0x4 DUP2 GT ISZERO PUSH2 0x181 JUMPI PUSH2 0x180 PUSH2 0x34B JUMP JUMPDEST JUMPDEST PUSH1 0x4 DUP2 GT ISZERO PUSH2 0x193 JUMPI PUSH2 0x192 PUSH2 0x34B JUMP JUMPDEST JUMPDEST DUP2 MSTORE PUSH1 0x20 ADD SWAP1 DUP2 MSTORE PUSH1 0x20 ADD PUSH1 0x0 KECCAK256 DUP2 SWAP1 SSTORE POP POP POP JUMP JUMPDEST PUSH1 0x1 PUSH1 0x20 MSTORE DUP1 PUSH1 0x0 MSTORE PUSH1 0x40 PUSH1 0x0 KECCAK256 PUSH1 0x0 SWAP2 POP SWAP1 POP SLOAD DUP2 JUMP JUMPDEST PUSH1 0x0 PUSH1 0x1 SWAP1 SLOAD SWAP1 PUSH2 0x100 EXP SWAP1 DIV PUSH20 0xFFFFFFFFFFFFFFFFFFFFFFFFFFFFFFFFFFFFFFFF AND DUP2 JUMP JUMPDEST PUSH1 0x0 DUP1 SLOAD SWAP1 PUSH2 0x100 EXP SWAP1 DIV PUSH1 0xFF AND DUP2 JUMP JUMPDEST PUSH1 0x0 DUP1 REVERT JUMPDEST PUSH1 0x5 DUP2 LT PUSH2 0x20A JUMPI PUSH1 0x0 DUP1 REVERT JUMPDEST POP JUMP JUMPDEST PUSH1 0x0 DUP2 CALLDATALOAD SWAP1 POP PUSH2 0x21C DUP2 PUSH2 0x1FD JUMP JUMPDEST SWAP3 SWAP2 POP POP JUMP JUMPDEST PUSH1 0x0 DUP2 SWAP1 POP SWAP2 SWAP1 POP JUMP JUMPDEST PUSH2 0x235 DUP2 PUSH2 0x222 JUMP JUMPDEST DUP2 EQ PUSH2 0x240 JUMPI PUSH1 0x0 DUP1 REVERT JUMPDEST POP JUMP JUMPDEST PUSH1 0x0 DUP2 CALLDATALOAD SWAP1 POP PUSH2 0x252 DUP2 PUSH2 0x22C JUMP JUMPDEST SWAP3 SWAP2 POP POP JUMP JUMPDEST PUSH1 0x0 DUP1 PUSH1 0x40 DUP4 DUP6 SUB SLT ISZERO PUSH2 0x26F JUMPI PUSH2 0x26E PUSH2 0x1F8 JUMP JUMPDEST JUMPDEST PUSH1 0x0 PUSH2 0x27D DUP6 DUP3 DUP7 ADD PUSH2 0x20D JUMP JUMPDEST SWAP3 POP POP PUSH1 0x20 PUSH2 0x28E DUP6 DUP3 DUP7 ADD PUSH2 0x243 JUMP JUMPDEST SWAP2 POP POP SWAP3 POP SWAP3 SWAP1 POP JUMP JUMPDEST PUSH1 0x0 PUSH1 0x20 DUP3 DUP5 SUB SLT ISZERO PUSH2 0x2AE JUMPI PUSH2 0x2AD PUSH2 0x1F8 JUMP JUMPDEST JUMPDEST PUSH1 0x0 PUSH2 0x2BC DUP5 DUP3 DUP6 ADD PUSH2 0x20D JUMP JUMPDEST SWAP2 POP POP SWAP3 SWAP2 POP POP JUMP JUMPDEST PUSH2 0x2CE DUP2 PUSH2 0x222 JUMP JUMPDEST DUP3 MSTORE POP POP JUMP JUMPDEST PUSH1 0x0 PUSH1 0x20 DUP3 ADD SWAP1 POP PUSH2 0x2E9 PUSH1 0x0 DUP4 ADD DUP5 PUSH2 0x2C5 JUMP JUMPDEST SWAP3 SWAP2 POP POP JUMP JUMPDEST PUSH1 0x0 PUSH20 0xFFFFFFFFFFFFFFFFFFFFFFFFFFFFFFFFFFFFFFFF DUP3 AND SWAP1 POP SWAP2 SWAP1 POP JUMP JUMPDEST PUSH1 0x0 PUSH2 0x31A DUP3 PUSH2 0x2EF JUMP JUMPDEST SWAP1 POP SWAP2 SWAP1 POP JUMP JUMPDEST PUSH2 0x32A DUP2 PUSH2 0x30F JUMP JUMPDEST DUP3 MSTORE POP POP JUMP JUMPDEST PUSH1 0x0 PUSH1 0x20 DUP3 ADD SWAP1 POP PUSH2 0x345 PUSH1 0x0 DUP4 ADD DUP5 PUSH2 0x321 JUMP JUMPDEST SWAP3 SWAP2 POP POP JUMP JUMPDEST PUSH32 0x4E487B7100000000000000000000000000000000000000000000000000000000 PUSH1 0x0 MSTORE PUSH1 0x21 PUSH1 0x4 MSTORE PUSH1 0x24 PUSH1 0x0 REVERT JUMPDEST PUSH1 0x5 DUP2 LT PUSH2 0x38B JUMPI PUSH2 0x38A PUSH2 0x34B JUMP JUMPDEST JUMPDEST POP JUMP JUMPDEST PUSH1 0x0 DUP2 SWAP1 POP PUSH2 0x39C DUP3 PUSH2 0x37A JUMP JUMPDEST SWAP2 SWAP1 POP JUMP JUMPDEST PUSH1 0x0 PUSH2 0x3AC DUP3 PUSH2 0x38E JUMP JUMPDEST SWAP1 POP SWAP2 SWAP1 POP JUMP JUMPDEST PUSH2 0x3BC DUP2 PUSH2 0x3A1 JUMP JUMPDEST DUP3 MSTORE POP POP JUMP JUMPDEST PUSH1 0x0 PUSH1 0x20 DUP3 ADD SWAP1 POP PUSH2 0x3D7 PUSH1 0x0 DUP4 ADD DUP5 PUSH2 0x3B3 JUMP JUMPDEST SWAP3 SWAP2 POP POP JUMP JUMPDEST PUSH1 0x0 DUP3 DUP3 MSTORE PUSH1 0x20 DUP3 ADD SWAP1 POP SWAP3 SWAP2 POP POP JUMP JUMPDEST PUSH32 0x4F6E6C79206F776E65722063616E2067697665207368656C7465722000000000 PUSH1 0x0 DUP3 ADD MSTORE POP JUMP JUMPDEST PUSH1 0x0 PUSH2 0x424 PUSH1 0x1C DUP4 PUSH2 0x3DD JUMP JUMPDEST SWAP2 POP PUSH2 0x42F DUP3 PUSH2 0x3EE JUMP JUMPDEST PUSH1 0x20 DUP3 ADD SWAP1 POP SWAP2 SWAP1 POP JUMP JUMPDEST PUSH1 0x0 PUSH1 0x20 DUP3 ADD SWAP1 POP DUP2 DUP2 SUB PUSH1 0x0 DUP4 ADD MSTORE PUSH2 0x453 DUP2 PUSH2 0x417 JUMP JUMPDEST SWAP1 POP SWAP2 SWAP1 POP JUMP INVALID LOG2 PUSH5 0x6970667358 0x22 SLT KECCAK256 INVALID XOR 0xA5 PUSH3 0x4D52E2 TIMESTAMP SWAP12 0xD CREATE2 PUSH32 0x4332198EFAA219B815100A1CB862D0F9E9F3297C64736F6C6343000809003300 "
				},
				"gasEstimates": {
					"creation": {
						"codeDepositCost": "233600",
						"executionCost": "24591",
						"totalCost": "258191"
					},
					"external": {
						"add(uint8,uint256)": "24978",
						"animalKind()": "2601",
						"animals(uint8)": "2722",
						"owner()": "2586"
					}
				},
				"methodIdentifiers": {
					"add(uint8,uint256)": "1b54ac80",
					"animalKind()": "ec73cab5",
					"animals(uint8)": "2b23461f",
					"owner()": "8da5cb5b"
				}
			},
			"storageLayout": {
				"storage": [
					{
						"astId": 10,
						"contract": "PetSanctuary.sol:PetSanctuary",
						"label": "animalKind",
						"offset": 0,
						"slot": "0",
						"type": "t_enum(AnimalKind)7"
					},
					{
						"astId": 12,
						"contract": "PetSanctuary.sol:PetSanctuary",
						"label": "owner",
						"offset": 1,
						"slot": "0",
						"type": "t_address"
					},
					{
						"astId": 17,
						"contract": "PetSanctuary.sol:PetSanctuary",
						"label": "animals",
						"offset": 0,
						"slot": "1",
						"type": "t_mapping(t_enum(AnimalKind)7,t_uint256)"
					}
				],
				"types": {
					"t_address": {
						"encoding": "inplace",
						"label": "address",
						"numberOfBytes": "20"
					},
					"t_enum(AnimalKind)7": {
						"encoding": "inplace",
						"label": "enum PetSanctuary.AnimalKind",
						"numberOfBytes": "1"
					},
					"t_mapping(t_enum(AnimalKind)7,t_uint256)": {
						"encoding": "mapping",
						"key": "t_enum(AnimalKind)7",
						"label": "mapping(enum PetSanctuary.AnimalKind => uint256)",
						"numberOfBytes": "32",
						"value": "t_uint256"
					},
					"t_uint256": {
						"encoding": "inplace",
						"label": "uint256",
						"numberOfBytes": "32"
					}
				}
			},
			"userdoc": {
				"kind": "user",
				"methods": {},
				"version": 1
			}
		}
	}
}