{
	"Bank.sol": {
		"Bank": {
			"abi": [
				{
					"inputs": [],
					"stateMutability": "payable",
					"type": "constructor"
				},
				{
					"inputs": [],
					"name": "depositMoney",
					"outputs": [],
					"stateMutability": "payable",
					"type": "function"
				},
				{
					"inputs": [],
					"name": "openAccount",
					"outputs": [
						{
							"internalType": "uint256",
							"name": "",
							"type": "uint256"
						}
					],
					"stateMutability": "payable",
					"type": "function"
				}
			],
			"devdoc": {
				"kind": "dev",
				"methods": {},
				"version": 1
			},
			"evm": {
				"assembly": "    /* \"Bank.sol\":71:636  contract Bank{... */\n  mstore(0x40, 0x80)\n    /* \"Bank.sol\":220:228  15 ether */\n  0xd02ab486cedc0000\n    /* \"Bank.sol\":207:216  msg.value */\n  callvalue\n    /* \"Bank.sol\":207:228  msg.value == 15 ether */\n  eq\n    /* \"Bank.sol\":199:278  require(msg.value == 15 ether, 'Initial 15 ether required for contract to run') */\n  tag_3\n  jumpi\n  mload(0x40)\n  0x08c379a000000000000000000000000000000000000000000000000000000000\n  dup2\n  mstore\n  0x04\n  add\n  tag_4\n  swap1\n  tag_5\n  jump\t// in\ntag_4:\n  mload(0x40)\n  dup1\n  swap2\n  sub\n  swap1\n  revert\ntag_3:\n    /* \"Bank.sol\":294:304  msg.sender */\n  caller\n    /* \"Bank.sol\":288:293  owner */\n  0x02\n  0x00\n    /* \"Bank.sol\":288:304  owner=msg.sender */\n  0x0100\n  exp\n  dup2\n  sload\n  dup2\n  0xffffffffffffffffffffffffffffffffffffffff\n  mul\n  not\n  and\n  swap1\n  dup4\n  0xffffffffffffffffffffffffffffffffffffffff\n  and\n  mul\n  or\n  swap1\n  sstore\n  pop\n    /* \"Bank.sol\":71:636  contract Bank{... */\n  jump(tag_6)\n    /* \"#utility.yul\":7:176   */\ntag_7:\n    /* \"#utility.yul\":91:102   */\n  0x00\n    /* \"#utility.yul\":125:131   */\n  dup3\n    /* \"#utility.yul\":120:123   */\n  dup3\n    /* \"#utility.yul\":113:132   */\n  mstore\n    /* \"#utility.yul\":165:169   */\n  0x20\n    /* \"#utility.yul\":160:163   */\n  dup3\n    /* \"#utility.yul\":156:170   */\n  add\n    /* \"#utility.yul\":141:170   */\n  swap1\n  pop\n    /* \"#utility.yul\":7:176   */\n  swap3\n  swap2\n  pop\n  pop\n  jump\t// out\n    /* \"#utility.yul\":182:414   */\ntag_8:\n    /* \"#utility.yul\":322:356   */\n  0x496e697469616c20313520657468657220726571756972656420666f7220636f\n    /* \"#utility.yul\":318:319   */\n  0x00\n    /* \"#utility.yul\":310:316   */\n  dup3\n    /* \"#utility.yul\":306:320   */\n  add\n    /* \"#utility.yul\":299:357   */\n  mstore\n    /* \"#utility.yul\":391:406   */\n  0x6e747261637420746f2072756e00000000000000000000000000000000000000\n    /* \"#utility.yul\":386:388   */\n  0x20\n    /* \"#utility.yul\":378:384   */\n  dup3\n    /* \"#utility.yul\":374:389   */\n  add\n    /* \"#utility.yul\":367:407   */\n  mstore\n    /* \"#utility.yul\":182:414   */\n  pop\n  jump\t// out\n    /* \"#utility.yul\":420:786   */\ntag_9:\n    /* \"#utility.yul\":562:565   */\n  0x00\n    /* \"#utility.yul\":583:650   */\n  tag_14\n    /* \"#utility.yul\":647:649   */\n  0x2d\n    /* \"#utility.yul\":642:645   */\n  dup4\n    /* \"#utility.yul\":583:650   */\n  tag_7\n  jump\t// in\ntag_14:\n    /* \"#utility.yul\":576:650   */\n  swap2\n  pop\n    /* \"#utility.yul\":659:752   */\n  tag_15\n    /* \"#utility.yul\":748:751   */\n  dup3\n    /* \"#utility.yul\":659:752   */\n  tag_8\n  jump\t// in\ntag_15:\n    /* \"#utility.yul\":777:779   */\n  0x40\n    /* \"#utility.yul\":772:775   */\n  dup3\n    /* \"#utility.yul\":768:780   */\n  add\n    /* \"#utility.yul\":761:780   */\n  swap1\n  pop\n    /* \"#utility.yul\":420:786   */\n  swap2\n  swap1\n  pop\n  jump\t// out\n    /* \"#utility.yul\":792:1211   */\ntag_5:\n    /* \"#utility.yul\":958:962   */\n  0x00\n    /* \"#utility.yul\":996:998   */\n  0x20\n    /* \"#utility.yul\":985:994   */\n  dup3\n    /* \"#utility.yul\":981:999   */\n  add\n    /* \"#utility.yul\":973:999   */\n  swap1\n  pop\n    /* \"#utility.yul\":1045:1054   */\n  dup2\n    /* \"#utility.yul\":1039:1043   */\n  dup2\n    /* \"#utility.yul\":1035:1055   */\n  sub\n    /* \"#utility.yul\":1031:1032   */\n  0x00\n    /* \"#utility.yul\":1020:1029   */\n  dup4\n    /* \"#utility.yul\":1016:1033   */\n  add\n    /* \"#utility.yul\":1009:1056   */\n  mstore\n    /* \"#utility.yul\":1073:1204   */\n  tag_17\n    /* \"#utility.yul\":1199:1203   */\n  dup2\n    /* \"#utility.yul\":1073:1204   */\n  tag_9\n  jump\t// in\ntag_17:\n    /* \"#utility.yul\":1065:1204   */\n  swap1\n  pop\n    /* \"#utility.yul\":792:1211   */\n  swap2\n  swap1\n  pop\n  jump\t// out\n    /* \"Bank.sol\":71:636  contract Bank{... */\ntag_6:\n  dataSize(sub_0)\n  dup1\n  dataOffset(sub_0)\n  0x00\n  codecopy\n  0x00\n  return\nstop\n\nsub_0: assembly {\n        /* \"Bank.sol\":71:636  contract Bank{... */\n      mstore(0x40, 0x80)\n      jumpi(tag_1, lt(calldatasize, 0x04))\n      shr(0xe0, calldataload(0x00))\n      dup1\n      0x16c05aa2\n      eq\n      tag_2\n      jumpi\n      dup1\n      0x292eb75d\n      eq\n      tag_3\n      jumpi\n    tag_1:\n      0x00\n      dup1\n      revert\n        /* \"Bank.sol\":580:634  function depositMoney() public payable{... */\n    tag_2:\n      tag_4\n      tag_5\n      jump\t// in\n    tag_4:\n      stop\n        /* \"Bank.sol\":316:575  function openAccount() public payable returns(uint) {... */\n    tag_3:\n      tag_6\n      tag_7\n      jump\t// in\n    tag_6:\n      mload(0x40)\n      tag_8\n      swap2\n      swap1\n      tag_9\n      jump\t// in\n    tag_8:\n      mload(0x40)\n      dup1\n      swap2\n      sub\n      swap1\n      return\n        /* \"Bank.sol\":580:634  function depositMoney() public payable{... */\n    tag_5:\n      jump\t// out\n        /* \"Bank.sol\":316:575  function openAccount() public payable returns(uint) {... */\n    tag_7:\n        /* \"Bank.sol\":362:366  uint */\n      0x00\n        /* \"Bank.sol\":392:393  3 */\n      0x03\n        /* \"Bank.sol\":381:390  userCount */\n      sload(0x01)\n        /* \"Bank.sol\":381:393  userCount<=3 */\n      gt\n        /* \"Bank.sol\":378:512  if(userCount<=3){... */\n      tag_12\n      jumpi\n        /* \"Bank.sol\":429:436  5 ether */\n      0x4563918244f40000\n        /* \"Bank.sol\":408:415  balance */\n      0x00\n        /* \"Bank.sol\":408:427  balance[msg.sender] */\n      dup1\n        /* \"Bank.sol\":416:426  msg.sender */\n      caller\n        /* \"Bank.sol\":408:427  balance[msg.sender] */\n      0xffffffffffffffffffffffffffffffffffffffff\n      and\n      0xffffffffffffffffffffffffffffffffffffffff\n      and\n      dup2\n      mstore\n      0x20\n      add\n      swap1\n      dup2\n      mstore\n      0x20\n      add\n      0x00\n      keccak256\n        /* \"Bank.sol\":408:436  balance[msg.sender]= 5 ether */\n      dup2\n      swap1\n      sstore\n      pop\n        /* \"Bank.sol\":378:512  if(userCount<=3){... */\n      jump(tag_13)\n    tag_12:\n        /* \"Bank.sol\":494:501  0 ether */\n      0x00\n        /* \"Bank.sol\":474:481  balance */\n      dup1\n        /* \"Bank.sol\":474:493  balance[msg.sender] */\n      0x00\n        /* \"Bank.sol\":482:492  msg.sender */\n      caller\n        /* \"Bank.sol\":474:493  balance[msg.sender] */\n      0xffffffffffffffffffffffffffffffffffffffff\n      and\n      0xffffffffffffffffffffffffffffffffffffffff\n      and\n      dup2\n      mstore\n      0x20\n      add\n      swap1\n      dup2\n      mstore\n      0x20\n      add\n      0x00\n      keccak256\n        /* \"Bank.sol\":474:501  balance[msg.sender]=0 ether */\n      dup2\n      swap1\n      sstore\n      pop\n        /* \"Bank.sol\":378:512  if(userCount<=3){... */\n    tag_13:\n        /* \"Bank.sol\":521:530  userCount */\n      0x01\n      0x00\n        /* \"Bank.sol\":521:532  userCount++ */\n      dup2\n      sload\n      dup1\n      swap3\n      swap2\n      swap1\n      tag_14\n      swap1\n      tag_15\n      jump\t// in\n    tag_14:\n      swap2\n      swap1\n      pop\n      sstore\n      pop\n        /* \"Bank.sol\":549:556  balance */\n      0x00\n        /* \"Bank.sol\":549:568  balance[msg.sender] */\n      dup1\n        /* \"Bank.sol\":557:567  msg.sender */\n      caller\n        /* \"Bank.sol\":549:568  balance[msg.sender] */\n      0xffffffffffffffffffffffffffffffffffffffff\n      and\n      0xffffffffffffffffffffffffffffffffffffffff\n      and\n      dup2\n      mstore\n      0x20\n      add\n      swap1\n      dup2\n      mstore\n      0x20\n      add\n      0x00\n      keccak256\n      sload\n        /* \"Bank.sol\":542:568  return balance[msg.sender] */\n      swap1\n      pop\n        /* \"Bank.sol\":316:575  function openAccount() public payable returns(uint) {... */\n      swap1\n      jump\t// out\n        /* \"#utility.yul\":7:84   */\n    tag_16:\n        /* \"#utility.yul\":44:51   */\n      0x00\n        /* \"#utility.yul\":73:78   */\n      dup2\n        /* \"#utility.yul\":62:78   */\n      swap1\n      pop\n        /* \"#utility.yul\":7:84   */\n      swap2\n      swap1\n      pop\n      jump\t// out\n        /* \"#utility.yul\":90:208   */\n    tag_17:\n        /* \"#utility.yul\":177:201   */\n      tag_22\n        /* \"#utility.yul\":195:200   */\n      dup2\n        /* \"#utility.yul\":177:201   */\n      tag_16\n      jump\t// in\n    tag_22:\n        /* \"#utility.yul\":172:175   */\n      dup3\n        /* \"#utility.yul\":165:202   */\n      mstore\n        /* \"#utility.yul\":90:208   */\n      pop\n      pop\n      jump\t// out\n        /* \"#utility.yul\":214:436   */\n    tag_9:\n        /* \"#utility.yul\":307:311   */\n      0x00\n        /* \"#utility.yul\":345:347   */\n      0x20\n        /* \"#utility.yul\":334:343   */\n      dup3\n        /* \"#utility.yul\":330:348   */\n      add\n        /* \"#utility.yul\":322:348   */\n      swap1\n      pop\n        /* \"#utility.yul\":358:429   */\n      tag_24\n        /* \"#utility.yul\":426:427   */\n      0x00\n        /* \"#utility.yul\":415:424   */\n      dup4\n        /* \"#utility.yul\":411:428   */\n      add\n        /* \"#utility.yul\":402:408   */\n      dup5\n        /* \"#utility.yul\":358:429   */\n      tag_17\n      jump\t// in\n    tag_24:\n        /* \"#utility.yul\":214:436   */\n      swap3\n      swap2\n      pop\n      pop\n      jump\t// out\n        /* \"#utility.yul\":442:622   */\n    tag_18:\n        /* \"#utility.yul\":490:567   */\n      0x4e487b7100000000000000000000000000000000000000000000000000000000\n        /* \"#utility.yul\":487:488   */\n      0x00\n        /* \"#utility.yul\":480:568   */\n      mstore\n        /* \"#utility.yul\":587:591   */\n      0x11\n        /* \"#utility.yul\":584:585   */\n      0x04\n        /* \"#utility.yul\":577:592   */\n      mstore\n        /* \"#utility.yul\":611:615   */\n      0x24\n        /* \"#utility.yul\":608:609   */\n      0x00\n        /* \"#utility.yul\":601:616   */\n      revert\n        /* \"#utility.yul\":628:861   */\n    tag_15:\n        /* \"#utility.yul\":667:670   */\n      0x00\n        /* \"#utility.yul\":690:714   */\n      tag_27\n        /* \"#utility.yul\":708:713   */\n      dup3\n        /* \"#utility.yul\":690:714   */\n      tag_16\n      jump\t// in\n    tag_27:\n        /* \"#utility.yul\":681:714   */\n      swap2\n      pop\n        /* \"#utility.yul\":736:802   */\n      0xffffffffffffffffffffffffffffffffffffffffffffffffffffffffffffffff\n        /* \"#utility.yul\":729:734   */\n      dup3\n        /* \"#utility.yul\":726:803   */\n      eq\n        /* \"#utility.yul\":723:826   */\n      iszero\n      tag_28\n      jumpi\n        /* \"#utility.yul\":806:824   */\n      tag_29\n      tag_18\n      jump\t// in\n    tag_29:\n        /* \"#utility.yul\":723:826   */\n    tag_28:\n        /* \"#utility.yul\":853:854   */\n      0x01\n        /* \"#utility.yul\":846:851   */\n      dup3\n        /* \"#utility.yul\":842:855   */\n      add\n        /* \"#utility.yul\":835:855   */\n      swap1\n      pop\n        /* \"#utility.yul\":628:861   */\n      swap2\n      swap1\n      pop\n      jump\t// out\n\n    auxdata: 0xa2646970667358221220b86f4bcd02eab335c5ea3c1370077c9a694b343619b07ff8f24820f0a4cdbad164736f6c63430008080033\n}\n",
				"bytecode": {
					"linkReferences": {},
					"object": "608060405267d02ab486cedc0000341461004e576040517f08c379a000000000000000000000000000000000000000000000000000000000815260040161004590610117565b60405180910390fd5b33600260006101000a81548173ffffffffffffffffffffffffffffffffffffffff021916908373ffffffffffffffffffffffffffffffffffffffff160217905550610137565b600082825260208201905092915050565b7f496e697469616c20313520657468657220726571756972656420666f7220636f60008201527f6e747261637420746f2072756e00000000000000000000000000000000000000602082015250565b6000610101602d83610094565b915061010c826100a5565b604082019050919050565b60006020820190508181036000830152610130816100f4565b9050919050565b610237806101466000396000f3fe6080604052600436106100295760003560e01c806316c05aa21461002e578063292eb75d14610038575b600080fd5b610036610056565b005b610040610058565b60405161004d919061016e565b60405180910390f35b565b60006003600154116100b457674563918244f400006000803373ffffffffffffffffffffffffffffffffffffffff1673ffffffffffffffffffffffffffffffffffffffff168152602001908152602001600020819055506100f9565b60008060003373ffffffffffffffffffffffffffffffffffffffff1673ffffffffffffffffffffffffffffffffffffffff168152602001908152602001600020819055505b6001600081548092919061010c906101b8565b91905055506000803373ffffffffffffffffffffffffffffffffffffffff1673ffffffffffffffffffffffffffffffffffffffff16815260200190815260200160002054905090565b6000819050919050565b61016881610155565b82525050565b6000602082019050610183600083018461015f565b92915050565b7f4e487b7100000000000000000000000000000000000000000000000000000000600052601160045260246000fd5b60006101c382610155565b91507fffffffffffffffffffffffffffffffffffffffffffffffffffffffffffffffff8214156101f6576101f5610189565b5b60018201905091905056fea2646970667358221220b86f4bcd02eab335c5ea3c1370077c9a694b343619b07ff8f24820f0a4cdbad164736f6c63430008080033",
					"opcodes": "PUSH1 0x80 PUSH1 0x40 MSTORE PUSH8 0xD02AB486CEDC0000 CALLVALUE EQ PUSH2 0x4E JUMPI PUSH1 0x40 MLOAD PUSH32 0x8C379A000000000000000000000000000000000000000000000000000000000 DUP2 MSTORE PUSH1 0x4 ADD PUSH2 0x45 SWAP1 PUSH2 0x117 JUMP JUMPDEST PUSH1 0x40 MLOAD DUP1 SWAP2 SUB SWAP1 REVERT JUMPDEST CALLER PUSH1 0x2 PUSH1 0x0 PUSH2 0x100 EXP DUP2 SLOAD DUP2 PUSH20 0xFFFFFFFFFFFFFFFFFFFFFFFFFFFFFFFFFFFFFFFF MUL NOT AND SWAP1 DUP4 PUSH20 0xFFFFFFFFFFFFFFFFFFFFFFFFFFFFFFFFFFFFFFFF AND MUL OR SWAP1 SSTORE POP PUSH2 0x137 JUMP JUMPDEST PUSH1 0x0 DUP3 DUP3 MSTORE PUSH1 0x20 DUP3 ADD SWAP1 POP SWAP3 SWAP2 POP POP JUMP JUMPDEST PUSH32 0x496E697469616C20313520657468657220726571756972656420666F7220636F PUSH1 0x0 DUP3 ADD MSTORE PUSH32 0x6E747261637420746F2072756E00000000000000000000000000000000000000 PUSH1 0x20 DUP3 ADD MSTORE POP JUMP JUMPDEST PUSH1 0x0 PUSH2 0x101 PUSH1 0x2D DUP4 PUSH2 0x94 JUMP JUMPDEST SWAP2 POP PUSH2 0x10C DUP3 PUSH2 0xA5 JUMP JUMPDEST PUSH1 0x40 DUP3 ADD SWAP1 POP SWAP2 SWAP1 POP JUMP JUMPDEST PUSH1 0x0 PUSH1 0x20 DUP3 ADD SWAP1 POP DUP2 DUP2 SUB PUSH1 0x0 DUP4 ADD MSTORE PUSH2 0x130 DUP2 PUSH2 0xF4 JUMP JUMPDEST SWAP1 POP SWAP2 SWAP1 POP JUMP JUMPDEST PUSH2 0x237 DUP1 PUSH2 0x146 PUSH1 0x0 CODECOPY PUSH1 0x0 RETURN INVALID PUSH1 0x80 PUSH1 0x40 MSTORE PUSH1 0x4 CALLDATASIZE LT PUSH2 0x29 JUMPI PUSH1 0x0 CALLDATALOAD PUSH1 0xE0 SHR DUP1 PUSH4 0x16C05AA2 EQ PUSH2 0x2E JUMPI DUP1 PUSH4 0x292EB75D EQ PUSH2 0x38 JUMPI JUMPDEST PUSH1 0x0 DUP1 REVERT JUMPDEST PUSH2 0x36 PUSH2 0x56 JUMP JUMPDEST STOP JUMPDEST PUSH2 0x40 PUSH2 0x58 JUMP JUMPDEST PUSH1 0x40 MLOAD PUSH2 0x4D SWAP2 SWAP1 PUSH2 0x16E JUMP JUMPDEST PUSH1 0x40 MLOAD DUP1 SWAP2 SUB SWAP1 RETURN JUMPDEST JUMP JUMPDEST PUSH1 0x0 PUSH1 0x3 PUSH1 0x1 SLOAD GT PUSH2 0xB4 JUMPI PUSH8 0x4563918244F40000 PUSH1 0x0 DUP1 CALLER PUSH20 0xFFFFFFFFFFFFFFFFFFFFFFFFFFFFFFFFFFFFFFFF AND PUSH20 0xFFFFFFFFFFFFFFFFFFFFFFFFFFFFFFFFFFFFFFFF AND DUP2 MSTORE PUSH1 0x20 ADD SWAP1 DUP2 MSTORE PUSH1 0x20 ADD PUSH1 0x0 KECCAK256 DUP2 SWAP1 SSTORE POP PUSH2 0xF9 JUMP JUMPDEST PUSH1 0x0 DUP1 PUSH1 0x0 CALLER PUSH20 0xFFFFFFFFFFFFFFFFFFFFFFFFFFFFFFFFFFFFFFFF AND PUSH20 0xFFFFFFFFFFFFFFFFFFFFFFFFFFFFFFFFFFFFFFFF AND DUP2 MSTORE PUSH1 0x20 ADD SWAP1 DUP2 MSTORE PUSH1 0x20 ADD PUSH1 0x0 KECCAK256 DUP2 SWAP1 SSTORE POP JUMPDEST PUSH1 0x1 PUSH1 0x0 DUP2 SLOAD DUP1 SWAP3 SWAP2 SWAP1 PUSH2 0x10C SWAP1 PUSH2 0x1B8 JUMP JUMPDEST SWAP2 SWAP1 POP SSTORE POP PUSH1 0x0 DUP1 CALLER PUSH20 0xFFFFFFFFFFFFFFFFFFFFFFFFFFFFFFFFFFFFFFFF AND PUSH20 0xFFFFFFFFFFFFFFFFFFFFFFFFFFFFFFFFFFFFFFFF AND DUP2 MSTORE PUSH1 0x20 ADD SWAP1 DUP2 MSTORE PUSH1 0x20 ADD PUSH1 0x0 KECCAK256 SLOAD SWAP1 POP SWAP1 JUMP JUMPDEST PUSH1 0x0 DUP2 SWAP1 POP SWAP2 SWAP1 POP JUMP JUMPDEST PUSH2 0x168 DUP2 PUSH2 0x155 JUMP JUMPDEST DUP3 MSTORE POP POP JUMP JUMPDEST PUSH1 0x0 PUSH1 0x20 DUP3 ADD SWAP1 POP PUSH2 0x183 PUSH1 0x0 DUP4 ADD DUP5 PUSH2 0x15F JUMP JUMPDEST SWAP3 SWAP2 POP POP JUMP JUMPDEST PUSH32 0x4E487B7100000000000000000000000000000000000000000000000000000000 PUSH1 0x0 MSTORE PUSH1 0x11 PUSH1 0x4 MSTORE PUSH1 0x24 PUSH1 0x0 REVERT JUMPDEST PUSH1 0x0 PUSH2 0x1C3 DUP3 PUSH2 0x155 JUMP JUMPDEST SWAP2 POP PUSH32 0xFFFFFFFFFFFFFFFFFFFFFFFFFFFFFFFFFFFFFFFFFFFFFFFFFFFFFFFFFFFFFFFF DUP3 EQ ISZERO PUSH2 0x1F6 JUMPI PUSH2 0x1F5 PUSH2 0x189 JUMP JUMPDEST JUMPDEST PUSH1 0x1 DUP3 ADD SWAP1 POP SWAP2 SWAP1 POP JUMP INVALID LOG2 PUSH5 0x6970667358 0x22 SLT KECCAK256 0xB8 PUSH16 0x4BCD02EAB335C5EA3C1370077C9A694B CALLVALUE CALLDATASIZE NOT 0xB0 PUSH32 0xF8F24820F0A4CDBAD164736F6C63430008080033000000000000000000000000 "
				},
				"gasEstimates": {
					"creation": {
						"codeDepositCost": "113400",
						"executionCost": "24435",
						"totalCost": "137835"
					},
					"external": {
						"depositMoney()": "98",
						"openAccount()": "infinite"
					}
				},
				"methodIdentifiers": {
					"depositMoney()": "16c05aa2",
					"openAccount()": "292eb75d"
				}
			},
			"storageLayout": {
				"storage": [
					{
						"astId": 5,
						"contract": "Bank.sol:Bank",
						"label": "balance",
						"offset": 0,
						"slot": "0",
						"type": "t_mapping(t_address,t_uint256)"
					},
					{
						"astId": 7,
						"contract": "Bank.sol:Bank",
						"label": "userCount",
						"offset": 0,
						"slot": "1",
						"type": "t_uint256"
					},
					{
						"astId": 9,
						"contract": "Bank.sol:Bank",
						"label": "owner",
						"offset": 0,
						"slot": "2",
						"type": "t_address"
					}
				],
				"types": {
					"t_address": {
						"encoding": "inplace",
						"label": "address",
						"numberOfBytes": "20"
					},
					"t_mapping(t_address,t_uint256)": {
						"encoding": "mapping",
						"key": "t_address",
						"label": "mapping(address => uint256)",
						"numberOfBytes": "32",
						"value": "t_uint256"
					},
					"t_uint256": {
						"encoding": "inplace",
						"label": "uint256",
						"numberOfBytes": "32"
					}
				}
			},
			"userdoc": {
				"kind": "user",
				"methods": {},
				"version": 1
			}
		}
	}
}