{
	"PetSanctuary.sol": {
		"PetSanctuary": {
			"abi": [
				{
					"inputs": [],
					"stateMutability": "nonpayable",
					"type": "constructor"
				},
				{
					"inputs": [
						{
							"internalType": "enum PetSanctuary.AnimalKind",
							"name": "_animalKind",
							"type": "uint8"
						},
						{
							"internalType": "uint256",
							"name": "_howManyPieces",
							"type": "uint256"
						}
					],
					"name": "add",
					"outputs": [],
					"stateMutability": "nonpayable",
					"type": "function"
				},
				{
					"inputs": [],
					"name": "animalKind",
					"outputs": [
						{
							"internalType": "enum PetSanctuary.AnimalKind",
							"name": "",
							"type": "uint8"
						}
					],
					"stateMutability": "view",
					"type": "function"
				},
				{
					"inputs": [
						{
							"internalType": "enum PetSanctuary.AnimalKind",
							"name": "",
							"type": "uint8"
						}
					],
					"name": "animals",
					"outputs": [
						{
							"internalType": "uint256",
							"name": "",
							"type": "uint256"
						}
					],
					"stateMutability": "view",
					"type": "function"
				},
				{
					"inputs": [
						{
							"internalType": "uint256",
							"name": "personAge",
							"type": "uint256"
						},
						{
							"internalType": "string",
							"name": "_personGender",
							"type": "string"
						},
						{
							"internalType": "enum PetSanctuary.AnimalKind",
							"name": "_animalKind",
							"type": "uint8"
						}
					],
					"name": "buy",
					"outputs": [],
					"stateMutability": "nonpayable",
					"type": "function"
				},
				{
					"inputs": [
						{
							"internalType": "enum PetSanctuary.AnimalKind",
							"name": "_animalKind",
							"type": "uint8"
						}
					],
					"name": "giveBackAnimal",
					"outputs": [],
					"stateMutability": "nonpayable",
					"type": "function"
				},
				{
					"inputs": [],
					"name": "owner",
					"outputs": [
						{
							"internalType": "address",
							"name": "",
							"type": "address"
						}
					],
					"stateMutability": "view",
					"type": "function"
				}
			],
			"devdoc": {
				"kind": "dev",
				"methods": {},
				"version": 1
			},
			"evm": {
				"assembly": "    /* \"PetSanctuary.sol\":144:1866  contract PetSanctuary{... */\n  mstore(0x40, 0x80)\n    /* \"PetSanctuary.sol\":412:458  constructor(){... */\n  callvalue\n  dup1\n  iszero\n  tag_1\n  jumpi\n  0x00\n  dup1\n  revert\ntag_1:\n  pop\n    /* \"PetSanctuary.sol\":441:451  msg.sender */\n  caller\n    /* \"PetSanctuary.sol\":435:440  owner */\n  0x00\n  0x01\n    /* \"PetSanctuary.sol\":435:451  owner=msg.sender */\n  0x0100\n  exp\n  dup2\n  sload\n  dup2\n  0xffffffffffffffffffffffffffffffffffffffff\n  mul\n  not\n  and\n  swap1\n  dup4\n  0xffffffffffffffffffffffffffffffffffffffff\n  and\n  mul\n  or\n  swap1\n  sstore\n  pop\n    /* \"PetSanctuary.sol\":144:1866  contract PetSanctuary{... */\n  dataSize(sub_0)\n  dup1\n  dataOffset(sub_0)\n  0x00\n  codecopy\n  0x00\n  return\nstop\n\nsub_0: assembly {\n        /* \"PetSanctuary.sol\":144:1866  contract PetSanctuary{... */\n      mstore(0x40, 0x80)\n      callvalue\n      dup1\n      iszero\n      tag_1\n      jumpi\n      0x00\n      dup1\n      revert\n    tag_1:\n      pop\n      jumpi(tag_2, lt(calldatasize, 0x04))\n      shr(0xe0, calldataload(0x00))\n      dup1\n      0x07f93f17\n      eq\n      tag_3\n      jumpi\n      dup1\n      0x0d04d05a\n      eq\n      tag_4\n      jumpi\n      dup1\n      0x1b54ac80\n      eq\n      tag_5\n      jumpi\n      dup1\n      0x2b23461f\n      eq\n      tag_6\n      jumpi\n      dup1\n      0x8da5cb5b\n      eq\n      tag_7\n      jumpi\n      dup1\n      0xec73cab5\n      eq\n      tag_8\n      jumpi\n    tag_2:\n      0x00\n      dup1\n      revert\n        /* \"PetSanctuary.sol\":711:1613  function buy(uint256 personAge,string memory _personGender, AnimalKind _animalKind) public {... */\n    tag_3:\n      tag_9\n      0x04\n      dup1\n      calldatasize\n      sub\n      dup2\n      add\n      swap1\n      tag_10\n      swap2\n      swap1\n      tag_11\n      jump\t// in\n    tag_10:\n      tag_12\n      jump\t// in\n    tag_9:\n      stop\n        /* \"PetSanctuary.sol\":1618:1864  function giveBackAnimal(AnimalKind _animalKind) public {... */\n    tag_4:\n      tag_13\n      0x04\n      dup1\n      calldatasize\n      sub\n      dup2\n      add\n      swap1\n      tag_14\n      swap2\n      swap1\n      tag_15\n      jump\t// in\n    tag_14:\n      tag_16\n      jump\t// in\n    tag_13:\n      stop\n        /* \"PetSanctuary.sol\":576:706  function add(AnimalKind _animalKind, uint256 _howManyPieces) onlyOwner public {... */\n    tag_5:\n      tag_17\n      0x04\n      dup1\n      calldatasize\n      sub\n      dup2\n      add\n      swap1\n      tag_18\n      swap2\n      swap1\n      tag_19\n      jump\t// in\n    tag_18:\n      tag_20\n      jump\t// in\n    tag_17:\n      stop\n        /* \"PetSanctuary.sol\":281:326  mapping(AnimalKind => uint256) public animals */\n    tag_6:\n      tag_21\n      0x04\n      dup1\n      calldatasize\n      sub\n      dup2\n      add\n      swap1\n      tag_22\n      swap2\n      swap1\n      tag_15\n      jump\t// in\n    tag_22:\n      tag_23\n      jump\t// in\n    tag_21:\n      mload(0x40)\n      tag_24\n      swap2\n      swap1\n      tag_25\n      jump\t// in\n    tag_24:\n      mload(0x40)\n      dup1\n      swap2\n      sub\n      swap1\n      return\n        /* \"PetSanctuary.sol\":255:275  address public owner */\n    tag_7:\n      tag_26\n      tag_27\n      jump\t// in\n    tag_26:\n      mload(0x40)\n      tag_28\n      swap2\n      swap1\n      tag_29\n      jump\t// in\n    tag_28:\n      mload(0x40)\n      dup1\n      swap2\n      sub\n      swap1\n      return\n        /* \"PetSanctuary.sol\":220:249  AnimalKind public  animalKind */\n    tag_8:\n      tag_30\n      tag_31\n      jump\t// in\n    tag_30:\n      mload(0x40)\n      tag_32\n      swap2\n      swap1\n      tag_33\n      jump\t// in\n    tag_32:\n      mload(0x40)\n      dup1\n      swap2\n      sub\n      swap1\n      return\n        /* \"PetSanctuary.sol\":711:1613  function buy(uint256 personAge,string memory _personGender, AnimalKind _animalKind) public {... */\n    tag_12:\n        /* \"PetSanctuary.sol\":845:849  true */\n      0x01\n        /* \"PetSanctuary.sol\":820:849  buyStatus[msg.sender] != true */\n      iszero\n      iszero\n        /* \"PetSanctuary.sol\":820:829  buyStatus */\n      0x02\n        /* \"PetSanctuary.sol\":820:841  buyStatus[msg.sender] */\n      0x00\n        /* \"PetSanctuary.sol\":830:840  msg.sender */\n      caller\n        /* \"PetSanctuary.sol\":820:841  buyStatus[msg.sender] */\n      0xffffffffffffffffffffffffffffffffffffffff\n      and\n      0xffffffffffffffffffffffffffffffffffffffff\n      and\n      dup2\n      mstore\n      0x20\n      add\n      swap1\n      dup2\n      mstore\n      0x20\n      add\n      0x00\n      keccak256\n      0x00\n      swap1\n      sload\n      swap1\n      0x0100\n      exp\n      swap1\n      div\n      0xff\n      and\n        /* \"PetSanctuary.sol\":820:849  buyStatus[msg.sender] != true */\n      iszero\n      iszero\n      eq\n      iszero\n        /* \"PetSanctuary.sol\":812:890  require(buyStatus[msg.sender] != true, 'You already have borrowed the animal') */\n      tag_35\n      jumpi\n      mload(0x40)\n      0x08c379a000000000000000000000000000000000000000000000000000000000\n      dup2\n      mstore\n      0x04\n      add\n      tag_36\n      swap1\n      tag_37\n      jump\t// in\n    tag_36:\n      mload(0x40)\n      dup1\n      swap2\n      sub\n      swap1\n      revert\n    tag_35:\n        /* \"PetSanctuary.sol\":948:961  bytes(\"Male\") */\n      mload(0x40)\n      dup1\n      0x40\n      add\n      0x40\n      mstore\n      dup1\n      0x04\n      dup2\n      mstore\n      0x20\n      add\n      0x4d616c6500000000000000000000000000000000000000000000000000000000\n      dup2\n      mstore\n      pop\n        /* \"PetSanctuary.sol\":938:962  keccak256(bytes(\"Male\")) */\n      dup1\n      mload\n      swap1\n      0x20\n      add\n      keccak256\n        /* \"PetSanctuary.sol\":919:932  _personGender */\n      dup3\n        /* \"PetSanctuary.sol\":903:934  keccak256(bytes(_personGender)) */\n      dup1\n      mload\n      swap1\n      0x20\n      add\n      keccak256\n        /* \"PetSanctuary.sol\":903:962  keccak256(bytes(_personGender)) == keccak256(bytes(\"Male\")) */\n      eq\n        /* \"PetSanctuary.sol\":900:1261  if(keccak256(bytes(_personGender)) == keccak256(bytes(\"Male\"))){... */\n      iszero\n      tag_38\n      jumpi\n        /* \"PetSanctuary.sol\":1000:1014  AnimalKind.Dog */\n      0x02\n        /* \"PetSanctuary.sol\":985:1014  _animalKind == AnimalKind.Dog */\n      0x04\n      dup2\n      gt\n      iszero\n      tag_39\n      jumpi\n      tag_40\n      tag_41\n      jump\t// in\n    tag_40:\n    tag_39:\n        /* \"PetSanctuary.sol\":985:996  _animalKind */\n      dup2\n        /* \"PetSanctuary.sol\":985:1014  _animalKind == AnimalKind.Dog */\n      0x04\n      dup2\n      gt\n      iszero\n      tag_42\n      jumpi\n      tag_43\n      tag_41\n      jump\t// in\n    tag_43:\n    tag_42:\n      eq\n        /* \"PetSanctuary.sol\":977:1046  require(_animalKind == AnimalKind.Dog,'You can only buy dog or fish') */\n      tag_44\n      jumpi\n      mload(0x40)\n      0x08c379a000000000000000000000000000000000000000000000000000000000\n      dup2\n      mstore\n      0x04\n      add\n      tag_45\n      swap1\n      tag_46\n      jump\t// in\n    tag_45:\n      mload(0x40)\n      dup1\n      swap2\n      sub\n      swap1\n      revert\n    tag_44:\n        /* \"PetSanctuary.sol\":1083:1098  AnimalKind.Fish */\n      0x00\n        /* \"PetSanctuary.sol\":1068:1098  _animalKind == AnimalKind.Fish */\n      0x04\n      dup2\n      gt\n      iszero\n      tag_47\n      jumpi\n      tag_48\n      tag_41\n      jump\t// in\n    tag_48:\n    tag_47:\n        /* \"PetSanctuary.sol\":1068:1079  _animalKind */\n      dup2\n        /* \"PetSanctuary.sol\":1068:1098  _animalKind == AnimalKind.Fish */\n      0x04\n      dup2\n      gt\n      iszero\n      tag_49\n      jumpi\n      tag_50\n      tag_41\n      jump\t// in\n    tag_50:\n    tag_49:\n      eq\n        /* \"PetSanctuary.sol\":1060:1130  require(_animalKind == AnimalKind.Fish,'You can only buy dog or fish') */\n      tag_51\n      jumpi\n      mload(0x40)\n      0x08c379a000000000000000000000000000000000000000000000000000000000\n      dup2\n      mstore\n      0x04\n      add\n      tag_52\n      swap1\n      tag_46\n      jump\t// in\n    tag_52:\n      mload(0x40)\n      dup1\n      swap2\n      sub\n      swap1\n      revert\n    tag_51:\n        /* \"PetSanctuary.sol\":1163:1210  Person(personAge,_personGender,block.timestamp) */\n      mload(0x40)\n      dup1\n      0x60\n      add\n      0x40\n      mstore\n      dup1\n        /* \"PetSanctuary.sol\":1170:1179  personAge */\n      dup5\n        /* \"PetSanctuary.sol\":1163:1210  Person(personAge,_personGender,block.timestamp) */\n      dup2\n      mstore\n      0x20\n      add\n        /* \"PetSanctuary.sol\":1180:1193  _personGender */\n      dup4\n        /* \"PetSanctuary.sol\":1163:1210  Person(personAge,_personGender,block.timestamp) */\n      dup2\n      mstore\n      0x20\n      add\n        /* \"PetSanctuary.sol\":1194:1209  block.timestamp */\n      timestamp\n        /* \"PetSanctuary.sol\":1163:1210  Person(personAge,_personGender,block.timestamp) */\n      dup2\n      mstore\n      pop\n        /* \"PetSanctuary.sol\":1144:1150  buyers */\n      0x03\n        /* \"PetSanctuary.sol\":1144:1162  buyers[msg.sender] */\n      0x00\n        /* \"PetSanctuary.sol\":1151:1161  msg.sender */\n      caller\n        /* \"PetSanctuary.sol\":1144:1162  buyers[msg.sender] */\n      0xffffffffffffffffffffffffffffffffffffffff\n      and\n      0xffffffffffffffffffffffffffffffffffffffff\n      and\n      dup2\n      mstore\n      0x20\n      add\n      swap1\n      dup2\n      mstore\n      0x20\n      add\n      0x00\n      keccak256\n        /* \"PetSanctuary.sol\":1144:1210  buyers[msg.sender]=Person(personAge,_personGender,block.timestamp) */\n      0x00\n      dup3\n      add\n      mload\n      dup2\n      0x00\n      add\n      sstore\n      0x20\n      dup3\n      add\n      mload\n      dup2\n      0x01\n      add\n      swap1\n      dup1\n      mload\n      swap1\n      0x20\n      add\n      swap1\n      tag_53\n      swap3\n      swap2\n      swap1\n      tag_54\n      jump\t// in\n    tag_53:\n      pop\n      0x40\n      dup3\n      add\n      mload\n      dup2\n      0x02\n      add\n      sstore\n      swap1\n      pop\n      pop\n        /* \"PetSanctuary.sol\":1246:1250  true */\n      0x01\n        /* \"PetSanctuary.sol\":1224:1233  buyStatus */\n      0x02\n        /* \"PetSanctuary.sol\":1224:1245  buyStatus[msg.sender] */\n      0x00\n        /* \"PetSanctuary.sol\":1234:1244  msg.sender */\n      caller\n        /* \"PetSanctuary.sol\":1224:1245  buyStatus[msg.sender] */\n      0xffffffffffffffffffffffffffffffffffffffff\n      and\n      0xffffffffffffffffffffffffffffffffffffffff\n      and\n      dup2\n      mstore\n      0x20\n      add\n      swap1\n      dup2\n      mstore\n      0x20\n      add\n      0x00\n      keccak256\n      0x00\n        /* \"PetSanctuary.sol\":1224:1250  buyStatus[msg.sender]=true */\n      0x0100\n      exp\n      dup2\n      sload\n      dup2\n      0xff\n      mul\n      not\n      and\n      swap1\n      dup4\n      iszero\n      iszero\n      mul\n      or\n      swap1\n      sstore\n      pop\n        /* \"PetSanctuary.sol\":900:1261  if(keccak256(bytes(_personGender)) == keccak256(bytes(\"Male\"))){... */\n    tag_38:\n        /* \"PetSanctuary.sol\":1320:1335  bytes(\"Female\") */\n      mload(0x40)\n      dup1\n      0x40\n      add\n      0x40\n      mstore\n      dup1\n      0x06\n      dup2\n      mstore\n      0x20\n      add\n      0x46656d616c650000000000000000000000000000000000000000000000000000\n      dup2\n      mstore\n      pop\n        /* \"PetSanctuary.sol\":1310:1336  keccak256(bytes(\"Female\")) */\n      dup1\n      mload\n      swap1\n      0x20\n      add\n      keccak256\n        /* \"PetSanctuary.sol\":1291:1304  _personGender */\n      dup3\n        /* \"PetSanctuary.sol\":1275:1306  keccak256(bytes(_personGender)) */\n      dup1\n      mload\n      swap1\n      0x20\n      add\n      keccak256\n        /* \"PetSanctuary.sol\":1275:1336  keccak256(bytes(_personGender)) == keccak256(bytes(\"Female\")) */\n      eq\n        /* \"PetSanctuary.sol\":1272:1607  if(keccak256(bytes(_personGender)) == keccak256(bytes(\"Female\"))){... */\n      iszero\n      tag_55\n      jumpi\n        /* \"PetSanctuary.sol\":1367:1369  40 */\n      0x28\n        /* \"PetSanctuary.sol\":1355:1364  personAge */\n      dup4\n        /* \"PetSanctuary.sol\":1355:1369  personAge < 40 */\n      lt\n        /* \"PetSanctuary.sol\":1352:1476  if(personAge < 40){... */\n      iszero\n      tag_56\n      jumpi\n        /* \"PetSanctuary.sol\":1412:1426  AnimalKind.Cat */\n      0x01\n        /* \"PetSanctuary.sol\":1397:1426  _animalKind != AnimalKind.Cat */\n      0x04\n      dup2\n      gt\n      iszero\n      tag_57\n      jumpi\n      tag_58\n      tag_41\n      jump\t// in\n    tag_58:\n    tag_57:\n        /* \"PetSanctuary.sol\":1397:1408  _animalKind */\n      dup2\n        /* \"PetSanctuary.sol\":1397:1426  _animalKind != AnimalKind.Cat */\n      0x04\n      dup2\n      gt\n      iszero\n      tag_59\n      jumpi\n      tag_60\n      tag_41\n      jump\t// in\n    tag_60:\n    tag_59:\n      eq\n      iszero\n        /* \"PetSanctuary.sol\":1389:1460  require(_animalKind != AnimalKind.Cat,'You are not allowed to buy cat') */\n      tag_61\n      jumpi\n      mload(0x40)\n      0x08c379a000000000000000000000000000000000000000000000000000000000\n      dup2\n      mstore\n      0x04\n      add\n      tag_62\n      swap1\n      tag_63\n      jump\t// in\n    tag_62:\n      mload(0x40)\n      dup1\n      swap2\n      sub\n      swap1\n      revert\n    tag_61:\n        /* \"PetSanctuary.sol\":1352:1476  if(personAge < 40){... */\n    tag_56:\n        /* \"PetSanctuary.sol\":1508:1555  Person(personAge,_personGender,block.timestamp) */\n      mload(0x40)\n      dup1\n      0x60\n      add\n      0x40\n      mstore\n      dup1\n        /* \"PetSanctuary.sol\":1515:1524  personAge */\n      dup5\n        /* \"PetSanctuary.sol\":1508:1555  Person(personAge,_personGender,block.timestamp) */\n      dup2\n      mstore\n      0x20\n      add\n        /* \"PetSanctuary.sol\":1525:1538  _personGender */\n      dup4\n        /* \"PetSanctuary.sol\":1508:1555  Person(personAge,_personGender,block.timestamp) */\n      dup2\n      mstore\n      0x20\n      add\n        /* \"PetSanctuary.sol\":1539:1554  block.timestamp */\n      timestamp\n        /* \"PetSanctuary.sol\":1508:1555  Person(personAge,_personGender,block.timestamp) */\n      dup2\n      mstore\n      pop\n        /* \"PetSanctuary.sol\":1489:1495  buyers */\n      0x03\n        /* \"PetSanctuary.sol\":1489:1507  buyers[msg.sender] */\n      0x00\n        /* \"PetSanctuary.sol\":1496:1506  msg.sender */\n      caller\n        /* \"PetSanctuary.sol\":1489:1507  buyers[msg.sender] */\n      0xffffffffffffffffffffffffffffffffffffffff\n      and\n      0xffffffffffffffffffffffffffffffffffffffff\n      and\n      dup2\n      mstore\n      0x20\n      add\n      swap1\n      dup2\n      mstore\n      0x20\n      add\n      0x00\n      keccak256\n        /* \"PetSanctuary.sol\":1489:1555  buyers[msg.sender]=Person(personAge,_personGender,block.timestamp) */\n      0x00\n      dup3\n      add\n      mload\n      dup2\n      0x00\n      add\n      sstore\n      0x20\n      dup3\n      add\n      mload\n      dup2\n      0x01\n      add\n      swap1\n      dup1\n      mload\n      swap1\n      0x20\n      add\n      swap1\n      tag_64\n      swap3\n      swap2\n      swap1\n      tag_54\n      jump\t// in\n    tag_64:\n      pop\n      0x40\n      dup3\n      add\n      mload\n      dup2\n      0x02\n      add\n      sstore\n      swap1\n      pop\n      pop\n        /* \"PetSanctuary.sol\":1591:1595  true */\n      0x01\n        /* \"PetSanctuary.sol\":1569:1578  buyStatus */\n      0x02\n        /* \"PetSanctuary.sol\":1569:1590  buyStatus[msg.sender] */\n      0x00\n        /* \"PetSanctuary.sol\":1579:1589  msg.sender */\n      caller\n        /* \"PetSanctuary.sol\":1569:1590  buyStatus[msg.sender] */\n      0xffffffffffffffffffffffffffffffffffffffff\n      and\n      0xffffffffffffffffffffffffffffffffffffffff\n      and\n      dup2\n      mstore\n      0x20\n      add\n      swap1\n      dup2\n      mstore\n      0x20\n      add\n      0x00\n      keccak256\n      0x00\n        /* \"PetSanctuary.sol\":1569:1595  buyStatus[msg.sender]=true */\n      0x0100\n      exp\n      dup2\n      sload\n      dup2\n      0xff\n      mul\n      not\n      and\n      swap1\n      dup4\n      iszero\n      iszero\n      mul\n      or\n      swap1\n      sstore\n      pop\n        /* \"PetSanctuary.sol\":1272:1607  if(keccak256(bytes(_personGender)) == keccak256(bytes(\"Female\"))){... */\n    tag_55:\n        /* \"PetSanctuary.sol\":711:1613  function buy(uint256 personAge,string memory _personGender, AnimalKind _animalKind) public {... */\n      pop\n      pop\n      pop\n      jump\t// out\n        /* \"PetSanctuary.sol\":1618:1864  function giveBackAnimal(AnimalKind _animalKind) public {... */\n    tag_16:\n        /* \"PetSanctuary.sol\":1716:1720  true */\n      0x01\n        /* \"PetSanctuary.sol\":1691:1720  buyStatus[msg.sender] == true */\n      iszero\n      iszero\n        /* \"PetSanctuary.sol\":1691:1700  buyStatus */\n      0x02\n        /* \"PetSanctuary.sol\":1691:1712  buyStatus[msg.sender] */\n      0x00\n        /* \"PetSanctuary.sol\":1701:1711  msg.sender */\n      caller\n        /* \"PetSanctuary.sol\":1691:1712  buyStatus[msg.sender] */\n      0xffffffffffffffffffffffffffffffffffffffff\n      and\n      0xffffffffffffffffffffffffffffffffffffffff\n      and\n      dup2\n      mstore\n      0x20\n      add\n      swap1\n      dup2\n      mstore\n      0x20\n      add\n      0x00\n      keccak256\n      0x00\n      swap1\n      sload\n      swap1\n      0x0100\n      exp\n      swap1\n      div\n      0xff\n      and\n        /* \"PetSanctuary.sol\":1691:1720  buyStatus[msg.sender] == true */\n      iszero\n      iszero\n      eq\n        /* \"PetSanctuary.sol\":1683:1755  require(buyStatus[msg.sender] == true,\"You haven't lend the animal yet\") */\n      tag_66\n      jumpi\n      mload(0x40)\n      0x08c379a000000000000000000000000000000000000000000000000000000000\n      dup2\n      mstore\n      0x04\n      add\n      tag_67\n      swap1\n      tag_68\n      jump\t// in\n    tag_67:\n      mload(0x40)\n      dup1\n      swap2\n      sub\n      swap1\n      revert\n    tag_66:\n        /* \"PetSanctuary.sol\":1807:1822  block.timestamp */\n      timestamp\n        /* \"PetSanctuary.sol\":1801:1804  300 */\n      0x012c\n        /* \"PetSanctuary.sol\":1773:1779  buyers */\n      0x03\n        /* \"PetSanctuary.sol\":1773:1791  buyers[msg.sender] */\n      0x00\n        /* \"PetSanctuary.sol\":1780:1790  msg.sender */\n      caller\n        /* \"PetSanctuary.sol\":1773:1791  buyers[msg.sender] */\n      0xffffffffffffffffffffffffffffffffffffffff\n      and\n      0xffffffffffffffffffffffffffffffffffffffff\n      and\n      dup2\n      mstore\n      0x20\n      add\n      swap1\n      dup2\n      mstore\n      0x20\n      add\n      0x00\n      keccak256\n        /* \"PetSanctuary.sol\":1773:1800  buyers[msg.sender].lendTime */\n      0x02\n      add\n      sload\n        /* \"PetSanctuary.sol\":1773:1804  buyers[msg.sender].lendTime+300 */\n      tag_69\n      swap2\n      swap1\n      tag_70\n      jump\t// in\n    tag_69:\n        /* \"PetSanctuary.sol\":1773:1822  buyers[msg.sender].lendTime+300 < block.timestamp */\n      lt\n        /* \"PetSanctuary.sol\":1765:1857  require(buyers[msg.sender].lendTime+300 < block.timestamp, \"It is more than 5 minutes now \") */\n      tag_71\n      jumpi\n      mload(0x40)\n      0x08c379a000000000000000000000000000000000000000000000000000000000\n      dup2\n      mstore\n      0x04\n      add\n      tag_72\n      swap1\n      tag_73\n      jump\t// in\n    tag_72:\n      mload(0x40)\n      dup1\n      swap2\n      sub\n      swap1\n      revert\n    tag_71:\n        /* \"PetSanctuary.sol\":1618:1864  function giveBackAnimal(AnimalKind _animalKind) public {... */\n      pop\n      jump\t// out\n        /* \"PetSanctuary.sol\":576:706  function add(AnimalKind _animalKind, uint256 _howManyPieces) onlyOwner public {... */\n    tag_20:\n        /* \"PetSanctuary.sol\":515:520  owner */\n      0x00\n      0x01\n      swap1\n      sload\n      swap1\n      0x0100\n      exp\n      swap1\n      div\n      0xffffffffffffffffffffffffffffffffffffffff\n      and\n        /* \"PetSanctuary.sol\":501:520  msg.sender == owner */\n      0xffffffffffffffffffffffffffffffffffffffff\n      and\n        /* \"PetSanctuary.sol\":501:511  msg.sender */\n      caller\n        /* \"PetSanctuary.sol\":501:520  msg.sender == owner */\n      0xffffffffffffffffffffffffffffffffffffffff\n      and\n      eq\n        /* \"PetSanctuary.sol\":493:553  require(msg.sender == owner, 'Only owner can give shelter ') */\n      tag_75\n      jumpi\n      mload(0x40)\n      0x08c379a000000000000000000000000000000000000000000000000000000000\n      dup2\n      mstore\n      0x04\n      add\n      tag_76\n      swap1\n      tag_77\n      jump\t// in\n    tag_76:\n      mload(0x40)\n      dup1\n      swap2\n      sub\n      swap1\n      revert\n    tag_75:\n        /* \"PetSanctuary.sol\":685:699  _howManyPieces */\n      dup1\n        /* \"PetSanctuary.sol\":664:671  animals */\n      0x01\n        /* \"PetSanctuary.sol\":664:684  animals[_animalKind] */\n      0x00\n        /* \"PetSanctuary.sol\":672:683  _animalKind */\n      dup5\n        /* \"PetSanctuary.sol\":664:684  animals[_animalKind] */\n      0x04\n      dup2\n      gt\n      iszero\n      tag_79\n      jumpi\n      tag_80\n      tag_41\n      jump\t// in\n    tag_80:\n    tag_79:\n      0x04\n      dup2\n      gt\n      iszero\n      tag_81\n      jumpi\n      tag_82\n      tag_41\n      jump\t// in\n    tag_82:\n    tag_81:\n      dup2\n      mstore\n      0x20\n      add\n      swap1\n      dup2\n      mstore\n      0x20\n      add\n      0x00\n      keccak256\n        /* \"PetSanctuary.sol\":664:699  animals[_animalKind]=_howManyPieces */\n      dup2\n      swap1\n      sstore\n      pop\n        /* \"PetSanctuary.sol\":576:706  function add(AnimalKind _animalKind, uint256 _howManyPieces) onlyOwner public {... */\n      pop\n      pop\n      jump\t// out\n        /* \"PetSanctuary.sol\":281:326  mapping(AnimalKind => uint256) public animals */\n    tag_23:\n      mstore(0x20, 0x01)\n      dup1\n      0x00\n      mstore\n      keccak256(0x00, 0x40)\n      0x00\n      swap2\n      pop\n      swap1\n      pop\n      sload\n      dup2\n      jump\t// out\n        /* \"PetSanctuary.sol\":255:275  address public owner */\n    tag_27:\n      0x00\n      0x01\n      swap1\n      sload\n      swap1\n      0x0100\n      exp\n      swap1\n      div\n      0xffffffffffffffffffffffffffffffffffffffff\n      and\n      dup2\n      jump\t// out\n        /* \"PetSanctuary.sol\":220:249  AnimalKind public  animalKind */\n    tag_31:\n      0x00\n      dup1\n      sload\n      swap1\n      0x0100\n      exp\n      swap1\n      div\n      0xff\n      and\n      dup2\n      jump\t// out\n    tag_54:\n      dup3\n      dup1\n      sload\n      tag_83\n      swap1\n      tag_84\n      jump\t// in\n    tag_83:\n      swap1\n      0x00\n      mstore\n      keccak256(0x00, 0x20)\n      swap1\n      0x1f\n      add\n      0x20\n      swap1\n      div\n      dup2\n      add\n      swap3\n      dup3\n      tag_86\n      jumpi\n      0x00\n      dup6\n      sstore\n      jump(tag_85)\n    tag_86:\n      dup3\n      0x1f\n      lt\n      tag_87\n      jumpi\n      dup1\n      mload\n      not(0xff)\n      and\n      dup4\n      dup1\n      add\n      or\n      dup6\n      sstore\n      jump(tag_85)\n    tag_87:\n      dup3\n      dup1\n      add\n      0x01\n      add\n      dup6\n      sstore\n      dup3\n      iszero\n      tag_85\n      jumpi\n      swap2\n      dup3\n      add\n    tag_88:\n      dup3\n      dup2\n      gt\n      iszero\n      tag_89\n      jumpi\n      dup3\n      mload\n      dup3\n      sstore\n      swap2\n      0x20\n      add\n      swap2\n      swap1\n      0x01\n      add\n      swap1\n      jump(tag_88)\n    tag_89:\n    tag_85:\n      pop\n      swap1\n      pop\n      tag_90\n      swap2\n      swap1\n      tag_91\n      jump\t// in\n    tag_90:\n      pop\n      swap1\n      jump\t// out\n    tag_91:\n    tag_92:\n      dup1\n      dup3\n      gt\n      iszero\n      tag_93\n      jumpi\n      0x00\n      dup2\n      0x00\n      swap1\n      sstore\n      pop\n      0x01\n      add\n      jump(tag_92)\n    tag_93:\n      pop\n      swap1\n      jump\t// out\n        /* \"#utility.yul\":7:82   */\n    tag_94:\n        /* \"#utility.yul\":40:46   */\n      0x00\n        /* \"#utility.yul\":73:75   */\n      0x40\n        /* \"#utility.yul\":67:76   */\n      mload\n        /* \"#utility.yul\":57:76   */\n      swap1\n      pop\n        /* \"#utility.yul\":7:82   */\n      swap1\n      jump\t// out\n        /* \"#utility.yul\":88:205   */\n    tag_95:\n        /* \"#utility.yul\":197:198   */\n      0x00\n        /* \"#utility.yul\":194:195   */\n      dup1\n        /* \"#utility.yul\":187:199   */\n      revert\n        /* \"#utility.yul\":211:328   */\n    tag_96:\n        /* \"#utility.yul\":320:321   */\n      0x00\n        /* \"#utility.yul\":317:318   */\n      dup1\n        /* \"#utility.yul\":310:322   */\n      revert\n        /* \"#utility.yul\":334:411   */\n    tag_97:\n        /* \"#utility.yul\":371:378   */\n      0x00\n        /* \"#utility.yul\":400:405   */\n      dup2\n        /* \"#utility.yul\":389:405   */\n      swap1\n      pop\n        /* \"#utility.yul\":334:411   */\n      swap2\n      swap1\n      pop\n      jump\t// out\n        /* \"#utility.yul\":417:539   */\n    tag_98:\n        /* \"#utility.yul\":490:514   */\n      tag_141\n        /* \"#utility.yul\":508:513   */\n      dup2\n        /* \"#utility.yul\":490:514   */\n      tag_97\n      jump\t// in\n    tag_141:\n        /* \"#utility.yul\":483:488   */\n      dup2\n        /* \"#utility.yul\":480:515   */\n      eq\n        /* \"#utility.yul\":470:533   */\n      tag_142\n      jumpi\n        /* \"#utility.yul\":529:530   */\n      0x00\n        /* \"#utility.yul\":526:527   */\n      dup1\n        /* \"#utility.yul\":519:531   */\n      revert\n        /* \"#utility.yul\":470:533   */\n    tag_142:\n        /* \"#utility.yul\":417:539   */\n      pop\n      jump\t// out\n        /* \"#utility.yul\":545:684   */\n    tag_99:\n        /* \"#utility.yul\":591:596   */\n      0x00\n        /* \"#utility.yul\":629:635   */\n      dup2\n        /* \"#utility.yul\":616:636   */\n      calldataload\n        /* \"#utility.yul\":607:636   */\n      swap1\n      pop\n        /* \"#utility.yul\":645:678   */\n      tag_144\n        /* \"#utility.yul\":672:677   */\n      dup2\n        /* \"#utility.yul\":645:678   */\n      tag_98\n      jump\t// in\n    tag_144:\n        /* \"#utility.yul\":545:684   */\n      swap3\n      swap2\n      pop\n      pop\n      jump\t// out\n        /* \"#utility.yul\":690:807   */\n    tag_100:\n        /* \"#utility.yul\":799:800   */\n      0x00\n        /* \"#utility.yul\":796:797   */\n      dup1\n        /* \"#utility.yul\":789:801   */\n      revert\n        /* \"#utility.yul\":813:930   */\n    tag_101:\n        /* \"#utility.yul\":922:923   */\n      0x00\n        /* \"#utility.yul\":919:920   */\n      dup1\n        /* \"#utility.yul\":912:924   */\n      revert\n        /* \"#utility.yul\":936:1038   */\n    tag_102:\n        /* \"#utility.yul\":977:983   */\n      0x00\n        /* \"#utility.yul\":1028:1030   */\n      0x1f\n        /* \"#utility.yul\":1024:1031   */\n      not\n        /* \"#utility.yul\":1019:1021   */\n      0x1f\n        /* \"#utility.yul\":1012:1017   */\n      dup4\n        /* \"#utility.yul\":1008:1022   */\n      add\n        /* \"#utility.yul\":1004:1032   */\n      and\n        /* \"#utility.yul\":994:1032   */\n      swap1\n      pop\n        /* \"#utility.yul\":936:1038   */\n      swap2\n      swap1\n      pop\n      jump\t// out\n        /* \"#utility.yul\":1044:1224   */\n    tag_103:\n        /* \"#utility.yul\":1092:1169   */\n      0x4e487b7100000000000000000000000000000000000000000000000000000000\n        /* \"#utility.yul\":1089:1090   */\n      0x00\n        /* \"#utility.yul\":1082:1170   */\n      mstore\n        /* \"#utility.yul\":1189:1193   */\n      0x41\n        /* \"#utility.yul\":1186:1187   */\n      0x04\n        /* \"#utility.yul\":1179:1194   */\n      mstore\n        /* \"#utility.yul\":1213:1217   */\n      0x24\n        /* \"#utility.yul\":1210:1211   */\n      0x00\n        /* \"#utility.yul\":1203:1218   */\n      revert\n        /* \"#utility.yul\":1230:1511   */\n    tag_104:\n        /* \"#utility.yul\":1313:1340   */\n      tag_150\n        /* \"#utility.yul\":1335:1339   */\n      dup3\n        /* \"#utility.yul\":1313:1340   */\n      tag_102\n      jump\t// in\n    tag_150:\n        /* \"#utility.yul\":1305:1311   */\n      dup2\n        /* \"#utility.yul\":1301:1341   */\n      add\n        /* \"#utility.yul\":1443:1449   */\n      dup2\n        /* \"#utility.yul\":1431:1441   */\n      dup2\n        /* \"#utility.yul\":1428:1450   */\n      lt\n        /* \"#utility.yul\":1407:1425   */\n      0xffffffffffffffff\n        /* \"#utility.yul\":1395:1405   */\n      dup3\n        /* \"#utility.yul\":1392:1426   */\n      gt\n        /* \"#utility.yul\":1389:1451   */\n      or\n        /* \"#utility.yul\":1386:1474   */\n      iszero\n      tag_151\n      jumpi\n        /* \"#utility.yul\":1454:1472   */\n      tag_152\n      tag_103\n      jump\t// in\n    tag_152:\n        /* \"#utility.yul\":1386:1474   */\n    tag_151:\n        /* \"#utility.yul\":1494:1504   */\n      dup1\n        /* \"#utility.yul\":1490:1492   */\n      0x40\n        /* \"#utility.yul\":1483:1505   */\n      mstore\n        /* \"#utility.yul\":1273:1511   */\n      pop\n        /* \"#utility.yul\":1230:1511   */\n      pop\n      pop\n      jump\t// out\n        /* \"#utility.yul\":1517:1646   */\n    tag_105:\n        /* \"#utility.yul\":1551:1557   */\n      0x00\n        /* \"#utility.yul\":1578:1598   */\n      tag_154\n      tag_94\n      jump\t// in\n    tag_154:\n        /* \"#utility.yul\":1568:1598   */\n      swap1\n      pop\n        /* \"#utility.yul\":1607:1640   */\n      tag_155\n        /* \"#utility.yul\":1635:1639   */\n      dup3\n        /* \"#utility.yul\":1627:1633   */\n      dup3\n        /* \"#utility.yul\":1607:1640   */\n      tag_104\n      jump\t// in\n    tag_155:\n        /* \"#utility.yul\":1517:1646   */\n      swap2\n      swap1\n      pop\n      jump\t// out\n        /* \"#utility.yul\":1652:1960   */\n    tag_106:\n        /* \"#utility.yul\":1714:1718   */\n      0x00\n        /* \"#utility.yul\":1804:1822   */\n      0xffffffffffffffff\n        /* \"#utility.yul\":1796:1802   */\n      dup3\n        /* \"#utility.yul\":1793:1823   */\n      gt\n        /* \"#utility.yul\":1790:1846   */\n      iszero\n      tag_157\n      jumpi\n        /* \"#utility.yul\":1826:1844   */\n      tag_158\n      tag_103\n      jump\t// in\n    tag_158:\n        /* \"#utility.yul\":1790:1846   */\n    tag_157:\n        /* \"#utility.yul\":1864:1893   */\n      tag_159\n        /* \"#utility.yul\":1886:1892   */\n      dup3\n        /* \"#utility.yul\":1864:1893   */\n      tag_102\n      jump\t// in\n    tag_159:\n        /* \"#utility.yul\":1856:1893   */\n      swap1\n      pop\n        /* \"#utility.yul\":1948:1952   */\n      0x20\n        /* \"#utility.yul\":1942:1946   */\n      dup2\n        /* \"#utility.yul\":1938:1953   */\n      add\n        /* \"#utility.yul\":1930:1953   */\n      swap1\n      pop\n        /* \"#utility.yul\":1652:1960   */\n      swap2\n      swap1\n      pop\n      jump\t// out\n        /* \"#utility.yul\":1966:2120   */\n    tag_107:\n        /* \"#utility.yul\":2050:2056   */\n      dup3\n        /* \"#utility.yul\":2045:2048   */\n      dup2\n        /* \"#utility.yul\":2040:2043   */\n      dup4\n        /* \"#utility.yul\":2027:2057   */\n      calldatacopy\n        /* \"#utility.yul\":2112:2113   */\n      0x00\n        /* \"#utility.yul\":2103:2109   */\n      dup4\n        /* \"#utility.yul\":2098:2101   */\n      dup4\n        /* \"#utility.yul\":2094:2110   */\n      add\n        /* \"#utility.yul\":2087:2114   */\n      mstore\n        /* \"#utility.yul\":1966:2120   */\n      pop\n      pop\n      pop\n      jump\t// out\n        /* \"#utility.yul\":2126:2538   */\n    tag_108:\n        /* \"#utility.yul\":2204:2209   */\n      0x00\n        /* \"#utility.yul\":2229:2295   */\n      tag_162\n        /* \"#utility.yul\":2245:2294   */\n      tag_163\n        /* \"#utility.yul\":2287:2293   */\n      dup5\n        /* \"#utility.yul\":2245:2294   */\n      tag_106\n      jump\t// in\n    tag_163:\n        /* \"#utility.yul\":2229:2295   */\n      tag_105\n      jump\t// in\n    tag_162:\n        /* \"#utility.yul\":2220:2295   */\n      swap1\n      pop\n        /* \"#utility.yul\":2318:2324   */\n      dup3\n        /* \"#utility.yul\":2311:2316   */\n      dup2\n        /* \"#utility.yul\":2304:2325   */\n      mstore\n        /* \"#utility.yul\":2356:2360   */\n      0x20\n        /* \"#utility.yul\":2349:2354   */\n      dup2\n        /* \"#utility.yul\":2345:2361   */\n      add\n        /* \"#utility.yul\":2394:2397   */\n      dup5\n        /* \"#utility.yul\":2385:2391   */\n      dup5\n        /* \"#utility.yul\":2380:2383   */\n      dup5\n        /* \"#utility.yul\":2376:2392   */\n      add\n        /* \"#utility.yul\":2373:2398   */\n      gt\n        /* \"#utility.yul\":2370:2482   */\n      iszero\n      tag_164\n      jumpi\n        /* \"#utility.yul\":2401:2480   */\n      tag_165\n      tag_101\n      jump\t// in\n    tag_165:\n        /* \"#utility.yul\":2370:2482   */\n    tag_164:\n        /* \"#utility.yul\":2491:2532   */\n      tag_166\n        /* \"#utility.yul\":2525:2531   */\n      dup5\n        /* \"#utility.yul\":2520:2523   */\n      dup3\n        /* \"#utility.yul\":2515:2518   */\n      dup6\n        /* \"#utility.yul\":2491:2532   */\n      tag_107\n      jump\t// in\n    tag_166:\n        /* \"#utility.yul\":2210:2538   */\n      pop\n        /* \"#utility.yul\":2126:2538   */\n      swap4\n      swap3\n      pop\n      pop\n      pop\n      jump\t// out\n        /* \"#utility.yul\":2558:2898   */\n    tag_109:\n        /* \"#utility.yul\":2614:2619   */\n      0x00\n        /* \"#utility.yul\":2663:2666   */\n      dup3\n        /* \"#utility.yul\":2656:2660   */\n      0x1f\n        /* \"#utility.yul\":2648:2654   */\n      dup4\n        /* \"#utility.yul\":2644:2661   */\n      add\n        /* \"#utility.yul\":2640:2667   */\n      slt\n        /* \"#utility.yul\":2630:2752   */\n      tag_168\n      jumpi\n        /* \"#utility.yul\":2671:2750   */\n      tag_169\n      tag_100\n      jump\t// in\n    tag_169:\n        /* \"#utility.yul\":2630:2752   */\n    tag_168:\n        /* \"#utility.yul\":2788:2794   */\n      dup2\n        /* \"#utility.yul\":2775:2795   */\n      calldataload\n        /* \"#utility.yul\":2813:2892   */\n      tag_170\n        /* \"#utility.yul\":2888:2891   */\n      dup5\n        /* \"#utility.yul\":2880:2886   */\n      dup3\n        /* \"#utility.yul\":2873:2877   */\n      0x20\n        /* \"#utility.yul\":2865:2871   */\n      dup7\n        /* \"#utility.yul\":2861:2878   */\n      add\n        /* \"#utility.yul\":2813:2892   */\n      tag_108\n      jump\t// in\n    tag_170:\n        /* \"#utility.yul\":2804:2892   */\n      swap2\n      pop\n        /* \"#utility.yul\":2620:2898   */\n      pop\n        /* \"#utility.yul\":2558:2898   */\n      swap3\n      swap2\n      pop\n      pop\n      jump\t// out\n        /* \"#utility.yul\":2904:3016   */\n    tag_110:\n        /* \"#utility.yul\":2990:2991   */\n      0x05\n        /* \"#utility.yul\":2983:2988   */\n      dup2\n        /* \"#utility.yul\":2980:2992   */\n      lt\n        /* \"#utility.yul\":2970:3010   */\n      tag_172\n      jumpi\n        /* \"#utility.yul\":3006:3007   */\n      0x00\n        /* \"#utility.yul\":3003:3004   */\n      dup1\n        /* \"#utility.yul\":2996:3008   */\n      revert\n        /* \"#utility.yul\":2970:3010   */\n    tag_172:\n        /* \"#utility.yul\":2904:3016   */\n      pop\n      jump\t// out\n        /* \"#utility.yul\":3022:3187   */\n    tag_111:\n        /* \"#utility.yul\":3081:3086   */\n      0x00\n        /* \"#utility.yul\":3119:3125   */\n      dup2\n        /* \"#utility.yul\":3106:3126   */\n      calldataload\n        /* \"#utility.yul\":3097:3126   */\n      swap1\n      pop\n        /* \"#utility.yul\":3135:3181   */\n      tag_174\n        /* \"#utility.yul\":3175:3180   */\n      dup2\n        /* \"#utility.yul\":3135:3181   */\n      tag_110\n      jump\t// in\n    tag_174:\n        /* \"#utility.yul\":3022:3187   */\n      swap3\n      swap2\n      pop\n      pop\n      jump\t// out\n        /* \"#utility.yul\":3193:4018   */\n    tag_11:\n        /* \"#utility.yul\":3293:3299   */\n      0x00\n        /* \"#utility.yul\":3301:3307   */\n      dup1\n        /* \"#utility.yul\":3309:3315   */\n      0x00\n        /* \"#utility.yul\":3358:3360   */\n      0x60\n        /* \"#utility.yul\":3346:3355   */\n      dup5\n        /* \"#utility.yul\":3337:3344   */\n      dup7\n        /* \"#utility.yul\":3333:3356   */\n      sub\n        /* \"#utility.yul\":3329:3361   */\n      slt\n        /* \"#utility.yul\":3326:3445   */\n      iszero\n      tag_176\n      jumpi\n        /* \"#utility.yul\":3364:3443   */\n      tag_177\n      tag_95\n      jump\t// in\n    tag_177:\n        /* \"#utility.yul\":3326:3445   */\n    tag_176:\n        /* \"#utility.yul\":3484:3485   */\n      0x00\n        /* \"#utility.yul\":3509:3562   */\n      tag_178\n        /* \"#utility.yul\":3554:3561   */\n      dup7\n        /* \"#utility.yul\":3545:3551   */\n      dup3\n        /* \"#utility.yul\":3534:3543   */\n      dup8\n        /* \"#utility.yul\":3530:3552   */\n      add\n        /* \"#utility.yul\":3509:3562   */\n      tag_99\n      jump\t// in\n    tag_178:\n        /* \"#utility.yul\":3499:3562   */\n      swap4\n      pop\n        /* \"#utility.yul\":3455:3572   */\n      pop\n        /* \"#utility.yul\":3639:3641   */\n      0x20\n        /* \"#utility.yul\":3628:3637   */\n      dup5\n        /* \"#utility.yul\":3624:3642   */\n      add\n        /* \"#utility.yul\":3611:3643   */\n      calldataload\n        /* \"#utility.yul\":3670:3688   */\n      0xffffffffffffffff\n        /* \"#utility.yul\":3662:3668   */\n      dup2\n        /* \"#utility.yul\":3659:3689   */\n      gt\n        /* \"#utility.yul\":3656:3773   */\n      iszero\n      tag_179\n      jumpi\n        /* \"#utility.yul\":3692:3771   */\n      tag_180\n      tag_96\n      jump\t// in\n    tag_180:\n        /* \"#utility.yul\":3656:3773   */\n    tag_179:\n        /* \"#utility.yul\":3797:3860   */\n      tag_181\n        /* \"#utility.yul\":3852:3859   */\n      dup7\n        /* \"#utility.yul\":3843:3849   */\n      dup3\n        /* \"#utility.yul\":3832:3841   */\n      dup8\n        /* \"#utility.yul\":3828:3850   */\n      add\n        /* \"#utility.yul\":3797:3860   */\n      tag_109\n      jump\t// in\n    tag_181:\n        /* \"#utility.yul\":3787:3860   */\n      swap3\n      pop\n        /* \"#utility.yul\":3582:3870   */\n      pop\n        /* \"#utility.yul\":3909:3911   */\n      0x40\n        /* \"#utility.yul\":3935:4001   */\n      tag_182\n        /* \"#utility.yul\":3993:4000   */\n      dup7\n        /* \"#utility.yul\":3984:3990   */\n      dup3\n        /* \"#utility.yul\":3973:3982   */\n      dup8\n        /* \"#utility.yul\":3969:3991   */\n      add\n        /* \"#utility.yul\":3935:4001   */\n      tag_111\n      jump\t// in\n    tag_182:\n        /* \"#utility.yul\":3925:4001   */\n      swap2\n      pop\n        /* \"#utility.yul\":3880:4011   */\n      pop\n        /* \"#utility.yul\":3193:4018   */\n      swap3\n      pop\n      swap3\n      pop\n      swap3\n      jump\t// out\n        /* \"#utility.yul\":4024:4379   */\n    tag_15:\n        /* \"#utility.yul\":4096:4102   */\n      0x00\n        /* \"#utility.yul\":4145:4147   */\n      0x20\n        /* \"#utility.yul\":4133:4142   */\n      dup3\n        /* \"#utility.yul\":4124:4131   */\n      dup5\n        /* \"#utility.yul\":4120:4143   */\n      sub\n        /* \"#utility.yul\":4116:4148   */\n      slt\n        /* \"#utility.yul\":4113:4232   */\n      iszero\n      tag_184\n      jumpi\n        /* \"#utility.yul\":4151:4230   */\n      tag_185\n      tag_95\n      jump\t// in\n    tag_185:\n        /* \"#utility.yul\":4113:4232   */\n    tag_184:\n        /* \"#utility.yul\":4271:4272   */\n      0x00\n        /* \"#utility.yul\":4296:4362   */\n      tag_186\n        /* \"#utility.yul\":4354:4361   */\n      dup5\n        /* \"#utility.yul\":4345:4351   */\n      dup3\n        /* \"#utility.yul\":4334:4343   */\n      dup6\n        /* \"#utility.yul\":4330:4352   */\n      add\n        /* \"#utility.yul\":4296:4362   */\n      tag_111\n      jump\t// in\n    tag_186:\n        /* \"#utility.yul\":4286:4362   */\n      swap2\n      pop\n        /* \"#utility.yul\":4242:4372   */\n      pop\n        /* \"#utility.yul\":4024:4379   */\n      swap3\n      swap2\n      pop\n      pop\n      jump\t// out\n        /* \"#utility.yul\":4385:4885   */\n    tag_19:\n        /* \"#utility.yul\":4466:4472   */\n      0x00\n        /* \"#utility.yul\":4474:4480   */\n      dup1\n        /* \"#utility.yul\":4523:4525   */\n      0x40\n        /* \"#utility.yul\":4511:4520   */\n      dup4\n        /* \"#utility.yul\":4502:4509   */\n      dup6\n        /* \"#utility.yul\":4498:4521   */\n      sub\n        /* \"#utility.yul\":4494:4526   */\n      slt\n        /* \"#utility.yul\":4491:4610   */\n      iszero\n      tag_188\n      jumpi\n        /* \"#utility.yul\":4529:4608   */\n      tag_189\n      tag_95\n      jump\t// in\n    tag_189:\n        /* \"#utility.yul\":4491:4610   */\n    tag_188:\n        /* \"#utility.yul\":4649:4650   */\n      0x00\n        /* \"#utility.yul\":4674:4740   */\n      tag_190\n        /* \"#utility.yul\":4732:4739   */\n      dup6\n        /* \"#utility.yul\":4723:4729   */\n      dup3\n        /* \"#utility.yul\":4712:4721   */\n      dup7\n        /* \"#utility.yul\":4708:4730   */\n      add\n        /* \"#utility.yul\":4674:4740   */\n      tag_111\n      jump\t// in\n    tag_190:\n        /* \"#utility.yul\":4664:4740   */\n      swap3\n      pop\n        /* \"#utility.yul\":4620:4750   */\n      pop\n        /* \"#utility.yul\":4789:4791   */\n      0x20\n        /* \"#utility.yul\":4815:4868   */\n      tag_191\n        /* \"#utility.yul\":4860:4867   */\n      dup6\n        /* \"#utility.yul\":4851:4857   */\n      dup3\n        /* \"#utility.yul\":4840:4849   */\n      dup7\n        /* \"#utility.yul\":4836:4858   */\n      add\n        /* \"#utility.yul\":4815:4868   */\n      tag_99\n      jump\t// in\n    tag_191:\n        /* \"#utility.yul\":4805:4868   */\n      swap2\n      pop\n        /* \"#utility.yul\":4760:4878   */\n      pop\n        /* \"#utility.yul\":4385:4885   */\n      swap3\n      pop\n      swap3\n      swap1\n      pop\n      jump\t// out\n        /* \"#utility.yul\":4891:5009   */\n    tag_112:\n        /* \"#utility.yul\":4978:5002   */\n      tag_193\n        /* \"#utility.yul\":4996:5001   */\n      dup2\n        /* \"#utility.yul\":4978:5002   */\n      tag_97\n      jump\t// in\n    tag_193:\n        /* \"#utility.yul\":4973:4976   */\n      dup3\n        /* \"#utility.yul\":4966:5003   */\n      mstore\n        /* \"#utility.yul\":4891:5009   */\n      pop\n      pop\n      jump\t// out\n        /* \"#utility.yul\":5015:5237   */\n    tag_25:\n        /* \"#utility.yul\":5108:5112   */\n      0x00\n        /* \"#utility.yul\":5146:5148   */\n      0x20\n        /* \"#utility.yul\":5135:5144   */\n      dup3\n        /* \"#utility.yul\":5131:5149   */\n      add\n        /* \"#utility.yul\":5123:5149   */\n      swap1\n      pop\n        /* \"#utility.yul\":5159:5230   */\n      tag_195\n        /* \"#utility.yul\":5227:5228   */\n      0x00\n        /* \"#utility.yul\":5216:5225   */\n      dup4\n        /* \"#utility.yul\":5212:5229   */\n      add\n        /* \"#utility.yul\":5203:5209   */\n      dup5\n        /* \"#utility.yul\":5159:5230   */\n      tag_112\n      jump\t// in\n    tag_195:\n        /* \"#utility.yul\":5015:5237   */\n      swap3\n      swap2\n      pop\n      pop\n      jump\t// out\n        /* \"#utility.yul\":5243:5369   */\n    tag_113:\n        /* \"#utility.yul\":5280:5287   */\n      0x00\n        /* \"#utility.yul\":5320:5362   */\n      0xffffffffffffffffffffffffffffffffffffffff\n        /* \"#utility.yul\":5313:5318   */\n      dup3\n        /* \"#utility.yul\":5309:5363   */\n      and\n        /* \"#utility.yul\":5298:5363   */\n      swap1\n      pop\n        /* \"#utility.yul\":5243:5369   */\n      swap2\n      swap1\n      pop\n      jump\t// out\n        /* \"#utility.yul\":5375:5471   */\n    tag_114:\n        /* \"#utility.yul\":5412:5419   */\n      0x00\n        /* \"#utility.yul\":5441:5465   */\n      tag_198\n        /* \"#utility.yul\":5459:5464   */\n      dup3\n        /* \"#utility.yul\":5441:5465   */\n      tag_113\n      jump\t// in\n    tag_198:\n        /* \"#utility.yul\":5430:5465   */\n      swap1\n      pop\n        /* \"#utility.yul\":5375:5471   */\n      swap2\n      swap1\n      pop\n      jump\t// out\n        /* \"#utility.yul\":5477:5595   */\n    tag_115:\n        /* \"#utility.yul\":5564:5588   */\n      tag_200\n        /* \"#utility.yul\":5582:5587   */\n      dup2\n        /* \"#utility.yul\":5564:5588   */\n      tag_114\n      jump\t// in\n    tag_200:\n        /* \"#utility.yul\":5559:5562   */\n      dup3\n        /* \"#utility.yul\":5552:5589   */\n      mstore\n        /* \"#utility.yul\":5477:5595   */\n      pop\n      pop\n      jump\t// out\n        /* \"#utility.yul\":5601:5823   */\n    tag_29:\n        /* \"#utility.yul\":5694:5698   */\n      0x00\n        /* \"#utility.yul\":5732:5734   */\n      0x20\n        /* \"#utility.yul\":5721:5730   */\n      dup3\n        /* \"#utility.yul\":5717:5735   */\n      add\n        /* \"#utility.yul\":5709:5735   */\n      swap1\n      pop\n        /* \"#utility.yul\":5745:5816   */\n      tag_202\n        /* \"#utility.yul\":5813:5814   */\n      0x00\n        /* \"#utility.yul\":5802:5811   */\n      dup4\n        /* \"#utility.yul\":5798:5815   */\n      add\n        /* \"#utility.yul\":5789:5795   */\n      dup5\n        /* \"#utility.yul\":5745:5816   */\n      tag_115\n      jump\t// in\n    tag_202:\n        /* \"#utility.yul\":5601:5823   */\n      swap3\n      swap2\n      pop\n      pop\n      jump\t// out\n        /* \"#utility.yul\":5829:6009   */\n    tag_41:\n        /* \"#utility.yul\":5877:5954   */\n      0x4e487b7100000000000000000000000000000000000000000000000000000000\n        /* \"#utility.yul\":5874:5875   */\n      0x00\n        /* \"#utility.yul\":5867:5955   */\n      mstore\n        /* \"#utility.yul\":5974:5978   */\n      0x21\n        /* \"#utility.yul\":5971:5972   */\n      0x04\n        /* \"#utility.yul\":5964:5979   */\n      mstore\n        /* \"#utility.yul\":5998:6002   */\n      0x24\n        /* \"#utility.yul\":5995:5996   */\n      0x00\n        /* \"#utility.yul\":5988:6003   */\n      revert\n        /* \"#utility.yul\":6015:6133   */\n    tag_116:\n        /* \"#utility.yul\":6101:6102   */\n      0x05\n        /* \"#utility.yul\":6094:6099   */\n      dup2\n        /* \"#utility.yul\":6091:6103   */\n      lt\n        /* \"#utility.yul\":6081:6127   */\n      tag_205\n      jumpi\n        /* \"#utility.yul\":6107:6125   */\n      tag_206\n      tag_41\n      jump\t// in\n    tag_206:\n        /* \"#utility.yul\":6081:6127   */\n    tag_205:\n        /* \"#utility.yul\":6015:6133   */\n      pop\n      jump\t// out\n        /* \"#utility.yul\":6139:6276   */\n    tag_117:\n        /* \"#utility.yul\":6189:6196   */\n      0x00\n        /* \"#utility.yul\":6218:6223   */\n      dup2\n        /* \"#utility.yul\":6207:6223   */\n      swap1\n      pop\n        /* \"#utility.yul\":6224:6270   */\n      tag_208\n        /* \"#utility.yul\":6264:6269   */\n      dup3\n        /* \"#utility.yul\":6224:6270   */\n      tag_116\n      jump\t// in\n    tag_208:\n        /* \"#utility.yul\":6139:6276   */\n      swap2\n      swap1\n      pop\n      jump\t// out\n        /* \"#utility.yul\":6282:6419   */\n    tag_118:\n        /* \"#utility.yul\":6343:6352   */\n      0x00\n        /* \"#utility.yul\":6376:6413   */\n      tag_210\n        /* \"#utility.yul\":6407:6412   */\n      dup3\n        /* \"#utility.yul\":6376:6413   */\n      tag_117\n      jump\t// in\n    tag_210:\n        /* \"#utility.yul\":6363:6413   */\n      swap1\n      pop\n        /* \"#utility.yul\":6282:6419   */\n      swap2\n      swap1\n      pop\n      jump\t// out\n        /* \"#utility.yul\":6425:6578   */\n    tag_119:\n        /* \"#utility.yul\":6523:6571   */\n      tag_212\n        /* \"#utility.yul\":6565:6570   */\n      dup2\n        /* \"#utility.yul\":6523:6571   */\n      tag_118\n      jump\t// in\n    tag_212:\n        /* \"#utility.yul\":6518:6521   */\n      dup3\n        /* \"#utility.yul\":6511:6572   */\n      mstore\n        /* \"#utility.yul\":6425:6578   */\n      pop\n      pop\n      jump\t// out\n        /* \"#utility.yul\":6584:6828   */\n    tag_33:\n        /* \"#utility.yul\":6688:6692   */\n      0x00\n        /* \"#utility.yul\":6726:6728   */\n      0x20\n        /* \"#utility.yul\":6715:6724   */\n      dup3\n        /* \"#utility.yul\":6711:6729   */\n      add\n        /* \"#utility.yul\":6703:6729   */\n      swap1\n      pop\n        /* \"#utility.yul\":6739:6821   */\n      tag_214\n        /* \"#utility.yul\":6818:6819   */\n      0x00\n        /* \"#utility.yul\":6807:6816   */\n      dup4\n        /* \"#utility.yul\":6803:6820   */\n      add\n        /* \"#utility.yul\":6794:6800   */\n      dup5\n        /* \"#utility.yul\":6739:6821   */\n      tag_119\n      jump\t// in\n    tag_214:\n        /* \"#utility.yul\":6584:6828   */\n      swap3\n      swap2\n      pop\n      pop\n      jump\t// out\n        /* \"#utility.yul\":6834:7003   */\n    tag_120:\n        /* \"#utility.yul\":6918:6929   */\n      0x00\n        /* \"#utility.yul\":6952:6958   */\n      dup3\n        /* \"#utility.yul\":6947:6950   */\n      dup3\n        /* \"#utility.yul\":6940:6959   */\n      mstore\n        /* \"#utility.yul\":6992:6996   */\n      0x20\n        /* \"#utility.yul\":6987:6990   */\n      dup3\n        /* \"#utility.yul\":6983:6997   */\n      add\n        /* \"#utility.yul\":6968:6997   */\n      swap1\n      pop\n        /* \"#utility.yul\":6834:7003   */\n      swap3\n      swap2\n      pop\n      pop\n      jump\t// out\n        /* \"#utility.yul\":7009:7232   */\n    tag_121:\n        /* \"#utility.yul\":7149:7183   */\n      0x596f7520616c7265616479206861766520626f72726f7765642074686520616e\n        /* \"#utility.yul\":7145:7146   */\n      0x00\n        /* \"#utility.yul\":7137:7143   */\n      dup3\n        /* \"#utility.yul\":7133:7147   */\n      add\n        /* \"#utility.yul\":7126:7184   */\n      mstore\n        /* \"#utility.yul\":7218:7224   */\n      0x696d616c00000000000000000000000000000000000000000000000000000000\n        /* \"#utility.yul\":7213:7215   */\n      0x20\n        /* \"#utility.yul\":7205:7211   */\n      dup3\n        /* \"#utility.yul\":7201:7216   */\n      add\n        /* \"#utility.yul\":7194:7225   */\n      mstore\n        /* \"#utility.yul\":7009:7232   */\n      pop\n      jump\t// out\n        /* \"#utility.yul\":7238:7604   */\n    tag_122:\n        /* \"#utility.yul\":7380:7383   */\n      0x00\n        /* \"#utility.yul\":7401:7468   */\n      tag_218\n        /* \"#utility.yul\":7465:7467   */\n      0x24\n        /* \"#utility.yul\":7460:7463   */\n      dup4\n        /* \"#utility.yul\":7401:7468   */\n      tag_120\n      jump\t// in\n    tag_218:\n        /* \"#utility.yul\":7394:7468   */\n      swap2\n      pop\n        /* \"#utility.yul\":7477:7570   */\n      tag_219\n        /* \"#utility.yul\":7566:7569   */\n      dup3\n        /* \"#utility.yul\":7477:7570   */\n      tag_121\n      jump\t// in\n    tag_219:\n        /* \"#utility.yul\":7595:7597   */\n      0x40\n        /* \"#utility.yul\":7590:7593   */\n      dup3\n        /* \"#utility.yul\":7586:7598   */\n      add\n        /* \"#utility.yul\":7579:7598   */\n      swap1\n      pop\n        /* \"#utility.yul\":7238:7604   */\n      swap2\n      swap1\n      pop\n      jump\t// out\n        /* \"#utility.yul\":7610:8029   */\n    tag_37:\n        /* \"#utility.yul\":7776:7780   */\n      0x00\n        /* \"#utility.yul\":7814:7816   */\n      0x20\n        /* \"#utility.yul\":7803:7812   */\n      dup3\n        /* \"#utility.yul\":7799:7817   */\n      add\n        /* \"#utility.yul\":7791:7817   */\n      swap1\n      pop\n        /* \"#utility.yul\":7863:7872   */\n      dup2\n        /* \"#utility.yul\":7857:7861   */\n      dup2\n        /* \"#utility.yul\":7853:7873   */\n      sub\n        /* \"#utility.yul\":7849:7850   */\n      0x00\n        /* \"#utility.yul\":7838:7847   */\n      dup4\n        /* \"#utility.yul\":7834:7851   */\n      add\n        /* \"#utility.yul\":7827:7874   */\n      mstore\n        /* \"#utility.yul\":7891:8022   */\n      tag_221\n        /* \"#utility.yul\":8017:8021   */\n      dup2\n        /* \"#utility.yul\":7891:8022   */\n      tag_122\n      jump\t// in\n    tag_221:\n        /* \"#utility.yul\":7883:8022   */\n      swap1\n      pop\n        /* \"#utility.yul\":7610:8029   */\n      swap2\n      swap1\n      pop\n      jump\t// out\n        /* \"#utility.yul\":8035:8213   */\n    tag_123:\n        /* \"#utility.yul\":8175:8205   */\n      0x596f752063616e206f6e6c792062757920646f67206f72206669736800000000\n        /* \"#utility.yul\":8171:8172   */\n      0x00\n        /* \"#utility.yul\":8163:8169   */\n      dup3\n        /* \"#utility.yul\":8159:8173   */\n      add\n        /* \"#utility.yul\":8152:8206   */\n      mstore\n        /* \"#utility.yul\":8035:8213   */\n      pop\n      jump\t// out\n        /* \"#utility.yul\":8219:8585   */\n    tag_124:\n        /* \"#utility.yul\":8361:8364   */\n      0x00\n        /* \"#utility.yul\":8382:8449   */\n      tag_224\n        /* \"#utility.yul\":8446:8448   */\n      0x1c\n        /* \"#utility.yul\":8441:8444   */\n      dup4\n        /* \"#utility.yul\":8382:8449   */\n      tag_120\n      jump\t// in\n    tag_224:\n        /* \"#utility.yul\":8375:8449   */\n      swap2\n      pop\n        /* \"#utility.yul\":8458:8551   */\n      tag_225\n        /* \"#utility.yul\":8547:8550   */\n      dup3\n        /* \"#utility.yul\":8458:8551   */\n      tag_123\n      jump\t// in\n    tag_225:\n        /* \"#utility.yul\":8576:8578   */\n      0x20\n        /* \"#utility.yul\":8571:8574   */\n      dup3\n        /* \"#utility.yul\":8567:8579   */\n      add\n        /* \"#utility.yul\":8560:8579   */\n      swap1\n      pop\n        /* \"#utility.yul\":8219:8585   */\n      swap2\n      swap1\n      pop\n      jump\t// out\n        /* \"#utility.yul\":8591:9010   */\n    tag_46:\n        /* \"#utility.yul\":8757:8761   */\n      0x00\n        /* \"#utility.yul\":8795:8797   */\n      0x20\n        /* \"#utility.yul\":8784:8793   */\n      dup3\n        /* \"#utility.yul\":8780:8798   */\n      add\n        /* \"#utility.yul\":8772:8798   */\n      swap1\n      pop\n        /* \"#utility.yul\":8844:8853   */\n      dup2\n        /* \"#utility.yul\":8838:8842   */\n      dup2\n        /* \"#utility.yul\":8834:8854   */\n      sub\n        /* \"#utility.yul\":8830:8831   */\n      0x00\n        /* \"#utility.yul\":8819:8828   */\n      dup4\n        /* \"#utility.yul\":8815:8832   */\n      add\n        /* \"#utility.yul\":8808:8855   */\n      mstore\n        /* \"#utility.yul\":8872:9003   */\n      tag_227\n        /* \"#utility.yul\":8998:9002   */\n      dup2\n        /* \"#utility.yul\":8872:9003   */\n      tag_124\n      jump\t// in\n    tag_227:\n        /* \"#utility.yul\":8864:9003   */\n      swap1\n      pop\n        /* \"#utility.yul\":8591:9010   */\n      swap2\n      swap1\n      pop\n      jump\t// out\n        /* \"#utility.yul\":9016:9196   */\n    tag_125:\n        /* \"#utility.yul\":9156:9188   */\n      0x596f7520617265206e6f7420616c6c6f77656420746f20627579206361740000\n        /* \"#utility.yul\":9152:9153   */\n      0x00\n        /* \"#utility.yul\":9144:9150   */\n      dup3\n        /* \"#utility.yul\":9140:9154   */\n      add\n        /* \"#utility.yul\":9133:9189   */\n      mstore\n        /* \"#utility.yul\":9016:9196   */\n      pop\n      jump\t// out\n        /* \"#utility.yul\":9202:9568   */\n    tag_126:\n        /* \"#utility.yul\":9344:9347   */\n      0x00\n        /* \"#utility.yul\":9365:9432   */\n      tag_230\n        /* \"#utility.yul\":9429:9431   */\n      0x1e\n        /* \"#utility.yul\":9424:9427   */\n      dup4\n        /* \"#utility.yul\":9365:9432   */\n      tag_120\n      jump\t// in\n    tag_230:\n        /* \"#utility.yul\":9358:9432   */\n      swap2\n      pop\n        /* \"#utility.yul\":9441:9534   */\n      tag_231\n        /* \"#utility.yul\":9530:9533   */\n      dup3\n        /* \"#utility.yul\":9441:9534   */\n      tag_125\n      jump\t// in\n    tag_231:\n        /* \"#utility.yul\":9559:9561   */\n      0x20\n        /* \"#utility.yul\":9554:9557   */\n      dup3\n        /* \"#utility.yul\":9550:9562   */\n      add\n        /* \"#utility.yul\":9543:9562   */\n      swap1\n      pop\n        /* \"#utility.yul\":9202:9568   */\n      swap2\n      swap1\n      pop\n      jump\t// out\n        /* \"#utility.yul\":9574:9993   */\n    tag_63:\n        /* \"#utility.yul\":9740:9744   */\n      0x00\n        /* \"#utility.yul\":9778:9780   */\n      0x20\n        /* \"#utility.yul\":9767:9776   */\n      dup3\n        /* \"#utility.yul\":9763:9781   */\n      add\n        /* \"#utility.yul\":9755:9781   */\n      swap1\n      pop\n        /* \"#utility.yul\":9827:9836   */\n      dup2\n        /* \"#utility.yul\":9821:9825   */\n      dup2\n        /* \"#utility.yul\":9817:9837   */\n      sub\n        /* \"#utility.yul\":9813:9814   */\n      0x00\n        /* \"#utility.yul\":9802:9811   */\n      dup4\n        /* \"#utility.yul\":9798:9815   */\n      add\n        /* \"#utility.yul\":9791:9838   */\n      mstore\n        /* \"#utility.yul\":9855:9986   */\n      tag_233\n        /* \"#utility.yul\":9981:9985   */\n      dup2\n        /* \"#utility.yul\":9855:9986   */\n      tag_126\n      jump\t// in\n    tag_233:\n        /* \"#utility.yul\":9847:9986   */\n      swap1\n      pop\n        /* \"#utility.yul\":9574:9993   */\n      swap2\n      swap1\n      pop\n      jump\t// out\n        /* \"#utility.yul\":9999:10180   */\n    tag_127:\n        /* \"#utility.yul\":10139:10172   */\n      0x596f7520686176656e2774206c656e642074686520616e696d616c2079657400\n        /* \"#utility.yul\":10135:10136   */\n      0x00\n        /* \"#utility.yul\":10127:10133   */\n      dup3\n        /* \"#utility.yul\":10123:10137   */\n      add\n        /* \"#utility.yul\":10116:10173   */\n      mstore\n        /* \"#utility.yul\":9999:10180   */\n      pop\n      jump\t// out\n        /* \"#utility.yul\":10186:10552   */\n    tag_128:\n        /* \"#utility.yul\":10328:10331   */\n      0x00\n        /* \"#utility.yul\":10349:10416   */\n      tag_236\n        /* \"#utility.yul\":10413:10415   */\n      0x1f\n        /* \"#utility.yul\":10408:10411   */\n      dup4\n        /* \"#utility.yul\":10349:10416   */\n      tag_120\n      jump\t// in\n    tag_236:\n        /* \"#utility.yul\":10342:10416   */\n      swap2\n      pop\n        /* \"#utility.yul\":10425:10518   */\n      tag_237\n        /* \"#utility.yul\":10514:10517   */\n      dup3\n        /* \"#utility.yul\":10425:10518   */\n      tag_127\n      jump\t// in\n    tag_237:\n        /* \"#utility.yul\":10543:10545   */\n      0x20\n        /* \"#utility.yul\":10538:10541   */\n      dup3\n        /* \"#utility.yul\":10534:10546   */\n      add\n        /* \"#utility.yul\":10527:10546   */\n      swap1\n      pop\n        /* \"#utility.yul\":10186:10552   */\n      swap2\n      swap1\n      pop\n      jump\t// out\n        /* \"#utility.yul\":10558:10977   */\n    tag_68:\n        /* \"#utility.yul\":10724:10728   */\n      0x00\n        /* \"#utility.yul\":10762:10764   */\n      0x20\n        /* \"#utility.yul\":10751:10760   */\n      dup3\n        /* \"#utility.yul\":10747:10765   */\n      add\n        /* \"#utility.yul\":10739:10765   */\n      swap1\n      pop\n        /* \"#utility.yul\":10811:10820   */\n      dup2\n        /* \"#utility.yul\":10805:10809   */\n      dup2\n        /* \"#utility.yul\":10801:10821   */\n      sub\n        /* \"#utility.yul\":10797:10798   */\n      0x00\n        /* \"#utility.yul\":10786:10795   */\n      dup4\n        /* \"#utility.yul\":10782:10799   */\n      add\n        /* \"#utility.yul\":10775:10822   */\n      mstore\n        /* \"#utility.yul\":10839:10970   */\n      tag_239\n        /* \"#utility.yul\":10965:10969   */\n      dup2\n        /* \"#utility.yul\":10839:10970   */\n      tag_128\n      jump\t// in\n    tag_239:\n        /* \"#utility.yul\":10831:10970   */\n      swap1\n      pop\n        /* \"#utility.yul\":10558:10977   */\n      swap2\n      swap1\n      pop\n      jump\t// out\n        /* \"#utility.yul\":10983:11163   */\n    tag_129:\n        /* \"#utility.yul\":11031:11108   */\n      0x4e487b7100000000000000000000000000000000000000000000000000000000\n        /* \"#utility.yul\":11028:11029   */\n      0x00\n        /* \"#utility.yul\":11021:11109   */\n      mstore\n        /* \"#utility.yul\":11128:11132   */\n      0x11\n        /* \"#utility.yul\":11125:11126   */\n      0x04\n        /* \"#utility.yul\":11118:11133   */\n      mstore\n        /* \"#utility.yul\":11152:11156   */\n      0x24\n        /* \"#utility.yul\":11149:11150   */\n      0x00\n        /* \"#utility.yul\":11142:11157   */\n      revert\n        /* \"#utility.yul\":11169:11474   */\n    tag_70:\n        /* \"#utility.yul\":11209:11212   */\n      0x00\n        /* \"#utility.yul\":11228:11248   */\n      tag_242\n        /* \"#utility.yul\":11246:11247   */\n      dup3\n        /* \"#utility.yul\":11228:11248   */\n      tag_97\n      jump\t// in\n    tag_242:\n        /* \"#utility.yul\":11223:11248   */\n      swap2\n      pop\n        /* \"#utility.yul\":11262:11282   */\n      tag_243\n        /* \"#utility.yul\":11280:11281   */\n      dup4\n        /* \"#utility.yul\":11262:11282   */\n      tag_97\n      jump\t// in\n    tag_243:\n        /* \"#utility.yul\":11257:11282   */\n      swap3\n      pop\n        /* \"#utility.yul\":11416:11417   */\n      dup3\n        /* \"#utility.yul\":11348:11414   */\n      0xffffffffffffffffffffffffffffffffffffffffffffffffffffffffffffffff\n        /* \"#utility.yul\":11344:11418   */\n      sub\n        /* \"#utility.yul\":11341:11342   */\n      dup3\n        /* \"#utility.yul\":11338:11419   */\n      gt\n        /* \"#utility.yul\":11335:11442   */\n      iszero\n      tag_244\n      jumpi\n        /* \"#utility.yul\":11422:11440   */\n      tag_245\n      tag_129\n      jump\t// in\n    tag_245:\n        /* \"#utility.yul\":11335:11442   */\n    tag_244:\n        /* \"#utility.yul\":11466:11467   */\n      dup3\n        /* \"#utility.yul\":11463:11464   */\n      dup3\n        /* \"#utility.yul\":11459:11468   */\n      add\n        /* \"#utility.yul\":11452:11468   */\n      swap1\n      pop\n        /* \"#utility.yul\":11169:11474   */\n      swap3\n      swap2\n      pop\n      pop\n      jump\t// out\n        /* \"#utility.yul\":11480:11660   */\n    tag_130:\n        /* \"#utility.yul\":11620:11652   */\n      0x4974206973206d6f7265207468616e2035206d696e75746573206e6f77200000\n        /* \"#utility.yul\":11616:11617   */\n      0x00\n        /* \"#utility.yul\":11608:11614   */\n      dup3\n        /* \"#utility.yul\":11604:11618   */\n      add\n        /* \"#utility.yul\":11597:11653   */\n      mstore\n        /* \"#utility.yul\":11480:11660   */\n      pop\n      jump\t// out\n        /* \"#utility.yul\":11666:12032   */\n    tag_131:\n        /* \"#utility.yul\":11808:11811   */\n      0x00\n        /* \"#utility.yul\":11829:11896   */\n      tag_248\n        /* \"#utility.yul\":11893:11895   */\n      0x1e\n        /* \"#utility.yul\":11888:11891   */\n      dup4\n        /* \"#utility.yul\":11829:11896   */\n      tag_120\n      jump\t// in\n    tag_248:\n        /* \"#utility.yul\":11822:11896   */\n      swap2\n      pop\n        /* \"#utility.yul\":11905:11998   */\n      tag_249\n        /* \"#utility.yul\":11994:11997   */\n      dup3\n        /* \"#utility.yul\":11905:11998   */\n      tag_130\n      jump\t// in\n    tag_249:\n        /* \"#utility.yul\":12023:12025   */\n      0x20\n        /* \"#utility.yul\":12018:12021   */\n      dup3\n        /* \"#utility.yul\":12014:12026   */\n      add\n        /* \"#utility.yul\":12007:12026   */\n      swap1\n      pop\n        /* \"#utility.yul\":11666:12032   */\n      swap2\n      swap1\n      pop\n      jump\t// out\n        /* \"#utility.yul\":12038:12457   */\n    tag_73:\n        /* \"#utility.yul\":12204:12208   */\n      0x00\n        /* \"#utility.yul\":12242:12244   */\n      0x20\n        /* \"#utility.yul\":12231:12240   */\n      dup3\n        /* \"#utility.yul\":12227:12245   */\n      add\n        /* \"#utility.yul\":12219:12245   */\n      swap1\n      pop\n        /* \"#utility.yul\":12291:12300   */\n      dup2\n        /* \"#utility.yul\":12285:12289   */\n      dup2\n        /* \"#utility.yul\":12281:12301   */\n      sub\n        /* \"#utility.yul\":12277:12278   */\n      0x00\n        /* \"#utility.yul\":12266:12275   */\n      dup4\n        /* \"#utility.yul\":12262:12279   */\n      add\n        /* \"#utility.yul\":12255:12302   */\n      mstore\n        /* \"#utility.yul\":12319:12450   */\n      tag_251\n        /* \"#utility.yul\":12445:12449   */\n      dup2\n        /* \"#utility.yul\":12319:12450   */\n      tag_131\n      jump\t// in\n    tag_251:\n        /* \"#utility.yul\":12311:12450   */\n      swap1\n      pop\n        /* \"#utility.yul\":12038:12457   */\n      swap2\n      swap1\n      pop\n      jump\t// out\n        /* \"#utility.yul\":12463:12641   */\n    tag_132:\n        /* \"#utility.yul\":12603:12633   */\n      0x4f6e6c79206f776e65722063616e2067697665207368656c7465722000000000\n        /* \"#utility.yul\":12599:12600   */\n      0x00\n        /* \"#utility.yul\":12591:12597   */\n      dup3\n        /* \"#utility.yul\":12587:12601   */\n      add\n        /* \"#utility.yul\":12580:12634   */\n      mstore\n        /* \"#utility.yul\":12463:12641   */\n      pop\n      jump\t// out\n        /* \"#utility.yul\":12647:13013   */\n    tag_133:\n        /* \"#utility.yul\":12789:12792   */\n      0x00\n        /* \"#utility.yul\":12810:12877   */\n      tag_254\n        /* \"#utility.yul\":12874:12876   */\n      0x1c\n        /* \"#utility.yul\":12869:12872   */\n      dup4\n        /* \"#utility.yul\":12810:12877   */\n      tag_120\n      jump\t// in\n    tag_254:\n        /* \"#utility.yul\":12803:12877   */\n      swap2\n      pop\n        /* \"#utility.yul\":12886:12979   */\n      tag_255\n        /* \"#utility.yul\":12975:12978   */\n      dup3\n        /* \"#utility.yul\":12886:12979   */\n      tag_132\n      jump\t// in\n    tag_255:\n        /* \"#utility.yul\":13004:13006   */\n      0x20\n        /* \"#utility.yul\":12999:13002   */\n      dup3\n        /* \"#utility.yul\":12995:13007   */\n      add\n        /* \"#utility.yul\":12988:13007   */\n      swap1\n      pop\n        /* \"#utility.yul\":12647:13013   */\n      swap2\n      swap1\n      pop\n      jump\t// out\n        /* \"#utility.yul\":13019:13438   */\n    tag_77:\n        /* \"#utility.yul\":13185:13189   */\n      0x00\n        /* \"#utility.yul\":13223:13225   */\n      0x20\n        /* \"#utility.yul\":13212:13221   */\n      dup3\n        /* \"#utility.yul\":13208:13226   */\n      add\n        /* \"#utility.yul\":13200:13226   */\n      swap1\n      pop\n        /* \"#utility.yul\":13272:13281   */\n      dup2\n        /* \"#utility.yul\":13266:13270   */\n      dup2\n        /* \"#utility.yul\":13262:13282   */\n      sub\n        /* \"#utility.yul\":13258:13259   */\n      0x00\n        /* \"#utility.yul\":13247:13256   */\n      dup4\n        /* \"#utility.yul\":13243:13260   */\n      add\n        /* \"#utility.yul\":13236:13283   */\n      mstore\n        /* \"#utility.yul\":13300:13431   */\n      tag_257\n        /* \"#utility.yul\":13426:13430   */\n      dup2\n        /* \"#utility.yul\":13300:13431   */\n      tag_133\n      jump\t// in\n    tag_257:\n        /* \"#utility.yul\":13292:13431   */\n      swap1\n      pop\n        /* \"#utility.yul\":13019:13438   */\n      swap2\n      swap1\n      pop\n      jump\t// out\n        /* \"#utility.yul\":13444:13624   */\n    tag_134:\n        /* \"#utility.yul\":13492:13569   */\n      0x4e487b7100000000000000000000000000000000000000000000000000000000\n        /* \"#utility.yul\":13489:13490   */\n      0x00\n        /* \"#utility.yul\":13482:13570   */\n      mstore\n        /* \"#utility.yul\":13589:13593   */\n      0x22\n        /* \"#utility.yul\":13586:13587   */\n      0x04\n        /* \"#utility.yul\":13579:13594   */\n      mstore\n        /* \"#utility.yul\":13613:13617   */\n      0x24\n        /* \"#utility.yul\":13610:13611   */\n      0x00\n        /* \"#utility.yul\":13603:13618   */\n      revert\n        /* \"#utility.yul\":13630:13950   */\n    tag_84:\n        /* \"#utility.yul\":13674:13680   */\n      0x00\n        /* \"#utility.yul\":13711:13712   */\n      0x02\n        /* \"#utility.yul\":13705:13709   */\n      dup3\n        /* \"#utility.yul\":13701:13713   */\n      div\n        /* \"#utility.yul\":13691:13713   */\n      swap1\n      pop\n        /* \"#utility.yul\":13758:13759   */\n      0x01\n        /* \"#utility.yul\":13752:13756   */\n      dup3\n        /* \"#utility.yul\":13748:13760   */\n      and\n        /* \"#utility.yul\":13779:13797   */\n      dup1\n        /* \"#utility.yul\":13769:13850   */\n      tag_260\n      jumpi\n        /* \"#utility.yul\":13835:13839   */\n      0x7f\n        /* \"#utility.yul\":13827:13833   */\n      dup3\n        /* \"#utility.yul\":13823:13840   */\n      and\n        /* \"#utility.yul\":13813:13840   */\n      swap2\n      pop\n        /* \"#utility.yul\":13769:13850   */\n    tag_260:\n        /* \"#utility.yul\":13897:13899   */\n      0x20\n        /* \"#utility.yul\":13889:13895   */\n      dup3\n        /* \"#utility.yul\":13886:13900   */\n      lt\n        /* \"#utility.yul\":13866:13884   */\n      dup2\n        /* \"#utility.yul\":13863:13901   */\n      eq\n        /* \"#utility.yul\":13860:13944   */\n      iszero\n      tag_261\n      jumpi\n        /* \"#utility.yul\":13916:13934   */\n      tag_262\n      tag_134\n      jump\t// in\n    tag_262:\n        /* \"#utility.yul\":13860:13944   */\n    tag_261:\n        /* \"#utility.yul\":13681:13950   */\n      pop\n        /* \"#utility.yul\":13630:13950   */\n      swap2\n      swap1\n      pop\n      jump\t// out\n\n    auxdata: 0xa264697066735822122012e2fa16a24103ed8688be154b80b88cdb98d54720d53b99c3a8f1f791f5dc0364736f6c63430008090033\n}\n",
				"bytecode": {
					"linkReferences": {},
					"object": "608060405234801561001057600080fd5b5033600060016101000a81548173ffffffffffffffffffffffffffffffffffffffff021916908373ffffffffffffffffffffffffffffffffffffffff160217905550610fd1806100616000396000f3fe608060405234801561001057600080fd5b50600436106100625760003560e01c806307f93f17146100675780630d04d05a146100835780631b54ac801461009f5780632b23461f146100bb5780638da5cb5b146100eb578063ec73cab514610109575b600080fd5b610081600480360381019061007c9190610a02565b610127565b005b61009d60048036038101906100989190610a71565b610564565b005b6100b960048036038101906100b49190610a9e565b61068b565b005b6100d560048036038101906100d09190610a71565b61075b565b6040516100e29190610aed565b60405180910390f35b6100f3610773565b6040516101009190610b49565b60405180910390f35b610111610799565b60405161011e9190610bdb565b60405180910390f35b60011515600260003373ffffffffffffffffffffffffffffffffffffffff1673ffffffffffffffffffffffffffffffffffffffff16815260200190815260200160002060009054906101000a900460ff16151514156101bb576040517f08c379a00000000000000000000000000000000000000000000000000000000081526004016101b290610c79565b60405180910390fd5b6040518060400160405280600481526020017f4d616c650000000000000000000000000000000000000000000000000000000081525080519060200120828051906020012014156103bb576002600481111561021a57610219610b64565b5b81600481111561022d5761022c610b64565b5b1461026d576040517f08c379a000000000000000000000000000000000000000000000000000000000815260040161026490610ce5565b60405180910390fd5b6000600481111561028157610280610b64565b5b81600481111561029457610293610b64565b5b146102d4576040517f08c379a00000000000000000000000000000000000000000000000000000000081526004016102cb90610ce5565b60405180910390fd5b604051806060016040528084815260200183815260200142815250600360003373ffffffffffffffffffffffffffffffffffffffff1673ffffffffffffffffffffffffffffffffffffffff1681526020019081526020016000206000820151816000015560208201518160010190805190602001906103549291906107aa565b50604082015181600201559050506001600260003373ffffffffffffffffffffffffffffffffffffffff1673ffffffffffffffffffffffffffffffffffffffff16815260200190815260200160002060006101000a81548160ff0219169083151502179055505b6040518060400160405280600681526020017f46656d616c650000000000000000000000000000000000000000000000000000815250805190602001208280519060200120141561055f576028831015610478576001600481111561042357610422610b64565b5b81600481111561043657610435610b64565b5b1415610477576040517f08c379a000000000000000000000000000000000000000000000000000000000815260040161046e90610d51565b60405180910390fd5b5b604051806060016040528084815260200183815260200142815250600360003373ffffffffffffffffffffffffffffffffffffffff1673ffffffffffffffffffffffffffffffffffffffff1681526020019081526020016000206000820151816000015560208201518160010190805190602001906104f89291906107aa565b50604082015181600201559050506001600260003373ffffffffffffffffffffffffffffffffffffffff1673ffffffffffffffffffffffffffffffffffffffff16815260200190815260200160002060006101000a81548160ff0219169083151502179055505b505050565b60011515600260003373ffffffffffffffffffffffffffffffffffffffff1673ffffffffffffffffffffffffffffffffffffffff16815260200190815260200160002060009054906101000a900460ff161515146105f7576040517f08c379a00000000000000000000000000000000000000000000000000000000081526004016105ee90610dbd565b60405180910390fd5b4261012c600360003373ffffffffffffffffffffffffffffffffffffffff1673ffffffffffffffffffffffffffffffffffffffff168152602001908152602001600020600201546106489190610e0c565b10610688576040517f08c379a000000000000000000000000000000000000000000000000000000000815260040161067f90610eae565b60405180910390fd5b50565b600060019054906101000a900473ffffffffffffffffffffffffffffffffffffffff1673ffffffffffffffffffffffffffffffffffffffff163373ffffffffffffffffffffffffffffffffffffffff161461071b576040517f08c379a000000000000000000000000000000000000000000000000000000000815260040161071290610f1a565b60405180910390fd5b806001600084600481111561073357610732610b64565b5b600481111561074557610744610b64565b5b8152602001908152602001600020819055505050565b60016020528060005260406000206000915090505481565b600060019054906101000a900473ffffffffffffffffffffffffffffffffffffffff1681565b60008054906101000a900460ff1681565b8280546107b690610f69565b90600052602060002090601f0160209004810192826107d8576000855561081f565b82601f106107f157805160ff191683800117855561081f565b8280016001018555821561081f579182015b8281111561081e578251825591602001919060010190610803565b5b50905061082c9190610830565b5090565b5b80821115610849576000816000905550600101610831565b5090565b6000604051905090565b600080fd5b600080fd5b6000819050919050565b61087481610861565b811461087f57600080fd5b50565b6000813590506108918161086b565b92915050565b600080fd5b600080fd5b6000601f19601f8301169050919050565b7f4e487b7100000000000000000000000000000000000000000000000000000000600052604160045260246000fd5b6108ea826108a1565b810181811067ffffffffffffffff82111715610909576109086108b2565b5b80604052505050565b600061091c61084d565b905061092882826108e1565b919050565b600067ffffffffffffffff821115610948576109476108b2565b5b610951826108a1565b9050602081019050919050565b82818337600083830152505050565b600061098061097b8461092d565b610912565b90508281526020810184848401111561099c5761099b61089c565b5b6109a784828561095e565b509392505050565b600082601f8301126109c4576109c3610897565b5b81356109d484826020860161096d565b91505092915050565b600581106109ea57600080fd5b50565b6000813590506109fc816109dd565b92915050565b600080600060608486031215610a1b57610a1a610857565b5b6000610a2986828701610882565b935050602084013567ffffffffffffffff811115610a4a57610a4961085c565b5b610a56868287016109af565b9250506040610a67868287016109ed565b9150509250925092565b600060208284031215610a8757610a86610857565b5b6000610a95848285016109ed565b91505092915050565b60008060408385031215610ab557610ab4610857565b5b6000610ac3858286016109ed565b9250506020610ad485828601610882565b9150509250929050565b610ae781610861565b82525050565b6000602082019050610b026000830184610ade565b92915050565b600073ffffffffffffffffffffffffffffffffffffffff82169050919050565b6000610b3382610b08565b9050919050565b610b4381610b28565b82525050565b6000602082019050610b5e6000830184610b3a565b92915050565b7f4e487b7100000000000000000000000000000000000000000000000000000000600052602160045260246000fd5b60058110610ba457610ba3610b64565b5b50565b6000819050610bb582610b93565b919050565b6000610bc582610ba7565b9050919050565b610bd581610bba565b82525050565b6000602082019050610bf06000830184610bcc565b92915050565b600082825260208201905092915050565b7f596f7520616c7265616479206861766520626f72726f7765642074686520616e60008201527f696d616c00000000000000000000000000000000000000000000000000000000602082015250565b6000610c63602483610bf6565b9150610c6e82610c07565b604082019050919050565b60006020820190508181036000830152610c9281610c56565b9050919050565b7f596f752063616e206f6e6c792062757920646f67206f72206669736800000000600082015250565b6000610ccf601c83610bf6565b9150610cda82610c99565b602082019050919050565b60006020820190508181036000830152610cfe81610cc2565b9050919050565b7f596f7520617265206e6f7420616c6c6f77656420746f20627579206361740000600082015250565b6000610d3b601e83610bf6565b9150610d4682610d05565b602082019050919050565b60006020820190508181036000830152610d6a81610d2e565b9050919050565b7f596f7520686176656e2774206c656e642074686520616e696d616c2079657400600082015250565b6000610da7601f83610bf6565b9150610db282610d71565b602082019050919050565b60006020820190508181036000830152610dd681610d9a565b9050919050565b7f4e487b7100000000000000000000000000000000000000000000000000000000600052601160045260246000fd5b6000610e1782610861565b9150610e2283610861565b9250827fffffffffffffffffffffffffffffffffffffffffffffffffffffffffffffffff03821115610e5757610e56610ddd565b5b828201905092915050565b7f4974206973206d6f7265207468616e2035206d696e75746573206e6f77200000600082015250565b6000610e98601e83610bf6565b9150610ea382610e62565b602082019050919050565b60006020820190508181036000830152610ec781610e8b565b9050919050565b7f4f6e6c79206f776e65722063616e2067697665207368656c7465722000000000600082015250565b6000610f04601c83610bf6565b9150610f0f82610ece565b602082019050919050565b60006020820190508181036000830152610f3381610ef7565b9050919050565b7f4e487b7100000000000000000000000000000000000000000000000000000000600052602260045260246000fd5b60006002820490506001821680610f8157607f821691505b60208210811415610f9557610f94610f3a565b5b5091905056fea264697066735822122012e2fa16a24103ed8688be154b80b88cdb98d54720d53b99c3a8f1f791f5dc0364736f6c63430008090033",
					"opcodes": "PUSH1 0x80 PUSH1 0x40 MSTORE CALLVALUE DUP1 ISZERO PUSH2 0x10 JUMPI PUSH1 0x0 DUP1 REVERT JUMPDEST POP CALLER PUSH1 0x0 PUSH1 0x1 PUSH2 0x100 EXP DUP2 SLOAD DUP2 PUSH20 0xFFFFFFFFFFFFFFFFFFFFFFFFFFFFFFFFFFFFFFFF MUL NOT AND SWAP1 DUP4 PUSH20 0xFFFFFFFFFFFFFFFFFFFFFFFFFFFFFFFFFFFFFFFF AND MUL OR SWAP1 SSTORE POP PUSH2 0xFD1 DUP1 PUSH2 0x61 PUSH1 0x0 CODECOPY PUSH1 0x0 RETURN INVALID PUSH1 0x80 PUSH1 0x40 MSTORE CALLVALUE DUP1 ISZERO PUSH2 0x10 JUMPI PUSH1 0x0 DUP1 REVERT JUMPDEST POP PUSH1 0x4 CALLDATASIZE LT PUSH2 0x62 JUMPI PUSH1 0x0 CALLDATALOAD PUSH1 0xE0 SHR DUP1 PUSH4 0x7F93F17 EQ PUSH2 0x67 JUMPI DUP1 PUSH4 0xD04D05A EQ PUSH2 0x83 JUMPI DUP1 PUSH4 0x1B54AC80 EQ PUSH2 0x9F JUMPI DUP1 PUSH4 0x2B23461F EQ PUSH2 0xBB JUMPI DUP1 PUSH4 0x8DA5CB5B EQ PUSH2 0xEB JUMPI DUP1 PUSH4 0xEC73CAB5 EQ PUSH2 0x109 JUMPI JUMPDEST PUSH1 0x0 DUP1 REVERT JUMPDEST PUSH2 0x81 PUSH1 0x4 DUP1 CALLDATASIZE SUB DUP2 ADD SWAP1 PUSH2 0x7C SWAP2 SWAP1 PUSH2 0xA02 JUMP JUMPDEST PUSH2 0x127 JUMP JUMPDEST STOP JUMPDEST PUSH2 0x9D PUSH1 0x4 DUP1 CALLDATASIZE SUB DUP2 ADD SWAP1 PUSH2 0x98 SWAP2 SWAP1 PUSH2 0xA71 JUMP JUMPDEST PUSH2 0x564 JUMP JUMPDEST STOP JUMPDEST PUSH2 0xB9 PUSH1 0x4 DUP1 CALLDATASIZE SUB DUP2 ADD SWAP1 PUSH2 0xB4 SWAP2 SWAP1 PUSH2 0xA9E JUMP JUMPDEST PUSH2 0x68B JUMP JUMPDEST STOP JUMPDEST PUSH2 0xD5 PUSH1 0x4 DUP1 CALLDATASIZE SUB DUP2 ADD SWAP1 PUSH2 0xD0 SWAP2 SWAP1 PUSH2 0xA71 JUMP JUMPDEST PUSH2 0x75B JUMP JUMPDEST PUSH1 0x40 MLOAD PUSH2 0xE2 SWAP2 SWAP1 PUSH2 0xAED JUMP JUMPDEST PUSH1 0x40 MLOAD DUP1 SWAP2 SUB SWAP1 RETURN JUMPDEST PUSH2 0xF3 PUSH2 0x773 JUMP JUMPDEST PUSH1 0x40 MLOAD PUSH2 0x100 SWAP2 SWAP1 PUSH2 0xB49 JUMP JUMPDEST PUSH1 0x40 MLOAD DUP1 SWAP2 SUB SWAP1 RETURN JUMPDEST PUSH2 0x111 PUSH2 0x799 JUMP JUMPDEST PUSH1 0x40 MLOAD PUSH2 0x11E SWAP2 SWAP1 PUSH2 0xBDB JUMP JUMPDEST PUSH1 0x40 MLOAD DUP1 SWAP2 SUB SWAP1 RETURN JUMPDEST PUSH1 0x1 ISZERO ISZERO PUSH1 0x2 PUSH1 0x0 CALLER PUSH20 0xFFFFFFFFFFFFFFFFFFFFFFFFFFFFFFFFFFFFFFFF AND PUSH20 0xFFFFFFFFFFFFFFFFFFFFFFFFFFFFFFFFFFFFFFFF AND DUP2 MSTORE PUSH1 0x20 ADD SWAP1 DUP2 MSTORE PUSH1 0x20 ADD PUSH1 0x0 KECCAK256 PUSH1 0x0 SWAP1 SLOAD SWAP1 PUSH2 0x100 EXP SWAP1 DIV PUSH1 0xFF AND ISZERO ISZERO EQ ISZERO PUSH2 0x1BB JUMPI PUSH1 0x40 MLOAD PUSH32 0x8C379A000000000000000000000000000000000000000000000000000000000 DUP2 MSTORE PUSH1 0x4 ADD PUSH2 0x1B2 SWAP1 PUSH2 0xC79 JUMP JUMPDEST PUSH1 0x40 MLOAD DUP1 SWAP2 SUB SWAP1 REVERT JUMPDEST PUSH1 0x40 MLOAD DUP1 PUSH1 0x40 ADD PUSH1 0x40 MSTORE DUP1 PUSH1 0x4 DUP2 MSTORE PUSH1 0x20 ADD PUSH32 0x4D616C6500000000000000000000000000000000000000000000000000000000 DUP2 MSTORE POP DUP1 MLOAD SWAP1 PUSH1 0x20 ADD KECCAK256 DUP3 DUP1 MLOAD SWAP1 PUSH1 0x20 ADD KECCAK256 EQ ISZERO PUSH2 0x3BB JUMPI PUSH1 0x2 PUSH1 0x4 DUP2 GT ISZERO PUSH2 0x21A JUMPI PUSH2 0x219 PUSH2 0xB64 JUMP JUMPDEST JUMPDEST DUP2 PUSH1 0x4 DUP2 GT ISZERO PUSH2 0x22D JUMPI PUSH2 0x22C PUSH2 0xB64 JUMP JUMPDEST JUMPDEST EQ PUSH2 0x26D JUMPI PUSH1 0x40 MLOAD PUSH32 0x8C379A000000000000000000000000000000000000000000000000000000000 DUP2 MSTORE PUSH1 0x4 ADD PUSH2 0x264 SWAP1 PUSH2 0xCE5 JUMP JUMPDEST PUSH1 0x40 MLOAD DUP1 SWAP2 SUB SWAP1 REVERT JUMPDEST PUSH1 0x0 PUSH1 0x4 DUP2 GT ISZERO PUSH2 0x281 JUMPI PUSH2 0x280 PUSH2 0xB64 JUMP JUMPDEST JUMPDEST DUP2 PUSH1 0x4 DUP2 GT ISZERO PUSH2 0x294 JUMPI PUSH2 0x293 PUSH2 0xB64 JUMP JUMPDEST JUMPDEST EQ PUSH2 0x2D4 JUMPI PUSH1 0x40 MLOAD PUSH32 0x8C379A000000000000000000000000000000000000000000000000000000000 DUP2 MSTORE PUSH1 0x4 ADD PUSH2 0x2CB SWAP1 PUSH2 0xCE5 JUMP JUMPDEST PUSH1 0x40 MLOAD DUP1 SWAP2 SUB SWAP1 REVERT JUMPDEST PUSH1 0x40 MLOAD DUP1 PUSH1 0x60 ADD PUSH1 0x40 MSTORE DUP1 DUP5 DUP2 MSTORE PUSH1 0x20 ADD DUP4 DUP2 MSTORE PUSH1 0x20 ADD TIMESTAMP DUP2 MSTORE POP PUSH1 0x3 PUSH1 0x0 CALLER PUSH20 0xFFFFFFFFFFFFFFFFFFFFFFFFFFFFFFFFFFFFFFFF AND PUSH20 0xFFFFFFFFFFFFFFFFFFFFFFFFFFFFFFFFFFFFFFFF AND DUP2 MSTORE PUSH1 0x20 ADD SWAP1 DUP2 MSTORE PUSH1 0x20 ADD PUSH1 0x0 KECCAK256 PUSH1 0x0 DUP3 ADD MLOAD DUP2 PUSH1 0x0 ADD SSTORE PUSH1 0x20 DUP3 ADD MLOAD DUP2 PUSH1 0x1 ADD SWAP1 DUP1 MLOAD SWAP1 PUSH1 0x20 ADD SWAP1 PUSH2 0x354 SWAP3 SWAP2 SWAP1 PUSH2 0x7AA JUMP JUMPDEST POP PUSH1 0x40 DUP3 ADD MLOAD DUP2 PUSH1 0x2 ADD SSTORE SWAP1 POP POP PUSH1 0x1 PUSH1 0x2 PUSH1 0x0 CALLER PUSH20 0xFFFFFFFFFFFFFFFFFFFFFFFFFFFFFFFFFFFFFFFF AND PUSH20 0xFFFFFFFFFFFFFFFFFFFFFFFFFFFFFFFFFFFFFFFF AND DUP2 MSTORE PUSH1 0x20 ADD SWAP1 DUP2 MSTORE PUSH1 0x20 ADD PUSH1 0x0 KECCAK256 PUSH1 0x0 PUSH2 0x100 EXP DUP2 SLOAD DUP2 PUSH1 0xFF MUL NOT AND SWAP1 DUP4 ISZERO ISZERO MUL OR SWAP1 SSTORE POP JUMPDEST PUSH1 0x40 MLOAD DUP1 PUSH1 0x40 ADD PUSH1 0x40 MSTORE DUP1 PUSH1 0x6 DUP2 MSTORE PUSH1 0x20 ADD PUSH32 0x46656D616C650000000000000000000000000000000000000000000000000000 DUP2 MSTORE POP DUP1 MLOAD SWAP1 PUSH1 0x20 ADD KECCAK256 DUP3 DUP1 MLOAD SWAP1 PUSH1 0x20 ADD KECCAK256 EQ ISZERO PUSH2 0x55F JUMPI PUSH1 0x28 DUP4 LT ISZERO PUSH2 0x478 JUMPI PUSH1 0x1 PUSH1 0x4 DUP2 GT ISZERO PUSH2 0x423 JUMPI PUSH2 0x422 PUSH2 0xB64 JUMP JUMPDEST JUMPDEST DUP2 PUSH1 0x4 DUP2 GT ISZERO PUSH2 0x436 JUMPI PUSH2 0x435 PUSH2 0xB64 JUMP JUMPDEST JUMPDEST EQ ISZERO PUSH2 0x477 JUMPI PUSH1 0x40 MLOAD PUSH32 0x8C379A000000000000000000000000000000000000000000000000000000000 DUP2 MSTORE PUSH1 0x4 ADD PUSH2 0x46E SWAP1 PUSH2 0xD51 JUMP JUMPDEST PUSH1 0x40 MLOAD DUP1 SWAP2 SUB SWAP1 REVERT JUMPDEST JUMPDEST PUSH1 0x40 MLOAD DUP1 PUSH1 0x60 ADD PUSH1 0x40 MSTORE DUP1 DUP5 DUP2 MSTORE PUSH1 0x20 ADD DUP4 DUP2 MSTORE PUSH1 0x20 ADD TIMESTAMP DUP2 MSTORE POP PUSH1 0x3 PUSH1 0x0 CALLER PUSH20 0xFFFFFFFFFFFFFFFFFFFFFFFFFFFFFFFFFFFFFFFF AND PUSH20 0xFFFFFFFFFFFFFFFFFFFFFFFFFFFFFFFFFFFFFFFF AND DUP2 MSTORE PUSH1 0x20 ADD SWAP1 DUP2 MSTORE PUSH1 0x20 ADD PUSH1 0x0 KECCAK256 PUSH1 0x0 DUP3 ADD MLOAD DUP2 PUSH1 0x0 ADD SSTORE PUSH1 0x20 DUP3 ADD MLOAD DUP2 PUSH1 0x1 ADD SWAP1 DUP1 MLOAD SWAP1 PUSH1 0x20 ADD SWAP1 PUSH2 0x4F8 SWAP3 SWAP2 SWAP1 PUSH2 0x7AA JUMP JUMPDEST POP PUSH1 0x40 DUP3 ADD MLOAD DUP2 PUSH1 0x2 ADD SSTORE SWAP1 POP POP PUSH1 0x1 PUSH1 0x2 PUSH1 0x0 CALLER PUSH20 0xFFFFFFFFFFFFFFFFFFFFFFFFFFFFFFFFFFFFFFFF AND PUSH20 0xFFFFFFFFFFFFFFFFFFFFFFFFFFFFFFFFFFFFFFFF AND DUP2 MSTORE PUSH1 0x20 ADD SWAP1 DUP2 MSTORE PUSH1 0x20 ADD PUSH1 0x0 KECCAK256 PUSH1 0x0 PUSH2 0x100 EXP DUP2 SLOAD DUP2 PUSH1 0xFF MUL NOT AND SWAP1 DUP4 ISZERO ISZERO MUL OR SWAP1 SSTORE POP JUMPDEST POP POP POP JUMP JUMPDEST PUSH1 0x1 ISZERO ISZERO PUSH1 0x2 PUSH1 0x0 CALLER PUSH20 0xFFFFFFFFFFFFFFFFFFFFFFFFFFFFFFFFFFFFFFFF AND PUSH20 0xFFFFFFFFFFFFFFFFFFFFFFFFFFFFFFFFFFFFFFFF AND DUP2 MSTORE PUSH1 0x20 ADD SWAP1 DUP2 MSTORE PUSH1 0x20 ADD PUSH1 0x0 KECCAK256 PUSH1 0x0 SWAP1 SLOAD SWAP1 PUSH2 0x100 EXP SWAP1 DIV PUSH1 0xFF AND ISZERO ISZERO EQ PUSH2 0x5F7 JUMPI PUSH1 0x40 MLOAD PUSH32 0x8C379A000000000000000000000000000000000000000000000000000000000 DUP2 MSTORE PUSH1 0x4 ADD PUSH2 0x5EE SWAP1 PUSH2 0xDBD JUMP JUMPDEST PUSH1 0x40 MLOAD DUP1 SWAP2 SUB SWAP1 REVERT JUMPDEST TIMESTAMP PUSH2 0x12C PUSH1 0x3 PUSH1 0x0 CALLER PUSH20 0xFFFFFFFFFFFFFFFFFFFFFFFFFFFFFFFFFFFFFFFF AND PUSH20 0xFFFFFFFFFFFFFFFFFFFFFFFFFFFFFFFFFFFFFFFF AND DUP2 MSTORE PUSH1 0x20 ADD SWAP1 DUP2 MSTORE PUSH1 0x20 ADD PUSH1 0x0 KECCAK256 PUSH1 0x2 ADD SLOAD PUSH2 0x648 SWAP2 SWAP1 PUSH2 0xE0C JUMP JUMPDEST LT PUSH2 0x688 JUMPI PUSH1 0x40 MLOAD PUSH32 0x8C379A000000000000000000000000000000000000000000000000000000000 DUP2 MSTORE PUSH1 0x4 ADD PUSH2 0x67F SWAP1 PUSH2 0xEAE JUMP JUMPDEST PUSH1 0x40 MLOAD DUP1 SWAP2 SUB SWAP1 REVERT JUMPDEST POP JUMP JUMPDEST PUSH1 0x0 PUSH1 0x1 SWAP1 SLOAD SWAP1 PUSH2 0x100 EXP SWAP1 DIV PUSH20 0xFFFFFFFFFFFFFFFFFFFFFFFFFFFFFFFFFFFFFFFF AND PUSH20 0xFFFFFFFFFFFFFFFFFFFFFFFFFFFFFFFFFFFFFFFF AND CALLER PUSH20 0xFFFFFFFFFFFFFFFFFFFFFFFFFFFFFFFFFFFFFFFF AND EQ PUSH2 0x71B JUMPI PUSH1 0x40 MLOAD PUSH32 0x8C379A000000000000000000000000000000000000000000000000000000000 DUP2 MSTORE PUSH1 0x4 ADD PUSH2 0x712 SWAP1 PUSH2 0xF1A JUMP JUMPDEST PUSH1 0x40 MLOAD DUP1 SWAP2 SUB SWAP1 REVERT JUMPDEST DUP1 PUSH1 0x1 PUSH1 0x0 DUP5 PUSH1 0x4 DUP2 GT ISZERO PUSH2 0x733 JUMPI PUSH2 0x732 PUSH2 0xB64 JUMP JUMPDEST JUMPDEST PUSH1 0x4 DUP2 GT ISZERO PUSH2 0x745 JUMPI PUSH2 0x744 PUSH2 0xB64 JUMP JUMPDEST JUMPDEST DUP2 MSTORE PUSH1 0x20 ADD SWAP1 DUP2 MSTORE PUSH1 0x20 ADD PUSH1 0x0 KECCAK256 DUP2 SWAP1 SSTORE POP POP POP JUMP JUMPDEST PUSH1 0x1 PUSH1 0x20 MSTORE DUP1 PUSH1 0x0 MSTORE PUSH1 0x40 PUSH1 0x0 KECCAK256 PUSH1 0x0 SWAP2 POP SWAP1 POP SLOAD DUP2 JUMP JUMPDEST PUSH1 0x0 PUSH1 0x1 SWAP1 SLOAD SWAP1 PUSH2 0x100 EXP SWAP1 DIV PUSH20 0xFFFFFFFFFFFFFFFFFFFFFFFFFFFFFFFFFFFFFFFF AND DUP2 JUMP JUMPDEST PUSH1 0x0 DUP1 SLOAD SWAP1 PUSH2 0x100 EXP SWAP1 DIV PUSH1 0xFF AND DUP2 JUMP JUMPDEST DUP3 DUP1 SLOAD PUSH2 0x7B6 SWAP1 PUSH2 0xF69 JUMP JUMPDEST SWAP1 PUSH1 0x0 MSTORE PUSH1 0x20 PUSH1 0x0 KECCAK256 SWAP1 PUSH1 0x1F ADD PUSH1 0x20 SWAP1 DIV DUP2 ADD SWAP3 DUP3 PUSH2 0x7D8 JUMPI PUSH1 0x0 DUP6 SSTORE PUSH2 0x81F JUMP JUMPDEST DUP3 PUSH1 0x1F LT PUSH2 0x7F1 JUMPI DUP1 MLOAD PUSH1 0xFF NOT AND DUP4 DUP1 ADD OR DUP6 SSTORE PUSH2 0x81F JUMP JUMPDEST DUP3 DUP1 ADD PUSH1 0x1 ADD DUP6 SSTORE DUP3 ISZERO PUSH2 0x81F JUMPI SWAP2 DUP3 ADD JUMPDEST DUP3 DUP2 GT ISZERO PUSH2 0x81E JUMPI DUP3 MLOAD DUP3 SSTORE SWAP2 PUSH1 0x20 ADD SWAP2 SWAP1 PUSH1 0x1 ADD SWAP1 PUSH2 0x803 JUMP JUMPDEST JUMPDEST POP SWAP1 POP PUSH2 0x82C SWAP2 SWAP1 PUSH2 0x830 JUMP JUMPDEST POP SWAP1 JUMP JUMPDEST JUMPDEST DUP1 DUP3 GT ISZERO PUSH2 0x849 JUMPI PUSH1 0x0 DUP2 PUSH1 0x0 SWAP1 SSTORE POP PUSH1 0x1 ADD PUSH2 0x831 JUMP JUMPDEST POP SWAP1 JUMP JUMPDEST PUSH1 0x0 PUSH1 0x40 MLOAD SWAP1 POP SWAP1 JUMP JUMPDEST PUSH1 0x0 DUP1 REVERT JUMPDEST PUSH1 0x0 DUP1 REVERT JUMPDEST PUSH1 0x0 DUP2 SWAP1 POP SWAP2 SWAP1 POP JUMP JUMPDEST PUSH2 0x874 DUP2 PUSH2 0x861 JUMP JUMPDEST DUP2 EQ PUSH2 0x87F JUMPI PUSH1 0x0 DUP1 REVERT JUMPDEST POP JUMP JUMPDEST PUSH1 0x0 DUP2 CALLDATALOAD SWAP1 POP PUSH2 0x891 DUP2 PUSH2 0x86B JUMP JUMPDEST SWAP3 SWAP2 POP POP JUMP JUMPDEST PUSH1 0x0 DUP1 REVERT JUMPDEST PUSH1 0x0 DUP1 REVERT JUMPDEST PUSH1 0x0 PUSH1 0x1F NOT PUSH1 0x1F DUP4 ADD AND SWAP1 POP SWAP2 SWAP1 POP JUMP JUMPDEST PUSH32 0x4E487B7100000000000000000000000000000000000000000000000000000000 PUSH1 0x0 MSTORE PUSH1 0x41 PUSH1 0x4 MSTORE PUSH1 0x24 PUSH1 0x0 REVERT JUMPDEST PUSH2 0x8EA DUP3 PUSH2 0x8A1 JUMP JUMPDEST DUP2 ADD DUP2 DUP2 LT PUSH8 0xFFFFFFFFFFFFFFFF DUP3 GT OR ISZERO PUSH2 0x909 JUMPI PUSH2 0x908 PUSH2 0x8B2 JUMP JUMPDEST JUMPDEST DUP1 PUSH1 0x40 MSTORE POP POP POP JUMP JUMPDEST PUSH1 0x0 PUSH2 0x91C PUSH2 0x84D JUMP JUMPDEST SWAP1 POP PUSH2 0x928 DUP3 DUP3 PUSH2 0x8E1 JUMP JUMPDEST SWAP2 SWAP1 POP JUMP JUMPDEST PUSH1 0x0 PUSH8 0xFFFFFFFFFFFFFFFF DUP3 GT ISZERO PUSH2 0x948 JUMPI PUSH2 0x947 PUSH2 0x8B2 JUMP JUMPDEST JUMPDEST PUSH2 0x951 DUP3 PUSH2 0x8A1 JUMP JUMPDEST SWAP1 POP PUSH1 0x20 DUP2 ADD SWAP1 POP SWAP2 SWAP1 POP JUMP JUMPDEST DUP3 DUP2 DUP4 CALLDATACOPY PUSH1 0x0 DUP4 DUP4 ADD MSTORE POP POP POP JUMP JUMPDEST PUSH1 0x0 PUSH2 0x980 PUSH2 0x97B DUP5 PUSH2 0x92D JUMP JUMPDEST PUSH2 0x912 JUMP JUMPDEST SWAP1 POP DUP3 DUP2 MSTORE PUSH1 0x20 DUP2 ADD DUP5 DUP5 DUP5 ADD GT ISZERO PUSH2 0x99C JUMPI PUSH2 0x99B PUSH2 0x89C JUMP JUMPDEST JUMPDEST PUSH2 0x9A7 DUP5 DUP3 DUP6 PUSH2 0x95E JUMP JUMPDEST POP SWAP4 SWAP3 POP POP POP JUMP JUMPDEST PUSH1 0x0 DUP3 PUSH1 0x1F DUP4 ADD SLT PUSH2 0x9C4 JUMPI PUSH2 0x9C3 PUSH2 0x897 JUMP JUMPDEST JUMPDEST DUP2 CALLDATALOAD PUSH2 0x9D4 DUP5 DUP3 PUSH1 0x20 DUP7 ADD PUSH2 0x96D JUMP JUMPDEST SWAP2 POP POP SWAP3 SWAP2 POP POP JUMP JUMPDEST PUSH1 0x5 DUP2 LT PUSH2 0x9EA JUMPI PUSH1 0x0 DUP1 REVERT JUMPDEST POP JUMP JUMPDEST PUSH1 0x0 DUP2 CALLDATALOAD SWAP1 POP PUSH2 0x9FC DUP2 PUSH2 0x9DD JUMP JUMPDEST SWAP3 SWAP2 POP POP JUMP JUMPDEST PUSH1 0x0 DUP1 PUSH1 0x0 PUSH1 0x60 DUP5 DUP7 SUB SLT ISZERO PUSH2 0xA1B JUMPI PUSH2 0xA1A PUSH2 0x857 JUMP JUMPDEST JUMPDEST PUSH1 0x0 PUSH2 0xA29 DUP7 DUP3 DUP8 ADD PUSH2 0x882 JUMP JUMPDEST SWAP4 POP POP PUSH1 0x20 DUP5 ADD CALLDATALOAD PUSH8 0xFFFFFFFFFFFFFFFF DUP2 GT ISZERO PUSH2 0xA4A JUMPI PUSH2 0xA49 PUSH2 0x85C JUMP JUMPDEST JUMPDEST PUSH2 0xA56 DUP7 DUP3 DUP8 ADD PUSH2 0x9AF JUMP JUMPDEST SWAP3 POP POP PUSH1 0x40 PUSH2 0xA67 DUP7 DUP3 DUP8 ADD PUSH2 0x9ED JUMP JUMPDEST SWAP2 POP POP SWAP3 POP SWAP3 POP SWAP3 JUMP JUMPDEST PUSH1 0x0 PUSH1 0x20 DUP3 DUP5 SUB SLT ISZERO PUSH2 0xA87 JUMPI PUSH2 0xA86 PUSH2 0x857 JUMP JUMPDEST JUMPDEST PUSH1 0x0 PUSH2 0xA95 DUP5 DUP3 DUP6 ADD PUSH2 0x9ED JUMP JUMPDEST SWAP2 POP POP SWAP3 SWAP2 POP POP JUMP JUMPDEST PUSH1 0x0 DUP1 PUSH1 0x40 DUP4 DUP6 SUB SLT ISZERO PUSH2 0xAB5 JUMPI PUSH2 0xAB4 PUSH2 0x857 JUMP JUMPDEST JUMPDEST PUSH1 0x0 PUSH2 0xAC3 DUP6 DUP3 DUP7 ADD PUSH2 0x9ED JUMP JUMPDEST SWAP3 POP POP PUSH1 0x20 PUSH2 0xAD4 DUP6 DUP3 DUP7 ADD PUSH2 0x882 JUMP JUMPDEST SWAP2 POP POP SWAP3 POP SWAP3 SWAP1 POP JUMP JUMPDEST PUSH2 0xAE7 DUP2 PUSH2 0x861 JUMP JUMPDEST DUP3 MSTORE POP POP JUMP JUMPDEST PUSH1 0x0 PUSH1 0x20 DUP3 ADD SWAP1 POP PUSH2 0xB02 PUSH1 0x0 DUP4 ADD DUP5 PUSH2 0xADE JUMP JUMPDEST SWAP3 SWAP2 POP POP JUMP JUMPDEST PUSH1 0x0 PUSH20 0xFFFFFFFFFFFFFFFFFFFFFFFFFFFFFFFFFFFFFFFF DUP3 AND SWAP1 POP SWAP2 SWAP1 POP JUMP JUMPDEST PUSH1 0x0 PUSH2 0xB33 DUP3 PUSH2 0xB08 JUMP JUMPDEST SWAP1 POP SWAP2 SWAP1 POP JUMP JUMPDEST PUSH2 0xB43 DUP2 PUSH2 0xB28 JUMP JUMPDEST DUP3 MSTORE POP POP JUMP JUMPDEST PUSH1 0x0 PUSH1 0x20 DUP3 ADD SWAP1 POP PUSH2 0xB5E PUSH1 0x0 DUP4 ADD DUP5 PUSH2 0xB3A JUMP JUMPDEST SWAP3 SWAP2 POP POP JUMP JUMPDEST PUSH32 0x4E487B7100000000000000000000000000000000000000000000000000000000 PUSH1 0x0 MSTORE PUSH1 0x21 PUSH1 0x4 MSTORE PUSH1 0x24 PUSH1 0x0 REVERT JUMPDEST PUSH1 0x5 DUP2 LT PUSH2 0xBA4 JUMPI PUSH2 0xBA3 PUSH2 0xB64 JUMP JUMPDEST JUMPDEST POP JUMP JUMPDEST PUSH1 0x0 DUP2 SWAP1 POP PUSH2 0xBB5 DUP3 PUSH2 0xB93 JUMP JUMPDEST SWAP2 SWAP1 POP JUMP JUMPDEST PUSH1 0x0 PUSH2 0xBC5 DUP3 PUSH2 0xBA7 JUMP JUMPDEST SWAP1 POP SWAP2 SWAP1 POP JUMP JUMPDEST PUSH2 0xBD5 DUP2 PUSH2 0xBBA JUMP JUMPDEST DUP3 MSTORE POP POP JUMP JUMPDEST PUSH1 0x0 PUSH1 0x20 DUP3 ADD SWAP1 POP PUSH2 0xBF0 PUSH1 0x0 DUP4 ADD DUP5 PUSH2 0xBCC JUMP JUMPDEST SWAP3 SWAP2 POP POP JUMP JUMPDEST PUSH1 0x0 DUP3 DUP3 MSTORE PUSH1 0x20 DUP3 ADD SWAP1 POP SWAP3 SWAP2 POP POP JUMP JUMPDEST PUSH32 0x596F7520616C7265616479206861766520626F72726F7765642074686520616E PUSH1 0x0 DUP3 ADD MSTORE PUSH32 0x696D616C00000000000000000000000000000000000000000000000000000000 PUSH1 0x20 DUP3 ADD MSTORE POP JUMP JUMPDEST PUSH1 0x0 PUSH2 0xC63 PUSH1 0x24 DUP4 PUSH2 0xBF6 JUMP JUMPDEST SWAP2 POP PUSH2 0xC6E DUP3 PUSH2 0xC07 JUMP JUMPDEST PUSH1 0x40 DUP3 ADD SWAP1 POP SWAP2 SWAP1 POP JUMP JUMPDEST PUSH1 0x0 PUSH1 0x20 DUP3 ADD SWAP1 POP DUP2 DUP2 SUB PUSH1 0x0 DUP4 ADD MSTORE PUSH2 0xC92 DUP2 PUSH2 0xC56 JUMP JUMPDEST SWAP1 POP SWAP2 SWAP1 POP JUMP JUMPDEST PUSH32 0x596F752063616E206F6E6C792062757920646F67206F72206669736800000000 PUSH1 0x0 DUP3 ADD MSTORE POP JUMP JUMPDEST PUSH1 0x0 PUSH2 0xCCF PUSH1 0x1C DUP4 PUSH2 0xBF6 JUMP JUMPDEST SWAP2 POP PUSH2 0xCDA DUP3 PUSH2 0xC99 JUMP JUMPDEST PUSH1 0x20 DUP3 ADD SWAP1 POP SWAP2 SWAP1 POP JUMP JUMPDEST PUSH1 0x0 PUSH1 0x20 DUP3 ADD SWAP1 POP DUP2 DUP2 SUB PUSH1 0x0 DUP4 ADD MSTORE PUSH2 0xCFE DUP2 PUSH2 0xCC2 JUMP JUMPDEST SWAP1 POP SWAP2 SWAP1 POP JUMP JUMPDEST PUSH32 0x596F7520617265206E6F7420616C6C6F77656420746F20627579206361740000 PUSH1 0x0 DUP3 ADD MSTORE POP JUMP JUMPDEST PUSH1 0x0 PUSH2 0xD3B PUSH1 0x1E DUP4 PUSH2 0xBF6 JUMP JUMPDEST SWAP2 POP PUSH2 0xD46 DUP3 PUSH2 0xD05 JUMP JUMPDEST PUSH1 0x20 DUP3 ADD SWAP1 POP SWAP2 SWAP1 POP JUMP JUMPDEST PUSH1 0x0 PUSH1 0x20 DUP3 ADD SWAP1 POP DUP2 DUP2 SUB PUSH1 0x0 DUP4 ADD MSTORE PUSH2 0xD6A DUP2 PUSH2 0xD2E JUMP JUMPDEST SWAP1 POP SWAP2 SWAP1 POP JUMP JUMPDEST PUSH32 0x596F7520686176656E2774206C656E642074686520616E696D616C2079657400 PUSH1 0x0 DUP3 ADD MSTORE POP JUMP JUMPDEST PUSH1 0x0 PUSH2 0xDA7 PUSH1 0x1F DUP4 PUSH2 0xBF6 JUMP JUMPDEST SWAP2 POP PUSH2 0xDB2 DUP3 PUSH2 0xD71 JUMP JUMPDEST PUSH1 0x20 DUP3 ADD SWAP1 POP SWAP2 SWAP1 POP JUMP JUMPDEST PUSH1 0x0 PUSH1 0x20 DUP3 ADD SWAP1 POP DUP2 DUP2 SUB PUSH1 0x0 DUP4 ADD MSTORE PUSH2 0xDD6 DUP2 PUSH2 0xD9A JUMP JUMPDEST SWAP1 POP SWAP2 SWAP1 POP JUMP JUMPDEST PUSH32 0x4E487B7100000000000000000000000000000000000000000000000000000000 PUSH1 0x0 MSTORE PUSH1 0x11 PUSH1 0x4 MSTORE PUSH1 0x24 PUSH1 0x0 REVERT JUMPDEST PUSH1 0x0 PUSH2 0xE17 DUP3 PUSH2 0x861 JUMP JUMPDEST SWAP2 POP PUSH2 0xE22 DUP4 PUSH2 0x861 JUMP JUMPDEST SWAP3 POP DUP3 PUSH32 0xFFFFFFFFFFFFFFFFFFFFFFFFFFFFFFFFFFFFFFFFFFFFFFFFFFFFFFFFFFFFFFFF SUB DUP3 GT ISZERO PUSH2 0xE57 JUMPI PUSH2 0xE56 PUSH2 0xDDD JUMP JUMPDEST JUMPDEST DUP3 DUP3 ADD SWAP1 POP SWAP3 SWAP2 POP POP JUMP JUMPDEST PUSH32 0x4974206973206D6F7265207468616E2035206D696E75746573206E6F77200000 PUSH1 0x0 DUP3 ADD MSTORE POP JUMP JUMPDEST PUSH1 0x0 PUSH2 0xE98 PUSH1 0x1E DUP4 PUSH2 0xBF6 JUMP JUMPDEST SWAP2 POP PUSH2 0xEA3 DUP3 PUSH2 0xE62 JUMP JUMPDEST PUSH1 0x20 DUP3 ADD SWAP1 POP SWAP2 SWAP1 POP JUMP JUMPDEST PUSH1 0x0 PUSH1 0x20 DUP3 ADD SWAP1 POP DUP2 DUP2 SUB PUSH1 0x0 DUP4 ADD MSTORE PUSH2 0xEC7 DUP2 PUSH2 0xE8B JUMP JUMPDEST SWAP1 POP SWAP2 SWAP1 POP JUMP JUMPDEST PUSH32 0x4F6E6C79206F776E65722063616E2067697665207368656C7465722000000000 PUSH1 0x0 DUP3 ADD MSTORE POP JUMP JUMPDEST PUSH1 0x0 PUSH2 0xF04 PUSH1 0x1C DUP4 PUSH2 0xBF6 JUMP JUMPDEST SWAP2 POP PUSH2 0xF0F DUP3 PUSH2 0xECE JUMP JUMPDEST PUSH1 0x20 DUP3 ADD SWAP1 POP SWAP2 SWAP1 POP JUMP JUMPDEST PUSH1 0x0 PUSH1 0x20 DUP3 ADD SWAP1 POP DUP2 DUP2 SUB PUSH1 0x0 DUP4 ADD MSTORE PUSH2 0xF33 DUP2 PUSH2 0xEF7 JUMP JUMPDEST SWAP1 POP SWAP2 SWAP1 POP JUMP JUMPDEST PUSH32 0x4E487B7100000000000000000000000000000000000000000000000000000000 PUSH1 0x0 MSTORE PUSH1 0x22 PUSH1 0x4 MSTORE PUSH1 0x24 PUSH1 0x0 REVERT JUMPDEST PUSH1 0x0 PUSH1 0x2 DUP3 DIV SWAP1 POP PUSH1 0x1 DUP3 AND DUP1 PUSH2 0xF81 JUMPI PUSH1 0x7F DUP3 AND SWAP2 POP JUMPDEST PUSH1 0x20 DUP3 LT DUP2 EQ ISZERO PUSH2 0xF95 JUMPI PUSH2 0xF94 PUSH2 0xF3A JUMP JUMPDEST JUMPDEST POP SWAP2 SWAP1 POP JUMP INVALID LOG2 PUSH5 0x6970667358 0x22 SLT KECCAK256 SLT 0xE2 STATICCALL AND LOG2 COINBASE SUB 0xED DUP7 DUP9 0xBE ISZERO 0x4B DUP1 0xB8 DUP13 0xDB SWAP9 0xD5 SELFBALANCE KECCAK256 0xD5 EXTCODESIZE SWAP10 0xC3 0xA8 CALL 0xF7 SWAP2 CREATE2 0xDC SUB PUSH5 0x736F6C6343 STOP ADDMOD MULMOD STOP CALLER "
				},
				"gasEstimates": {
					"creation": {
						"codeDepositCost": "809800",
						"executionCost": "25160",
						"totalCost": "834960"
					},
					"external": {
						"add(uint8,uint256)": "25022",
						"animalKind()": "2645",
						"animals(uint8)": "2766",
						"buy(uint256,string,uint8)": "infinite",
						"giveBackAnimal(uint8)": "infinite",
						"owner()": "2630"
					}
				},
				"methodIdentifiers": {
					"add(uint8,uint256)": "1b54ac80",
					"animalKind()": "ec73cab5",
					"animals(uint8)": "2b23461f",
					"buy(uint256,string,uint8)": "07f93f17",
					"giveBackAnimal(uint8)": "0d04d05a",
					"owner()": "8da5cb5b"
				}
			},
			"storageLayout": {
				"storage": [
					{
						"astId": 17,
						"contract": "PetSanctuary.sol:PetSanctuary",
						"label": "animalKind",
						"offset": 0,
						"slot": "0",
						"type": "t_enum(AnimalKind)14"
					},
					{
						"astId": 19,
						"contract": "PetSanctuary.sol:PetSanctuary",
						"label": "owner",
						"offset": 1,
						"slot": "0",
						"type": "t_address"
					},
					{
						"astId": 24,
						"contract": "PetSanctuary.sol:PetSanctuary",
						"label": "animals",
						"offset": 0,
						"slot": "1",
						"type": "t_mapping(t_enum(AnimalKind)14,t_uint256)"
					},
					{
						"astId": 28,
						"contract": "PetSanctuary.sol:PetSanctuary",
						"label": "buyStatus",
						"offset": 0,
						"slot": "2",
						"type": "t_mapping(t_address,t_bool)"
					},
					{
						"astId": 33,
						"contract": "PetSanctuary.sol:PetSanctuary",
						"label": "buyers",
						"offset": 0,
						"slot": "3",
						"type": "t_mapping(t_address,t_struct(Person)8_storage)"
					}
				],
				"types": {
					"t_address": {
						"encoding": "inplace",
						"label": "address",
						"numberOfBytes": "20"
					},
					"t_bool": {
						"encoding": "inplace",
						"label": "bool",
						"numberOfBytes": "1"
					},
					"t_enum(AnimalKind)14": {
						"encoding": "inplace",
						"label": "enum PetSanctuary.AnimalKind",
						"numberOfBytes": "1"
					},
					"t_mapping(t_address,t_bool)": {
						"encoding": "mapping",
						"key": "t_address",
						"label": "mapping(address => bool)",
						"numberOfBytes": "32",
						"value": "t_bool"
					},
					"t_mapping(t_address,t_struct(Person)8_storage)": {
						"encoding": "mapping",
						"key": "t_address",
						"label": "mapping(address => struct Person)",
						"numberOfBytes": "32",
						"value": "t_struct(Person)8_storage"
					},
					"t_mapping(t_enum(AnimalKind)14,t_uint256)": {
						"encoding": "mapping",
						"key": "t_enum(AnimalKind)14",
						"label": "mapping(enum PetSanctuary.AnimalKind => uint256)",
						"numberOfBytes": "32",
						"value": "t_uint256"
					},
					"t_string_storage": {
						"encoding": "bytes",
						"label": "string",
						"numberOfBytes": "32"
					},
					"t_struct(Person)8_storage": {
						"encoding": "inplace",
						"label": "struct Person",
						"members": [
							{
								"astId": 3,
								"contract": "PetSanctuary.sol:PetSanctuary",
								"label": "age",
								"offset": 0,
								"slot": "0",
								"type": "t_uint256"
							},
							{
								"astId": 5,
								"contract": "PetSanctuary.sol:PetSanctuary",
								"label": "gender",
								"offset": 0,
								"slot": "1",
								"type": "t_string_storage"
							},
							{
								"astId": 7,
								"contract": "PetSanctuary.sol:PetSanctuary",
								"label": "lendTime",
								"offset": 0,
								"slot": "2",
								"type": "t_uint256"
							}
						],
						"numberOfBytes": "96"
					},
					"t_uint256": {
						"encoding": "inplace",
						"label": "uint256",
						"numberOfBytes": "32"
					}
				}
			},
			"userdoc": {
				"kind": "user",
				"methods": {},
				"version": 1
			}
		}
	}
}