{
	"SimpleAuction.sol": {
		"simpleAuction": {
			"abi": [
				{
					"anonymous": false,
					"inputs": [
						{
							"indexed": false,
							"internalType": "address",
							"name": "topBider",
							"type": "address"
						},
						{
							"indexed": false,
							"internalType": "uint256",
							"name": "topBid",
							"type": "uint256"
						}
					],
					"name": "auctionClosed",
					"type": "event"
				},
				{
					"anonymous": false,
					"inputs": [
						{
							"indexed": false,
							"internalType": "address",
							"name": "auctionOwner",
							"type": "address"
						},
						{
							"indexed": false,
							"internalType": "uint256",
							"name": "startPrice",
							"type": "uint256"
						}
					],
					"name": "auctionStarted",
					"type": "event"
				},
				{
					"anonymous": false,
					"inputs": [
						{
							"indexed": false,
							"internalType": "address",
							"name": "bidder",
							"type": "address"
						},
						{
							"indexed": false,
							"internalType": "uint256",
							"name": "bidAmount",
							"type": "uint256"
						}
					],
					"name": "bidPlaced",
					"type": "event"
				},
				{
					"inputs": [],
					"name": "cancelAuction",
					"outputs": [],
					"stateMutability": "nonpayable",
					"type": "function"
				},
				{
					"inputs": [],
					"name": "placeBid",
					"outputs": [],
					"stateMutability": "payable",
					"type": "function"
				},
				{
					"inputs": [
						{
							"internalType": "uint256",
							"name": "_auctionStartPrice",
							"type": "uint256"
						},
						{
							"internalType": "uint256",
							"name": "_auctionTime",
							"type": "uint256"
						}
					],
					"name": "startAuction",
					"outputs": [],
					"stateMutability": "nonpayable",
					"type": "function"
				},
				{
					"inputs": [],
					"name": "topBid",
					"outputs": [
						{
							"internalType": "uint256",
							"name": "",
							"type": "uint256"
						}
					],
					"stateMutability": "view",
					"type": "function"
				},
				{
					"inputs": [],
					"name": "topBidder",
					"outputs": [
						{
							"internalType": "address",
							"name": "",
							"type": "address"
						}
					],
					"stateMutability": "view",
					"type": "function"
				},
				{
					"inputs": [],
					"name": "withDrawBid",
					"outputs": [
						{
							"internalType": "bool",
							"name": "",
							"type": "bool"
						}
					],
					"stateMutability": "nonpayable",
					"type": "function"
				}
			],
			"devdoc": {
				"kind": "dev",
				"methods": {},
				"version": 1
			},
			"evm": {
				"assembly": "    /* \"SimpleAuction.sol\":71:1939  contract simpleAuction{... */\n  mstore(0x40, 0x80)\n    /* \"SimpleAuction.sol\":118:123  false */\n  0x00\n    /* \"SimpleAuction.sol\":99:123  bool AuctionClosed=false */\n  dup1\n  exp(0x0100, 0x00)\n  dup2\n  sload\n  dup2\n  0xff\n  mul\n  not\n  and\n  swap1\n  dup4\n  iszero\n  iszero\n  mul\n  or\n  swap1\n  sstore\n  pop\n    /* \"SimpleAuction.sol\":184:185  0 */\n  0x00\n    /* \"SimpleAuction.sol\":163:185  uint256 topBidAmount=0 */\n  0x01\n  sstore\n    /* \"SimpleAuction.sol\":71:1939  contract simpleAuction{... */\n  callvalue\n  dup1\n  iszero\n  tag_1\n  jumpi\n  0x00\n  dup1\n  revert\ntag_1:\n  pop\n  dataSize(sub_0)\n  dup1\n  dataOffset(sub_0)\n  0x00\n  codecopy\n  0x00\n  return\nstop\n\nsub_0: assembly {\n        /* \"SimpleAuction.sol\":71:1939  contract simpleAuction{... */\n      mstore(0x40, 0x80)\n      jumpi(tag_1, lt(calldatasize, 0x04))\n      shr(0xe0, calldataload(0x00))\n      dup1\n      0x01333f06\n      eq\n      tag_2\n      jumpi\n      dup1\n      0x4fee13fc\n      eq\n      tag_3\n      jumpi\n      dup1\n      0x636bf730\n      eq\n      tag_4\n      jumpi\n      dup1\n      0x8fa8b790\n      eq\n      tag_5\n      jumpi\n      dup1\n      0xecfc7ecc\n      eq\n      tag_6\n      jumpi\n      dup1\n      0xfde8c63e\n      eq\n      tag_7\n      jumpi\n    tag_1:\n      0x00\n      dup1\n      revert\n        /* \"SimpleAuction.sol\":247:271  address public topBidder */\n    tag_2:\n      callvalue\n      dup1\n      iszero\n      tag_8\n      jumpi\n      0x00\n      dup1\n      revert\n    tag_8:\n      pop\n      tag_9\n      tag_10\n      jump\t// in\n    tag_9:\n      mload(0x40)\n      tag_11\n      swap2\n      swap1\n      tag_12\n      jump\t// in\n    tag_11:\n      mload(0x40)\n      dup1\n      swap2\n      sub\n      swap1\n      return\n        /* \"SimpleAuction.sol\":540:855  function startAuction(uint256 _auctionStartPrice, uint256 _auctionTime) public {... */\n    tag_3:\n      callvalue\n      dup1\n      iszero\n      tag_13\n      jumpi\n      0x00\n      dup1\n      revert\n    tag_13:\n      pop\n      tag_14\n      0x04\n      dup1\n      calldatasize\n      sub\n      dup2\n      add\n      swap1\n      tag_15\n      swap2\n      swap1\n      tag_16\n      jump\t// in\n    tag_15:\n      tag_17\n      jump\t// in\n    tag_14:\n      stop\n        /* \"SimpleAuction.sol\":277:298  uint256 public topBid */\n    tag_4:\n      callvalue\n      dup1\n      iszero\n      tag_18\n      jumpi\n      0x00\n      dup1\n      revert\n    tag_18:\n      pop\n      tag_19\n      tag_20\n      jump\t// in\n    tag_19:\n      mload(0x40)\n      tag_21\n      swap2\n      swap1\n      tag_22\n      jump\t// in\n    tag_21:\n      mload(0x40)\n      dup1\n      swap2\n      sub\n      swap1\n      return\n        /* \"SimpleAuction.sol\":1246:1587  function cancelAuction() public {... */\n    tag_5:\n      callvalue\n      dup1\n      iszero\n      tag_23\n      jumpi\n      0x00\n      dup1\n      revert\n    tag_23:\n      pop\n      tag_24\n      tag_25\n      jump\t// in\n    tag_24:\n      stop\n        /* \"SimpleAuction.sol\":862:1240  function placeBid() public payable{... */\n    tag_6:\n      tag_26\n      tag_27\n      jump\t// in\n    tag_26:\n      stop\n        /* \"SimpleAuction.sol\":1592:1936  function withDrawBid() public returns(bool){... */\n    tag_7:\n      callvalue\n      dup1\n      iszero\n      tag_28\n      jumpi\n      0x00\n      dup1\n      revert\n    tag_28:\n      pop\n      tag_29\n      tag_30\n      jump\t// in\n    tag_29:\n      mload(0x40)\n      tag_31\n      swap2\n      swap1\n      tag_32\n      jump\t// in\n    tag_31:\n      mload(0x40)\n      dup1\n      swap2\n      sub\n      swap1\n      return\n        /* \"SimpleAuction.sol\":247:271  address public topBidder */\n    tag_10:\n      0x04\n      0x00\n      swap1\n      sload\n      swap1\n      0x0100\n      exp\n      swap1\n      div\n      0xffffffffffffffffffffffffffffffffffffffff\n      and\n      dup2\n      jump\t// out\n        /* \"SimpleAuction.sol\":540:855  function startAuction(uint256 _auctionStartPrice, uint256 _auctionTime) public {... */\n    tag_17:\n        /* \"SimpleAuction.sol\":651:661  msg.sender */\n      caller\n        /* \"SimpleAuction.sol\":629:641  auctionOwner */\n      0x00\n      0x01\n        /* \"SimpleAuction.sol\":629:662  auctionOwner= payable(msg.sender) */\n      0x0100\n      exp\n      dup2\n      sload\n      dup2\n      0xffffffffffffffffffffffffffffffffffffffff\n      mul\n      not\n      and\n      swap1\n      dup4\n      0xffffffffffffffffffffffffffffffffffffffff\n      and\n      mul\n      or\n      swap1\n      sstore\n      pop\n        /* \"SimpleAuction.sol\":686:691  false */\n      0x00\n        /* \"SimpleAuction.sol\":672:685  AuctionClosed */\n      dup1\n      0x00\n        /* \"SimpleAuction.sol\":672:691  AuctionClosed=false */\n      0x0100\n      exp\n      dup2\n      sload\n      dup2\n      0xff\n      mul\n      not\n      and\n      swap1\n      dup4\n      iszero\n      iszero\n      mul\n      or\n      swap1\n      sstore\n      pop\n        /* \"SimpleAuction.sol\":719:737  _auctionStartPrice */\n      dup2\n        /* \"SimpleAuction.sol\":701:718  auctionStartPrice */\n      0x02\n        /* \"SimpleAuction.sol\":701:737  auctionStartPrice=_auctionStartPrice */\n      dup2\n      swap1\n      sstore\n      pop\n        /* \"SimpleAuction.sol\":775:787  _auctionTime */\n      dup1\n        /* \"SimpleAuction.sol\":759:774  block.timestamp */\n      timestamp\n        /* \"SimpleAuction.sol\":759:787  block.timestamp+_auctionTime */\n      tag_34\n      swap2\n      swap1\n      tag_35\n      jump\t// in\n    tag_34:\n        /* \"SimpleAuction.sol\":747:758  auctionTime */\n      0x03\n        /* \"SimpleAuction.sol\":747:787  auctionTime=block.timestamp+_auctionTime */\n      dup2\n      swap1\n      sstore\n      pop\n        /* \"SimpleAuction.sol\":802:848  auctionStarted(auctionOwner,auctionStartPrice) */\n      0x1e6871a9ec2c22e508757c73d7e2d7d15e2819276867174afb13fcdc9f018df2\n        /* \"SimpleAuction.sol\":817:829  auctionOwner */\n      0x00\n      0x01\n      swap1\n      sload\n      swap1\n      0x0100\n      exp\n      swap1\n      div\n      0xffffffffffffffffffffffffffffffffffffffff\n      and\n        /* \"SimpleAuction.sol\":830:847  auctionStartPrice */\n      sload(0x02)\n        /* \"SimpleAuction.sol\":802:848  auctionStarted(auctionOwner,auctionStartPrice) */\n      mload(0x40)\n      tag_36\n      swap3\n      swap2\n      swap1\n      tag_37\n      jump\t// in\n    tag_36:\n      mload(0x40)\n      dup1\n      swap2\n      sub\n      swap1\n      log1\n        /* \"SimpleAuction.sol\":540:855  function startAuction(uint256 _auctionStartPrice, uint256 _auctionTime) public {... */\n      pop\n      pop\n      jump\t// out\n        /* \"SimpleAuction.sol\":277:298  uint256 public topBid */\n    tag_20:\n      sload(0x05)\n      dup2\n      jump\t// out\n        /* \"SimpleAuction.sol\":1246:1587  function cancelAuction() public {... */\n    tag_25:\n        /* \"SimpleAuction.sol\":1310:1322  auctionOwner */\n      0x00\n      0x01\n      swap1\n      sload\n      swap1\n      0x0100\n      exp\n      swap1\n      div\n      0xffffffffffffffffffffffffffffffffffffffff\n      and\n        /* \"SimpleAuction.sol\":1296:1322  msg.sender == auctionOwner */\n      0xffffffffffffffffffffffffffffffffffffffff\n      and\n        /* \"SimpleAuction.sol\":1296:1306  msg.sender */\n      caller\n        /* \"SimpleAuction.sol\":1296:1322  msg.sender == auctionOwner */\n      0xffffffffffffffffffffffffffffffffffffffff\n      and\n      eq\n        /* \"SimpleAuction.sol\":1288:1363  require(msg.sender == auctionOwner, 'Auction owner can cancel the auction') */\n      tag_39\n      jumpi\n      mload(0x40)\n      0x08c379a000000000000000000000000000000000000000000000000000000000\n      dup2\n      mstore\n      0x04\n      add\n      tag_40\n      swap1\n      tag_41\n      jump\t// in\n    tag_40:\n      mload(0x40)\n      dup1\n      swap2\n      sub\n      swap1\n      revert\n    tag_39:\n        /* \"SimpleAuction.sol\":1400:1411  auctionTime */\n      sload(0x03)\n        /* \"SimpleAuction.sol\":1381:1396  block.timestamp */\n      timestamp\n        /* \"SimpleAuction.sol\":1381:1411  block.timestamp <= auctionTime */\n      gt\n      iszero\n        /* \"SimpleAuction.sol\":1373:1467  require(block.timestamp <= auctionTime, 'Auction is still in progress so cannot be cancelled') */\n      tag_42\n      jumpi\n      mload(0x40)\n      0x08c379a000000000000000000000000000000000000000000000000000000000\n      dup2\n      mstore\n      0x04\n      add\n      tag_43\n      swap1\n      tag_44\n      jump\t// in\n    tag_43:\n      mload(0x40)\n      dup1\n      swap2\n      sub\n      swap1\n      revert\n    tag_42:\n        /* \"SimpleAuction.sol\":1491:1495  true */\n      0x01\n        /* \"SimpleAuction.sol\":1477:1490  AuctionClosed */\n      0x00\n      dup1\n        /* \"SimpleAuction.sol\":1477:1495  AuctionClosed=true */\n      0x0100\n      exp\n      dup2\n      sload\n      dup2\n      0xff\n      mul\n      not\n      and\n      swap1\n      dup4\n      iszero\n      iszero\n      mul\n      or\n      swap1\n      sstore\n      pop\n        /* \"SimpleAuction.sol\":1510:1541  auctionClosed(topBidder,topBid) */\n      0x0693fe466dadf29e4700c29f41d1504c602b944fa5e6b5f1cb0a3a2ca0702120\n        /* \"SimpleAuction.sol\":1524:1533  topBidder */\n      0x04\n      0x00\n      swap1\n      sload\n      swap1\n      0x0100\n      exp\n      swap1\n      div\n      0xffffffffffffffffffffffffffffffffffffffff\n      and\n        /* \"SimpleAuction.sol\":1534:1540  topBid */\n      sload(0x05)\n        /* \"SimpleAuction.sol\":1510:1541  auctionClosed(topBidder,topBid) */\n      mload(0x40)\n      tag_45\n      swap3\n      swap2\n      swap1\n      tag_46\n      jump\t// in\n    tag_45:\n      mload(0x40)\n      dup1\n      swap2\n      sub\n      swap1\n      log1\n        /* \"SimpleAuction.sol\":1551:1563  auctionOwner */\n      0x00\n      0x01\n      swap1\n      sload\n      swap1\n      0x0100\n      exp\n      swap1\n      div\n      0xffffffffffffffffffffffffffffffffffffffff\n      and\n        /* \"SimpleAuction.sol\":1551:1572  auctionOwner.transfer */\n      0xffffffffffffffffffffffffffffffffffffffff\n      and\n        /* \"SimpleAuction.sol\":1551:1580  auctionOwner.transfer(topBid) */\n      0x08fc\n        /* \"SimpleAuction.sol\":1573:1579  topBid */\n      sload(0x05)\n        /* \"SimpleAuction.sol\":1551:1580  auctionOwner.transfer(topBid) */\n      swap1\n      dup2\n      iszero\n      mul\n      swap1\n      mload(0x40)\n      0x00\n      mload(0x40)\n      dup1\n      dup4\n      sub\n      dup2\n      dup6\n      dup9\n      dup9\n      call\n      swap4\n      pop\n      pop\n      pop\n      pop\n      iszero\n      dup1\n      iszero\n      tag_48\n      jumpi\n      returndatasize\n      0x00\n      dup1\n      returndatacopy\n      revert(0x00, returndatasize)\n    tag_48:\n      pop\n        /* \"SimpleAuction.sol\":1246:1587  function cancelAuction() public {... */\n      jump\t// out\n        /* \"SimpleAuction.sol\":862:1240  function placeBid() public payable{... */\n    tag_27:\n        /* \"SimpleAuction.sol\":926:938  topBidAmount */\n      sload(0x01)\n        /* \"SimpleAuction.sol\":914:923  msg.value */\n      callvalue\n        /* \"SimpleAuction.sol\":914:938  msg.value > topBidAmount */\n      gt\n        /* \"SimpleAuction.sol\":906:981  require(msg.value > topBidAmount,\"You have placed low bid than top bidder\") */\n      tag_50\n      jumpi\n      mload(0x40)\n      0x08c379a000000000000000000000000000000000000000000000000000000000\n      dup2\n      mstore\n      0x04\n      add\n      tag_51\n      swap1\n      tag_52\n      jump\t// in\n    tag_51:\n      mload(0x40)\n      dup1\n      swap2\n      sub\n      swap1\n      revert\n    tag_50:\n        /* \"SimpleAuction.sol\":1013:1028  block.timestamp */\n      timestamp\n        /* \"SimpleAuction.sol\":999:1010  auctionTime */\n      sload(0x03)\n        /* \"SimpleAuction.sol\":999:1028  auctionTime > block.timestamp */\n      gt\n        /* \"SimpleAuction.sol\":991:1050  require(auctionTime > block.timestamp,\"Auction time ended\") */\n      tag_53\n      jumpi\n      mload(0x40)\n      0x08c379a000000000000000000000000000000000000000000000000000000000\n      dup2\n      mstore\n      0x04\n      add\n      tag_54\n      swap1\n      tag_55\n      jump\t// in\n    tag_54:\n      mload(0x40)\n      dup1\n      swap2\n      sub\n      swap1\n      revert\n    tag_53:\n        /* \"SimpleAuction.sol\":1072:1073  0 */\n      0x00\n        /* \"SimpleAuction.sol\":1063:1069  topBid */\n      sload(0x05)\n        /* \"SimpleAuction.sol\":1063:1073  topBid !=0 */\n      eq\n        /* \"SimpleAuction.sol\":1060:1132  if(topBid !=0 ){... */\n      tag_56\n      jumpi\n        /* \"SimpleAuction.sol\":1115:1121  topBid */\n      sload(0x05)\n        /* \"SimpleAuction.sol\":1089:1103  pendingReturns */\n      0x06\n        /* \"SimpleAuction.sol\":1089:1114  pendingReturns[topBidder] */\n      0x00\n        /* \"SimpleAuction.sol\":1104:1113  topBidder */\n      0x04\n      0x00\n      swap1\n      sload\n      swap1\n      0x0100\n      exp\n      swap1\n      div\n      0xffffffffffffffffffffffffffffffffffffffff\n      and\n        /* \"SimpleAuction.sol\":1089:1114  pendingReturns[topBidder] */\n      0xffffffffffffffffffffffffffffffffffffffff\n      and\n      0xffffffffffffffffffffffffffffffffffffffff\n      and\n      dup2\n      mstore\n      0x20\n      add\n      swap1\n      dup2\n      mstore\n      0x20\n      add\n      0x00\n      keccak256\n        /* \"SimpleAuction.sol\":1089:1121  pendingReturns[topBidder]=topBid */\n      dup2\n      swap1\n      sstore\n      pop\n        /* \"SimpleAuction.sol\":1060:1132  if(topBid !=0 ){... */\n    tag_56:\n        /* \"SimpleAuction.sol\":1151:1161  msg.sender */\n      caller\n        /* \"SimpleAuction.sol\":1141:1150  topBidder */\n      0x04\n      0x00\n        /* \"SimpleAuction.sol\":1141:1161  topBidder=msg.sender */\n      0x0100\n      exp\n      dup2\n      sload\n      dup2\n      0xffffffffffffffffffffffffffffffffffffffff\n      mul\n      not\n      and\n      swap1\n      dup4\n      0xffffffffffffffffffffffffffffffffffffffff\n      and\n      mul\n      or\n      swap1\n      sstore\n      pop\n        /* \"SimpleAuction.sol\":1178:1187  msg.value */\n      callvalue\n        /* \"SimpleAuction.sol\":1171:1177  topBid */\n      0x05\n        /* \"SimpleAuction.sol\":1171:1187  topBid=msg.value */\n      dup2\n      swap1\n      sstore\n      pop\n        /* \"SimpleAuction.sol\":1202:1233  bidPlaced(msg.sender,msg.value) */\n      0xf7d2dbe81680a1f0c2b9aaeb63d4184de5c64951ba06bf1b5900341760775a22\n        /* \"SimpleAuction.sol\":1212:1222  msg.sender */\n      caller\n        /* \"SimpleAuction.sol\":1223:1232  msg.value */\n      callvalue\n        /* \"SimpleAuction.sol\":1202:1233  bidPlaced(msg.sender,msg.value) */\n      mload(0x40)\n      tag_57\n      swap3\n      swap2\n      swap1\n      tag_46\n      jump\t// in\n    tag_57:\n      mload(0x40)\n      dup1\n      swap2\n      sub\n      swap1\n      log1\n        /* \"SimpleAuction.sol\":862:1240  function placeBid() public payable{... */\n      jump\t// out\n        /* \"SimpleAuction.sol\":1592:1936  function withDrawBid() public returns(bool){... */\n    tag_30:\n        /* \"SimpleAuction.sol\":1630:1634  bool */\n      0x00\n        /* \"SimpleAuction.sol\":1670:1681  auctionTime */\n      sload(0x03)\n        /* \"SimpleAuction.sol\":1653:1668  block.timestamp */\n      timestamp\n        /* \"SimpleAuction.sol\":1653:1681  block.timestamp>=auctionTime */\n      lt\n      iszero\n        /* \"SimpleAuction.sol\":1645:1682  require(block.timestamp>=auctionTime) */\n      tag_59\n      jumpi\n      0x00\n      dup1\n      revert\n    tag_59:\n        /* \"SimpleAuction.sol\":1692:1714  uint256 withDrawAmount */\n      0x00\n        /* \"SimpleAuction.sol\":1716:1730  pendingReturns */\n      0x06\n        /* \"SimpleAuction.sol\":1716:1742  pendingReturns[msg.sender] */\n      0x00\n        /* \"SimpleAuction.sol\":1731:1741  msg.sender */\n      caller\n        /* \"SimpleAuction.sol\":1716:1742  pendingReturns[msg.sender] */\n      0xffffffffffffffffffffffffffffffffffffffff\n      and\n      0xffffffffffffffffffffffffffffffffffffffff\n      and\n      dup2\n      mstore\n      0x20\n      add\n      swap1\n      dup2\n      mstore\n      0x20\n      add\n      0x00\n      keccak256\n      sload\n        /* \"SimpleAuction.sol\":1692:1742  uint256 withDrawAmount= pendingReturns[msg.sender] */\n      swap1\n      pop\n        /* \"SimpleAuction.sol\":1770:1771  0 */\n      0x00\n        /* \"SimpleAuction.sol\":1755:1769  withDrawAmount */\n      dup2\n        /* \"SimpleAuction.sol\":1755:1771  withDrawAmount>0 */\n      gt\n        /* \"SimpleAuction.sol\":1752:1908  if(withDrawAmount>0){... */\n      iszero\n      tag_60\n      jumpi\n        /* \"SimpleAuction.sol\":1794:1804  msg.sender */\n      caller\n        /* \"SimpleAuction.sol\":1786:1814  payable(msg.sender).transfer */\n      0xffffffffffffffffffffffffffffffffffffffff\n      and\n        /* \"SimpleAuction.sol\":1786:1830  payable(msg.sender).transfer(withDrawAmount) */\n      0x08fc\n        /* \"SimpleAuction.sol\":1815:1829  withDrawAmount */\n      dup3\n        /* \"SimpleAuction.sol\":1786:1830  payable(msg.sender).transfer(withDrawAmount) */\n      swap1\n      dup2\n      iszero\n      mul\n      swap1\n      mload(0x40)\n      0x00\n      mload(0x40)\n      dup1\n      dup4\n      sub\n      dup2\n      dup6\n      dup9\n      dup9\n      call\n      swap4\n      pop\n      pop\n      pop\n      pop\n      iszero\n      dup1\n      iszero\n      tag_62\n      jumpi\n      returndatasize\n      0x00\n      dup1\n      returndatacopy\n      revert(0x00, returndatasize)\n    tag_62:\n      pop\n        /* \"SimpleAuction.sol\":1871:1872  0 */\n      0x00\n        /* \"SimpleAuction.sol\":1844:1858  pendingReturns */\n      0x06\n        /* \"SimpleAuction.sol\":1844:1870  pendingReturns[msg.sender] */\n      0x00\n        /* \"SimpleAuction.sol\":1859:1869  msg.sender */\n      caller\n        /* \"SimpleAuction.sol\":1844:1870  pendingReturns[msg.sender] */\n      0xffffffffffffffffffffffffffffffffffffffff\n      and\n      0xffffffffffffffffffffffffffffffffffffffff\n      and\n      dup2\n      mstore\n      0x20\n      add\n      swap1\n      dup2\n      mstore\n      0x20\n      add\n      0x00\n      keccak256\n        /* \"SimpleAuction.sol\":1844:1872  pendingReturns[msg.sender]=0 */\n      dup2\n      swap1\n      sstore\n      pop\n        /* \"SimpleAuction.sol\":1893:1897  true */\n      0x01\n        /* \"SimpleAuction.sol\":1886:1897  return true */\n      swap2\n      pop\n      pop\n      jump(tag_58)\n        /* \"SimpleAuction.sol\":1752:1908  if(withDrawAmount>0){... */\n    tag_60:\n        /* \"SimpleAuction.sol\":1924:1929  false */\n      0x00\n        /* \"SimpleAuction.sol\":1917:1929  return false */\n      swap2\n      pop\n      pop\n        /* \"SimpleAuction.sol\":1592:1936  function withDrawBid() public returns(bool){... */\n    tag_58:\n      swap1\n      jump\t// out\n        /* \"#utility.yul\":7:133   */\n    tag_63:\n        /* \"#utility.yul\":44:51   */\n      0x00\n        /* \"#utility.yul\":84:126   */\n      0xffffffffffffffffffffffffffffffffffffffff\n        /* \"#utility.yul\":77:82   */\n      dup3\n        /* \"#utility.yul\":73:127   */\n      and\n        /* \"#utility.yul\":62:127   */\n      swap1\n      pop\n        /* \"#utility.yul\":7:133   */\n      swap2\n      swap1\n      pop\n      jump\t// out\n        /* \"#utility.yul\":139:235   */\n    tag_64:\n        /* \"#utility.yul\":176:183   */\n      0x00\n        /* \"#utility.yul\":205:229   */\n      tag_93\n        /* \"#utility.yul\":223:228   */\n      dup3\n        /* \"#utility.yul\":205:229   */\n      tag_63\n      jump\t// in\n    tag_93:\n        /* \"#utility.yul\":194:229   */\n      swap1\n      pop\n        /* \"#utility.yul\":139:235   */\n      swap2\n      swap1\n      pop\n      jump\t// out\n        /* \"#utility.yul\":241:359   */\n    tag_65:\n        /* \"#utility.yul\":328:352   */\n      tag_95\n        /* \"#utility.yul\":346:351   */\n      dup2\n        /* \"#utility.yul\":328:352   */\n      tag_64\n      jump\t// in\n    tag_95:\n        /* \"#utility.yul\":323:326   */\n      dup3\n        /* \"#utility.yul\":316:353   */\n      mstore\n        /* \"#utility.yul\":241:359   */\n      pop\n      pop\n      jump\t// out\n        /* \"#utility.yul\":365:587   */\n    tag_12:\n        /* \"#utility.yul\":458:462   */\n      0x00\n        /* \"#utility.yul\":496:498   */\n      0x20\n        /* \"#utility.yul\":485:494   */\n      dup3\n        /* \"#utility.yul\":481:499   */\n      add\n        /* \"#utility.yul\":473:499   */\n      swap1\n      pop\n        /* \"#utility.yul\":509:580   */\n      tag_97\n        /* \"#utility.yul\":577:578   */\n      0x00\n        /* \"#utility.yul\":566:575   */\n      dup4\n        /* \"#utility.yul\":562:579   */\n      add\n        /* \"#utility.yul\":553:559   */\n      dup5\n        /* \"#utility.yul\":509:580   */\n      tag_65\n      jump\t// in\n    tag_97:\n        /* \"#utility.yul\":365:587   */\n      swap3\n      swap2\n      pop\n      pop\n      jump\t// out\n        /* \"#utility.yul\":674:791   */\n    tag_67:\n        /* \"#utility.yul\":783:784   */\n      0x00\n        /* \"#utility.yul\":780:781   */\n      dup1\n        /* \"#utility.yul\":773:785   */\n      revert\n        /* \"#utility.yul\":920:997   */\n    tag_69:\n        /* \"#utility.yul\":957:964   */\n      0x00\n        /* \"#utility.yul\":986:991   */\n      dup2\n        /* \"#utility.yul\":975:991   */\n      swap1\n      pop\n        /* \"#utility.yul\":920:997   */\n      swap2\n      swap1\n      pop\n      jump\t// out\n        /* \"#utility.yul\":1003:1125   */\n    tag_70:\n        /* \"#utility.yul\":1076:1100   */\n      tag_103\n        /* \"#utility.yul\":1094:1099   */\n      dup2\n        /* \"#utility.yul\":1076:1100   */\n      tag_69\n      jump\t// in\n    tag_103:\n        /* \"#utility.yul\":1069:1074   */\n      dup2\n        /* \"#utility.yul\":1066:1101   */\n      eq\n        /* \"#utility.yul\":1056:1119   */\n      tag_104\n      jumpi\n        /* \"#utility.yul\":1115:1116   */\n      0x00\n        /* \"#utility.yul\":1112:1113   */\n      dup1\n        /* \"#utility.yul\":1105:1117   */\n      revert\n        /* \"#utility.yul\":1056:1119   */\n    tag_104:\n        /* \"#utility.yul\":1003:1125   */\n      pop\n      jump\t// out\n        /* \"#utility.yul\":1131:1270   */\n    tag_71:\n        /* \"#utility.yul\":1177:1182   */\n      0x00\n        /* \"#utility.yul\":1215:1221   */\n      dup2\n        /* \"#utility.yul\":1202:1222   */\n      calldataload\n        /* \"#utility.yul\":1193:1222   */\n      swap1\n      pop\n        /* \"#utility.yul\":1231:1264   */\n      tag_106\n        /* \"#utility.yul\":1258:1263   */\n      dup2\n        /* \"#utility.yul\":1231:1264   */\n      tag_70\n      jump\t// in\n    tag_106:\n        /* \"#utility.yul\":1131:1270   */\n      swap3\n      swap2\n      pop\n      pop\n      jump\t// out\n        /* \"#utility.yul\":1276:1750   */\n    tag_16:\n        /* \"#utility.yul\":1344:1350   */\n      0x00\n        /* \"#utility.yul\":1352:1358   */\n      dup1\n        /* \"#utility.yul\":1401:1403   */\n      0x40\n        /* \"#utility.yul\":1389:1398   */\n      dup4\n        /* \"#utility.yul\":1380:1387   */\n      dup6\n        /* \"#utility.yul\":1376:1399   */\n      sub\n        /* \"#utility.yul\":1372:1404   */\n      slt\n        /* \"#utility.yul\":1369:1488   */\n      iszero\n      tag_108\n      jumpi\n        /* \"#utility.yul\":1407:1486   */\n      tag_109\n      tag_67\n      jump\t// in\n    tag_109:\n        /* \"#utility.yul\":1369:1488   */\n    tag_108:\n        /* \"#utility.yul\":1527:1528   */\n      0x00\n        /* \"#utility.yul\":1552:1605   */\n      tag_110\n        /* \"#utility.yul\":1597:1604   */\n      dup6\n        /* \"#utility.yul\":1588:1594   */\n      dup3\n        /* \"#utility.yul\":1577:1586   */\n      dup7\n        /* \"#utility.yul\":1573:1595   */\n      add\n        /* \"#utility.yul\":1552:1605   */\n      tag_71\n      jump\t// in\n    tag_110:\n        /* \"#utility.yul\":1542:1605   */\n      swap3\n      pop\n        /* \"#utility.yul\":1498:1615   */\n      pop\n        /* \"#utility.yul\":1654:1656   */\n      0x20\n        /* \"#utility.yul\":1680:1733   */\n      tag_111\n        /* \"#utility.yul\":1725:1732   */\n      dup6\n        /* \"#utility.yul\":1716:1722   */\n      dup3\n        /* \"#utility.yul\":1705:1714   */\n      dup7\n        /* \"#utility.yul\":1701:1723   */\n      add\n        /* \"#utility.yul\":1680:1733   */\n      tag_71\n      jump\t// in\n    tag_111:\n        /* \"#utility.yul\":1670:1733   */\n      swap2\n      pop\n        /* \"#utility.yul\":1625:1743   */\n      pop\n        /* \"#utility.yul\":1276:1750   */\n      swap3\n      pop\n      swap3\n      swap1\n      pop\n      jump\t// out\n        /* \"#utility.yul\":1756:1874   */\n    tag_72:\n        /* \"#utility.yul\":1843:1867   */\n      tag_113\n        /* \"#utility.yul\":1861:1866   */\n      dup2\n        /* \"#utility.yul\":1843:1867   */\n      tag_69\n      jump\t// in\n    tag_113:\n        /* \"#utility.yul\":1838:1841   */\n      dup3\n        /* \"#utility.yul\":1831:1868   */\n      mstore\n        /* \"#utility.yul\":1756:1874   */\n      pop\n      pop\n      jump\t// out\n        /* \"#utility.yul\":1880:2102   */\n    tag_22:\n        /* \"#utility.yul\":1973:1977   */\n      0x00\n        /* \"#utility.yul\":2011:2013   */\n      0x20\n        /* \"#utility.yul\":2000:2009   */\n      dup3\n        /* \"#utility.yul\":1996:2014   */\n      add\n        /* \"#utility.yul\":1988:2014   */\n      swap1\n      pop\n        /* \"#utility.yul\":2024:2095   */\n      tag_115\n        /* \"#utility.yul\":2092:2093   */\n      0x00\n        /* \"#utility.yul\":2081:2090   */\n      dup4\n        /* \"#utility.yul\":2077:2094   */\n      add\n        /* \"#utility.yul\":2068:2074   */\n      dup5\n        /* \"#utility.yul\":2024:2095   */\n      tag_72\n      jump\t// in\n    tag_115:\n        /* \"#utility.yul\":1880:2102   */\n      swap3\n      swap2\n      pop\n      pop\n      jump\t// out\n        /* \"#utility.yul\":2108:2198   */\n    tag_73:\n        /* \"#utility.yul\":2142:2149   */\n      0x00\n        /* \"#utility.yul\":2185:2190   */\n      dup2\n        /* \"#utility.yul\":2178:2191   */\n      iszero\n        /* \"#utility.yul\":2171:2192   */\n      iszero\n        /* \"#utility.yul\":2160:2192   */\n      swap1\n      pop\n        /* \"#utility.yul\":2108:2198   */\n      swap2\n      swap1\n      pop\n      jump\t// out\n        /* \"#utility.yul\":2204:2313   */\n    tag_74:\n        /* \"#utility.yul\":2285:2306   */\n      tag_118\n        /* \"#utility.yul\":2300:2305   */\n      dup2\n        /* \"#utility.yul\":2285:2306   */\n      tag_73\n      jump\t// in\n    tag_118:\n        /* \"#utility.yul\":2280:2283   */\n      dup3\n        /* \"#utility.yul\":2273:2307   */\n      mstore\n        /* \"#utility.yul\":2204:2313   */\n      pop\n      pop\n      jump\t// out\n        /* \"#utility.yul\":2319:2529   */\n    tag_32:\n        /* \"#utility.yul\":2406:2410   */\n      0x00\n        /* \"#utility.yul\":2444:2446   */\n      0x20\n        /* \"#utility.yul\":2433:2442   */\n      dup3\n        /* \"#utility.yul\":2429:2447   */\n      add\n        /* \"#utility.yul\":2421:2447   */\n      swap1\n      pop\n        /* \"#utility.yul\":2457:2522   */\n      tag_120\n        /* \"#utility.yul\":2519:2520   */\n      0x00\n        /* \"#utility.yul\":2508:2517   */\n      dup4\n        /* \"#utility.yul\":2504:2521   */\n      add\n        /* \"#utility.yul\":2495:2501   */\n      dup5\n        /* \"#utility.yul\":2457:2522   */\n      tag_74\n      jump\t// in\n    tag_120:\n        /* \"#utility.yul\":2319:2529   */\n      swap3\n      swap2\n      pop\n      pop\n      jump\t// out\n        /* \"#utility.yul\":2535:2715   */\n    tag_75:\n        /* \"#utility.yul\":2583:2660   */\n      0x4e487b7100000000000000000000000000000000000000000000000000000000\n        /* \"#utility.yul\":2580:2581   */\n      0x00\n        /* \"#utility.yul\":2573:2661   */\n      mstore\n        /* \"#utility.yul\":2680:2684   */\n      0x11\n        /* \"#utility.yul\":2677:2678   */\n      0x04\n        /* \"#utility.yul\":2670:2685   */\n      mstore\n        /* \"#utility.yul\":2704:2708   */\n      0x24\n        /* \"#utility.yul\":2701:2702   */\n      0x00\n        /* \"#utility.yul\":2694:2709   */\n      revert\n        /* \"#utility.yul\":2721:3026   */\n    tag_35:\n        /* \"#utility.yul\":2761:2764   */\n      0x00\n        /* \"#utility.yul\":2780:2800   */\n      tag_123\n        /* \"#utility.yul\":2798:2799   */\n      dup3\n        /* \"#utility.yul\":2780:2800   */\n      tag_69\n      jump\t// in\n    tag_123:\n        /* \"#utility.yul\":2775:2800   */\n      swap2\n      pop\n        /* \"#utility.yul\":2814:2834   */\n      tag_124\n        /* \"#utility.yul\":2832:2833   */\n      dup4\n        /* \"#utility.yul\":2814:2834   */\n      tag_69\n      jump\t// in\n    tag_124:\n        /* \"#utility.yul\":2809:2834   */\n      swap3\n      pop\n        /* \"#utility.yul\":2968:2969   */\n      dup3\n        /* \"#utility.yul\":2900:2966   */\n      0xffffffffffffffffffffffffffffffffffffffffffffffffffffffffffffffff\n        /* \"#utility.yul\":2896:2970   */\n      sub\n        /* \"#utility.yul\":2893:2894   */\n      dup3\n        /* \"#utility.yul\":2890:2971   */\n      gt\n        /* \"#utility.yul\":2887:2994   */\n      iszero\n      tag_125\n      jumpi\n        /* \"#utility.yul\":2974:2992   */\n      tag_126\n      tag_75\n      jump\t// in\n    tag_126:\n        /* \"#utility.yul\":2887:2994   */\n    tag_125:\n        /* \"#utility.yul\":3018:3019   */\n      dup3\n        /* \"#utility.yul\":3015:3016   */\n      dup3\n        /* \"#utility.yul\":3011:3020   */\n      add\n        /* \"#utility.yul\":3004:3020   */\n      swap1\n      pop\n        /* \"#utility.yul\":2721:3026   */\n      swap3\n      swap2\n      pop\n      pop\n      jump\t// out\n        /* \"#utility.yul\":3032:3092   */\n    tag_76:\n        /* \"#utility.yul\":3060:3063   */\n      0x00\n        /* \"#utility.yul\":3081:3086   */\n      dup2\n        /* \"#utility.yul\":3074:3086   */\n      swap1\n      pop\n        /* \"#utility.yul\":3032:3092   */\n      swap2\n      swap1\n      pop\n      jump\t// out\n        /* \"#utility.yul\":3098:3240   */\n    tag_77:\n        /* \"#utility.yul\":3148:3157   */\n      0x00\n        /* \"#utility.yul\":3181:3234   */\n      tag_129\n        /* \"#utility.yul\":3199:3233   */\n      tag_130\n        /* \"#utility.yul\":3208:3232   */\n      tag_131\n        /* \"#utility.yul\":3226:3231   */\n      dup5\n        /* \"#utility.yul\":3208:3232   */\n      tag_63\n      jump\t// in\n    tag_131:\n        /* \"#utility.yul\":3199:3233   */\n      tag_76\n      jump\t// in\n    tag_130:\n        /* \"#utility.yul\":3181:3234   */\n      tag_63\n      jump\t// in\n    tag_129:\n        /* \"#utility.yul\":3168:3234   */\n      swap1\n      pop\n        /* \"#utility.yul\":3098:3240   */\n      swap2\n      swap1\n      pop\n      jump\t// out\n        /* \"#utility.yul\":3246:3372   */\n    tag_78:\n        /* \"#utility.yul\":3296:3305   */\n      0x00\n        /* \"#utility.yul\":3329:3366   */\n      tag_133\n        /* \"#utility.yul\":3360:3365   */\n      dup3\n        /* \"#utility.yul\":3329:3366   */\n      tag_77\n      jump\t// in\n    tag_133:\n        /* \"#utility.yul\":3316:3366   */\n      swap1\n      pop\n        /* \"#utility.yul\":3246:3372   */\n      swap2\n      swap1\n      pop\n      jump\t// out\n        /* \"#utility.yul\":3378:3512   */\n    tag_79:\n        /* \"#utility.yul\":3436:3445   */\n      0x00\n        /* \"#utility.yul\":3469:3506   */\n      tag_135\n        /* \"#utility.yul\":3500:3505   */\n      dup3\n        /* \"#utility.yul\":3469:3506   */\n      tag_78\n      jump\t// in\n    tag_135:\n        /* \"#utility.yul\":3456:3506   */\n      swap1\n      pop\n        /* \"#utility.yul\":3378:3512   */\n      swap2\n      swap1\n      pop\n      jump\t// out\n        /* \"#utility.yul\":3518:3665   */\n    tag_80:\n        /* \"#utility.yul\":3613:3658   */\n      tag_137\n        /* \"#utility.yul\":3652:3657   */\n      dup2\n        /* \"#utility.yul\":3613:3658   */\n      tag_79\n      jump\t// in\n    tag_137:\n        /* \"#utility.yul\":3608:3611   */\n      dup3\n        /* \"#utility.yul\":3601:3659   */\n      mstore\n        /* \"#utility.yul\":3518:3665   */\n      pop\n      pop\n      jump\t// out\n        /* \"#utility.yul\":3671:4019   */\n    tag_37:\n        /* \"#utility.yul\":3800:3804   */\n      0x00\n        /* \"#utility.yul\":3838:3840   */\n      0x40\n        /* \"#utility.yul\":3827:3836   */\n      dup3\n        /* \"#utility.yul\":3823:3841   */\n      add\n        /* \"#utility.yul\":3815:3841   */\n      swap1\n      pop\n        /* \"#utility.yul\":3851:3930   */\n      tag_139\n        /* \"#utility.yul\":3927:3928   */\n      0x00\n        /* \"#utility.yul\":3916:3925   */\n      dup4\n        /* \"#utility.yul\":3912:3929   */\n      add\n        /* \"#utility.yul\":3903:3909   */\n      dup6\n        /* \"#utility.yul\":3851:3930   */\n      tag_80\n      jump\t// in\n    tag_139:\n        /* \"#utility.yul\":3940:4012   */\n      tag_140\n        /* \"#utility.yul\":4008:4010   */\n      0x20\n        /* \"#utility.yul\":3997:4006   */\n      dup4\n        /* \"#utility.yul\":3993:4011   */\n      add\n        /* \"#utility.yul\":3984:3990   */\n      dup5\n        /* \"#utility.yul\":3940:4012   */\n      tag_72\n      jump\t// in\n    tag_140:\n        /* \"#utility.yul\":3671:4019   */\n      swap4\n      swap3\n      pop\n      pop\n      pop\n      jump\t// out\n        /* \"#utility.yul\":4025:4194   */\n    tag_81:\n        /* \"#utility.yul\":4109:4120   */\n      0x00\n        /* \"#utility.yul\":4143:4149   */\n      dup3\n        /* \"#utility.yul\":4138:4141   */\n      dup3\n        /* \"#utility.yul\":4131:4150   */\n      mstore\n        /* \"#utility.yul\":4183:4187   */\n      0x20\n        /* \"#utility.yul\":4178:4181   */\n      dup3\n        /* \"#utility.yul\":4174:4188   */\n      add\n        /* \"#utility.yul\":4159:4188   */\n      swap1\n      pop\n        /* \"#utility.yul\":4025:4194   */\n      swap3\n      swap2\n      pop\n      pop\n      jump\t// out\n        /* \"#utility.yul\":4200:4423   */\n    tag_82:\n        /* \"#utility.yul\":4340:4374   */\n      0x41756374696f6e206f776e65722063616e2063616e63656c2074686520617563\n        /* \"#utility.yul\":4336:4337   */\n      0x00\n        /* \"#utility.yul\":4328:4334   */\n      dup3\n        /* \"#utility.yul\":4324:4338   */\n      add\n        /* \"#utility.yul\":4317:4375   */\n      mstore\n        /* \"#utility.yul\":4409:4415   */\n      0x74696f6e00000000000000000000000000000000000000000000000000000000\n        /* \"#utility.yul\":4404:4406   */\n      0x20\n        /* \"#utility.yul\":4396:4402   */\n      dup3\n        /* \"#utility.yul\":4392:4407   */\n      add\n        /* \"#utility.yul\":4385:4416   */\n      mstore\n        /* \"#utility.yul\":4200:4423   */\n      pop\n      jump\t// out\n        /* \"#utility.yul\":4429:4795   */\n    tag_83:\n        /* \"#utility.yul\":4571:4574   */\n      0x00\n        /* \"#utility.yul\":4592:4659   */\n      tag_144\n        /* \"#utility.yul\":4656:4658   */\n      0x24\n        /* \"#utility.yul\":4651:4654   */\n      dup4\n        /* \"#utility.yul\":4592:4659   */\n      tag_81\n      jump\t// in\n    tag_144:\n        /* \"#utility.yul\":4585:4659   */\n      swap2\n      pop\n        /* \"#utility.yul\":4668:4761   */\n      tag_145\n        /* \"#utility.yul\":4757:4760   */\n      dup3\n        /* \"#utility.yul\":4668:4761   */\n      tag_82\n      jump\t// in\n    tag_145:\n        /* \"#utility.yul\":4786:4788   */\n      0x40\n        /* \"#utility.yul\":4781:4784   */\n      dup3\n        /* \"#utility.yul\":4777:4789   */\n      add\n        /* \"#utility.yul\":4770:4789   */\n      swap1\n      pop\n        /* \"#utility.yul\":4429:4795   */\n      swap2\n      swap1\n      pop\n      jump\t// out\n        /* \"#utility.yul\":4801:5220   */\n    tag_41:\n        /* \"#utility.yul\":4967:4971   */\n      0x00\n        /* \"#utility.yul\":5005:5007   */\n      0x20\n        /* \"#utility.yul\":4994:5003   */\n      dup3\n        /* \"#utility.yul\":4990:5008   */\n      add\n        /* \"#utility.yul\":4982:5008   */\n      swap1\n      pop\n        /* \"#utility.yul\":5054:5063   */\n      dup2\n        /* \"#utility.yul\":5048:5052   */\n      dup2\n        /* \"#utility.yul\":5044:5064   */\n      sub\n        /* \"#utility.yul\":5040:5041   */\n      0x00\n        /* \"#utility.yul\":5029:5038   */\n      dup4\n        /* \"#utility.yul\":5025:5042   */\n      add\n        /* \"#utility.yul\":5018:5065   */\n      mstore\n        /* \"#utility.yul\":5082:5213   */\n      tag_147\n        /* \"#utility.yul\":5208:5212   */\n      dup2\n        /* \"#utility.yul\":5082:5213   */\n      tag_83\n      jump\t// in\n    tag_147:\n        /* \"#utility.yul\":5074:5213   */\n      swap1\n      pop\n        /* \"#utility.yul\":4801:5220   */\n      swap2\n      swap1\n      pop\n      jump\t// out\n        /* \"#utility.yul\":5226:5464   */\n    tag_84:\n        /* \"#utility.yul\":5366:5400   */\n      0x41756374696f6e206973207374696c6c20696e2070726f677265737320736f20\n        /* \"#utility.yul\":5362:5363   */\n      0x00\n        /* \"#utility.yul\":5354:5360   */\n      dup3\n        /* \"#utility.yul\":5350:5364   */\n      add\n        /* \"#utility.yul\":5343:5401   */\n      mstore\n        /* \"#utility.yul\":5435:5456   */\n      0x63616e6e6f742062652063616e63656c6c656400000000000000000000000000\n        /* \"#utility.yul\":5430:5432   */\n      0x20\n        /* \"#utility.yul\":5422:5428   */\n      dup3\n        /* \"#utility.yul\":5418:5433   */\n      add\n        /* \"#utility.yul\":5411:5457   */\n      mstore\n        /* \"#utility.yul\":5226:5464   */\n      pop\n      jump\t// out\n        /* \"#utility.yul\":5470:5836   */\n    tag_85:\n        /* \"#utility.yul\":5612:5615   */\n      0x00\n        /* \"#utility.yul\":5633:5700   */\n      tag_150\n        /* \"#utility.yul\":5697:5699   */\n      0x33\n        /* \"#utility.yul\":5692:5695   */\n      dup4\n        /* \"#utility.yul\":5633:5700   */\n      tag_81\n      jump\t// in\n    tag_150:\n        /* \"#utility.yul\":5626:5700   */\n      swap2\n      pop\n        /* \"#utility.yul\":5709:5802   */\n      tag_151\n        /* \"#utility.yul\":5798:5801   */\n      dup3\n        /* \"#utility.yul\":5709:5802   */\n      tag_84\n      jump\t// in\n    tag_151:\n        /* \"#utility.yul\":5827:5829   */\n      0x40\n        /* \"#utility.yul\":5822:5825   */\n      dup3\n        /* \"#utility.yul\":5818:5830   */\n      add\n        /* \"#utility.yul\":5811:5830   */\n      swap1\n      pop\n        /* \"#utility.yul\":5470:5836   */\n      swap2\n      swap1\n      pop\n      jump\t// out\n        /* \"#utility.yul\":5842:6261   */\n    tag_44:\n        /* \"#utility.yul\":6008:6012   */\n      0x00\n        /* \"#utility.yul\":6046:6048   */\n      0x20\n        /* \"#utility.yul\":6035:6044   */\n      dup3\n        /* \"#utility.yul\":6031:6049   */\n      add\n        /* \"#utility.yul\":6023:6049   */\n      swap1\n      pop\n        /* \"#utility.yul\":6095:6104   */\n      dup2\n        /* \"#utility.yul\":6089:6093   */\n      dup2\n        /* \"#utility.yul\":6085:6105   */\n      sub\n        /* \"#utility.yul\":6081:6082   */\n      0x00\n        /* \"#utility.yul\":6070:6079   */\n      dup4\n        /* \"#utility.yul\":6066:6083   */\n      add\n        /* \"#utility.yul\":6059:6106   */\n      mstore\n        /* \"#utility.yul\":6123:6254   */\n      tag_153\n        /* \"#utility.yul\":6249:6253   */\n      dup2\n        /* \"#utility.yul\":6123:6254   */\n      tag_85\n      jump\t// in\n    tag_153:\n        /* \"#utility.yul\":6115:6254   */\n      swap1\n      pop\n        /* \"#utility.yul\":5842:6261   */\n      swap2\n      swap1\n      pop\n      jump\t// out\n        /* \"#utility.yul\":6267:6599   */\n    tag_46:\n        /* \"#utility.yul\":6388:6392   */\n      0x00\n        /* \"#utility.yul\":6426:6428   */\n      0x40\n        /* \"#utility.yul\":6415:6424   */\n      dup3\n        /* \"#utility.yul\":6411:6429   */\n      add\n        /* \"#utility.yul\":6403:6429   */\n      swap1\n      pop\n        /* \"#utility.yul\":6439:6510   */\n      tag_155\n        /* \"#utility.yul\":6507:6508   */\n      0x00\n        /* \"#utility.yul\":6496:6505   */\n      dup4\n        /* \"#utility.yul\":6492:6509   */\n      add\n        /* \"#utility.yul\":6483:6489   */\n      dup6\n        /* \"#utility.yul\":6439:6510   */\n      tag_65\n      jump\t// in\n    tag_155:\n        /* \"#utility.yul\":6520:6592   */\n      tag_156\n        /* \"#utility.yul\":6588:6590   */\n      0x20\n        /* \"#utility.yul\":6577:6586   */\n      dup4\n        /* \"#utility.yul\":6573:6591   */\n      add\n        /* \"#utility.yul\":6564:6570   */\n      dup5\n        /* \"#utility.yul\":6520:6592   */\n      tag_72\n      jump\t// in\n    tag_156:\n        /* \"#utility.yul\":6267:6599   */\n      swap4\n      swap3\n      pop\n      pop\n      pop\n      jump\t// out\n        /* \"#utility.yul\":6605:6831   */\n    tag_86:\n        /* \"#utility.yul\":6745:6779   */\n      0x596f75206861766520706c61636564206c6f7720626964207468616e20746f70\n        /* \"#utility.yul\":6741:6742   */\n      0x00\n        /* \"#utility.yul\":6733:6739   */\n      dup3\n        /* \"#utility.yul\":6729:6743   */\n      add\n        /* \"#utility.yul\":6722:6780   */\n      mstore\n        /* \"#utility.yul\":6814:6823   */\n      0x2062696464657200000000000000000000000000000000000000000000000000\n        /* \"#utility.yul\":6809:6811   */\n      0x20\n        /* \"#utility.yul\":6801:6807   */\n      dup3\n        /* \"#utility.yul\":6797:6812   */\n      add\n        /* \"#utility.yul\":6790:6824   */\n      mstore\n        /* \"#utility.yul\":6605:6831   */\n      pop\n      jump\t// out\n        /* \"#utility.yul\":6837:7203   */\n    tag_87:\n        /* \"#utility.yul\":6979:6982   */\n      0x00\n        /* \"#utility.yul\":7000:7067   */\n      tag_159\n        /* \"#utility.yul\":7064:7066   */\n      0x27\n        /* \"#utility.yul\":7059:7062   */\n      dup4\n        /* \"#utility.yul\":7000:7067   */\n      tag_81\n      jump\t// in\n    tag_159:\n        /* \"#utility.yul\":6993:7067   */\n      swap2\n      pop\n        /* \"#utility.yul\":7076:7169   */\n      tag_160\n        /* \"#utility.yul\":7165:7168   */\n      dup3\n        /* \"#utility.yul\":7076:7169   */\n      tag_86\n      jump\t// in\n    tag_160:\n        /* \"#utility.yul\":7194:7196   */\n      0x40\n        /* \"#utility.yul\":7189:7192   */\n      dup3\n        /* \"#utility.yul\":7185:7197   */\n      add\n        /* \"#utility.yul\":7178:7197   */\n      swap1\n      pop\n        /* \"#utility.yul\":6837:7203   */\n      swap2\n      swap1\n      pop\n      jump\t// out\n        /* \"#utility.yul\":7209:7628   */\n    tag_52:\n        /* \"#utility.yul\":7375:7379   */\n      0x00\n        /* \"#utility.yul\":7413:7415   */\n      0x20\n        /* \"#utility.yul\":7402:7411   */\n      dup3\n        /* \"#utility.yul\":7398:7416   */\n      add\n        /* \"#utility.yul\":7390:7416   */\n      swap1\n      pop\n        /* \"#utility.yul\":7462:7471   */\n      dup2\n        /* \"#utility.yul\":7456:7460   */\n      dup2\n        /* \"#utility.yul\":7452:7472   */\n      sub\n        /* \"#utility.yul\":7448:7449   */\n      0x00\n        /* \"#utility.yul\":7437:7446   */\n      dup4\n        /* \"#utility.yul\":7433:7450   */\n      add\n        /* \"#utility.yul\":7426:7473   */\n      mstore\n        /* \"#utility.yul\":7490:7621   */\n      tag_162\n        /* \"#utility.yul\":7616:7620   */\n      dup2\n        /* \"#utility.yul\":7490:7621   */\n      tag_87\n      jump\t// in\n    tag_162:\n        /* \"#utility.yul\":7482:7621   */\n      swap1\n      pop\n        /* \"#utility.yul\":7209:7628   */\n      swap2\n      swap1\n      pop\n      jump\t// out\n        /* \"#utility.yul\":7634:7802   */\n    tag_88:\n        /* \"#utility.yul\":7774:7794   */\n      0x41756374696f6e2074696d6520656e6465640000000000000000000000000000\n        /* \"#utility.yul\":7770:7771   */\n      0x00\n        /* \"#utility.yul\":7762:7768   */\n      dup3\n        /* \"#utility.yul\":7758:7772   */\n      add\n        /* \"#utility.yul\":7751:7795   */\n      mstore\n        /* \"#utility.yul\":7634:7802   */\n      pop\n      jump\t// out\n        /* \"#utility.yul\":7808:8174   */\n    tag_89:\n        /* \"#utility.yul\":7950:7953   */\n      0x00\n        /* \"#utility.yul\":7971:8038   */\n      tag_165\n        /* \"#utility.yul\":8035:8037   */\n      0x12\n        /* \"#utility.yul\":8030:8033   */\n      dup4\n        /* \"#utility.yul\":7971:8038   */\n      tag_81\n      jump\t// in\n    tag_165:\n        /* \"#utility.yul\":7964:8038   */\n      swap2\n      pop\n        /* \"#utility.yul\":8047:8140   */\n      tag_166\n        /* \"#utility.yul\":8136:8139   */\n      dup3\n        /* \"#utility.yul\":8047:8140   */\n      tag_88\n      jump\t// in\n    tag_166:\n        /* \"#utility.yul\":8165:8167   */\n      0x20\n        /* \"#utility.yul\":8160:8163   */\n      dup3\n        /* \"#utility.yul\":8156:8168   */\n      add\n        /* \"#utility.yul\":8149:8168   */\n      swap1\n      pop\n        /* \"#utility.yul\":7808:8174   */\n      swap2\n      swap1\n      pop\n      jump\t// out\n        /* \"#utility.yul\":8180:8599   */\n    tag_55:\n        /* \"#utility.yul\":8346:8350   */\n      0x00\n        /* \"#utility.yul\":8384:8386   */\n      0x20\n        /* \"#utility.yul\":8373:8382   */\n      dup3\n        /* \"#utility.yul\":8369:8387   */\n      add\n        /* \"#utility.yul\":8361:8387   */\n      swap1\n      pop\n        /* \"#utility.yul\":8433:8442   */\n      dup2\n        /* \"#utility.yul\":8427:8431   */\n      dup2\n        /* \"#utility.yul\":8423:8443   */\n      sub\n        /* \"#utility.yul\":8419:8420   */\n      0x00\n        /* \"#utility.yul\":8408:8417   */\n      dup4\n        /* \"#utility.yul\":8404:8421   */\n      add\n        /* \"#utility.yul\":8397:8444   */\n      mstore\n        /* \"#utility.yul\":8461:8592   */\n      tag_168\n        /* \"#utility.yul\":8587:8591   */\n      dup2\n        /* \"#utility.yul\":8461:8592   */\n      tag_89\n      jump\t// in\n    tag_168:\n        /* \"#utility.yul\":8453:8592   */\n      swap1\n      pop\n        /* \"#utility.yul\":8180:8599   */\n      swap2\n      swap1\n      pop\n      jump\t// out\n\n    auxdata: 0xa2646970667358221220150b73eead1ddf3f4b98305c5c4ab6e52edc07f909c483dbed2386ba768122d364736f6c63430008090033\n}\n",
				"bytecode": {
					"linkReferences": {},
					"object": "608060405260008060006101000a81548160ff021916908315150217905550600060015534801561002f57600080fd5b50610b308061003f6000396000f3fe6080604052600436106100555760003560e01c806301333f061461005a5780634fee13fc14610085578063636bf730146100ae5780638fa8b790146100d9578063ecfc7ecc146100f0578063fde8c63e146100fa575b600080fd5b34801561006657600080fd5b5061006f610125565b60405161007c919061069b565b60405180910390f35b34801561009157600080fd5b506100ac60048036038101906100a791906106f1565b61014b565b005b3480156100ba57600080fd5b506100c3610220565b6040516100d09190610740565b60405180910390f35b3480156100e557600080fd5b506100ee610226565b005b6100f86103df565b005b34801561010657600080fd5b5061010f61055d565b60405161011c9190610776565b60405180910390f35b600460009054906101000a900473ffffffffffffffffffffffffffffffffffffffff1681565b33600060016101000a81548173ffffffffffffffffffffffffffffffffffffffff021916908373ffffffffffffffffffffffffffffffffffffffff16021790555060008060006101000a81548160ff0219169083151502179055508160028190555080426101b991906107c0565b6003819055507f1e6871a9ec2c22e508757c73d7e2d7d15e2819276867174afb13fcdc9f018df2600060019054906101000a900473ffffffffffffffffffffffffffffffffffffffff16600254604051610214929190610875565b60405180910390a15050565b60055481565b600060019054906101000a900473ffffffffffffffffffffffffffffffffffffffff1673ffffffffffffffffffffffffffffffffffffffff163373ffffffffffffffffffffffffffffffffffffffff16146102b6576040517f08c379a00000000000000000000000000000000000000000000000000000000081526004016102ad90610921565b60405180910390fd5b6003544211156102fb576040517f08c379a00000000000000000000000000000000000000000000000000000000081526004016102f2906109b3565b60405180910390fd5b60016000806101000a81548160ff0219169083151502179055507f0693fe466dadf29e4700c29f41d1504c602b944fa5e6b5f1cb0a3a2ca0702120600460009054906101000a900473ffffffffffffffffffffffffffffffffffffffff1660055460405161036a9291906109d3565b60405180910390a1600060019054906101000a900473ffffffffffffffffffffffffffffffffffffffff1673ffffffffffffffffffffffffffffffffffffffff166108fc6005549081150290604051600060405180830381858888f193505050501580156103dc573d6000803e3d6000fd5b50565b6001543411610423576040517f08c379a000000000000000000000000000000000000000000000000000000000815260040161041a90610a6e565b60405180910390fd5b4260035411610467576040517f08c379a000000000000000000000000000000000000000000000000000000000815260040161045e90610ada565b60405180910390fd5b6000600554146104da5760055460066000600460009054906101000a900473ffffffffffffffffffffffffffffffffffffffff1673ffffffffffffffffffffffffffffffffffffffff1673ffffffffffffffffffffffffffffffffffffffff168152602001908152602001600020819055505b33600460006101000a81548173ffffffffffffffffffffffffffffffffffffffff021916908373ffffffffffffffffffffffffffffffffffffffff160217905550346005819055507ff7d2dbe81680a1f0c2b9aaeb63d4184de5c64951ba06bf1b5900341760775a2233346040516105539291906109d3565b60405180910390a1565b600060035442101561056e57600080fd5b6000600660003373ffffffffffffffffffffffffffffffffffffffff1673ffffffffffffffffffffffffffffffffffffffff1681526020019081526020016000205490506000811115610651573373ffffffffffffffffffffffffffffffffffffffff166108fc829081150290604051600060405180830381858888f19350505050158015610601573d6000803e3d6000fd5b506000600660003373ffffffffffffffffffffffffffffffffffffffff1673ffffffffffffffffffffffffffffffffffffffff168152602001908152602001600020819055506001915050610657565b60009150505b90565b600073ffffffffffffffffffffffffffffffffffffffff82169050919050565b60006106858261065a565b9050919050565b6106958161067a565b82525050565b60006020820190506106b0600083018461068c565b92915050565b600080fd5b6000819050919050565b6106ce816106bb565b81146106d957600080fd5b50565b6000813590506106eb816106c5565b92915050565b60008060408385031215610708576107076106b6565b5b6000610716858286016106dc565b9250506020610727858286016106dc565b9150509250929050565b61073a816106bb565b82525050565b60006020820190506107556000830184610731565b92915050565b60008115159050919050565b6107708161075b565b82525050565b600060208201905061078b6000830184610767565b92915050565b7f4e487b7100000000000000000000000000000000000000000000000000000000600052601160045260246000fd5b60006107cb826106bb565b91506107d6836106bb565b9250827fffffffffffffffffffffffffffffffffffffffffffffffffffffffffffffffff0382111561080b5761080a610791565b5b828201905092915050565b6000819050919050565b600061083b6108366108318461065a565b610816565b61065a565b9050919050565b600061084d82610820565b9050919050565b600061085f82610842565b9050919050565b61086f81610854565b82525050565b600060408201905061088a6000830185610866565b6108976020830184610731565b9392505050565b600082825260208201905092915050565b7f41756374696f6e206f776e65722063616e2063616e63656c207468652061756360008201527f74696f6e00000000000000000000000000000000000000000000000000000000602082015250565b600061090b60248361089e565b9150610916826108af565b604082019050919050565b6000602082019050818103600083015261093a816108fe565b9050919050565b7f41756374696f6e206973207374696c6c20696e2070726f677265737320736f2060008201527f63616e6e6f742062652063616e63656c6c656400000000000000000000000000602082015250565b600061099d60338361089e565b91506109a882610941565b604082019050919050565b600060208201905081810360008301526109cc81610990565b9050919050565b60006040820190506109e8600083018561068c565b6109f56020830184610731565b9392505050565b7f596f75206861766520706c61636564206c6f7720626964207468616e20746f7060008201527f2062696464657200000000000000000000000000000000000000000000000000602082015250565b6000610a5860278361089e565b9150610a63826109fc565b604082019050919050565b60006020820190508181036000830152610a8781610a4b565b9050919050565b7f41756374696f6e2074696d6520656e6465640000000000000000000000000000600082015250565b6000610ac460128361089e565b9150610acf82610a8e565b602082019050919050565b60006020820190508181036000830152610af381610ab7565b905091905056fea2646970667358221220150b73eead1ddf3f4b98305c5c4ab6e52edc07f909c483dbed2386ba768122d364736f6c63430008090033",
					"opcodes": "PUSH1 0x80 PUSH1 0x40 MSTORE PUSH1 0x0 DUP1 PUSH1 0x0 PUSH2 0x100 EXP DUP2 SLOAD DUP2 PUSH1 0xFF MUL NOT AND SWAP1 DUP4 ISZERO ISZERO MUL OR SWAP1 SSTORE POP PUSH1 0x0 PUSH1 0x1 SSTORE CALLVALUE DUP1 ISZERO PUSH2 0x2F JUMPI PUSH1 0x0 DUP1 REVERT JUMPDEST POP PUSH2 0xB30 DUP1 PUSH2 0x3F PUSH1 0x0 CODECOPY PUSH1 0x0 RETURN INVALID PUSH1 0x80 PUSH1 0x40 MSTORE PUSH1 0x4 CALLDATASIZE LT PUSH2 0x55 JUMPI PUSH1 0x0 CALLDATALOAD PUSH1 0xE0 SHR DUP1 PUSH4 0x1333F06 EQ PUSH2 0x5A JUMPI DUP1 PUSH4 0x4FEE13FC EQ PUSH2 0x85 JUMPI DUP1 PUSH4 0x636BF730 EQ PUSH2 0xAE JUMPI DUP1 PUSH4 0x8FA8B790 EQ PUSH2 0xD9 JUMPI DUP1 PUSH4 0xECFC7ECC EQ PUSH2 0xF0 JUMPI DUP1 PUSH4 0xFDE8C63E EQ PUSH2 0xFA JUMPI JUMPDEST PUSH1 0x0 DUP1 REVERT JUMPDEST CALLVALUE DUP1 ISZERO PUSH2 0x66 JUMPI PUSH1 0x0 DUP1 REVERT JUMPDEST POP PUSH2 0x6F PUSH2 0x125 JUMP JUMPDEST PUSH1 0x40 MLOAD PUSH2 0x7C SWAP2 SWAP1 PUSH2 0x69B JUMP JUMPDEST PUSH1 0x40 MLOAD DUP1 SWAP2 SUB SWAP1 RETURN JUMPDEST CALLVALUE DUP1 ISZERO PUSH2 0x91 JUMPI PUSH1 0x0 DUP1 REVERT JUMPDEST POP PUSH2 0xAC PUSH1 0x4 DUP1 CALLDATASIZE SUB DUP2 ADD SWAP1 PUSH2 0xA7 SWAP2 SWAP1 PUSH2 0x6F1 JUMP JUMPDEST PUSH2 0x14B JUMP JUMPDEST STOP JUMPDEST CALLVALUE DUP1 ISZERO PUSH2 0xBA JUMPI PUSH1 0x0 DUP1 REVERT JUMPDEST POP PUSH2 0xC3 PUSH2 0x220 JUMP JUMPDEST PUSH1 0x40 MLOAD PUSH2 0xD0 SWAP2 SWAP1 PUSH2 0x740 JUMP JUMPDEST PUSH1 0x40 MLOAD DUP1 SWAP2 SUB SWAP1 RETURN JUMPDEST CALLVALUE DUP1 ISZERO PUSH2 0xE5 JUMPI PUSH1 0x0 DUP1 REVERT JUMPDEST POP PUSH2 0xEE PUSH2 0x226 JUMP JUMPDEST STOP JUMPDEST PUSH2 0xF8 PUSH2 0x3DF JUMP JUMPDEST STOP JUMPDEST CALLVALUE DUP1 ISZERO PUSH2 0x106 JUMPI PUSH1 0x0 DUP1 REVERT JUMPDEST POP PUSH2 0x10F PUSH2 0x55D JUMP JUMPDEST PUSH1 0x40 MLOAD PUSH2 0x11C SWAP2 SWAP1 PUSH2 0x776 JUMP JUMPDEST PUSH1 0x40 MLOAD DUP1 SWAP2 SUB SWAP1 RETURN JUMPDEST PUSH1 0x4 PUSH1 0x0 SWAP1 SLOAD SWAP1 PUSH2 0x100 EXP SWAP1 DIV PUSH20 0xFFFFFFFFFFFFFFFFFFFFFFFFFFFFFFFFFFFFFFFF AND DUP2 JUMP JUMPDEST CALLER PUSH1 0x0 PUSH1 0x1 PUSH2 0x100 EXP DUP2 SLOAD DUP2 PUSH20 0xFFFFFFFFFFFFFFFFFFFFFFFFFFFFFFFFFFFFFFFF MUL NOT AND SWAP1 DUP4 PUSH20 0xFFFFFFFFFFFFFFFFFFFFFFFFFFFFFFFFFFFFFFFF AND MUL OR SWAP1 SSTORE POP PUSH1 0x0 DUP1 PUSH1 0x0 PUSH2 0x100 EXP DUP2 SLOAD DUP2 PUSH1 0xFF MUL NOT AND SWAP1 DUP4 ISZERO ISZERO MUL OR SWAP1 SSTORE POP DUP2 PUSH1 0x2 DUP2 SWAP1 SSTORE POP DUP1 TIMESTAMP PUSH2 0x1B9 SWAP2 SWAP1 PUSH2 0x7C0 JUMP JUMPDEST PUSH1 0x3 DUP2 SWAP1 SSTORE POP PUSH32 0x1E6871A9EC2C22E508757C73D7E2D7D15E2819276867174AFB13FCDC9F018DF2 PUSH1 0x0 PUSH1 0x1 SWAP1 SLOAD SWAP1 PUSH2 0x100 EXP SWAP1 DIV PUSH20 0xFFFFFFFFFFFFFFFFFFFFFFFFFFFFFFFFFFFFFFFF AND PUSH1 0x2 SLOAD PUSH1 0x40 MLOAD PUSH2 0x214 SWAP3 SWAP2 SWAP1 PUSH2 0x875 JUMP JUMPDEST PUSH1 0x40 MLOAD DUP1 SWAP2 SUB SWAP1 LOG1 POP POP JUMP JUMPDEST PUSH1 0x5 SLOAD DUP2 JUMP JUMPDEST PUSH1 0x0 PUSH1 0x1 SWAP1 SLOAD SWAP1 PUSH2 0x100 EXP SWAP1 DIV PUSH20 0xFFFFFFFFFFFFFFFFFFFFFFFFFFFFFFFFFFFFFFFF AND PUSH20 0xFFFFFFFFFFFFFFFFFFFFFFFFFFFFFFFFFFFFFFFF AND CALLER PUSH20 0xFFFFFFFFFFFFFFFFFFFFFFFFFFFFFFFFFFFFFFFF AND EQ PUSH2 0x2B6 JUMPI PUSH1 0x40 MLOAD PUSH32 0x8C379A000000000000000000000000000000000000000000000000000000000 DUP2 MSTORE PUSH1 0x4 ADD PUSH2 0x2AD SWAP1 PUSH2 0x921 JUMP JUMPDEST PUSH1 0x40 MLOAD DUP1 SWAP2 SUB SWAP1 REVERT JUMPDEST PUSH1 0x3 SLOAD TIMESTAMP GT ISZERO PUSH2 0x2FB JUMPI PUSH1 0x40 MLOAD PUSH32 0x8C379A000000000000000000000000000000000000000000000000000000000 DUP2 MSTORE PUSH1 0x4 ADD PUSH2 0x2F2 SWAP1 PUSH2 0x9B3 JUMP JUMPDEST PUSH1 0x40 MLOAD DUP1 SWAP2 SUB SWAP1 REVERT JUMPDEST PUSH1 0x1 PUSH1 0x0 DUP1 PUSH2 0x100 EXP DUP2 SLOAD DUP2 PUSH1 0xFF MUL NOT AND SWAP1 DUP4 ISZERO ISZERO MUL OR SWAP1 SSTORE POP PUSH32 0x693FE466DADF29E4700C29F41D1504C602B944FA5E6B5F1CB0A3A2CA0702120 PUSH1 0x4 PUSH1 0x0 SWAP1 SLOAD SWAP1 PUSH2 0x100 EXP SWAP1 DIV PUSH20 0xFFFFFFFFFFFFFFFFFFFFFFFFFFFFFFFFFFFFFFFF AND PUSH1 0x5 SLOAD PUSH1 0x40 MLOAD PUSH2 0x36A SWAP3 SWAP2 SWAP1 PUSH2 0x9D3 JUMP JUMPDEST PUSH1 0x40 MLOAD DUP1 SWAP2 SUB SWAP1 LOG1 PUSH1 0x0 PUSH1 0x1 SWAP1 SLOAD SWAP1 PUSH2 0x100 EXP SWAP1 DIV PUSH20 0xFFFFFFFFFFFFFFFFFFFFFFFFFFFFFFFFFFFFFFFF AND PUSH20 0xFFFFFFFFFFFFFFFFFFFFFFFFFFFFFFFFFFFFFFFF AND PUSH2 0x8FC PUSH1 0x5 SLOAD SWAP1 DUP2 ISZERO MUL SWAP1 PUSH1 0x40 MLOAD PUSH1 0x0 PUSH1 0x40 MLOAD DUP1 DUP4 SUB DUP2 DUP6 DUP9 DUP9 CALL SWAP4 POP POP POP POP ISZERO DUP1 ISZERO PUSH2 0x3DC JUMPI RETURNDATASIZE PUSH1 0x0 DUP1 RETURNDATACOPY RETURNDATASIZE PUSH1 0x0 REVERT JUMPDEST POP JUMP JUMPDEST PUSH1 0x1 SLOAD CALLVALUE GT PUSH2 0x423 JUMPI PUSH1 0x40 MLOAD PUSH32 0x8C379A000000000000000000000000000000000000000000000000000000000 DUP2 MSTORE PUSH1 0x4 ADD PUSH2 0x41A SWAP1 PUSH2 0xA6E JUMP JUMPDEST PUSH1 0x40 MLOAD DUP1 SWAP2 SUB SWAP1 REVERT JUMPDEST TIMESTAMP PUSH1 0x3 SLOAD GT PUSH2 0x467 JUMPI PUSH1 0x40 MLOAD PUSH32 0x8C379A000000000000000000000000000000000000000000000000000000000 DUP2 MSTORE PUSH1 0x4 ADD PUSH2 0x45E SWAP1 PUSH2 0xADA JUMP JUMPDEST PUSH1 0x40 MLOAD DUP1 SWAP2 SUB SWAP1 REVERT JUMPDEST PUSH1 0x0 PUSH1 0x5 SLOAD EQ PUSH2 0x4DA JUMPI PUSH1 0x5 SLOAD PUSH1 0x6 PUSH1 0x0 PUSH1 0x4 PUSH1 0x0 SWAP1 SLOAD SWAP1 PUSH2 0x100 EXP SWAP1 DIV PUSH20 0xFFFFFFFFFFFFFFFFFFFFFFFFFFFFFFFFFFFFFFFF AND PUSH20 0xFFFFFFFFFFFFFFFFFFFFFFFFFFFFFFFFFFFFFFFF AND PUSH20 0xFFFFFFFFFFFFFFFFFFFFFFFFFFFFFFFFFFFFFFFF AND DUP2 MSTORE PUSH1 0x20 ADD SWAP1 DUP2 MSTORE PUSH1 0x20 ADD PUSH1 0x0 KECCAK256 DUP2 SWAP1 SSTORE POP JUMPDEST CALLER PUSH1 0x4 PUSH1 0x0 PUSH2 0x100 EXP DUP2 SLOAD DUP2 PUSH20 0xFFFFFFFFFFFFFFFFFFFFFFFFFFFFFFFFFFFFFFFF MUL NOT AND SWAP1 DUP4 PUSH20 0xFFFFFFFFFFFFFFFFFFFFFFFFFFFFFFFFFFFFFFFF AND MUL OR SWAP1 SSTORE POP CALLVALUE PUSH1 0x5 DUP2 SWAP1 SSTORE POP PUSH32 0xF7D2DBE81680A1F0C2B9AAEB63D4184DE5C64951BA06BF1B5900341760775A22 CALLER CALLVALUE PUSH1 0x40 MLOAD PUSH2 0x553 SWAP3 SWAP2 SWAP1 PUSH2 0x9D3 JUMP JUMPDEST PUSH1 0x40 MLOAD DUP1 SWAP2 SUB SWAP1 LOG1 JUMP JUMPDEST PUSH1 0x0 PUSH1 0x3 SLOAD TIMESTAMP LT ISZERO PUSH2 0x56E JUMPI PUSH1 0x0 DUP1 REVERT JUMPDEST PUSH1 0x0 PUSH1 0x6 PUSH1 0x0 CALLER PUSH20 0xFFFFFFFFFFFFFFFFFFFFFFFFFFFFFFFFFFFFFFFF AND PUSH20 0xFFFFFFFFFFFFFFFFFFFFFFFFFFFFFFFFFFFFFFFF AND DUP2 MSTORE PUSH1 0x20 ADD SWAP1 DUP2 MSTORE PUSH1 0x20 ADD PUSH1 0x0 KECCAK256 SLOAD SWAP1 POP PUSH1 0x0 DUP2 GT ISZERO PUSH2 0x651 JUMPI CALLER PUSH20 0xFFFFFFFFFFFFFFFFFFFFFFFFFFFFFFFFFFFFFFFF AND PUSH2 0x8FC DUP3 SWAP1 DUP2 ISZERO MUL SWAP1 PUSH1 0x40 MLOAD PUSH1 0x0 PUSH1 0x40 MLOAD DUP1 DUP4 SUB DUP2 DUP6 DUP9 DUP9 CALL SWAP4 POP POP POP POP ISZERO DUP1 ISZERO PUSH2 0x601 JUMPI RETURNDATASIZE PUSH1 0x0 DUP1 RETURNDATACOPY RETURNDATASIZE PUSH1 0x0 REVERT JUMPDEST POP PUSH1 0x0 PUSH1 0x6 PUSH1 0x0 CALLER PUSH20 0xFFFFFFFFFFFFFFFFFFFFFFFFFFFFFFFFFFFFFFFF AND PUSH20 0xFFFFFFFFFFFFFFFFFFFFFFFFFFFFFFFFFFFFFFFF AND DUP2 MSTORE PUSH1 0x20 ADD SWAP1 DUP2 MSTORE PUSH1 0x20 ADD PUSH1 0x0 KECCAK256 DUP2 SWAP1 SSTORE POP PUSH1 0x1 SWAP2 POP POP PUSH2 0x657 JUMP JUMPDEST PUSH1 0x0 SWAP2 POP POP JUMPDEST SWAP1 JUMP JUMPDEST PUSH1 0x0 PUSH20 0xFFFFFFFFFFFFFFFFFFFFFFFFFFFFFFFFFFFFFFFF DUP3 AND SWAP1 POP SWAP2 SWAP1 POP JUMP JUMPDEST PUSH1 0x0 PUSH2 0x685 DUP3 PUSH2 0x65A JUMP JUMPDEST SWAP1 POP SWAP2 SWAP1 POP JUMP JUMPDEST PUSH2 0x695 DUP2 PUSH2 0x67A JUMP JUMPDEST DUP3 MSTORE POP POP JUMP JUMPDEST PUSH1 0x0 PUSH1 0x20 DUP3 ADD SWAP1 POP PUSH2 0x6B0 PUSH1 0x0 DUP4 ADD DUP5 PUSH2 0x68C JUMP JUMPDEST SWAP3 SWAP2 POP POP JUMP JUMPDEST PUSH1 0x0 DUP1 REVERT JUMPDEST PUSH1 0x0 DUP2 SWAP1 POP SWAP2 SWAP1 POP JUMP JUMPDEST PUSH2 0x6CE DUP2 PUSH2 0x6BB JUMP JUMPDEST DUP2 EQ PUSH2 0x6D9 JUMPI PUSH1 0x0 DUP1 REVERT JUMPDEST POP JUMP JUMPDEST PUSH1 0x0 DUP2 CALLDATALOAD SWAP1 POP PUSH2 0x6EB DUP2 PUSH2 0x6C5 JUMP JUMPDEST SWAP3 SWAP2 POP POP JUMP JUMPDEST PUSH1 0x0 DUP1 PUSH1 0x40 DUP4 DUP6 SUB SLT ISZERO PUSH2 0x708 JUMPI PUSH2 0x707 PUSH2 0x6B6 JUMP JUMPDEST JUMPDEST PUSH1 0x0 PUSH2 0x716 DUP6 DUP3 DUP7 ADD PUSH2 0x6DC JUMP JUMPDEST SWAP3 POP POP PUSH1 0x20 PUSH2 0x727 DUP6 DUP3 DUP7 ADD PUSH2 0x6DC JUMP JUMPDEST SWAP2 POP POP SWAP3 POP SWAP3 SWAP1 POP JUMP JUMPDEST PUSH2 0x73A DUP2 PUSH2 0x6BB JUMP JUMPDEST DUP3 MSTORE POP POP JUMP JUMPDEST PUSH1 0x0 PUSH1 0x20 DUP3 ADD SWAP1 POP PUSH2 0x755 PUSH1 0x0 DUP4 ADD DUP5 PUSH2 0x731 JUMP JUMPDEST SWAP3 SWAP2 POP POP JUMP JUMPDEST PUSH1 0x0 DUP2 ISZERO ISZERO SWAP1 POP SWAP2 SWAP1 POP JUMP JUMPDEST PUSH2 0x770 DUP2 PUSH2 0x75B JUMP JUMPDEST DUP3 MSTORE POP POP JUMP JUMPDEST PUSH1 0x0 PUSH1 0x20 DUP3 ADD SWAP1 POP PUSH2 0x78B PUSH1 0x0 DUP4 ADD DUP5 PUSH2 0x767 JUMP JUMPDEST SWAP3 SWAP2 POP POP JUMP JUMPDEST PUSH32 0x4E487B7100000000000000000000000000000000000000000000000000000000 PUSH1 0x0 MSTORE PUSH1 0x11 PUSH1 0x4 MSTORE PUSH1 0x24 PUSH1 0x0 REVERT JUMPDEST PUSH1 0x0 PUSH2 0x7CB DUP3 PUSH2 0x6BB JUMP JUMPDEST SWAP2 POP PUSH2 0x7D6 DUP4 PUSH2 0x6BB JUMP JUMPDEST SWAP3 POP DUP3 PUSH32 0xFFFFFFFFFFFFFFFFFFFFFFFFFFFFFFFFFFFFFFFFFFFFFFFFFFFFFFFFFFFFFFFF SUB DUP3 GT ISZERO PUSH2 0x80B JUMPI PUSH2 0x80A PUSH2 0x791 JUMP JUMPDEST JUMPDEST DUP3 DUP3 ADD SWAP1 POP SWAP3 SWAP2 POP POP JUMP JUMPDEST PUSH1 0x0 DUP2 SWAP1 POP SWAP2 SWAP1 POP JUMP JUMPDEST PUSH1 0x0 PUSH2 0x83B PUSH2 0x836 PUSH2 0x831 DUP5 PUSH2 0x65A JUMP JUMPDEST PUSH2 0x816 JUMP JUMPDEST PUSH2 0x65A JUMP JUMPDEST SWAP1 POP SWAP2 SWAP1 POP JUMP JUMPDEST PUSH1 0x0 PUSH2 0x84D DUP3 PUSH2 0x820 JUMP JUMPDEST SWAP1 POP SWAP2 SWAP1 POP JUMP JUMPDEST PUSH1 0x0 PUSH2 0x85F DUP3 PUSH2 0x842 JUMP JUMPDEST SWAP1 POP SWAP2 SWAP1 POP JUMP JUMPDEST PUSH2 0x86F DUP2 PUSH2 0x854 JUMP JUMPDEST DUP3 MSTORE POP POP JUMP JUMPDEST PUSH1 0x0 PUSH1 0x40 DUP3 ADD SWAP1 POP PUSH2 0x88A PUSH1 0x0 DUP4 ADD DUP6 PUSH2 0x866 JUMP JUMPDEST PUSH2 0x897 PUSH1 0x20 DUP4 ADD DUP5 PUSH2 0x731 JUMP JUMPDEST SWAP4 SWAP3 POP POP POP JUMP JUMPDEST PUSH1 0x0 DUP3 DUP3 MSTORE PUSH1 0x20 DUP3 ADD SWAP1 POP SWAP3 SWAP2 POP POP JUMP JUMPDEST PUSH32 0x41756374696F6E206F776E65722063616E2063616E63656C2074686520617563 PUSH1 0x0 DUP3 ADD MSTORE PUSH32 0x74696F6E00000000000000000000000000000000000000000000000000000000 PUSH1 0x20 DUP3 ADD MSTORE POP JUMP JUMPDEST PUSH1 0x0 PUSH2 0x90B PUSH1 0x24 DUP4 PUSH2 0x89E JUMP JUMPDEST SWAP2 POP PUSH2 0x916 DUP3 PUSH2 0x8AF JUMP JUMPDEST PUSH1 0x40 DUP3 ADD SWAP1 POP SWAP2 SWAP1 POP JUMP JUMPDEST PUSH1 0x0 PUSH1 0x20 DUP3 ADD SWAP1 POP DUP2 DUP2 SUB PUSH1 0x0 DUP4 ADD MSTORE PUSH2 0x93A DUP2 PUSH2 0x8FE JUMP JUMPDEST SWAP1 POP SWAP2 SWAP1 POP JUMP JUMPDEST PUSH32 0x41756374696F6E206973207374696C6C20696E2070726F677265737320736F20 PUSH1 0x0 DUP3 ADD MSTORE PUSH32 0x63616E6E6F742062652063616E63656C6C656400000000000000000000000000 PUSH1 0x20 DUP3 ADD MSTORE POP JUMP JUMPDEST PUSH1 0x0 PUSH2 0x99D PUSH1 0x33 DUP4 PUSH2 0x89E JUMP JUMPDEST SWAP2 POP PUSH2 0x9A8 DUP3 PUSH2 0x941 JUMP JUMPDEST PUSH1 0x40 DUP3 ADD SWAP1 POP SWAP2 SWAP1 POP JUMP JUMPDEST PUSH1 0x0 PUSH1 0x20 DUP3 ADD SWAP1 POP DUP2 DUP2 SUB PUSH1 0x0 DUP4 ADD MSTORE PUSH2 0x9CC DUP2 PUSH2 0x990 JUMP JUMPDEST SWAP1 POP SWAP2 SWAP1 POP JUMP JUMPDEST PUSH1 0x0 PUSH1 0x40 DUP3 ADD SWAP1 POP PUSH2 0x9E8 PUSH1 0x0 DUP4 ADD DUP6 PUSH2 0x68C JUMP JUMPDEST PUSH2 0x9F5 PUSH1 0x20 DUP4 ADD DUP5 PUSH2 0x731 JUMP JUMPDEST SWAP4 SWAP3 POP POP POP JUMP JUMPDEST PUSH32 0x596F75206861766520706C61636564206C6F7720626964207468616E20746F70 PUSH1 0x0 DUP3 ADD MSTORE PUSH32 0x2062696464657200000000000000000000000000000000000000000000000000 PUSH1 0x20 DUP3 ADD MSTORE POP JUMP JUMPDEST PUSH1 0x0 PUSH2 0xA58 PUSH1 0x27 DUP4 PUSH2 0x89E JUMP JUMPDEST SWAP2 POP PUSH2 0xA63 DUP3 PUSH2 0x9FC JUMP JUMPDEST PUSH1 0x40 DUP3 ADD SWAP1 POP SWAP2 SWAP1 POP JUMP JUMPDEST PUSH1 0x0 PUSH1 0x20 DUP3 ADD SWAP1 POP DUP2 DUP2 SUB PUSH1 0x0 DUP4 ADD MSTORE PUSH2 0xA87 DUP2 PUSH2 0xA4B JUMP JUMPDEST SWAP1 POP SWAP2 SWAP1 POP JUMP JUMPDEST PUSH32 0x41756374696F6E2074696D6520656E6465640000000000000000000000000000 PUSH1 0x0 DUP3 ADD MSTORE POP JUMP JUMPDEST PUSH1 0x0 PUSH2 0xAC4 PUSH1 0x12 DUP4 PUSH2 0x89E JUMP JUMPDEST SWAP2 POP PUSH2 0xACF DUP3 PUSH2 0xA8E JUMP JUMPDEST PUSH1 0x20 DUP3 ADD SWAP1 POP SWAP2 SWAP1 POP JUMP JUMPDEST PUSH1 0x0 PUSH1 0x20 DUP3 ADD SWAP1 POP DUP2 DUP2 SUB PUSH1 0x0 DUP4 ADD MSTORE PUSH2 0xAF3 DUP2 PUSH2 0xAB7 JUMP JUMPDEST SWAP1 POP SWAP2 SWAP1 POP JUMP INVALID LOG2 PUSH5 0x6970667358 0x22 SLT KECCAK256 ISZERO SIGNEXTEND PUSH20 0xEEAD1DDF3F4B98305C5C4AB6E52EDC07F909C483 0xDB 0xED 0x23 DUP7 0xBA PUSH23 0x8122D364736F6C63430008090033000000000000000000 "
				},
				"gasEstimates": {
					"creation": {
						"codeDepositCost": "572800",
						"executionCost": "29879",
						"totalCost": "602679"
					},
					"external": {
						"cancelAuction()": "infinite",
						"placeBid()": "80969",
						"startAuction(uint256,uint256)": "infinite",
						"topBid()": "2451",
						"topBidder()": "2492",
						"withDrawBid()": "infinite"
					}
				},
				"methodIdentifiers": {
					"cancelAuction()": "8fa8b790",
					"placeBid()": "ecfc7ecc",
					"startAuction(uint256,uint256)": "4fee13fc",
					"topBid()": "636bf730",
					"topBidder()": "01333f06",
					"withDrawBid()": "fde8c63e"
				}
			},
			"storageLayout": {
				"storage": [
					{
						"astId": 4,
						"contract": "SimpleAuction.sol:simpleAuction",
						"label": "AuctionClosed",
						"offset": 0,
						"slot": "0",
						"type": "t_bool"
					},
					{
						"astId": 6,
						"contract": "SimpleAuction.sol:simpleAuction",
						"label": "auctionOwner",
						"offset": 1,
						"slot": "0",
						"type": "t_address_payable"
					},
					{
						"astId": 9,
						"contract": "SimpleAuction.sol:simpleAuction",
						"label": "topBidAmount",
						"offset": 0,
						"slot": "1",
						"type": "t_uint256"
					},
					{
						"astId": 11,
						"contract": "SimpleAuction.sol:simpleAuction",
						"label": "auctionStartPrice",
						"offset": 0,
						"slot": "2",
						"type": "t_uint256"
					},
					{
						"astId": 13,
						"contract": "SimpleAuction.sol:simpleAuction",
						"label": "auctionTime",
						"offset": 0,
						"slot": "3",
						"type": "t_uint256"
					},
					{
						"astId": 15,
						"contract": "SimpleAuction.sol:simpleAuction",
						"label": "topBidder",
						"offset": 0,
						"slot": "4",
						"type": "t_address"
					},
					{
						"astId": 17,
						"contract": "SimpleAuction.sol:simpleAuction",
						"label": "topBid",
						"offset": 0,
						"slot": "5",
						"type": "t_uint256"
					},
					{
						"astId": 21,
						"contract": "SimpleAuction.sol:simpleAuction",
						"label": "pendingReturns",
						"offset": 0,
						"slot": "6",
						"type": "t_mapping(t_address,t_uint256)"
					}
				],
				"types": {
					"t_address": {
						"encoding": "inplace",
						"label": "address",
						"numberOfBytes": "20"
					},
					"t_address_payable": {
						"encoding": "inplace",
						"label": "address payable",
						"numberOfBytes": "20"
					},
					"t_bool": {
						"encoding": "inplace",
						"label": "bool",
						"numberOfBytes": "1"
					},
					"t_mapping(t_address,t_uint256)": {
						"encoding": "mapping",
						"key": "t_address",
						"label": "mapping(address => uint256)",
						"numberOfBytes": "32",
						"value": "t_uint256"
					},
					"t_uint256": {
						"encoding": "inplace",
						"label": "uint256",
						"numberOfBytes": "32"
					}
				}
			},
			"userdoc": {
				"kind": "user",
				"methods": {},
				"version": 1
			}
		}
	}
}