{
	"start.sol": {
		"Counter": {
			"abi": [
				{
					"anonymous": false,
					"inputs": [
						{
							"indexed": false,
							"internalType": "uint256",
							"name": "value",
							"type": "uint256"
						}
					],
					"name": "decrement",
					"type": "event"
				},
				{
					"anonymous": false,
					"inputs": [
						{
							"indexed": false,
							"internalType": "uint256",
							"name": "value",
							"type": "uint256"
						}
					],
					"name": "increment",
					"type": "event"
				},
				{
					"inputs": [],
					"name": "decrementCount",
					"outputs": [],
					"stateMutability": "nonpayable",
					"type": "function"
				},
				{
					"inputs": [],
					"name": "getCount",
					"outputs": [
						{
							"internalType": "uint256",
							"name": "",
							"type": "uint256"
						}
					],
					"stateMutability": "view",
					"type": "function"
				},
				{
					"inputs": [],
					"name": "incrementCount",
					"outputs": [],
					"stateMutability": "nonpayable",
					"type": "function"
				},
				{
					"inputs": [],
					"name": "incrementWithOut",
					"outputs": [],
					"stateMutability": "nonpayable",
					"type": "function"
				}
			],
			"devdoc": {
				"methods": {}
			},
			"evm": {
				"assembly": "    /* \"start.sol\":72:512  contract Counter {... */\n  mstore(0x40, 0x80)\n    /* \"start.sol\":106:107  0 */\n  0x00\n    /* \"start.sol\":95:107  uint count=0 */\n  dup1\n  sstore\n    /* \"start.sol\":72:512  contract Counter {... */\n  callvalue\n  dup1\n  iszero\n  tag_1\n  jumpi\n  0x00\n  dup1\n  revert\ntag_1:\n  pop\n  dataSize(sub_0)\n  dup1\n  dataOffset(sub_0)\n  0x00\n  codecopy\n  0x00\n  return\nstop\n\nsub_0: assembly {\n        /* \"start.sol\":72:512  contract Counter {... */\n      mstore(0x40, 0x80)\n      callvalue\n      dup1\n      iszero\n      tag_1\n      jumpi\n      0x00\n      dup1\n      revert\n    tag_1:\n      pop\n      jumpi(tag_2, lt(calldatasize, 0x04))\n      shr(0xe0, calldataload(0x00))\n      dup1\n      0x8f8dfb0e\n      eq\n      tag_3\n      jumpi\n      dup1\n      0xa87d942c\n      eq\n      tag_4\n      jumpi\n      dup1\n      0xb7f90f12\n      eq\n      tag_5\n      jumpi\n      dup1\n      0xe5071b8e\n      eq\n      tag_6\n      jumpi\n    tag_2:\n      0x00\n      dup1\n      revert\n        /* \"start.sol\":370:430  function incrementWithOut() public {... */\n    tag_3:\n      tag_7\n      tag_8\n      jump\t// in\n    tag_7:\n      stop\n        /* \"start.sol\":436:510  function getCount() view public returns(uint){... */\n    tag_4:\n      tag_9\n      tag_10\n      jump\t// in\n    tag_9:\n      mload(0x40)\n      dup1\n      dup3\n      dup2\n      mstore\n      0x20\n      add\n      swap2\n      pop\n      pop\n      mload(0x40)\n      dup1\n      swap2\n      sub\n      swap1\n      return\n        /* \"start.sol\":275:364  function decrementCount() public {... */\n    tag_5:\n      tag_11\n      tag_12\n      jump\t// in\n    tag_11:\n      stop\n        /* \"start.sol\":181:269  function incrementCount() public{... */\n    tag_6:\n      tag_13\n      tag_14\n      jump\t// in\n    tag_13:\n      stop\n        /* \"start.sol\":370:430  function incrementWithOut() public {... */\n    tag_8:\n        /* \"start.sol\":422:423  1 */\n      0x01\n        /* \"start.sol\":415:420  count */\n      0x00\n      dup1\n        /* \"start.sol\":415:423  count+=1 */\n      dup3\n      dup3\n      sload\n      add\n      swap3\n      pop\n      pop\n      dup2\n      swap1\n      sstore\n      pop\n        /* \"start.sol\":370:430  function incrementWithOut() public {... */\n      jump\t// out\n        /* \"start.sol\":436:510  function getCount() view public returns(uint){... */\n    tag_10:\n        /* \"start.sol\":476:480  uint */\n      0x00\n        /* \"start.sol\":498:503  count */\n      dup1\n      sload\n        /* \"start.sol\":491:503  return count */\n      swap1\n      pop\n        /* \"start.sol\":436:510  function getCount() view public returns(uint){... */\n      swap1\n      jump\t// out\n        /* \"start.sol\":275:364  function decrementCount() public {... */\n    tag_12:\n        /* \"start.sol\":325:326  1 */\n      0x01\n        /* \"start.sol\":318:323  count */\n      0x00\n      dup1\n        /* \"start.sol\":318:326  count-=1 */\n      dup3\n      dup3\n      sload\n      sub\n      swap3\n      pop\n      pop\n      dup2\n      swap1\n      sstore\n      pop\n        /* \"start.sol\":341:357  decrement(count) */\n      0x3a9ebefd0e9022a1fc7dca5027a8f0f5e8a71d2c1418950e434a825c353d0677\n        /* \"start.sol\":351:356  count */\n      sload(0x00)\n        /* \"start.sol\":341:357  decrement(count) */\n      mload(0x40)\n      dup1\n      dup3\n      dup2\n      mstore\n      0x20\n      add\n      swap2\n      pop\n      pop\n      mload(0x40)\n      dup1\n      swap2\n      sub\n      swap1\n      log1\n        /* \"start.sol\":275:364  function decrementCount() public {... */\n      jump\t// out\n        /* \"start.sol\":181:269  function incrementCount() public{... */\n    tag_14:\n        /* \"start.sol\":230:231  1 */\n      0x01\n        /* \"start.sol\":223:228  count */\n      0x00\n      dup1\n        /* \"start.sol\":223:231  count+=1 */\n      dup3\n      dup3\n      sload\n      add\n      swap3\n      pop\n      pop\n      dup2\n      swap1\n      sstore\n      pop\n        /* \"start.sol\":246:262  increment(count) */\n      0x7cf5dab01c7361384076429cdaa96970954ab0e6f0891e1226eb38be7a6b7918\n        /* \"start.sol\":256:261  count */\n      sload(0x00)\n        /* \"start.sol\":246:262  increment(count) */\n      mload(0x40)\n      dup1\n      dup3\n      dup2\n      mstore\n      0x20\n      add\n      swap2\n      pop\n      pop\n      mload(0x40)\n      dup1\n      swap2\n      sub\n      swap1\n      log1\n        /* \"start.sol\":181:269  function incrementCount() public{... */\n      jump\t// out\n\n    auxdata: 0xa26469706673582212208a78faa320d28e3bf4ce8158f7cd951bb1192e67db02dbcd17ecdc2c4ebdae8764736f6c63430006090033\n}\n",
				"bytecode": {
					"linkReferences": {},
					"object": "60806040526000805534801561001457600080fd5b50610174806100246000396000f3fe608060405234801561001057600080fd5b506004361061004c5760003560e01c80638f8dfb0e14610051578063a87d942c1461005b578063b7f90f1214610079578063e5071b8e14610083575b600080fd5b61005961008d565b005b61006361009f565b6040518082815260200191505060405180910390f35b6100816100a8565b005b61008b6100f3565b005b60016000808282540192505081905550565b60008054905090565b600160008082825403925050819055507f3a9ebefd0e9022a1fc7dca5027a8f0f5e8a71d2c1418950e434a825c353d06776000546040518082815260200191505060405180910390a1565b600160008082825401925050819055507f7cf5dab01c7361384076429cdaa96970954ab0e6f0891e1226eb38be7a6b79186000546040518082815260200191505060405180910390a156fea26469706673582212208a78faa320d28e3bf4ce8158f7cd951bb1192e67db02dbcd17ecdc2c4ebdae8764736f6c63430006090033",
					"opcodes": "PUSH1 0x80 PUSH1 0x40 MSTORE PUSH1 0x0 DUP1 SSTORE CALLVALUE DUP1 ISZERO PUSH2 0x14 JUMPI PUSH1 0x0 DUP1 REVERT JUMPDEST POP PUSH2 0x174 DUP1 PUSH2 0x24 PUSH1 0x0 CODECOPY PUSH1 0x0 RETURN INVALID PUSH1 0x80 PUSH1 0x40 MSTORE CALLVALUE DUP1 ISZERO PUSH2 0x10 JUMPI PUSH1 0x0 DUP1 REVERT JUMPDEST POP PUSH1 0x4 CALLDATASIZE LT PUSH2 0x4C JUMPI PUSH1 0x0 CALLDATALOAD PUSH1 0xE0 SHR DUP1 PUSH4 0x8F8DFB0E EQ PUSH2 0x51 JUMPI DUP1 PUSH4 0xA87D942C EQ PUSH2 0x5B JUMPI DUP1 PUSH4 0xB7F90F12 EQ PUSH2 0x79 JUMPI DUP1 PUSH4 0xE5071B8E EQ PUSH2 0x83 JUMPI JUMPDEST PUSH1 0x0 DUP1 REVERT JUMPDEST PUSH2 0x59 PUSH2 0x8D JUMP JUMPDEST STOP JUMPDEST PUSH2 0x63 PUSH2 0x9F JUMP JUMPDEST PUSH1 0x40 MLOAD DUP1 DUP3 DUP2 MSTORE PUSH1 0x20 ADD SWAP2 POP POP PUSH1 0x40 MLOAD DUP1 SWAP2 SUB SWAP1 RETURN JUMPDEST PUSH2 0x81 PUSH2 0xA8 JUMP JUMPDEST STOP JUMPDEST PUSH2 0x8B PUSH2 0xF3 JUMP JUMPDEST STOP JUMPDEST PUSH1 0x1 PUSH1 0x0 DUP1 DUP3 DUP3 SLOAD ADD SWAP3 POP POP DUP2 SWAP1 SSTORE POP JUMP JUMPDEST PUSH1 0x0 DUP1 SLOAD SWAP1 POP SWAP1 JUMP JUMPDEST PUSH1 0x1 PUSH1 0x0 DUP1 DUP3 DUP3 SLOAD SUB SWAP3 POP POP DUP2 SWAP1 SSTORE POP PUSH32 0x3A9EBEFD0E9022A1FC7DCA5027A8F0F5E8A71D2C1418950E434A825C353D0677 PUSH1 0x0 SLOAD PUSH1 0x40 MLOAD DUP1 DUP3 DUP2 MSTORE PUSH1 0x20 ADD SWAP2 POP POP PUSH1 0x40 MLOAD DUP1 SWAP2 SUB SWAP1 LOG1 JUMP JUMPDEST PUSH1 0x1 PUSH1 0x0 DUP1 DUP3 DUP3 SLOAD ADD SWAP3 POP POP DUP2 SWAP1 SSTORE POP PUSH32 0x7CF5DAB01C7361384076429CDAA96970954AB0E6F0891E1226EB38BE7A6B7918 PUSH1 0x0 SLOAD PUSH1 0x40 MLOAD DUP1 DUP3 DUP2 MSTORE PUSH1 0x20 ADD SWAP2 POP POP PUSH1 0x40 MLOAD DUP1 SWAP2 SUB SWAP1 LOG1 JUMP INVALID LOG2 PUSH5 0x6970667358 0x22 SLT KECCAK256 DUP11 PUSH25 0xFAA320D28E3BF4CE8158F7CD951BB1192E67DB02DBCD17ECDC 0x2C 0x4E 0xBD 0xAE DUP8 PUSH5 0x736F6C6343 STOP MOD MULMOD STOP CALLER "
				},
				"gasEstimates": {
					"creation": {
						"codeDepositCost": "74400",
						"executionCost": "5129",
						"totalCost": "79529"
					},
					"external": {
						"decrementCount()": "22866",
						"getCount()": "1013",
						"incrementCount()": "22888",
						"incrementWithOut()": "20955"
					}
				},
				"methodIdentifiers": {
					"decrementCount()": "b7f90f12",
					"getCount()": "a87d942c",
					"incrementCount()": "e5071b8e",
					"incrementWithOut()": "8f8dfb0e"
				}
			},
			"storageLayout": {
				"storage": [
					{
						"astId": 4,
						"contract": "start.sol:Counter",
						"label": "count",
						"offset": 0,
						"slot": "0",
						"type": "t_uint256"
					}
				],
				"types": {
					"t_uint256": {
						"encoding": "inplace",
						"label": "uint256",
						"numberOfBytes": "32"
					}
				}
			},
			"userdoc": {
				"methods": {}
			}
		}
	}
}