{
	"Bank.sol": {
		"Bank": {
			"abi": [
				{
					"inputs": [],
					"stateMutability": "payable",
					"type": "constructor"
				},
				{
					"anonymous": false,
					"inputs": [],
					"name": "depositMade",
					"type": "event"
				},
				{
					"inputs": [
						{
							"internalType": "address",
							"name": "_to",
							"type": "address"
						}
					],
					"name": "depositMoney",
					"outputs": [
						{
							"internalType": "uint256",
							"name": "",
							"type": "uint256"
						}
					],
					"stateMutability": "payable",
					"type": "function"
				},
				{
					"inputs": [],
					"name": "openAccount",
					"outputs": [
						{
							"internalType": "uint256",
							"name": "",
							"type": "uint256"
						}
					],
					"stateMutability": "payable",
					"type": "function"
				},
				{
					"inputs": [
						{
							"internalType": "uint256",
							"name": "withDrawAmount",
							"type": "uint256"
						}
					],
					"name": "withDrawMoney",
					"outputs": [
						{
							"internalType": "uint256",
							"name": "",
							"type": "uint256"
						}
					],
					"stateMutability": "payable",
					"type": "function"
				}
			],
			"devdoc": {
				"kind": "dev",
				"methods": {},
				"version": 1
			},
			"evm": {
				"assembly": "    /* \"Bank.sol\":71:1029  contract Bank{... */\n  mstore(0x40, 0x80)\n    /* \"Bank.sol\":246:254  15 ether */\n  0xd02ab486cedc0000\n    /* \"Bank.sol\":233:242  msg.value */\n  callvalue\n    /* \"Bank.sol\":233:254  msg.value == 15 ether */\n  eq\n    /* \"Bank.sol\":225:304  require(msg.value == 15 ether, 'Initial 15 ether required for contract to run') */\n  tag_3\n  jumpi\n  mload(0x40)\n  0x08c379a000000000000000000000000000000000000000000000000000000000\n  dup2\n  mstore\n  0x04\n  add\n  tag_4\n  swap1\n  tag_5\n  jump\t// in\ntag_4:\n  mload(0x40)\n  dup1\n  swap2\n  sub\n  swap1\n  revert\ntag_3:\n    /* \"Bank.sol\":320:330  msg.sender */\n  caller\n    /* \"Bank.sol\":314:319  owner */\n  0x02\n  0x00\n    /* \"Bank.sol\":314:330  owner=msg.sender */\n  0x0100\n  exp\n  dup2\n  sload\n  dup2\n  0xffffffffffffffffffffffffffffffffffffffff\n  mul\n  not\n  and\n  swap1\n  dup4\n  0xffffffffffffffffffffffffffffffffffffffff\n  and\n  mul\n  or\n  swap1\n  sstore\n  pop\n    /* \"Bank.sol\":71:1029  contract Bank{... */\n  jump(tag_6)\n    /* \"#utility.yul\":7:176   */\ntag_7:\n    /* \"#utility.yul\":91:102   */\n  0x00\n    /* \"#utility.yul\":125:131   */\n  dup3\n    /* \"#utility.yul\":120:123   */\n  dup3\n    /* \"#utility.yul\":113:132   */\n  mstore\n    /* \"#utility.yul\":165:169   */\n  0x20\n    /* \"#utility.yul\":160:163   */\n  dup3\n    /* \"#utility.yul\":156:170   */\n  add\n    /* \"#utility.yul\":141:170   */\n  swap1\n  pop\n    /* \"#utility.yul\":7:176   */\n  swap3\n  swap2\n  pop\n  pop\n  jump\t// out\n    /* \"#utility.yul\":182:414   */\ntag_8:\n    /* \"#utility.yul\":322:356   */\n  0x496e697469616c20313520657468657220726571756972656420666f7220636f\n    /* \"#utility.yul\":318:319   */\n  0x00\n    /* \"#utility.yul\":310:316   */\n  dup3\n    /* \"#utility.yul\":306:320   */\n  add\n    /* \"#utility.yul\":299:357   */\n  mstore\n    /* \"#utility.yul\":391:406   */\n  0x6e747261637420746f2072756e00000000000000000000000000000000000000\n    /* \"#utility.yul\":386:388   */\n  0x20\n    /* \"#utility.yul\":378:384   */\n  dup3\n    /* \"#utility.yul\":374:389   */\n  add\n    /* \"#utility.yul\":367:407   */\n  mstore\n    /* \"#utility.yul\":182:414   */\n  pop\n  jump\t// out\n    /* \"#utility.yul\":420:786   */\ntag_9:\n    /* \"#utility.yul\":562:565   */\n  0x00\n    /* \"#utility.yul\":583:650   */\n  tag_14\n    /* \"#utility.yul\":647:649   */\n  0x2d\n    /* \"#utility.yul\":642:645   */\n  dup4\n    /* \"#utility.yul\":583:650   */\n  tag_7\n  jump\t// in\ntag_14:\n    /* \"#utility.yul\":576:650   */\n  swap2\n  pop\n    /* \"#utility.yul\":659:752   */\n  tag_15\n    /* \"#utility.yul\":748:751   */\n  dup3\n    /* \"#utility.yul\":659:752   */\n  tag_8\n  jump\t// in\ntag_15:\n    /* \"#utility.yul\":777:779   */\n  0x40\n    /* \"#utility.yul\":772:775   */\n  dup3\n    /* \"#utility.yul\":768:780   */\n  add\n    /* \"#utility.yul\":761:780   */\n  swap1\n  pop\n    /* \"#utility.yul\":420:786   */\n  swap2\n  swap1\n  pop\n  jump\t// out\n    /* \"#utility.yul\":792:1211   */\ntag_5:\n    /* \"#utility.yul\":958:962   */\n  0x00\n    /* \"#utility.yul\":996:998   */\n  0x20\n    /* \"#utility.yul\":985:994   */\n  dup3\n    /* \"#utility.yul\":981:999   */\n  add\n    /* \"#utility.yul\":973:999   */\n  swap1\n  pop\n    /* \"#utility.yul\":1045:1054   */\n  dup2\n    /* \"#utility.yul\":1039:1043   */\n  dup2\n    /* \"#utility.yul\":1035:1055   */\n  sub\n    /* \"#utility.yul\":1031:1032   */\n  0x00\n    /* \"#utility.yul\":1020:1029   */\n  dup4\n    /* \"#utility.yul\":1016:1033   */\n  add\n    /* \"#utility.yul\":1009:1056   */\n  mstore\n    /* \"#utility.yul\":1073:1204   */\n  tag_17\n    /* \"#utility.yul\":1199:1203   */\n  dup2\n    /* \"#utility.yul\":1073:1204   */\n  tag_9\n  jump\t// in\ntag_17:\n    /* \"#utility.yul\":1065:1204   */\n  swap1\n  pop\n    /* \"#utility.yul\":792:1211   */\n  swap2\n  swap1\n  pop\n  jump\t// out\n    /* \"Bank.sol\":71:1029  contract Bank{... */\ntag_6:\n  dataSize(sub_0)\n  dup1\n  dataOffset(sub_0)\n  0x00\n  codecopy\n  0x00\n  return\nstop\n\nsub_0: assembly {\n        /* \"Bank.sol\":71:1029  contract Bank{... */\n      mstore(0x40, 0x80)\n      jumpi(tag_1, lt(calldatasize, 0x04))\n      shr(0xe0, calldataload(0x00))\n      dup1\n      0x292eb75d\n      eq\n      tag_2\n      jumpi\n      dup1\n      0x4a68533f\n      eq\n      tag_3\n      jumpi\n      dup1\n      0x827cc452\n      eq\n      tag_4\n      jumpi\n    tag_1:\n      0x00\n      dup1\n      revert\n        /* \"Bank.sol\":342:601  function openAccount() public payable returns(uint) {... */\n    tag_2:\n      tag_5\n      tag_6\n      jump\t// in\n    tag_5:\n      mload(0x40)\n      tag_7\n      swap2\n      swap1\n      tag_8\n      jump\t// in\n    tag_7:\n      mload(0x40)\n      dup1\n      swap2\n      sub\n      swap1\n      return\n        /* \"Bank.sol\":606:738  function depositMoney(address _to) public payable returns(uint){... */\n    tag_3:\n      tag_9\n      0x04\n      dup1\n      calldatasize\n      sub\n      dup2\n      add\n      swap1\n      tag_10\n      swap2\n      swap1\n      tag_11\n      jump\t// in\n    tag_10:\n      tag_12\n      jump\t// in\n    tag_9:\n      mload(0x40)\n      tag_13\n      swap2\n      swap1\n      tag_8\n      jump\t// in\n    tag_13:\n      mload(0x40)\n      dup1\n      swap2\n      sub\n      swap1\n      return\n        /* \"Bank.sol\":743:1026  function withDrawMoney(uint withDrawAmount) public payable returns(uint){... */\n    tag_4:\n      tag_14\n      0x04\n      dup1\n      calldatasize\n      sub\n      dup2\n      add\n      swap1\n      tag_15\n      swap2\n      swap1\n      tag_16\n      jump\t// in\n    tag_15:\n      tag_17\n      jump\t// in\n    tag_14:\n      mload(0x40)\n      tag_18\n      swap2\n      swap1\n      tag_8\n      jump\t// in\n    tag_18:\n      mload(0x40)\n      dup1\n      swap2\n      sub\n      swap1\n      return\n        /* \"Bank.sol\":342:601  function openAccount() public payable returns(uint) {... */\n    tag_6:\n        /* \"Bank.sol\":388:392  uint */\n      0x00\n        /* \"Bank.sol\":418:419  3 */\n      0x03\n        /* \"Bank.sol\":407:416  userCount */\n      sload(0x01)\n        /* \"Bank.sol\":407:419  userCount<=3 */\n      gt\n        /* \"Bank.sol\":404:538  if(userCount<=3){... */\n      tag_20\n      jumpi\n        /* \"Bank.sol\":455:462  5 ether */\n      0x4563918244f40000\n        /* \"Bank.sol\":434:441  balance */\n      0x00\n        /* \"Bank.sol\":434:453  balance[msg.sender] */\n      dup1\n        /* \"Bank.sol\":442:452  msg.sender */\n      caller\n        /* \"Bank.sol\":434:453  balance[msg.sender] */\n      0xffffffffffffffffffffffffffffffffffffffff\n      and\n      0xffffffffffffffffffffffffffffffffffffffff\n      and\n      dup2\n      mstore\n      0x20\n      add\n      swap1\n      dup2\n      mstore\n      0x20\n      add\n      0x00\n      keccak256\n        /* \"Bank.sol\":434:462  balance[msg.sender]= 5 ether */\n      dup2\n      swap1\n      sstore\n      pop\n        /* \"Bank.sol\":404:538  if(userCount<=3){... */\n      jump(tag_21)\n    tag_20:\n        /* \"Bank.sol\":520:527  0 ether */\n      0x00\n        /* \"Bank.sol\":500:507  balance */\n      dup1\n        /* \"Bank.sol\":500:519  balance[msg.sender] */\n      0x00\n        /* \"Bank.sol\":508:518  msg.sender */\n      caller\n        /* \"Bank.sol\":500:519  balance[msg.sender] */\n      0xffffffffffffffffffffffffffffffffffffffff\n      and\n      0xffffffffffffffffffffffffffffffffffffffff\n      and\n      dup2\n      mstore\n      0x20\n      add\n      swap1\n      dup2\n      mstore\n      0x20\n      add\n      0x00\n      keccak256\n        /* \"Bank.sol\":500:527  balance[msg.sender]=0 ether */\n      dup2\n      swap1\n      sstore\n      pop\n        /* \"Bank.sol\":404:538  if(userCount<=3){... */\n    tag_21:\n        /* \"Bank.sol\":547:556  userCount */\n      0x01\n      0x00\n        /* \"Bank.sol\":547:558  userCount++ */\n      dup2\n      sload\n      dup1\n      swap3\n      swap2\n      swap1\n      tag_22\n      swap1\n      tag_23\n      jump\t// in\n    tag_22:\n      swap2\n      swap1\n      pop\n      sstore\n      pop\n        /* \"Bank.sol\":575:582  balance */\n      0x00\n        /* \"Bank.sol\":575:594  balance[msg.sender] */\n      dup1\n        /* \"Bank.sol\":583:593  msg.sender */\n      caller\n        /* \"Bank.sol\":575:594  balance[msg.sender] */\n      0xffffffffffffffffffffffffffffffffffffffff\n      and\n      0xffffffffffffffffffffffffffffffffffffffff\n      and\n      dup2\n      mstore\n      0x20\n      add\n      swap1\n      dup2\n      mstore\n      0x20\n      add\n      0x00\n      keccak256\n      sload\n        /* \"Bank.sol\":568:594  return balance[msg.sender] */\n      swap1\n      pop\n        /* \"Bank.sol\":342:601  function openAccount() public payable returns(uint) {... */\n      swap1\n      jump\t// out\n        /* \"Bank.sol\":606:738  function depositMoney(address _to) public payable returns(uint){... */\n    tag_12:\n        /* \"Bank.sol\":664:668  uint */\n      0x00\n        /* \"Bank.sol\":693:702  msg.value */\n      callvalue\n        /* \"Bank.sol\":679:686  balance */\n      0x00\n        /* \"Bank.sol\":679:691  balance[_to] */\n      dup1\n        /* \"Bank.sol\":687:690  _to */\n      dup5\n        /* \"Bank.sol\":679:691  balance[_to] */\n      0xffffffffffffffffffffffffffffffffffffffff\n      and\n      0xffffffffffffffffffffffffffffffffffffffff\n      and\n      dup2\n      mstore\n      0x20\n      add\n      swap1\n      dup2\n      mstore\n      0x20\n      add\n      0x00\n      keccak256\n      0x00\n        /* \"Bank.sol\":679:702  balance[_to]+=msg.value */\n      dup3\n      dup3\n      sload\n      tag_25\n      swap2\n      swap1\n      tag_26\n      jump\t// in\n    tag_25:\n      swap3\n      pop\n      pop\n      dup2\n      swap1\n      sstore\n      pop\n        /* \"Bank.sol\":719:726  balance */\n      0x00\n        /* \"Bank.sol\":719:731  balance[_to] */\n      dup1\n        /* \"Bank.sol\":727:730  _to */\n      dup4\n        /* \"Bank.sol\":719:731  balance[_to] */\n      0xffffffffffffffffffffffffffffffffffffffff\n      and\n      0xffffffffffffffffffffffffffffffffffffffff\n      and\n      dup2\n      mstore\n      0x20\n      add\n      swap1\n      dup2\n      mstore\n      0x20\n      add\n      0x00\n      keccak256\n      sload\n        /* \"Bank.sol\":712:731  return balance[_to] */\n      swap1\n      pop\n        /* \"Bank.sol\":606:738  function depositMoney(address _to) public payable returns(uint){... */\n      swap2\n      swap1\n      pop\n      jump\t// out\n        /* \"Bank.sol\":743:1026  function withDrawMoney(uint withDrawAmount) public payable returns(uint){... */\n    tag_17:\n        /* \"Bank.sol\":810:814  uint */\n      0x00\n        /* \"Bank.sol\":846:853  balance */\n      dup1\n        /* \"Bank.sol\":846:865  balance[msg.sender] */\n      0x00\n        /* \"Bank.sol\":854:864  msg.sender */\n      caller\n        /* \"Bank.sol\":846:865  balance[msg.sender] */\n      0xffffffffffffffffffffffffffffffffffffffff\n      and\n      0xffffffffffffffffffffffffffffffffffffffff\n      and\n      dup2\n      mstore\n      0x20\n      add\n      swap1\n      dup2\n      mstore\n      0x20\n      add\n      0x00\n      keccak256\n      sload\n        /* \"Bank.sol\":828:842  withDrawAmount */\n      dup3\n        /* \"Bank.sol\":828:865  withDrawAmount <= balance[msg.sender] */\n      gt\n        /* \"Bank.sol\":825:984  if(withDrawAmount <= balance[msg.sender]){... */\n      tag_28\n      jumpi\n        /* \"Bank.sol\":901:915  withDrawAmount */\n      dup2\n        /* \"Bank.sol\":880:887  balance */\n      0x00\n        /* \"Bank.sol\":880:899  balance[msg.sender] */\n      dup1\n        /* \"Bank.sol\":888:898  msg.sender */\n      caller\n        /* \"Bank.sol\":880:899  balance[msg.sender] */\n      0xffffffffffffffffffffffffffffffffffffffff\n      and\n      0xffffffffffffffffffffffffffffffffffffffff\n      and\n      dup2\n      mstore\n      0x20\n      add\n      swap1\n      dup2\n      mstore\n      0x20\n      add\n      0x00\n      keccak256\n      0x00\n        /* \"Bank.sol\":880:915  balance[msg.sender]-=withDrawAmount */\n      dup3\n      dup3\n      sload\n      tag_29\n      swap2\n      swap1\n      tag_30\n      jump\t// in\n    tag_29:\n      swap3\n      pop\n      pop\n      dup2\n      swap1\n      sstore\n      pop\n        /* \"Bank.sol\":937:947  msg.sender */\n      caller\n        /* \"Bank.sol\":929:957  payable(msg.sender).transfer */\n      0xffffffffffffffffffffffffffffffffffffffff\n      and\n        /* \"Bank.sol\":929:973  payable(msg.sender).transfer(withDrawAmount) */\n      0x08fc\n        /* \"Bank.sol\":958:972  withDrawAmount */\n      dup4\n        /* \"Bank.sol\":929:973  payable(msg.sender).transfer(withDrawAmount) */\n      swap1\n      dup2\n      iszero\n      mul\n      swap1\n      mload(0x40)\n      0x00\n      mload(0x40)\n      dup1\n      dup4\n      sub\n      dup2\n      dup6\n      dup9\n      dup9\n      call\n      swap4\n      pop\n      pop\n      pop\n      pop\n      iszero\n      dup1\n      iszero\n      tag_32\n      jumpi\n      returndatasize\n      0x00\n      dup1\n      returndatacopy\n      revert(0x00, returndatasize)\n    tag_32:\n      pop\n        /* \"Bank.sol\":825:984  if(withDrawAmount <= balance[msg.sender]){... */\n    tag_28:\n        /* \"Bank.sol\":1000:1007  balance */\n      0x00\n        /* \"Bank.sol\":1000:1019  balance[msg.sender] */\n      dup1\n        /* \"Bank.sol\":1008:1018  msg.sender */\n      caller\n        /* \"Bank.sol\":1000:1019  balance[msg.sender] */\n      0xffffffffffffffffffffffffffffffffffffffff\n      and\n      0xffffffffffffffffffffffffffffffffffffffff\n      and\n      dup2\n      mstore\n      0x20\n      add\n      swap1\n      dup2\n      mstore\n      0x20\n      add\n      0x00\n      keccak256\n      sload\n        /* \"Bank.sol\":993:1019  return balance[msg.sender] */\n      swap1\n      pop\n        /* \"Bank.sol\":743:1026  function withDrawMoney(uint withDrawAmount) public payable returns(uint){... */\n      swap2\n      swap1\n      pop\n      jump\t// out\n        /* \"#utility.yul\":7:84   */\n    tag_33:\n        /* \"#utility.yul\":44:51   */\n      0x00\n        /* \"#utility.yul\":73:78   */\n      dup2\n        /* \"#utility.yul\":62:78   */\n      swap1\n      pop\n        /* \"#utility.yul\":7:84   */\n      swap2\n      swap1\n      pop\n      jump\t// out\n        /* \"#utility.yul\":90:208   */\n    tag_34:\n        /* \"#utility.yul\":177:201   */\n      tag_48\n        /* \"#utility.yul\":195:200   */\n      dup2\n        /* \"#utility.yul\":177:201   */\n      tag_33\n      jump\t// in\n    tag_48:\n        /* \"#utility.yul\":172:175   */\n      dup3\n        /* \"#utility.yul\":165:202   */\n      mstore\n        /* \"#utility.yul\":90:208   */\n      pop\n      pop\n      jump\t// out\n        /* \"#utility.yul\":214:436   */\n    tag_8:\n        /* \"#utility.yul\":307:311   */\n      0x00\n        /* \"#utility.yul\":345:347   */\n      0x20\n        /* \"#utility.yul\":334:343   */\n      dup3\n        /* \"#utility.yul\":330:348   */\n      add\n        /* \"#utility.yul\":322:348   */\n      swap1\n      pop\n        /* \"#utility.yul\":358:429   */\n      tag_50\n        /* \"#utility.yul\":426:427   */\n      0x00\n        /* \"#utility.yul\":415:424   */\n      dup4\n        /* \"#utility.yul\":411:428   */\n      add\n        /* \"#utility.yul\":402:408   */\n      dup5\n        /* \"#utility.yul\":358:429   */\n      tag_34\n      jump\t// in\n    tag_50:\n        /* \"#utility.yul\":214:436   */\n      swap3\n      swap2\n      pop\n      pop\n      jump\t// out\n        /* \"#utility.yul\":523:640   */\n    tag_36:\n        /* \"#utility.yul\":632:633   */\n      0x00\n        /* \"#utility.yul\":629:630   */\n      dup1\n        /* \"#utility.yul\":622:634   */\n      revert\n        /* \"#utility.yul\":769:895   */\n    tag_38:\n        /* \"#utility.yul\":806:813   */\n      0x00\n        /* \"#utility.yul\":846:888   */\n      0xffffffffffffffffffffffffffffffffffffffff\n        /* \"#utility.yul\":839:844   */\n      dup3\n        /* \"#utility.yul\":835:889   */\n      and\n        /* \"#utility.yul\":824:889   */\n      swap1\n      pop\n        /* \"#utility.yul\":769:895   */\n      swap2\n      swap1\n      pop\n      jump\t// out\n        /* \"#utility.yul\":901:997   */\n    tag_39:\n        /* \"#utility.yul\":938:945   */\n      0x00\n        /* \"#utility.yul\":967:991   */\n      tag_56\n        /* \"#utility.yul\":985:990   */\n      dup3\n        /* \"#utility.yul\":967:991   */\n      tag_38\n      jump\t// in\n    tag_56:\n        /* \"#utility.yul\":956:991   */\n      swap1\n      pop\n        /* \"#utility.yul\":901:997   */\n      swap2\n      swap1\n      pop\n      jump\t// out\n        /* \"#utility.yul\":1003:1125   */\n    tag_40:\n        /* \"#utility.yul\":1076:1100   */\n      tag_58\n        /* \"#utility.yul\":1094:1099   */\n      dup2\n        /* \"#utility.yul\":1076:1100   */\n      tag_39\n      jump\t// in\n    tag_58:\n        /* \"#utility.yul\":1069:1074   */\n      dup2\n        /* \"#utility.yul\":1066:1101   */\n      eq\n        /* \"#utility.yul\":1056:1119   */\n      tag_59\n      jumpi\n        /* \"#utility.yul\":1115:1116   */\n      0x00\n        /* \"#utility.yul\":1112:1113   */\n      dup1\n        /* \"#utility.yul\":1105:1117   */\n      revert\n        /* \"#utility.yul\":1056:1119   */\n    tag_59:\n        /* \"#utility.yul\":1003:1125   */\n      pop\n      jump\t// out\n        /* \"#utility.yul\":1131:1270   */\n    tag_41:\n        /* \"#utility.yul\":1177:1182   */\n      0x00\n        /* \"#utility.yul\":1215:1221   */\n      dup2\n        /* \"#utility.yul\":1202:1222   */\n      calldataload\n        /* \"#utility.yul\":1193:1222   */\n      swap1\n      pop\n        /* \"#utility.yul\":1231:1264   */\n      tag_61\n        /* \"#utility.yul\":1258:1263   */\n      dup2\n        /* \"#utility.yul\":1231:1264   */\n      tag_40\n      jump\t// in\n    tag_61:\n        /* \"#utility.yul\":1131:1270   */\n      swap3\n      swap2\n      pop\n      pop\n      jump\t// out\n        /* \"#utility.yul\":1276:1605   */\n    tag_11:\n        /* \"#utility.yul\":1335:1341   */\n      0x00\n        /* \"#utility.yul\":1384:1386   */\n      0x20\n        /* \"#utility.yul\":1372:1381   */\n      dup3\n        /* \"#utility.yul\":1363:1370   */\n      dup5\n        /* \"#utility.yul\":1359:1382   */\n      sub\n        /* \"#utility.yul\":1355:1387   */\n      slt\n        /* \"#utility.yul\":1352:1471   */\n      iszero\n      tag_63\n      jumpi\n        /* \"#utility.yul\":1390:1469   */\n      tag_64\n      tag_36\n      jump\t// in\n    tag_64:\n        /* \"#utility.yul\":1352:1471   */\n    tag_63:\n        /* \"#utility.yul\":1510:1511   */\n      0x00\n        /* \"#utility.yul\":1535:1588   */\n      tag_65\n        /* \"#utility.yul\":1580:1587   */\n      dup5\n        /* \"#utility.yul\":1571:1577   */\n      dup3\n        /* \"#utility.yul\":1560:1569   */\n      dup6\n        /* \"#utility.yul\":1556:1578   */\n      add\n        /* \"#utility.yul\":1535:1588   */\n      tag_41\n      jump\t// in\n    tag_65:\n        /* \"#utility.yul\":1525:1588   */\n      swap2\n      pop\n        /* \"#utility.yul\":1481:1598   */\n      pop\n        /* \"#utility.yul\":1276:1605   */\n      swap3\n      swap2\n      pop\n      pop\n      jump\t// out\n        /* \"#utility.yul\":1611:1733   */\n    tag_42:\n        /* \"#utility.yul\":1684:1708   */\n      tag_67\n        /* \"#utility.yul\":1702:1707   */\n      dup2\n        /* \"#utility.yul\":1684:1708   */\n      tag_33\n      jump\t// in\n    tag_67:\n        /* \"#utility.yul\":1677:1682   */\n      dup2\n        /* \"#utility.yul\":1674:1709   */\n      eq\n        /* \"#utility.yul\":1664:1727   */\n      tag_68\n      jumpi\n        /* \"#utility.yul\":1723:1724   */\n      0x00\n        /* \"#utility.yul\":1720:1721   */\n      dup1\n        /* \"#utility.yul\":1713:1725   */\n      revert\n        /* \"#utility.yul\":1664:1727   */\n    tag_68:\n        /* \"#utility.yul\":1611:1733   */\n      pop\n      jump\t// out\n        /* \"#utility.yul\":1739:1878   */\n    tag_43:\n        /* \"#utility.yul\":1785:1790   */\n      0x00\n        /* \"#utility.yul\":1823:1829   */\n      dup2\n        /* \"#utility.yul\":1810:1830   */\n      calldataload\n        /* \"#utility.yul\":1801:1830   */\n      swap1\n      pop\n        /* \"#utility.yul\":1839:1872   */\n      tag_70\n        /* \"#utility.yul\":1866:1871   */\n      dup2\n        /* \"#utility.yul\":1839:1872   */\n      tag_42\n      jump\t// in\n    tag_70:\n        /* \"#utility.yul\":1739:1878   */\n      swap3\n      swap2\n      pop\n      pop\n      jump\t// out\n        /* \"#utility.yul\":1884:2213   */\n    tag_16:\n        /* \"#utility.yul\":1943:1949   */\n      0x00\n        /* \"#utility.yul\":1992:1994   */\n      0x20\n        /* \"#utility.yul\":1980:1989   */\n      dup3\n        /* \"#utility.yul\":1971:1978   */\n      dup5\n        /* \"#utility.yul\":1967:1990   */\n      sub\n        /* \"#utility.yul\":1963:1995   */\n      slt\n        /* \"#utility.yul\":1960:2079   */\n      iszero\n      tag_72\n      jumpi\n        /* \"#utility.yul\":1998:2077   */\n      tag_73\n      tag_36\n      jump\t// in\n    tag_73:\n        /* \"#utility.yul\":1960:2079   */\n    tag_72:\n        /* \"#utility.yul\":2118:2119   */\n      0x00\n        /* \"#utility.yul\":2143:2196   */\n      tag_74\n        /* \"#utility.yul\":2188:2195   */\n      dup5\n        /* \"#utility.yul\":2179:2185   */\n      dup3\n        /* \"#utility.yul\":2168:2177   */\n      dup6\n        /* \"#utility.yul\":2164:2186   */\n      add\n        /* \"#utility.yul\":2143:2196   */\n      tag_43\n      jump\t// in\n    tag_74:\n        /* \"#utility.yul\":2133:2196   */\n      swap2\n      pop\n        /* \"#utility.yul\":2089:2206   */\n      pop\n        /* \"#utility.yul\":1884:2213   */\n      swap3\n      swap2\n      pop\n      pop\n      jump\t// out\n        /* \"#utility.yul\":2219:2399   */\n    tag_44:\n        /* \"#utility.yul\":2267:2344   */\n      0x4e487b7100000000000000000000000000000000000000000000000000000000\n        /* \"#utility.yul\":2264:2265   */\n      0x00\n        /* \"#utility.yul\":2257:2345   */\n      mstore\n        /* \"#utility.yul\":2364:2368   */\n      0x11\n        /* \"#utility.yul\":2361:2362   */\n      0x04\n        /* \"#utility.yul\":2354:2369   */\n      mstore\n        /* \"#utility.yul\":2388:2392   */\n      0x24\n        /* \"#utility.yul\":2385:2386   */\n      0x00\n        /* \"#utility.yul\":2378:2393   */\n      revert\n        /* \"#utility.yul\":2405:2638   */\n    tag_23:\n        /* \"#utility.yul\":2444:2447   */\n      0x00\n        /* \"#utility.yul\":2467:2491   */\n      tag_77\n        /* \"#utility.yul\":2485:2490   */\n      dup3\n        /* \"#utility.yul\":2467:2491   */\n      tag_33\n      jump\t// in\n    tag_77:\n        /* \"#utility.yul\":2458:2491   */\n      swap2\n      pop\n        /* \"#utility.yul\":2513:2579   */\n      0xffffffffffffffffffffffffffffffffffffffffffffffffffffffffffffffff\n        /* \"#utility.yul\":2506:2511   */\n      dup3\n        /* \"#utility.yul\":2503:2580   */\n      eq\n        /* \"#utility.yul\":2500:2603   */\n      iszero\n      tag_78\n      jumpi\n        /* \"#utility.yul\":2583:2601   */\n      tag_79\n      tag_44\n      jump\t// in\n    tag_79:\n        /* \"#utility.yul\":2500:2603   */\n    tag_78:\n        /* \"#utility.yul\":2630:2631   */\n      0x01\n        /* \"#utility.yul\":2623:2628   */\n      dup3\n        /* \"#utility.yul\":2619:2632   */\n      add\n        /* \"#utility.yul\":2612:2632   */\n      swap1\n      pop\n        /* \"#utility.yul\":2405:2638   */\n      swap2\n      swap1\n      pop\n      jump\t// out\n        /* \"#utility.yul\":2644:2949   */\n    tag_26:\n        /* \"#utility.yul\":2684:2687   */\n      0x00\n        /* \"#utility.yul\":2703:2723   */\n      tag_81\n        /* \"#utility.yul\":2721:2722   */\n      dup3\n        /* \"#utility.yul\":2703:2723   */\n      tag_33\n      jump\t// in\n    tag_81:\n        /* \"#utility.yul\":2698:2723   */\n      swap2\n      pop\n        /* \"#utility.yul\":2737:2757   */\n      tag_82\n        /* \"#utility.yul\":2755:2756   */\n      dup4\n        /* \"#utility.yul\":2737:2757   */\n      tag_33\n      jump\t// in\n    tag_82:\n        /* \"#utility.yul\":2732:2757   */\n      swap3\n      pop\n        /* \"#utility.yul\":2891:2892   */\n      dup3\n        /* \"#utility.yul\":2823:2889   */\n      0xffffffffffffffffffffffffffffffffffffffffffffffffffffffffffffffff\n        /* \"#utility.yul\":2819:2893   */\n      sub\n        /* \"#utility.yul\":2816:2817   */\n      dup3\n        /* \"#utility.yul\":2813:2894   */\n      gt\n        /* \"#utility.yul\":2810:2917   */\n      iszero\n      tag_83\n      jumpi\n        /* \"#utility.yul\":2897:2915   */\n      tag_84\n      tag_44\n      jump\t// in\n    tag_84:\n        /* \"#utility.yul\":2810:2917   */\n    tag_83:\n        /* \"#utility.yul\":2941:2942   */\n      dup3\n        /* \"#utility.yul\":2938:2939   */\n      dup3\n        /* \"#utility.yul\":2934:2943   */\n      add\n        /* \"#utility.yul\":2927:2943   */\n      swap1\n      pop\n        /* \"#utility.yul\":2644:2949   */\n      swap3\n      swap2\n      pop\n      pop\n      jump\t// out\n        /* \"#utility.yul\":2955:3146   */\n    tag_30:\n        /* \"#utility.yul\":2995:2999   */\n      0x00\n        /* \"#utility.yul\":3015:3035   */\n      tag_86\n        /* \"#utility.yul\":3033:3034   */\n      dup3\n        /* \"#utility.yul\":3015:3035   */\n      tag_33\n      jump\t// in\n    tag_86:\n        /* \"#utility.yul\":3010:3035   */\n      swap2\n      pop\n        /* \"#utility.yul\":3049:3069   */\n      tag_87\n        /* \"#utility.yul\":3067:3068   */\n      dup4\n        /* \"#utility.yul\":3049:3069   */\n      tag_33\n      jump\t// in\n    tag_87:\n        /* \"#utility.yul\":3044:3069   */\n      swap3\n      pop\n        /* \"#utility.yul\":3088:3089   */\n      dup3\n        /* \"#utility.yul\":3085:3086   */\n      dup3\n        /* \"#utility.yul\":3082:3090   */\n      lt\n        /* \"#utility.yul\":3079:3113   */\n      iszero\n      tag_88\n      jumpi\n        /* \"#utility.yul\":3093:3111   */\n      tag_89\n      tag_44\n      jump\t// in\n    tag_89:\n        /* \"#utility.yul\":3079:3113   */\n    tag_88:\n        /* \"#utility.yul\":3138:3139   */\n      dup3\n        /* \"#utility.yul\":3135:3136   */\n      dup3\n        /* \"#utility.yul\":3131:3140   */\n      sub\n        /* \"#utility.yul\":3123:3140   */\n      swap1\n      pop\n        /* \"#utility.yul\":2955:3146   */\n      swap3\n      swap2\n      pop\n      pop\n      jump\t// out\n\n    auxdata: 0xa2646970667358221220f6e35f9ecf0788a007fff3e1b2be0597a9398279423cd68c74cf6b533590c20464736f6c63430008080033\n}\n",
				"bytecode": {
					"linkReferences": {},
					"object": "608060405267d02ab486cedc0000341461004e576040517f08c379a000000000000000000000000000000000000000000000000000000000815260040161004590610117565b60405180910390fd5b33600260006101000a81548173ffffffffffffffffffffffffffffffffffffffff021916908373ffffffffffffffffffffffffffffffffffffffff160217905550610137565b600082825260208201905092915050565b7f496e697469616c20313520657468657220726571756972656420666f7220636f60008201527f6e747261637420746f2072756e00000000000000000000000000000000000000602082015250565b6000610101602d83610094565b915061010c826100a5565b604082019050919050565b60006020820190508181036000830152610130816100f4565b9050919050565b6105d0806101466000396000f3fe6080604052600436106100345760003560e01c8063292eb75d146100395780634a68533f14610057578063827cc45214610087575b600080fd5b6100416100b7565b60405161004e9190610394565b60405180910390f35b610071600480360381019061006c9190610412565b6101b4565b60405161007e9190610394565b60405180910390f35b6100a1600480360381019061009c919061046b565b610251565b6040516100ae9190610394565b60405180910390f35b600060036001541161011357674563918244f400006000803373ffffffffffffffffffffffffffffffffffffffff1673ffffffffffffffffffffffffffffffffffffffff16815260200190815260200160002081905550610158565b60008060003373ffffffffffffffffffffffffffffffffffffffff1673ffffffffffffffffffffffffffffffffffffffff168152602001908152602001600020819055505b6001600081548092919061016b906104c7565b91905055506000803373ffffffffffffffffffffffffffffffffffffffff1673ffffffffffffffffffffffffffffffffffffffff16815260200190815260200160002054905090565b6000346000808473ffffffffffffffffffffffffffffffffffffffff1673ffffffffffffffffffffffffffffffffffffffff16815260200190815260200160002060008282546102049190610510565b925050819055506000808373ffffffffffffffffffffffffffffffffffffffff1673ffffffffffffffffffffffffffffffffffffffff168152602001908152602001600020549050919050565b60008060003373ffffffffffffffffffffffffffffffffffffffff1673ffffffffffffffffffffffffffffffffffffffff16815260200190815260200160002054821161033557816000803373ffffffffffffffffffffffffffffffffffffffff1673ffffffffffffffffffffffffffffffffffffffff16815260200190815260200160002060008282546102e69190610566565b925050819055503373ffffffffffffffffffffffffffffffffffffffff166108fc839081150290604051600060405180830381858888f19350505050158015610333573d6000803e3d6000fd5b505b6000803373ffffffffffffffffffffffffffffffffffffffff1673ffffffffffffffffffffffffffffffffffffffff168152602001908152602001600020549050919050565b6000819050919050565b61038e8161037b565b82525050565b60006020820190506103a96000830184610385565b92915050565b600080fd5b600073ffffffffffffffffffffffffffffffffffffffff82169050919050565b60006103df826103b4565b9050919050565b6103ef816103d4565b81146103fa57600080fd5b50565b60008135905061040c816103e6565b92915050565b600060208284031215610428576104276103af565b5b6000610436848285016103fd565b91505092915050565b6104488161037b565b811461045357600080fd5b50565b6000813590506104658161043f565b92915050565b600060208284031215610481576104806103af565b5b600061048f84828501610456565b91505092915050565b7f4e487b7100000000000000000000000000000000000000000000000000000000600052601160045260246000fd5b60006104d28261037b565b91507fffffffffffffffffffffffffffffffffffffffffffffffffffffffffffffffff82141561050557610504610498565b5b600182019050919050565b600061051b8261037b565b91506105268361037b565b9250827fffffffffffffffffffffffffffffffffffffffffffffffffffffffffffffffff0382111561055b5761055a610498565b5b828201905092915050565b60006105718261037b565b915061057c8361037b565b92508282101561058f5761058e610498565b5b82820390509291505056fea2646970667358221220f6e35f9ecf0788a007fff3e1b2be0597a9398279423cd68c74cf6b533590c20464736f6c63430008080033",
					"opcodes": "PUSH1 0x80 PUSH1 0x40 MSTORE PUSH8 0xD02AB486CEDC0000 CALLVALUE EQ PUSH2 0x4E JUMPI PUSH1 0x40 MLOAD PUSH32 0x8C379A000000000000000000000000000000000000000000000000000000000 DUP2 MSTORE PUSH1 0x4 ADD PUSH2 0x45 SWAP1 PUSH2 0x117 JUMP JUMPDEST PUSH1 0x40 MLOAD DUP1 SWAP2 SUB SWAP1 REVERT JUMPDEST CALLER PUSH1 0x2 PUSH1 0x0 PUSH2 0x100 EXP DUP2 SLOAD DUP2 PUSH20 0xFFFFFFFFFFFFFFFFFFFFFFFFFFFFFFFFFFFFFFFF MUL NOT AND SWAP1 DUP4 PUSH20 0xFFFFFFFFFFFFFFFFFFFFFFFFFFFFFFFFFFFFFFFF AND MUL OR SWAP1 SSTORE POP PUSH2 0x137 JUMP JUMPDEST PUSH1 0x0 DUP3 DUP3 MSTORE PUSH1 0x20 DUP3 ADD SWAP1 POP SWAP3 SWAP2 POP POP JUMP JUMPDEST PUSH32 0x496E697469616C20313520657468657220726571756972656420666F7220636F PUSH1 0x0 DUP3 ADD MSTORE PUSH32 0x6E747261637420746F2072756E00000000000000000000000000000000000000 PUSH1 0x20 DUP3 ADD MSTORE POP JUMP JUMPDEST PUSH1 0x0 PUSH2 0x101 PUSH1 0x2D DUP4 PUSH2 0x94 JUMP JUMPDEST SWAP2 POP PUSH2 0x10C DUP3 PUSH2 0xA5 JUMP JUMPDEST PUSH1 0x40 DUP3 ADD SWAP1 POP SWAP2 SWAP1 POP JUMP JUMPDEST PUSH1 0x0 PUSH1 0x20 DUP3 ADD SWAP1 POP DUP2 DUP2 SUB PUSH1 0x0 DUP4 ADD MSTORE PUSH2 0x130 DUP2 PUSH2 0xF4 JUMP JUMPDEST SWAP1 POP SWAP2 SWAP1 POP JUMP JUMPDEST PUSH2 0x5D0 DUP1 PUSH2 0x146 PUSH1 0x0 CODECOPY PUSH1 0x0 RETURN INVALID PUSH1 0x80 PUSH1 0x40 MSTORE PUSH1 0x4 CALLDATASIZE LT PUSH2 0x34 JUMPI PUSH1 0x0 CALLDATALOAD PUSH1 0xE0 SHR DUP1 PUSH4 0x292EB75D EQ PUSH2 0x39 JUMPI DUP1 PUSH4 0x4A68533F EQ PUSH2 0x57 JUMPI DUP1 PUSH4 0x827CC452 EQ PUSH2 0x87 JUMPI JUMPDEST PUSH1 0x0 DUP1 REVERT JUMPDEST PUSH2 0x41 PUSH2 0xB7 JUMP JUMPDEST PUSH1 0x40 MLOAD PUSH2 0x4E SWAP2 SWAP1 PUSH2 0x394 JUMP JUMPDEST PUSH1 0x40 MLOAD DUP1 SWAP2 SUB SWAP1 RETURN JUMPDEST PUSH2 0x71 PUSH1 0x4 DUP1 CALLDATASIZE SUB DUP2 ADD SWAP1 PUSH2 0x6C SWAP2 SWAP1 PUSH2 0x412 JUMP JUMPDEST PUSH2 0x1B4 JUMP JUMPDEST PUSH1 0x40 MLOAD PUSH2 0x7E SWAP2 SWAP1 PUSH2 0x394 JUMP JUMPDEST PUSH1 0x40 MLOAD DUP1 SWAP2 SUB SWAP1 RETURN JUMPDEST PUSH2 0xA1 PUSH1 0x4 DUP1 CALLDATASIZE SUB DUP2 ADD SWAP1 PUSH2 0x9C SWAP2 SWAP1 PUSH2 0x46B JUMP JUMPDEST PUSH2 0x251 JUMP JUMPDEST PUSH1 0x40 MLOAD PUSH2 0xAE SWAP2 SWAP1 PUSH2 0x394 JUMP JUMPDEST PUSH1 0x40 MLOAD DUP1 SWAP2 SUB SWAP1 RETURN JUMPDEST PUSH1 0x0 PUSH1 0x3 PUSH1 0x1 SLOAD GT PUSH2 0x113 JUMPI PUSH8 0x4563918244F40000 PUSH1 0x0 DUP1 CALLER PUSH20 0xFFFFFFFFFFFFFFFFFFFFFFFFFFFFFFFFFFFFFFFF AND PUSH20 0xFFFFFFFFFFFFFFFFFFFFFFFFFFFFFFFFFFFFFFFF AND DUP2 MSTORE PUSH1 0x20 ADD SWAP1 DUP2 MSTORE PUSH1 0x20 ADD PUSH1 0x0 KECCAK256 DUP2 SWAP1 SSTORE POP PUSH2 0x158 JUMP JUMPDEST PUSH1 0x0 DUP1 PUSH1 0x0 CALLER PUSH20 0xFFFFFFFFFFFFFFFFFFFFFFFFFFFFFFFFFFFFFFFF AND PUSH20 0xFFFFFFFFFFFFFFFFFFFFFFFFFFFFFFFFFFFFFFFF AND DUP2 MSTORE PUSH1 0x20 ADD SWAP1 DUP2 MSTORE PUSH1 0x20 ADD PUSH1 0x0 KECCAK256 DUP2 SWAP1 SSTORE POP JUMPDEST PUSH1 0x1 PUSH1 0x0 DUP2 SLOAD DUP1 SWAP3 SWAP2 SWAP1 PUSH2 0x16B SWAP1 PUSH2 0x4C7 JUMP JUMPDEST SWAP2 SWAP1 POP SSTORE POP PUSH1 0x0 DUP1 CALLER PUSH20 0xFFFFFFFFFFFFFFFFFFFFFFFFFFFFFFFFFFFFFFFF AND PUSH20 0xFFFFFFFFFFFFFFFFFFFFFFFFFFFFFFFFFFFFFFFF AND DUP2 MSTORE PUSH1 0x20 ADD SWAP1 DUP2 MSTORE PUSH1 0x20 ADD PUSH1 0x0 KECCAK256 SLOAD SWAP1 POP SWAP1 JUMP JUMPDEST PUSH1 0x0 CALLVALUE PUSH1 0x0 DUP1 DUP5 PUSH20 0xFFFFFFFFFFFFFFFFFFFFFFFFFFFFFFFFFFFFFFFF AND PUSH20 0xFFFFFFFFFFFFFFFFFFFFFFFFFFFFFFFFFFFFFFFF AND DUP2 MSTORE PUSH1 0x20 ADD SWAP1 DUP2 MSTORE PUSH1 0x20 ADD PUSH1 0x0 KECCAK256 PUSH1 0x0 DUP3 DUP3 SLOAD PUSH2 0x204 SWAP2 SWAP1 PUSH2 0x510 JUMP JUMPDEST SWAP3 POP POP DUP2 SWAP1 SSTORE POP PUSH1 0x0 DUP1 DUP4 PUSH20 0xFFFFFFFFFFFFFFFFFFFFFFFFFFFFFFFFFFFFFFFF AND PUSH20 0xFFFFFFFFFFFFFFFFFFFFFFFFFFFFFFFFFFFFFFFF AND DUP2 MSTORE PUSH1 0x20 ADD SWAP1 DUP2 MSTORE PUSH1 0x20 ADD PUSH1 0x0 KECCAK256 SLOAD SWAP1 POP SWAP2 SWAP1 POP JUMP JUMPDEST PUSH1 0x0 DUP1 PUSH1 0x0 CALLER PUSH20 0xFFFFFFFFFFFFFFFFFFFFFFFFFFFFFFFFFFFFFFFF AND PUSH20 0xFFFFFFFFFFFFFFFFFFFFFFFFFFFFFFFFFFFFFFFF AND DUP2 MSTORE PUSH1 0x20 ADD SWAP1 DUP2 MSTORE PUSH1 0x20 ADD PUSH1 0x0 KECCAK256 SLOAD DUP3 GT PUSH2 0x335 JUMPI DUP2 PUSH1 0x0 DUP1 CALLER PUSH20 0xFFFFFFFFFFFFFFFFFFFFFFFFFFFFFFFFFFFFFFFF AND PUSH20 0xFFFFFFFFFFFFFFFFFFFFFFFFFFFFFFFFFFFFFFFF AND DUP2 MSTORE PUSH1 0x20 ADD SWAP1 DUP2 MSTORE PUSH1 0x20 ADD PUSH1 0x0 KECCAK256 PUSH1 0x0 DUP3 DUP3 SLOAD PUSH2 0x2E6 SWAP2 SWAP1 PUSH2 0x566 JUMP JUMPDEST SWAP3 POP POP DUP2 SWAP1 SSTORE POP CALLER PUSH20 0xFFFFFFFFFFFFFFFFFFFFFFFFFFFFFFFFFFFFFFFF AND PUSH2 0x8FC DUP4 SWAP1 DUP2 ISZERO MUL SWAP1 PUSH1 0x40 MLOAD PUSH1 0x0 PUSH1 0x40 MLOAD DUP1 DUP4 SUB DUP2 DUP6 DUP9 DUP9 CALL SWAP4 POP POP POP POP ISZERO DUP1 ISZERO PUSH2 0x333 JUMPI RETURNDATASIZE PUSH1 0x0 DUP1 RETURNDATACOPY RETURNDATASIZE PUSH1 0x0 REVERT JUMPDEST POP JUMPDEST PUSH1 0x0 DUP1 CALLER PUSH20 0xFFFFFFFFFFFFFFFFFFFFFFFFFFFFFFFFFFFFFFFF AND PUSH20 0xFFFFFFFFFFFFFFFFFFFFFFFFFFFFFFFFFFFFFFFF AND DUP2 MSTORE PUSH1 0x20 ADD SWAP1 DUP2 MSTORE PUSH1 0x20 ADD PUSH1 0x0 KECCAK256 SLOAD SWAP1 POP SWAP2 SWAP1 POP JUMP JUMPDEST PUSH1 0x0 DUP2 SWAP1 POP SWAP2 SWAP1 POP JUMP JUMPDEST PUSH2 0x38E DUP2 PUSH2 0x37B JUMP JUMPDEST DUP3 MSTORE POP POP JUMP JUMPDEST PUSH1 0x0 PUSH1 0x20 DUP3 ADD SWAP1 POP PUSH2 0x3A9 PUSH1 0x0 DUP4 ADD DUP5 PUSH2 0x385 JUMP JUMPDEST SWAP3 SWAP2 POP POP JUMP JUMPDEST PUSH1 0x0 DUP1 REVERT JUMPDEST PUSH1 0x0 PUSH20 0xFFFFFFFFFFFFFFFFFFFFFFFFFFFFFFFFFFFFFFFF DUP3 AND SWAP1 POP SWAP2 SWAP1 POP JUMP JUMPDEST PUSH1 0x0 PUSH2 0x3DF DUP3 PUSH2 0x3B4 JUMP JUMPDEST SWAP1 POP SWAP2 SWAP1 POP JUMP JUMPDEST PUSH2 0x3EF DUP2 PUSH2 0x3D4 JUMP JUMPDEST DUP2 EQ PUSH2 0x3FA JUMPI PUSH1 0x0 DUP1 REVERT JUMPDEST POP JUMP JUMPDEST PUSH1 0x0 DUP2 CALLDATALOAD SWAP1 POP PUSH2 0x40C DUP2 PUSH2 0x3E6 JUMP JUMPDEST SWAP3 SWAP2 POP POP JUMP JUMPDEST PUSH1 0x0 PUSH1 0x20 DUP3 DUP5 SUB SLT ISZERO PUSH2 0x428 JUMPI PUSH2 0x427 PUSH2 0x3AF JUMP JUMPDEST JUMPDEST PUSH1 0x0 PUSH2 0x436 DUP5 DUP3 DUP6 ADD PUSH2 0x3FD JUMP JUMPDEST SWAP2 POP POP SWAP3 SWAP2 POP POP JUMP JUMPDEST PUSH2 0x448 DUP2 PUSH2 0x37B JUMP JUMPDEST DUP2 EQ PUSH2 0x453 JUMPI PUSH1 0x0 DUP1 REVERT JUMPDEST POP JUMP JUMPDEST PUSH1 0x0 DUP2 CALLDATALOAD SWAP1 POP PUSH2 0x465 DUP2 PUSH2 0x43F JUMP JUMPDEST SWAP3 SWAP2 POP POP JUMP JUMPDEST PUSH1 0x0 PUSH1 0x20 DUP3 DUP5 SUB SLT ISZERO PUSH2 0x481 JUMPI PUSH2 0x480 PUSH2 0x3AF JUMP JUMPDEST JUMPDEST PUSH1 0x0 PUSH2 0x48F DUP5 DUP3 DUP6 ADD PUSH2 0x456 JUMP JUMPDEST SWAP2 POP POP SWAP3 SWAP2 POP POP JUMP JUMPDEST PUSH32 0x4E487B7100000000000000000000000000000000000000000000000000000000 PUSH1 0x0 MSTORE PUSH1 0x11 PUSH1 0x4 MSTORE PUSH1 0x24 PUSH1 0x0 REVERT JUMPDEST PUSH1 0x0 PUSH2 0x4D2 DUP3 PUSH2 0x37B JUMP JUMPDEST SWAP2 POP PUSH32 0xFFFFFFFFFFFFFFFFFFFFFFFFFFFFFFFFFFFFFFFFFFFFFFFFFFFFFFFFFFFFFFFF DUP3 EQ ISZERO PUSH2 0x505 JUMPI PUSH2 0x504 PUSH2 0x498 JUMP JUMPDEST JUMPDEST PUSH1 0x1 DUP3 ADD SWAP1 POP SWAP2 SWAP1 POP JUMP JUMPDEST PUSH1 0x0 PUSH2 0x51B DUP3 PUSH2 0x37B JUMP JUMPDEST SWAP2 POP PUSH2 0x526 DUP4 PUSH2 0x37B JUMP JUMPDEST SWAP3 POP DUP3 PUSH32 0xFFFFFFFFFFFFFFFFFFFFFFFFFFFFFFFFFFFFFFFFFFFFFFFFFFFFFFFFFFFFFFFF SUB DUP3 GT ISZERO PUSH2 0x55B JUMPI PUSH2 0x55A PUSH2 0x498 JUMP JUMPDEST JUMPDEST DUP3 DUP3 ADD SWAP1 POP SWAP3 SWAP2 POP POP JUMP JUMPDEST PUSH1 0x0 PUSH2 0x571 DUP3 PUSH2 0x37B JUMP JUMPDEST SWAP2 POP PUSH2 0x57C DUP4 PUSH2 0x37B JUMP JUMPDEST SWAP3 POP DUP3 DUP3 LT ISZERO PUSH2 0x58F JUMPI PUSH2 0x58E PUSH2 0x498 JUMP JUMPDEST JUMPDEST DUP3 DUP3 SUB SWAP1 POP SWAP3 SWAP2 POP POP JUMP INVALID LOG2 PUSH5 0x6970667358 0x22 SLT KECCAK256 0xF6 0xE3 0x5F SWAP15 0xCF SMOD DUP9 LOG0 SMOD SELFDESTRUCT RETURN 0xE1 0xB2 0xBE SDIV SWAP8 0xA9 CODECOPY DUP3 PUSH26 0x423CD68C74CF6B533590C20464736F6C63430008080033000000 "
				},
				"gasEstimates": {
					"creation": {
						"codeDepositCost": "297600",
						"executionCost": "24613",
						"totalCost": "322213"
					},
					"external": {
						"depositMoney(address)": "infinite",
						"openAccount()": "infinite",
						"withDrawMoney(uint256)": "infinite"
					}
				},
				"methodIdentifiers": {
					"depositMoney(address)": "4a68533f",
					"openAccount()": "292eb75d",
					"withDrawMoney(uint256)": "827cc452"
				}
			},
			"storageLayout": {
				"storage": [
					{
						"astId": 5,
						"contract": "Bank.sol:Bank",
						"label": "balance",
						"offset": 0,
						"slot": "0",
						"type": "t_mapping(t_address,t_uint256)"
					},
					{
						"astId": 7,
						"contract": "Bank.sol:Bank",
						"label": "userCount",
						"offset": 0,
						"slot": "1",
						"type": "t_uint256"
					},
					{
						"astId": 9,
						"contract": "Bank.sol:Bank",
						"label": "owner",
						"offset": 0,
						"slot": "2",
						"type": "t_address"
					}
				],
				"types": {
					"t_address": {
						"encoding": "inplace",
						"label": "address",
						"numberOfBytes": "20"
					},
					"t_mapping(t_address,t_uint256)": {
						"encoding": "mapping",
						"key": "t_address",
						"label": "mapping(address => uint256)",
						"numberOfBytes": "32",
						"value": "t_uint256"
					},
					"t_uint256": {
						"encoding": "inplace",
						"label": "uint256",
						"numberOfBytes": "32"
					}
				}
			},
			"userdoc": {
				"kind": "user",
				"methods": {},
				"version": 1
			}
		}
	}
}