{
	"ActualBank.sol": {
		"ActualBank": {
			"abi": [
				{
					"inputs": [],
					"stateMutability": "nonpayable",
					"type": "constructor"
				},
				{
					"inputs": [
						{
							"internalType": "address",
							"name": "benificiaryAccount",
							"type": "address"
						}
					],
					"name": "deposit",
					"outputs": [
						{
							"internalType": "uint256",
							"name": "",
							"type": "uint256"
						}
					],
					"stateMutability": "payable",
					"type": "function"
				},
				{
					"inputs": [],
					"name": "getTotalBankBalance",
					"outputs": [
						{
							"internalType": "uint256",
							"name": "",
							"type": "uint256"
						}
					],
					"stateMutability": "view",
					"type": "function"
				},
				{
					"inputs": [
						{
							"internalType": "uint256",
							"name": "_secretKey",
							"type": "uint256"
						}
					],
					"name": "openAccount",
					"outputs": [
						{
							"internalType": "uint256",
							"name": "",
							"type": "uint256"
						}
					],
					"stateMutability": "payable",
					"type": "function"
				},
				{
					"inputs": [
						{
							"internalType": "address",
							"name": "_from",
							"type": "address"
						},
						{
							"internalType": "address",
							"name": "_to",
							"type": "address"
						}
					],
					"name": "transfer",
					"outputs": [
						{
							"internalType": "bool",
							"name": "",
							"type": "bool"
						}
					],
					"stateMutability": "payable",
					"type": "function"
				},
				{
					"inputs": [
						{
							"internalType": "uint256",
							"name": "_secretKey",
							"type": "uint256"
						}
					],
					"name": "withDraw",
					"outputs": [
						{
							"internalType": "uint256",
							"name": "",
							"type": "uint256"
						}
					],
					"stateMutability": "payable",
					"type": "function"
				}
			],
			"devdoc": {
				"kind": "dev",
				"methods": {},
				"version": 1
			},
			"evm": {
				"assembly": "    /* \"ActualBank.sol\":57:1600  contract ActualBank{... */\n  mstore(0x40, 0x80)\n    /* \"ActualBank.sol\":105:112  1 ether */\n  0x0de0b6b3a7640000\n    /* \"ActualBank.sol\":82:112  uint minAccountBalance=1 ether */\n  0x00\n  sstore\n    /* \"ActualBank.sol\":231:286  constructor(){... */\n  callvalue\n  dup1\n  iszero\n  tag_1\n  jumpi\n  0x00\n  dup1\n  revert\ntag_1:\n  pop\n    /* \"ActualBank.sol\":268:278  msg.sender */\n  caller\n    /* \"ActualBank.sol\":254:259  owner */\n  0x01\n  0x00\n    /* \"ActualBank.sol\":254:279  owner=payable(msg.sender) */\n  0x0100\n  exp\n  dup2\n  sload\n  dup2\n  0xffffffffffffffffffffffffffffffffffffffff\n  mul\n  not\n  and\n  swap1\n  dup4\n  0xffffffffffffffffffffffffffffffffffffffff\n  and\n  mul\n  or\n  swap1\n  sstore\n  pop\n    /* \"ActualBank.sol\":57:1600  contract ActualBank{... */\n  dataSize(sub_0)\n  dup1\n  dataOffset(sub_0)\n  0x00\n  codecopy\n  0x00\n  return\nstop\n\nsub_0: assembly {\n        /* \"ActualBank.sol\":57:1600  contract ActualBank{... */\n      mstore(0x40, 0x80)\n      jumpi(tag_1, lt(calldatasize, 0x04))\n      shr(0xe0, calldataload(0x00))\n      dup1\n      0x1000420d\n      eq\n      tag_2\n      jumpi\n      dup1\n      0x14174f33\n      eq\n      tag_3\n      jumpi\n      dup1\n      0x38a2ca40\n      eq\n      tag_4\n      jumpi\n      dup1\n      0xba45b0b8\n      eq\n      tag_5\n      jumpi\n      dup1\n      0xf340fa01\n      eq\n      tag_6\n      jumpi\n    tag_1:\n      0x00\n      dup1\n      revert\n        /* \"ActualBank.sol\":292:581  function openAccount(uint256 _secretKey) payable public returns(uint256) {... */\n    tag_2:\n      tag_7\n      0x04\n      dup1\n      calldatasize\n      sub\n      dup2\n      add\n      swap1\n      tag_8\n      swap2\n      swap1\n      tag_9\n      jump\t// in\n    tag_8:\n      tag_10\n      jump\t// in\n    tag_7:\n      mload(0x40)\n      tag_11\n      swap2\n      swap1\n      tag_12\n      jump\t// in\n    tag_11:\n      mload(0x40)\n      dup1\n      swap2\n      sub\n      swap1\n      return\n        /* \"ActualBank.sol\":820:1202  function withDraw(uint256 _secretKey) payable public returns(uint256) {... */\n    tag_3:\n      tag_13\n      0x04\n      dup1\n      calldatasize\n      sub\n      dup2\n      add\n      swap1\n      tag_14\n      swap2\n      swap1\n      tag_9\n      jump\t// in\n    tag_14:\n      tag_15\n      jump\t// in\n    tag_13:\n      mload(0x40)\n      tag_16\n      swap2\n      swap1\n      tag_12\n      jump\t// in\n    tag_16:\n      mload(0x40)\n      dup1\n      swap2\n      sub\n      swap1\n      return\n        /* \"ActualBank.sol\":1415:1598  function getTotalBankBalance() public view returns(uint256){... */\n    tag_4:\n      callvalue\n      dup1\n      iszero\n      tag_17\n      jumpi\n      0x00\n      dup1\n      revert\n    tag_17:\n      pop\n      tag_18\n      tag_19\n      jump\t// in\n    tag_18:\n      mload(0x40)\n      tag_20\n      swap2\n      swap1\n      tag_12\n      jump\t// in\n    tag_20:\n      mload(0x40)\n      dup1\n      swap2\n      sub\n      swap1\n      return\n        /* \"ActualBank.sol\":1207:1410  function transfer(address _from, address _to) public payable returns(bool){... */\n    tag_5:\n      tag_21\n      0x04\n      dup1\n      calldatasize\n      sub\n      dup2\n      add\n      swap1\n      tag_22\n      swap2\n      swap1\n      tag_23\n      jump\t// in\n    tag_22:\n      tag_24\n      jump\t// in\n    tag_21:\n      mload(0x40)\n      tag_25\n      swap2\n      swap1\n      tag_26\n      jump\t// in\n    tag_25:\n      mload(0x40)\n      dup1\n      swap2\n      sub\n      swap1\n      return\n        /* \"ActualBank.sol\":588:814  function deposit(address benificiaryAccount) payable public returns(uint256){... */\n    tag_6:\n      tag_27\n      0x04\n      dup1\n      calldatasize\n      sub\n      dup2\n      add\n      swap1\n      tag_28\n      swap2\n      swap1\n      tag_29\n      jump\t// in\n    tag_28:\n      tag_30\n      jump\t// in\n    tag_27:\n      mload(0x40)\n      tag_31\n      swap2\n      swap1\n      tag_12\n      jump\t// in\n    tag_31:\n      mload(0x40)\n      dup1\n      swap2\n      sub\n      swap1\n      return\n        /* \"ActualBank.sol\":292:581  function openAccount(uint256 _secretKey) payable public returns(uint256) {... */\n    tag_10:\n        /* \"ActualBank.sol\":356:363  uint256 */\n      0x00\n        /* \"ActualBank.sol\":396:413  minAccountBalance */\n      dup1\n      sload\n        /* \"ActualBank.sol\":383:392  msg.value */\n      callvalue\n        /* \"ActualBank.sol\":383:413  msg.value >= minAccountBalance */\n      lt\n      iszero\n        /* \"ActualBank.sol\":375:456  require(msg.value >= minAccountBalance,\"There must a minimum balance of 1 ether\") */\n      tag_33\n      jumpi\n      mload(0x40)\n      0x08c379a000000000000000000000000000000000000000000000000000000000\n      dup2\n      mstore\n      0x04\n      add\n      tag_34\n      swap1\n      tag_35\n      jump\t// in\n    tag_34:\n      mload(0x40)\n      dup1\n      swap2\n      sub\n      swap1\n      revert\n    tag_33:\n        /* \"ActualBank.sol\":487:496  msg.value */\n      callvalue\n        /* \"ActualBank.sol\":466:473  balance */\n      0x02\n        /* \"ActualBank.sol\":466:485  balance[msg.sender] */\n      0x00\n        /* \"ActualBank.sol\":474:484  msg.sender */\n      caller\n        /* \"ActualBank.sol\":466:485  balance[msg.sender] */\n      0xffffffffffffffffffffffffffffffffffffffff\n      and\n      0xffffffffffffffffffffffffffffffffffffffff\n      and\n      dup2\n      mstore\n      0x20\n      add\n      swap1\n      dup2\n      mstore\n      0x20\n      add\n      0x00\n      keccak256\n      0x00\n        /* \"ActualBank.sol\":466:496  balance[msg.sender]+=msg.value */\n      dup3\n      dup3\n      sload\n      tag_36\n      swap2\n      swap1\n      tag_37\n      jump\t// in\n    tag_36:\n      swap3\n      pop\n      pop\n      dup2\n      swap1\n      sstore\n      pop\n        /* \"ActualBank.sol\":528:538  _secretKey */\n      dup2\n        /* \"ActualBank.sol\":506:515  secretKey */\n      0x03\n        /* \"ActualBank.sol\":506:527  secretKey[msg.sender] */\n      0x00\n        /* \"ActualBank.sol\":516:526  msg.sender */\n      caller\n        /* \"ActualBank.sol\":506:527  secretKey[msg.sender] */\n      0xffffffffffffffffffffffffffffffffffffffff\n      and\n      0xffffffffffffffffffffffffffffffffffffffff\n      and\n      dup2\n      mstore\n      0x20\n      add\n      swap1\n      dup2\n      mstore\n      0x20\n      add\n      0x00\n      keccak256\n        /* \"ActualBank.sol\":506:538  secretKey[msg.sender]=_secretKey */\n      dup2\n      swap1\n      sstore\n      pop\n        /* \"ActualBank.sol\":555:562  balance */\n      0x02\n        /* \"ActualBank.sol\":555:574  balance[msg.sender] */\n      0x00\n        /* \"ActualBank.sol\":563:573  msg.sender */\n      caller\n        /* \"ActualBank.sol\":555:574  balance[msg.sender] */\n      0xffffffffffffffffffffffffffffffffffffffff\n      and\n      0xffffffffffffffffffffffffffffffffffffffff\n      and\n      dup2\n      mstore\n      0x20\n      add\n      swap1\n      dup2\n      mstore\n      0x20\n      add\n      0x00\n      keccak256\n      sload\n        /* \"ActualBank.sol\":548:574  return balance[msg.sender] */\n      swap1\n      pop\n        /* \"ActualBank.sol\":292:581  function openAccount(uint256 _secretKey) payable public returns(uint256) {... */\n      swap2\n      swap1\n      pop\n      jump\t// out\n        /* \"ActualBank.sol\":820:1202  function withDraw(uint256 _secretKey) payable public returns(uint256) {... */\n    tag_15:\n        /* \"ActualBank.sol\":881:888  uint256 */\n      0x00\n        /* \"ActualBank.sol\":921:942  address(this).balance */\n      selfbalance\n        /* \"ActualBank.sol\":908:917  msg.value */\n      callvalue\n        /* \"ActualBank.sol\":908:942  msg.value <= address(this).balance */\n      gt\n      iszero\n        /* \"ActualBank.sol\":900:975  require(msg.value <= address(this).balance,\"With drawal value not correct\") */\n      tag_39\n      jumpi\n      mload(0x40)\n      0x08c379a000000000000000000000000000000000000000000000000000000000\n      dup2\n      mstore\n      0x04\n      add\n      tag_40\n      swap1\n      tag_41\n      jump\t// in\n    tag_40:\n      mload(0x40)\n      dup1\n      swap2\n      sub\n      swap1\n      revert\n    tag_39:\n        /* \"ActualBank.sol\":1018:1028  _secretKey */\n      dup2\n        /* \"ActualBank.sol\":993:1002  secretKey */\n      0x03\n        /* \"ActualBank.sol\":993:1014  secretKey[msg.sender] */\n      0x00\n        /* \"ActualBank.sol\":1003:1013  msg.sender */\n      caller\n        /* \"ActualBank.sol\":993:1014  secretKey[msg.sender] */\n      0xffffffffffffffffffffffffffffffffffffffff\n      and\n      0xffffffffffffffffffffffffffffffffffffffff\n      and\n      dup2\n      mstore\n      0x20\n      add\n      swap1\n      dup2\n      mstore\n      0x20\n      add\n      0x00\n      keccak256\n      sload\n        /* \"ActualBank.sol\":993:1028  secretKey[msg.sender] == _secretKey */\n      eq\n        /* \"ActualBank.sol\":985:1058  require(secretKey[msg.sender] == _secretKey, \"Secret key didn't matched\") */\n      tag_42\n      jumpi\n      mload(0x40)\n      0x08c379a000000000000000000000000000000000000000000000000000000000\n      dup2\n      mstore\n      0x04\n      add\n      tag_43\n      swap1\n      tag_44\n      jump\t// in\n    tag_43:\n      mload(0x40)\n      dup1\n      swap2\n      sub\n      swap1\n      revert\n    tag_42:\n        /* \"ActualBank.sol\":1089:1098  msg.value */\n      callvalue\n        /* \"ActualBank.sol\":1068:1075  balance */\n      0x02\n        /* \"ActualBank.sol\":1068:1087  balance[msg.sender] */\n      0x00\n        /* \"ActualBank.sol\":1076:1086  msg.sender */\n      caller\n        /* \"ActualBank.sol\":1068:1087  balance[msg.sender] */\n      0xffffffffffffffffffffffffffffffffffffffff\n      and\n      0xffffffffffffffffffffffffffffffffffffffff\n      and\n      dup2\n      mstore\n      0x20\n      add\n      swap1\n      dup2\n      mstore\n      0x20\n      add\n      0x00\n      keccak256\n      0x00\n        /* \"ActualBank.sol\":1068:1098  balance[msg.sender]-=msg.value */\n      dup3\n      dup3\n      sload\n      tag_45\n      swap2\n      swap1\n      tag_46\n      jump\t// in\n    tag_45:\n      swap3\n      pop\n      pop\n      dup2\n      swap1\n      sstore\n      pop\n        /* \"ActualBank.sol\":1116:1126  msg.sender */\n      caller\n        /* \"ActualBank.sol\":1108:1136  payable(msg.sender).transfer */\n      0xffffffffffffffffffffffffffffffffffffffff\n      and\n        /* \"ActualBank.sol\":1108:1159  payable(msg.sender).transfer(address(this).balance) */\n      0x08fc\n        /* \"ActualBank.sol\":1137:1158  address(this).balance */\n      selfbalance\n        /* \"ActualBank.sol\":1108:1159  payable(msg.sender).transfer(address(this).balance) */\n      swap1\n      dup2\n      iszero\n      mul\n      swap1\n      mload(0x40)\n      0x00\n      mload(0x40)\n      dup1\n      dup4\n      sub\n      dup2\n      dup6\n      dup9\n      dup9\n      call\n      swap4\n      pop\n      pop\n      pop\n      pop\n      iszero\n      dup1\n      iszero\n      tag_48\n      jumpi\n      returndatasize\n      0x00\n      dup1\n      returndatacopy\n      revert(0x00, returndatasize)\n    tag_48:\n      pop\n        /* \"ActualBank.sol\":1176:1183  balance */\n      0x02\n        /* \"ActualBank.sol\":1176:1195  balance[msg.sender] */\n      0x00\n        /* \"ActualBank.sol\":1184:1194  msg.sender */\n      caller\n        /* \"ActualBank.sol\":1176:1195  balance[msg.sender] */\n      0xffffffffffffffffffffffffffffffffffffffff\n      and\n      0xffffffffffffffffffffffffffffffffffffffff\n      and\n      dup2\n      mstore\n      0x20\n      add\n      swap1\n      dup2\n      mstore\n      0x20\n      add\n      0x00\n      keccak256\n      sload\n        /* \"ActualBank.sol\":1169:1195  return balance[msg.sender] */\n      swap1\n      pop\n        /* \"ActualBank.sol\":820:1202  function withDraw(uint256 _secretKey) payable public returns(uint256) {... */\n      swap2\n      swap1\n      pop\n      jump\t// out\n        /* \"ActualBank.sol\":1415:1598  function getTotalBankBalance() public view returns(uint256){... */\n    tag_19:\n        /* \"ActualBank.sol\":1466:1473  uint256 */\n      0x00\n        /* \"ActualBank.sol\":1506:1511  owner */\n      0x01\n      0x00\n      swap1\n      sload\n      swap1\n      0x0100\n      exp\n      swap1\n      div\n      0xffffffffffffffffffffffffffffffffffffffff\n      and\n        /* \"ActualBank.sol\":1492:1511  msg.sender == owner */\n      0xffffffffffffffffffffffffffffffffffffffff\n      and\n        /* \"ActualBank.sol\":1492:1502  msg.sender */\n      caller\n        /* \"ActualBank.sol\":1492:1511  msg.sender == owner */\n      0xffffffffffffffffffffffffffffffffffffffff\n      and\n      eq\n        /* \"ActualBank.sol\":1484:1553  require(msg.sender == owner,\"Owner of bank didn't call the function\") */\n      tag_50\n      jumpi\n      mload(0x40)\n      0x08c379a000000000000000000000000000000000000000000000000000000000\n      dup2\n      mstore\n      0x04\n      add\n      tag_51\n      swap1\n      tag_52\n      jump\t// in\n    tag_51:\n      mload(0x40)\n      dup1\n      swap2\n      sub\n      swap1\n      revert\n    tag_50:\n        /* \"ActualBank.sol\":1570:1591  address(this).balance */\n      selfbalance\n        /* \"ActualBank.sol\":1563:1591  return address(this).balance */\n      swap1\n      pop\n        /* \"ActualBank.sol\":1415:1598  function getTotalBankBalance() public view returns(uint256){... */\n      swap1\n      jump\t// out\n        /* \"ActualBank.sol\":1207:1410  function transfer(address _from, address _to) public payable returns(bool){... */\n    tag_24:\n        /* \"ActualBank.sol\":1276:1280  bool */\n      0x00\n        /* \"ActualBank.sol\":1319:1320  0 */\n      dup1\n        /* \"ActualBank.sol\":1299:1306  balance */\n      0x02\n        /* \"ActualBank.sol\":1299:1318  balance[msg.sender] */\n      0x00\n        /* \"ActualBank.sol\":1307:1317  msg.sender */\n      caller\n        /* \"ActualBank.sol\":1299:1318  balance[msg.sender] */\n      0xffffffffffffffffffffffffffffffffffffffff\n      and\n      0xffffffffffffffffffffffffffffffffffffffff\n      and\n      dup2\n      mstore\n      0x20\n      add\n      swap1\n      dup2\n      mstore\n      0x20\n      add\n      0x00\n      keccak256\n      sload\n        /* \"ActualBank.sol\":1299:1320  balance[msg.sender]>0 */\n      gt\n        /* \"ActualBank.sol\":1291:1403  require(balance[msg.sender]>0, \"Your account balance might be low or you are transferring to non existing user\") */\n      tag_54\n      jumpi\n      mload(0x40)\n      0x08c379a000000000000000000000000000000000000000000000000000000000\n      dup2\n      mstore\n      0x04\n      add\n      tag_55\n      swap1\n      tag_56\n      jump\t// in\n    tag_55:\n      mload(0x40)\n      dup1\n      swap2\n      sub\n      swap1\n      revert\n    tag_54:\n        /* \"ActualBank.sol\":1207:1410  function transfer(address _from, address _to) public payable returns(bool){... */\n      swap3\n      swap2\n      pop\n      pop\n      jump\t// out\n        /* \"ActualBank.sol\":588:814  function deposit(address benificiaryAccount) payable public returns(uint256){... */\n    tag_30:\n        /* \"ActualBank.sol\":656:663  uint256 */\n      0x00\n        /* \"ActualBank.sol\":713:714  0 */\n      dup1\n        /* \"ActualBank.sol\":682:689  balance */\n      0x02\n        /* \"ActualBank.sol\":682:709  balance[benificiaryAccount] */\n      0x00\n        /* \"ActualBank.sol\":690:708  benificiaryAccount */\n      dup5\n        /* \"ActualBank.sol\":682:709  balance[benificiaryAccount] */\n      0xffffffffffffffffffffffffffffffffffffffff\n      and\n      0xffffffffffffffffffffffffffffffffffffffff\n      and\n      dup2\n      mstore\n      0x20\n      add\n      swap1\n      dup2\n      mstore\n      0x20\n      add\n      0x00\n      keccak256\n      sload\n        /* \"ActualBank.sol\":682:714  balance[benificiaryAccount] != 0 */\n      eq\n      iszero\n        /* \"ActualBank.sol\":674:715  require(balance[benificiaryAccount] != 0) */\n      tag_58\n      jumpi\n      0x00\n      dup1\n      revert\n    tag_58:\n        /* \"ActualBank.sol\":754:763  msg.value */\n      callvalue\n        /* \"ActualBank.sol\":725:732  balance */\n      0x02\n        /* \"ActualBank.sol\":725:752  balance[benificiaryAccount] */\n      0x00\n        /* \"ActualBank.sol\":733:751  benificiaryAccount */\n      dup5\n        /* \"ActualBank.sol\":725:752  balance[benificiaryAccount] */\n      0xffffffffffffffffffffffffffffffffffffffff\n      and\n      0xffffffffffffffffffffffffffffffffffffffff\n      and\n      dup2\n      mstore\n      0x20\n      add\n      swap1\n      dup2\n      mstore\n      0x20\n      add\n      0x00\n      keccak256\n      0x00\n        /* \"ActualBank.sol\":725:763  balance[benificiaryAccount]+=msg.value */\n      dup3\n      dup3\n      sload\n      tag_59\n      swap2\n      swap1\n      tag_37\n      jump\t// in\n    tag_59:\n      swap3\n      pop\n      pop\n      dup2\n      swap1\n      sstore\n      pop\n        /* \"ActualBank.sol\":780:787  balance */\n      0x02\n        /* \"ActualBank.sol\":780:807  balance[benificiaryAccount] */\n      0x00\n        /* \"ActualBank.sol\":788:806  benificiaryAccount */\n      dup4\n        /* \"ActualBank.sol\":780:807  balance[benificiaryAccount] */\n      0xffffffffffffffffffffffffffffffffffffffff\n      and\n      0xffffffffffffffffffffffffffffffffffffffff\n      and\n      dup2\n      mstore\n      0x20\n      add\n      swap1\n      dup2\n      mstore\n      0x20\n      add\n      0x00\n      keccak256\n      sload\n        /* \"ActualBank.sol\":773:807  return balance[benificiaryAccount] */\n      swap1\n      pop\n        /* \"ActualBank.sol\":588:814  function deposit(address benificiaryAccount) payable public returns(uint256){... */\n      swap2\n      swap1\n      pop\n      jump\t// out\n        /* \"#utility.yul\":88:205   */\n    tag_61:\n        /* \"#utility.yul\":197:198   */\n      0x00\n        /* \"#utility.yul\":194:195   */\n      dup1\n        /* \"#utility.yul\":187:199   */\n      revert\n        /* \"#utility.yul\":334:411   */\n    tag_63:\n        /* \"#utility.yul\":371:378   */\n      0x00\n        /* \"#utility.yul\":400:405   */\n      dup2\n        /* \"#utility.yul\":389:405   */\n      swap1\n      pop\n        /* \"#utility.yul\":334:411   */\n      swap2\n      swap1\n      pop\n      jump\t// out\n        /* \"#utility.yul\":417:539   */\n    tag_64:\n        /* \"#utility.yul\":490:514   */\n      tag_91\n        /* \"#utility.yul\":508:513   */\n      dup2\n        /* \"#utility.yul\":490:514   */\n      tag_63\n      jump\t// in\n    tag_91:\n        /* \"#utility.yul\":483:488   */\n      dup2\n        /* \"#utility.yul\":480:515   */\n      eq\n        /* \"#utility.yul\":470:533   */\n      tag_92\n      jumpi\n        /* \"#utility.yul\":529:530   */\n      0x00\n        /* \"#utility.yul\":526:527   */\n      dup1\n        /* \"#utility.yul\":519:531   */\n      revert\n        /* \"#utility.yul\":470:533   */\n    tag_92:\n        /* \"#utility.yul\":417:539   */\n      pop\n      jump\t// out\n        /* \"#utility.yul\":545:684   */\n    tag_65:\n        /* \"#utility.yul\":591:596   */\n      0x00\n        /* \"#utility.yul\":629:635   */\n      dup2\n        /* \"#utility.yul\":616:636   */\n      calldataload\n        /* \"#utility.yul\":607:636   */\n      swap1\n      pop\n        /* \"#utility.yul\":645:678   */\n      tag_94\n        /* \"#utility.yul\":672:677   */\n      dup2\n        /* \"#utility.yul\":645:678   */\n      tag_64\n      jump\t// in\n    tag_94:\n        /* \"#utility.yul\":545:684   */\n      swap3\n      swap2\n      pop\n      pop\n      jump\t// out\n        /* \"#utility.yul\":690:1019   */\n    tag_9:\n        /* \"#utility.yul\":749:755   */\n      0x00\n        /* \"#utility.yul\":798:800   */\n      0x20\n        /* \"#utility.yul\":786:795   */\n      dup3\n        /* \"#utility.yul\":777:784   */\n      dup5\n        /* \"#utility.yul\":773:796   */\n      sub\n        /* \"#utility.yul\":769:801   */\n      slt\n        /* \"#utility.yul\":766:885   */\n      iszero\n      tag_96\n      jumpi\n        /* \"#utility.yul\":804:883   */\n      tag_97\n      tag_61\n      jump\t// in\n    tag_97:\n        /* \"#utility.yul\":766:885   */\n    tag_96:\n        /* \"#utility.yul\":924:925   */\n      0x00\n        /* \"#utility.yul\":949:1002   */\n      tag_98\n        /* \"#utility.yul\":994:1001   */\n      dup5\n        /* \"#utility.yul\":985:991   */\n      dup3\n        /* \"#utility.yul\":974:983   */\n      dup6\n        /* \"#utility.yul\":970:992   */\n      add\n        /* \"#utility.yul\":949:1002   */\n      tag_65\n      jump\t// in\n    tag_98:\n        /* \"#utility.yul\":939:1002   */\n      swap2\n      pop\n        /* \"#utility.yul\":895:1012   */\n      pop\n        /* \"#utility.yul\":690:1019   */\n      swap3\n      swap2\n      pop\n      pop\n      jump\t// out\n        /* \"#utility.yul\":1025:1143   */\n    tag_66:\n        /* \"#utility.yul\":1112:1136   */\n      tag_100\n        /* \"#utility.yul\":1130:1135   */\n      dup2\n        /* \"#utility.yul\":1112:1136   */\n      tag_63\n      jump\t// in\n    tag_100:\n        /* \"#utility.yul\":1107:1110   */\n      dup3\n        /* \"#utility.yul\":1100:1137   */\n      mstore\n        /* \"#utility.yul\":1025:1143   */\n      pop\n      pop\n      jump\t// out\n        /* \"#utility.yul\":1149:1371   */\n    tag_12:\n        /* \"#utility.yul\":1242:1246   */\n      0x00\n        /* \"#utility.yul\":1280:1282   */\n      0x20\n        /* \"#utility.yul\":1269:1278   */\n      dup3\n        /* \"#utility.yul\":1265:1283   */\n      add\n        /* \"#utility.yul\":1257:1283   */\n      swap1\n      pop\n        /* \"#utility.yul\":1293:1364   */\n      tag_102\n        /* \"#utility.yul\":1361:1362   */\n      0x00\n        /* \"#utility.yul\":1350:1359   */\n      dup4\n        /* \"#utility.yul\":1346:1363   */\n      add\n        /* \"#utility.yul\":1337:1343   */\n      dup5\n        /* \"#utility.yul\":1293:1364   */\n      tag_66\n      jump\t// in\n    tag_102:\n        /* \"#utility.yul\":1149:1371   */\n      swap3\n      swap2\n      pop\n      pop\n      jump\t// out\n        /* \"#utility.yul\":1377:1503   */\n    tag_67:\n        /* \"#utility.yul\":1414:1421   */\n      0x00\n        /* \"#utility.yul\":1454:1496   */\n      0xffffffffffffffffffffffffffffffffffffffff\n        /* \"#utility.yul\":1447:1452   */\n      dup3\n        /* \"#utility.yul\":1443:1497   */\n      and\n        /* \"#utility.yul\":1432:1497   */\n      swap1\n      pop\n        /* \"#utility.yul\":1377:1503   */\n      swap2\n      swap1\n      pop\n      jump\t// out\n        /* \"#utility.yul\":1509:1605   */\n    tag_68:\n        /* \"#utility.yul\":1546:1553   */\n      0x00\n        /* \"#utility.yul\":1575:1599   */\n      tag_105\n        /* \"#utility.yul\":1593:1598   */\n      dup3\n        /* \"#utility.yul\":1575:1599   */\n      tag_67\n      jump\t// in\n    tag_105:\n        /* \"#utility.yul\":1564:1599   */\n      swap1\n      pop\n        /* \"#utility.yul\":1509:1605   */\n      swap2\n      swap1\n      pop\n      jump\t// out\n        /* \"#utility.yul\":1611:1733   */\n    tag_69:\n        /* \"#utility.yul\":1684:1708   */\n      tag_107\n        /* \"#utility.yul\":1702:1707   */\n      dup2\n        /* \"#utility.yul\":1684:1708   */\n      tag_68\n      jump\t// in\n    tag_107:\n        /* \"#utility.yul\":1677:1682   */\n      dup2\n        /* \"#utility.yul\":1674:1709   */\n      eq\n        /* \"#utility.yul\":1664:1727   */\n      tag_108\n      jumpi\n        /* \"#utility.yul\":1723:1724   */\n      0x00\n        /* \"#utility.yul\":1720:1721   */\n      dup1\n        /* \"#utility.yul\":1713:1725   */\n      revert\n        /* \"#utility.yul\":1664:1727   */\n    tag_108:\n        /* \"#utility.yul\":1611:1733   */\n      pop\n      jump\t// out\n        /* \"#utility.yul\":1739:1878   */\n    tag_70:\n        /* \"#utility.yul\":1785:1790   */\n      0x00\n        /* \"#utility.yul\":1823:1829   */\n      dup2\n        /* \"#utility.yul\":1810:1830   */\n      calldataload\n        /* \"#utility.yul\":1801:1830   */\n      swap1\n      pop\n        /* \"#utility.yul\":1839:1872   */\n      tag_110\n        /* \"#utility.yul\":1866:1871   */\n      dup2\n        /* \"#utility.yul\":1839:1872   */\n      tag_69\n      jump\t// in\n    tag_110:\n        /* \"#utility.yul\":1739:1878   */\n      swap3\n      swap2\n      pop\n      pop\n      jump\t// out\n        /* \"#utility.yul\":1884:2358   */\n    tag_23:\n        /* \"#utility.yul\":1952:1958   */\n      0x00\n        /* \"#utility.yul\":1960:1966   */\n      dup1\n        /* \"#utility.yul\":2009:2011   */\n      0x40\n        /* \"#utility.yul\":1997:2006   */\n      dup4\n        /* \"#utility.yul\":1988:1995   */\n      dup6\n        /* \"#utility.yul\":1984:2007   */\n      sub\n        /* \"#utility.yul\":1980:2012   */\n      slt\n        /* \"#utility.yul\":1977:2096   */\n      iszero\n      tag_112\n      jumpi\n        /* \"#utility.yul\":2015:2094   */\n      tag_113\n      tag_61\n      jump\t// in\n    tag_113:\n        /* \"#utility.yul\":1977:2096   */\n    tag_112:\n        /* \"#utility.yul\":2135:2136   */\n      0x00\n        /* \"#utility.yul\":2160:2213   */\n      tag_114\n        /* \"#utility.yul\":2205:2212   */\n      dup6\n        /* \"#utility.yul\":2196:2202   */\n      dup3\n        /* \"#utility.yul\":2185:2194   */\n      dup7\n        /* \"#utility.yul\":2181:2203   */\n      add\n        /* \"#utility.yul\":2160:2213   */\n      tag_70\n      jump\t// in\n    tag_114:\n        /* \"#utility.yul\":2150:2213   */\n      swap3\n      pop\n        /* \"#utility.yul\":2106:2223   */\n      pop\n        /* \"#utility.yul\":2262:2264   */\n      0x20\n        /* \"#utility.yul\":2288:2341   */\n      tag_115\n        /* \"#utility.yul\":2333:2340   */\n      dup6\n        /* \"#utility.yul\":2324:2330   */\n      dup3\n        /* \"#utility.yul\":2313:2322   */\n      dup7\n        /* \"#utility.yul\":2309:2331   */\n      add\n        /* \"#utility.yul\":2288:2341   */\n      tag_70\n      jump\t// in\n    tag_115:\n        /* \"#utility.yul\":2278:2341   */\n      swap2\n      pop\n        /* \"#utility.yul\":2233:2351   */\n      pop\n        /* \"#utility.yul\":1884:2358   */\n      swap3\n      pop\n      swap3\n      swap1\n      pop\n      jump\t// out\n        /* \"#utility.yul\":2364:2454   */\n    tag_71:\n        /* \"#utility.yul\":2398:2405   */\n      0x00\n        /* \"#utility.yul\":2441:2446   */\n      dup2\n        /* \"#utility.yul\":2434:2447   */\n      iszero\n        /* \"#utility.yul\":2427:2448   */\n      iszero\n        /* \"#utility.yul\":2416:2448   */\n      swap1\n      pop\n        /* \"#utility.yul\":2364:2454   */\n      swap2\n      swap1\n      pop\n      jump\t// out\n        /* \"#utility.yul\":2460:2569   */\n    tag_72:\n        /* \"#utility.yul\":2541:2562   */\n      tag_118\n        /* \"#utility.yul\":2556:2561   */\n      dup2\n        /* \"#utility.yul\":2541:2562   */\n      tag_71\n      jump\t// in\n    tag_118:\n        /* \"#utility.yul\":2536:2539   */\n      dup3\n        /* \"#utility.yul\":2529:2563   */\n      mstore\n        /* \"#utility.yul\":2460:2569   */\n      pop\n      pop\n      jump\t// out\n        /* \"#utility.yul\":2575:2785   */\n    tag_26:\n        /* \"#utility.yul\":2662:2666   */\n      0x00\n        /* \"#utility.yul\":2700:2702   */\n      0x20\n        /* \"#utility.yul\":2689:2698   */\n      dup3\n        /* \"#utility.yul\":2685:2703   */\n      add\n        /* \"#utility.yul\":2677:2703   */\n      swap1\n      pop\n        /* \"#utility.yul\":2713:2778   */\n      tag_120\n        /* \"#utility.yul\":2775:2776   */\n      0x00\n        /* \"#utility.yul\":2764:2773   */\n      dup4\n        /* \"#utility.yul\":2760:2777   */\n      add\n        /* \"#utility.yul\":2751:2757   */\n      dup5\n        /* \"#utility.yul\":2713:2778   */\n      tag_72\n      jump\t// in\n    tag_120:\n        /* \"#utility.yul\":2575:2785   */\n      swap3\n      swap2\n      pop\n      pop\n      jump\t// out\n        /* \"#utility.yul\":2791:3120   */\n    tag_29:\n        /* \"#utility.yul\":2850:2856   */\n      0x00\n        /* \"#utility.yul\":2899:2901   */\n      0x20\n        /* \"#utility.yul\":2887:2896   */\n      dup3\n        /* \"#utility.yul\":2878:2885   */\n      dup5\n        /* \"#utility.yul\":2874:2897   */\n      sub\n        /* \"#utility.yul\":2870:2902   */\n      slt\n        /* \"#utility.yul\":2867:2986   */\n      iszero\n      tag_122\n      jumpi\n        /* \"#utility.yul\":2905:2984   */\n      tag_123\n      tag_61\n      jump\t// in\n    tag_123:\n        /* \"#utility.yul\":2867:2986   */\n    tag_122:\n        /* \"#utility.yul\":3025:3026   */\n      0x00\n        /* \"#utility.yul\":3050:3103   */\n      tag_124\n        /* \"#utility.yul\":3095:3102   */\n      dup5\n        /* \"#utility.yul\":3086:3092   */\n      dup3\n        /* \"#utility.yul\":3075:3084   */\n      dup6\n        /* \"#utility.yul\":3071:3093   */\n      add\n        /* \"#utility.yul\":3050:3103   */\n      tag_70\n      jump\t// in\n    tag_124:\n        /* \"#utility.yul\":3040:3103   */\n      swap2\n      pop\n        /* \"#utility.yul\":2996:3113   */\n      pop\n        /* \"#utility.yul\":2791:3120   */\n      swap3\n      swap2\n      pop\n      pop\n      jump\t// out\n        /* \"#utility.yul\":3126:3295   */\n    tag_73:\n        /* \"#utility.yul\":3210:3221   */\n      0x00\n        /* \"#utility.yul\":3244:3250   */\n      dup3\n        /* \"#utility.yul\":3239:3242   */\n      dup3\n        /* \"#utility.yul\":3232:3251   */\n      mstore\n        /* \"#utility.yul\":3284:3288   */\n      0x20\n        /* \"#utility.yul\":3279:3282   */\n      dup3\n        /* \"#utility.yul\":3275:3289   */\n      add\n        /* \"#utility.yul\":3260:3289   */\n      swap1\n      pop\n        /* \"#utility.yul\":3126:3295   */\n      swap3\n      swap2\n      pop\n      pop\n      jump\t// out\n        /* \"#utility.yul\":3301:3527   */\n    tag_74:\n        /* \"#utility.yul\":3441:3475   */\n      0x5468657265206d7573742061206d696e696d756d2062616c616e6365206f6620\n        /* \"#utility.yul\":3437:3438   */\n      0x00\n        /* \"#utility.yul\":3429:3435   */\n      dup3\n        /* \"#utility.yul\":3425:3439   */\n      add\n        /* \"#utility.yul\":3418:3476   */\n      mstore\n        /* \"#utility.yul\":3510:3519   */\n      0x3120657468657200000000000000000000000000000000000000000000000000\n        /* \"#utility.yul\":3505:3507   */\n      0x20\n        /* \"#utility.yul\":3497:3503   */\n      dup3\n        /* \"#utility.yul\":3493:3508   */\n      add\n        /* \"#utility.yul\":3486:3520   */\n      mstore\n        /* \"#utility.yul\":3301:3527   */\n      pop\n      jump\t// out\n        /* \"#utility.yul\":3533:3899   */\n    tag_75:\n        /* \"#utility.yul\":3675:3678   */\n      0x00\n        /* \"#utility.yul\":3696:3763   */\n      tag_128\n        /* \"#utility.yul\":3760:3762   */\n      0x27\n        /* \"#utility.yul\":3755:3758   */\n      dup4\n        /* \"#utility.yul\":3696:3763   */\n      tag_73\n      jump\t// in\n    tag_128:\n        /* \"#utility.yul\":3689:3763   */\n      swap2\n      pop\n        /* \"#utility.yul\":3772:3865   */\n      tag_129\n        /* \"#utility.yul\":3861:3864   */\n      dup3\n        /* \"#utility.yul\":3772:3865   */\n      tag_74\n      jump\t// in\n    tag_129:\n        /* \"#utility.yul\":3890:3892   */\n      0x40\n        /* \"#utility.yul\":3885:3888   */\n      dup3\n        /* \"#utility.yul\":3881:3893   */\n      add\n        /* \"#utility.yul\":3874:3893   */\n      swap1\n      pop\n        /* \"#utility.yul\":3533:3899   */\n      swap2\n      swap1\n      pop\n      jump\t// out\n        /* \"#utility.yul\":3905:4324   */\n    tag_35:\n        /* \"#utility.yul\":4071:4075   */\n      0x00\n        /* \"#utility.yul\":4109:4111   */\n      0x20\n        /* \"#utility.yul\":4098:4107   */\n      dup3\n        /* \"#utility.yul\":4094:4112   */\n      add\n        /* \"#utility.yul\":4086:4112   */\n      swap1\n      pop\n        /* \"#utility.yul\":4158:4167   */\n      dup2\n        /* \"#utility.yul\":4152:4156   */\n      dup2\n        /* \"#utility.yul\":4148:4168   */\n      sub\n        /* \"#utility.yul\":4144:4145   */\n      0x00\n        /* \"#utility.yul\":4133:4142   */\n      dup4\n        /* \"#utility.yul\":4129:4146   */\n      add\n        /* \"#utility.yul\":4122:4169   */\n      mstore\n        /* \"#utility.yul\":4186:4317   */\n      tag_131\n        /* \"#utility.yul\":4312:4316   */\n      dup2\n        /* \"#utility.yul\":4186:4317   */\n      tag_75\n      jump\t// in\n    tag_131:\n        /* \"#utility.yul\":4178:4317   */\n      swap1\n      pop\n        /* \"#utility.yul\":3905:4324   */\n      swap2\n      swap1\n      pop\n      jump\t// out\n        /* \"#utility.yul\":4330:4510   */\n    tag_76:\n        /* \"#utility.yul\":4378:4455   */\n      0x4e487b7100000000000000000000000000000000000000000000000000000000\n        /* \"#utility.yul\":4375:4376   */\n      0x00\n        /* \"#utility.yul\":4368:4456   */\n      mstore\n        /* \"#utility.yul\":4475:4479   */\n      0x11\n        /* \"#utility.yul\":4472:4473   */\n      0x04\n        /* \"#utility.yul\":4465:4480   */\n      mstore\n        /* \"#utility.yul\":4499:4503   */\n      0x24\n        /* \"#utility.yul\":4496:4497   */\n      0x00\n        /* \"#utility.yul\":4489:4504   */\n      revert\n        /* \"#utility.yul\":4516:4821   */\n    tag_37:\n        /* \"#utility.yul\":4556:4559   */\n      0x00\n        /* \"#utility.yul\":4575:4595   */\n      tag_134\n        /* \"#utility.yul\":4593:4594   */\n      dup3\n        /* \"#utility.yul\":4575:4595   */\n      tag_63\n      jump\t// in\n    tag_134:\n        /* \"#utility.yul\":4570:4595   */\n      swap2\n      pop\n        /* \"#utility.yul\":4609:4629   */\n      tag_135\n        /* \"#utility.yul\":4627:4628   */\n      dup4\n        /* \"#utility.yul\":4609:4629   */\n      tag_63\n      jump\t// in\n    tag_135:\n        /* \"#utility.yul\":4604:4629   */\n      swap3\n      pop\n        /* \"#utility.yul\":4763:4764   */\n      dup3\n        /* \"#utility.yul\":4695:4761   */\n      0xffffffffffffffffffffffffffffffffffffffffffffffffffffffffffffffff\n        /* \"#utility.yul\":4691:4765   */\n      sub\n        /* \"#utility.yul\":4688:4689   */\n      dup3\n        /* \"#utility.yul\":4685:4766   */\n      gt\n        /* \"#utility.yul\":4682:4789   */\n      iszero\n      tag_136\n      jumpi\n        /* \"#utility.yul\":4769:4787   */\n      tag_137\n      tag_76\n      jump\t// in\n    tag_137:\n        /* \"#utility.yul\":4682:4789   */\n    tag_136:\n        /* \"#utility.yul\":4813:4814   */\n      dup3\n        /* \"#utility.yul\":4810:4811   */\n      dup3\n        /* \"#utility.yul\":4806:4815   */\n      add\n        /* \"#utility.yul\":4799:4815   */\n      swap1\n      pop\n        /* \"#utility.yul\":4516:4821   */\n      swap3\n      swap2\n      pop\n      pop\n      jump\t// out\n        /* \"#utility.yul\":4827:5006   */\n    tag_77:\n        /* \"#utility.yul\":4967:4998   */\n      0x576974682064726177616c2076616c7565206e6f7420636f7272656374000000\n        /* \"#utility.yul\":4963:4964   */\n      0x00\n        /* \"#utility.yul\":4955:4961   */\n      dup3\n        /* \"#utility.yul\":4951:4965   */\n      add\n        /* \"#utility.yul\":4944:4999   */\n      mstore\n        /* \"#utility.yul\":4827:5006   */\n      pop\n      jump\t// out\n        /* \"#utility.yul\":5012:5378   */\n    tag_78:\n        /* \"#utility.yul\":5154:5157   */\n      0x00\n        /* \"#utility.yul\":5175:5242   */\n      tag_140\n        /* \"#utility.yul\":5239:5241   */\n      0x1d\n        /* \"#utility.yul\":5234:5237   */\n      dup4\n        /* \"#utility.yul\":5175:5242   */\n      tag_73\n      jump\t// in\n    tag_140:\n        /* \"#utility.yul\":5168:5242   */\n      swap2\n      pop\n        /* \"#utility.yul\":5251:5344   */\n      tag_141\n        /* \"#utility.yul\":5340:5343   */\n      dup3\n        /* \"#utility.yul\":5251:5344   */\n      tag_77\n      jump\t// in\n    tag_141:\n        /* \"#utility.yul\":5369:5371   */\n      0x20\n        /* \"#utility.yul\":5364:5367   */\n      dup3\n        /* \"#utility.yul\":5360:5372   */\n      add\n        /* \"#utility.yul\":5353:5372   */\n      swap1\n      pop\n        /* \"#utility.yul\":5012:5378   */\n      swap2\n      swap1\n      pop\n      jump\t// out\n        /* \"#utility.yul\":5384:5803   */\n    tag_41:\n        /* \"#utility.yul\":5550:5554   */\n      0x00\n        /* \"#utility.yul\":5588:5590   */\n      0x20\n        /* \"#utility.yul\":5577:5586   */\n      dup3\n        /* \"#utility.yul\":5573:5591   */\n      add\n        /* \"#utility.yul\":5565:5591   */\n      swap1\n      pop\n        /* \"#utility.yul\":5637:5646   */\n      dup2\n        /* \"#utility.yul\":5631:5635   */\n      dup2\n        /* \"#utility.yul\":5627:5647   */\n      sub\n        /* \"#utility.yul\":5623:5624   */\n      0x00\n        /* \"#utility.yul\":5612:5621   */\n      dup4\n        /* \"#utility.yul\":5608:5625   */\n      add\n        /* \"#utility.yul\":5601:5648   */\n      mstore\n        /* \"#utility.yul\":5665:5796   */\n      tag_143\n        /* \"#utility.yul\":5791:5795   */\n      dup2\n        /* \"#utility.yul\":5665:5796   */\n      tag_78\n      jump\t// in\n    tag_143:\n        /* \"#utility.yul\":5657:5796   */\n      swap1\n      pop\n        /* \"#utility.yul\":5384:5803   */\n      swap2\n      swap1\n      pop\n      jump\t// out\n        /* \"#utility.yul\":5809:5984   */\n    tag_79:\n        /* \"#utility.yul\":5949:5976   */\n      0x536563726574206b6579206469646e2774206d61746368656400000000000000\n        /* \"#utility.yul\":5945:5946   */\n      0x00\n        /* \"#utility.yul\":5937:5943   */\n      dup3\n        /* \"#utility.yul\":5933:5947   */\n      add\n        /* \"#utility.yul\":5926:5977   */\n      mstore\n        /* \"#utility.yul\":5809:5984   */\n      pop\n      jump\t// out\n        /* \"#utility.yul\":5990:6356   */\n    tag_80:\n        /* \"#utility.yul\":6132:6135   */\n      0x00\n        /* \"#utility.yul\":6153:6220   */\n      tag_146\n        /* \"#utility.yul\":6217:6219   */\n      0x19\n        /* \"#utility.yul\":6212:6215   */\n      dup4\n        /* \"#utility.yul\":6153:6220   */\n      tag_73\n      jump\t// in\n    tag_146:\n        /* \"#utility.yul\":6146:6220   */\n      swap2\n      pop\n        /* \"#utility.yul\":6229:6322   */\n      tag_147\n        /* \"#utility.yul\":6318:6321   */\n      dup3\n        /* \"#utility.yul\":6229:6322   */\n      tag_79\n      jump\t// in\n    tag_147:\n        /* \"#utility.yul\":6347:6349   */\n      0x20\n        /* \"#utility.yul\":6342:6345   */\n      dup3\n        /* \"#utility.yul\":6338:6350   */\n      add\n        /* \"#utility.yul\":6331:6350   */\n      swap1\n      pop\n        /* \"#utility.yul\":5990:6356   */\n      swap2\n      swap1\n      pop\n      jump\t// out\n        /* \"#utility.yul\":6362:6781   */\n    tag_44:\n        /* \"#utility.yul\":6528:6532   */\n      0x00\n        /* \"#utility.yul\":6566:6568   */\n      0x20\n        /* \"#utility.yul\":6555:6564   */\n      dup3\n        /* \"#utility.yul\":6551:6569   */\n      add\n        /* \"#utility.yul\":6543:6569   */\n      swap1\n      pop\n        /* \"#utility.yul\":6615:6624   */\n      dup2\n        /* \"#utility.yul\":6609:6613   */\n      dup2\n        /* \"#utility.yul\":6605:6625   */\n      sub\n        /* \"#utility.yul\":6601:6602   */\n      0x00\n        /* \"#utility.yul\":6590:6599   */\n      dup4\n        /* \"#utility.yul\":6586:6603   */\n      add\n        /* \"#utility.yul\":6579:6626   */\n      mstore\n        /* \"#utility.yul\":6643:6774   */\n      tag_149\n        /* \"#utility.yul\":6769:6773   */\n      dup2\n        /* \"#utility.yul\":6643:6774   */\n      tag_80\n      jump\t// in\n    tag_149:\n        /* \"#utility.yul\":6635:6774   */\n      swap1\n      pop\n        /* \"#utility.yul\":6362:6781   */\n      swap2\n      swap1\n      pop\n      jump\t// out\n        /* \"#utility.yul\":6787:6978   */\n    tag_46:\n        /* \"#utility.yul\":6827:6831   */\n      0x00\n        /* \"#utility.yul\":6847:6867   */\n      tag_151\n        /* \"#utility.yul\":6865:6866   */\n      dup3\n        /* \"#utility.yul\":6847:6867   */\n      tag_63\n      jump\t// in\n    tag_151:\n        /* \"#utility.yul\":6842:6867   */\n      swap2\n      pop\n        /* \"#utility.yul\":6881:6901   */\n      tag_152\n        /* \"#utility.yul\":6899:6900   */\n      dup4\n        /* \"#utility.yul\":6881:6901   */\n      tag_63\n      jump\t// in\n    tag_152:\n        /* \"#utility.yul\":6876:6901   */\n      swap3\n      pop\n        /* \"#utility.yul\":6920:6921   */\n      dup3\n        /* \"#utility.yul\":6917:6918   */\n      dup3\n        /* \"#utility.yul\":6914:6922   */\n      lt\n        /* \"#utility.yul\":6911:6945   */\n      iszero\n      tag_153\n      jumpi\n        /* \"#utility.yul\":6925:6943   */\n      tag_154\n      tag_76\n      jump\t// in\n    tag_154:\n        /* \"#utility.yul\":6911:6945   */\n    tag_153:\n        /* \"#utility.yul\":6970:6971   */\n      dup3\n        /* \"#utility.yul\":6967:6968   */\n      dup3\n        /* \"#utility.yul\":6963:6972   */\n      sub\n        /* \"#utility.yul\":6955:6972   */\n      swap1\n      pop\n        /* \"#utility.yul\":6787:6978   */\n      swap3\n      swap2\n      pop\n      pop\n      jump\t// out\n        /* \"#utility.yul\":6984:7209   */\n    tag_81:\n        /* \"#utility.yul\":7124:7158   */\n      0x4f776e6572206f662062616e6b206469646e27742063616c6c20746865206675\n        /* \"#utility.yul\":7120:7121   */\n      0x00\n        /* \"#utility.yul\":7112:7118   */\n      dup3\n        /* \"#utility.yul\":7108:7122   */\n      add\n        /* \"#utility.yul\":7101:7159   */\n      mstore\n        /* \"#utility.yul\":7193:7201   */\n      0x6e6374696f6e0000000000000000000000000000000000000000000000000000\n        /* \"#utility.yul\":7188:7190   */\n      0x20\n        /* \"#utility.yul\":7180:7186   */\n      dup3\n        /* \"#utility.yul\":7176:7191   */\n      add\n        /* \"#utility.yul\":7169:7202   */\n      mstore\n        /* \"#utility.yul\":6984:7209   */\n      pop\n      jump\t// out\n        /* \"#utility.yul\":7215:7581   */\n    tag_82:\n        /* \"#utility.yul\":7357:7360   */\n      0x00\n        /* \"#utility.yul\":7378:7445   */\n      tag_157\n        /* \"#utility.yul\":7442:7444   */\n      0x26\n        /* \"#utility.yul\":7437:7440   */\n      dup4\n        /* \"#utility.yul\":7378:7445   */\n      tag_73\n      jump\t// in\n    tag_157:\n        /* \"#utility.yul\":7371:7445   */\n      swap2\n      pop\n        /* \"#utility.yul\":7454:7547   */\n      tag_158\n        /* \"#utility.yul\":7543:7546   */\n      dup3\n        /* \"#utility.yul\":7454:7547   */\n      tag_81\n      jump\t// in\n    tag_158:\n        /* \"#utility.yul\":7572:7574   */\n      0x40\n        /* \"#utility.yul\":7567:7570   */\n      dup3\n        /* \"#utility.yul\":7563:7575   */\n      add\n        /* \"#utility.yul\":7556:7575   */\n      swap1\n      pop\n        /* \"#utility.yul\":7215:7581   */\n      swap2\n      swap1\n      pop\n      jump\t// out\n        /* \"#utility.yul\":7587:8006   */\n    tag_52:\n        /* \"#utility.yul\":7753:7757   */\n      0x00\n        /* \"#utility.yul\":7791:7793   */\n      0x20\n        /* \"#utility.yul\":7780:7789   */\n      dup3\n        /* \"#utility.yul\":7776:7794   */\n      add\n        /* \"#utility.yul\":7768:7794   */\n      swap1\n      pop\n        /* \"#utility.yul\":7840:7849   */\n      dup2\n        /* \"#utility.yul\":7834:7838   */\n      dup2\n        /* \"#utility.yul\":7830:7850   */\n      sub\n        /* \"#utility.yul\":7826:7827   */\n      0x00\n        /* \"#utility.yul\":7815:7824   */\n      dup4\n        /* \"#utility.yul\":7811:7828   */\n      add\n        /* \"#utility.yul\":7804:7851   */\n      mstore\n        /* \"#utility.yul\":7868:7999   */\n      tag_160\n        /* \"#utility.yul\":7994:7998   */\n      dup2\n        /* \"#utility.yul\":7868:7999   */\n      tag_82\n      jump\t// in\n    tag_160:\n        /* \"#utility.yul\":7860:7999   */\n      swap1\n      pop\n        /* \"#utility.yul\":7587:8006   */\n      swap2\n      swap1\n      pop\n      jump\t// out\n        /* \"#utility.yul\":8012:8314   */\n    tag_83:\n        /* \"#utility.yul\":8152:8186   */\n      0x596f7572206163636f756e742062616c616e6365206d69676874206265206c6f\n        /* \"#utility.yul\":8148:8149   */\n      0x00\n        /* \"#utility.yul\":8140:8146   */\n      dup3\n        /* \"#utility.yul\":8136:8150   */\n      add\n        /* \"#utility.yul\":8129:8187   */\n      mstore\n        /* \"#utility.yul\":8221:8255   */\n      0x77206f7220796f7520617265207472616e7366657272696e6720746f206e6f6e\n        /* \"#utility.yul\":8216:8218   */\n      0x20\n        /* \"#utility.yul\":8208:8214   */\n      dup3\n        /* \"#utility.yul\":8204:8219   */\n      add\n        /* \"#utility.yul\":8197:8256   */\n      mstore\n        /* \"#utility.yul\":8290:8306   */\n      0x206578697374696e672075736572000000000000000000000000000000000000\n        /* \"#utility.yul\":8285:8287   */\n      0x40\n        /* \"#utility.yul\":8277:8283   */\n      dup3\n        /* \"#utility.yul\":8273:8288   */\n      add\n        /* \"#utility.yul\":8266:8307   */\n      mstore\n        /* \"#utility.yul\":8012:8314   */\n      pop\n      jump\t// out\n        /* \"#utility.yul\":8320:8686   */\n    tag_84:\n        /* \"#utility.yul\":8462:8465   */\n      0x00\n        /* \"#utility.yul\":8483:8550   */\n      tag_163\n        /* \"#utility.yul\":8547:8549   */\n      0x4e\n        /* \"#utility.yul\":8542:8545   */\n      dup4\n        /* \"#utility.yul\":8483:8550   */\n      tag_73\n      jump\t// in\n    tag_163:\n        /* \"#utility.yul\":8476:8550   */\n      swap2\n      pop\n        /* \"#utility.yul\":8559:8652   */\n      tag_164\n        /* \"#utility.yul\":8648:8651   */\n      dup3\n        /* \"#utility.yul\":8559:8652   */\n      tag_83\n      jump\t// in\n    tag_164:\n        /* \"#utility.yul\":8677:8679   */\n      0x60\n        /* \"#utility.yul\":8672:8675   */\n      dup3\n        /* \"#utility.yul\":8668:8680   */\n      add\n        /* \"#utility.yul\":8661:8680   */\n      swap1\n      pop\n        /* \"#utility.yul\":8320:8686   */\n      swap2\n      swap1\n      pop\n      jump\t// out\n        /* \"#utility.yul\":8692:9111   */\n    tag_56:\n        /* \"#utility.yul\":8858:8862   */\n      0x00\n        /* \"#utility.yul\":8896:8898   */\n      0x20\n        /* \"#utility.yul\":8885:8894   */\n      dup3\n        /* \"#utility.yul\":8881:8899   */\n      add\n        /* \"#utility.yul\":8873:8899   */\n      swap1\n      pop\n        /* \"#utility.yul\":8945:8954   */\n      dup2\n        /* \"#utility.yul\":8939:8943   */\n      dup2\n        /* \"#utility.yul\":8935:8955   */\n      sub\n        /* \"#utility.yul\":8931:8932   */\n      0x00\n        /* \"#utility.yul\":8920:8929   */\n      dup4\n        /* \"#utility.yul\":8916:8933   */\n      add\n        /* \"#utility.yul\":8909:8956   */\n      mstore\n        /* \"#utility.yul\":8973:9104   */\n      tag_166\n        /* \"#utility.yul\":9099:9103   */\n      dup2\n        /* \"#utility.yul\":8973:9104   */\n      tag_84\n      jump\t// in\n    tag_166:\n        /* \"#utility.yul\":8965:9104   */\n      swap1\n      pop\n        /* \"#utility.yul\":8692:9111   */\n      swap2\n      swap1\n      pop\n      jump\t// out\n\n    auxdata: 0xa2646970667358221220690d1bcbddea62889a22a2e97a6cf3b50b118a25f53bc56271a78d111d1bbfa264736f6c63430008090033\n}\n",
				"bytecode": {
					"linkReferences": {},
					"object": "6080604052670de0b6b3a764000060005534801561001c57600080fd5b5033600160006101000a81548173ffffffffffffffffffffffffffffffffffffffff021916908373ffffffffffffffffffffffffffffffffffffffff160217905550610b5e8061006d6000396000f3fe60806040526004361061004a5760003560e01c80631000420d1461004f57806314174f331461007f57806338a2ca40146100af578063ba45b0b8146100da578063f340fa011461010a575b600080fd5b61006960048036038101906100649190610652565b61013a565b604051610076919061068e565b60405180910390f35b61009960048036038101906100949190610652565b610261565b6040516100a6919061068e565b60405180910390f35b3480156100bb57600080fd5b506100c461040b565b6040516100d1919061068e565b60405180910390f35b6100f460048036038101906100ef9190610707565b6104a3565b6040516101019190610762565b60405180910390f35b610124600480360381019061011f919061077d565b61052c565b604051610131919061068e565b60405180910390f35b60008054341015610180576040517f08c379a00000000000000000000000000000000000000000000000000000000081526004016101779061082d565b60405180910390fd5b34600260003373ffffffffffffffffffffffffffffffffffffffff1673ffffffffffffffffffffffffffffffffffffffff16815260200190815260200160002060008282546101cf919061087c565b9250508190555081600360003373ffffffffffffffffffffffffffffffffffffffff1673ffffffffffffffffffffffffffffffffffffffff16815260200190815260200160002081905550600260003373ffffffffffffffffffffffffffffffffffffffff1673ffffffffffffffffffffffffffffffffffffffff168152602001908152602001600020549050919050565b6000473411156102a6576040517f08c379a000000000000000000000000000000000000000000000000000000000815260040161029d9061091e565b60405180910390fd5b81600360003373ffffffffffffffffffffffffffffffffffffffff1673ffffffffffffffffffffffffffffffffffffffff1681526020019081526020016000205414610327576040517f08c379a000000000000000000000000000000000000000000000000000000000815260040161031e9061098a565b60405180910390fd5b34600260003373ffffffffffffffffffffffffffffffffffffffff1673ffffffffffffffffffffffffffffffffffffffff168152602001908152602001600020600082825461037691906109aa565b925050819055503373ffffffffffffffffffffffffffffffffffffffff166108fc479081150290604051600060405180830381858888f193505050501580156103c3573d6000803e3d6000fd5b50600260003373ffffffffffffffffffffffffffffffffffffffff1673ffffffffffffffffffffffffffffffffffffffff168152602001908152602001600020549050919050565b6000600160009054906101000a900473ffffffffffffffffffffffffffffffffffffffff1673ffffffffffffffffffffffffffffffffffffffff163373ffffffffffffffffffffffffffffffffffffffff161461049d576040517f08c379a000000000000000000000000000000000000000000000000000000000815260040161049490610a50565b60405180910390fd5b47905090565b600080600260003373ffffffffffffffffffffffffffffffffffffffff1673ffffffffffffffffffffffffffffffffffffffff1681526020019081526020016000205411610526576040517f08c379a000000000000000000000000000000000000000000000000000000000815260040161051d90610b08565b60405180910390fd5b92915050565b600080600260008473ffffffffffffffffffffffffffffffffffffffff1673ffffffffffffffffffffffffffffffffffffffff16815260200190815260200160002054141561057a57600080fd5b34600260008473ffffffffffffffffffffffffffffffffffffffff1673ffffffffffffffffffffffffffffffffffffffff16815260200190815260200160002060008282546105c9919061087c565b92505081905550600260008373ffffffffffffffffffffffffffffffffffffffff1673ffffffffffffffffffffffffffffffffffffffff168152602001908152602001600020549050919050565b600080fd5b6000819050919050565b61062f8161061c565b811461063a57600080fd5b50565b60008135905061064c81610626565b92915050565b60006020828403121561066857610667610617565b5b60006106768482850161063d565b91505092915050565b6106888161061c565b82525050565b60006020820190506106a3600083018461067f565b92915050565b600073ffffffffffffffffffffffffffffffffffffffff82169050919050565b60006106d4826106a9565b9050919050565b6106e4816106c9565b81146106ef57600080fd5b50565b600081359050610701816106db565b92915050565b6000806040838503121561071e5761071d610617565b5b600061072c858286016106f2565b925050602061073d858286016106f2565b9150509250929050565b60008115159050919050565b61075c81610747565b82525050565b60006020820190506107776000830184610753565b92915050565b60006020828403121561079357610792610617565b5b60006107a1848285016106f2565b91505092915050565b600082825260208201905092915050565b7f5468657265206d7573742061206d696e696d756d2062616c616e6365206f662060008201527f3120657468657200000000000000000000000000000000000000000000000000602082015250565b60006108176027836107aa565b9150610822826107bb565b604082019050919050565b600060208201905081810360008301526108468161080a565b9050919050565b7f4e487b7100000000000000000000000000000000000000000000000000000000600052601160045260246000fd5b60006108878261061c565b91506108928361061c565b9250827fffffffffffffffffffffffffffffffffffffffffffffffffffffffffffffffff038211156108c7576108c661084d565b5b828201905092915050565b7f576974682064726177616c2076616c7565206e6f7420636f7272656374000000600082015250565b6000610908601d836107aa565b9150610913826108d2565b602082019050919050565b60006020820190508181036000830152610937816108fb565b9050919050565b7f536563726574206b6579206469646e2774206d61746368656400000000000000600082015250565b60006109746019836107aa565b915061097f8261093e565b602082019050919050565b600060208201905081810360008301526109a381610967565b9050919050565b60006109b58261061c565b91506109c08361061c565b9250828210156109d3576109d261084d565b5b828203905092915050565b7f4f776e6572206f662062616e6b206469646e27742063616c6c2074686520667560008201527f6e6374696f6e0000000000000000000000000000000000000000000000000000602082015250565b6000610a3a6026836107aa565b9150610a45826109de565b604082019050919050565b60006020820190508181036000830152610a6981610a2d565b9050919050565b7f596f7572206163636f756e742062616c616e6365206d69676874206265206c6f60008201527f77206f7220796f7520617265207472616e7366657272696e6720746f206e6f6e60208201527f206578697374696e672075736572000000000000000000000000000000000000604082015250565b6000610af2604e836107aa565b9150610afd82610a70565b606082019050919050565b60006020820190508181036000830152610b2181610ae5565b905091905056fea2646970667358221220690d1bcbddea62889a22a2e97a6cf3b50b118a25f53bc56271a78d111d1bbfa264736f6c63430008090033",
					"opcodes": "PUSH1 0x80 PUSH1 0x40 MSTORE PUSH8 0xDE0B6B3A7640000 PUSH1 0x0 SSTORE CALLVALUE DUP1 ISZERO PUSH2 0x1C JUMPI PUSH1 0x0 DUP1 REVERT JUMPDEST POP CALLER PUSH1 0x1 PUSH1 0x0 PUSH2 0x100 EXP DUP2 SLOAD DUP2 PUSH20 0xFFFFFFFFFFFFFFFFFFFFFFFFFFFFFFFFFFFFFFFF MUL NOT AND SWAP1 DUP4 PUSH20 0xFFFFFFFFFFFFFFFFFFFFFFFFFFFFFFFFFFFFFFFF AND MUL OR SWAP1 SSTORE POP PUSH2 0xB5E DUP1 PUSH2 0x6D PUSH1 0x0 CODECOPY PUSH1 0x0 RETURN INVALID PUSH1 0x80 PUSH1 0x40 MSTORE PUSH1 0x4 CALLDATASIZE LT PUSH2 0x4A JUMPI PUSH1 0x0 CALLDATALOAD PUSH1 0xE0 SHR DUP1 PUSH4 0x1000420D EQ PUSH2 0x4F JUMPI DUP1 PUSH4 0x14174F33 EQ PUSH2 0x7F JUMPI DUP1 PUSH4 0x38A2CA40 EQ PUSH2 0xAF JUMPI DUP1 PUSH4 0xBA45B0B8 EQ PUSH2 0xDA JUMPI DUP1 PUSH4 0xF340FA01 EQ PUSH2 0x10A JUMPI JUMPDEST PUSH1 0x0 DUP1 REVERT JUMPDEST PUSH2 0x69 PUSH1 0x4 DUP1 CALLDATASIZE SUB DUP2 ADD SWAP1 PUSH2 0x64 SWAP2 SWAP1 PUSH2 0x652 JUMP JUMPDEST PUSH2 0x13A JUMP JUMPDEST PUSH1 0x40 MLOAD PUSH2 0x76 SWAP2 SWAP1 PUSH2 0x68E JUMP JUMPDEST PUSH1 0x40 MLOAD DUP1 SWAP2 SUB SWAP1 RETURN JUMPDEST PUSH2 0x99 PUSH1 0x4 DUP1 CALLDATASIZE SUB DUP2 ADD SWAP1 PUSH2 0x94 SWAP2 SWAP1 PUSH2 0x652 JUMP JUMPDEST PUSH2 0x261 JUMP JUMPDEST PUSH1 0x40 MLOAD PUSH2 0xA6 SWAP2 SWAP1 PUSH2 0x68E JUMP JUMPDEST PUSH1 0x40 MLOAD DUP1 SWAP2 SUB SWAP1 RETURN JUMPDEST CALLVALUE DUP1 ISZERO PUSH2 0xBB JUMPI PUSH1 0x0 DUP1 REVERT JUMPDEST POP PUSH2 0xC4 PUSH2 0x40B JUMP JUMPDEST PUSH1 0x40 MLOAD PUSH2 0xD1 SWAP2 SWAP1 PUSH2 0x68E JUMP JUMPDEST PUSH1 0x40 MLOAD DUP1 SWAP2 SUB SWAP1 RETURN JUMPDEST PUSH2 0xF4 PUSH1 0x4 DUP1 CALLDATASIZE SUB DUP2 ADD SWAP1 PUSH2 0xEF SWAP2 SWAP1 PUSH2 0x707 JUMP JUMPDEST PUSH2 0x4A3 JUMP JUMPDEST PUSH1 0x40 MLOAD PUSH2 0x101 SWAP2 SWAP1 PUSH2 0x762 JUMP JUMPDEST PUSH1 0x40 MLOAD DUP1 SWAP2 SUB SWAP1 RETURN JUMPDEST PUSH2 0x124 PUSH1 0x4 DUP1 CALLDATASIZE SUB DUP2 ADD SWAP1 PUSH2 0x11F SWAP2 SWAP1 PUSH2 0x77D JUMP JUMPDEST PUSH2 0x52C JUMP JUMPDEST PUSH1 0x40 MLOAD PUSH2 0x131 SWAP2 SWAP1 PUSH2 0x68E JUMP JUMPDEST PUSH1 0x40 MLOAD DUP1 SWAP2 SUB SWAP1 RETURN JUMPDEST PUSH1 0x0 DUP1 SLOAD CALLVALUE LT ISZERO PUSH2 0x180 JUMPI PUSH1 0x40 MLOAD PUSH32 0x8C379A000000000000000000000000000000000000000000000000000000000 DUP2 MSTORE PUSH1 0x4 ADD PUSH2 0x177 SWAP1 PUSH2 0x82D JUMP JUMPDEST PUSH1 0x40 MLOAD DUP1 SWAP2 SUB SWAP1 REVERT JUMPDEST CALLVALUE PUSH1 0x2 PUSH1 0x0 CALLER PUSH20 0xFFFFFFFFFFFFFFFFFFFFFFFFFFFFFFFFFFFFFFFF AND PUSH20 0xFFFFFFFFFFFFFFFFFFFFFFFFFFFFFFFFFFFFFFFF AND DUP2 MSTORE PUSH1 0x20 ADD SWAP1 DUP2 MSTORE PUSH1 0x20 ADD PUSH1 0x0 KECCAK256 PUSH1 0x0 DUP3 DUP3 SLOAD PUSH2 0x1CF SWAP2 SWAP1 PUSH2 0x87C JUMP JUMPDEST SWAP3 POP POP DUP2 SWAP1 SSTORE POP DUP2 PUSH1 0x3 PUSH1 0x0 CALLER PUSH20 0xFFFFFFFFFFFFFFFFFFFFFFFFFFFFFFFFFFFFFFFF AND PUSH20 0xFFFFFFFFFFFFFFFFFFFFFFFFFFFFFFFFFFFFFFFF AND DUP2 MSTORE PUSH1 0x20 ADD SWAP1 DUP2 MSTORE PUSH1 0x20 ADD PUSH1 0x0 KECCAK256 DUP2 SWAP1 SSTORE POP PUSH1 0x2 PUSH1 0x0 CALLER PUSH20 0xFFFFFFFFFFFFFFFFFFFFFFFFFFFFFFFFFFFFFFFF AND PUSH20 0xFFFFFFFFFFFFFFFFFFFFFFFFFFFFFFFFFFFFFFFF AND DUP2 MSTORE PUSH1 0x20 ADD SWAP1 DUP2 MSTORE PUSH1 0x20 ADD PUSH1 0x0 KECCAK256 SLOAD SWAP1 POP SWAP2 SWAP1 POP JUMP JUMPDEST PUSH1 0x0 SELFBALANCE CALLVALUE GT ISZERO PUSH2 0x2A6 JUMPI PUSH1 0x40 MLOAD PUSH32 0x8C379A000000000000000000000000000000000000000000000000000000000 DUP2 MSTORE PUSH1 0x4 ADD PUSH2 0x29D SWAP1 PUSH2 0x91E JUMP JUMPDEST PUSH1 0x40 MLOAD DUP1 SWAP2 SUB SWAP1 REVERT JUMPDEST DUP2 PUSH1 0x3 PUSH1 0x0 CALLER PUSH20 0xFFFFFFFFFFFFFFFFFFFFFFFFFFFFFFFFFFFFFFFF AND PUSH20 0xFFFFFFFFFFFFFFFFFFFFFFFFFFFFFFFFFFFFFFFF AND DUP2 MSTORE PUSH1 0x20 ADD SWAP1 DUP2 MSTORE PUSH1 0x20 ADD PUSH1 0x0 KECCAK256 SLOAD EQ PUSH2 0x327 JUMPI PUSH1 0x40 MLOAD PUSH32 0x8C379A000000000000000000000000000000000000000000000000000000000 DUP2 MSTORE PUSH1 0x4 ADD PUSH2 0x31E SWAP1 PUSH2 0x98A JUMP JUMPDEST PUSH1 0x40 MLOAD DUP1 SWAP2 SUB SWAP1 REVERT JUMPDEST CALLVALUE PUSH1 0x2 PUSH1 0x0 CALLER PUSH20 0xFFFFFFFFFFFFFFFFFFFFFFFFFFFFFFFFFFFFFFFF AND PUSH20 0xFFFFFFFFFFFFFFFFFFFFFFFFFFFFFFFFFFFFFFFF AND DUP2 MSTORE PUSH1 0x20 ADD SWAP1 DUP2 MSTORE PUSH1 0x20 ADD PUSH1 0x0 KECCAK256 PUSH1 0x0 DUP3 DUP3 SLOAD PUSH2 0x376 SWAP2 SWAP1 PUSH2 0x9AA JUMP JUMPDEST SWAP3 POP POP DUP2 SWAP1 SSTORE POP CALLER PUSH20 0xFFFFFFFFFFFFFFFFFFFFFFFFFFFFFFFFFFFFFFFF AND PUSH2 0x8FC SELFBALANCE SWAP1 DUP2 ISZERO MUL SWAP1 PUSH1 0x40 MLOAD PUSH1 0x0 PUSH1 0x40 MLOAD DUP1 DUP4 SUB DUP2 DUP6 DUP9 DUP9 CALL SWAP4 POP POP POP POP ISZERO DUP1 ISZERO PUSH2 0x3C3 JUMPI RETURNDATASIZE PUSH1 0x0 DUP1 RETURNDATACOPY RETURNDATASIZE PUSH1 0x0 REVERT JUMPDEST POP PUSH1 0x2 PUSH1 0x0 CALLER PUSH20 0xFFFFFFFFFFFFFFFFFFFFFFFFFFFFFFFFFFFFFFFF AND PUSH20 0xFFFFFFFFFFFFFFFFFFFFFFFFFFFFFFFFFFFFFFFF AND DUP2 MSTORE PUSH1 0x20 ADD SWAP1 DUP2 MSTORE PUSH1 0x20 ADD PUSH1 0x0 KECCAK256 SLOAD SWAP1 POP SWAP2 SWAP1 POP JUMP JUMPDEST PUSH1 0x0 PUSH1 0x1 PUSH1 0x0 SWAP1 SLOAD SWAP1 PUSH2 0x100 EXP SWAP1 DIV PUSH20 0xFFFFFFFFFFFFFFFFFFFFFFFFFFFFFFFFFFFFFFFF AND PUSH20 0xFFFFFFFFFFFFFFFFFFFFFFFFFFFFFFFFFFFFFFFF AND CALLER PUSH20 0xFFFFFFFFFFFFFFFFFFFFFFFFFFFFFFFFFFFFFFFF AND EQ PUSH2 0x49D JUMPI PUSH1 0x40 MLOAD PUSH32 0x8C379A000000000000000000000000000000000000000000000000000000000 DUP2 MSTORE PUSH1 0x4 ADD PUSH2 0x494 SWAP1 PUSH2 0xA50 JUMP JUMPDEST PUSH1 0x40 MLOAD DUP1 SWAP2 SUB SWAP1 REVERT JUMPDEST SELFBALANCE SWAP1 POP SWAP1 JUMP JUMPDEST PUSH1 0x0 DUP1 PUSH1 0x2 PUSH1 0x0 CALLER PUSH20 0xFFFFFFFFFFFFFFFFFFFFFFFFFFFFFFFFFFFFFFFF AND PUSH20 0xFFFFFFFFFFFFFFFFFFFFFFFFFFFFFFFFFFFFFFFF AND DUP2 MSTORE PUSH1 0x20 ADD SWAP1 DUP2 MSTORE PUSH1 0x20 ADD PUSH1 0x0 KECCAK256 SLOAD GT PUSH2 0x526 JUMPI PUSH1 0x40 MLOAD PUSH32 0x8C379A000000000000000000000000000000000000000000000000000000000 DUP2 MSTORE PUSH1 0x4 ADD PUSH2 0x51D SWAP1 PUSH2 0xB08 JUMP JUMPDEST PUSH1 0x40 MLOAD DUP1 SWAP2 SUB SWAP1 REVERT JUMPDEST SWAP3 SWAP2 POP POP JUMP JUMPDEST PUSH1 0x0 DUP1 PUSH1 0x2 PUSH1 0x0 DUP5 PUSH20 0xFFFFFFFFFFFFFFFFFFFFFFFFFFFFFFFFFFFFFFFF AND PUSH20 0xFFFFFFFFFFFFFFFFFFFFFFFFFFFFFFFFFFFFFFFF AND DUP2 MSTORE PUSH1 0x20 ADD SWAP1 DUP2 MSTORE PUSH1 0x20 ADD PUSH1 0x0 KECCAK256 SLOAD EQ ISZERO PUSH2 0x57A JUMPI PUSH1 0x0 DUP1 REVERT JUMPDEST CALLVALUE PUSH1 0x2 PUSH1 0x0 DUP5 PUSH20 0xFFFFFFFFFFFFFFFFFFFFFFFFFFFFFFFFFFFFFFFF AND PUSH20 0xFFFFFFFFFFFFFFFFFFFFFFFFFFFFFFFFFFFFFFFF AND DUP2 MSTORE PUSH1 0x20 ADD SWAP1 DUP2 MSTORE PUSH1 0x20 ADD PUSH1 0x0 KECCAK256 PUSH1 0x0 DUP3 DUP3 SLOAD PUSH2 0x5C9 SWAP2 SWAP1 PUSH2 0x87C JUMP JUMPDEST SWAP3 POP POP DUP2 SWAP1 SSTORE POP PUSH1 0x2 PUSH1 0x0 DUP4 PUSH20 0xFFFFFFFFFFFFFFFFFFFFFFFFFFFFFFFFFFFFFFFF AND PUSH20 0xFFFFFFFFFFFFFFFFFFFFFFFFFFFFFFFFFFFFFFFF AND DUP2 MSTORE PUSH1 0x20 ADD SWAP1 DUP2 MSTORE PUSH1 0x20 ADD PUSH1 0x0 KECCAK256 SLOAD SWAP1 POP SWAP2 SWAP1 POP JUMP JUMPDEST PUSH1 0x0 DUP1 REVERT JUMPDEST PUSH1 0x0 DUP2 SWAP1 POP SWAP2 SWAP1 POP JUMP JUMPDEST PUSH2 0x62F DUP2 PUSH2 0x61C JUMP JUMPDEST DUP2 EQ PUSH2 0x63A JUMPI PUSH1 0x0 DUP1 REVERT JUMPDEST POP JUMP JUMPDEST PUSH1 0x0 DUP2 CALLDATALOAD SWAP1 POP PUSH2 0x64C DUP2 PUSH2 0x626 JUMP JUMPDEST SWAP3 SWAP2 POP POP JUMP JUMPDEST PUSH1 0x0 PUSH1 0x20 DUP3 DUP5 SUB SLT ISZERO PUSH2 0x668 JUMPI PUSH2 0x667 PUSH2 0x617 JUMP JUMPDEST JUMPDEST PUSH1 0x0 PUSH2 0x676 DUP5 DUP3 DUP6 ADD PUSH2 0x63D JUMP JUMPDEST SWAP2 POP POP SWAP3 SWAP2 POP POP JUMP JUMPDEST PUSH2 0x688 DUP2 PUSH2 0x61C JUMP JUMPDEST DUP3 MSTORE POP POP JUMP JUMPDEST PUSH1 0x0 PUSH1 0x20 DUP3 ADD SWAP1 POP PUSH2 0x6A3 PUSH1 0x0 DUP4 ADD DUP5 PUSH2 0x67F JUMP JUMPDEST SWAP3 SWAP2 POP POP JUMP JUMPDEST PUSH1 0x0 PUSH20 0xFFFFFFFFFFFFFFFFFFFFFFFFFFFFFFFFFFFFFFFF DUP3 AND SWAP1 POP SWAP2 SWAP1 POP JUMP JUMPDEST PUSH1 0x0 PUSH2 0x6D4 DUP3 PUSH2 0x6A9 JUMP JUMPDEST SWAP1 POP SWAP2 SWAP1 POP JUMP JUMPDEST PUSH2 0x6E4 DUP2 PUSH2 0x6C9 JUMP JUMPDEST DUP2 EQ PUSH2 0x6EF JUMPI PUSH1 0x0 DUP1 REVERT JUMPDEST POP JUMP JUMPDEST PUSH1 0x0 DUP2 CALLDATALOAD SWAP1 POP PUSH2 0x701 DUP2 PUSH2 0x6DB JUMP JUMPDEST SWAP3 SWAP2 POP POP JUMP JUMPDEST PUSH1 0x0 DUP1 PUSH1 0x40 DUP4 DUP6 SUB SLT ISZERO PUSH2 0x71E JUMPI PUSH2 0x71D PUSH2 0x617 JUMP JUMPDEST JUMPDEST PUSH1 0x0 PUSH2 0x72C DUP6 DUP3 DUP7 ADD PUSH2 0x6F2 JUMP JUMPDEST SWAP3 POP POP PUSH1 0x20 PUSH2 0x73D DUP6 DUP3 DUP7 ADD PUSH2 0x6F2 JUMP JUMPDEST SWAP2 POP POP SWAP3 POP SWAP3 SWAP1 POP JUMP JUMPDEST PUSH1 0x0 DUP2 ISZERO ISZERO SWAP1 POP SWAP2 SWAP1 POP JUMP JUMPDEST PUSH2 0x75C DUP2 PUSH2 0x747 JUMP JUMPDEST DUP3 MSTORE POP POP JUMP JUMPDEST PUSH1 0x0 PUSH1 0x20 DUP3 ADD SWAP1 POP PUSH2 0x777 PUSH1 0x0 DUP4 ADD DUP5 PUSH2 0x753 JUMP JUMPDEST SWAP3 SWAP2 POP POP JUMP JUMPDEST PUSH1 0x0 PUSH1 0x20 DUP3 DUP5 SUB SLT ISZERO PUSH2 0x793 JUMPI PUSH2 0x792 PUSH2 0x617 JUMP JUMPDEST JUMPDEST PUSH1 0x0 PUSH2 0x7A1 DUP5 DUP3 DUP6 ADD PUSH2 0x6F2 JUMP JUMPDEST SWAP2 POP POP SWAP3 SWAP2 POP POP JUMP JUMPDEST PUSH1 0x0 DUP3 DUP3 MSTORE PUSH1 0x20 DUP3 ADD SWAP1 POP SWAP3 SWAP2 POP POP JUMP JUMPDEST PUSH32 0x5468657265206D7573742061206D696E696D756D2062616C616E6365206F6620 PUSH1 0x0 DUP3 ADD MSTORE PUSH32 0x3120657468657200000000000000000000000000000000000000000000000000 PUSH1 0x20 DUP3 ADD MSTORE POP JUMP JUMPDEST PUSH1 0x0 PUSH2 0x817 PUSH1 0x27 DUP4 PUSH2 0x7AA JUMP JUMPDEST SWAP2 POP PUSH2 0x822 DUP3 PUSH2 0x7BB JUMP JUMPDEST PUSH1 0x40 DUP3 ADD SWAP1 POP SWAP2 SWAP1 POP JUMP JUMPDEST PUSH1 0x0 PUSH1 0x20 DUP3 ADD SWAP1 POP DUP2 DUP2 SUB PUSH1 0x0 DUP4 ADD MSTORE PUSH2 0x846 DUP2 PUSH2 0x80A JUMP JUMPDEST SWAP1 POP SWAP2 SWAP1 POP JUMP JUMPDEST PUSH32 0x4E487B7100000000000000000000000000000000000000000000000000000000 PUSH1 0x0 MSTORE PUSH1 0x11 PUSH1 0x4 MSTORE PUSH1 0x24 PUSH1 0x0 REVERT JUMPDEST PUSH1 0x0 PUSH2 0x887 DUP3 PUSH2 0x61C JUMP JUMPDEST SWAP2 POP PUSH2 0x892 DUP4 PUSH2 0x61C JUMP JUMPDEST SWAP3 POP DUP3 PUSH32 0xFFFFFFFFFFFFFFFFFFFFFFFFFFFFFFFFFFFFFFFFFFFFFFFFFFFFFFFFFFFFFFFF SUB DUP3 GT ISZERO PUSH2 0x8C7 JUMPI PUSH2 0x8C6 PUSH2 0x84D JUMP JUMPDEST JUMPDEST DUP3 DUP3 ADD SWAP1 POP SWAP3 SWAP2 POP POP JUMP JUMPDEST PUSH32 0x576974682064726177616C2076616C7565206E6F7420636F7272656374000000 PUSH1 0x0 DUP3 ADD MSTORE POP JUMP JUMPDEST PUSH1 0x0 PUSH2 0x908 PUSH1 0x1D DUP4 PUSH2 0x7AA JUMP JUMPDEST SWAP2 POP PUSH2 0x913 DUP3 PUSH2 0x8D2 JUMP JUMPDEST PUSH1 0x20 DUP3 ADD SWAP1 POP SWAP2 SWAP1 POP JUMP JUMPDEST PUSH1 0x0 PUSH1 0x20 DUP3 ADD SWAP1 POP DUP2 DUP2 SUB PUSH1 0x0 DUP4 ADD MSTORE PUSH2 0x937 DUP2 PUSH2 0x8FB JUMP JUMPDEST SWAP1 POP SWAP2 SWAP1 POP JUMP JUMPDEST PUSH32 0x536563726574206B6579206469646E2774206D61746368656400000000000000 PUSH1 0x0 DUP3 ADD MSTORE POP JUMP JUMPDEST PUSH1 0x0 PUSH2 0x974 PUSH1 0x19 DUP4 PUSH2 0x7AA JUMP JUMPDEST SWAP2 POP PUSH2 0x97F DUP3 PUSH2 0x93E JUMP JUMPDEST PUSH1 0x20 DUP3 ADD SWAP1 POP SWAP2 SWAP1 POP JUMP JUMPDEST PUSH1 0x0 PUSH1 0x20 DUP3 ADD SWAP1 POP DUP2 DUP2 SUB PUSH1 0x0 DUP4 ADD MSTORE PUSH2 0x9A3 DUP2 PUSH2 0x967 JUMP JUMPDEST SWAP1 POP SWAP2 SWAP1 POP JUMP JUMPDEST PUSH1 0x0 PUSH2 0x9B5 DUP3 PUSH2 0x61C JUMP JUMPDEST SWAP2 POP PUSH2 0x9C0 DUP4 PUSH2 0x61C JUMP JUMPDEST SWAP3 POP DUP3 DUP3 LT ISZERO PUSH2 0x9D3 JUMPI PUSH2 0x9D2 PUSH2 0x84D JUMP JUMPDEST JUMPDEST DUP3 DUP3 SUB SWAP1 POP SWAP3 SWAP2 POP POP JUMP JUMPDEST PUSH32 0x4F776E6572206F662062616E6B206469646E27742063616C6C20746865206675 PUSH1 0x0 DUP3 ADD MSTORE PUSH32 0x6E6374696F6E0000000000000000000000000000000000000000000000000000 PUSH1 0x20 DUP3 ADD MSTORE POP JUMP JUMPDEST PUSH1 0x0 PUSH2 0xA3A PUSH1 0x26 DUP4 PUSH2 0x7AA JUMP JUMPDEST SWAP2 POP PUSH2 0xA45 DUP3 PUSH2 0x9DE JUMP JUMPDEST PUSH1 0x40 DUP3 ADD SWAP1 POP SWAP2 SWAP1 POP JUMP JUMPDEST PUSH1 0x0 PUSH1 0x20 DUP3 ADD SWAP1 POP DUP2 DUP2 SUB PUSH1 0x0 DUP4 ADD MSTORE PUSH2 0xA69 DUP2 PUSH2 0xA2D JUMP JUMPDEST SWAP1 POP SWAP2 SWAP1 POP JUMP JUMPDEST PUSH32 0x596F7572206163636F756E742062616C616E6365206D69676874206265206C6F PUSH1 0x0 DUP3 ADD MSTORE PUSH32 0x77206F7220796F7520617265207472616E7366657272696E6720746F206E6F6E PUSH1 0x20 DUP3 ADD MSTORE PUSH32 0x206578697374696E672075736572000000000000000000000000000000000000 PUSH1 0x40 DUP3 ADD MSTORE POP JUMP JUMPDEST PUSH1 0x0 PUSH2 0xAF2 PUSH1 0x4E DUP4 PUSH2 0x7AA JUMP JUMPDEST SWAP2 POP PUSH2 0xAFD DUP3 PUSH2 0xA70 JUMP JUMPDEST PUSH1 0x60 DUP3 ADD SWAP1 POP SWAP2 SWAP1 POP JUMP JUMPDEST PUSH1 0x0 PUSH1 0x20 DUP3 ADD SWAP1 POP DUP2 DUP2 SUB PUSH1 0x0 DUP4 ADD MSTORE PUSH2 0xB21 DUP2 PUSH2 0xAE5 JUMP JUMPDEST SWAP1 POP SWAP2 SWAP1 POP JUMP INVALID LOG2 PUSH5 0x6970667358 0x22 SLT KECCAK256 PUSH10 0xD1BCBDDEA62889A22A2 0xE9 PUSH27 0x6CF3B50B118A25F53BC56271A78D111D1BBFA264736F6C63430008 MULMOD STOP CALLER "
				},
				"gasEstimates": {
					"creation": {
						"codeDepositCost": "582000",
						"executionCost": "46985",
						"totalCost": "628985"
					},
					"external": {
						"deposit(address)": "infinite",
						"getTotalBankBalance()": "2646",
						"openAccount(uint256)": "infinite",
						"transfer(address,address)": "infinite",
						"withDraw(uint256)": "infinite"
					}
				},
				"methodIdentifiers": {
					"deposit(address)": "f340fa01",
					"getTotalBankBalance()": "38a2ca40",
					"openAccount(uint256)": "1000420d",
					"transfer(address,address)": "ba45b0b8",
					"withDraw(uint256)": "14174f33"
				}
			},
			"storageLayout": {
				"storage": [
					{
						"astId": 4,
						"contract": "ActualBank.sol:ActualBank",
						"label": "minAccountBalance",
						"offset": 0,
						"slot": "0",
						"type": "t_uint256"
					},
					{
						"astId": 6,
						"contract": "ActualBank.sol:ActualBank",
						"label": "owner",
						"offset": 0,
						"slot": "1",
						"type": "t_address_payable"
					},
					{
						"astId": 10,
						"contract": "ActualBank.sol:ActualBank",
						"label": "balance",
						"offset": 0,
						"slot": "2",
						"type": "t_mapping(t_address,t_uint256)"
					},
					{
						"astId": 14,
						"contract": "ActualBank.sol:ActualBank",
						"label": "secretKey",
						"offset": 0,
						"slot": "3",
						"type": "t_mapping(t_address,t_uint256)"
					}
				],
				"types": {
					"t_address": {
						"encoding": "inplace",
						"label": "address",
						"numberOfBytes": "20"
					},
					"t_address_payable": {
						"encoding": "inplace",
						"label": "address payable",
						"numberOfBytes": "20"
					},
					"t_mapping(t_address,t_uint256)": {
						"encoding": "mapping",
						"key": "t_address",
						"label": "mapping(address => uint256)",
						"numberOfBytes": "32",
						"value": "t_uint256"
					},
					"t_uint256": {
						"encoding": "inplace",
						"label": "uint256",
						"numberOfBytes": "32"
					}
				}
			},
			"userdoc": {
				"kind": "user",
				"methods": {},
				"version": 1
			}
		}
	}
}