{
	"Bank.sol": {
		"Bank": {
			"abi": [
				{
					"inputs": [],
					"stateMutability": "payable",
					"type": "constructor"
				},
				{
					"inputs": [],
					"name": "depositMoney",
					"outputs": [],
					"stateMutability": "payable",
					"type": "function"
				},
				{
					"inputs": [],
					"name": "openAccount",
					"outputs": [],
					"stateMutability": "payable",
					"type": "function"
				}
			],
			"devdoc": {
				"kind": "dev",
				"methods": {},
				"version": 1
			},
			"evm": {
				"assembly": "    /* \"Bank.sol\":71:586  contract Bank{... */\n  mstore(0x40, 0x80)\n    /* \"Bank.sol\":220:228  15 ether */\n  0xd02ab486cedc0000\n    /* \"Bank.sol\":207:216  msg.value */\n  callvalue\n    /* \"Bank.sol\":207:228  msg.value == 15 ether */\n  eq\n    /* \"Bank.sol\":199:278  require(msg.value == 15 ether, 'Initial 15 ether required for contract to run') */\n  tag_3\n  jumpi\n  mload(0x40)\n  0x08c379a000000000000000000000000000000000000000000000000000000000\n  dup2\n  mstore\n  0x04\n  add\n  tag_4\n  swap1\n  tag_5\n  jump\t// in\ntag_4:\n  mload(0x40)\n  dup1\n  swap2\n  sub\n  swap1\n  revert\ntag_3:\n    /* \"Bank.sol\":294:304  msg.sender */\n  caller\n    /* \"Bank.sol\":288:293  owner */\n  0x02\n  0x00\n    /* \"Bank.sol\":288:304  owner=msg.sender */\n  0x0100\n  exp\n  dup2\n  sload\n  dup2\n  0xffffffffffffffffffffffffffffffffffffffff\n  mul\n  not\n  and\n  swap1\n  dup4\n  0xffffffffffffffffffffffffffffffffffffffff\n  and\n  mul\n  or\n  swap1\n  sstore\n  pop\n    /* \"Bank.sol\":71:586  contract Bank{... */\n  jump(tag_6)\n    /* \"#utility.yul\":7:176   */\ntag_7:\n    /* \"#utility.yul\":91:102   */\n  0x00\n    /* \"#utility.yul\":125:131   */\n  dup3\n    /* \"#utility.yul\":120:123   */\n  dup3\n    /* \"#utility.yul\":113:132   */\n  mstore\n    /* \"#utility.yul\":165:169   */\n  0x20\n    /* \"#utility.yul\":160:163   */\n  dup3\n    /* \"#utility.yul\":156:170   */\n  add\n    /* \"#utility.yul\":141:170   */\n  swap1\n  pop\n    /* \"#utility.yul\":7:176   */\n  swap3\n  swap2\n  pop\n  pop\n  jump\t// out\n    /* \"#utility.yul\":182:414   */\ntag_8:\n    /* \"#utility.yul\":322:356   */\n  0x496e697469616c20313520657468657220726571756972656420666f7220636f\n    /* \"#utility.yul\":318:319   */\n  0x00\n    /* \"#utility.yul\":310:316   */\n  dup3\n    /* \"#utility.yul\":306:320   */\n  add\n    /* \"#utility.yul\":299:357   */\n  mstore\n    /* \"#utility.yul\":391:406   */\n  0x6e747261637420746f2072756e00000000000000000000000000000000000000\n    /* \"#utility.yul\":386:388   */\n  0x20\n    /* \"#utility.yul\":378:384   */\n  dup3\n    /* \"#utility.yul\":374:389   */\n  add\n    /* \"#utility.yul\":367:407   */\n  mstore\n    /* \"#utility.yul\":182:414   */\n  pop\n  jump\t// out\n    /* \"#utility.yul\":420:786   */\ntag_9:\n    /* \"#utility.yul\":562:565   */\n  0x00\n    /* \"#utility.yul\":583:650   */\n  tag_14\n    /* \"#utility.yul\":647:649   */\n  0x2d\n    /* \"#utility.yul\":642:645   */\n  dup4\n    /* \"#utility.yul\":583:650   */\n  tag_7\n  jump\t// in\ntag_14:\n    /* \"#utility.yul\":576:650   */\n  swap2\n  pop\n    /* \"#utility.yul\":659:752   */\n  tag_15\n    /* \"#utility.yul\":748:751   */\n  dup3\n    /* \"#utility.yul\":659:752   */\n  tag_8\n  jump\t// in\ntag_15:\n    /* \"#utility.yul\":777:779   */\n  0x40\n    /* \"#utility.yul\":772:775   */\n  dup3\n    /* \"#utility.yul\":768:780   */\n  add\n    /* \"#utility.yul\":761:780   */\n  swap1\n  pop\n    /* \"#utility.yul\":420:786   */\n  swap2\n  swap1\n  pop\n  jump\t// out\n    /* \"#utility.yul\":792:1211   */\ntag_5:\n    /* \"#utility.yul\":958:962   */\n  0x00\n    /* \"#utility.yul\":996:998   */\n  0x20\n    /* \"#utility.yul\":985:994   */\n  dup3\n    /* \"#utility.yul\":981:999   */\n  add\n    /* \"#utility.yul\":973:999   */\n  swap1\n  pop\n    /* \"#utility.yul\":1045:1054   */\n  dup2\n    /* \"#utility.yul\":1039:1043   */\n  dup2\n    /* \"#utility.yul\":1035:1055   */\n  sub\n    /* \"#utility.yul\":1031:1032   */\n  0x00\n    /* \"#utility.yul\":1020:1029   */\n  dup4\n    /* \"#utility.yul\":1016:1033   */\n  add\n    /* \"#utility.yul\":1009:1056   */\n  mstore\n    /* \"#utility.yul\":1073:1204   */\n  tag_17\n    /* \"#utility.yul\":1199:1203   */\n  dup2\n    /* \"#utility.yul\":1073:1204   */\n  tag_9\n  jump\t// in\ntag_17:\n    /* \"#utility.yul\":1065:1204   */\n  swap1\n  pop\n    /* \"#utility.yul\":792:1211   */\n  swap2\n  swap1\n  pop\n  jump\t// out\n    /* \"Bank.sol\":71:586  contract Bank{... */\ntag_6:\n  dataSize(sub_0)\n  dup1\n  dataOffset(sub_0)\n  0x00\n  codecopy\n  0x00\n  return\nstop\n\nsub_0: assembly {\n        /* \"Bank.sol\":71:586  contract Bank{... */\n      mstore(0x40, 0x80)\n      jumpi(tag_1, lt(calldatasize, 0x04))\n      shr(0xe0, calldataload(0x00))\n      dup1\n      0x16c05aa2\n      eq\n      tag_2\n      jumpi\n      dup1\n      0x292eb75d\n      eq\n      tag_3\n      jumpi\n    tag_1:\n      0x00\n      dup1\n      revert\n        /* \"Bank.sol\":530:584  function depositMoney() public payable{... */\n    tag_2:\n      tag_4\n      tag_5\n      jump\t// in\n    tag_4:\n      stop\n        /* \"Bank.sol\":316:525  function openAccount() public payable {... */\n    tag_3:\n      tag_6\n      tag_7\n      jump\t// in\n    tag_6:\n      stop\n        /* \"Bank.sol\":530:584  function depositMoney() public payable{... */\n    tag_5:\n      jump\t// out\n        /* \"Bank.sol\":316:525  function openAccount() public payable {... */\n    tag_7:\n        /* \"Bank.sol\":378:379  3 */\n      0x03\n        /* \"Bank.sol\":367:376  userCount */\n      sload(0x01)\n        /* \"Bank.sol\":367:379  userCount<=3 */\n      gt\n        /* \"Bank.sol\":364:498  if(userCount<=3){... */\n      tag_10\n      jumpi\n        /* \"Bank.sol\":415:422  5 ether */\n      0x4563918244f40000\n        /* \"Bank.sol\":394:401  balance */\n      0x00\n        /* \"Bank.sol\":394:413  balance[msg.sender] */\n      dup1\n        /* \"Bank.sol\":402:412  msg.sender */\n      caller\n        /* \"Bank.sol\":394:413  balance[msg.sender] */\n      0xffffffffffffffffffffffffffffffffffffffff\n      and\n      0xffffffffffffffffffffffffffffffffffffffff\n      and\n      dup2\n      mstore\n      0x20\n      add\n      swap1\n      dup2\n      mstore\n      0x20\n      add\n      0x00\n      keccak256\n        /* \"Bank.sol\":394:422  balance[msg.sender]= 5 ether */\n      dup2\n      swap1\n      sstore\n      pop\n        /* \"Bank.sol\":364:498  if(userCount<=3){... */\n      jump(tag_11)\n    tag_10:\n        /* \"Bank.sol\":480:487  0 ether */\n      0x00\n        /* \"Bank.sol\":460:467  balance */\n      dup1\n        /* \"Bank.sol\":460:479  balance[msg.sender] */\n      0x00\n        /* \"Bank.sol\":468:478  msg.sender */\n      caller\n        /* \"Bank.sol\":460:479  balance[msg.sender] */\n      0xffffffffffffffffffffffffffffffffffffffff\n      and\n      0xffffffffffffffffffffffffffffffffffffffff\n      and\n      dup2\n      mstore\n      0x20\n      add\n      swap1\n      dup2\n      mstore\n      0x20\n      add\n      0x00\n      keccak256\n        /* \"Bank.sol\":460:487  balance[msg.sender]=0 ether */\n      dup2\n      swap1\n      sstore\n      pop\n        /* \"Bank.sol\":364:498  if(userCount<=3){... */\n    tag_11:\n        /* \"Bank.sol\":507:516  userCount */\n      0x01\n      0x00\n        /* \"Bank.sol\":507:518  userCount++ */\n      dup2\n      sload\n      dup1\n      swap3\n      swap2\n      swap1\n      tag_12\n      swap1\n      tag_13\n      jump\t// in\n    tag_12:\n      swap2\n      swap1\n      pop\n      sstore\n      pop\n        /* \"Bank.sol\":316:525  function openAccount() public payable {... */\n      jump\t// out\n        /* \"#utility.yul\":7:187   */\n    tag_14:\n        /* \"#utility.yul\":55:132   */\n      0x4e487b7100000000000000000000000000000000000000000000000000000000\n        /* \"#utility.yul\":52:53   */\n      0x00\n        /* \"#utility.yul\":45:133   */\n      mstore\n        /* \"#utility.yul\":152:156   */\n      0x11\n        /* \"#utility.yul\":149:150   */\n      0x04\n        /* \"#utility.yul\":142:157   */\n      mstore\n        /* \"#utility.yul\":176:180   */\n      0x24\n        /* \"#utility.yul\":173:174   */\n      0x00\n        /* \"#utility.yul\":166:181   */\n      revert\n        /* \"#utility.yul\":193:270   */\n    tag_15:\n        /* \"#utility.yul\":230:237   */\n      0x00\n        /* \"#utility.yul\":259:264   */\n      dup2\n        /* \"#utility.yul\":248:264   */\n      swap1\n      pop\n        /* \"#utility.yul\":193:270   */\n      swap2\n      swap1\n      pop\n      jump\t// out\n        /* \"#utility.yul\":276:509   */\n    tag_13:\n        /* \"#utility.yul\":315:318   */\n      0x00\n        /* \"#utility.yul\":338:362   */\n      tag_20\n        /* \"#utility.yul\":356:361   */\n      dup3\n        /* \"#utility.yul\":338:362   */\n      tag_15\n      jump\t// in\n    tag_20:\n        /* \"#utility.yul\":329:362   */\n      swap2\n      pop\n        /* \"#utility.yul\":384:450   */\n      0xffffffffffffffffffffffffffffffffffffffffffffffffffffffffffffffff\n        /* \"#utility.yul\":377:382   */\n      dup3\n        /* \"#utility.yul\":374:451   */\n      eq\n        /* \"#utility.yul\":371:474   */\n      iszero\n      tag_21\n      jumpi\n        /* \"#utility.yul\":454:472   */\n      tag_22\n      tag_14\n      jump\t// in\n    tag_22:\n        /* \"#utility.yul\":371:474   */\n    tag_21:\n        /* \"#utility.yul\":501:502   */\n      0x01\n        /* \"#utility.yul\":494:499   */\n      dup3\n        /* \"#utility.yul\":490:503   */\n      add\n        /* \"#utility.yul\":483:503   */\n      swap1\n      pop\n        /* \"#utility.yul\":276:509   */\n      swap2\n      swap1\n      pop\n      jump\t// out\n\n    auxdata: 0xa2646970667358221220471ea8c20afd11fa685f45d9d05c351a688cc8d2f983d72f8f9dcd67129cd88d64736f6c63430008080033\n}\n",
				"bytecode": {
					"linkReferences": {},
					"object": "608060405267d02ab486cedc0000341461004e576040517f08c379a000000000000000000000000000000000000000000000000000000000815260040161004590610117565b60405180910390fd5b33600260006101000a81548173ffffffffffffffffffffffffffffffffffffffff021916908373ffffffffffffffffffffffffffffffffffffffff160217905550610137565b600082825260208201905092915050565b7f496e697469616c20313520657468657220726571756972656420666f7220636f60008201527f6e747261637420746f2072756e00000000000000000000000000000000000000602082015250565b6000610101602d83610094565b915061010c826100a5565b604082019050919050565b60006020820190508181036000830152610130816100f4565b9050919050565b6101b5806101466000396000f3fe6080604052600436106100295760003560e01c806316c05aa21461002e578063292eb75d14610038575b600080fd5b610036610042565b005b610040610044565b005b565b60036001541161009e57674563918244f400006000803373ffffffffffffffffffffffffffffffffffffffff1673ffffffffffffffffffffffffffffffffffffffff168152602001908152602001600020819055506100e3565b60008060003373ffffffffffffffffffffffffffffffffffffffff1673ffffffffffffffffffffffffffffffffffffffff168152602001908152602001600020819055505b600160008154809291906100f690610136565b9190505550565b7f4e487b7100000000000000000000000000000000000000000000000000000000600052601160045260246000fd5b6000819050919050565b60006101418261012c565b91507fffffffffffffffffffffffffffffffffffffffffffffffffffffffffffffffff821415610174576101736100fd565b5b60018201905091905056fea2646970667358221220471ea8c20afd11fa685f45d9d05c351a688cc8d2f983d72f8f9dcd67129cd88d64736f6c63430008080033",
					"opcodes": "PUSH1 0x80 PUSH1 0x40 MSTORE PUSH8 0xD02AB486CEDC0000 CALLVALUE EQ PUSH2 0x4E JUMPI PUSH1 0x40 MLOAD PUSH32 0x8C379A000000000000000000000000000000000000000000000000000000000 DUP2 MSTORE PUSH1 0x4 ADD PUSH2 0x45 SWAP1 PUSH2 0x117 JUMP JUMPDEST PUSH1 0x40 MLOAD DUP1 SWAP2 SUB SWAP1 REVERT JUMPDEST CALLER PUSH1 0x2 PUSH1 0x0 PUSH2 0x100 EXP DUP2 SLOAD DUP2 PUSH20 0xFFFFFFFFFFFFFFFFFFFFFFFFFFFFFFFFFFFFFFFF MUL NOT AND SWAP1 DUP4 PUSH20 0xFFFFFFFFFFFFFFFFFFFFFFFFFFFFFFFFFFFFFFFF AND MUL OR SWAP1 SSTORE POP PUSH2 0x137 JUMP JUMPDEST PUSH1 0x0 DUP3 DUP3 MSTORE PUSH1 0x20 DUP3 ADD SWAP1 POP SWAP3 SWAP2 POP POP JUMP JUMPDEST PUSH32 0x496E697469616C20313520657468657220726571756972656420666F7220636F PUSH1 0x0 DUP3 ADD MSTORE PUSH32 0x6E747261637420746F2072756E00000000000000000000000000000000000000 PUSH1 0x20 DUP3 ADD MSTORE POP JUMP JUMPDEST PUSH1 0x0 PUSH2 0x101 PUSH1 0x2D DUP4 PUSH2 0x94 JUMP JUMPDEST SWAP2 POP PUSH2 0x10C DUP3 PUSH2 0xA5 JUMP JUMPDEST PUSH1 0x40 DUP3 ADD SWAP1 POP SWAP2 SWAP1 POP JUMP JUMPDEST PUSH1 0x0 PUSH1 0x20 DUP3 ADD SWAP1 POP DUP2 DUP2 SUB PUSH1 0x0 DUP4 ADD MSTORE PUSH2 0x130 DUP2 PUSH2 0xF4 JUMP JUMPDEST SWAP1 POP SWAP2 SWAP1 POP JUMP JUMPDEST PUSH2 0x1B5 DUP1 PUSH2 0x146 PUSH1 0x0 CODECOPY PUSH1 0x0 RETURN INVALID PUSH1 0x80 PUSH1 0x40 MSTORE PUSH1 0x4 CALLDATASIZE LT PUSH2 0x29 JUMPI PUSH1 0x0 CALLDATALOAD PUSH1 0xE0 SHR DUP1 PUSH4 0x16C05AA2 EQ PUSH2 0x2E JUMPI DUP1 PUSH4 0x292EB75D EQ PUSH2 0x38 JUMPI JUMPDEST PUSH1 0x0 DUP1 REVERT JUMPDEST PUSH2 0x36 PUSH2 0x42 JUMP JUMPDEST STOP JUMPDEST PUSH2 0x40 PUSH2 0x44 JUMP JUMPDEST STOP JUMPDEST JUMP JUMPDEST PUSH1 0x3 PUSH1 0x1 SLOAD GT PUSH2 0x9E JUMPI PUSH8 0x4563918244F40000 PUSH1 0x0 DUP1 CALLER PUSH20 0xFFFFFFFFFFFFFFFFFFFFFFFFFFFFFFFFFFFFFFFF AND PUSH20 0xFFFFFFFFFFFFFFFFFFFFFFFFFFFFFFFFFFFFFFFF AND DUP2 MSTORE PUSH1 0x20 ADD SWAP1 DUP2 MSTORE PUSH1 0x20 ADD PUSH1 0x0 KECCAK256 DUP2 SWAP1 SSTORE POP PUSH2 0xE3 JUMP JUMPDEST PUSH1 0x0 DUP1 PUSH1 0x0 CALLER PUSH20 0xFFFFFFFFFFFFFFFFFFFFFFFFFFFFFFFFFFFFFFFF AND PUSH20 0xFFFFFFFFFFFFFFFFFFFFFFFFFFFFFFFFFFFFFFFF AND DUP2 MSTORE PUSH1 0x20 ADD SWAP1 DUP2 MSTORE PUSH1 0x20 ADD PUSH1 0x0 KECCAK256 DUP2 SWAP1 SSTORE POP JUMPDEST PUSH1 0x1 PUSH1 0x0 DUP2 SLOAD DUP1 SWAP3 SWAP2 SWAP1 PUSH2 0xF6 SWAP1 PUSH2 0x136 JUMP JUMPDEST SWAP2 SWAP1 POP SSTORE POP JUMP JUMPDEST PUSH32 0x4E487B7100000000000000000000000000000000000000000000000000000000 PUSH1 0x0 MSTORE PUSH1 0x11 PUSH1 0x4 MSTORE PUSH1 0x24 PUSH1 0x0 REVERT JUMPDEST PUSH1 0x0 DUP2 SWAP1 POP SWAP2 SWAP1 POP JUMP JUMPDEST PUSH1 0x0 PUSH2 0x141 DUP3 PUSH2 0x12C JUMP JUMPDEST SWAP2 POP PUSH32 0xFFFFFFFFFFFFFFFFFFFFFFFFFFFFFFFFFFFFFFFFFFFFFFFFFFFFFFFFFFFFFFFF DUP3 EQ ISZERO PUSH2 0x174 JUMPI PUSH2 0x173 PUSH2 0xFD JUMP JUMPDEST JUMPDEST PUSH1 0x1 DUP3 ADD SWAP1 POP SWAP2 SWAP1 POP JUMP INVALID LOG2 PUSH5 0x6970667358 0x22 SLT KECCAK256 SELFBALANCE 0x1E 0xA8 0xC2 EXP REVERT GT STATICCALL PUSH9 0x5F45D9D05C351A688C 0xC8 0xD2 0xF9 DUP4 0xD7 0x2F DUP16 SWAP14 0xCD PUSH8 0x129CD88D64736F6C PUSH4 0x43000808 STOP CALLER "
				},
				"gasEstimates": {
					"creation": {
						"codeDepositCost": "87400",
						"executionCost": "24411",
						"totalCost": "111811"
					},
					"external": {
						"depositMoney()": "98",
						"openAccount()": "48817"
					}
				},
				"methodIdentifiers": {
					"depositMoney()": "16c05aa2",
					"openAccount()": "292eb75d"
				}
			},
			"storageLayout": {
				"storage": [
					{
						"astId": 5,
						"contract": "Bank.sol:Bank",
						"label": "balance",
						"offset": 0,
						"slot": "0",
						"type": "t_mapping(t_address,t_uint256)"
					},
					{
						"astId": 7,
						"contract": "Bank.sol:Bank",
						"label": "userCount",
						"offset": 0,
						"slot": "1",
						"type": "t_uint256"
					},
					{
						"astId": 9,
						"contract": "Bank.sol:Bank",
						"label": "owner",
						"offset": 0,
						"slot": "2",
						"type": "t_address"
					}
				],
				"types": {
					"t_address": {
						"encoding": "inplace",
						"label": "address",
						"numberOfBytes": "20"
					},
					"t_mapping(t_address,t_uint256)": {
						"encoding": "mapping",
						"key": "t_address",
						"label": "mapping(address => uint256)",
						"numberOfBytes": "32",
						"value": "t_uint256"
					},
					"t_uint256": {
						"encoding": "inplace",
						"label": "uint256",
						"numberOfBytes": "32"
					}
				}
			},
			"userdoc": {
				"kind": "user",
				"methods": {},
				"version": 1
			}
		}
	}
}